:020000040000FA
:100000000C94F6060C9427070C9427070C942707EA
:100010000C9427070C9427070C9427070C942707A8
:100020000C9427070C9427070C9427070C94270798
:100030000C9427070C9427070C9427070C94270788
:100040000C9427070C9427070C9427070C94270778
:100050000C9427070C9427070C9427070C94BA4993
:100060000C9427070C9427070C9427070C94270758
:100070000C9427070C9427070C9427070C94270748
:100080000C9427070C9427070C9427070C94270738
:100090000C9427070C9427070C9427070C94044A08
:1000A0000C9427070C9427070C9427070C94270718
:1000B0000C9427070C9427070C9427070C94270708
:1000C0000C9427070C9427070C9427070C942707F8
:1000D0000C9427070C9427070C9427070C942707E8
:1000E0000C9427070C94E90C0C945F080C94601294
:1000F0000C94390B0C943A080C9467080C94320851
:100100000C94D70E0C94050B0C944B080C94D6074A
:100110000C946D080C9455080C94284B0C943811D1
:100120000C94E20A0C940C0B0C94D9110C94510809
:100130000C9471080C943E080C942C120C944708F3
:100140000C9436080C9441080C94CA120C9459086B
:100150000C94D7070C9463080C94E50C0C942C08B1
:100160000C943A110C94E0110C94E30A0C94E10CF9
:100170000C94DA070C942D120C94DC110C94D50716
:100180000C946C080C9496110C94F20A48483A4D61
:100190004D20414D00746F207069636B206D6F724C
:1001A0006520636F6C6F72732E00507265737320DD
:1001B000616E79206F74686572206B65790050728A
:1001C0006573732027302720696620646F6E652E63
:1001D000005F5F5F004C656E67746820696E204E3B
:1001E0006F2E204C4544732900285370656369665F
:1001F00079205261696E626F770048483A4D4D2010
:10020000414D005241494E424F573A0056494247EC
:10021000594F520048483A4D4D20414D00524149F6
:100220004E424F573A00524F5947424956004848AC
:100230003A4D4D20414D005241494E424F573A00F0
:10024000322D56494247594F5200312D524F59478E
:10025000424956002843686F6F7365204469726590
:100260006374696F6E290048483A4D4D20414D0036
:100270005241494E424F573A00746F207069636B88
:10028000206D6F726520636F6C6F72732E005072F9
:1002900065737320616E79206F74686572206B6579
:1002A00079005072657373202730272069662064B7
:1002B0006F6E652E00523A205F5F5F20473A205FE5
:1002C0005F5F20423A205F5F5F002843686F6F7373
:1002D000652050617420436F6C6F72290048483A62
:1002E0004D4D20414D005041545445524E3A004826
:1002F000483A4D4D20414D00504154204F52444505
:10030000523A00464F523A20412042204320442096
:100310004520460053454C4543543A203020312077
:1003200032203320342035002853656C65637420F7
:10033000486578204E756D626572290048483A4DCF
:100340004D20414D00504154204F524445523A00F7
:100350005F205F205F205F205F205F205F205F20A5
:100360005F205F005F205F205F205F205F205F20B5
:100370005F205F205F205F005F205F205F205F20A5
:100380005F205F205F205F205F205F0050726573F9
:10039000732023207768656E20646F6E65210048A6
:1003A000483A4D4D20414D00504154204F52444554
:1003B000523A005F5F00205041545445524E532141
:1003C0002900284D4158200048483A4D4D20414DC4
:1003D000004E4F2E20504154533A005F5F5F002083
:1003E0004C454473212900284D4158200048483A83
:1003F0004D4D20414D004E4F2E204C4544733A0048
:100400005F5F002053454354494F4E532129002834
:100410004D4158200048483A4D4D20414D004E4F27
:100420002E20534543543A00322D4279204E756DAB
:10043000626572204C45447300312D4279204E751F
:100440006D6265722053656374696F6E730048480E
:100450003A4D4D20414D004D4554484F443A0074AB
:100460006F207069636B206D6F726520636F6C6FB6
:1004700072732E00507265737320616E79206F74F1
:10048000686572206B657900507265737320273040
:100490002720696620646F6E652E00523A205F5FE8
:1004A0005F20473A205F5F5F20423A205F5F5F0036
:1004B0002843686F6F7365205365637420436F6CC6
:1004C0006F72290048483A4D4D20414D0045515525
:1004D000414C3A005F5F5F00204C45447321290086
:1004E000284D4158200048483A4D4D20414D004E7E
:1004F0004F2E204C4544733A005F5F002053454324
:1005000054494F4E53212900284D41582000484856
:100510003A4D4D20414D004E4F2E20534543543A05
:1005200000322D4279204E756D626572204C454433
:100530007300312D4279204E756D626572205365CE
:100540006374696F6E730048483A4D4D20414D0009
:100550004D4554484F443A00746F207069636B20D6
:100560006D6F726520636F6C6F72732E00507265D1
:10057000737320616E79206F74686572206B657982
:100580000050726573732027302720696620646FDE
:100590006E652E004E756D626572206F66204C454B
:1005A00044733A205F5F5F00523A205F5F5F2047ED
:1005B0003A205F5F5F20423A205F5F5F0028436818
:1005C0006F6F7365205365637420436F6C6F72297E
:1005D0000048483A4D4D20414D00554E455155413A
:1005E0004C3A00746F207069636B206D6F726520E8
:1005F000636F6C6F72732E00507265737320616E3F
:1006000079206F74686572206B657900507265732C
:10061000732027302720696620646F6E652E005294
:100620003A205F5F5F20473A205F5F5F20423A20B9
:100630005F5F5F002843686F6F736520326E6420D0
:10064000436F6C6F72290048483A4D4D20414D0070
:1006500048202620483A00523A205F5F5F20473A00
:10066000205F5F5F20423A205F5F5F002843686F32
:100670006F73652031737420436F6C6F722900486B
:10068000483A4D4D20414D0048202620483A0074FC
:100690006F207069636B206D6F726520636F6C6F84
:1006A00072732E00507265737320616E79206F74BF
:1006B000686572206B65790050726573732027300E
:1006C0002720696620646F6E652E00523A205F5FB6
:1006D0005F20473A205F5F5F20423A205F5F5F0004
:1006E0002843686F6F736520536F6C696420436F94
:1006F0006C6F72290048483A4D4D20414D00534FD0
:100700004C49443A002D002376002A5E0048483ABE
:100710004D4D20414D004752414449454E543A0009
:100720002D002376002A5E0048483A4D4D20414D69
:10073000004752414449454E543A00746F20706955
:10074000636B206D6F726520636F6C6F72732E0028
:10075000507265737320616E79206F7468657220C2
:100760006B657900507265737320273027206966A6
:1007700020646F6E652E00523A205F5F5F20473A1B
:10078000205F5F5F20423A205F5F5F002843686F11
:100790006F73652050617420436F6C6F722900483D
:1007A000483A4D4D20414D005041545445524E3A27
:1007B0000048483A4D4D20414D00504154204F5281
:1007C0004445523A00464F523A20412042204320AD
:1007D00044204520460053454C4543543A203020A0
:1007E000312032203320342035002853656C656376
:1007F0007420486578204E756D62657229004848FE
:100800003A4D4D20414D00504154204F52444552E5
:100810003A005F205F205F205F205F205F205F2025
:100820005F205F205F005F205F205F205F205F20F0
:100830005F205F205F205F205F005F205F205F20E0
:100840005F205F205F205F205F205F205F0050728D
:100850006573732023207768656E20646F6E652151
:100860000048483A4D4D20414D00504154204F52D0
:100870004445523A005F5F00205041545445524E67
:1008800053212900284D4158200048483A4D4D2019
:10089000414D004E4F2E20504154533A005F5F5F50
:1008A00000204C454473212900284D415820004820
:1008B000483A4D4D20414D004E4F2E204C4544733B
:1008C0003A005F5F0020434845434B505453212971
:1008D00000284D4158200048483A4D4D20414D00D8
:1008E0004E4F2E20434845434B3A00322D4279204B
:1008F0004E756D626572204C45447300312D42790E
:10090000204E756D6265722053656374696F6E73F6
:100910000048483A4D4D20414D004D4554484F4404
:100920003A00746F207069636B206D6F726520638D
:100930006F6C6F72732E00507265737320616E79E5
:10094000206F74686572206B6579005072657373EF
:100950002027302720696620646F6E652E00523A8A
:10096000205F5F5F20473A205F5F5F20423A205F51
:100970005F5F00285069636B20436865636B707428
:1009800020436F6C6F72290048483A4D4D20414D0D
:1009900000455155414C3A005F5F5F00204C454493
:1009A00073212900284D4158200048483A4D4D20D8
:1009B000414D004E4F2E204C4544733A005F5F007E
:1009C00020434845434B505453212900284D41585A
:1009D000200048483A4D4D20414D004E4F2E2043B7
:1009E0004845434B3A00322D4279204E756D626581
:1009F00072204C45447300312D4279204E756D6252
:100A0000657220436865636B7074730048483A4DA3
:100A10004D20414D004D4554484F443A00746F20DD
:100A20007069636B206D6F726520636F6C6F72739A
:100A30002E00507265737320616E79206F74686543
:100A400072206B6579005072657373202730272000
:100A5000696620646F6E652E004E756D626572204A
:100A60006F66204C4544733A205F5F5F00523A2026
:100A70005F5F5F20473A205F5F5F20423A205F5F01
:100A80005F00285069636B20436865636B70742056
:100A9000436F6C6F72290048483A4D4D20414D001C
:100AA000554E455155414C3A00523A205F5F5F2008
:100AB000473A205F5F5F20423A205F5F5F00285027
:100AC00069636B20436865636B707420436F6C6F60
:100AD00072290048483A4D4D20414D00554E455130
:100AE00055414C3A00746F207069636B206D6F72D2
:100AF0006520636F6C6F72732E0050726573732084
:100B0000616E79206F74686572206B657900507230
:100B10006573732027302720696620646F6E652E09
:100B200000523A205F5F5F20473A205F5F5F2042BC
:100B30003A205F5F5F002843686F6F736520326EF5
:100B40006420436F6C6F72290048483A4D4D204134
:100B50004D0048202620483A00523A205F5F5F202F
:100B6000473A205F5F5F20423A205F5F5F00284383
:100B7000686F6F73652031737420436F6C6F7229D7
:100B80000048483A4D4D20414D0048202620483A23
:100B9000002376002A5E002D003000000021002492
:100BA0000027002A002D003000330001010000045E
:100BB0000107010A0100002200250028002B002E59
:100BC000003100340002010000050108010B0100A2
:100BD0000020002300260029002C002F00320000F6
:100BE00001000003010601090105050505070508C7
:100BF000080808020202020A0A08080404040401A0
:100C000001010101010101030303030303030304C1
:100C10000707070C0C0C0C0C0C0C0C020202020651
:100C2000060606060606060B0B0B0B0B0B0B0B0141
:100C300002102020080810204010204080020102ED
:100C400001080402010102040810204080804020B5
:100C500010080402018004020180402010080402F0
:100C6000010804020101020408102040800102046E
:100C7000081020408000000A0B02090C0D0E080726
:100C8000030401000000000000000000000000005C
:100C90000000000000000000000000000000000054
:100CA0000012111000000000000000000000000011
:100CB0000000000000000000000000636F6E746917
:100CC0006E756500507265737320616E79206B6577
:100CD0007920746F004D4F4E4441592B2B20536D9A
:100CE0006172742120446F726D002A2A2A2A2A2AEE
:100CF0002A2A2A2A2A2A2A2A2A2A2A2A2A2A002A7E
:100D0000002A2A2A2A2A2A2A2A2A2A2A2A2A2A2A6D
:100D10002A2A2A2A2A005F5F5F5F5F5F00456E74A0
:100D200065722050617373776F72643A002A2A2AC1
:100D30002A2A2A2A2A2A2A2A2A2A2A2A2A2A2A2A13
:100D40002A002D0030002376002A5E0048483A4DE4
:100D50004D20414D005354494C4C533A002D002333
:100D600076002A5E0048483A4D4D20414D005354CC
:100D7000494C4C533A002D0030002376002A5E0087
:100D800048483A4D4D20414D00414E494D4154494E
:100D90004F4E533A002D002376002A5E0048483A11
:100DA0004D4D20414D00414E494D4154494F4E5308
:100DB0003A002D0030002376002A5E0048483A4D64
:100DC0004D20414D0053544152542050543A002D6F
:100DD000002376002A5E0048483A4D4D20414D00E0
:100DE00053544152542050543A00284B11241FBEF2
:100DF000CFEFD1E2DEBFCDBF00E00CBF27E0A4EE15
:100E0000B3E001C01D92A533B207E1F713E0A0E003
:100E1000B2E0E0E0F1EB00E00BBF02C007900D9202
:100E2000A43EB107D9F716E0C6EFD6E000E006C051
:100E300021970109802FFE010E944056C53FD1072E
:100E400080E00807A9F70E94B44B0C947E580C94DC
:100E50000000CF93DF9326E0E4ECF6E0DC0112968D
:100E600001900D922A95E1F72FEA32E0FC013183DF
:100E7000208324E1EAECF6E0DC01189601900D9263
:100E80002A95E1F74EED56E09C01245E3F4FE901C3
:100E9000EC9666E0FA01D90101900D926A95E1F7AE
:100EA0004A5F5F4F2A5F3F4F2C173D0791F74091F4
:100EB0001A0750911B0760911C0770911D07FC01D8
:100EC000E85AFF4F408351836283738340911E072A
:100ED00050911F076091200770912107349640833D
:100EE00051836283738320912207309123073496C4
:100EF0003183208320912407309125073296318356
:100F00002083209126073091270732963183208352
:100F10003296209128073091290731832083209130
:100F20002A0730912B0732963183208320912C079A
:100F300030912D0732963183208320912E073296EF
:100F4000208320912F073091300783599F4FFC0158
:100F500031832083DF91CF91089520E0DC0160FF91
:100F600003C001C02D932D936250E0F77040D0F77D
:100F70000895CF93DF93C0919706D091980620975C
:100F800089F08A819B81009749F02D853E85B901C2
:100F9000660F771F620F731F0E94AD070C80DD8103
:100FA000C02DEDCFDF91CF9108950895089580E988
:100FB00091E00895AF92BF92CF92DF92EF92FF92AD
:100FC0000F931F93CF93DF936C017B018B01040F71
:100FD000151FEB015E01AE18BF08C017D10759F00D
:100FE0006991D601ED91FC910190F081E02DC6014F
:100FF0001995892B79F7C501DF91CF911F910F9139
:10100000FF90EF90DF90CF90BF90AF900895FB01DD
:1010100044815581608171810C94DA07815082315D
:1010200008F05AC0E82FF0E08827E65EF74F8F4FB0
:101030000C9440563A083E082C08320836086C08D2
:10104000410847084B085108550859085F086308CC
:101050006C0867086D087108809180008F77809315
:1010600080000895809180008F7DF9CF809180006D
:10107000877FF5CF84B58F7784BD089584B58F7D44
:10108000FBCF8091B0008F778093B000089580915E
:10109000B0008F7DF9CF809190008F778093900082
:1010A0000895809190008F7DF9CF80919000877F87
:1010B000F5CF8091A0008F778093A0000895809154
:1010C000A0008F7DF9CF8091A000877FF5CF809120
:1010D00020018F77809320010895809120018F7DDA
:1010E000F9CF80912001877FF5CFCF93DF93282F11
:1010F00030E0F901EB58F34F8491F901E15DF34FD2
:10110000D491F901E751F44FC491CC23A1F081119E
:101110000E940E08EC2FF0E0EE0FFF1FE153F44F9A
:10112000A591B491EC91ED2381E090E009F480E089
:10113000DF91CF91089580E090E0FACF1F93CF9395
:10114000DF93282F30E0F901EB58F34F8491F90138
:10115000E15DF34FD491F901E751F44FC491CC23F1
:10116000A9F0162F81110E940E08EC2FF0E0EE0F6F
:10117000FF1FEB54F44FA591B4918FB7F894EC9105
:10118000111108C0D095DE23DC938FBFDF91CF9182
:101190001F910895DE2BF8CFCF93DF9390E0FC01F1
:1011A000E15DF34F24918751944FFC018491882392
:1011B000C9F090E0880F991FFC01E556F44FA59106
:1011C000B491FC01EB54F44FC591D49161110DC061
:1011D0009FB7F8948C91209582238C938881282343
:1011E00028839FBFDF91CF910895623051F49FB75C
:1011F000F8943C91822F809583238C93E8812E2B49
:10120000EFCF8FB7F894EC912E2B2C938FBFEACFB2
:101210003FB7F89480919D0490919E04A0919F0403
:10122000B091A00426B5A89B05C02F3F19F00196E8
:10123000A11DB11D3FBFBA2FA92F982F8827BC0130
:10124000CD01620F711D811D911D42E0660F771F58
:10125000881F991F4A95D1F708958F929F92AF9258
:10126000BF92CF92DF92EF92FF924B015C010E94FE
:1012700008096B017C010E9408096C197D098E091F
:101280009F09683E734081059105A8F321E0821A09
:101290009108A108B10888EEC80E83E0D81EE11CB1
:1012A000F11C81149104A104B10429F7FF90EF907F
:1012B000DF90CF90BF90AF909F908F9008952FB701
:1012C000F8946091990470919A0480919B04909194
:1012D0009C042FBF08954F925F926F927F929F92CE
:1012E000AF92BF92CF92DF92EF92FF920F931F9334
:1012F000CF93DF9300D0CDB7DEB7D090A906809111
:10130000AC069091AD06A091AE06B091AF06892BC8
:101310008A2B8B2BD9F00E94080900919906109115
:101320009A0620919B0630919C06601B710B820BE4
:10133000930B0091AC061091AD062091AE06309152
:10134000AF066017710782079307C8F20E94080969
:101350006093990670939A0680939B0690939C06DF
:10136000E091B406F091B506309759F04091B0067F
:101370005091B1066091B2067091B3068D2D19950A
:10138000D82EE0909706F09098064D2C512C712C99
:10139000612CE114F10409F459C0D7011C96CC90DA
:1013A0001C978091AA069091AB068436910510F4A3
:1013B0001C961C92D701ED91FC91A280B3801982FA
:1013C0001A821B82DD2079F1F701369610E000E0E9
:1013D0002191222319F19280992001F130E050E00F
:1013E00040E02F5F3F4F4F4F5F4FC301B2010E945C
:1013F000FA559B01AC01892D90E0B0E0A0E0BC0162
:10140000CD016F5F7F4F8F4F9F4F0E94FA55A1E034
:10141000B0E0AC0FBD1FA00FB11F8C930F5F1F4F2B
:1014200003301105A9F609811A812B81F701458541
:10143000568562817381C701F5011995D7011C9604
:10144000CC921C971496ED90FC90A3CF80919506BA
:10145000909196068C010F5F1F4F10939606009394
:1014600095064997B4F10E945F09C0909106D0900B
:101470009206E0909306F09094069B01AC012C1923
:101480003D094E095F0921F421E030E040E050E0E1
:1014900088EE93E0089FB001099F700D189F700DB2
:1014A0001124072E000C880B990B0E941E563093B6
:1014B000AB062093AA0610929606109295060E94FB
:1014C0005F096093910670939206809393069093C0
:1014D00094060F900F900F90DF91CF911F910F9175
:1014E000FF90EF90DF90CF90BF90AF909F907F9054
:1014F0006F905F904F90089520914E04260F3327F0
:10150000331F21323105ECF420917204FC0190E08C
:1015100080E0243069F082E00895A0914E0421918A
:10152000AC01425D5B4FA40FB52FB11D2C9301960A
:10153000861798F380914E04680F60934E0480E004
:10154000089581E008951092720481E080937404FC
:101550001092730461E084E10E949E0861E085E1DD
:101560000E949E08E9EBF0E080818E7F808380817D
:101570008D7F808388E48093B80085E48093BC00ED
:101580000895CF93DF9391E090932D048823B9F0D1
:10159000C091B800D091BA008091BC008A7B809342
:1015A000BC0060E084E10E949E0860E085E10E944A
:1015B0009E080E94A30AD093BA00C093B800DF919E
:1015C000CF9108950895E091C3048091C204E81773
:1015D00030F4F0E0E85FFB4F808190E008958FEFFA
:1015E0009FEF08959091C3048091C2042FEF3FEFC5
:1015F000981748F4E92FF0E0E85FFB4F208130E0D6
:101600009F5F9093C304C90108958091C204909193
:10161000C304891B990B0895CF92DF92EF92FF923A
:101620000F931F93CF93DF937C01CB018A0120910D
:101630000704222389F0EB016B01C40ED51ECC15E3
:10164000DD0569F06991D701ED91FC910190F08180
:10165000E02DC7011995F3CF642F0E947C0AC801C1
:10166000DF91CF911F910F91FF90EF90DF90CF907E
:101670000895CF93DF931F92CDB7DEB76983209192
:1016800007042223F9F02091C004203258F021E011
:1016900030E0FC013383228390E080E00F90DF9103
:1016A000CF9108958091C104E82FF0E0E951FC4FFB
:1016B000998190838F5F8093C1048093C00481E0FF
:1016C00090E0ECCF61E0CE0101960E947C0AF7CF5A
:1016D000CF92DF92EF92FF920F931F93CF93DF93FE
:1016E000FC01C48121E020930704C093E60310921B
:1016F000C1041092C0048385682B8DE996E00E9496
:10170000390BD091C004D13208F092C00E94080970
:101710006B017C0180917204811165C082E080932D
:10172000720481E0809374048FEF809371041092AF
:101730009604D0939504A7EEB3E0E5E7F4E080E0EB
:10174000D81385C01092970480919704CC0FC82BB2
:10175000C093970480917304813009F07CC010928B
:1017600073040E9408096B017C01809197048093A7
:10177000BB008091290490912A04A0912B04B09180
:101780002C04892B8A2B8B2B99F00E94080900913D
:10179000290410912A0420912B0430912C046C19F7
:1017A0007D098E099F090617170728073907E0F1F9
:1017B0008091BC0083FDD9CF85EC8093BC000E9452
:1017C00008096B017C0180917204823009F445C0E4
:1017D000809171048F3F61F180917104803241F1F9
:1017E0008091710425C08091290490912A04A091D0
:1017F0002B04B0912C04892B8A2B8B2B09F48ACFD4
:101800000E9408090091290410912A0420912B04B8
:1018100030912C046C197D098E099F090617170752
:101820002807390708F076CF809128040E94C10A62
:101830001092C1041092C00410920704DF91CF915E
:101840001F910F91FF90EF90DF90CF9008959D91A1
:1018500091938F5F75CF85EEB0CF809129049091E1
:101860002A04A0912B04B0912C04892B8A2B8B2B5A
:1018700009F4A9CF0E9408090091290410912A04B3
:1018800020912B0430912C046C197D098E099F093D
:10189000061717072807390708F095CFC5CFCF934C
:1018A000DF93DC0126E0629FA00DB11D112490960C
:1018B0005C934E935F9721E091962C939197FC0156
:1018C000E359FF4F0190F081E02DEC01C459DF4F47
:1018D0002881222341F0309719F0DC01662329F09A
:1018E000DF91CF9108953097D9F35C968C91DF9179
:1018F000CF911994CF92DF92EF92FF920F931F93A3
:10190000CF93DF93EC01162F042FFC0186E0689F34
:10191000E00DF11D112411A2878D90A18130910558
:1019200009F180F08230910509F443C0039709F46E
:1019300045C0DF91CF911F910F91FF90EF90DF9005
:10194000CF9008954423A9F341E050E0CE010E94D6
:101950004F0C0E945F09C85ADF4F688379838A83DE
:101960009B83E7CF0E945F09FE01E85AFF4FC080CA
:10197000D180E280F380AB01BC014C195D096E0996
:101980007F09729680819181B0E0A0E0841795076D
:10199000A607B70770F442E050E0612FCE01DF9157
:1019A000CF911F910F91FF90EF90DF90CF900C940B
:1019B0004F0C43E050E00111BCCFEFCF50E040E0CE
:1019C000ECCF862F642F0C94CC08862F642F0C94B8
:1019D0009E08862F0C9475082F923F924F925F922B
:1019E0006F927F928F929F92AF92BF92CF92DF922F
:1019F000EF92FF920F931F93CF93DF93CDB7DEB794
:101A00002C970FB6F894DEBF0FBECDBF9C878B8797
:101A100084599F4F9A83898381E0A981BA818C93ED
:101A20000E945F09EB85FC85E45AFF4FFC83EB8342
:101A30000081118122813381AB01BC01401B510B1C
:101A4000620B730BEB85FC85E859FF4F8081918118
:101A5000B0E0A0E084179507A607B70708F04FC1CC
:101A600010E0CB84DC84F6E6CF0ED11CEB84FC8442
:101A700022E6E20EF11CD6018C91181758F4D7011A
:101A8000ED91FC91E10FF11D62E080810E94CC0894
:101A90001F5FF1CF312C4B845C84B7E64B0E511C99
:101AA000EB84FC84E4E6EE0EF11C812C912C5401B5
:101AB00083942B853C852E593F4F3A872987D20145
:101AC0008C91381608F063C0032D10E0D701ED911A
:101AD000FC91E00FF11F61E080810E94CC08D701EA
:101AE000ED91FC91E00FF11F60E080810E949E0863
:101AF000D501C401032C04C0880F991FAA1FBB1F66
:101B00000A94D2F79E838D83FC01E095F095F887C7
:101B1000EF83212CD6018C91281620F5622C712C94
:101B2000A985BA85ED91FC91E60DF71D80810E9493
:101B30007508660C771CEB85FC85E60DF71D892B77
:101B400051F4808591852D813E81822B932B918745
:101B500080872394DFCF80859185AF81B8858A23E4
:101B60009B23F5CFD701ED91FC91E00FF11F61E0D0
:101B700080810E949E08F70180819181080F191FC2
:101B800060E0D8018C910E94CC08339498CF0B85EB
:101B90001C85C801CC9678012FEF3FEFF701478DE8
:101BA00050A1452B21F4148E368F258F11A2F6E01B
:101BB000EF0EF11CE816F90689F7A12C8B849C84A2
:101BC00020E6820E911C96E0392ED6018C91A81643
:101BD00008F058C0B12C6A2C712CB4E06B0E711C4B
:101BE000660C771CEB85FC856E0E7F1ED2018C91F6
:101BF000B81608F045C0F301408151810B2C02C09A
:101C0000569547950A94E2F7A89EC00111248B0DC2
:101C1000911DEB85FC8560E0258D368D821793073D
:101C200009F472C06F5F36966A30B1F740FF26C084
:101C3000EB85FC8570E060E0248D211119C0D40192
:101C4000ED91FC91E80FF91F4081369EF001379E1F
:101C5000F00D11242B853C85E20FF31F448F968FE6
:101C6000858F10A2178E41E0C9010E947A0C06C030
:101C70006F5F7F4F36966A307105F1F6B394B6CF39
:101C8000A394A3CFD12CD80191968C918111D82EF9
:101C90000A5F1F4FE016F106B1F70E945F09EB8162
:101CA000FC816083718382839383DD2041F1AB8566
:101CB000BC8591968C919197882309F15F968D91BF
:101CC0009C9190970197D9F45C968C912C960FB6C5
:101CD000F894DEBF0FBECDBFDF91CF911F910F9162
:101CE000FF90EF90DF90CF90BF90AF909F908F903C
:101CF0007F906F905F904F903F902F900895E98173
:101D0000FA81108280E0E2CF41708B859C85ADCF57
:101D1000CF93DF93EC016AE070E080E090E00E94F6
:101D20002D09CE010E94EC0C8823D9F38153DF9159
:101D3000CF9108950F931F93CF93DF932091E503E5
:101D40002F5F322F37703093E50320FF2BC020E840
:101D500031FD2064347009F02062205FFC01EC0149
:101D6000239600E011E06485662329F070E0C80145
:101D70000E940A566F5F6187322F369F030E30E054
:101D8000311D1124311110C01682662311F06150EB
:101D900061873196EC17FD0731F7DF91CF911F91E5
:101DA0000F91089520E0D4CF31503683EECF4F927B
:101DB0005F927F928F929F92AF92BF92CF92DF926B
:101DC000EF92FF920F931F93CF93DF932C01EB01C0
:101DD0000E940809F20127853089621B730B6A3063
:101DE0007105B0F3F8948A819B81181619060CF0DE
:101DF000CDC1E881F9816EB1862E689480F83EB13C
:101E00003E7F3EB9DA848F812D2D281B822F2F83B0
:101E10004F85042E000C550BAA81BB817D85FC8467
:101E2000EE847F5FF394E3949E819884B984AB84BD
:101E30001181C12C6C2D0C2D2C2D21811127889402
:101E40002111280F08F42FEF8195889470FD120F4F
:101E50001795889471FD120F1795889472FD120FD3
:101E60001795889473FD120F1795889474FD120FBF
:101E70001795889475FD120F1795889476FD120FAB
:101E80001795889477FD120F17958894622F71111A
:101E9000612F8D0D162F002C8EB800C017FF3EB994
:101EA00020816627889400C000C0002C3EB9211113
:101EB000290F00C0002C8EB800C016FF3EB908F4F0
:101EC0002FEF9195889400C000C0002C3EB9F0FC23
:101ED000620F00C0002C8EB800C015FF3EB9679598
:101EE0008894F1FC620F00C000C0002C3EB96795D9
:101EF000889400C0002C8EB800C014FF3EB9F2FCDC
:101F0000620F6795889400C000C0002C3EB9F3FCB6
:101F1000620F00C0002C8EB800C013FF3EB9679559
:101F20008894F4FC620F00C000C0002C3EB9679595
:101F3000889400C0002C8EB800C012FF3EB9F5FC9A
:101F4000620F6795889400C000C0002C3EB9F6FC73
:101F5000620F00C0002C8EB800C011FF3EB967951B
:101F60008894F7FC620F00C000C0002C3EB9679552
:101F7000889400C0002C8EB800C010FF3EB9122F0C
:101F8000F110162F9B0D00C000C0002C3EB900C000
:101F900000C0002C8EB800C017FF3EB92281662712
:101FA000889400C000C0002C3EB92111290D00C04A
:101FB000002C8EB800C016FF3EB908F42FEFE40FD6
:101FC000F51F00C000C0002C3EB9E0FC620F00C04D
:101FD000002C8EB800C015FF3EB967958894E1FCCF
:101FE000620F00C000C0002C3EB96795889400C005
:101FF000002C8EB800C014FF3EB9E2FC620F67955A
:10200000889400C000C0002C3EB9E3FC620F00C001
:10201000002C8EB800C013FF3EB967958894E4FC8D
:10202000620F00C000C0002C3EB96795889400C0C4
:10203000002C8EB800C012FF3EB9E5FC620F679518
:10204000889400C000C0002C3EB9E6FC620F00C0BE
:10205000002C8EB800C011FF3EB967958894E7FC4C
:10206000620F00C000C0002C3EB96795889400C084
:10207000002C8EB800C010FF3EB9122FE110162FB1
:10208000919400C000C0002C3EB99A0C00C000C062
:102090008EB800C017FF3EB921816627889400C022
:1020A00000C0002C3EB92111280F00C0002C8EB8B2
:1020B00000C016FF3EB908F42FEF8195889400C048
:1020C00000C0002C3EB970FD620F00C0002C8EB81D
:1020D00000C015FF3EB96795889471FD620F00C07E
:1020E00000C0002C3EB96795889400C0002C8EB8C3
:1020F00000C014FF3EB972FD620F6795889400C05E
:1021000000C0002C3EB973FD620F00C0002C8EB8D9
:1021100000C013FF3EB96795889474FD620F00C03C
:1021200000C0002C3EB96795889400C0002C8EB882
:1021300000C012FF3EB975FD620F6795889400C01C
:1021400000C0002C3EB976FD620F00C0002C8EB896
:1021500000C011FF3EB96795889477FD620F00C0FB
:1021600000C0002C3EB96795889400C0002C8EB842
:1021700000C010FF3EB9122F7111162F8D0D00C037
:1021800000C0002C3EB9119709F086CE4A815B81D0
:1021900020EE31E0DA010E944856DC01CB01F4E088
:1021A000B695A79597958795FA95D1F730E020E0F9
:1021B000B901EAE94E9F040E611D5E9F600D711D1D
:1021C0001124650F711D860F971FA11DB11D893E3A
:1021D00043E09407A105B10508F434C0885E93403C
:1021E000A109B10942E0B695A795979587954A95BB
:1021F000D1F747E0849F080E211D949F200D311DCB
:102200001124290F311D6091E40370E0860F971FA0
:10221000820F931F4091990450919A0460919B04FE
:1022200070919C04292F3327420F531F611D711D8C
:102230004093990450939A0460939B0470939C0478
:102240008093E40378940E940809F201708B6787F9
:10225000DF91CF911F910F91FF90EF90DF90CF9082
:10226000BF90AF909F908F907F905F904F90089518
:10227000689A08956F927F928F92CF92DF92EF9239
:10228000FF920F931F93CF93DF93CDB7DEB7629783
:102290000FB6F894DEBF0FBECDBF6C017A013801D6
:1022A000822EDC011C962C91CA0157FF04C088279E
:1022B0009927841B950B7A8369839C838B839E83E8
:1022C0008D836D867E868F86213049F5CE010196FD
:1022D0000E949A0E83E0888B1A8A198AF7FE02C040
:1022E0008DEF888BD601ED91FC910484F585E02D6E
:1022F000BE016F5F7F4FC601199562960FB6F894C5
:10230000DEBF0FBECDBFDF91CF911F910F91FF9028
:10231000EF90DF90CF908F907F906F9008951C8604
:102320001B861A86198618861F82D4CFEF92FF92D9
:102330000F931F93CF93DF93CDB7DEB762970FB69E
:10234000F894DEBF0FBECDBF7C01DC011C968C91E2
:102350007A8369835C834B835E834D830D871E87FD
:102360002F878130F9F4CE0101960E949A0E188AC7
:102370001A8A198AD701ED91FC910484F585E02D24
:10238000BE016F5F7F4FC701199562960FB6F89433
:10239000DEBF0FBECDBFDF91CF911F910F91FF9098
:1023A000EF9008951C861B861A86198618861F8250
:1023B000DECF90E080E00895FC0185859685089544
:1023C0000F931F93CF93DF9300D0CDB7DEB7AB0150
:1023D00019821A821B82DC01ED91FC910190F0813F
:1023E000E02D00E010E020E0BE016F5F7F4F199507
:1023F0000F900F900F90DF91CF911F910F91089543
:10240000FC01DB0112968D919C911397938382833B
:1024100083EA92E09183808314968C91149784834D
:1024200015968C911597858316968C9116978683B1
:1024300017968C911797878318968C911897808799
:1024400019968C91199781871A968C911A97828781
:102450001B968C9183870895089590E080E00895FD
:102460000F931F93CF938C01C62F0E94680B6C2F84
:102470006460C8010E94680B6C2F6B7FC8010E94CA
:10248000680B83EC90E00197F1F7CF911F910F91CA
:1024900008950F931F93CF93DF938C01D62FC42FF2
:1024A000607F642B0E94301280E1D89FB00111241C
:1024B0006C2BC801DF91CF911F910F910C943012BA
:1024C00041E00E94491281E090E00895EF92FF926E
:1024D0000F931F93CF93DF938C017B01D0E0C0E07B
:1024E000F701EC0FFD1F6491662331F041E0C80154
:1024F0000E9449122196F4CFCE01DF91CF911F9116
:102500000F91FF90EF900895CF93DF9300D000D00C
:102510001F921F92CDB7DEB728E0E6E0F2E0DE01C1
:10252000119601900D922A95E1F7FC012085241760
:1025300010F44FEF420F50E0440F551F21E030E000
:102540002C0F3D1F420F531FFA012081620F60685C
:1025500040E028960FB6F894DEBF0FBECDBFDF91E6
:10256000CF910C944912CF93DF93EC0140E06CE0E3
:102570000E9484126CE871E0CE01DF91CF910C943F
:10258000661240E061E00E9449128BE39FE10197EF
:10259000F1F708950E946958FC01808191810097AC
:1025A00011F00C94FF5608950F931F93CF93DF9370
:1025B000EC0188819981009759F02A813B81261787
:1025C000370730F081E0DF91CF911F910F9108958F
:1025D0008B016F5F7F4F0E948857009759F0998356
:1025E00088831B830A832C813D81232B59F7FC01AF
:1025F0001082E8CF80E0E7CFEF92FF920F931F9316
:10260000CF93DF93EC017B01FB0101900020E9F700
:1026100031978F01061B170BB8010E94D412288135
:102620003981811113C02115310519F0C9010E94AA
:10263000FF56198218821D821C821B821A82DF912A
:10264000CF911F910F91FF90EF9008951D830C8300
:10265000B701C901DF91CF911F910F91FF90EF90CA
:102660000C9477580F931F93CF93DF9300D000D033
:1026700000D0CDB7DEB78C01862FF8011182108211
:1026800013821282158214824AE0BE016F5F7F4F6F
:1026900090E00E945553BE016F5F7F4FC8010E94BA
:1026A000FC1229960FB6F894DEBF0FBECDBFDF91A6
:1026B000CF911F910F9108950F931F93CF93DF93A5
:1026C000CDB7DEB762970FB6F894DEBF0FBECDBFB1
:1026D0008C01CB01F80111821082138212821582C3
:1026E00014824AE0BE016F5F7F4F0E944A53BE01D1
:1026F0006F5F7F4FC8010E94FC1262960FB6F8947C
:10270000DEBF0FBECDBFDF91CF911F910F91089516
:10271000CF93DF931F921F92CDB7DEB7FC011182DA
:102720001082138212821582148269831A82BE017A
:102730006F5F7F4F0E94FC120F900F90DF91CF913F
:1027400008957F928F929F92AF92BF92CF92DF9225
:10275000EF92FF920F931F93CF93DF9300D000D09F
:10276000CDB7DEB76C015B01942E822EEE24E3948C
:10277000F12C7E2C192D1E0D4E2D60E0C6010E94FD
:10278000841281E0981080E0802309F448C083E03F
:10279000E816F10409F043C069E97BE0C6010E9434
:1027A0006612472D61E0C6010E94841267E97BE052
:1027B000C6010E946612472D62E0C6010E94841283
:1027C000F501E10FF11D31976081CE0101960E9464
:1027D0008813BE016F5F7F4FC6010E940708CE01BC
:1027E00001960E94CC128FEFE81AF80A84E0E816EE
:1027F000F10409F0BECF26960FB6F894DEBF0FBEE7
:10280000CDBFDF91CF911F910F91FF90EF90DF909F
:10281000CF90BF90AF909F908F907F900895612F41
:10282000CE0101960E943213BE016F5F7F4FC60139
:102830000E940708CE0101960E94CC12B2CFCF931E
:10284000DF9300D000D0CDB7DEB78A30C8F4682F50
:10285000CE0101960E943213BE016F5F7F4F86EB5F
:1028600096E00E940708CE0101960E94CC1226969F
:102870000FB6F894DEBF0FBECDBFDF91CF910895A4
:102880008A5066E4853028F4E82FF0E0EA59FD4FDD
:102890006081CE0101960E948813DECFEF92FF92F5
:1028A0000F931F93CF93DF93EC01198218821B8241
:1028B0001A821D821C8261157105E1F08B01FB01FA
:1028C00001900020E9F731977F01E61AF70AB70176
:1028D0000E94D41228813981811113C0211531053C
:1028E00019F0C9010E94FF56198218821D821C82AC
:1028F0001B821A82DF91CF911F910F91FF90EF9071
:102900000895FD82EC82B801C901DF91CF911F913A
:102910000F91FF90EF900C947758CF92DF92FF9237
:102920000F931F93CF93DF93CDB7DEB72C970FB6DE
:10293000F894DEBF0FBECDBF8C016B01F42E0E9458
:10294000C11240E060E0C8010E948412B601CE01CD
:1029500001960E944E14BE016F5F7F4FC8010E9416
:102960000708CE0101960E94CC12B801CE01019653
:102970000E940012CE0101960E94B31283E08F15CF
:10298000A0F442E062E1C8010E94841264E97BE0A5
:10299000C8010E94661243E062E1C8010E948412ED
:1029A00061E97BE0C8010E9466122C960FB6F8948C
:1029B000DEBF0FBECDBFDF91CF911F910F91FF9072
:1029C000DF90CF900895CF92DF92EF92FF920F9316
:1029D0001F93CF93DF93CDB7DEB72C970FB6F89444
:1029E000DEBF0FBECDBF7C016B01BC01CE010196E5
:1029F0000E94001244E068EC72E0CE0101960E9451
:102A00008D14B701CE0101960E94001201E022E070
:102A100040E06FEC72E0CE0101960E94A11310E03D
:102A20006AE070E080E090E00E942D09C6010E94FB
:102A3000EC0C982F8823D1F38FEC890F843088F425
:102A400080ED890F2C960FB6F894DEBF0FBECDBF78
:102A5000DF91CF911F910F91FF90EF90DF90CF907A
:102A600008958A3079F38930E9F411111150B701D2
:102A7000CE0101960E94001244E068EC72E0CE01A3
:102A800001960E948D14B701CE0101960E9400129A
:102A900001E022E0412F6FEC72E0CE0101960E942E
:102AA000A113BECF8B3019F7123008F71F5FDFCFAD
:102AB000AF92BF92CF92DF92EF92FF920F931F934C
:102AC000CF93DF93CDB7DEB760970FB6F894DEBF34
:102AD0000FBECDBF8AE0EEE0F2E0DE01119601907C
:102AE0000D928A95E1F786EB96E00E94C11240E0D4
:102AF00060E086EB96E00E94841261E377E086EB6B
:102B000096E00E94661240E06CE086EB96E00E9440
:102B1000841268E277E086EB96E00E94661242E05B
:102B200062E186EB96E00E94841265E277E086EB34
:102B300096E00E94661243E062E186EB96E00E9416
:102B4000841262E277E086EB96E00E946612CE0184
:102B500001967C0111E0412F60E086EB96E00E9437
:102B60008412612FCE010B960E943213BE01655F65
:102B70007F4F86EB96E00E940708CE010B960E94DD
:102B8000CC12412F61E086EB96E00E94841260E255
:102B900077E086EB96E00E946612412F62E086EBBA
:102BA00096E00E948412F701619171917F01CE013C
:102BB0000B960E944E14BE01655F7F4F86EB96E038
:102BC0000E940708CE010B960E94CC121F5F1430A2
:102BD00011F610E06AE070E080E090E00E942D09BC
:102BE00082EC96E00E94EC0C982F8823C9F38FECBE
:102BF000890F843098F480ED890F60960FB6F894B1
:102C0000DEBF0FBECDBFDF91CF911F910F91FF901F
:102C1000EF90DF90CF90BF90AF9008958A3069F326
:102C2000893009F083C01111115086EB96E00E94A3
:102C3000C11240E060E086EB96E00E94841266E1FB
:102C400077E086EB96E00E94661240E06CE086EB4F
:102C500096E00E9484126DE077E086EB96E00E9499
:102C6000661242E062E186EB96E00E9484126AE01E
:102C700077E086EB96E00E94661243E062E186EB25
:102C800096E00E94841267E077E086EB96E00E946F
:102C90006612A12EB12C7501EE0CFF1C81E090E0B4
:102CA0008C0F9D1FE80EF91ECC24C394D12C01E09B
:102CB000402F60E086EB96E00E9484120330F1F52D
:102CC0001230E1F541E050E069ED72E086EB96E00C
:102CD0000E94DA07402F61E086EB96E00E948412A2
:102CE00065E077E086EB96E00E946612402F62E096
:102CF00086EB96E00E948412F701619171917F0149
:102D0000CE010B960E944E14BE01655F7F4F86EB8D
:102D100096E00E940708CE010B960E94CC120F5F2E
:102D2000FFEFCF1ADF0A043019F654CF8B3009F0C9
:102D30007CCF123008F079CF1F5F77CFB6016A0DD4
:102D40007B1DCE010B960E945C13BE01655F7F4F19
:102D500086EB96E00E940708CE010B960E94CC12EB
:102D6000B9CF85ED8093BC008091290490912A040D
:102D7000A0912B04B0912C040796A11DB11D23E056
:102D8000B695A795979587952A95D1F72091BC0080
:102D900024FD03C0109272040895409129045091BB
:102DA0002A0460912B0470912C04452B462B472B51
:102DB00069F30097A105B10541F02AE22A95F1F7E0
:102DC00000C00197A109B109E1CF809128040C94BA
:102DD000C10A2F923F924F925F926F927F928F9291
:102DE0009F92AF92BF92CF92DF92EF92FF920F939A
:102DF0001F93CF93DF93CDB7DEB7C851D1400FB645
:102E0000F894DEBF0FBECDBFD82E8E0105541F4FE4
:102E10008CE0E8E1F2E0D80101900D928A95E1F7AB
:102E20007E0127ECE20EF11C8CE0E4E2F2E0D70137
:102E300001900D928A95E1F70E94B9070E946B09F3
:102E400031E0D31263C417016AE0562E86EB96E098
:102E50000E94C11240E060E086EB96E00E9484127E
:102E60006AE87BE086EB96E00E94661240E06CE048
:102E700086EB96E00E94841261E87BE086EB96E0A8
:102E80000E94661241E060E086EB96E00E948412A8
:102E90006EE67BE086EB96E00E94661243E060E01F
:102EA00086EB96E00E94841269E57BE086EB96E073
:102EB0000E946612CE018D529F4F7C0153E0D52EA9
:102EC000CE0101960E942907CE0101960E94880E2C
:102ED000082F10E0F101E00FF11F808190E0D70191
:102EE0008D939D937D0143E06D2D86EB96E00E94CE
:102EF0008412EBEBF0E0EC0FFD1FE00FF11F60819F
:102F0000CE0101960E948813BE016F5F7F4F86EB52
:102F100096E00E940708CE0101960E94CC12D3943D
:102F2000B6E0DB12CDCFCD52DF4F88819981C35DF2
:102F3000D040E4E6E89F7001E99FF00C1124CB52E9
:102F4000DF4F28813981C55DD040529EC001539E1C
:102F5000900D1124E80EF91EC952DF4F8881998126
:102F6000C75DD040E80EF91E9E012D523F4F69010A
:102F70004AE0B42ECE0101960E942907CE010196A7
:102F80000E94880E082F10E0F101E00FF11F8081F0
:102F900090E0D6018D939D936D0143E06B2D86EB00
:102FA00096E00E948412EBEBF0E0EC0FFD1FE00FC7
:102FB000F11F6081CE0101960E948813BE016F5FF0
:102FC0007F4F86EB96E00E940708CE0101960E9493
:102FD000CC12B394BDE0BB12CDCFCD52DF4FA88051
:102FE000B980C35DD040CB52DF4F88809980C55DEA
:102FF000D040C952DF4F68807980C75DD040FE0164
:10300000ED52FF4F6F0131E1432ECE0101960E9438
:103010002907CE0101960E94880E082F10E0F101C9
:10302000E00FF11F808190E0D6018D939D936D019B
:1030300043E0642D86EB96E00E948412EBEBF0E017
:10304000EC0FFD1FE00FF11F6081CE0101960E9481
:103050008813BE016F5F7F4F86EB96E00E940708E2
:10306000CE0101960E94CC124394B4E14B12CDCF15
:10307000EFEFEE16F10411F008F0E8CE44E64A9DB9
:10308000C0014B9D900D1124589C9001599C300D0E
:103090001124820F931F680E791E5FEF651671046D
:1030A00011F008F0D3CECD52DF4F88819981C35DF6
:1030B000D040489F5001499FB00C1124CB52DF4FA4
:1030C00028813981C55DD040529EC001539E900D2C
:1030D0001124A80EB91EC952DF4F88819981C75D9E
:1030E000D040A80EB91E6FEFA616B10411F008F07B
:1030F000ADCEC152DF4FE882CF5DD040C257DF4F27
:10310000E882CE58D040CD51DF4F6882C35ED040B8
:10311000C356DF4F6882CD59D040C151DF4FA882DE
:10312000CF5ED040C455DF4FA882CC5AD040E09249
:10313000C8046092C904A092CA040E946B092AE0E4
:10314000922E86EB96E00E94C11240E060E086EB92
:1031500096E00E94841262E57BE086EB96E00E9496
:10316000661240E06CE086EB96E00E94841269E40F
:103170007BE086EB96E00E94661241E060E086EB21
:1031800096E00E94841266E37BE086EB96E00E9464
:10319000661243E060E086EB96E00E94841261E2F2
:1031A0007BE086EB96E00E9466128E010D521F4F67
:1031B00093E0592ECE0101960E942907CE01019677
:1031C0000E94880EC82ED12CF101EC0DFD1D8081CE
:1031D00090E0F801819391938F0143E0652D86EB98
:1031E00096E00E948412EBEBF0E0EC0FFD1FEC0D7B
:1031F000FD1D6081CE0101960E948813BE016F5FA4
:103200007F4F86EB96E00E940708CE0101960E9450
:10321000CC125394F6E05F12CDCFCD52DF4F8881B0
:103220009981C35DD04024E6289F2001299F500C3E
:103230001124CB52DF4F88819981C55DD040989E83
:10324000B001999E700D1124460E571EC952DF4FD2
:1032500068817981C75DD040460E571EAE014D5240
:103260005F4F6A018AE0882ECE0101960E942907ED
:10327000CE0101960E94880E082F10E0F101E00FA8
:10328000F11F808190E0D6018D939D936D0143E005
:10329000682D86EB96E00E948412EBEBF0E0EC0FD9
:1032A000FD1FE00FF11F6081CE0101960E9488137F
:1032B000BE016F5F7F4F86EB96E00E940708CE014C
:1032C00001960E94CC128394BDE08B12CDCFCD52DB
:1032D000DF4FE881F981C35DD040C752DF4FF983EA
:1032E000E883C95DD040CB52DF4F28813981C55D6D
:1032F000D040C951DF4F39832883C75ED040C952BF
:10330000DF4F48815981C75DD040C551DF4F598398
:103310004883CB5ED040CE018D529F4F6C0101E1BE
:10332000802ECE0101960E942907CE0101960E94AF
:10333000880E082F10E0F101E00FF11F808190E06E
:10334000D6018D939D936D0143E0682D86EB96E049
:103350000E948412EBEBF0E0EC0FFD1FE00FF11F79
:103360006081CE0101960E948813BE016F5F7F4F7E
:1033700086EB96E00E940708CE0101960E94CC12CF
:103380008394B4E18B12CDCFEFEF4E16510411F0C0
:1033900008F0D7CE44E6C752DF4F28813981C95D96
:1033A000D040429F6001439FD00C1124C951DF4F90
:1033B00088819981C75ED040989EB001999E700D1A
:1033C0001124C60ED71EC551DF4FA881B981CB5E2F
:1033D000D040CA0EDB1EBFEFCB16D10411F008F0AF
:1033E000B0CECD52DF4F88819981C35DD040489FD8
:1033F0008001499F100D1124CB52DF4F88819981A4
:10340000C55DD040989EB001999E700D1124060FA5
:10341000171FC952DF4F68817981C75DD040060F01
:10342000171F0F3F110511F008F08BCEC157DF4F6A
:103430004882CF58D040C256DF4FC882CE59D040C4
:10344000C355DF4F0883CD5AD040B2016E197F09B2
:10345000072E000C880B990B0E94815320E030E06E
:1034600045E153E40E940155C951DF4F68837983D8
:103470008A839B83C75ED040B60166197709072E01
:10348000000C880B990B0E94815320E030E045E14D
:1034900053E40E940155C551DF4F688379838A83C5
:1034A0009B83CB5ED040B8016A197B09072E000CC4
:1034B000880B990B0E94815320E030E045E153E4F2
:1034C0000E940155C552DF4F688379838A839B83AD
:1034D000CB5DD04008EC14E0C752DF4F1882C95DC5
:1034E000D040C152DF4F3881CF5DD040232F30E034
:1034F00050E040E0CD50DF4F288339834A835B831F
:10350000C35FD040CD51DF4F9881C35ED040892F3B
:1035100090E0B0E0A0E0CD51DF4F88839983AA838B
:10352000BB83C35ED040C151DF4F3881CF5ED040F6
:10353000232F30E050E040E0C151DF4F2883398332
:103540004A835B83CF5ED040C752DF4F4881C95D5D
:10355000D040642F70E090E080E00E947F536B01C8
:103560007C01CD50DF4F688179818A819B81C35F67
:10357000D0400E947F534B015C01C951DF4F28812D
:1035800039814A815B81C75ED040C701B6010E9484
:10359000BC539B01AC01C501B4010E9495540E942B
:1035A000A255C152DF4F688379838A839B83CF5DA5
:1035B000D040CD51DF4F688179818A819B81C35E84
:1035C000D0400E947F534B015C01C551DF4F2881E1
:1035D00039814A815B81CB5ED040C701B6010E9430
:1035E000BC539B01AC01C501B4010E9495540E94DB
:1035F000A2554B015C01C151DF4F688179818A81FD
:103600009B81CF5ED0400E947F532B013C01C5526D
:10361000DF4F288139814A815B81CB5DD040C70172
:10362000B6010E94BC539B01AC01C301B2010E94D0
:1036300095540E94A2556B017C01C152DF4F6881F5
:1036400079818A819B81CF5DD0400E947355D801DA
:103650006C93C501B4010E947355F8016183C701E1
:10366000B6010E947355D80112966C93C752DF4F72
:10367000B881C95DD040BF5FC752DF4FB883C95D15
:10368000D0400D5F1F4FB63909F05ECF0E946B0925
:1036900086EB96E00E94C11240E060E086EB96E087
:1036A0000E9484126EE07BE086EB96E00E94661238
:1036B00042E060E086EB96E00E9484126AEF7AE0D6
:1036C00086EB96E00E94661243E060E086EB96E0AF
:1036D0000E94841265EE7AE086EB96E00E94661204
:1036E000CE0101960E942907CE0101960E94880E04
:1036F000820D932D911DFC018081882311F40C947F
:1037000073310E94B9070E946B099ECBF2E0DF1271
:10371000EFC51701FE01E257FF4FCE0183569F4FC1
:10372000BE0164557F4F9E0120593F4FAF01415F5D
:103730005F4F7E2E8F2EC151DF4F8883CF5ED040EA
:10374000692E562E472E1192DC011D92CD01DB0110
:103750001D92BD01D9011D929D014E175F0799F77A
:10376000B4E6DB2E1AE0C12E86EB96E00E94C11271
:1037700040E060E086EB96E00E9484126CED7AE017
:1037800086EB96E00E94661240E06CE086EB96E0E5
:103790000E94841263ED7AE086EB96E00E94661246
:1037A00041E060E086EB96E00E9484126EEB7AE0E6
:1037B00086EB96E00E94661243E060E086EB96E0BE
:1037C0000E94841269EA7AE086EB96E00E94661213
:1037D0009E012D523F4F7901A3E0BA2ECE010196F2
:1037E0000E942907CE0101960E94880E082F10E042
:1037F000F101E00FF11F808190E0D7018D939D933F
:103800007D0143E06B2D86EB96E00E948412EBEB8A
:10381000F0E0EC0FFD1FE00FF11F6081CE0101967B
:103820000E948813BE016F5F7F4F86EB96E00E9477
:103830000708CE0101960E94CC12B394B6E0BB12E9
:10384000CDCFCD52DF4F88819981C35DD040D89EC6
:103850008001D99E100D1124CB52DF4F2881398170
:10386000C55DD040C29EC001C39E900D1124080FBB
:10387000191FC952DF4F88819981C75DD040080F59
:10388000191FFE01ED52FF4F5F01FAE09F2ECE019E
:1038900001960E942907CE0101960E94880EE82E0B
:1038A000F12CF101EE0DFF1D808190E0D5018D938B
:1038B0009D935D0143E0692D86EB96E00E948412A2
:1038C000EBEBF0E0EC0FFD1FEE0DFF1D6081CE0174
:1038D00001960E948813BE016F5F7F4F86EB96E0D2
:1038E0000E940708CE0101960E94CC129394BDE07D
:1038F0009B12CDCFCD52DF4FE881F981C35DD0401F
:10390000C752DF4FF983E883C95DD040CB52DF4F08
:1039100028813981C55DD040C152DF4F398328836A
:10392000CF5DD040C952DF4F48815981C75DD0403B
:10393000CD51DF4F59834883C35ED040CE018D52B5
:103940009F4F5C01E1E19E2ECE0101960E94290766
:10395000CE0101960E94880EE82EF12CF101EE0DA9
:10396000FF1D808190E0D5018D939D935D0143E023
:10397000692D86EB96E00E948412EBEBF0E0EC0FF1
:10398000FD1FEE0DFF1D6081CE0101960E94881380
:10399000BE016F5F7F4F86EB96E00E940708CE0165
:1039A00001960E94CC129394B4E19B12CDCF0F3FAD
:1039B000110511F008F0D8CEC752DF4F4881598168
:1039C000C95DD040D49E9001D59E300D1124C152C6
:1039D000DF4FA881B981CF5DD040CA9EC001CB9E88
:1039E000900D1124280F391FCD51DF4FE881F98147
:1039F000C35ED0402E0F3F1F2F3F310511F008F05E
:103A0000B3CECD52DF4F48815981C35DD040D49EA3
:103A1000C001D59E900D1124CB52DF4F6881798172
:103A2000C55DD040C69EA001C79E500D1124840FD5
:103A3000951FC952DF4F48815981C75DD040840F1F
:103A4000951F8F3F910511F008F08ECEC752DF4FC2
:103A50007882C95DD040C652DF4F8882CA5DD040AF
:103A6000C752DF4FE881F981C95DD0400193C75249
:103A7000DF4FF983E883C95DD040C151DF4FF88142
:103A8000CF5ED040CD51DF4FF883C35ED040CC51E4
:103A9000DF4F6882C45ED040CD51DF4FA881B9812D
:103AA000C35ED0402D93CD51DF4FB983A883C35E51
:103AB000D040C152DF4F5882CF5DD040C052DF4F5F
:103AC0004882C05ED040C152DF4FE881F981CF5DAE
:103AD000D0408193C152DF4FF983E883CF5DD0405E
:103AE00091E0E1969FAFE1970093C8042093C90449
:103AF0008093CA0421E030E0C551DF4F3983288329
:103B0000CB5ED040C151DF4F1882CF5ED0406624DB
:103B10006394712C0E946B09C151DF4FF881CF5E15
:103B2000D040F60DC151DF4FF883CF5ED040C55174
:103B3000DF4F8881CB5ED040F639F0F186EB96E01E
:103B40000E94C11240E060E086EB96E00E94841281
:103B500066E47AE086EB96E00E94661242E060E05E
:103B600086EB96E00E94841262E37AE086EB96E0B0
:103B70000E94661243E060E086EB96E00E948412A9
:103B80006DE17AE086EB96E00E946612CE01019626
:103B90000E942907CE0101960E94880E820D932D66
:103BA000911DDC018C91882311F40C9473310E94D7
:103BB000B9070E946B09AECD8F3009F4BFCFC15158
:103BC000DF4FF881CF5ED040EF2FF0E0C350DF4FE2
:103BD000F983E883CD5FD04086EB96E00E94C11266
:103BE00040E060E086EB96E00E94841260EA7AE0B2
:103BF00086EB96E00E94661240E06CE086EB96E071
:103C00000E94841267E97AE086EB96E00E946612D1
:103C100041E060E086EB96E00E94841262E87AE080
:103C200086EB96E00E94661242E060E086EB96E04A
:103C30000E9484126DE67AE086EB96E00E9466129E
:103C400043E060E086EB96E00E94841269E57AE04A
:103C500086EB96E00E9466129E012D523F4F79013D
:103C600063E0D62ECE0101960E942907CE0101966F
:103C70000E94880E082F10E0F101E00FF11F8081F3
:103C800090E0D7018D939D937D0142E06D2D86EBF1
:103C900096E00E948412EBEBF0E0EC0FFD1FE00FCA
:103CA000F11F6081CE0101960E948813BE016F5FF3
:103CB0007F4F86EB96E00E940708CE0101960E9496
:103CC000CC12D394B6E0DB12CDCFCD52DF4F28819A
:103CD0003981C35DD040E4E6E29FC001E39F900DCF
:103CE0001124CB52DF4F48815981C55DD040FAE0A5
:103CF000F49F9001F59F300D1124820F931FC9523C
:103D0000DF4F28813981C75DD040AC01420F531F7E
:103D1000CD50DF4F59834883C35FD040CE018D52D1
:103D20009F4F7C015AE0D52ECE0101960E942907B3
:103D3000CE0101960E94880E082F10E0F101E00FDD
:103D4000F11F808190E0D7018D939D937D0142E02A
:103D50006D2D86EB96E00E948412EBEBF0E0EC0F09
:103D6000FD1FE00FF11F6081CE0101960E948813B4
:103D7000BE016F5F7F4F86EB96E00E940708CE0181
:103D800001960E94CC12D394BDE0DB12CDCFCD5270
:103D9000DF4F68807980C35DD040CB52DF4F4880D1
:103DA0005980C55DD040C952DF4F88809980C75D7A
:103DB000D040FE01ED52FF4F7F0141E1D42ECE01F4
:103DC00001960E942907CE0101960E94880E082FB5
:103DD00010E0F101E00FF11F808190E0D7018D9399
:103DE0009D937D0142E06D2D86EB96E00E9484124A
:103DF000EBEBF0E0EC0FFD1FE00FF11F6081CE0157
:103E000001960E948813BE016F5F7F4F86EB96E09C
:103E10000E940708CE0101960E94CC12D394B4E10F
:103E2000DB12CDCFCD52DF4FA880B980C35DD0402B
:103E3000CB52DF4FC880D980C55DD040C952DF4F1B
:103E4000E880F980C75DD040FE01ED52FF4FC552BA
:103E5000DF4FF983E883CB5DD040F0E1C951DF4FFC
:103E6000F883C75ED040CE0101960E942907CE019B
:103E700001960E94880E082F10E0F101E00FF11F5B
:103E8000808190E0C552DF4FA881B981CB5DD040E1
:103E90008D939D93C552DF4FB983A883CB5DD040EE
:103EA00043E0C951DF4F6881C75ED04086EB96E0A2
:103EB0000E948412EBEBF0E0EC0FFD1FE00FF11F0E
:103EC0006081CE0101960E948813BE016F5F7F4F13
:103ED00086EB96E00E940708CE0101960E94CC1264
:103EE000C951DF4FB881C75ED040BF5FC951DF4FB6
:103EF000B883C75ED040B33109F0B5CFCD50DF4FA6
:103F0000E881F981C35FD040EF3FF10511F008F07F
:103F100063CE34E6369DC001379D900D11244AE0F2
:103F2000449D9001459D300D1124820F931FDC01AB
:103F3000A80DB91DC950DF4FB983A883C75FD04012
:103F4000AF3FB10511F008F047CEB4E6BA9DC0010D
:103F5000BB9D900D11244C9D90014D9D300D112461
:103F6000820F931F2C014E0C5F1CEFEF4E16510475
:103F700011F008F031CECD52DF4F28813981C35D79
:103F8000D040B29FC001B39F900D1124CB52DF4FA0
:103F900048815981C55DD040FAE0F49F9001F59FBA
:103FA000300D1124820F931FC952DF4F6880798032
:103FB000C75DD040680E791EC350DF4F888199815C
:103FC000CD5FD040860D911D873991050CF004CE50
:103FD000C752DF4FA881B981C95DD040CD50DF4FB6
:103FE000E881C35FD040ED93C752DF4FB983A88308
:103FF000C95DD040CD51DF4FA881B981C35ED040AB
:10400000C950DF4FE881C75FD040ED93CD51DF4FFE
:10401000B983A883C35ED040C152DF4FA881B98164
:10402000CF5DD0404D92C152DF4FB983A883CF5DA1
:10403000D040E0E7F0E0EC0FFD1FC551DF4F2881D5
:104040003981CB5ED040E20FF31F6082C951DF4F50
:104050001882C75ED040C752DF4F48815981C95D81
:10406000D04042505109CB5FDE4F59834883C55041
:10407000D140C301B0E0A0E0C75FDE4F88839983E1
:10408000AA83BB83C950D140CD51DF4FA881B981EC
:10409000C35ED0401297C35FDE4FB983A883CD5073
:1040A000D140C152DF4FE881F981CF5DD0403297D6
:1040B000C15FDE4FF983E883CF50D140C951DF4F54
:1040C0003881C75ED040232F30E0C550DF4F3983A1
:1040D0002883CB5FD0406216730608F4FBC0CB5F29
:1040E000DE4FA881B981C550D1401C91C951DF4F25
:1040F000B881C75ED0406B2F70E090E080E00E94F6
:104100007F53C552DF4F688379838A839B83CB5D5E
:10411000D040C75FDE4F688179818A819B81C95019
:10412000D1400E947F536B017C01CD50DF4F6881ED
:104130007981C35FD040611B7109072E000C880B89
:10414000990B0E948153A70196010E940155C55207
:10415000DF4F288139814A815B81CB5DD0400E944D
:10416000BC534B015C01612F70E090E080E00E9445
:104170007F539B01AC01C501B4010E9495540E947C
:10418000A255CF5FDE4F688379838A839B83C150BA
:10419000D140C35FDE4FE881F981CD50D14010811D
:1041A000C950DF4F68817981C75FD040611B7109B9
:1041B000072E000C880B990B0E948153A7019601D2
:1041C0000E940155C552DF4F288139814A815B81A8
:1041D000CB5DD0400E94BC534B015C01612F70E06D
:1041E00090E080E00E947F539B01AC01C501B401C7
:1041F0000E9495540E94A2554B015C01C15FDE4FA5
:10420000A881B981CF50D1401C91B201611B7109C5
:10421000072E000C880B990B0E948153A701960171
:104220000E940155C552DF4F288139814A815B8147
:10423000CB5DD0400E94BC536B017C01612F70E0CC
:1042400090E080E00E947F539B01AC01C701B60162
:104250000E9495540E94A2556B017C01C550DF4F0E
:1042600008811981CB5FD040C350DF4FE881F981CD
:10427000CD5FD0400E0F1F1F01501109C801880FDC
:10428000991F080F191F08531B4FCF5FDE4F68811E
:1042900079818A819B81C150D1400E947355D80198
:1042A0006C93C501B4010E947355F8016183C70185
:1042B000B6010E947355D80112966C93C951DF4F15
:1042C000B881C75ED040BF5FC951DF4FB883C75EBA
:1042D000D040F4CEC551DF4FE881F981CB5ED040AC
:1042E0003196C551DF4FF983E883CB5ED04012CCC5
:1042F000B3E0DB12BBC5170186EB96E00E94C1124A
:1043000040E060E086EB96E00E94841265E17AE08E
:1043100086EB96E00E94661240E06CE086EB96E049
:104320000E9484126CE07AE086EB96E00E946612AE
:1043300042E060E086EB96E00E94841267EF79E04D
:1043400086EB96E00E94661243E060E086EB96E022
:104350000E94841266EE79E086EB96E00E94661277
:10436000CE0101960E942907CE0101960E94880E77
:1043700090E082309105A0F7C152DF4F1882CF5DE7
:10438000D040892B09F09FC3C152DF4F8881CF5D98
:10439000D04081508F3008F49FC086EB96E00E9499
:1043A000C11240E060E086EB96E00E9484126BED63
:1043B00079E086EB96E00E94661240E06CE086EBC6
:1043C00096E00E94841262ED79E086EB96E00E940E
:1043D000661241E060E086EB96E00E9484126CEC8D
:1043E00079E086EB96E00E94661241E065E086EB9C
:1043F00096E00E9484126FE070E0CE0101960E9468
:104400005C13BE016F5F7F4F86EB96E00E9407084A
:10441000CE0101960E94CC1241E068E086EB96E066
:104420000E94841260EC79E086EB96E00E946612AE
:1044300043E069E086EB96E00E9484126DEB79E040
:1044400086EB96E00E9466127E01E3EDEE0EF11C13
:1044500029E0B22E6701CE0101960E942907CE0104
:1044600001960E94880E082F10E0F101E00FF11F65
:10447000808190E0D7018D939D937D0143E06B2D6A
:1044800086EB96E00E948412EBEBF0E0EC0FFD1F50
:10449000E00FF11F6081CE0101960E948813BE01DA
:1044A0006F5F7F4F86EB96E00E940708CE01019672
:1044B0000E94CC12BAE0BB120CC0F601908182813E
:1044C0009B9D800D1124C152DF4F8883CF5DD0406A
:1044D0005BCF9AE0B92EBFCFC152DF4F2881CF5DAD
:1044E000D0402150330BB901072E000C880B990BDB
:1044F0000E9481539B01AC0160E070E085E193E490
:104500000E9401550E94A2550E9473553B01FE0175
:10451000E257FF4FCE0183569F4F6E012CEAC20E29
:10452000D11CAE0140595F4FCD50DF4F59834883B6
:10453000C35FD0407F015FE0E50EF11CCD50DF4F3F
:1045400028813981C35FD0408F01BC01A60111923F
:10455000DC011D92CD01D6011D926D01D9011D9284
:104560009D01EE15FF0599F7F8013197C551DF4F11
:10457000F983E883CB5ED0409B0121503109C951BA
:10458000DF4F39832883C75ED040CA010197C151EC
:10459000DF4F99838883CF5ED040CD51DF4F1882A3
:1045A000C35ED040C752DF4F1882C95DD040D301EF
:1045B000BB27CB5FDE4FB983A883C550D1409301A1
:1045C00050E040E0C75FDE4F288339834A835B8336
:1045D000C950D140C152DF4F3881CF5DD040CD515D
:1045E000DF4F4881C35ED040341709F42EC280E00B
:1045F00091E000E011E0E12CFF24F394C752DF4F7B
:10460000B881C95DD040AB2FB0E0C550DF4FB98352
:10461000A883CB5FD040CB5FDE4F48805980C55028
:10462000D1404A0E5B1EA4E6BA2EBAE0AB2EE7E9F3
:104630004E1651040CF06DC186EB96E00E94C1123B
:1046400040E060E086EB96E00E94841261E979E048
:1046500086EB96E00E94661240E06CE086EB96E006
:104660000E94841268E879E086EB96E00E94661268
:1046700041E060E086EB96E00E94841263E779E017
:1046800086EB96E00E94661243E060E086EB96E0DF
:104690000E9484126EE579E086EB96E00E94661235
:1046A0004E01F3ED8F0E911CE3E0DE2E7401CE017E
:1046B00001960E942907CE0101960E94880E082FBC
:1046C00010E0F101E00FF11F808190E0D7018D93A0
:1046D0009D937D0143E06D2D86EB96E00E94841250
:1046E000EBEBF0E0EC0FFD1FE00FF11F6081CE015E
:1046F00001960E948813BE016F5F7F4F86EB96E0A4
:104700000E940708CE0101960E94CC12D394B6E015
:10471000DB12CDCFCD52DF4F88819981C35DD04070
:10472000B89E7001B99EF00C1124CB52DF4F288146
:104730003981C55DD040A29EC001A39E900D112479
:10474000E80EF91EC952DF4F88819981C75DD040BC
:10475000E80EF91E6401EAE0C552DF4FE883CB5D45
:10476000D040CE0101960E942907CE0101960E94F9
:10477000880E082F10E0F101E00FF11F808190E01A
:10478000D6018D939D936D0143E0C552DF4F688143
:10479000CB5DD04086EB96E00E948412EBEBF0E01C
:1047A000EC0FFD1FE00FF11F6081CE0101960E940A
:1047B0008813BE016F5F7F4F86EB96E00E9407086B
:1047C000CE0101960E94CC12C552DF4FB881CB5D5D
:1047D000D040BF5FC552DF4FB883CB5DD040BD3006
:1047E00009F0BFCFCD52DF4F88819981C35DD040A2
:1047F000B89E8001B99E100D1124CB52DF4F288145
:104800003981C55DD040A29EC001A39E900D1124A8
:10481000080F191FC952DF4F88819981C75DD040A9
:10482000080F191FE1E1C552DF4FE883CB5DD0408F
:10483000CE0101960E942907CE0101960E94880EA2
:10484000C82ED12CF101EC0DFD1D808190E0D4012A
:104850008D939D934D0143E0C552DF4F6881CB5D41
:10486000D04086EB96E00E948412EBEBF0E0EC0F78
:10487000FD1FEC0DFD1D6081CE0101960E94881385
:10488000BE016F5F7F4F86EB96E00E940708CE0166
:1048900001960E94CC12C552DF4FB881CB5DD0404B
:1048A000BF5FC552DF4FB883CB5DD040B43109F054
:1048B000BFCFCD52DF4F28813981C35DD040B29E3A
:1048C000C001B39E900D1124CB52DF4F4881598116
:1048D000C55DD040A49E9001A59E300D1124820F8D
:1048E000931FC952DF4F28813981C75DD040820FA5
:1048F000931FEFEFEE16F10411F008F098CE0F3F82
:10490000110511F008F093CE8F3F910511F008F0DA
:104910008ECEC350DF4F6882CD5FD040F7E94F168F
:104920005104BCF4C551DF4FA881B981CB5ED040A2
:104930001196EC92C951DF4FE881F981C75ED040F2
:104940000183C151DF4FA881B981CF5ED04011965C
:104950008C93CD51DF4FB881C35ED040B1116CC193
:1049600081E0E1968FAFE197C356DF4F9881CD5933
:10497000D040C455DF4F8881CC5AD040C257DF4F5A
:104980002881CE58D0402093C8049093C9048093C6
:10499000CA040E946B09CD51DF4FE881C35ED0404D
:1049A000E11153C2C752DF4FF881C95DD040FF5FAC
:1049B000C752DF4FF883C95DD040CD51DF4F4881EA
:1049C000C35ED0404F5FCD51DF4F4883C35ED040C0
:1049D000CD50DF4F88819981C35FD0400196CD5083
:1049E000DF4F99838883C35FD040C551DF4FA881D3
:1049F000B981CB5ED0401196C551DF4FB983A883F2
:104A0000CB5ED040C951DF4FE881F981C75ED0400D
:104A10003196C951DF4FF983E883C75ED040C15159
:104A2000DF4F28813981CF5ED0402F5F3F4FC1518A
:104A3000DF4F39832883CF5ED040C752DF4F3881A4
:104A4000C95DD040363908F4C5CD86EB96E00E94AA
:104A5000C11240E060E086EB96E00E9484126BE4B5
:104A600079E086EB96E00E94661242E060E086EB19
:104A700096E00E94841267E379E086EB96E00E945C
:104A8000661243E060E086EB96E00E94841262E2E8
:104A900079E086EB96E00E946612CE0101960E94B4
:104AA0002907CE0101960E94880E820D932D911D3B
:104AB000DC018C91882311F40C9473310E94B907A6
:104AC0000E946B0919CC712C612C04E6A02E8AE09F
:104AD000B82EC30101978739910508F418CD86EBEC
:104AE00096E00E94C11240E060E086EB96E00E94F2
:104AF000841263EB79E086EB96E00E94661240E058
:104B00006CE086EB96E00E9484126AEA79E086EB1C
:104B100096E00E94661241E060E086EB96E00E941B
:104B2000841264EA79E086EB96E00E94661241E026
:104B300065E086EB96E00E94841265E970E0CE01A4
:104B400001960E945C13BE016F5F7F4F86EB96E07B
:104B50000E940708CE0101960E94CC1241E068E055
:104B600086EB96E00E9484126CE979E086EB96E091
:104B70000E94661243E068E086EB96E00E94841291
:104B800068E979E086EB96E00E9466126E0133EDEB
:104B9000C30ED11C18E0912E7601CE0101960E9421
:104BA0002907CE0101960E94880E082F10E0F1011E
:104BB000E00FF11F808190E0D6018D939D936D01F0
:104BC00043E0692D86EB96E00E948412EBEBF0E067
:104BD000EC0FFD1FE00FF11F6081CE0101960E94D6
:104BE0008813BE016F5F7F4F86EB96E00E94070837
:104BF000CE0101960E94CC129394BBE09B12CDCFC4
:104C0000F70180819181A89EB001A99E700D1124A9
:104C100022813381B29EC001B39E900D1124680F92
:104C2000791F64807580660E771EFFE0C152DF4FEA
:104C3000F883CF5DD0404DCFC350DF4F2881CD5F8B
:104C4000D040CD50DF4FE881F981C35FD040208351
:104C5000C552DF4F1882CB5DD040C552DF4F38813F
:104C6000CB5DD040432E512C6414750408F491CED2
:104C7000C551DF4FA881B981CB5ED0401C91632F15
:104C800070E090E080E00E947F53C950DF4F68835E
:104C900079838A839B83C75FD040C75FDE4F68817B
:104CA00079818A819B81C950D1400E947F536B01D9
:104CB0007C01C551DF4FE881F981CB5ED040618135
:104CC000611B770B072E000C880B990B0E948153F8
:104CD000A70196010E940155C950DF4F28813981F3
:104CE0004A815B81C75FD0400E94BC534B015C018D
:104CF000612F70E090E080E00E947F539B01AC0147
:104D0000C501B4010E9495540E94A255CF5FDE4FA9
:104D1000688379838A839B83C150D140C951DF4F17
:104D2000A881B981C75ED0401C9111966C91611B1E
:104D3000770B072E000C880B990B0E948153A7015B
:104D400096010E940155C950DF4F288139814A815F
:104D50005B81C75FD0400E94BC534B015C01612F57
:104D600070E090E080E00E947F539B01AC01C501A0
:104D7000B4010E9495540E94A2554B015C01C1519F
:104D8000DF4FE881F981CF5ED04010816181611BE6
:104D9000770B072E000C880B990B0E948153A701FB
:104DA00096010E940155C950DF4F288139814A81FF
:104DB0005B81C75FD0400E94BC536B017C01612FB7
:104DC00070E090E080E00E947F539B01AC01C7013E
:104DD000B6010E9495540E94A2556B017C01C550FA
:104DE000DF4F08811981CB5FD040040D151D0150A4
:104DF0001109C801880F991F080F191F08531B4F6D
:104E0000CF5FDE4F688179818A819B81C150D1401B
:104E10000E947355D8016C93C501B4010E9473556B
:104E2000F8016183C701B6010E947355D80112963B
:104E30006C93C552DF4FB881CB5DD040BF5FC55288
:104E4000DF4FB883CB5DD04008CFC752DF4F2881FA
:104E5000C95DD040C350DF4F3881CD5FD040230FB4
:104E6000C752DF4F2883C95DD040A7CDB4E0DB1225
:104E70000C94733186EB96E00E94C11240E060E032
:104E800086EB96E00E9484126AE179E086EB96E078
:104E90000E94661240E06CE086EB96E00E9484126D
:104EA00061E179E086EB96E00E94661242E060E004
:104EB00086EB96E00E9484126CEF78E086EB96E039
:104EC0000E94661243E060E086EB96E00E94841246
:104ED0006BEE78E086EB96E00E946612CE010196BA
:104EE0000E942907CE0101960E94880E90E0823030
:104EF0009105A0F7C752DF4F1882C95DD040892BBA
:104F000009F07FC1C752DF4F8881C95DD040815011
:104F10008E3108F4A2C086EB96E00E94C11240E0F8
:104F200060E086EB96E00E94841260EE78E086EB0B
:104F300096E00E94661240E06CE086EB96E00E94EC
:104F4000841267ED78E086EB96E00E94661241E0FD
:104F500060E086EB96E00E94841261ED78E086EBDB
:104F600096E00E94661241E065E086EB96E00E94C2
:104F700084126EE170E0CE0101960E945C13BE01C6
:104F80006F5F7F4F86EB96E00E940708CE01019687
:104F90000E94CC1241E068E086EB96E00E94841209
:104FA00065EC78E086EB96E00E94661243E069E0EB
:104FB00086EB96E00E94841262EC78E086EB96E045
:104FC0000E9466128E010D521F4F69E0B62E7801C5
:104FD000CE0101960E942907CE0101960E94880EFB
:104FE000C82ED12CE7ECF0E0EC0FFD1FEC0DFD1D01
:104FF000808190E0F801819391938F0143E06B2DC4
:1050000086EB96E00E948412EBEBF0E0EC0FFD1FC4
:10501000EC0DFD1D6081CE0101960E948813BE013A
:105020006F5F7F4F86EB96E00E940708CE010196E6
:105030000E94CC12FAE0BF120DC0D7018C911296DB
:105040006C918B9D600D1124C752DF4F6883C95D41
:10505000D04058CF5AE0B52EBBCFC752DF4FE881C2
:10506000C95DD040E150FF0BBF01072E000C880B3B
:10507000990B0E9481539B01AC0160E070E085E1D7
:1050800093E40E9401550E94A2550E947355C1529B
:10509000DF4F79836883CF5DD040C151DF4F1882E5
:1050A000CF5ED040C151DF4F3881CF5ED040C75274
:1050B000DF4F4881C95DD040431728F0832F8150CE
:1050C0008F3008F47EC186EB96E00E94C11240E06A
:1050D00060E086EB96E00E94841263E978E086EB5C
:1050E00096E00E94661240E06CE086EB96E00E943B
:1050F00084126AE878E086EB96E00E94661241E04E
:1051000060E086EB96E00E94841264E878E086EB2B
:1051100096E00E94661241E065E086EB96E00E9410
:1051200084126FE070E0CE0101960E945C13BE0114
:105130006F5F7F4F86EB96E00E940708CE010196D5
:105140000E94CC1241E068E086EB96E00E94841257
:1051500068E778E086EB96E00E94661243E069E03B
:1051600086EB96E00E94841265E778E086EB96E095
:105170000E9466128E010D521F4F99E0B92E7801E0
:10518000CE0101960E942907CE0101960E94880E49
:10519000C82ED12CE7ECF0E0EC0FFD1FEC0DFD1D4F
:1051A000808190E0D8018D939D938D0143E06B2D1C
:1051B00086EB96E00E948412EBEBF0E0EC0FFD1F13
:1051C000EC0DFD1D6081CE0101960E948813BE0189
:1051D0006F5F7F4F86EB96E00E940708CE01019635
:1051E0000E94CC12BAE0BB12E9C0F7019081828123
:1051F0009B9D800D1124C151DF4F8883CF5ED0402D
:1052000051CFC152DF4F19821882CF5DD04034E6B2
:10521000A32E4AE0B42EC152DF4F88819981CF5D21
:10522000D04001978639910508F437CF86EB96E098
:105230000E94C11240E060E086EB96E00E9484127A
:1052400068EB78E086EB96E00E94661240E06CE046
:1052500086EB96E00E9484126FEA78E086EB96E097
:105260000E94661241E060E086EB96E00E948412A4
:1052700069EA78E086EB96E00E94661241E065E01C
:1052800086EB96E00E94841266E970E0CE010196FA
:105290000E945C13BE016F5F7F4F86EB96E00E9419
:1052A0000708CE0101960E94CC1241E068E086EB2F
:1052B00096E00E94841261EA78E086EB96E00E9414
:1052C000661243E068E086EB96E00E9484126DE986
:1052D00078E086EB96E00E9466127E01F3EDEF0E19
:1052E000F11C28E0922E8701CE0101960E94290729
:1052F000CE0101960E94880EC82ED12CE7ECF0E07A
:10530000EC0FFD1FEC0DFD1D808190E0D7018D930A
:105310009D937D0143E0692D86EB96E00E94841207
:10532000EBEBF0E0EC0FFD1FEC0DFD1D6081CE01FD
:1053300001960E948813BE016F5F7F4F86EB96E057
:105340000E940708CE0101960E94CC129394BBE004
:105350009B12CACFF80180819181A89EB001A99EBD
:10536000700D112422813381B29EC001B39E900D35
:105370001124680F791F848195819B01280F391FA3
:10538000C152DF4F39832883CF5DD040B90190E00F
:1053900080E00E947F539B01AC0160E070E085E1FA
:1053A00093E40E9401550E94A2550E9473556F5FBD
:1053B000C752DF4F6883C95DD0402DCF8AE0B82E39
:1053C000DFCE86EB96E00E94C11240E060E086EB03
:1053D00096E00E9484126AE678E086EB96E00E94EE
:1053E000661240E06CE086EB96E00E94841261E673
:1053F00078E086EB96E00E94661242E060E086EB81
:1054000096E00E9484126EE478E086EB96E00E94BB
:10541000661260ED77E080E090E00E942D0941E0A7
:1054200060E086EB96E00E9484126AE378E086EB07
:1054300096E00E94661242E060E086EB96E00E94F1
:10544000841266E278E086EB96E00E94661243E002
:1054500060E086EB96E00E94841262E178E086EBE1
:1054600096E00E94661280E790E08C0F9D1F4E969A
:10547000FE01E059FF4F1192E817F907E1F7F12C0F
:105480000CE010E0C151DF4FF881CF5ED0406F2EAD
:10549000712CC752DF4F2881C95DD040822E912CDC
:1054A000B12CA12CF1100AC0CE0101960E9429074F
:1054B000CE0101960E94880E082F10E00A301105D7
:1054C00008F083010930110509F04FC086EB96E022
:1054D0000E94C11240E060E086EB96E00E948412D8
:1054E00067E078E086EB96E00E94661240E06CE0B0
:1054F00086EB96E00E9484126EEF77E086EB96E0F2
:105500000E94661241E060E086EB96E00E94841201
:105510006AEE77E086EB96E00E94661242E061E078
:1055200086EB96E00E94841266ED77E086EB96E0CB
:105530000E94661243E064E086EB96E00E948412CB
:1055400065EC77E086EB96E00E946612CE0101964C
:105550000E942907CE0101960E94880E90E08A30B1
:10556000910519F08C01065F1F4F0615170508F00D
:10557000E9C0CF2CD12CE0E7F0E0EC0FFD1FEC0DE3
:10558000FD1D81E0800F8083C501B4010E947F531F
:105590001B012C016F2D70E090E080E00E947F5392
:1055A0009B01AC01C201B1010E9401550E94A255AC
:1055B0000E947355F3944F2D51E03FEFC31AD30A65
:1055C000651760F1852F90E001968C9D90018D9D6F
:1055D000300D9C9D300D1124742FE72FE41B872F75
:1055E00090E028173907BCF0A0E7B0E0AC0FBD1F72
:1055F000AE0FB11DFD01E081A0E7B0E0AC0FBD1F13
:105600008A0F9B1FDC01EC93C75FDE4F7883C95084
:10561000D1407F5FE2CF5F5F4F0DD2CFC75FDE4FDC
:105620008881C950D1408F5FE0E7F0E0EC0FFD1FAB
:10563000E80FF11DDE01A059BF4FC752DF4F28818F
:10564000C95DD040821720F49D9191938F5FF5CF73
:1056500086EB96E00E94C11240E060E086EB96E0A7
:105660000E9484126AEB77E086EB96E00E94661255
:1056700040E06CE086EB96E00E94841261EB77E0FC
:1056800086EB96E00E946612C752DF4F3881C95DF3
:10569000D0403B30D8F4AE0140595F4F6A01E12C55
:1056A000C752DF4F5881C95DD040E51609F44AC0A2
:1056B0006E2D660F41E086EB96E00E948412D601C3
:1056C0008D916D010E941F14E394EACFC752DF4F02
:1056D000B881C95DD040FE01E059FF4F6F01E12C58
:1056E000B53108F0FAC241E06E2D86EB96E00E94DB
:1056F0008412D6018D916D010E941F14E394E394EE
:10570000B4E1EB12F0CFA0E7CA2ED12CCC0EDD1EF7
:10571000EAE0CE0ED11CBAE0EB2E66E76E0D660F06
:1057200042E086EB96E00E948412D6018D916D01D5
:105730000E941F14E394C752DF4FB881C95DD04067
:10574000EB12EBCFFF2051F0CE0101960E9429070A
:10575000CE0101960E94880E082F10E00B30110533
:1057600009F0A0CEFE01E257FF4FCD51DF4FF98384
:10577000E883C35ED0409E0123563F4FC951DF4F9F
:1057800039832883C75ED040AE0144555F4FC55270
:10579000DF4F59834883CB5DD040C9011192DC01B2
:1057A0001D92CD01DA011D92AD012E173F07B1F711
:1057B000312C212CC152DF4FE881F981CF5DD040DF
:1057C000FF27CD5EDE4FF983E883C351D140C1523C
:1057D000DF4F48815981CF5DD0409A0150E040E0D1
:1057E000CB5EDE4F288339834A835B83C551D1402A
:1057F00054E6752E6AE0662E822D90E0CF5FDE4F74
:1058000099838883C150D140CD5EDE4F4880598056
:10581000C351D140480E591E86EB96E00E94C1123A
:1058200040E060E086EB96E00E94841268EA77E050
:1058300086EB96E00E94661240E06CE086EB96E014
:105840000E9484126FE977E086EB96E00E94661270
:1058500041E060E086EB96E00E9484126CE877E01D
:1058600086EB96E00E94661243E060E086EB96E0ED
:105870000E94841267E777E086EB96E00E9466124A
:105880008E010D521F4F680143E0B42ECE010196E8
:105890000E942907CE0101960E94880EE82EF12C65
:1058A000E7ECF0E0EC0FFD1FEE0DFF1D808190E0B6
:1058B000D6018D939D936D0143E06B2D86EB96E0B1
:1058C0000E948412EBEBF0E0EC0FFD1FEE0DFF1DCC
:1058D0006081CE0101960E948813BE016F5F7F4FE9
:1058E00086EB96E00E940708CE0101960E94CC123A
:1058F000B394B6E0BB12CACFF80120813181729E09
:10590000C001739E900D112442815381649E9001C9
:10591000659E300D1124820F931F24813581AC01C7
:10592000420F531FCD50DF4F59834883C35FD04090
:1059300068013AE0B32ECE0101960E942907CE01FC
:1059400001960E94880EE82EF12CE7ECF0E0EC0FB7
:10595000FD1FEE0DFF1D808190E0D6018D939D937C
:105960006D0143E06B2D86EB96E00E948412EBEB19
:10597000F0E0EC0FFD1FEE0DFF1D6081CE010196E2
:105980000E948813BE016F5F7F4F86EB96E00E94F6
:105990000708CE0101960E94CC12B394BDE0BB1261
:1059A000CACFF801E080F180C280D380A480B580A6
:1059B000F1E1C551DF4FF883CB5ED040CE010196B7
:1059C0000E942907CE0101960E94880E882E912CF4
:1059D000E7ECF0E0EC0FFD1FE80DF91D808190E091
:1059E000D8018D939D938D0143E0C551DF4F6881B0
:1059F000CB5ED04086EB96E00E948412EBEBF0E0A9
:105A0000EC0FFD1FE80DF91D6081CE0101960E948B
:105A10008813BE016F5F7F4F86EB96E00E940708F8
:105A2000CE0101960E94CC12C551DF4FB881CB5EEA
:105A3000D040BF5FC551DF4FB883CB5ED040B4319B
:105A400009F0BCCFCD50DF4FE881F981C35FD04072
:105A5000EF3FF10511F008F0DFCE7E9CC0017F9C86
:105A6000900D11246C9C90016D9C300D1124820FBF
:105A7000931FDC01AA0DBB1DC950DF4FB983A8835A
:105A8000C75FD040AF3FB10511F008F0C5CECD5291
:105A9000DF4F28813981C35DD040729EC001739E63
:105AA000900D1124CB52DF4F48815981C55DD04004
:105AB000649E9001659E300D1124820F931FC95280
:105AC000DF4F28813981C75DD040FC01E20FF31F11
:105AD000C550DF4FF983E883CB5FD040EF3FF1053E
