:020000040000FA
:100000000C9456020C9487020C9487020C9487027D
:100010000C9487020C9487020C9487020C9487023C
:100020000C9487020C9487020C9487020C9487022C
:100030000C9487020C9487020C9487020C9487021C
:100040000C9487020C9487020C9487020C9487020C
:100050000C9487020C9487020C9487020C948A2ECD
:100060000C9487020C94FE2E0C94D42E0C948702D0
:100070000C9487020C9487020C9487020C948702DC
:100080000C9487020C9487020C9487020C948702CC
:100090000C9487020C9487020C9487020C94342FE2
:1000A0000C9487020C9487020C9487020C948702AC
:1000B0000C9487020C9487020C9487020C9487029C
:1000C0000C9487020C9487020C9487020C9487028C
:1000D0000C9487020C9487020C9487020C9487027C
:1000E0000C9487020C94B9100C9426030C94C21B38
:1000F0000C9403030C94441F0C9430030C94450E91
:100100000C944B050C94D31F0C9439030C940B03E3
:100110000C9422030C943C1C0C94BE0E0C949F0F68
:100120000C94941C0C942C030C9491050C94FF02D9
:100130000C9452070C94BB0E0C944A050C94EB05DE
:100140000C94C10E0C94CC1F0C94B3050C94D602E5
:100150000C9465070C9449090C9407030C94191E20
:100160000C9443070C94DF0D0C94C50E0C946C0793
:100170000C9499070C94811F0C9445090C94B702B8
:100180000C940E100C94DD0D0C944E050C9414037D
:100190000C9441090C94D9060C943A030C94830BEB
:1001A0000C941E030C9458300C94F9020C944207E2
:1001B0000C940E030C94A00F0C9438060C9434038A
:1001C0000C9449050C9482050C9418030C943E037E
:1001D0000C94A5050C94C3020C94A30248483A4D14
:1001E0004D20414D002D0030002376002A5E00484E
:1001F000483A4D4D20414D00414E494D4154494FE3
:100200004E533A002D002376002A5E0048483A4DAE
:100210004D20414D00414E494D4154494F4E533AB6
:10022000002D0030002376002A5E0048483A4D4DEC
:1002300020414D0053544152542050543A002D0057
:100240002376002A5E0048483A4D4D20414D005328
:10025000544152542050543A002A002A2A2A2A2A69
:100260002A2A2A2A2A2A2A2A2A2A2A2A2A2A2A0018
:100270005F5F5F5F5F5F00456E7465722050617302
:1002800073776F72643A002A2A2A2A2A2A2A2A2A8B
:100290002A2A2A2A2A2A2A2A2A2A2A002376002ACD
:1002A0005E002D0030002D005F005F005F5F5F008B
:1002B000746F207069636B206D6F726520636F6C63
:1002C0006F72732E00507265737320616E79206FA8
:1002D00074686572206B65790050726573732027AE
:1002E000302720696620646F6E652E002020202054
:1002F0002020636F6E74696E7565002020507265F2
:10030000737320616E79206B657920746F004D4F97
:100310004E4441592B2B20536D61727421204C4562
:100320004473002A2A2A2A2A2A2A2A2A2A2A2A2AF4
:100330002A2A2A2A2A2A2A0000002100240027002B
:100340002A002D00300033000101000004010701E4
:100350000A0100002200250028002B002E00310099
:10036000340002010000050108010B01000020001B
:100370002300260029002C002F003200000100007D
:100380000301060109010505050507050808080818
:10039000020202020A0A080804040404010101011D
:1003A0000101010103030303030303030407070718
:1003B0000C0C0C0C0C0C0C0C0202020206060606BD
:1003C000060606060B0B0B0B0B0B0B0B010210208A
:1003D000200808102040102040800201020108047B
:1003E000020101020408102040808040201008040F
:1003F0000201800402018040201008040201080468
:1004000002010102040810204080010204081020AB
:10041000408000000A0B02090C0D0E0807030401BE
:1004200000000000000000000000000000000000CC
:100430000000000000000000000000000000121199
:10044000100000000000000000000000000000009C
:10045000000000000000000050726573732023202C
:100460007768656E20646F6E652100523A205F5F89
:100470005F20473A205F5F5F20423A205F5F5F0066
:100480004E756D626572206F66204C4544733A204C
:100490005F5F5F00523A205F5F5F20473A205F5FF7
:1004A0005F20423A205F5F5F0000583011241FBE7A
:1004B000CFEFD1E2DEBFCDBF00E00CBF22E1A2E76B
:1004C000BEE001C01D92AA3FB207E1F71EE0A0E026
:1004D000B2E0ECEAF0E700E00BBF02C007900D923B
:1004E000A237B107D9F712E0C6E5D2E000E006C0B6
:1004F00021970109802FFE010E94F035C535D107F3
:1005000080E00807A9F70E942A310C9454380C9413
:1005100000001092511010925210E0915310F0917F
:1005200054103197E730F10508F044C08827E456AD
:10053000FD4F8F4F0C94F035A302B702C302A30204
:10054000B702C302D602E1E5F0E1178214821582F8
:100550001682349680E1ED38F807B9F7E1E9F0E169
:100560008FEA90E111928E179F07E1F70895E1E578
:10057000F0E11782148215821682349680E1E93CFC
:10058000F807B9F70895E1E5F0E1178214821582C2
:100590001682349680E1ED38F807B9F7E1E9F0E129
:1005A000119280E1E03AF807D9F7089510925510BA
:1005B0001092561008958150823108F05AC0E82FE9
:1005C000F0E08827E951FD4F8F4F0C94F035070379
:1005D0000B03F902FF02030339030E03140318038C
:1005E0001E03220326032C033003390334033A038A
:1005F0003E03809180008F778093800008958091E2
:1006000080008F7DF9CF80918000877FF5CF84B502
:100610008F7784BD089584B58F7DFBCF8091B00026
:100620008F778093B00008958091B0008F7DF9CFCF
:10063000809190008F778093900008958091900032
:100640008F7DF9CF80919000877FF5CF8091A000BA
:100650008F778093A00008958091A0008F7DF9CFBF
:100660008091A000877FF5CF809120018F778093C4
:1006700020010895809120018F7DF9CF8091200184
:10068000877FF5CFCF93DF93282F30E0F901EE5E1F
:10069000FB4F8491F901E453FC4FD491F901EA57DF
:1006A000FC4FC491CC23A1F081110E94DB02EC2FFE
:1006B000F0E0EE0FFF1FE459FC4FA591B491EC91CF
:1006C000ED2381E090E009F480E0DF91CF9108957F
:1006D00080E090E0FACF1F93CF93DF93282F30E094
:1006E000F901EE5EFB4F8491F901E453FC4FD49184
:1006F000F901EA57FC4FC491CC23A9F0162F8111C0
:100700000E94DB02EC2FF0E0EE0FFF1FEE5AFC4FD1
:10071000A591B4918FB7F894EC91111108C0D095C0
:10072000DE23DC938FBFDF91CF911F910895DE2BE5
:10073000F8CFCF93DF9390E0FC01E453FC4F24917A
:100740008A579C4FFC0184918823C9F090E0880F60
:10075000991FFC01E85CFC4FA591B491FC01EE5A95
:10076000FC4FC591D49161110DC09FB7F8948C9145
:10077000209582238C938881282328839FBFDF9133
:10078000CF910895623051F49FB7F8943C91822F35
:10079000809583238C93E8812E2BEFCF8FB7F8942D
:1007A000EC912E2B2C938FBFEACF3FB7F89480911A
:1007B0007B0F90917C0FA0917D0FB0917E0F26B59D
:1007C000A89B05C02F3F19F00196A11DB11D3FBF89
:1007D000BA2FA92F982F8827BC01CD01620F711D58
:1007E000811D911D42E0660F771F881F991F4A9552
:1007F000D1F708958F929F92AF92BF92CF92DF92DE
:10080000EF92FF924B015C010E94D5036B017C01CA
:100810000E94D5036C197D098E099F09683E7340BB
:1008200081059105A8F321E0821A9108A108B10879
:1008300088EEC80E83E0D81EE11CF11C81149104DF
:10084000A104B10429F7FF90EF90DF90CF90BF9003
:10085000AF909F908F9008952FB7F8946091770F85
:100860007091780F8091790F90917A0F2FBF089532
:10087000AF92BF92CF92DF92EF92FF920F931F93AE
:10088000CF93DF93D090621280916512909166129F
:10089000A0916712B0916812892B8A2B8B2BD9F00B
:1008A0000E94D50300914D1010914E1020914F10D1
:1008B00030915010601B710B820B930B00916512ED
:1008C00010916612209167123091681260177107BB
:1008D00082079307C8F20E94D50360934D1070936E
:1008E0004E1080934F1090935010E0916D12F09144
:1008F0006E12309759F04091691250916A126091CE
:100900006B1270916C128D2D1995D82EC0914B10D1
:10091000D0914C108BE2E82E80E1F82E87012097D1
:1009200049F180E10B34180729F18D858823F1F016
:10093000E881F981A284B3840680F781E02DCE019D
:100940001995BC01CE01F5011995F80191838083B9
:1009500080916312909164128436910508F41C868C
:100960000C80DD81C02D0E5F1F4FD9CFF8011182A1
:100970001082EECFC0914B10D0914C1000E110E0EE
:100980002097A9F08D85882361F04E855F856A8167
:100990007B81E881F9810280F381E02D2D2DCE014C
:1009A00019950C80DD81C02D0150110949F7C091C6
:1009B0004B10D0914C102097C9F0FBE4EF16F0E1FA
:1009C000FF06A1F08D85882351F0F70160817181C8
:1009D000E881F9810484F585E02DCE0119950C801C
:1009E000DD81C02DF2E0EF0EF11CE5CF80912910E2
:1009F00090912A10EC012196D0932A10C0932910CF
:100A00004997E4F10E942C040091251010912610C2
:100A100020912710309128106B017C01C01AD10A57
:100A2000E20AF30AA7019601211531054105510596
:100A300021F421E030E040E050E088EE93E0C89FF0
:100A4000B001C99F700DD89F700D1124072E000CA6
:100A5000880B990B0E94CE35309364122093631259
:100A600010922A10109229100E942C0460932510D5
:100A7000709326108093271090932810DF91CF91C8
:100A80001F910F91FF90EF90DF90CF90BF90AF90AC
:100A900008950895089580E991E00895AF92BF9276
:100AA000CF92DF92EF92FF920F931F93CF93DF933A
:100AB0006C017B018B01040F151FEB015E01AE1869
:100AC000BF08C017D10759F06991D601ED91FC918B
:100AD0000190F081E02DC6011995892B79F7C501A8
:100AE000DF91CF911F910F91FF90EF90DF90CF900A
:100AF000BF90AF900895FB01448155816081718161
:100B00000C944E05FC01538D448D252F30E0842F2D
:100B100090E0821B930B541710F0CF960895019725
:100B20000895FC01918D828D981761F0A28DAE0F12
:100B3000BF2FB11D5D968C91928D9F5F9F73928F99
:100B400090E008958FEF9FEF0895FC01918D828DC5
:100B5000981731F0828DE80FF11D858D90E0089592
:100B60008FEF9FEF0895FC01918D228D892F90E0EA
:100B7000805C9F4F821B91098F739927089585ECA4
:100B800091E10E94B30521E0892B09F420E0822F36
:100B90000895FC01A48DA80FB92FB11DA35ABF4F12
:100BA0002C91848D90E001968F739927848FA6896C
:100BB000B7892C93A089B1898C91837080648C93C0
:100BC000938D848D981306C00288F389E02D80816F
:100BD0008F7D80830895EF92FF920F931F93CF93A1
:100BE000DF93EC0181E0888F9B8D8C8D98131AC068
:100BF000E889F989808185FF15C09FB7F894EE894F
:100C0000FF896083E889F9898081837080648083AB
:100C10009FBF81E090E0DF91CF911F910F91FF90F6
:100C2000EF900895F62E0B8D10E00F5F1F4F0F739E
:100C30001127E02E8C8D8E110CC00FB607FCFACF59
:100C4000E889F989808185FFF5CFCE010E94C90529
:100C5000F1CFEB8DEC0FFD2FF11DE35AFF4FF0822A
:100C60009FB7F8940B8FEA89FB8980818062CFCF90
:100C7000CF93DF93EC01888D8823B9F0AA89BB89D3
:100C8000E889F9898C9185FD03C0808186FD0DC0BE
:100C90000FB607FCF7CF8C9185FFF2CF808185FFDF
:100CA000EDCFCE010E94C905E9CFDF91CF91089524
:100CB00080E090E0892B29F00E94BF0581110E94FD
:100CC000000080E090E0892B49F080E090E0892BE3
:100CD00029F00E94000081110E94000080E090E055
:100CE000892B49F080E090E0892B29F00E940000D8
:100CF00081110E94000080E090E0892B49F080E0A3
:100D000090E0892B29F00E94000081110C940000D2
:100D10000895AF92BF92CF92DF92EF92FF920F931E
:100D20001F93CF93DF9300D0CDB7DEB75A0119825E
:100D30001A821B82882361F18B01E1E0F0E0E82E4A
:100D4000F12CD8012D918D012223F1F06F01B1E03A
:100D5000CB1AD108D501AC0DBD1D4C914423A1F097
:100D600030E02F5F3F4FD7010E948D34A42FB0E0B9
:100D700011969B01AC010E948234A1E0B0E0AC0F5F
:100D8000BD1FAC0DBD1D8C933196E430F105C9F645
:100D900069817A818B810F900F900F90DF91CF91B5
:100DA0001F910F91FF90EF90DF90CF90BF90AF9089
:100DB000089581E090E008952091020F260F3327D7
:100DC000331F21323105ECF42091260FFC0190E015
:100DD00080E0243069F082E00895A091020F219113
:100DE000AC014E51514FA40FB52FB11D2C9301965C
:100DF000861798F38091020F680F6093020F80E0CE
:100E0000089581E008951092260F81E08093280FC5
:100E10001092270F61E084E10E946B0361E085E19D
:100E20000E946B03E9EBF0E080818E7F80838081FC
:100E30008D7F808388E48093B80085E48093BC0034
:100E40000895CF93DF9391E09093E10E8823B9F05A
:100E5000C091B800D091BA008091BC008A7B809389
:100E6000BC0060E084E10E946B0360E085E10E94C9
:100E70006B030E940307D093BA00C093B800DF91C0
:100E8000CF9108950895E091750F8091740FE81740
:100E900030F4F0E0E454F14F808190E008958FEF5A
:100EA0009FEF08959091750F8091740F2FEF3FEF92
:100EB000981748F4E92FF0E0E454F14F208130E036
:100EC0009F5F9093750FC90108958091740F909161
:100ED000750F891B990B0895CF92DF92EF92FF92C5
:100EE0000F931F93CF93DF937C01CB018A01209155
:100EF000BB0E222389F0EB016B01C40ED51ECC156D
:100F0000DD0569F06991D701ED91FC910190F081C7
:100F1000E02DC7011995F3CF642F0E94DC06C801AC
:100F2000DF91CF911F910F91FF90EF90DF90CF90C5
:100F30000895CF93DF931F92CDB7DEB769832091D9
:100F4000BB0E2223F9F02091720F203258F021E0DD
:100F500030E0FC013383228390E080E00F90DF914A
:100F6000CF9108958091730FE82FF0E0E556F14F8F
:100F7000998190838F5F8093730F8093720F81E0CC
:100F800090E0ECCF61E0CE0101960E94DC06F7CF45
:100F9000CF92DF92EF92FF920F931F93CF93DF9345
:100FA000FC01C48121E02093BB0EC0939A0E1092E5
:100FB000730F1092720F8385682B8FE692E10E9467
:100FC0009907D091720FD13208F092C00E94D503D8
:100FD0006B017C018091260F811165C082E08093B6
:100FE000260F81E08093280F8FEF8093250F1092BA
:100FF0004A0FD093490FABE9BEE0E9E2FFE080E0A1
:10100000D81385C010924B0F80914B0FCC0FC82B7B
:10101000C0934B0F8091270F813009F07CC0109254
:10102000270F0E94D5036B017C0180914B0F8093A9
:10103000BB008091DD0E9091DE0EA091DF0EB0918D
:10104000E00E892B8A2B8B2B99F00E94D5030091FF
:10105000DD0E1091DE0E2091DF0E3091E00E6C1946
:101060007D098E099F090617170728073907E0F140
:101070008091BC0083FDD9CF85EC8093BC000E9499
:10108000D5036B017C018091260F823009F445C0A5
:101090008091250F8F3F61F18091250F803241F1C2
:1010A0008091250F25C08091DD0E9091DE0EA091DC
:1010B000DF0EB091E00E892B8A2B8B2B09F48ACF9F
:1010C0000E94D5030091DD0E1091DE0E2091DF0EFF
:1010D0003091E00E6C197D098E099F0906171707DC
:1010E0002807390708F076CF8091DC0E0E9421078F
:1010F0001092730F1092720F1092BB0EDF91CF916E
:101100001F910F91FF90EF90DF90CF9008959D91E8
:1011100091938F5F75CF85EEB0CF8091DD0E90916A
:10112000DE0EA091DF0EB091E00E892B8A2B8B2B67
:1011300009F4A9CF0E94D5030091DD0E1091DE0EB7
:101140002091DF0E3091E00E6C197D098E099F0908
:10115000061717072807390708F095CFC5CFCF9393
:10116000DF93DC0126E0629FA00DB11D1124909653
:101170005C934E935F9721E091962C939197FC019D
:10118000E359FF4F0190F081E02DEC01C459DF4F8E
:101190002881222341F0309719F0DC01662329F0E1
:1011A000DF91CF9108953097D9F35C968C91DF91C0
:1011B000CF911994CF92DF92EF92FF920F931F93EA
:1011C000CF93DF93EC01162F042FFC0186E0689F7C
:1011D000E00DF11D112411A2878D90A181309105A0
:1011E00009F180F08230910509F443C0039709F4B6
:1011F00045C0DF91CF911F910F91FF90EF90DF904D
:10120000CF9008954423A9F341E050E0CE010E941D
:10121000AF080E942C04C85ADF4F688379838A8301
:101220009B83E7CF0E942C04FE01E85AFF4FC08049
:10123000D180E280F380AB01BC014C195D096E09DD
:101240007F09729680819181B0E0A0E084179507B4
:10125000A607B70770F442E050E0612FCE01DF919E
:10126000CF911F910F91FF90EF90DF90CF900C9452
:10127000AF0843E050E00111BCCFEFCF50E040E0B9
:10128000ECCF862F642F0C949903862F642F0C9437
:101290006B03862F0C9442032F923F924F925F92E2
:1012A0006F927F928F929F92AF92BF92CF92DF9276
:1012B000EF92FF920F931F93CF93DF93CDB7DEB7DB
:1012C0002C970FB6F894DEBF0FBECDBF9C878B87DF
:1012D00084599F4F9A83898381E0A981BA818C9335
:1012E0000E942C04EB85FC85E45AFF4FFC83EB83C2
:1012F0000081118122813381AB01BC01401B510B64
:10130000620B730BEB85FC85E859FF4F808191815F
:10131000B0E0A0E084179507A607B70708F04FC113
:1013200010E0CB84DC84F6E6CF0ED11CEB84FC8489
:1013300022E6E20EF11CD6018C91181758F4D70161
:10134000ED91FC91E10FF11D62E080810E94990313
:101350001F5FF1CF312C4B845C84B7E64B0E511CE0
:10136000EB84FC84E4E6EE0EF11C812C912C5401FC
:1013700083942B853C852E593F4F3A872987D2018C
:101380008C91381608F063C0032D10E0D701ED9161
:10139000FC91E00FF11F61E080810E949903D70169
:1013A000ED91FC91E00FF11F60E080810E946B03E2
:1013B000D501C401032C04C0880F991FAA1FBB1FAD
:1013C0000A94D2F79E838D83FC01E095F095F8870F
:1013D000EF83212CD6018C91281620F5622C712CDC
:1013E000A985BA85ED91FC91E60DF71D80810E94DB
:1013F0004203660C771CEB85FC85E60DF71D892BF7
:1014000051F4808591852D813E81822B932B91878C
:1014100080872394DFCF80859185AF81B8858A232B
:101420009B23F5CFD701ED91FC91E00FF11F61E017
:1014300080810E946B03F70180819181080F191F41
:1014400060E0D8018C910E949903339498CF0B856A
:101450001C85C801CC9678012FEF3FEFF701478D2F
:1014600050A1452B21F4148E368F258F11A2F6E062
:10147000EF0EF11CE816F90689F7A12C8B849C84E9
:1014800020E6820E911C96E0392ED6018C91A8168A
:1014900008F058C0B12C6A2C712CB4E06B0E711C92
:1014A000660C771CEB85FC856E0E7F1ED2018C913D
:1014B000B81608F045C0F301408151810B2C02C0E1
:1014C000569547950A94E2F7A89EC00111248B0D0A
:1014D000911DEB85FC8560E0258D368D8217930785
:1014E00009F472C06F5F36966A30B1F740FF26C0CC
:1014F000EB85FC8570E060E0248D211119C0D401DA
:10150000ED91FC91E80FF91F4081369EF001379E66
:10151000F00D11242B853C85E20FF31F448F968F2D
:10152000858F10A2178E41E0C9010E94DA0806C01B
:101530006F5F7F4F36966A307105F1F6B394B6CF80
:10154000A394A3CFD12CD80191968C918111D82E40
:101550000A5F1F4FE016F106B1F70E942C04EB81E1
:10156000FC816083718382839383DD2041F1AB85AD
:10157000BC8591968C919197882309F15F968D9106
:101580009C9190970197D9F45C968C912C960FB60C
:10159000F894DEBF0FBECDBFDF91CF911F910F91A9
:1015A000FF90EF90DF90CF90BF90AF909F908F9083
:1015B0007F906F905F904F903F902F900895E981BA
:1015C000FA81108280E0E2CF41708B859C85ADCF9F
:1015D0008F929F92AF92BF92CF92DF92EF92FF9243
:1015E000CF93DF93EFEFE60FEC01C12CD12C760106
:1015F000EF3FE9F08990912CB12CA12CF0E061E053
:1016000070E080E090E0FE1741F0AAE0B0E09B01BE
:10161000AC010E948234FF5FF6CFA50194010E94C5
:10162000AA35C60ED71EE81EF91EE150E1CFC7014C
:10163000B601DF91CF91FF90EF90DF90CF90BF90F8
:10164000AF909F908F9008950E944C09882311F0CD
:10165000815308958FEF0895FC01848180FF05C0B8
:10166000128A84FF0AC0638B089581FF03C0269508
:10167000228BF7CF82FFF5CFFBCF85FF04C04695C5
:10168000460F438B02C086FDFBCF08950F931F9337
:10169000CF93DF932091830E2F5F322F37703093DB
:1016A000830E20FF2BC020E831FD2064347009F048
:1016B0002062205FFC01EC01239600E011E06785C9
:1016C000662329F070E0C8010E94BA356F5F618718
:1016D000822F869F080E80E0811D1124811110C089
:1016E0001682662311F0615061873196EC17FD0771
:1016F00031F7DF91CF911F910F91089520E0D4CF62
:1017000081508683EECF4F925F927F928F929F920D
:10171000AF92BF92CF92DF92EF92FF920F931F93FF
:10172000CF93DF932C01EB010E94D503F2012689B0
:101730003789621B730B6A307105B0F3F8948A81A4
:101740009B81181619060CF0CDC1E881F9816EB1A4
:10175000862E689484F83EB13F7E3EB9D9848E814E
:101760002D2D281B822F2E834C85042E000C550B0B
:10177000AA81BB817F85F888E9887F5FF394E39431
:101780009F819884BA84AB841081C12C6C2D0C2D60
:101790002C2D2081112788942111280F08F42FEF78
:1017A0008195889470FD120F1795889471FD120F22
:1017B0001795889472FD120F1795889473FD120F78
:1017C0001795889474FD120F1795889475FD120F64
:1017D0001795889476FD120F1795889477FD120F50
:1017E00017958894622F7111612F8D0D162F002C83
:1017F0008EB800C000C017FF3EB9218166278894CB
:1018000000C0002C3EB92111290F00C0002C8EB859
:1018100000C000C016FF3EB908F42FEF91958894E0
:1018200000C0002C3EB9F0FC620F00C0002C8EB846
:1018300000C000C015FF3EB967958894F1FC620FA7
:1018400000C0002C3EB96795889400C0002C8EB86B
:1018500000C000C014FF3EB9F2FC620F6795889487
:1018600000C0002C3EB9F3FC620F00C0002C8EB803
:1018700000C000C013FF3EB967958894F4FC620F66
:1018800000C0002C3EB96795889400C0002C8EB82B
:1018900000C000C012FF3EB9F5FC620F6795889446
:1018A00000C0002C3EB9F6FC620F00C0002C8EB8C0
:1018B00000C000C011FF3EB967958894F7FC620F25
:1018C00000C0002C3EB96795889400C0002C8EB8EB
:1018D00000C000C010FF3EB9122FF110162F9B0D53
:1018E00000C0002C3EB900C000C0002C8EB800C063
:1018F00000C017FF3EB922816627889400C0002CE3
:101900003EB92111290D00C0002C8EB800C000C0C6
:1019100016FF3EB908F42FEFE40FF51F00C0002CAE
:101920003EB9E0FC620F00C0002C8EB800C000C0C1
:1019300015FF3EB967958894E1FC620F00C0002C4A
:101940003EB96795889400C0002C8EB800C000C0D6
:1019500014FF3EB9E2FC620F6795889400C0002C2A
:101960003EB9E3FC620F00C0002C8EB800C000C07E
:1019700013FF3EB967958894E4FC620F00C0002C09
:101980003EB96795889400C0002C8EB800C000C096
:1019900012FF3EB9E5FC620F6795889400C0002CE9
:1019A0003EB9E6FC620F00C0002C8EB800C000C03B
:1019B00011FF3EB967958894E7FC620F00C0002CC8
:1019C0003EB96795889400C0002C8EB800C000C056
:1019D00010FF3EB9122FE110162F919400C0002C79
:1019E0003EB99A0C00C000C08EB800C000C017FFFE
:1019F0003EB920816627889400C0002C3EB9211191
:101A0000280F00C0002C8EB800C000C016FF3EB9E1
:101A100008F42FEF8195889400C0002C3EB970FD2A
:101A2000620F00C0002C8EB800C000C015FF3EB988
:101A30006795889471FD620F00C0002C3EB96795D0
:101A4000889400C0002C8EB800C000C014FF3EB9BE
:101A500072FD620F6795889400C0002C3EB973FD3B
:101A6000620F00C0002C8EB800C000C013FF3EB94A
:101A70006795889474FD620F00C0002C3EB967958D
:101A8000889400C0002C8EB800C000C012FF3EB980
:101A900075FD620F6795889400C0002C3EB976FDF5
:101AA000620F00C0002C8EB800C000C011FF3EB90C
:101AB0006795889477FD620F00C0002C3EB967954A
:101AC000889400C0002C8EB800C000C010FF3EB942
:101AD000122F7111162F8D0D00C0002C3EB91197D9
:101AE00009F086CEEA81FB812EE130E0DF010E9421
:101AF000F83530E020E0A901AAE9EA9F0E0E411D69
:101B0000FA9F400D511D11244F0F511DDC01CB01D7
:101B1000840F951FA11DB11D893E43E09407A105C7
:101B2000B10508F434C0885E9340A109B10942E0D0
:101B3000B695A795979587954A95D1F747E0849FE5
:101B4000080E211D949F200D311D1124290F311DD8
:101B50006091820E70E0860F971F820F931F409155
:101B6000770F5091780F6091790F70917A0F292F2C
:101B70003327420F531F611D711D4093770F509300
:101B8000780F6093790F70937A0F8093820E789418
:101B90000E94D503F201778B668BDF91CF911F9165
:101BA0000F91FF90EF90DF90CF90BF90AF909F90FC
:101BB0008F907F905F904F9008956C9A08956F92E8
:101BC0007F928F92CF92DF92EF92FF920F931F93AB
:101BD000CF93DF93CDB7DEB762970FB6F894DEBF31
:101BE0000FBECDBF8C016B017A01822FA801475F28
:101BF0005F4FB8016A5F7F4F0E9489063B01882EC4
:101C0000D8011C962C91C701F7FE04C0882799279C
:101C10008E199F09DA82C9829C838B839E838D8370
:101C2000688A798A8A8A213049F5CE0101960E9414
:101C3000460B83E08D871F861E86F7FE02C08DEF60
:101C40008D87D801ED91FC910088F189E02DBE01CE
:101C50006F5F7F4FC801199562960FB6F894DEBF8B
:101C60000FBECDBFDF91CF911F910F91FF90EF90ED
:101C7000DF90CF908F907F906F9008951C861B8689
:101C80001A86198618861F82D4CFCF92DF92EF92E0
:101C9000FF920F931F93CF93DF93CDB7DEB7629779
:101CA0000FB6F894DEBF0FBECDBF8C016B017A0179
:101CB000822FA801475F5F4FB8016A5F7F4F0E9484
:101CC00089069B01482FD8011C968C91DA82C98223
:101CD000FC82EB82FE82ED82288B398B4A8B81302D
:101CE00009F5CE0101960E94460B1D861F861E86B1
:101CF000D801ED91FC910088F189E02DBE016F5F64
:101D00007F4FC801199562960FB6F894DEBF0FBEDB
:101D1000CDBFDF91CF911F910F91FF90EF90DF909A
:101D2000CF9008951C861B861A86198618861F82F6
:101D3000DCCF0895E8EEF2E091E090838FEF8383AB
:101D40001482E6E1F2E0908383831482EDEBF3E00A
:101D5000908383831482E2E4F7E090838383148288
:101D60008093810E8093800EE4E1F8E0908383837A
:101D700014820C94890290E080E00895FC0164874D
:101D80000895FC01848590E00895FC01868597857F
:101D90000895CF93DF93EC0118820E942C046D8389
:101DA0007E838F839887DF91CF9108950F931F9340
:101DB000CF9326E0FB013296DC01129601900D9242
:101DC0002A95E1F726EA39E0FC013183208324E1FA
:101DD000FB013896DC01189601900D922A95E1F7E7
:101DE0009C01245E3F4FAB01445E5F4F8901045C60
:101DF0001F4FC6E0FA01D90101900D92CA95E1F793
:101E00002A5F3F4F4A5F5F4F2017310791F7FB0171
:101E1000E85AFF4F0081118122813381FC01E85A89
:101E2000FF4F0083118322833383FB01E45AFF4F6A
:101E30000081118122813381FC01E45AFF4F00832C
:101E4000118322833383FB01E05AFF4F20813181CC
:101E5000FC01E05AFF4F31832083FB01EE59FF4F15
:101E600020813181FC01EE59FF4F31832083FB013A
:101E7000EC59FF4F20813181FC01EC59FF4F318338
:101E800020833296DB01AA59BF4F2D913C913183BB
:101E90002083FB01E859FF4F20813181FC01E85983
:101EA000FF4F31832083FB01E659FF4F20813181B1
:101EB000FC01E659FF4F31832083FB01E459FF4FBA
:101EC0002081FC01E459FF4F208363597F4FFB01C0
:101ED0002081318183599F4FFC0131832083CF9131
:101EE0001F910F910895FC01DB0112968D919C9139
:101EF0001397938382838AE999E091838083149670
:101F00008C911497848315968C91159785831696DA
:101F10008C911697868317968C91179787831896BE
:101F20008C911897808719968C91199781871A96AA
:101F30008C911A9782871B968C91838708950895B8
:101F400090E080E00895CF93DF93FC0101900020A2
:101F5000E9F73197AF01481B590BBC0185EC91E1C2
:101F60000E944E05EC0142E050E06FEB79E085EC19
:101F700091E10E944E058C0F9D1FDF91CF91089536
:101F8000CF93DF93C0914B10D0914C10209799F0D4
:101F90008A819B81009759F02E853F85A901440FC6
:101FA000551F420F531F70E060E00E9427380C80DD
:101FB000DD81C02DEBCFDF91CF9108950F931F935B
:101FC000CF938C01C62F0E94C8076C2F6460C80194
:101FD0000E94C8076C2F6B7FC8010E94C80783EC62
:101FE00090E00197F1F7CF911F910F9108950F9312
:101FF0001F93CF93DF938C01D62FC42F607F642B68
:102000000E94DE0F80E1D89FB00111246C2BC80123
:10201000DF91CF911F910F910C94DE0F41E00E9450
:10202000F70F81E090E00895EF92FF920F931F93D6
:10203000CF93DF938C017B01D0E0C0E0F701EC0F80
:10204000FD1F6491662331F041E0C8010E94F70F43
:102050002196F4CFCE01DF91CF911F910F91FF9088
:10206000EF900895CF93DF9300D000D01F921F927E
:10207000CDB7DEB728E0ECEEF8E0DE011196019076
:102080000D922A95E1F7FC012085241710F44FEFFB
:10209000420F50E0440F551F21E030E02C0F3D1F50
:1020A000420F531FFA012081620F606840E02896BA
:1020B0000FB6F894DEBF0FBECDBFDF91CF910C9469
:1020C000F70FCF93DF93EC0140E06CE00E943210F9
:1020D0006CED71E0CE01DF91CF910C94141040E0D3
:1020E00061E00E94F70F8BE39FE10197F1F70895FC
:1020F0000F931F93CF93DF93CDB7DEB72C970FB617
:10210000F894DEBF0FBECDBF8C010E946F10B801E6
:10211000CE0101960E94730FCE0101960E946110BC
:1021200041E060E0C8010E94321069ED72E0C80130
:102130000E94141042E060E0C8010E94321065EC79
:1021400072E0C8010E94141043E060E0C8010E94E0
:10215000321060EB72E0C8010E9414102C960FB68A
:10216000F894DEBF0FBECDBFDF91CF911F910F91CD
:1021700008950E941938FC0180819181009711F027
:102180000C94AF3608950F931F93CF93DF93EC0118
:1021900088819981009759F02A813B81261737075A
:1021A00030F081E0DF91CF911F910F9108958B0165
:1021B0006F5F7F4F0E943837009759F0998388836B
:1021C0001B830A832C813D81232B59F7FC0110824C
:1021D000E8CF80E0E7CFEF92FF920F931F93CF936A
:1021E000DF93EC017B01FB0101900020E9F73197BF
:1021F0008F01061B170BB8010E94C310288139817B
:10220000811113C02115310519F0C9010E94AF36A3
:10221000198218821D821C821B821A82DF91CF9143
:102220001F910F91FF90EF9008951D830C83B701CC
:10223000C901DF91CF911F910F91FF90EF900C9406
:102240002E380F931F93CF93DF9300D000D000D090
:10225000CDB7DEB78C01862FF80111821082138270
:102260001282158214824AE0BE016F5F7F4F90E0B8
:102270000E943433BE016F5F7F4FC8010E94EB1094
:1022800029960FB6F894DEBF0FBECDBFDF91CF9178
:102290001F910F9108950F931F93CF93DF93CDB7A5
:1022A000DEB762970FB6F894DEBF0FBECDBF8C01CC
:1022B000CB01F801118210821382128215821482DE
:1022C0004AE0BE016F5F7F4F0E942933BE016F5FFE
:1022D0007F4FC8010E94EB1062960FB6F894DEBFE4
:1022E0000FBECDBFDF91CF911F910F910895CF9376
:1022F000DF931F921F92CDB7DEB7FC0111821082CF
:10230000138212821582148269831A82BE016F5F62
:102310007F4F0E94EB100F900F90DF91CF910895A7
:102320000F931F93CF93DF9300D000D0CDB7DEB7CC
:102330008C016A30C8F4CE0101960E942111BE01C1
:102340006F5F7F4FC8010E947B05CE0101960E94FE
:10235000BB1026960FB6F894DEBF0FBECDBFDF913F
:10236000CF911F910F9108956A50653050F4E62F78
:10237000F0E0ED5BF64F6081CE0101960E9477118F
:10238000DECF66E4F9CF4F925F926F927F929F9279
:10239000AF92BF92CF92DF92EF92FF920F931F9373
:1023A000CF93DF93CDB7DEB72C970FB6F894DEBF8F
:1023B0000FBECDBF5C016B01F42E122FDB011A960C
:1023C0008C911A9751969C915197E82FE91BFF0B1E
:1023D0001E171F0699F094F0891B089F800D112489
:1023E00094E1981B892F14969C91149791FF04C037
:1023F000869552968C9302C092FDFBCFF6016785BD
:102400006117D8F480898017C0F443899685490FF5
:10241000069F600D11249289890F680FC5010E94E3
:102420003210EE2009F441C06AEA72E0C5010E9450
:102430001410F60180898F5F808BD60150968C91A5
:102440005097801708F47FC050961C9250971F96A3
:102450009C901F97E110B8C0602F043008F063E033
:10246000C6010B96F60126812F3F99F1FF24FA94BD
:10247000F60EFC01412C512C32014FEFF41669F19C
:10248000219130E050E040E0A0E061E070E080E0C9
:1024900090E0FA1609F46DC0B4E0660F771F881F4C
:1024A000991FBA95D1F7AF5FF4CFD6015096EC9152
:1024B000E33020F4EC0DFD2DF11DF386B501CE01C6
:1024C00001960E94730F6F2DCE0101960E9490110C
:1024D000B0CF0E94E80A2B013C01D60119968C91DD
:1024E00090E0B0E0A0E084159505A605B70508F4D6
:1024F0004DC0F601808590E0B0E0A0E04816590696
:102500006A067B0608F442C093949786E189EF5FE0
:10251000D6015196EC93519754968D919C91559775
:10252000009779F11A962C912E1758F1E80FF92F90
:10253000F11D31974082F6018785811720F01786BB
:1025400086858F5F86872C960FB6F894DEBF0FBE08
:10255000CDBFDF91CF911F910F91FF90EF90DF9052
:10256000CF90BF90AF909F907F906F905F904F9073
:1025700008950E94AA35460E571E681E791EFA94C9
:102580007CCF82EC99E00E94A30FD5CFF12CE12CF7
:10259000602E712C0F5FF6018785E614F70458F65C
:1025A00043899685490F6289089F600D11246E0D3D
:1025B000C5010E94321068EA72E0C5010E94141041
:1025C000FFEFEF1AFF0AE7CF93941F969C921F9795
:1025D00051968C9151978F5F51968C93ACCF8F927F
:1025E0009F92AF92BF92CF92DF92EF92FF920F93A2
:1025F0001F93CF93DF93CDB7DEB7CF56D1090FB678
:10260000F894DEBF0FBECDBF6C015A01922EF02EA2
:10261000CE0101960E94D60ECE0101960E94240B97
:10262000882E8FEF88122BC00091BB036091850E1E
:102630000F3F29F110E0F501E60FF11DD801A95C6B
:10264000B64F8C9182836F0D4E2DC6010E943210C1
:10265000F801E55DF64F6081CE0101960E94771189
:10266000BE016F5F7F4FC6010E947B05CE010196C0
:102670000E94BB108091850E8F5F8093850E8092A3
:10268000BB038091850E8330A0F063E0C501029604
:102690000E94E80A092D10E030E020E00617170735
:1026A00028073907D0F0F501618381E0808310921B
:1026B000850EC159DF4F0FB6F894DEBF0FBECDBFF8
:1026C000DF91CF911F910F91FF90EF90DF90CF900E
:1026D000BF90AF909F908F9008954E2D6F2DC601A3
:1026E0000E9432106CEA72E0C6010E941410DFCF23
:1026F000CF92DF92EF920F931F93CF93DF93CDB7DB
:10270000DEB7CB57D1090FB6F894DEBF0FBECDBFF1
:102710006C01FA01102F8E2D42E0E42E811102C0CF
:1027200093E0E92E9091950E911125C0CE0101966E
:102730000E94D60EB601CE0180599F4F0E94730FA2
:1027400003E02FEF45E95EE0BE016F5F7F4FCE01F2
:1027500080599F4F0E94EF12C558DF4F0FB6F89473
:10276000DEBF0FBECDBFDF91CF911F910F91EF90D4
:10277000DF90CF9008959091900E91110FC0CE01EF
:1027800001960E94D60EB601CE0180599F4F0E943D
:10279000730F0AE02FEF40E95EE0D6CF90918B0EE9
:1027A00091110FC0CE0101960E94D60EB601CE0146
:1027B00080599F4F0E94730F01E12FEF4BE85EE0BD
:1027C000C3CF9091860E911113C0882389F0CE015A
:1027D00001960E94D60EB601CE0180599F4F0E94ED
:1027E000730F83E0E82E00E1212F46E85EE0ACCFD6
:1027F00091E093839091960E90839091910E9183A6
:1028000090918C0E9283882321F08091870EF9019C
:1028100080831092950E1092900E10928B0E109253
:10282000860E9ACFEF92FF920F931F93CF93DF9371
:10283000EC01198218821B821A821D821C8261158A
:102840007105E1F08B01FB0101900020E9F7319760
:102850007F01E61AF70AB7010E94C3102881398167
:10286000811113C02115310519F0C9010E94AF363D
:10287000198218821D821C821B821A82DF91CF91DD
:102880001F910F91FF90EF900895FD82EC82B801A7
:10289000C901DF91CF911F910F91FF90EF900C94A0
:1028A0002E381F93CF93DF93CDB7DEB768970FB65F
:1028B000F894DEBF0FBECDBF162FBC01CE010D9622
:1028C0000E94730FCE010D960E946F1040E060E0F1
:1028D000CE010D960E94321060E277E0CE010196A3
:1028E0000E941214BE016F5F7F4FCE010D960E94B1
:1028F0007B05CE0101960E94BB10BE01635F7F4F36
:10290000CE0101960E94730FCE0101960E946110C4
:1029100041E060E0CE010D960E9432106DE277E05A
:10292000CE0101960E941214BE016F5F7F4FCE014F
:102930000D960E947B05CE0101960E94BB101123CB
:1029400011F142E060E0CE010D960E94321064E980
:1029500074E0CE010D960E94141043E060E0CE01B9
:102960000D960E94321060E874E0CE010D960E9430
:10297000141068960FB6F894DEBF0FBECDBFDF917E
:10298000CF911F91089543E060E0CE010D960E9423
:1029900032106BE674E0E9CF0F931F93CF93DF9370
:1029A000CDB7DEB72C970FB6F894DEBF0FBECDBF04
:1029B0008C010E946F1040E060E0C8010E9432105C
:1029C00062ED79E0CE0101960E941214BE016F5FA4
:1029D0007F4FC8010E947B05CE0101960E94BB106B
:1029E000B801CE0101960E94730FCE0101960E949C
:1029F000611042E060E0C8010E94321068E574E0B6
:102A0000C8010E9414102C960FB6F894DEBF0FBEBA
:102A1000CDBFDF91CF911F910F9108952F923F92DB
:102A20004F925F926F927F928F929F92AF92BF92DE
:102A3000CF92DF92EF92FF920F931F93CF93DF938A
:102A4000CDB7DEB7CC5FD1090FB6F894DEBF0FBEAD
:102A5000CDBF5C016A01CE0180599F4F0E94D60E06
:102A6000B501CE0185519F4F0E94730FD601169676
:102A70009C91169719968C919F3F39F48A3038F0C3
:102A800013E0843628F412E003C08031E0F711E04F
:102A9000612F70E06F5F7F4F84E190E00E94BA3554
:102AA0004B01F601818131E043E0882311F032E0EF
:102AB00042E0D6011A968C91880D992D911D0197AF
:102AC000B4010E94BA35C650DF4F6883CA5FD04058
:102AD000461708F487C2C750DF4F8882C95FD040CD
:102AE000882D189D800D112424E1281B461B632F7F
:102AF000C6010E942C0BBE0160597F4FFE0131962A
:102B00005F01CF010E94D60EC5010E94240BC55063
:102B1000DF4F8883CB5FD0408F3F09F04BC2E091FD
:102B2000BA03EF3F09F446C28091840ED60116968F
:102B30009C911697E91379C0113009F074C0199669
:102B40009C919A3008F46FC081116DC0BE0165512F
:102B50007F4FCE0181529F4F0E94730FCE01815251
:102B60009F4F0E946F1040E060E0CE0181529F4F66
:102B70000E943210B6016A5E7F4FC5010E94121496
:102B8000B501CE0181529F4F0E947B05C5010E9475
:102B9000BB10BE0161527F4FC5010E94730FC5017A
:102BA0000E94611041E060E0CE0181529F4F0E947F
:102BB00032106DED79E0C5010E941214B501CE010D
:102BC00081529F4F0E947B05C5010E94BB1042E0CD
:102BD00060E0CE0181529F4F0E94321061EF79E098
:102BE000C5010E941214B501CE0181529F4F0E946F
:102BF0007B05C5010E94BB1043E060E0CE0181521D
:102C00009F4F0E94321066E07AE0C5010E941214C4
:102C1000B501CE0181529F4F0E947B05C5010E94E4
:102C2000BB101093840EF12C0BC1882309F45BC1F7
:102C3000F0E0E95CF64F2081F60181858950990B1F
:102C40002817190684F78AE0F82EF20E0488F58911
:102C5000E02D3097A9F051968C91AF01D50190E00D
:102C60009D012A193B092817390770F4FA012191AF
:102C7000AF012D939F0121503109F9011082F0CF4E
:102C80008BE19AE00E94A30FD6011E962D903D90F5
:102C90004D905C9051975196BC91C450DF4FB883D2
:102CA000CC5FD040F60116861786108A118ACE01B5
:102CB00085519F4F0E946F1040E060E0CE0185512A
:102CC0009F4F0E943210B6016A5E7F4FCE01815243
:102CD0009F4F0E941214BE0161527F4FCE01855159
:102CE0009F4F0E947B05CE0181529F4F0E94BB10D7
:102CF000BE0165517F4FCE0181529F4F0E94730FDD
:102D0000CE0181529F4F0E946110D60111968C9185
:102D10008823E1F041E060E0CE0185519F4F0E94A1
:102D20003210B6016D5D7F4FCE0181529F4F0E94E0
:102D30001214BE0161527F4FCE0185519F4F0E94F8
:102D40007B05CE0181529F4F0E94BB10C950DF4FBF
:102D5000B982A882C75FD040C450DF4FB881CC5F32
:102D6000D0406B2E712CC950DF4F88819981C75F8D
:102D7000D0408A199B098615970520F5C950DF4F69
:102D8000E881F981C75FD0407190C950DF4FF98366
:102D9000E883C75FD040BE0165517F4FCE018152AD
:102DA0009F4F0E94730FE12C012FC750DF4F2881E6
:102DB000C95FD040472DB601CE0181529F4F0E947E
:102DC000C311CACFD6011A968C9186151704E1F06B
:102DD000D8F0BE0165517F4FCE0181529F4F0E94B6
:102DE000730FEE24E394012FC750DF4F2881C95F92
:102DF000D04040E0B601CE0181529F4F0E94C311E6
:102E0000BFEF6B1A7B0ADECFF60126863786408A33
:102E1000518A81890488F589E02D309759F0D501D0
:102E200090E09D012A193B092817390738F42D91A4
:102E30002193F7CF87E39AE00E94A30F1092840EAC
:102E400081E0F60121899285291708F080E0D601FA
:102E500013962C91139731E0232782239091840EAF
:102E60009327892309F4A6C01E968C91C650DF4F84
:102E7000B881CA5FD0408B1708F09CC0BE01655175
:102E80007F4FCE0181529F4F0E94730FE12C012F83
:102E9000282D4F2DB601CE0181529F4F0E94C311A4
:102EA000F6018281882309F485C0113009F082C0BF
:102EB0000488F589E02D309731F1D60151968C9137
:102EC000AF01D50190E09D012A193B092817390768
:102ED000F0F4FA012191AF012D939F0121503109A6
:102EE000F9011082F0CF17968C9117978F3F31F030
:102EF000E81304C081E013968C9395CEF0E0E95C72
:102F0000F64FF0809DCF8BE19AE00E94A30FD6018F
:102F10001E962D903D904D905C90519751966C90DF
:102F2000712CF60191898285981748F54501D601E3
:102F300051969C9151971A968C9194012A193B09AC
:102F40002615370570F7981760F7F40111914F01B6
:102F5000BE0165517F4FCE0181529F4F0E94730F7A
:102F6000E12C01E0C750DF4F2881C95FD040412FDD
:102F7000B601CE0181529F4F0E94C311D8CFD60116
:102F800026863786408A518A0488F589E02D309755
:102F900069F051968C91D50190E09D012A193B0969
:102FA0002817390738F42D912193F7CF87E39AE05A
:102FB0000E94A30FC550DF4FB881CB5FD040B093C4
:102FC000BA03F60191898285981718F483818823C2
:102FD00049F081E0D60113968C93F6011686178688
:102FE000108A118AC450DF4F0FB6F894DEBF0FBEAF
:102FF000CDBFDF91CF911F910F91FF90EF90DF90A8
:10300000CF90BF90AF909F908F907F906F905F9088
:103010004F903F902F900895BF92CF92DF92EF9202
:10302000FF920F931F93CF93DF93CDB7DEB7C250BC
:10303000D1400FB6F894DEBF0FBECDBF8C016A0140
:10304000CE0180599F4F0E94D60EB801CE01895003
:103050009F4F0E94730FCE0189509F4F0E946F10A7
:1030600040E060E0CE0189509F4F0E943210B601CF
:103070006A5E7F4FCE0101960E941214BE016F5FFF
:103080007F4FCE0189509F4F0E947B05CE01019654
:103090000E94BB10BE0169507F4FCE0101960E9475
:1030A000730FCE0101960E946110D60111968C918A
:1030B0008823D1F041E060E0CE0189509F4F0E940B
:1030C0003210B6016D5D7F4FCE0101960E94121441
:1030D000BE016F5F7F4FCE0189509F4F0E947B05DD
:1030E000CE0101960E94BB10BE0160597F4FCE01F8
:1030F00001960E94D60EBE0169507F4FCE018551C8
:103100009F4F0E94730FF601968181859F3F39F48E
:103110008A3038F013E0843628F412E003C080319E
:10312000E0F711E0612F70E06F5F7F4F84E190E086
:103130000E94BA359B01D60111968C91E2E042E0E3
:10314000811102C0E1E043E0D6011A968C91820F12
:10315000932F911D0197B9010E94BA35F62E46179B
:1031600078F1B22E129F200D112484E1821B282FAA
:10317000461B6E2FC6010E942C0BF60186858F150B
:10318000C0F4918982859817A0F4BE0165517F4FE4
:10319000CE0181529F4F0E94730FEE24E394012FC2
:1031A0002B2D40E0B601CE0181529F4F0E94C311EA
:1031B000E4CFD6011E961D921D921D921C9251972E
:1031C000CE5FDE4F0FB6F894DEBF0FBECDBFDF91EE
:1031D000CF911F910F91FF90EF90DF90CF90BF9014
:1031E00008959F92AF92BF92CF92DF92EF92FF929B
:1031F0000F931F93CF93DF93CDB7DEB7A5970FB68D
:10320000F894DEBF0FBECDBF8C017B01BC01CE01A7
:1032100044960E94730FCE0144960E946F1040E0C6
:1032200060E0CE0144960E943210B701695F7F4F83
:10323000CE0101960E941214BE016F5F7F4FCE0136
:1032400044960E947B05CE0101960E94BB10BE01F0
:103250006C5E7F4FCE0101960E94730FCE010196E6
:103260000E946110F701268181E0233008F480E09C
:10327000F7019181892391E0243008F490E0892BB3
:10328000F70182838823C1F042E062E1CE014496D7
:103290000E9432106FE972E0CE0144960E94141031
:1032A00043E062E1CE0144960E9432106CE972E084
:1032B000CE0144960E941410B801CE0144960E949B
:1032C000730F01E010E083E1982E5701F4E1AF0E97
:1032D000B11CF70184819801280F311D9681921746
:1032E000130608F458C0C02ED82ED00E402F60E030
:1032F000CE0144960E9432106D2DCE0180960E9420
:103300002111BE01605E7F4FCE0144960E947B0575
:10331000CE0180960E94BB10402F61E0CE01449602
:103320000E94321066EA72E0CE0144960E941410A8
:10333000F701828140E1811101C043E150E02D2D70
:103340002150330B929EB001939E700D11246A0D93
:103350007B1DCE0101960E9445384C2D62E0CE01C6
:1033600044960E943210BE016F5F7F4FCE0180965F
:103370000E941214BE01605E7F4FCE0144960E94EF
:103380007B05CE0180960E94BB100F5F1F4F04305B
:10339000110509F09ECFF701858190E001963481F7
:1033A00021E03817190609F020E081E0043011050A
:1033B00008F080E0282B99F1F7018181882379F1C9
:1033C000402F60E0CE0144960E94321064EA72E021
:1033D000CE0144960E941410402F61E0CE01449625
:1033E0000E94321062EA72E0CE0144960E941410EC
:1033F000402F62E0CE0144960E94321065E67AE0EA
:10340000CE0180960E941214BE01605E7F4FCE01F5
:1034100044960E947B05CE0180960E94BB10A59623
:103420000FB6F894DEBF0FBECDBFDF91CF911F91D5
:103430000F91FF90EF90DF90CF90BF90AF909F9053
:103440000895DF92EF92FF920F931F93CF93DF9334
:10345000CDB7DEB7CF56D1090FB6F894DEBF0FBE99
:10346000CDBF7C018A01CE0101960E94D60ECE010D
:1034700001960E94240BD82E8FEFD8120AC080919B
:10348000BC038F3F31F0F8015681851798F48F5FA8
:103490008383D092BC03C159DF4F0FB6F894DEBFCF
:1034A0000FBECDBFDF91CF911F910F91FF90EF9095
:1034B000DF9008953181332311F08A3049F3893048
:1034C00069F08B3091F0B701CE0101960E94730F25
:1034D000B801CE0101960E94F118DBCFF80184817A
:1034E000882389F381508483EECFF801258194816C
:1034F00081E0291708F480E041E0533008F440E00F
:103500008423832311F49217F0F69F5FF8019483CC
:10351000DACF0F931F93CF93DF93CDB7DEB72C97FE
:103520000FB6F894DEBF0FBECDBF8B01BC01CE013C
:1035300001960E94730FB801CE0101960E94F11806
:103540002C960FB6F894DEBF0FBECDBFDF91CF91A2
:103550001F910F910895EF92FF920F931F93CF93B6
:10356000DF93CDB7DEB7CB57D1090FB6F894DEBFE6
:103570000FBECDBF8C017B01809114088823A9F177
:103580004DE050E065E77AE08BE198E00E94453835
:1035900043E150E06CE77AE088E298E00E94453829
:1035A00043E150E066E87AE08BE398E00E9445381A
:1035B00043E150E060E97AE08EE498E00E9445380B
:1035C00043E150E06EE97AE081E698E00E944538F8
:1035D000B801CE0101960E94730F64E178E0CE013C
:1035E00001960E94891A10921408B701CE01019623
:1035F0000E94D60EB801CE0180599F4F0E94730FD2
:1036000044E158E0BE016F5F7F4FCE0180599F4F6C
:103610000E94211AC558DF4F0FB6F894DEBF0FBEC7
:10362000CDBFDF91CF911F910F91FF90EF90089543
:10363000EF92FF920F931F93CF93DF93CDB7DEB737
:10364000CB57D1090FB6F894DEBF0FBECDBF8C01AA
:103650007B01809142078823A9F14DE050E06AEA9E
:103660007AE089E497E00E94453843E150E064EB5A
:103670007AE086E597E00E94453843E150E060EC4F
:103680007AE089E697E00E94453843E150E06EEC2D
:103690007AE08CE797E00E94453843E150E06DED19
:1036A0007AE08FE897E00E944538B801CE01019694
:1036B0000E94730F62E477E0CE0101960E94891A9E
:1036C00010924207B701CE0101960E94D60EB801B2
:1036D000CE0180599F4F0E94730F42E457E0BE0114
:1036E0006F5F7F4FCE0180599F4F0E94211AC558AE
:1036F000DF4F0FB6F894DEBF0FBECDBFDF91CF9185
:103700001F910F91FF90EF9008952F923F924F924B
:103710005F926F927F928F929F92AF92BF92CF9261
:10372000DF92EF92FF920F931F93CF93DF93CDB76A
:10373000DEB7C851D1400FB6F894DEBF0FBECDBF83
:103740008C016B01F42E20915310309154105901CB
:1037500044E0A41AB108E0912310F0912410E8305D
:10376000F10510F00C94F7238827E654F44E8F4FA0
:103770000C94F035C21B3C1C941C191E441F811F65
:10378000CC1FD31F80ED97E0A0E0B0E08093170737
:1037900090931807A0931907B0931A0786E197E052
:1037A0000E94C90E11E01093440610930C0610936A
:1037B000D40510939C0510939B0510920F06109250
:1037C000D70510929F058FEF8093470610921F1028
:1037D0001092201010922110109222100E94890243
:1037E00054E0F51609F445C05F1558F082E0F8166C
:1037F00059F193E0F91671F18DEE9AE00E94A30F52
:1038000009C0A6E081E090E0AF15B0F390932410DA
:1038100080932310C85EDE4F0FB6F894DEBF0FBE54
:10382000CDBFDF91CF911F910F91FF90EF90DF906F
:10383000CF90BF90AF909F908F907F906F905F9050
:103840004F903F902F9008951093201082E3809323
:103850001F100CC082E08093201089E180931F101C
:103860008091531090915410059781F386E090E079
:10387000CDCF83E090E0CACF809144068823B9F190
:103880004DE050E06AEF7AE08BE496E00E94453824
:1038900083E1E2E0FBE0B3E0AB16B10410F0E5E158
:1038A000FBE0DE01119601900D928A95E1F743E16C
:1038B00050E0BE016F5F7F4F88E596E00E9445387B
:1038C00043E150E068E27BE08BE696E00E944538F9
:1038D000B801CE0180599F4F0E94730F64E476E0D7
:1038E000CE0180599F4F0E94891A10924406B6015A
:1038F000CE0101960E94D60EB801CE0180599F4F8D
:103900000E94730F44E456E0BE016F5F7F4FCE010B
:1039100080599F4F0E94211A809147068F3F09F4DA
:1039200079CF82E090E072CF80910C068823F1F08D
:10393000809147068130E1F1823009F4C9C0B601B7
:10394000CE0101960E94D60EB801CE0184519F4F40
:103950000E94730F4CE056E0BE016F5F7F4FCE01B7
:1039600084519F4F0E940C1810920C06B601CE0194
:1039700001960E94D60EB801CE0180599F4F0E9439
:10398000730F4CE056E0BE016F5F7F4FCE01805950
:103990009F4F0E940E1580914706813009F403C1A4
:1039A000823009F42BC180EB9BE00E94A30F12C16F
:1039B0002230310589F048F42130310509F465C021
:1039C0008BE59BE00E94A30F19C02430310509F458
:1039D0005CC025303105A1F74DE050E067E37BE0A6
:1039E000CE0181529F4F0E94453845E150E06DE382
:1039F0007BE0CE0180599F4F0E9445386DE070E01A
:103A0000CE0181529F4F0E941E334CE050E0481B74
:103A1000590BE3E0AE16B10408F045C065E87CE060
:103A2000CE0181529F4F0E94353865E170E0CE0192
:103A300080599F4F0E941E3344E150E0481B590BB0
:103A400066E87BE0CE0180599F4F0E943538109286
:103A500014068EE1809315064DE050E0BE016152E0
:103A60007F4F82E296E00E94453845E150E0BE017A
:103A700060597F4F8FE296E00E94453880E290E1E6
:103A800090932106809320065ACF4DE050E068E4E1
:103A90007BE0CE0181529F4F0E94453845E150E0C6
:103AA0006FE47BE0A6CF6DE87BE0CE0181529F4FB3
:103AB0000E94353865E170E0CE0180599F4F0E9429
:103AC0001E3344E150E0481B590B63E97BE0BACF59
:103AD0004DE050E06AE97BE082E296E00E944538E2
:103AE0004AE0BE016C5F7E4F81E090E00E94293386
:103AF0004AE0BE0168507F4F82E390E00E94293384
:103B000045E150E062EA7BE0CE0180599F4F0E9480
:103B1000453865E170E0CE0180599F4F0E941E3309
:103B2000A4E1EA2EF12CA701481B590BBE016C5FE2
:103B30007E4FCE0180599F4F0E94353865E170E07D
:103B4000CE0180599F4F0E941E33A701481B590B7D
:103B500068EA7BE0CE0180599F4F0E94353865E1CD
:103B600070E0CE0180599F4F0E941E33A701481B71
:103B7000590BBE0168507F4FCE0180599F4F0E9464
:103B8000353845E150E0BE0160597F4F8FE296E045
:103B90000E94453881E08093140682E380931506E5
:103BA0008FE190E16DCF2091201030E050E040E0B7
:103BB000F3E0AF16B10430F42150330B032E000CA8
:103BC000440B550B62E370E080E090E00E94CE353C
:103BD00020931F1080910F06882309F41BCE80913B
:103BE0005310909154108230910509F43FCED0F4D7
:103BF000019709F43ECE8DEC9BE000CE20911F1082
:103C000030E050E040E062E370E080E090E00E944D
:103C1000CE3503E0A016B10418F020932010DACFBF
:103C20002F5FFBCF8430910509F423CE059719F758
:103C30001DCE8091D405882309F4DFC085E0E4EF30
:103C4000F8E0DE01A059BF4F01900D928A95E1F78F
:103C500080E1E0E7F0E0EC0FFD1F3596DF011D92FB
:103C60008A95E9F72330310579F040F421303105A8
:103C700049F187E49CE00E94A30F21C02430310564
:103C800009F126303105A9F74DE050E067E07CE00E
:103C9000CE0181529F4F0E94453865E170E0CE0110
:103CA00080599F4F0E941E3344E150E0481B590B3E
:103CB0006FE07CE0CE0180599F4F0E943538EFE0E5
:103CC000FE2E41C080912010803108F08FE04AE044
:103CD000BE0168507F4F90E00E9429334DE050E0D4
:103CE00068E17CE0CE0181529F4F0E94453865E13A
:103CF00070E0CE0180599F4F0E941E33F4E1EF2EF9
:103D0000F12CA701481B590BBE0168507F4FCE0113
:103D100080599F4F0E94353865E170E0CE0180598F
:103D20009F4F0E941E33A701481B590B69E17CE09D
:103D3000CE0180599F4F0E943538F0902010BFE08F
:103D4000BF1508F4BCCF6DE070E0CE0181529F4FEB
:103D50000E941E334CE050E0481B590BE3E0AE16C6
:103D6000B10408F072C06FE17CE0CE0181529F4F38
:103D70000E94353865E170E0CE0180599F4F0E9466
:103D80001E3344E150E0481B590B66E87BE0CE014E
:103D900080599F4F0E9435384DE050E0BE0161527E
:103DA0007F4F8AEE95E00E94453845E150E0BE0124
:103DB00060597F4F87EF95E00E944538F092DD050E
:103DC00081E290E19093E9058093E805B601CE0188
:103DD00001960E94D60EB801CE0184519F4F0E94D9
:103DE000730F44ED55E0BE016F5F7F4FCE018451EC
:103DF0009F4F0E940C181092D405B601CE01019677
:103E00000E94D60EB801CE0180599F4F0E94730FB9
:103E100044ED55E0BE016F5F7F4FCE0180599F4F4B
:103E20000E940E158091D705882309F4F3CC809168
:103E30005310909154108330910509F417CDD0F4AC
:103E40000197F9F089E29CE0D9CC64E27CE0CE01F4
:103E500081529F4F0E94353865E170E0CE01805954
:103E60009F4F0E941E3344E150E0481B590B63E909
:103E70007BE08DCF8430910521F0069709F4F6CCD4
:103E8000E1CF84E090E0C2CC80919B05882379F05B
:103E9000B801CE0101960E94730FCE0101960E94D7
:103EA000CC1410929B0586E197E00E94C90E0E94F7
:103EB0002C04AB01BC0180911B0790911C07A091C1
:103EC0001D07B0911E070091170710911807209148
:103ED000190730911A07800F911FA21FB31F21E00D
:103EE000481759076A077B0708F420E02093160754
:103EF000481759076A077B0708F48CCC85E090E0E7
:103F000085CC80919C05882369F14DE050E062EDFD
:103F100079E082EB95E00E944538809121108093F2
:103F2000A50581E990E19093B1058093B00580915A
:103F300020108093A605B601CE0101960E94D60EF0
:103F4000B801CE0180599F4F0E94730F4CE955E094
:103F5000BE016F5F7F4FCE0180599F4F0E940C18AA
:103F600010929C05B601CE0101960E94D60EB801B2
:103F7000CE0180599F4F0E94730F4CE955E0BE015E
:103F80006F5F7F4FCE0180599F4F0E940E15809129
:103F90009F0581116BCC3ECC0E94C00F0E9438045B
:103FA00087E090E033CCCE0180599F4F0E94D60E1F
:103FB000B801CE0188509F4F0E94730F809153101B
:103FC000909154108C0104501109C55FDE4F198384
:103FD0000883CB50D1400330110508F020C4309144
:103FE0002210332309F41BC42FEF230FA1E00697FF
:103FF00009F428C4B4E03B9FC0011124FC01EB5A32
:10400000FF4E1F01F4E02F9F9001112489010B5AEC
:104010001F4EC95FDE4F19830883C750D140A1E00E
:104020002AC410E0B12CA12CF10193809110E1C0C1
:1040300080911F07882309F45EC0F3E0FF1609F49E
:104040008CC0FF1550F002E0F01611F186EB9CE0F9
:104050000E94A30F93C011E0E7CF26E02F15B0F325
:10406000C55FDE4F48815981CB50D1404330510567
:1040700008F0B1C04DE050E062E87CE0CE01815232
:104080009F4F0E94453845E150E06BE87CE072C0EC
:104090004DE050E068E57CE0CE0181529F4F0E94E8
:1040A000453845E150E06FE57CE0CE0101960E9485
:1040B00045384DE050E0BE0161527F4F80E297E00D
:1040C0000E94453845E150E0BE016F5F7F4F8DE2B1
:1040D00097E00E944538BE0168507F4FCE01845161
:1040E0009F4F0E94730F612FCE0184519F4F0E94FA
:1040F000511410921F07BE0160597F4FCE010196E7
:104100000E94D60EBE0168507F4FCE0181529F4F54
:104110000E94730F82E390E08A199B098F3F9105FB
:1041200019F010F08FEF90E0E12E082F2FE130E131
:10413000A101BE016F5F7F4FCE0181529F4F0E9450
:104140007813112309F466CBE0912210F0E0EF56CA
:10415000FF4E80911F1080835DCB4DE050E06EE6F6
:104160007CE0CE0181529F4F0E94453845E150E0EE
:1041700064E77CE0CE0101960E94453880912210D0
:1041800090E04AE0BE016C5F7E4F01960E942933A9
:1041900065E170E0CE0101960E941E3374E1E72EC6
:1041A000F12CA701481B590BBE016C5F7E4FCE015D
:1041B00001960E94353865E170E0CE0101960E94BB
:1041C0001E33A701481B590B6FEE79E0CE01019613
:1041D0000E9435386ECF4DE050E06CE97CE0CE01B6
:1041E00081529F4F0E94453845E150E065EA7CE0EE
:1041F000C1CF21E020931F07E0901F102E2D30E04B
:1042000060912210E69E70011124E62FF0E0AF01CC
:104210004F5F5F4FC55FDE4F08811981CB50D140A2
:1042200003301105C0F4662309F4EFC28330910511
:1042300069F03197E29FB001E39F700DF29F700D1E
:10424000112467017B0186309105A1F46501C20E3E
:10425000D31E75010FC0429F6001439FD00C529F37
:10426000D00C11248330910519F08630910511F49A
:104270006111ECCF609121106417150681F07CF07C
:104280009C01235031092230310508F4B9C0863031
:10429000910509F4B5C021E08130910509F020E0D5
:1042A000709120107417150649F044F0392D8230B2
:1042B000910529F031E08530910509F030E02111B8
:1042C00003C0332309F4B9C08701000F111F0E0D7D
:1042D0001F1DF801E757F04FAA2309F493C00757B1
:1042E000104F5701C6018E199F099C0150E040E014
:1042F000C55FDE4F288339834A835B83CB50D1402F
:10430000AC14BD0408F091C0B5016E197F0990E0AE
:1043100080E00E9463332B013C01C55FDE4F688162
:1043200079818A819B81CB50D1400E9463339B016C
:10433000AC01C301B2010E9409352B013C01C95FE8
:10434000DE4FA881B981C750D14012969C90F101EF
:1043500062816919770B072E000C880B990B0E945C
:104360006533A30192010E94C4330E947B35690D1D
:10437000C75FDE4F6883C950D140C95FDE4FA88157
:10438000B981C750D14011968C90F10161816819B3
:10439000770B072E000C880B990B0E946533A30145
:1043A00092010E94C4330E947B35860EC95FDE4FA6
:1043B000A881B981C750D1409C90F10160816919F1
:1043C000770B072E000C880B990B0E946533A30115
:1043D00092010E94C4330E947B35960ED8019C92B4
:1043E00011968C921197C75FDE4FE881C950D1407A
:1043F0001296EC93FFEFAF1ABF0A0D5F1F4F80CFED
:10440000292D4ECFEC14FD0480F4D10112968C912D
:10441000129711969C9111972C91208391838283FE
:10442000BFEFEB1AFB0A3396EDCF0E943804809160
:1044300022108F5F80932210EDC92091521021111C
:10444000B2C18330910519F0069709F0672F51E545
:10445000A52E50E1B52E30E020E0062F10E0CD5E15
:10446000DE4F19830883C351D140CD5EDE4F0881F2
:104470001981C351D1402017310708F084C18091C0
:104480001F1090E0289F8001299F100D389F100D6C
:104490001124A9014F5F5F4FCF5EDE4F59834883E0
:1044A000C151D1407C01E00EF11EC55FDE4FA881F5
:1044B000B981CB50D140139730F52115310519F151
:1044C000880F991FF701E81BF90BD92C78018F0190
:1044D000809153109091541083309105E9F0A8F425
:1044E00081309105A1F1029709F40EC188EE9CE09C
:1044F00008C114E0A10EB11CCF5EDE4F28813981C6
:10450000C151D140B2CFD12CE3CF8530910509F410
:10451000FBC0E8F0069751F71501E4E02E0E311CC0
:10452000DD2031F0C95FDE4FB982A882C750D1408B
:10453000E1E9F0E190E080E010E000E028173907C1
:1045400009F4EFC04191040F111D0196F7CFCF5E22
:10455000DE4FE881F981C151D140EF5AFF4E87AD5E
:10456000882309F4CCC024E0829FC0011124AC014F
:104570004F5A5F4E1A01DD2009F4E1C086AD54E0C8
:10458000859FC0011124DC01AF5ABF4EC95FDE4FC9
:10459000B983A883C750D140C801880F991F800FE5
:1045A000911F9C012757304FC75FDE4F3983288307
:1045B000C950D140C15FDE4F19830883CF50D1402D
:1045C000C701801B910B9C0150E040E0CB5EDE4FA9
:1045D000288339834A835B83C551D140C15FDE4F55
:1045E00048815981CF50D1404E155F0508F081CFE9
:1045F000BA01601B710B90E080E00E9463332B01D5
:104600003C01CB5EDE4F688179818A819B81C551F7
:10461000D1400E9463339B01AC01C301B2010E94EF
:1046200009352B013C01C95FDE4FA881B981C75014
:10463000D14012968C90F10162816819770B072E98
:10464000000C880B990B0E946533A30192010E9414
:10465000C4330E947B35860EC95FDE4FA881B981C5
:10466000C750D1401196DC90F10161816D19770B33
:10467000072E000C880B990B0E946533A301920151
:104680000E94C4330E947B35D60EC95FDE4FA881DD
:10469000B981C750D140CC90F10160816C19770B82
:1046A000072E000C880B990B0E946533A301920121
:1046B0000E94C4330E947B35C60EC75FDE4FA881BF
:1046C000B981C950D140CC921196DC9211971296C3
:1046D0008C921297C15FDE4FE881F981CF50D140B3
:1046E0003196C15FDE4FF983E883CF50D1401396F6
:1046F000C75FDE4FB983A883C950D1406FCF81ED2A
:104700009CE00E94A30F19C01501B4E02B0E311CD0
:10471000DD20A9F0C95FDE4FB982A882C750D14021
:104720003BCFCF5EDE4FE881F981C151D140EF5AD6
:10473000FF4EE7ACE00EF12EF11CD1102DCFC55F7E
:10474000DE4F28813981CB50D1402330310508F428
:10475000D0CEF801EE0FFF1FE00FF11FE757F04F2B
:104760000E151F0508F0C5CED10112968C91129737
:1047700011969C9111972C912083918382830F5FD6
:104780001F4F3396EDCF0E943804BE0168507F4F13
:10479000CE0101960E94730FCE0101960E947810FF
:1047A00081E080935210BE0160597F4FCE01019687
:1047B0000E94D60ECE0101960E94240B8F3FA1F4D9
:1047C000E0919A05EF3F81F0F0E0E95CF64F9081CF
:1047D000911103C091E09093511080939A0510922B
:1047E00024101092231016C880939A0513C886EFE0
:1047F0009CE004C88091221014E0819FC001112424
:104800009C012B5A3F4E190114C0CC24C394D12CC7
:10481000F12CE12C8330910509F027CD2BCD83308D
:10482000910571F040F4019728F780E49CE00E9424
:10483000A30FA0E020C086309105E0F20697A9F70B
:1048400020E0A0E08091221014E0819FC00111249B
:10485000AC014B5A5F4E1A01AA2369F054E0259F20
:104860009001112489010B5A1F4EC95FDE4F198335
:104870000883C750D14080915310909154108330D9
:10488000910549F08630910509F0CBCB209122109B
:10489000222309F4C6CB4091221050E0E1E9F0E177
:1048A00030E020E0B12CA12C2417350708F0D3CB41
:1048B0006191A60EB11C2F5F3F4FF6CFEF92FF9292
:1048C0001F93CF93DF93CDB7DEB7CB57D1090FB688
:1048D000F894DEBF0FBECDBF2FEF240F243020F59C
:1048E00026E030E0423031F024E030E0443011F096
:1048F00025E030E03093541020935310142F7C01A6
:10490000CE0101960E94D60EB701CE0180599F4F6D
:104910000E94730F42E0410FBE016F5F7F4FCE01D7
:1049200080599F4F0E94851BC558DF4F0FB6F894E2
:10493000DEBF0FBECDBFDF91CF911F91FF90EF90F3
:1049400008952F923F924F925F926F927F928F9233
:104950009F92AF92BF92CF92DF92EF92FF920F930E
:104960001F93CF93DF93CDB7DEB7C654D1400FB6B8
:10497000F894DEBF0FBECDBF423030F0142F7C0163
:104980004730E0F04730E1F1CA5BDE4F0FB6F894F4
:10499000DEBF0FBECDBFDF91CF911F910F91FF9072
:1049A000EF90DF90CF90BF90AF909F908F907F90CF
:1049B0006F905F904F903F902F90089583E090E02C
:1049C000443031F081E090E0463011F082E090E038
:1049D0009093541080935310CE0101960E94D60EEE
:1049E000B701CE0180599F4F0E94730F412FBE0126
:1049F0006F5F7F4FCE0180599F4F0E94851BC4CFB0
:104A000087E090E09093541080935310CE0180592A
:104A10009F4F0E94D60EB701CE0193950E94730F4F
:104A20009E012C5C3E4FC15CDE4F39832883CF53FF
:104A3000D14088E0D901E82F1D92EA95E9F7285086
:104A40003109CF5BDE4F39832883C154D140D9016E
:104A5000E82F1D92EA95E9F7AE014C5D5E4FDA0151
:104A6000E82F1D92EA95E9F7BE01645E7E4FDB01F7
:104A7000E82F1D92EA95E9F7DE01AC5EBE4FFD011D
:104A8000282F11922A95E9F79E01245F3E4FF901E4
:104A900011928A95E9F78091870F9091880F823063
:104AA000910509F4C7C058F4009709F464C0019750
:104AB00009F474C088E79DE00E94A30F65CF83309E
:104AC000910509F44EC10497A9F780915210811104
:104AD00058C2C0905610D12CB12CA12C1FEFB3E3BB
:104AE000CB16D10408F03EC27501EE0CFF1CEA0C97
:104AF000FB1CF701E757F04F7F014501C6018A19FA
:104B00009B099C0150E040E0CD5BDE4F2883398358
:104B10004A835B83C354D1408C149D0408F01CC2AB
:104B2000B4016A197B0990E080E00E9463332B0195
:104B30003C01CD5BDE4F688179818A819B81C354C2
:104B4000D1400E9463339B01AC01C301B2010E94BA
:104B500009352B013C0180915510813009F408C1C1
:104B6000823009F4B8C18DE59DE00E94A30F412C6D
:104B7000512C320150C181E08093C804809390048D
:104B8000109293048FEF8093CB040E94890281E0FE
:104B900090E09093880F8093870FF6CE8091C804A1
:104BA000882331F14DE050E06EE27DE08FEC94E03F
:104BB0000E94453843E150E06AE37DE08CED94E0EB
:104BC0000E94453843E150E062E47DE08FEE94E0DE
:104BD0000E944538BE017395CE0101960E94730F65
:104BE00068EC74E0CE0101960E94891A1092C80404
:104BF000BE0160597F4FCE0101960E94D60EBE01C4
:104C00007395CE0181529F4F0E94730F48EC54E080
:104C1000BE016F5F7F4FCE0181529F4F0E94211ACC
:104C20008091CB048F3F09F4AFCE8093551082E082
:104C300090E0AFCF80919004882309F472C04DE0DA
:104C400050E06AE47DE086EA94E00E94453885E021
:104C5000E4EFF8E0DE01A152BF4F01900D928A957A
:104C6000E1F780E1EFEDF0E0EC0FFD1F3596DF019D
:104C70001D928A95E9F74AE0BE01645C7E4F82E3AB
:104C800090E00E94293365E170E0CE0181529F4F90
:104C90000E941E3304E110E0A801481B590BBE011D
:104CA000645C7E4FCE0181529F4F0E94353865E192
:104CB00070E0CE0181529F4F0E941E33A801481B15
:104CC000590B66E57DE0CE0181529F4F0E94353839
:104CD00045E150E0BE0161527F4F83EB94E00E94BA
:104CE000453886E590E19093A5048093A404BE0125
:104CF00060597F4FCE0101960E94D60EBE0173957A
:104D0000CE018C509F4F0E94730F40E954E0BE01CA
:104D10006F5F7F4FCE018C509F4F0E940C181092F6
:104D20009004BE0160597F4FCE0101960E94D60EBD
:104D3000BE017395CE0181529F4F0E94730F40E9CF
:104D400054E0BE016F5F7F4FCE0181529F4F0E94A2
:104D50000E1580919304882309F416CE83E090E029
:104D600018CF0E94C00F0E94380484E090E011CF59
:104D70002BEA3AEA4AEA5EE3C301B2010E945E33DB
:104D800087FF1BC0CB5CDE4F1883C553D140C85C86
:104D9000DE4F1883C853D14088E0FE01EC5CFE4F23
:104DA000AFE7BFE001900D928A95E1F720E030E097
:104DB00040E450E4C301B2012AC02BEA3AEA4AE2D5
:104DC0005FE3C301B2010E945E3387FF6BC0C25D27
:104DD000DE4F1883CE52D140CF5CDE4F1883C153D3
:104DE000D14088E0FE01E45DFE4FAFE7BFE00190F7
:104DF0000D928A95E1F72BEA3AEA4AEA5EE3C301AB
:104E0000B2010E949C3420E030E040E450E40E9473
:104E1000C4332B013C010091850F6091810F601B11
:104E2000770B072E000C880B990B0E946533A301AA
:104E300092010E94C4330E947B35060F3090840F8C
:104E40006091800F6319770B072E000C880B990B6C
:104E50000E946533A30192010E94C4330E947B35F6
:104E6000360E2090830F60917F0F6219770B072E0B
:104E7000000C880B990B0E946533A30192010E94DC
:104E8000C4330E947B35260ED7012C9211963C929A
:104E9000119712960C93BFEF8B1A9B0AE3E0EE0E6C
:104EA000F11C3ACECC5DDE4F1883C452D140C65DB2
:104EB000DE4F1883CA52D14088E0FE01EC5DFE4F00
:104EC000AFE7BFE001900D928A95E1F72BEA3AEA4D
:104ED0004AE25FE394CF2BEA3AEA4AEA5EE3C3018F
:104EE000B2010E945E3387FF0FC0C25EDE4F18839F
:104EF000CE51D140C05EDE4F1883C052D14088E011
:104F0000FE01E45EFE4F4CCF2BEA3AEA4AE25FE351
:104F1000C301B2010E945E3387FF0FC0CB5EDE4F3C
:104F20001883C551D140C65EDE4F1883CA51D140A7
:104F300088E0FE01EC5EFE4F58CFC45FDE4F188361
:104F4000CC50D140CF5EDE4F1883C151D14088E0B4
:104F5000FE01E45FFE4FB4CF809156105601C80E9B
:104F6000D11CBDCD0E943804BE017395CE010196BF
:104F70000E94730FCE0101960E94781081E0809309
:104F80005210BE0160597F4FCE0101960E94D60E8D
:104F9000CE0101960E94240B8F3F89F4E0918F048B
:104FA000EF3F69F0F0E0E95CF64F9081911103C0AA
:104FB00091E0909351101092880F1092870F809378
:104FC0008F04E2CCEF92FF920F931F93CF93DF9366
:104FD000CDB7DEB7CB57D1090FB6F894DEBF0FBE01
:104FE000CDBF8C017B018091BD03882309F45DC096
:104FF0004DE050E065E87DE084EC93E00E944538A8
:1050000043E150E06DE87DE081ED93E00E9445389A
:1050100043E150E065E97DE084EE93E00E9445388D
:1050200043E150E064EB7AE087EF93E00E9445387B
:1050300043E150E061EA7DE08AE094E00E94453877
:1050400043E150E06EEA7DE08DE194E00E94453856
:1050500043E150E06DEB7DE080E394E00E94453851
:1050600043E150E06DEC7DE083E494E00E9445383C
:1050700043E150E065ED7DE086E594E00E9445382F
:1050800043E150E06EED7DE089E694E00E94453812
:10509000B801CE0101960E94730F6DEB73E0CE0153
:1050A00001960E94891A1092BD03B701CE010196A4
:1050B0000E94D60EB801CE0180599F4F0E94730FF7
:1050C0004DEB53E0BE016F5F7F4FCE0180599F4F84
:1050D0000E94211AC558DF4F0FB6F894DEBF0FBEED
:1050E000CDBFDF91CF911F910F91FF90EF90089569
:1050F000AF92BF92CF92DF92EF92FF920F931F93E6
:10510000CF93DF93CDB7DEB7C65FD1090FB6F89462
:10511000DEBF0FBECDBF90917F0E992309F475C4F9
:105120002091EB022F3F41F0692F2A3031F061E0EE
:105130008091EE02821708F060E0809119028F3FA3
:1051400041F0592F8A3031F051E030911C0238176C
:1051500008F050E08091C0038F3F41F0492F8A3022
:1051600031F041E03091C303381708F040E08091FE
:1051700045078F3F41F0392F8A3031F031E070918F
:105180004807781708F030E07091810E795081E07F
:10519000763F08F080E0E091800EE85071E0E73F54
:1051A00008F070E0782B809117088F3F39F08A3033
:1051B00031F091E0E0911A08E81708F090E02350F0
:1051C00081E0243008F080E0872B862B852B842B10
:1051D000832B09F491110E949A0E8091EB028F3F6C
:1051E00009F085C067E872E1CE0180599F4F0E94A7
:1051F000D60E6BE772E1CE0185519F4F0E94730F6F
:105200008091E802882309F447C04DE050E065EE44
:105210007DE08FEE92E00E94453843E150E060EF80
:105220007DE08CEF92E00E94453843E150E064EA73
:105230007AE08FE093E00E94453843E150E067EF69
:105240007DE082E293E00E94453843E150E06CEF5C
:105250007DE085E393E00E94453843E150E062E061
:105260007EE088E493E00E94453843E150E06BE043
:105270007EE08BE593E00E944538BE0165517F4F8B
:10528000CE0101960E94730F68EE72E0CE01019686
:105290000E94891A1092E802BE0160597F4FCE0128
:1052A00001960E94D60EBE0165517F4FCE018152FC
:1052B0009F4F0E94730F48EE52E0BE016F5F7F4F19
:1052C000CE0181529F4F0E94211ACA50DF4F0FB664
:1052D000F894DEBF0FBECDBFDF91CF911F910F912C
:1052E000FF90EF90DF90CF90BF90AF900895813006
:1052F000E1F0823051F7809117088F3F31F767E86E
:1053000072E1CE0101960E94D60E6BE772E1CE01EA
:1053100080599F4F0E94730FBE016F5F7F4FCE0178
:1053200080599F4F0E94AB1AD0CF809119028F3FB6
:1053300009F04BC067E872E1CE0180599F4F0E948F
:10534000D60E6BE772E1CE0185519F4F0E94730F1D
:1053500080911602882339F14DE050E062E17EE051
:105360008DE192E00E94453843E150E06AE17EE041
:105370008AE292E00E94453843E150E061E27EE03B
:105380008DE392E00E944538BE0165517F4FCE010A
:1053900001960E94730F66E172E0CE0101960E94B1
:1053A000891A10921602BE0160597F4FCE010196F4
:1053B0000E94D60EBE0165517F4FCE0181529F4F94
:1053C0000E94730F46E152E078CF813009F4A6C005
:1053D000823009F07ACF8091810E893008F4BEC105
:1053E0008A3009F472CF82E1E9E0F9E0DE0111963A
:1053F00001900D928A95E1F78BE792E10E946F1080
:1054000040E060E08BE792E10E94321065E172E0DB
:105410008BE792E10E94141040E06CE08BE792E190
:105420000E9432106CE072E08BE792E10E9414104F
:1054300042E062E18BE792E10E94321069E072E0A3
:105440008BE792E10E94141043E062E18BE792E166
:105450000E94321066E072E08BE792E10E94141025
:10546000CE0101967C0111E0412F60E08BE792E1D3
:105470000E943210612FCE0180599F4F0E9421114E
:10548000BE0160597F4F8BE792E10E947B05CE0100
:1054900080599F4F0E94BB10412F61E08BE792E142
:1054A0000E94321064E072E08BE792E10E941410D7
:1054B000412F62E08BE792E10E943210F701619187
:1054C00071917F01CE0180599F4F0E941214BE013D
:1054D00060597F4F8BE792E10E947B05CE01805996
:1054E0009F4F0E94BB101F5F143009F0BDCF10E02A
:1054F0006AE070E080E090E00E94FA0387E892E1C1
:105500000E944C098823D1F39FEC980F983008F043
:105510007FC090ED980F9093810E5DCF1091C003E6
:105520001F3FB1F467E872E1CE0101960E94D60EEA
:105530006BE772E1CE0180599F4F0E94730FBE014D
:105540006F5F7F4FCE0180599F4F0E94E227BDCEF3
:105550001830E1F5109145071F3FB1F467E872E19B
:10556000CE0101960E94D60E6BE772E1CE01805902
:105570009F4F0E94730FBE016F5F7F4FCE01805916
:105580009F4F0E94181BA1CE1A3009F49ECE809125
:105590005110882321F08AE08093450796CE67E872
:1055A00072E1CE0101960E94D60E6BE772E1CE0148
:1055B00080599F4F0E94730F412FBE016F5F7F4F35
:1055C000CE0180599F4F0E945E247FCE1A3009F48D
:1055D0007CCE80915110882321F08AE08093C00313
:1055E00074CE67E872E1CE0101960E94D60E6BE799
:1055F00072E1CE0180599F4F0E94730F412FBE016F
:105600006F5F7F4FCE0180599F4F0E94A1245DCED6
:105610009A3009F480CF993009F083C011111150EC
:105620008BE792E10E946F1040E060E08BE792E12F
:105630000E94321068EF71E08BE792E10E94141033
:1056400040E06CE08BE792E10E9432106FEE71E077
:105650008BE792E10E94141042E062E18BE792E155
:105660000E9432106CEE71E08BE792E10E94141000
:1056700043E062E18BE792E10E94321069EE71E053
:105680008BE792E10E941410A12EB12C7501EE0C53
:10569000FF1C81E090E08C0F9D1FE80EF91ECC24CA
:1056A000C394D12C01E0402F60E08BE792E10E948F
:1056B00032100330F1F51630E1F567EE71E08BE75B
:1056C00092E10E941410402F61E08BE792E10E946A
:1056D000321065EE71E08BE792E10E941410402FCA
:1056E00062E08BE792E10E943210F70161917191C3
:1056F0007F01CE0180599F4F0E941214BE01605954
:105700007F4F8BE792E10E947B05CE0180599F4F2E
:105710000E94BB100F5FFFEFCF1ADF0A043019F6AB
:10572000E7CE9B3009F07CCF163008F079CF1F5FB1
:1057300077CFB5016C0D7D1DCE0180599F4F0E9422
:105740004B11BE0160597F4F8BE792E10E947B05B0
:10575000CE0180599F4F0E94BB10B5CF813009F414
:10576000B4CD8D7F883009F4B0CD8091800E883023
:1057700008F442C18A3009F4A8CD80E1EBE1F9E0F8
:10578000DE01119601900D928A95E1F78BE792E187
:105790000E946F1040E060E08BE792E10E943210BF
:1057A0006FE472E08BE792E10E94141040E06CE03D
:1057B0008BE792E10E94321066E472E08BE792E19F
:1057C0000E94141042E062E18BE792E10E943210E5
:1057D00063E472E08BE792E10E94141043E062E11F
:1057E0008BE792E10E94321060E472E08BE792E175
:1057F0000E941410CE0101967C0111E0412F60E05F
:105800008BE792E10E943210612FCE0180599F4FA9
:105810000E942111BE0160597F4F8BE792E10E94E7
:105820007B05CE0180599F4F0E94BB10412F61E044
:105830008BE792E10E9432106EE372E08BE792E117
:105840000E941410412F62E08BE792E10E94321017
:10585000F701619171917F01CE0180599F4F0E94A4
:105860001214BE0160597F4F8BE792E10E947B05C5
:10587000CE0180599F4F0E94BB101F5F143009F06A
:10588000BDCF10E06AE070E080E090E00E94FA0393
:1058900087E892E10E944C098823D1F39FEC980F8E
:1058A000973028F490ED980F9093800E5ECF9A3049
:1058B000D9F3993009F083C0111111508BE792E1AF
:1058C0000E946F1040E060E08BE792E10E9432108E
:1058D00064E372E08BE792E10E94141040E06CE018
:1058E0008BE792E10E9432106BE272E08BE792E16B
:1058F0000E94141042E062E18BE792E10E943210B4
:1059000068E272E08BE792E10E94141043E062E1EA
:105910008BE792E10E94321065E272E08BE792E140
:105920000E941410A12EB12C7501EE0CFF1C81E019
:1059300090E08C0F9D1FE80EF91ECC24C394D12C4F
:1059400001E0402F60E08BE792E10E9432100330CB
:10595000F1F51530E1F563E272E08BE792E10E9428
:105960001410402F61E08BE792E10E94321061E257
:1059700072E08BE792E10E941410402F62E08BE707
:1059800092E10E943210F701619171917F01CE0185
:1059900080599F4F0E941214BE0160597F4F8BE7C0
:1059A00092E10E947B05CE0180599F4F0E94BB105F
:1059B0000F5FFFEFCF1ADF0A043019F663CF9B3079
:1059C00009F07CCF153008F079CF1F5F77CFB50194
:1059D0006C0D7D1DCE0180599F4F0E944B11BE0161
:1059E00060597F4F8BE792E10E947B05CE01805981
:1059F0009F4F0E94BB10B5CF873009F066CC8091D5
:105A000045078F3F09F061CCA9CD10917E0E11237F
:105A100009F431C180911502882391F084E190E06E
:105A2000A0E0B0E080930D0290930E02A0930F02CD
:105A3000B09310028CE092E00E94C90E1092150201
:105A40000E942C04AB01BC018091110290911202C2
:105A5000A0911302B091140200910D0210910E0258
:105A600020910F0230911002800F911FA21FB31FCF
:105A700021E0481759076A077B0708F420E02093C4
:105A80000C02481759076A077B0708F41ECC80915F
:105A90000A02882309F446C08CE291E0A0E0B0E05D
:105AA0008093020290930302A0930402B093050234
:105AB00081E092E00E94C90E8BE792E10E946F1094
:105AC00040E060E08BE792E10E94321067E872E00C
:105AD0008BE792E10E94141041E062E08BE792E1D3
