:100000000C9400020C9431020C9431020C943102D5
:100010000C9431020C9431020C9431020C94310294
:100020000C9431020C9431020C9431020C94310284
:100030000C9431020C9431020C9431020C94310274
:100040000C9431020C9431020C9431020C94310264
:100050000C9431020C9431020C9431020C94092F4F
:100060000C9431020C947D2F0C94532F0C9431027C
:100070000C9431020C9431020C9431020C94310234
:100080000C9431020C9431020C9431020C94310224
:100090000C9431020C9431020C9431020C94B32F65
:1000A0000C9431020C9431020C9431020C94310204
:1000B0000C9431020C9431020C9431020C943102F4
:1000C0000C9431020C9431020C9431020C943102E4
:1000D0000C9431020C9431020C9431020C943102D4
:1000E0000C9431020C94F7020C94600E0C946A0488
:1000F0000C945D0E0C94E7060C94DC020C94CE027A
:100100000C942B120C94F7060C949F240C94F3027D
:100110000C9454240C94E5220C940A210C94D730AE
:100120000C940F040C9409030C943E0F0C94560489
:100130000C9447040C9426090C94E0020C94D80209
:100140000C940A070C9490200C943E070C948302A4
:100150000C94ED020C944E050C9405030C941F0BAB
:100160000C9487020C940E040C94630E0C9495125C
:100170000C94FD040C9450020C9413040C940E0384
:100180000C9422090C94A8240C94790D0C9411075A
:100190000C9410240C9464020C942A090C94E90227
:1001A0000C94E8060C9470020C9413030C94D40283
:1001B0000C947E0D0C9401030C940D040C94E40D2E
:1001C0000C940F030C94B0040C94FB020C94E30207
:1001D0000C9478040C943D0F0C947C0D0C946021CD
:1001E00048483A4D4D20414D002A002A2A2A2A2A01
:1001F0002A2A2A2A2A2A2A2A2A2A2A2A2A2A2A0089
:100200005F5F5F5F5F5F00456E7465722050617372
:1002100073776F72643A002A2A2A2A2A2A2A2A2AFB
:100220002A2A2A2A2A2A2A2A2A2A2A002376002A3D
:100230005E002D0030002D005F005F005F5F5F00FB
:1002400050726573732027302720696620646F6EB3
:10025000652E00202020202020636F6E74696E754B
:1002600065002020507265737320616E79206B6584
:100270007920746F004D4F4E4441592B2B20536D04
:1002800061727421204C454473002A2A2A2A2A2AA2
:100290002A2A2A2A2A2A2A2A2A2A2A2A2A2A000012
:1002A000002100240027002A002D00300033000127
:1002B000010000040107010A0100002200250028B6
:1002C000002B002E0031003400020100000501085F
:1002D000010B01000020002300260029002C002F24
:1002E00000320000010000030106010901050505B7
:1002F00005070508080808020202020A0A0808049D
:1003000004040401010101010101010303030303CA
:10031000030303040707070C0C0C0C0C0C0C0C0259
:1003200002020206060606060606060B0B0B0B0B60
:100330000B0B0B0102102020080810204010204059
:100340008002010201080402010102040810204099
:1003500080804020100804020180040201804020B7
:1003600010080402010804020101020408102040E0
:1003700080010204081020408000000A0B02090CD2
:100380000D0E08070304010000000000000000003B
:10039000000000000000000000000000000000005D
:1003A000000000000012111000000000000000001A
:1003B00000000000000000000000000000000052EB
:1003C0003A205F5F5F20473A205F5F5F20423A201C
:1003D0005F5F5F004E756D626572206F66204C45F1
:1003E00044733A205F5F5F00523A205F5F5F2047AF
:1003F0003A205F5F5F20423A205F5F5F0000D730A6
:1004000011241FBECFEFD1E2DEBFCDBF00E00CBF95
:1004100025E1A6E1B0E101C01D92AD31B207E1F7DF
:1004200010E1A0E0B2E0EEEDF1E700E00BBF02C0AA
:1004300007900D92A631B107D9F711E0C0E0D2E0E4
:1004400000E006C021970109802FFE010E94A4361A
:10045000CF3FD10780E00807A9F70E94A1310C9493
:10046000ED380C94000010923B1110923C11E09179
:100470003D11F0913E113197EA30F10508F047C087
:100480008827EA5BFD4F8F4F0C94A436500264021C
:1004900070025002640270028702870287028302A0
:1004A000EBE3F1E11782148215821682349681E122
:1004B000E737F807B9F7EBE7F1E189E991E1119244
:1004C0008E179F07E1F70895EBE3F1E1178214829D
:1004D00015821682349681E1E33BF807B9F7089557
:1004E000EBE3F1E11782148215821682349681E1E2
:1004F000E737F807B9F7EBE7F1E1119281E1EA3864
:10050000F807D9F7089510923F11109240110895FD
:1005100020E0DC0160FF03C001C02D932D936250E9
:10052000E0F77040D0F70895CF93DF93C091E213C6
:10053000D091E313209789F08A819B81009749F03D
:100540002D853E85B901660F771F620F731F0E94CC
:1005500088020C80DD81C02DEDCFDF91CF91089511
:100560008150823108F05AC0E82FF0E08827E45427
:10057000FD4F8F4F0C94A436DC02E002CE02D40271
:10058000D8020E03E302E902ED02F302F702FB02D6
:10059000010305030E0309030F0313038091800079
:1005A0008F77809380000895809180008F7DF9CFB0
:1005B00080918000877FF5CF84B58F7784BD0895C3
:1005C00084B58F7DFBCF8091B0008F778093B00092
:1005D00008958091B0008F7DF9CF809190008F7742
:1005E000809390000895809190008F7DF9CF809145
:1005F0009000877FF5CF8091A0008F778093A00037
:1006000008958091A0008F7DF9CF8091A000877F11
:10061000F5CF809120018F778093200108958091FC
:1006200020018F7DF9CF80912001877FF5CFCF9377
:10063000DF93282F30E0F901E758FC4F8491F9014E
:10064000ED5CFC4FD491F901E351FD4FC491CC23F3
:10065000A1F081110E94B002EC2FF0E0EE0FFF1F1D
:10066000ED52FD4FA591B491EC91ED2381E090E026
:1006700009F480E0DF91CF91089580E090E0FACF17
:100680001F93CF93DF93282F30E0F901E758FC4FF9
:100690008491F901ED5CFC4FD491F901E351FD4FD8
:1006A000C491CC23A9F0162F81110E94B002EC2F27
:1006B000F0E0EE0FFF1FE754FD4FA591B4918FB707
:1006C000F894EC91111108C0D095DE23DC938FBF14
:1006D000DF91CF911F910895DE2BF8CFCF93DF9359
:1006E00090E0FC01ED5CFC4F249183519D4FFC0197
:1006F00084918823C9F090E0880F991FFC01E1568E
:10070000FD4FA591B491FC01E754FD4FC591D491E3
:1007100061110DC09FB7F8948C91209582238C9322
:100720008881282328839FBFDF91CF91089562306D
:1007300051F49FB7F8943C91822F809583238C933A
:10074000E8812E2BEFCF8FB7F894EC912E2B2C93C2
:100750008FBFEACF3FB7F89480912E1190912F115F
:10076000A0913011B091311126B5A89B05C02F3F43
:1007700019F00196A11DB11D3FBFBA2FA92F982FC7
:100780008827BC01CD01620F711D811D911D42E0C2
:10079000660F771F881F991F4A95D1F708958F928A
:1007A0009F92AF92BF92CF92DF92EF92FF924B0156
:1007B0005C010E94AA036B017C010E94AA036C19D0
:1007C0007D098E099F09683E734081059105A8F354
:1007D00021E0821A9108A108B10888EEC80E83E0D2
:1007E000D81EE11CF11C81149104A104B10429F765
:1007F000FF90EF90DF90CF90BF90AF909F908F9041
:1008000008952FB7F89460912A1170912B1180915F
:100810002C1190912D112FBF089508950895FC017A
:10082000848590E00895AF92BF92CF92DF92EF92CD
:10083000FF920F931F93CF93DF936C017B018B018A
:10084000040F151FEB015E01AE18BF08C017D107DA
:1008500059F06991D601ED91FC910190F081E02D64
:10086000C6011995892B79F7C501DF91CF911F91A9
:100870000F91FF90EF90DF90CF90BF90AF900895D1
:10088000FB0144815581608171810C941304FC014A
:10089000538D448D252F30E0842F90E0821B930BE5
:1008A000541710F0CF96089501970895FC01918D8B
:1008B000828D981761F0A28DAE0FBF2FB11D5D968E
:1008C0008C91928D9F5F9F73928F90E008958FEF30
:1008D0009FEF0895FC01918D828D981731F0828DE4
:1008E000E80FF11D858D90E008958FEF9FEF08953B
:1008F000FC01918D228D892F90E0805C9F4F821B9F
:1009000091098F739927089588EE93E10E947804E6
:1009100021E0892B09F420E0822F0895FC01A48DA9
:10092000A80FB92FB11DA35ABF4F2C91848D90E011
:1009300001968F739927848FA689B7892C93A089F4
:10094000B1898C91837080648C93938D848D98137E
:1009500006C00288F389E02D80818F7D8083089511
:10096000EF92FF920F931F93CF93DF93EC0181E0FF
:10097000888F9B8D8C8D98131AC0E889F9898081A6
:1009800085FF15C09FB7F894EE89FF896083E889D9
:10099000F98980818370806480839FBF81E090E0CB
:1009A000DF91CF911F910F91FF90EF900895F62E58
:1009B0000B8D10E00F5F1F4F0F731127E02E8C8DF2
:1009C0008E110CC00FB607FCFACFE889F989808137
:1009D00085FFF5CFCE010E948E04F1CFEB8DEC0F99
:1009E000FD2FF11DE35AFF4FF0829FB7F8940B8F54
:1009F000EA89FB8980818062CFCFCF93DF93EC01BE
:100A0000888D8823B9F0AA89BB89E889F9898C91F6
:100A100085FD03C0808186FD0DC00FB607FCF7CFB2
:100A20008C9185FFF2CF808185FFEDCFCE010E94B2
:100A30008E04E9CFDF91CF91089580E090E0892B7B
:100A400029F00E94840481110E94000080E090E05F
:100A5000892B49F080E090E0892B29F00E9400006A
:100A600081110E94000080E090E0892B49F080E035
:100A700090E0892B29F00E94000081110E94000063
:100A800080E090E0892B49F080E090E0892B29F00C
:100A90000E94000081110C940000089581E090E014
:100AA00008954F925F926F927F928F929F92AF9232
:100AB000BF92CF92DF92EF92FF920F931F93CF934B
:100AC000DF9300D0CDB7DEB76A0119821A821B828C
:100AD0008823C9F18B01E1E0F0E0482E512C712C04
:100AE000612CD8012D918D01222349F17F01B1E0C4
:100AF000EB1AF108D601AE0DBF1D8C908820F9F0DD
:100B000030E050E040E02F5F3F4F4F4F5F4FC30159
:100B1000B2010E942B369B01AC01912CB12CA12C6F
:100B2000C501B4016F5F7F4F8F4F9F4F0E942B36DF
:100B3000A1E0B0E0AC0FBD1FAE0DBF1D8C93319690
:100B4000E430F10571F669817A818B810F900F9005
:100B50000F90DF91CF911F910F91FF90EF90DF9059
:100B6000CF90BF90AF909F908F907F906F905F904D
:100B70004F900895CF92DF92EF92FF920F931F93C1
:100B8000CF93DF93F090851480918814909189140D
:100B9000A0918A14B0918B14892B8A2B8B2BD9F0BE
:100BA0000E94AA030091E4131091E5132091E6132B
:100BB0003091E713601B710B820B930B009188142B
:100BC0001091891420918A1430918B146017710749
:100BD00082079307C8F20E94AA036093E4137093FC
:100BE000E5138093E6139093E713E0919014F0914E
:100BF0009114309759F040918C1450918D1460915C
:100C00008E1470918F148F2D1995F82EC091E213C8
:100C1000D091E313209721F1EC8480918614909178
:100C200087148436910508F41C86E881F981C28016
:100C3000D380AE01475F5F4FBE016A5F7F4F8F2D4C
:100C40000E9451058B01282F4D855E856A817B812D
:100C5000CE01F6011995EC860C80DD81C02DDACF2E
:100C60008091E0139091E113EC012196D093E11370
:100C7000C093E0134997E4F10E9401040091DC1352
:100C80001091DD132091DE133091DF136B017C0195
:100C9000C01AD10AE20AF30AA7019601211531050B
:100CA0004105510521F421E030E040E050E088EEBC
:100CB00093E0C89FB001C99F700DD89F700D11249B
:100CC000072E000C880B990B0E9463363093871413
:100CD000209386141092E1131092E0130E940104F5
:100CE0006093DC137093DD138093DE139093DF1316
:100CF000DF91CF911F910F91FF90EF90DF90CF90F8
:100D000008952091B510260F3327331F2132310566
:100D1000ECF42091D910FC0190E080E0243069F0DF
:100D200082E00895A091B5102191AC014B565F4E21
:100D3000A40FB52FB11D2C930196861798F38091BF
:100D4000B510680F6093B51080E0089581E00895B4
:100D50001092D91081E08093DB101092DA1061E0DC
:100D600084E10E94400361E085E10E944003E9EBD9
:100D7000F0E080818E7F808380818D7F808388E416
:100D80008093B80085E48093BC000895CF93DF93EF
:100D900091E0909394108823B9F0C091B800D0915D
:100DA000BA008091BC008A7B8093BC0060E084E143
:100DB0000E94400360E085E10E9440030E94A80673
:100DC000D093BA00C093B800DF91CF9108950895F1
:100DD000E091281180912711E81730F4F0E0E159F3
:100DE000FF4E808190E008958FEF9FEF08959091DE
:100DF0002811809127112FEF3FEF981748F4E92F22
:100E0000F0E0E159FF4E208130E09F5F9093281180
:100E1000C90108958091271190912811891B990B80
:100E20000895CF92DF92EF92FF920F931F93CF938B
:100E3000DF937C01CB018A0120916E10222389F07F
:100E4000EB016B01C40ED51ECC15DD0569F069916F
:100E5000D701ED91FC910190F081E02DC70119952A
:100E6000F3CF642F0E948106C801DF91CF911F91BB
:100E70000F91FF90EF90DF90CF900895CF93DF9385
:100E80001F92CDB7DEB7698320916E102223F9F04F
:100E900020912511203258F021E030E0FC0133830D
:100EA000228390E080E00F90DF91CF9108958091B0
:100EB0002611E82FF0E0E25BFF4E998190838F5F6F
:100EC000809326118093251181E090E0ECCF61E0C2
:100ED000CE0101960E948106F7CFCF92DF92EF926A
:100EE000FF920F931F93CF93DF93FC01C48121E006
:100EF00020936E10C0934D10109226111092251160
:100F00008385682B82E994E10E943E07D0912511E8
:100F1000D13208F092C00E94AA036B017C0180913B
:100F2000D910811165C082E08093D91081E080934F
:100F3000DB108FEF8093D8101092FD10D093FC102F
:100F4000AEE4B0E1ECEDF0E180E0D81385C01092A2
:100F5000FE108091FE10CC0FC82BC093FE10809124
:100F6000DA10813009F07CC01092DA100E94AA03D6
:100F70006B017C018091FE108093BB0080919010EA
:100F800090919110A0919210B0919310892B8A2B7F
:100F90008B2B99F00E94AA03009190101091911050
:100FA00020919210309193106C197D098E099F0940
:100FB0000617170728073907E0F18091BC0083FD69
:100FC000D9CF85EC8093BC000E94AA036B017C0101
:100FD0008091D910823009F445C08091D8108F3F9C
:100FE00061F18091D810803241F18091D81025C0F4
:100FF0008091901090919110A0919210B0919310C7
:10100000892B8A2B8B2B09F48ACF0E94AA0300918B
:1010100090101091911020919210309193106C19B2
:101020007D098E099F09061717072807390708F059
:1010300076CF80918F100E94C606109226111092D2
:10104000251110926E10DF91CF911F910F91FF909B
:10105000EF90DF90CF9008959D9191938F5F75CF22
:1010600085EEB0CF8091901090919110A091921048
:10107000B0919310892B8A2B8B2B09F4A9CF0E9456
:10108000AA0300919010109191102091921030912C
:1010900093106C197D098E099F09061717072807F9
:1010A000390708F095CFC5CFCF93DF93DC0126E059
:1010B000629FA00DB11D112490965C934E935F9793
:1010C00021E091962C939197FC01E359FF4F0190F9
:1010D000F081E02DEC01C459DF4F2881222341F03B
:1010E000309719F0DC01662329F0DF91CF91089544
:1010F0003097D9F35C968C91DF91CF911994CF9270
:10110000DF92EF92FF920F931F93CF93DF93EC0147
:10111000162F042FFC0186E0689FE00DF11D1124BD
:1011200011A2878D90A18130910509F180F0823064
:10113000910509F443C0039709F445C0DF91CF91AD
:101140001F910F91FF90EF90DF90CF90089544236F
:10115000A9F341E050E0CE010E9454080E9401042E
:10116000C85ADF4F688379838A839B83E7CF0E94C5
:101170000104FE01E85AFF4FC080D180E280F38075
:10118000AB01BC014C195D096E097F097296808123
:101190009181B0E0A0E084179507A607B70770F427
:1011A00042E050E0612FCE01DF91CF911F910F916E
:1011B000FF90EF90DF90CF900C94540843E050E004
:1011C0000111BCCFEFCF50E040E0ECCF8F929F9267
:1011D000AF92BF92CF92DF92EF92FF92CF93DF93C5
:1011E000EFEFE60FEC01C12CD12C7601EF3FE9F0D7
:1011F0008990912CB12CA12CF0E061E070E080E0AE
:1012000090E0FE1741F0AAE0B0E09B01AC010E9423
:101210000335FF5FF6CFA50194010E942B36C60E61
:10122000D71EE81EF91EE150E1CFC701B601DF91DC
:10123000CF91FF90EF90DF90CF90BF90AF909F90B5
:101240008F900895862F642F0C946E03862F642F41
:101250000C944003862F0C9417032F923F924F92C9
:101260005F926F927F928F929F92AF92BF92CF9236
:10127000DF92EF92FF920F931F93CF93DF93CDB73F
:10128000DEB72C970FB6F894DEBF0FBECDBF9C879C
:101290008B8784599F4F9A83898381E0A981BA8182
:1012A0008C930E940104EB85FC85E45AFF4FFC837C
:1012B000EB830081118122813381AB01BC01401B92
:1012C000510B620B730BEB85FC85E859FF4F808156
:1012D0009181B0E0A0E084179507A607B70708F052
:1012E00037C110E0CB84DC84F6E6CF0ED11CEB8452
:1012F000FC8422E6E20EF11CD6018C91181758F4FA
:10130000D701ED91FC91E10FF11D62E080810E9417
:101310006E031F5FF1CF312C4B845C84B7E64B0E1C
:10132000511CEB84FC84E4E6EE0EF11C812C912C24
:10133000540183942B853C852E593F4F3A8729874A
:10134000D2018C91381608F063C0032D10E0D7014C
:10135000ED91FC91E00FF11F61E080810E946E032E
:10136000D701ED91FC91E00FF11F60E080810E94B8
:101370004003D501C401032C04C0880F991FAA1F84
:10138000BB1F0A94D2F79E838D83FC01E095F095F4
:10139000F887EF83212CD6018C91281620F5622C3A
:1013A000712CA985BA85ED91FC91E60DF71D808120
:1013B0000E941703660C771CEB85FC85E60DF71D74
:1013C000892B51F4808591852D813E81822B932B31
:1013D000918780872394DFCF80859185AF81B88501
:1013E0008A239B23F5CFD701ED91FC91E00FF11FEC
:1013F00061E080810E944003F70180819181080FA4
:10140000191F60E0D8018C910E946E03339498CF2D
:101410000B851C85C801CC9678012FEF3FEFF701B3
:10142000478D50A1452B21F4148E368F258F11A2A4
:10143000F6E0EF0EF11CE816F90689F7A12C96E00C
:10144000392E8B849C8420E6820E911CD6018C91CF
:10145000A81608F05AC0B12C6A2C712CB4E06B0E9F
:10146000711C660C771CEB85FC856E0E7F1ED2010D
:101470008C91B81608F047C0F301408151810B2CC4
:1014800002C0569547950A94E2F7A89EC001112420
:101490008B0D911DEB85FC8560E0258D368D8217C7
:1014A000930709F473C06F5F36966A30B1F740FF57
:1014B00028C0EB85FC8570E060E0248D21111BC005
:1014C000369EF001379EF00D11242B853C85E20FEE
:1014D000F31FD4012D913C91D901A80FB91F2C9174
:1014E000248F968F858F10A2178E41E08B859C8567
:1014F0000E947F0806C06F5F7F4F36966A30710585
:10150000E1F6B394B4CFA394A1CFD12CF80181A17B
:101510008111D82E0A5F1F4FE016F106B9F70E941D
:101520000104AB81BC816D937D938D939C93139744
:10153000DD2071F0EB85FC8581A1882349F0878D42
:1015400090A1019729F4848D811106C08FEF05C009
:10155000A981BA811C92FACF81532C960FB6F894C8
:10156000DEBF0FBECDBFDF91CF911F910F91FF90D6
:10157000EF90DF90CF90BF90AF909F908F907F9033
:101580006F905F904F903F902F9008954170AECF35
:10159000FC01848180FF05C0128A84FF0AC0638B2E
:1015A000089581FF03C02695228BF7CF82FFF5CFE8
:1015B000FBCF85FF04C04695460F438B02C086FDD6
:1015C000FBCF08950F931F93CF93DF9320912E109D
:1015D0002F5F322F377030932E1020FF2BC020E862
:1015E00031FD2064347009F02062205FFC01EC01C1
:1015F000239600E011E06785662329F070E0C801BA
:101600000E944F366F5F6187822F869F080E80E0B1
:10161000811D1124811110C01682662311F06150C2
:1016200061873196EC17FD0731F7DF91CF911F915C
:101630000F91089520E0D4CF81508683EECF4F9252
:101640005F927F928F929F92AF92BF92CF92DF92E2
:10165000EF92FF920F931F93CF93DF932C01EB0137
:101660000E94AA03F20126893789621B730B6A3034
:101670007105B0F3F8948A819B81181619060CF055
:10168000CDC1E881F9816EB1862E689484F83EB1AF
:101690003F7E3EB9D9848E812D2D281B822F2E832B
:1016A0004C85042E000C550BAA81BB817F85F888E0
:1016B000E9887F5FF394E3949F819884BA84AB8434
:1016C0001081C12C6C2D0C2D2C2D2081112788947C
:1016D0002111280F08F42FEF8195889470FD120FC7
:1016E0001795889471FD120F1795889472FD120F4B
:1016F0001795889473FD120F1795889474FD120F37
:101700001795889475FD120F1795889476FD120F22
:101710001795889477FD120F17958894622F711191
:10172000612F8D0D162F002C8EB800C000C017FF42
:101730003EB921816627889400C0002C3EB9211152
:10174000290F00C0002C8EB800C000C016FF3EB9A3
:1017500008F42FEF9195889400C0002C3EB9F0FC5E
:10176000620F00C0002C8EB800C000C015FF3EB94B
:1017700067958894F1FC620F00C0002C3EB9679514
:10178000889400C0002C8EB800C000C014FF3EB981
:10179000F2FC620F6795889400C0002C3EB9F3FC00
:1017A000620F00C0002C8EB800C000C013FF3EB90D
:1017B00067958894F4FC620F00C0002C3EB96795D1
:1017C000889400C0002C8EB800C000C012FF3EB943
:1017D000F5FC620F6795889400C0002C3EB9F6FCBA
:1017E000620F00C0002C8EB800C000C011FF3EB9CF
:1017F00067958894F7FC620F00C0002C3EB967958E
:10180000889400C0002C8EB800C000C010FF3EB904
:10181000122FF110162F9B0D00C0002C3EB900C0F6
:1018200000C0002C8EB800C000C017FF3EB9228156
:101830006627889400C0002C3EB92111290D00C0F4
:10184000002C8EB800C000C016FF3EB908F42FEF80
:10185000E40FF51F00C0002C3EB9E0FC620F00C091
:10186000002C8EB800C000C015FF3EB96795889463
:10187000E1FC620F00C0002C3EB96795889400C05F
:10188000002C8EB800C000C014FF3EB9E2FC620F0D
:101890006795889400C0002C3EB9E3FC620F00C03D
:1018A000002C8EB800C000C013FF3EB96795889425
:1018B000E4FC620F00C0002C3EB96795889400C01C
:1018C000002C8EB800C000C012FF3EB9E5FC620FCC
:1018D0006795889400C0002C3EB9E6FC620F00C0FA
:1018E000002C8EB800C000C011FF3EB967958894E7
:1018F000E7FC620F00C0002C3EB96795889400C0D9
:10190000002C8EB800C000C010FF3EB9122FE110AD
:10191000162F919400C0002C3EB99A0C00C000C054
:101920008EB800C000C017FF3EB92081662788949A
:1019300000C0002C3EB92111280F00C0002C8EB829
:1019400000C000C016FF3EB908F42FEF81958894BF
:1019500000C0002C3EB970FD620F00C0002C8EB894
:1019600000C000C015FF3EB96795889471FD620FF5
:1019700000C0002C3EB96795889400C0002C8EB83A
:1019800000C000C014FF3EB972FD620F67958894D5
:1019900000C0002C3EB973FD620F00C0002C8EB851
:1019A00000C000C013FF3EB96795889474FD620FB4
:1019B00000C0002C3EB96795889400C0002C8EB8FA
:1019C00000C000C012FF3EB975FD620F6795889494
:1019D00000C0002C3EB976FD620F00C0002C8EB80E
:1019E00000C000C011FF3EB96795889477FD620F73
:1019F00000C0002C3EB96795889400C0002C8EB8BA
:101A000000C000C010FF3EB9122F7111162F8D0DAE
:101A100000C0002C3EB9119709F086CEEA81FB8107
:101A20002EE130E0DF010E94AC3630E020E0A90179
:101A3000AAE9EA9F0E0E411DFA9F400D511D112487
:101A40004F0F511DDC01CB01840F951FA11DB11D4E
:101A5000893E43E09407A105B10508F434C0885ECF
:101A60009340A109B10942E0B695A795979587954E
:101A70004A95D1F747E0849F080E211D949F200DC1
:101A8000311D1124290F311D60912D1070E0860F3A
:101A9000971F820F931F40912A1150912B11609133
:101AA0002C1170912D11292F3327420F531F611DC7
:101AB000711D40932A1150932B1160932C11709338
:101AC0002D1180932D1078940E94AA03F201778B38
:101AD000668BDF91CF911F910F91FF90EF90DF9078
:101AE000CF90BF90AF909F908F907F905F904F90DE
:101AF000089580E991E008956C9A08956F927F921D
:101B00008F92CF92DF92EF92FF920F931F93CF931A
:101B1000DF93CDB7DEB762970FB6F894DEBF0FBE86
:101B2000CDBF8C016B017A01822FA801475F5F4F07
:101B3000B8016A5F7F4F0E9451053B01882ED80192
:101B40001C962C91C701F7FE04C0882799278E198F
:101B50009F09DA82C9829C838B839E838D83688AE6
:101B6000798A8A8A213049F5CE0101960E94E20ADB
:101B700083E08D871F861E86F7FE02C08DEF8D875E
:101B8000D801ED91FC910088F189E02DBE016F5FD5
:101B90007F4FC801199562960FB6F894DEBF0FBE4D
:101BA000CDBFDF91CF911F910F91FF90EF90DF900C
:101BB000CF908F907F906F9008951C861B861A8619
:101BC000198618861F82D4CFCF92DF92EF92FF92B0
:101BD0000F931F93CF93DF93CDB7DEB762970FB606
:101BE000F894DEBF0FBECDBF8C016B017A01822F4E
:101BF000A801475F5F4FB8016A5F7F4F0E945105A0
:101C00009B01482FD8011C968C91DA82C982FC82F4
:101C1000EB82FE82ED82288B398B4A8B813009F56D
:101C2000CE0101960E94E20A1D861F861E86D801FB
:101C3000ED91FC910088F189E02DBE016F5F7F4F2F
:101C4000C801199562960FB6F894DEBF0FBECDBFDE
:101C5000DF91CF911F910F91FF90EF90DF90CF9088
:101C600008951C861B861A86198618861F82DCCF6B
:101C70000895E8EEF2E091E090838FEF8383148281
:101C8000E6E1F2E0908383831482EDEBF3E090834E
:101C900083831482EFE8F4E0908383831482EFE17E
:101CA000F9E090838383148280932C10E4E1F8E0C0
:101CB0009083838314820C94330290E080E0089533
:101CC000FC0164870895FC01868597850895CF936C
:101CD000DF93EC0118820E9401046D837E838F8361
:101CE0009887DF91CF9108950F931F93CF9326E0AC
:101CF000FB013296DC01129601900D922A95E1F7D4
:101D000024EA3AE0FC013183208324E1FB01389688
:101D1000DC01189601900D922A95E1F79C01245E52
:101D20003F4FAB01445E5F4F8901045C1F4FC6E02B
:101D3000FA01D90101900D92CA95E1F72A5F3F4F50
:101D40004A5F5F4F2017310791F7FB01E85AFF4FB9
:101D50000081118122813381FC01E85AFF4F008309
:101D6000118322833383FB01E45AFF4F00811181E9
:101D700022813381FC01E45AFF4F008311832283C7
:101D80003383FB01E05AFF4F20813181FC01E05A8F
:101D9000FF4F31832083FB01EE59FF4F20813181BA
:101DA000FC01EE59FF4F31832083FB01EC59FF4FBB
:101DB00020813181FC01EC59FF4F31832083329621
:101DC000DB01AA59BF4F2D913C9131832083FB0148
:101DD000E859FF4F20813181FC01E859FF4F3183E1
:101DE0002083FB01E659FF4F20813181FC01E65938
:101DF000FF4F31832083FB01E459FF4F2081FC0119
:101E0000E459FF4F208363597F4FFB0120813181CB
:101E100083599F4FFC0131832083CF911F910F91F4
:101E20000895FC01DB0112968D919C911397938389
:101E3000828388E99AE09183808314968C91149729
:101E4000848315968C911597858316968C91169799
:101E5000868317968C911797878318968C9118977D
:101E6000808719968C91199781871A968C911A9769
:101E700082871B968C9183870895089590E080E077
:101E80000895CF93DF93FC0101900020E9F731978B
:101E9000AF01481B590BBC0188EE93E10E9413046B
:101EA000EC0142E050E06DEB7AE088EE93E10E94B5
:101EB00013048C0F9D1FDF91CF9108954F925F9275
:101EC0006F927F929F92AF92BF92CF92DF92EF92EA
:101ED000FF920F931F93CF93DF93CDB7DEB7E097B9
:101EE0000FB6F894DEBF0FBECDBF982EF62E8A0136
:101EF000462F50E088E0BE016F5F7F4F5B01DB0142
:101F0000E82F1D92EA95E9F7FE013996DF01682F67
:101F10001D926A95E9F73896DF01682F1D926A9540
:101F2000E9F73896DF01682F1D926A95E9F7389630
:101F3000DF01682F1D926A95E9F73896DF011D923F
:101F40008A95E9F7CA01BC01641B750B82179307D8
:101F500018F4840F951FF7CF261B370BB90190E0BB
:101F600080E00E94E4332B013C016F2D70E090E093
:101F700080E00E94E4339B01AC01C301B2010E94E6
:101F80008A356B017C01B1E09B1661F0E2E09E16A0
:101F900009F4AFC080EC9AE00E94410FC12CD12C13
:101FA000760140C02BEA3AEA4AEA5EE30E94DF3358
:101FB00087FF12C08FEF8A838D8388E0F501A5E447
:101FC000B0E101900D928A95E1F720E030E040E425
:101FD00050E4C701B60122C02BEA3AEA4AE25FE3C5
:101FE000C701B6010E94DF3387FF72C08FEF8B8776
:101FF0008E8788E0FE013996A5E4B0E101900D924C
:102000008A95E1F72BEA3AEA4AEA5EE3C701B601AC
:102010000E941D3520E030E040E450E40E94453449
:102020006B017C01B0904910609145106B19770BE2
:10203000072E000C880B990B0E94E633A70196012E
:102040000E9445340E94FC356B0DD8016C93B09012
:102050004A10609146106B19770B072E000C880B05
:10206000990B0E94E633A70196010E9445340E9415
:10207000FC356B0DF8016183B0904B1060914710F7
:102080006B19770B072E000C880B990B0E94E63317
:10209000A70196010E9445340E94FC356B0DD801C2
:1020A00012966C93E0960FB6F894DEBF0FBECDBFCC
:1020B000DF91CF911F910F91FF90EF90DF90CF9024
:1020C000BF90AF909F907F906F905F904F900895DA
:1020D0008FEF898B8F8B88E0FE017196A5E4B0E1CC
:1020E00001900D928A95E1F72BEA3AEA4AE25FE322
:1020F0008DCF2BEA3AEA4AEA5EE30E94DF3387FF9C
:1021000007C08FEF8B8F8D8F88E0FE01799657CFB8
:102110002BEA3AEA4AE25FE3C701B6010E94DF33E5
:1021200087FF07C08FEF8AA38FA388E0FE01B196D7
:1021300063CF8FEF89A78EA788E0FE01B996CECF37
:102140004F925F926F927F928F929F92AF92BF92C7
:10215000CF92DF92EF92FF920F931F93CF93DF9373
:10216000FC017B015A0122813381490184E0881AF4
:102170009108DF01A458BF4F7C90C72DD0E0CA0161
:10218000BE010E943B366C9F60016D9FD00C1124F4
:102190008E010C0D1D1DDF01A158BF4F93E0891664
:1021A000910408F0E4C06F5F6C93662309F4E0C00B
:1021B000862F90E0AC0141505109C49F6001C59F3A
:1021C000D00CD49FD00C1124769E80011124253090
:1021D000310509F4EDC081E026303105B1F57724F1
:1021E0007394EF01C258DF4F688170E030E020E067
:1021F000EE9750E040E02617370758F48991840F96
:10220000952F911D8A159B0508F4ADC02C938C0168
:102210006A018C9190E00196880F991F880F991F91
:10222000EF01C80FD91F04977110CEC0209709F491
:1022300087C0F3E08F16910408F482C08981F7010A
:1022400080838A8182837CC080E0AC91AE0FBF2FF7
:10225000B11DED01C05CDF4FC881CC2309F46CC017
:1022600094E0C99FE0011124CE0FDF1F8823F1F213
:10227000DF968C9084E0889E400111248E0E9F1E74
:10228000209709F45DC08114910409F459C0AC1879
:10229000BD08B50190E080E00E94E4332B013C01D1
:1022A0000C191D09B80190E080E00E94E4339B0105
:1022B000AC01C301B2010E948A352B013C01F4013B
:1022C00010816881611B770B072E000C880B990B1E
:1022D0000E94E633A30192010E9445340E94FC351E
:1022E000610FF7016083F40111816981611B770B34
:1022F000072E000C880B990B0E94E633A301920174
:102300000E9445340E94FC35610FF7016183F4019E
:1023100012816A81611B770B072E000C880B990BC9
:102320000E94E633A30192010E9445340E94FC35CD
:10233000610FF701628304C08BED9AE00E94410FA8
:10234000DF91CF911F910F91FF90EF90DF90CF9091
:10235000BF90AF909F908F907F906F905F904F90C5
:102360000895712C3ECF2F5F3F4FAC0144CF6C934B
:1023700023303105B1F388F42130310509F464CFFD
:102380002230310591F4CC91D0E02196CC0FDD1FA5
:10239000CC0FDD1FCE0FDF1F49CF2530310599F35C
:1023A00008F452CF26303105E1F282EF9AE0C6CF31
:1023B000EC012196CC0FDD1FCC0FDD1FCE0FDF1FF0
:1023C000880F991F880F991F4F01880E991E58CFAB
:1023D000FC01228133812A30310531F49A01AB01AD
:1023E000658184810C945E0F0C94A0104DE050E048
:1023F00007960C94DE380F931F93CF938C01C62F52
:102400000E946D076C2F6460C8010E946D076C2FDD
:102410006B7FC8010E946D0783EC90E00197F1F794
:10242000CF911F910F9108950F931F93CF93DF9337
:102430008C01D62FC42F607F642B0E94FB1180E19A
:10244000D89FB00111246C2BC801DF91CF911F914F
:102450000F910C94FB1141E00E94141281E090E076
:102460000895EF92FF920F931F93CF93DF938C0108
:102470007B01D0E0C0E0F701EC0FFD1F6491662303
:1024800031F041E0C8010E9414122196F4CFCE0130
:10249000DF91CF911F910F91FF90EF900895CF930F
:1024A000DF9300D000D01F921F92CDB7DEB728E097
:1024B000E7EFF9E0DE01119601900D922A95E1F720
:1024C000FC012085241710F44FEF420F50E0440F19
:1024D000551F21E030E02C0F3D1F420F531FFA0122
:1024E0002081620F606840E028960FB6F894DEBF46
:1024F0000FBECDBFDF91CF910C941412CF93DF9319
:10250000EC0140E06CE00E944F1260EE71E0CE0101
:10251000DF91CF910C94311240E061E00E941412DF
:102520008BE39FE10197F1F708950E94B938FC0110
:1025300080819181009711F00C944F370895EF92AC
:10254000FF920F931F93CF93DF93EC017B018A01DE
:1025500088819981009729F02A813B8124173507CA
:1025600088F4B8016F5F7F4F0E94D837009791F0D1
:10257000998388831B830A832C813D81232B11F44B
:10258000FC0110821D830C83B701888199810E9410
:10259000C7380CC088819981009711F00E944F378D
:1025A000198218821D821C821B821A82CE01DF9141
:1025B000CF911F910F91FF90EF900895EF92FF92AE
:1025C0000F931F93CF93DF9300D000D000D0CDB7EF
:1025D000DEB78C01862FF8011182108213821282DD
:1025E000158214824AE09E012F5F3F4F7901B901A5
:1025F00090E00E94B533F70101900020E9F7319790
:10260000AF014E195F09B701C8010E949F122996B8
:102610000FB6F894DEBF0FBECDBFDF91CF911F91F3
:102620000F91FF90EF900895CF93DF931F921F9229
:10263000CDB7DEB7FC01118210821382128215829F
:10264000148269831A82BE016F5F7F4FFB01019084
:102650000020E9F73197AF01461B570B0E949F12EC
:102660000F900F90DF91CF9108950F931F93CF9309
:10267000DF9300D000D0CDB7DEB78C016A30C8F44C
:10268000CE0101960E94DE12BE016F5F7F4FC8012E
:102690000E944004CE0101960E94971226960FB622
:1026A000F894DEBF0FBECDBFDF91CF911F910F9188
:1026B00008956A50653050F4E62FF0E0EB5CF54F7A
:1026C0006081CE0101960E941413DECF66E4F9CF3B
:1026D0004F925F926F927F929F92AF92BF92CF92F2
:1026E000DF92EF92FF920F931F93CF93DF93CDB7BB
:1026F000DEB72C970FB6F894DEBF0FBECDBF5C01DE
:102700006B01F42E122FDB011A968C911A975196B9
:102710009C915197E82FE91BFF0B1E171F0699F09C
:1027200094F0891B089F800D112494E1981B892F38
:1027300014969C91149791FF04C0869552968C93A1
:1027400002C092FDFBCFF60167856117D8F480893E
:102750008017C0F443899685490F069F600D1124A8
:102760009289890F680FC5010E944F12EE2009F46B
:1027700041C06AE372E0C5010E943112F60180890E
:102780008F5F808BD60150968C915097801708F4FC
:102790007FC050961C9250971F969C901F97E110F7
:1027A000B8C0602F043008F063E0C6010B96F60154
:1027B00026812F3F99F1FF24FA94F60EFC01412C5B
:1027C000512C32014FEFF41669F1219130E050E0C5
:1027D00040E0A0E061E070E080E090E0FA1609F4EB
:1027E0006DC0B4E0660F771F881F991FBA95D1F7A7
:1027F000AF5FF4CFD6015096EC91E33020F4EC0DAE
:10280000FD2DF11DF386B501CE0101960E94110F39
:102810006F2DCE0101960E943513B0CF0E94E608BD
:102820002B013C01D60119968C9190E0B0E0A0E01C
:1028300084159505A605B70508F44DC0F6018085F9
:1028400090E0B0E0A0E0481659066A067B0608F45E
:1028500042C093949786E189EF5FD6015196EC933D
:10286000519754968D919C915597009779F11A96AE
:102870002C912E1758F1E80FF92FF11D3197408256
:10288000F6018785811720F0178686858F5F8687FA
:102890002C960FB6F894DEBF0FBECDBFDF91CF915F
:1028A0001F910F91FF90EF90DF90CF90BF90AF906E
:1028B0009F907F906F905F904F9008950E942B366D
:1028C000460E571E681E791EFA947CCF80E09BE06E
:1028D0000E94410FD5CFF12CE12C602E712C0F5F9F
:1028E000F6018785E614F70458F643899685490F63
:1028F0006289089F600D11246E0DC5010E944F1260
:1029000068E372E0C5010E943112FFEFEF1AFF0A7F
:10291000E7CF93941F969C921F9751968C91519755
:102920008F5F51968C93ACCF8F929F92AF92BF9254
:10293000CF92DF92EF92FF920F931F93CF93DF938B
:10294000CDB7DEB7CF56D1090FB6F894DEBF0FBEB4
:10295000CDBF6C015A01922EF02ECE0101960E943D
:10296000740ECE0101960E942D09882E8FEF8812D9
:102970002BC00091BB03609130100F3F29F110E094
:10298000F501E60FF11DD801AC59B54F8C9182834A
:102990006F0D4E2DC6010E944F12F801E75DF54FF5
:1029A0006081CE0101960E941413BE016F5F7F4FBC
:1029B000C6010E944004CE0101960E9497128091A8
:1029C00030108F5F809330108092BB038091301065
:1029D0008330A0F063E0C50102960E94E608092D4D
:1029E00010E030E020E00617170728073907D0F07D
:1029F000F501618381E0808310923010C159DF4F6F
:102A00000FB6F894DEBF0FBECDBFDF91CF911F91FF
:102A10000F91FF90EF90DF90CF90BF90AF909F907D
:102A20008F9008954E2D6F2DC6010E944F126CE3BA
:102A300072E0C6010E943112DFCFCF92DF92EF9297
:102A40000F931F93CF93DF93CDB7DEB7CB57D10949
:102A50000FB6F894DEBF0FBECDBF6C01FA01102F88
:102A60008E2D42E0E42E811102C093E0E92E909178
:102A70004010911125C0CE0101960E94740EB6013E
:102A8000CE0180599F4F0E94110F03E02FEF40E4C9
:102A900050E1BE016F5F7F4FCE0180599F4F0E9472
:102AA0009414C558DF4F0FB6F894DEBF0FBECDBFEC
:102AB000DF91CF911F910F91EF90DF90CF9008950C
:102AC00090913B1091110FC0CE0101960E94740E9F
:102AD000B601CE0180599F4F0E94110F0AE02FEFDF
:102AE0004BE350E1D6CF9091361091110FC0CE013B
:102AF00001960E94740EB601CE0180599F4F0E942C
:102B0000110F01E12FEF46E350E1C3CF9091311057
:102B1000911113C0882389F0CE0101960E94740E92
:102B2000B601CE0180599F4F0E94110F83E0E82E1D
:102B300000E1212F41E350E1ACCF91E093839091EC
:102B40004110908390913C10918390913710928323
:102B5000882321F080913210F90180831092401077
:102B600010923B1010923610109231109ACFFC0147
:102B700011821082138212821582148261157105EE
:102B800051F0FB0101900020E9F73197AF01461B9E
:102B9000570B0C949F1208951F93CF93DF93CDB7DB
:102BA000DEB768970FB6F894DEBF0FBECDBF162F05
:102BB000BC01CE010D960E94110FCE010D960E9410
:102BC0008C1240E060E0CE010D960E944F1262EF41
:102BD00077E0CE0101960E94B715BE016F5F7F4F6F
:102BE000CE010D960E944004CE0101960E949712DC
:102BF000BE01635F7F4FCE0101960E94110FCE018F
:102C000001960E947E1241E060E0CE010D960E9486
:102C10004F126FEF77E0CE0101960E94B715BE010B
:102C20006F5F7F4FCE010D960E944004CE0101964A
:102C30000E949712112311F142E060E0CE010D963F
:102C40000E944F1268EE73E0CE010D960E94311281
:102C500043E060E0CE010D960E944F1264ED73E0F8
:102C6000CE010D960E94311268960FB6F894DEBF21
:102C70000FBECDBFDF91CF911F91089543E060E07B
:102C8000CE010D960E944F126FEB73E0E9CF8F9249
:102C90009F92AF92BF92CF92DF92EF92FF920F93EB
:102CA0001F93CF93DF93CDB7DEB72C970FB6F89471
:102CB000DEBF0FBECDBF7C014B015A0169010E94EE
:102CC0008C1240E060E0C7010E944F12B401CE01B7
:102CD00001960E94B715BE016F5F7F4FC7010E942A
:102CE0004004CE0101960E949712B701CE010196D1
:102CF0000E94110FCE0101960E947E1241E060E019
:102D0000C7010E944F12B501CE0101960E94B7156E
:102D1000BE016F5F7F4FC7010E944004CE01019644
:102D20000E94971242E060E0C7010E944F12B60174
:102D3000CE0101960E94B715BE016F5F7F4FC7019C
:102D40000E944004CE0101960E94971243E060E089
:102D5000C7010E944F12B801CE0101960E94B7151B
:102D6000BE016F5F7F4FC7010E944004CE010196F4
:102D70000E9497122C960FB6F894DEBF0FBECDBFFF
:102D8000DF91CF911F910F91FF90EF90DF90CF9047
:102D9000BF90AF909F908F900895CF92DF92EF9267
:102DA000FF920F931F93CF93DF93CDB7DEB72C978E
:102DB0000FB6F894DEBF0FBECDBF8C016B017A0158
:102DC0000E948C12B801CE0101960E94110FCE0113
:102DD00001960E947E1241E060E0C8010E944F12FD
:102DE00060E472E0C8010E94311242E060E0C80174
:102DF0000E944F12B601CE0101960E94B715BE0186
:102E00006F5F7F4FC8010E944004CE0101960E946F
:102E1000971243E060E0C8010E944F12B701CE0153
:102E200001960E94B715BE016F5F7F4FC8010E94D7
:102E30004004CE0101960E9497122C960FB6F8948A
:102E4000DEBF0FBECDBFDF91CF911F910F91FF90DD
:102E5000EF90DF90CF9008952F923F924F925F9224
:102E60006F927F928F929F92AF92BF92CF92DF929A
:102E7000EF92FF920F931F93CF93DF93CDB7DEB7FF
:102E8000CC5FD1090FB6F894DEBF0FBECDBF5C0199
:102E90006A01CE0180599F4F0E94740EB501CE0188
:102EA00085519F4F0E94110FD60116969C9116973F
:102EB00019968C919F3F49F48A3048F093E0F92E9F
:102EC000843638F482E0F82E04C08031D8F7FF242D
:102ED000F3946F2D70E06F5F7F4F84E190E00E946C
:102EE0004F364B01F601818131E043E0882311F038
:102EF00032E042E0D6011A968C91880D992D911DF1
:102F00000197B4010E944F36C650DF4F6883CA5FF5
:102F1000D040461708F42EC2C750DF4F8882C95FE1
:102F2000D040882DF89C800D112424E1281B461BDD
:102F3000632FC6010E94C80ABE0160597F4FFE017F
:102F400031965F01CF010E94740EC5010E942D09C8
:102F5000C550DF4F8883CB5FD0408F3F09F0F2C16F
:102F6000E091BA03EF3F09F4EDC180912F10D60133
:102F700016969C911697E9131FC0B1E0FB121AC078
:102F8000F60191859A30B0F0811114C0BE016551EF
:102F90007F4FC5010E94110F00E11BE025E23BE0DD
:102FA0004AE35BE0B6016A5E7F4FC5010E944716A7
:102FB000F0922F1010E00BC1882309F45CC1F0E0FF
:102FC000EC59F54F108119968C9119978950990BEE
:102FD000181719067CF7165F5496ED91FC915597DA
:102FE0003097A9F051968C91AF01D50190E09D01E9
:102FF0002A193B092817390770F4FA012191AF010A
:103000002D939F0121503109F9011082F0CF8EE4F8
:103010009BE00E94410FD6011E962D903D904D9051
:103020005C9051975196BC91C450DF4FB883CC5FF0
:10303000D040F60116861786108A118ACE01855176
:103040009F4F0E948C1240E060E0CE0185519F4F5F
:103050000E944F12B6016A5E7F4FCE0181529F4F90
:103060000E94B715BE0161527F4FCE0185519F4F1F
:103070000E944004CE0181529F4F0E949712BE01D0
:1030800065517F4FCE0181529F4F0E94110FCE019B
:1030900081529F4F0E947E12D60111968C918823F7
:1030A000E1F041E060E0CE0185519F4F0E944F1258
:1030B000B6016D5D7F4FCE0181529F4F0E94B715C3
:1030C000BE0161527F4FCE0185519F4F0E94400447
:1030D000CE0181529F4F0E949712C950DF4FB98293
:1030E000A882C75FD040C450DF4FB881CC5FD040CA
:1030F0006B2E712CC950DF4F88819981C75FD040FA
:103100008A199B098615970520F5C950DF4FE8817C
:10311000F981C75FD0407190C950DF4FF983E883D0
:10312000C75FD040BE0165517F4FCE0181529F4F96
:103130000E94110FE12C0F2DC750DF4F2881C95F6E
:10314000D040472DB601CE0181529F4F0E94681397
:10315000CACFD6011A968C9186151704E1F0D8F0E3
:10316000BE0165517F4FCE0181529F4F0E94110FCA
:10317000EE24E3940F2DC750DF4F2881C95FD04064
:1031800040E0B601CE0181529F4F0E946813BFEF0D
:103190006B1A7B0ADECFF60126863786408A518A73
:1031A00081890488F589E02D309759F0D50190E0A8
:1031B0009D012A193B092817390738F42D912193CD
:1031C000F7CF8AE69BE00E94410F10922F1081E01A
:1031D000F60121899285291708F080E0D60113961F
:1031E0002C91139731E02327822390912F1093275E
:1031F000892309F4A7C01E968C91C650DF4FB88171
:10320000CA5FD0408B1708F09DC0BE0165517F4F4B
:10321000CE0181529F4F0E94110FE12C0F2D282DBE
:10322000412FB601CE0181529F4F0E946813F601D3
:103230008281882309F486C0F1E0FF1283C0D601A1
:103240005496ED91FC915597309729F151968C91B8
:10325000AF01D50190E09D012A193B0928173907D4
:10326000F0F4FA012191AF012D939F012150310912
:10327000F9011082F0CF17968C9117978F3F31F09C
:10328000E81304C081E013968C9394CEF0E0EC59DF
:10329000F54F10819CCF8EE49BE00E94410FD60138
:1032A0001E962D903D904D905C90519751966C904C
:1032B000712CF60191898285981748F54501D60150
:1032C00051969C9151971A968C9194012A193B0919
:1032D0002615370570F7981760F7F40111914F0123
:1032E000BE0165517F4FCE0181529F4F0E94110F49
:1032F000E12C01E0C750DF4F2881C95FD040412F4A
:10330000B601CE0181529F4F0E946813D8CFD601DB
:1033100026863786408A518A0488F589E02D3097C1
:1033200069F051968C91D50190E09D012A193B09D5
:103330002817390738F42D912193F7CF8AE69BE0BF
:103340000E94410FC550DF4FB881CB5FD040B09392
:10335000BA03F60191898285981718F4838188232E
:1033600049F081E0D60113968C93F60116861786F4
:10337000108A118AC450DF4F0FB6F894DEBF0FBE1B
:10338000CDBFDF91CF911F910F91FF90EF90DF9014
:10339000CF90BF90AF909F908F907F906F905F90F5
:1033A0004F903F902F900895BF92CF92DF92EF926F
:1033B000FF920F931F93CF93DF93CDB7DEB7C25029
:1033C000D1400FB6F894DEBF0FBECDBF8C016A01AD
:1033D000CE0180599F4F0E94740EB801CE018950D2
:1033E0009F4F0E94110FCE0189509F4F0E948C1257
:1033F00040E060E0CE0189509F4F0E944F12B6011D
:103400006A5E7F4FCE0101960E94B715BE016F5FC5
:103410007F4FCE0189509F4F0E944004CE010196FC
:103420000E949712BE0169507F4FCE0101960E9403
:10343000110FCE0101960E947E12D60111968C9139
:103440008823D1F041E060E0CE0189509F4F0E9477
:103450004F12B6016D5D7F4FCE0101960E94B715E8
:10346000BE016F5F7F4FCE0189509F4F0E94400485
:10347000CE0101960E949712BE0160597F4FCE0186
:1034800001960E94740EBE0169507F4FCE01855196
:103490009F4F0E94110FF601968181859F3F39F45D
:1034A0008A3038F013E0843628F412E003C080310B
:1034B000E0F711E0612F70E06F5F7F4F84E190E0F3
:1034C0000E944F369B01D60111968C91E2E042E0BA
:1034D000811102C0E1E043E0D6011A968C91820F7F
:1034E000932F911D0197B9010E944F36F62E461772
:1034F00078F1B22E129F200D112484E1821B282F17
:10350000461B6E2FC6010E94C80AF60186858F15DC
:10351000C0F4918982859817A0F4BE0165517F4F50
:10352000CE0181529F4F0E94110FEE24E394012F90
:103530002B2D40E0B601CE0181529F4F0E946813AF
:10354000E4CFD6011E961D921D921D921C9251979A
:10355000CE5FDE4F0FB6F894DEBF0FBECDBFDF915A
:10356000CF911F910F91FF90EF90DF90CF90BF9080
:1035700008953F924F925F926F927F928F929F92A7
:10358000AF92BF92CF92DF92EF92FF920F931F9371
:10359000CF93DF93CDB7DEB7CE50D1400FB6F894BE
:1035A000DEBF0FBECDBF7C016B0149015A01043063
:1035B00048F40230D8F4013049F088E99BE00E94D9
:1035C000410F04C00830C8F00930B9F70091D41396
:1035D0001091D5130130110599F00230110509F44D
:1035E000F7C187EB9BE00E94410F20C081E090E093
:1035F0009093D5138093D413E9CF82E090E0F8CF75
:10360000B601CE0180599F4F0E94740EB701CE01C2
:1036100093950E94110F8091D6139091D71381300A
:10362000910589F1E0F0029709F4DAC0C25FDE4F3C
:103630000FB6F894DEBF0FBECDBFDF91CF911F91C3
:103640000F91FF90EF90DF90CF90BF90AF909F9041
:103650008F907F906F905F904F903F900895109261
:10366000EA0881E08093E7081092D913109237118D
:10367000109238111092391110923A111093D713F9
:103680000093D613D3CF8091E708882309F477C03D
:103690004DE050E069EA7BE08DEF98E00E94DE3873
:1036A0008FE0EFEFF9E0DE01A152BF4F01900D92E4
:1036B0008A95E1F786E0EFEDF0E0EC0FFD1F3F9615
:1036C000DF011D928A95E9F78091D8134AE0BE0187
:1036D000645F7E4F90E00E94AA3365E170E0CE0106
:1036E00081529F4F0E949F3304E110E0A801481BC4
:1036F000590BBE01645F7E4FCE0181529F4F0E94E5
:10370000CE3865E170E0CE0181529F4F0E949F3319
:10371000A801481B590B61EB7BE0CE0181529F4F02
:103720000E94CE3845E150E0BE0161527F4F8AE0F1
:1037300099E00E94DE3881ED93E19093FC0880933C
:10374000FB088091D8138093F108BE0160597F4F28
:10375000CE0101960E94740EBE017395CE018C506D
:103760009F4F0E94110F47EE58E0BE016F5F7F4FE1
:10377000CE018C509F4F0E94D4191092E708BE01D1
:1037800060597F4FCE0101960E94740EBE01739561
:10379000CE0181529F4F0E94110F47EE58E0BE01AB
:1037A0006F5F7F4FCE0181529F4F0E942C178091F7
:1037B000EA08882309F43ACF82E090E09093D71387
:1037C0008093D613BE017395CE0101960E94110F0E
:1037D0004FEB5AE0BA01CE0101960E94CD1626CFDA
:1037E0001091D913E12EF12CC501B4010E94E433EC
:1037F0004B015C01F701EF52FC4E608170E090E0FC
:1038000080E00E94E43320E030E048EC52E40E9483
:1038100045349B01AC01C501B4010E948A35209159
:103820003711309138114091391150913A110E945D
:103830001E3560933711709338118093391190932E
:103840003A110091D813C02ED12C20E030E040E88E
:103850005FE30E94DF33811112C010923711109282
:1038600038111092391110923A11BFEFEB1AFB0A7E
:10387000EC14FD040CF0A9C01F5F1093D9138091C4
:10388000D91390E09C012F5F3F4F0F5F2C153D0532
:103890000CF000E09695982F882797958795FC0166
:1038A000E55CFE4E7F01F0E80F9F80011124055C6E
:1038B0001E4EC152DF4F188219821A821B82CF5DC1
:1038C000D04019821A821B821C823BE3A32E33E173
:1038D000B32ED12CC12CA601BE0161527F4FC7016E
:1038E0000E94E811A601BE016F5F7F4FC8010E94D0
:1038F000E811CF51DF4F9880C15ED0404090371122
:10390000509038116090391170903A116B8169199B
:10391000770B072E000C880B990B0E94E633A3014E
:1039200092010E9445340E94FC35960EC052DF4F32
:103930008880C05ED0406A816819770B072E000C22
:10394000880B990B0E94E633A30192010E94453433
:103950000E94FC35860EC152DF4F3880CF5DD040CB
:1039600069816319770B072E000C880B990B0E9455
:10397000E633A30192010E9445340E94FC35360EC5
:10398000D5013C9211968C92119712969C92BFEFA2
:10399000CB1ADB0AE3E0AE0EB11CF2E3CF16D10482
:1039A00009F099CF0E94BA05E091E608EF3F49F08F
:1039B000F0E0EC59F54F8081811103C081E08093E4
:1039C000DB138FEF8093E60831CE1092D91357CFD7
:1039D000B601CE0101960E94740EB701CE01805946
:1039E0009F4F0E94110F22CEAF92BF92CF92DF92D3
:1039F000EF92FF920F931F93CF93DF93CDB7DEB774
:103A0000C359D1090FB6F894DEBF0FBECDBF6C010C
:103A10005B018A01DA018C91882309F46EC04DE0C4
:103A200050E06BEC7BE0C80146960E94DE3885E0F2
:103A3000E4E1FAE0DE01A059BF4F01900D928A95B2
:103A4000E1F780E1E0E7F0E0EC0FFD1F3596DF01E4
:103A50001D928A95E9F74AE0BE016F567F4F83E0D9
:103A600090E00E94AA3365E170E0CE0180599F4F3B
:103A70000E949F3324E1E22EF12CA701481B590B31
:103A8000BE016F567F4FCE0180599F4F0E94CE38A6
:103A900065E170E0CE0180599F4F0E949F33A701DE
:103AA000481B590B65ED7BE0CE0180599F4F0E946A
:103AB000CE3845E150E0BE0160597F4FC801839682
:103AC0000E94DE3888ED93E1F801958B848BB50177
:103AD000CE0101960E94740EB601CE018B579F4F06
:103AE0000E94110FA801BE016F5F7F4FCE018B575F
:103AF0009F4F0E94D419D8011C92B501CE010196A6
:103B00000E94740EB601CE0180599F4F0E94110F82
:103B1000A801BE016F5F7F4FCE0180599F4F0E9469
:103B20002C17CD56DF4F0FB6F894DEBF0FBECDBFBA
:103B3000DF91CF911F910F91FF90EF90DF90CF9089
:103B4000BF90AF9008959F92AF92BF92CF92DF92B5
:103B5000EF92FF920F931F93CF93DF93CDB7DEB712
:103B6000A5970FB6F894DEBF0FBECDBF8C017B01C9
:103B7000BC01CE0144960E94110FCE0144960E94D2
:103B80008C1240E060E0CE0144960E944F12B701D3
:103B9000695F7F4FCE0101960E94B715BE016F5F2E
:103BA0007F4FCE0144960E944004CE0101960E94B0
:103BB0009712BE016C5E7F4FCE0101960E94110FDD
:103BC000CE0101960E947E12F701268181E023300A
:103BD00008F480E0F7019181892391E0243008F412
:103BE00090E0892BF70182838823C1F042E062E1F3
:103BF000CE0144960E944F126FE272E0CE014496CD
:103C00000E94311243E062E1CE0144960E944F12BD
:103C10006CE272E0CE0144960E943112B801CE01EE
:103C200044960E94110F01E010E083E1982E5701A5
:103C3000F4E1AF0EB11CF70184819801280F311D0A
:103C400096819217130608F458C0C02ED82ED00EB5
:103C5000402F60E0CE0144960E944F126D2DCE01A0
:103C600080960E94DE12BE01605E7F4FCE014496B8
:103C70000E944004CE0180960E949712402F61E07E
:103C8000CE0144960E944F1266E372E0CE01449644
:103C90000E943112F701828140E1811101C043E1AC
:103CA00050E02D2D2150330B929EB001939E700D4C
:103CB00011246A0D7B1DCE0101960E94DE384C2D29
:103CC00062E0CE0144960E944F12BE016F5F7F4FAB
:103CD000CE0180960E94B715BE01605E7F4FCE0177
:103CE00044960E944004CE0180960E9497120F5F76
:103CF0001F4F0430110509F09ECFF701858190E038
:103D00000196348121E03817190609F020E081E09E
:103D10000430110508F080E0282B99F1F70181812A
:103D2000882379F1402F60E0CE0144960E944F1223
:103D300064E372E0CE0144960E943112402F61E0AC
:103D4000CE0144960E944F1262E372E0CE01449687
:103D50000E943112402F62E0CE0144960E944F1221
:103D600060EE7BE0CE0180960E94B715BE01605EDA
:103D70007F4FCE0144960E944004CE0180960E945F
:103D80009712A5960FB6F894DEBF0FBECDBFDF9198
:103D9000CF911F910F91FF90EF90DF90CF90BF9048
:103DA000AF909F900895DF92EF92FF920F931F9331
:103DB000CF93DF93CDB7DEB7CF56D1090FB6F894C6
:103DC000DEBF0FBECDBF7C018A01CE0101960E94ED
:103DD000740ECE0101960E942D09D82E8FEFD812B5
:103DE0000AC08091BC038F3F31F0F80156818517DE
:103DF00098F48F5F8383D092BC03C159DF4F0FB615
:103E0000F894DEBF0FBECDBFDF91CF911F910F9110
:103E1000FF90EF90DF9008953181332311F08A30C5
:103E200049F3893069F08B3091F0B701CE010196EA
:103E30000E94110FB801CE0101960E94A31DDBCF95
:103E4000F8018481882389F381508483EECFF801BF
:103E50002581948181E0291708F480E041E0533006
:103E600008F440E08423832311F49217F0F69F5F57
:103E7000F8019483DACF0F931F93CF93DF93CDB7DD
:103E8000DEB72C970FB6F894DEBF0FBECDBF8B0107
:103E9000BC01CE0101960E94110FB801CE0101961E
:103EA0000E94A31D2C960FB6F894DEBF0FBECDBFA7
:103EB000DF91CF911F910F910895EF92FF920F9391
:103EC0001F93CF93DF93CDB7DEB7CB57D1090FB692
:103ED000F894DEBF0FBECDBF8C017B0180911F091E
:103EE000882309F453C060EF7BE08FE199E00E94E2
:103EF000F61143E150E06CEF7BE083E399E00E9430
:103F0000DE3843E150E064E07CE086E499E00E9422
:103F1000DE3843E150E06EE07CE089E599E00E9404
:103F2000DE3843E150E06CE17CE08CE699E00E94F1
:103F3000DE3843E150E068E27CE08FE799E00E94E0
:103F4000DE3843E150E062E37CE082E999E00E94E0
:103F5000DE3843E150E062E47CE085EA99E00E94CB
:103F6000DE3843E150E060E57CE08BEC99E00E94B4
:103F7000DE38B801CE0101960E94110F6FE179E0A1
:103F8000CE0101960E943B1F10921F09B701CE017E
:103F900001960E94740EB801CE0180599F4F0E9475
:103FA000110F4FE159E0BE016F5F7F4FCE01805985
:103FB0009F4F0E94D31EC558DF4F0FB6F894DEBF47
:103FC0000FBECDBFDF91CF911F910F91FF90EF906A
:103FD0000895EF92FF920F931F93CF93DF93CDB786
:103FE000DEB7CB57D1090FB6F894DEBF0FBECDBFF9
:103FF0008C017B0180911408882399F167E57CE0AE
:1040000084E198E00E94F61143E150E06EE57CE027
:1040100088E298E00E94DE3843E150E068E67CE008
:104020008BE398E00E94DE3843E150E062E77CE0F9
:104030008EE498E00E94DE3843E150E060E87CE0E6
:1040400081E698E00E94DE38B801CE0101960E9418
:10405000110F64E178E0CE0101960E943B1F10929F
:104060001408B701CE0101960E94740EB801CE016A
:1040700080599F4F0E94110F44E158E0BE016F5FCD
:104080007F4FCE0180599F4F0E94D31EC558DF4FEE
:104090000FB6F894DEBF0FBECDBFDF91CF911F9159
:1040A0000F91FF90EF9008952F923F924F925F9261
:1040B0006F927F928F929F92AF92BF92CF92DF9238
:1040C000EF92FF920F931F93CF93DF93CDB7DEB79D
:1040D000CD50D1400FB6F894DEBF0FBECDBF8C01DE
:1040E0005B01F42E20913D1130913E11490144E0D5
:1040F000841A9108E0913511F0913611E830F105FC
:1041000008F0FCC68827E857FF4D8F4F0C94A43663
:1041100090200A216021E522102454249F24A82401
:1041200080ED97E0A0E0B0E08093E9079093EA0784
:10413000A093EB07B093EC0788EE97E00E94670E20
:1041400011E0109316071093DE061093A606109345
:104150006E0610936D061092E1061092A906109259
:1041600071068FEF809319071092B7111092B81152
:104170001092B9111092BA110E94330254E0F51650
:1041800009F445C05F1558F082E0F81659F193E044
:10419000F91671F18CE89CE00E94410F09C0A6E07D
:1041A00081E090E0AF15B0F3909336118093351114
:1041B000C35FDE4F0FB6F894DEBF0FBECDBFDF91F9
:1041C000CF911F910F91FF90EF90DF90CF90BF9014
:1041D000AF909F908F907F906F905F904F903F90A7
:1041E0002F9008951093B81182E38093B7110CC0FB
:1041F00082E08093B81189E18093B71180913D11DD
:1042000090913E11059781F386E090E0CDCF83E059
:1042100090E0CACF809116078823A9F169E97CE074
:1042200086E197E00E94F61183E1E1EAFCE0B3E069
:104230008B16910410F0E4EBFCE0DE011196019086
:104240000D928A95E1F743E150E0BE016F5F7F4F29
:104250008AE297E00E94DE3843E150E067EC7CE0C0
:104260008DE397E00E94DE38B801CE0180599F4F60
:104270000E94110F66E177E0CE0180599F4F0E94A6
:104280003B1F10921607B501CE0101960E94740ED5
:10429000B801CE0180599F4F0E94110F46E157E0AF
:1042A000BE016F5F7F4FCE0180599F4F0E94D31E8A
:1042B000809119078F3F09F47BCF82E090E074CFA3
:1042C0008091DE068823F1F0809119078130E1F1B9
:1042D000823009F4C9C0B501CE0101960E94740E66
:1042E000B801CE0184519F4F0E94110F4EED56E050
:1042F000BE016F5F7F4FCE0184519F4F0E94D41942
:104300001092DE06B501CE0101960E94740EB8012E
:10431000CE0180599F4F0E94110F4EED56E0BE0115
:104320006F5F7F4FCE0180599F4F0E942C17809165
:104330001907813009F403C1823009F42BC18FE4DD
:104340009DE00E94410F12C12230310589F048F4EE
:104350002130310509F465C08AEF9CE00E94410FCD
:1043600019C02430310509F45CC025303105A1F7AE
:104370004DE050E066ED7CE0CE0181529F4F0E94FF
:10438000DE3845E150E06CED7CE0CE0180599F4F76
:104390000E94DE386DE070E0CE0181529F4F0E9496
:1043A0009F334CE050E0481B590BE3E08E1691041C
:1043B00008F045C062E47EE0CE0181529F4F0E942A
:1043C000CE3865E170E0CE0180599F4F0E949F3347
:1043D00044E150E0481B590B65E27DE0CE01805975
:1043E0009F4F0E94CE381092E6068EE18093E7063A
:1043F0004DE050E0BE0161527F4F84EF96E00E9495
:10440000DE3845E150E0BE0160597F4F81E097E022
:104410000E94DE3888EB91E19093F3068093F206D8
:104420005ACF4DE050E067EE7CE0CE0181529F4FC5
:104430000E94DE3845E150E06EEE7CE0A6CF6CE2F3
:104440007DE0CE0181529F4F0E94CE3865E170E041
:10445000CE0180599F4F0E949F3344E150E0481B9A
:10446000590B62E37DE0BACF4DE050E069E37DE0B7
:1044700084EF96E00E94DE384AE0BE016C5F7E4F1A
:1044800081E090E00E94AA334AE0BE0168507F4F6D
:1044900082E390E00E94AA3345E150E061E47DE0D0
:1044A000CE0180599F4F0E94DE3865E170E0CE0159
:1044B00080599F4F0E949F3324E1E22EF12CA701E7
:1044C000481B590BBE016C5F7E4FCE0180599F4F38
:1044D0000E94CE3865E170E0CE0180599F4F0E9466
:1044E0009F33A701481B590B67E47DE0CE0180593B
:1044F0009F4F0E94CE3865E170E0CE0180599F4FFA
:104500000E949F33A701481B590BBE0168507F4F83
:10451000CE0180599F4F0E94CE3845E150E0BE0148
:1045200060597F4F81E097E00E94DE3881E0809300
:10453000E60682E38093E70687EB91E16DCF209159
:10454000B81130E050E040E0F3E08F16910430F411
:104550002150330B032E000C440B550B62E370E02B
:1045600080E090E00E9463362093B7118091E106CD
:10457000882309F41DCE80913D1190913E11823027
:10458000910509F441CED0F4019709F440CE8CE6B0
:104590009DE002CE2091B71130E050E040E062E3B0
:1045A00070E080E090E00E94633633E0831691046F
:1045B00018F02093B811DACF2F5FFBCF843091052C
:1045C00009F425CE059719F71FCE8091A6068823FA
:1045D00009F4DFC085E0E4E1FAE0DE01A059BF4F55
:1045E00001900D928A95E1F780E1E0E7F0E0EC0FB1
:1045F000FD1F3596DF011D928A95E9F723303105BD
:1046000079F040F42130310549F184E09EE00E94C8
:10461000410F21C02430310509F126303105A9F7B9
:104620004DE050E066EA7DE0CE0181529F4F0E944E
:10463000DE3865E170E0CE0180599F4F0E949F33C4
:1046400044E150E0481B590B6EEA7DE0CE018059F1
:104650009F4F0E94CE38AFE0FA2E41C08091B81132
:10466000803108F08FE04AE0BE0168507F4F90E053
:104670000E94AA334DE050E067EB7DE0CE0181520D
:104680009F4F0E94DE3865E170E0CE0180599F4F58
:104690000E949F33B4E1EB2EF12CA701481B590B6C
:1046A000BE0168507F4FCE0180599F4F0E94CE3887
:1046B00065E170E0CE0180599F4F0E949F33A701B2
:1046C000481B590B68EB7DE0CE0180599F4F0E943B
:1046D000CE38F090B811BFE0BF1508F4BCCF6DE044
:1046E00070E0CE0181529F4F0E949F334CE050E01A
:1046F000481B590BE3E08E16910408F072C06EEB74
:104700007DE0CE0181529F4F0E94CE3865E170E07E
:10471000CE0180599F4F0E949F3344E150E0481BD7
:10472000590B65E27DE0CE0180599F4F0E94CE3843
:104730004DE050E0BE0161527F4F8CEB96E00E944D
:10474000DE3845E150E0BE0160597F4F89EC96E0CC
:104750000E94DE38F092AF0689EB91E19093BB06A0
:104760008093BA06B501CE0101960E94740EB8017D
:10477000CE0184519F4F0E94110F46EA56E0BE01C0
:104780006F5F7F4FCE0184519F4F0E94D4191092CA
:10479000A606B501CE0101960E94740EB801CE01A5
:1047A00080599F4F0E94110F46EA56E0BE016F5F8D
:1047B0007F4FCE0180599F4F0E942C178091A906F0
:1047C000882309F4F5CC80913D1190913E118330FE
:1047D000910509F419CDD0F40197F9F088EC9DE02A
:1047E000DBCC63EC7DE0CE0181529F4F0E94CE383E
:1047F00065E170E0CE0180599F4F0E949F3344E1F4
:1048000050E0481B590B62E37DE08DCF8430910569
:1048100021F0069709F4F8CCE1CF84E090E0C4CC15
:1048200080916D068823B1F0B801CE0101960E94F7
:10483000110F0FEB1AE02FED3DE0A80162EF7DE0D4
:10484000CE0101960E94471610926D0688EE97E001
:104850000E94670E0E940104AB01BC018091ED072C
:104860009091EE07A091EF07B091F0070091E90752
:104870001091EA072091EB073091EC07800F911F10
:10488000A21FB31F21E0481759076A077B0708F4E6
:1048900020E02093E807481759076A077B0708F4C8
:1048A00087CC85E090E080CC80916E06882369F10A
:1048B0004DE050E062EF7DE084E896E00E94DE3853
:1048C0008091B911809377068BE791E190938306ED
:1048D000809382068091B81180937806B501CE014D
:1048E00001960E94740EB801CE0180599F4F0E941C
:1048F000110F4EE656E0BE016F5F7F4FCE0180592B
:104900009F4F0E94D41910926E06B501CE010196F8
:104910000E94740EB801CE0180599F4F0E94110F62
:104920004EE656E0BE016F5F7F4FCE0180599F4F2C
:104930000E942C1780917106811166CC39CC10929F
:1049400034110E9494020E94BA0587E090E02CCCBA
:10495000CE0180599F4F0E94740EB801CE0188503D
:104960009F4F0E94110F80913D1190913E118C013B
:10497000045011090330110508F0EAC22091BA1160
:10498000222309F4E5C23FEF320F069709F0B9C2BE
:1049900021E0C090BA11F4E0CF9E60011124A6017D
:1049A000415C5E4E6A01222341F054E0359F1001C4
:1049B0001124C101815C9E4E1C0180913D1190919A
:1049C0003E118330910539F086309105B1F4309174
:1049D000BA11332391F06091BA1170E0EBE7F1E185
:1049E00050E040E0912C812C4617570708F5319193
:1049F000830E911C4F5F5F4FF7CFB12C912C812C10
:104A0000D60113963C913111D8C08091F1078823CB
:104A100009F459C0B3E0FB1609F486C0BF1558F07D
:104A2000E2E0FE16E9F083E79EE00E94410F8DC0B0
:104A3000BB24B394E5CFF6E0FF15A8F34DE050E0BA
:104A40000330110508F0ADC06FE37EE0CE01815266
:104A50009F4F0E94DE3845E150E068E47EE071C07F
:104A60004DE050E065E17EE0CE0181529F4F0E9413
:104A7000DE3845E150E06CE17EE0CE0101960E9417
:104A8000DE384DE050E0BE0161527F4F82EF97E08B
:104A90000E94DE3845E150E0BE016F5F7F4F8FEF2F
:104AA00097E00E94DE38BE0168507F4FCE018451EE
:104AB0009F4F0E94110F6B2DCE0184519F4F0E947A
:104AC000CC151092F107BE0160597F4FCE010196BF
:104AD0000E94740EBE0168507F4FCE0181529F4FDD
:104AE0000E94110F02E310E0081919090F3F110588
:104AF00019F010F00FEF10E0EB2C27EB31E1A601DD
:104B0000BE016F5F7F4FCE0181529F4F0E941D15E6
:104B1000BB2009F44DCBE091BA11F0E0E558FE4E10
:104B20008091B711808344CB4DE050E06BE27EE092
:104B3000CE0181529F4F0E94DE3845E150E061E393
:104B40007EE0CE0101960E94DE388091BA1190E09D
:104B50004AE0BE016C5F7E4F01960E94AA3365E178
:104B600070E0CE0101960E949F3304E110E0A8019D
:104B7000481B590BBE016C5F7E4FCE0101960E940F
:104B8000CE3865E170E0CE0101960E949F33A80106
:104B9000481B590B65EB7BE0CE0101960E94CE3895
:104BA00070CF69E57EE0CE0181529F4F0E94DE38D2
:104BB00045E150E062E67EE0C4CF41E04093F1077A
:104BC000E090B7114E2D50E0A091BA11EA9E70010D
:104BD0001124EA2FF0E0BF016F5F7F4F0330110512
:104BE000C0F4AA2309F4AAC18330910569F0319772
:104BF000E49FD001E59FB00DF49FB00D1124570143
:104C00007D0186309105A1F45401A40EB51E7401F6
:104C10000FC0649F5001659FB00C749FB00C1124AD
:104C20008330910519F08630910511F4A111ECCF74
:104C30004091B9114617170681F07CF0AC01435042
:104C400051094230510508F4D0C08630910509F46D
:104C5000CCC041E08130910509F040E05091B8119D
:104C60005617170639F034F08230910521F031E003
:104C7000059709F030E0411103C0332309F4D2C095
:104C80008701000F111F0E0D1F1DF801E55CFC4E82
:104C9000222309F4ACC0055C1C4E4701C5018E19E6
:104CA0009F099C0150E040E0C65FDE4F28833983B6
:104CB0004A835B83CA50D1408A149B0408F0AAC07F
:104CC000B4016E197F0990E080E00E94E4332B016B
:104CD0003C01C65FDE4F688179818A819B81CA5021
:104CE000D1400E94E4339B01AC01C301B2010E9498
:104CF0008A352B013C01D1011296BC91C95FDE4F70
:104D0000B883C750D140F60162816B1B770B072E29
:104D1000000C880B990B0E94E633A30192010E94BC
:104D200045340E94FC35C95FDE4FF881C750D14041
:104D3000F60FC95FDE4FF883C750D140D1011196FD
:104D4000BC91C85FDE4FB883C850D140F601618185
:104D50006B1B770B072E000C880B990B0E94E63318
:104D6000A30192010E9445340E94FC35C85FDE4FCA
:104D7000F881C850D140F60FC85FDE4FF883C850A5
:104D8000D140D101BC91C75FDE4FB883C950D1403B
:104D9000F60160816B1B770B072E000C880B990BBB
:104DA0000E94E633A30192010E9445340E94FC3523
:104DB000C75FDE4FF881C950D1406F0FD8016C93A7
:104DC000C85FDE4FE881C850D1401196EC9311972F
:104DD000C95FDE4FF881C750D1401296FC932FEF88
:104DE000821A920A0D5F1F4F67CF432F37CFEA1405
:104DF000FB0480F4D60112968C91129711969C9127
:104E000011972C91208391838283BFEFEB1AFB0AC9
:104E10003396EDCF0E94BA058091BA118F5F8093CF
:104E2000BA11C6C980913C11811144C0C152DF4FF3
:104E3000188219821A821B82CF5DD0400BE313E1E6
:104E4000F12CE12CA701BE0161527F4F8BE391E170
:104E50000E94A010CF51DF4F8881C15ED040C05268
:104E6000DF4F9881C05ED040C152DF4F2881CF5DB7
:104E7000D040F801208391838283FFEFEF1AFF0A6D
:104E80000D5F1F4F22E3E216F104E1F60E94BA051E
:104E9000BE0168507F4FCE0101960E94110F4EE86F
:104EA0005EE063EA7EE0CE0101960E94CD1681E0CD
:104EB00080933C11BE0160597F4FCE0101960E9444
:104EC000740ECE0101960E942D098F3FA1F4E0914E
:104ED0006C06EF3F81F0F0E0EC59F54F90819111B5
:104EE00003C091E090933B1180936C0610923611B1
:104EF000109235115DC980936C065AC987EB9EE00C
:104F00004BC944E0249FC0011124DC01A15CBE4ECA
:104F10006D01B4E03B9F10011124F101E15CFE4EF4
:104F20001F0121E04ACDC090BA11F4E0CF9E60018C
:104F300011249601215C3E4E690114C0AA24A39459
:104F4000B12CF12CE12C8330910509F06CCE70CEA0
:104F50008330910571F040F4019728F78DEF9DE0C3
:104F60000E94410F20E029CD86309105E0F206979E
:104F7000A9F730E020E00DCDEF92FF921F93CF9381
:104F8000DF93CDB7DEB7CB57D1090FB6F894DEBFAC
:104F90000FBECDBF2FEF240F243020F526E030E0E8
:104FA000423031F024E030E0443011F025E030E0D0
:104FB00030933E1120933D11142F7C01CE010196B8
:104FC0000E94740EB701CE0180599F4F0E94110FAD
:104FD00042E0410FBE016F5F7F4FCE0180599F4F6E
:104FE0000E945420C558DF4F0FB6F894DEBF0FBEA5
:104FF000CDBFDF91CF911F91FF90EF900895EF9279
:10500000FF920F931F93CF93DF93CDB7DEB7CE50B0
:10501000D1400FB6F894DEBF0FBECDBF7C01142F78
:10502000473038F44230B8F4413039F08BE29FE039
:1050300055C0473091F14930C9F7C25FDE4F0FB616
:10504000F894DEBF0FBECDBFDF91CF911F910F91BE
:10505000FF90EF90089583E090E0443031F081E0DC
:1050600090E0463011F082E090E090933E11809302
:105070003D11CE0101960E94740EB701CE018059F8
:105080009F4F0E94110F412FBE016F5F7F4FCE01D6
:1050900080599F4F0E945420D0CF8AE090E0909397
:1050A0003E1180933D11CE0180599F4F0E94740E96
:1050B000B701CE0193950E94110F8091321190910A
:1050C00033118230910509F4D9C058F4009709F4DE
:1050D00078C0019709F488C08EE19FE00E94410FDB
:1050E000ACCF8330910509F460C10497A9F7809192
:1050F0003C11811145C0C152DF4F188219821A82BA
:105100001B82CF5DD0400BE313E1F12CE12C970122
:10511000AE0141525F4F6091401180913F110E945A
:105120005E0FCF51DF4F8881C15ED040C052DF4F4C
:105130009881C05ED040C152DF4F2881CF5DD04002
:10514000F801208391838283FFEFEF1AFF0A0D5F3E
:105150001F4F82E3E816F104D1F60E94BA05BE01A2
:105160007395CE0101960E94110F4EE85EE063EA4E
:105170007EE0CE0101960E94CD1681E080933C1125
:10518000BE0160597F4FCE0101960E94740ECE0180
:1051900001960E942D098F3F89F4E0916105EF3F50
:1051A00069F0F0E0EC59F54F9081911103C091E066
:1051B00090933B111092331110923211809361053C
:1051C0003CCF81E080939A0580936205109265053B
:1051D0008FEF80939D050E94330281E090E09093D1
:1051E00033118093321129CF80919A05882321F1C0
:1051F0006FEE7EE08AE995E00E94F61143E150E00F
:105200006BEF7EE08EEA95E00E94DE3843E150E0ED
:1052100063E07FE081EC95E00E94DE38BE0173958B
:10522000CE0101960E94110F6AE975E0CE01019648
:105230000E943B1F10929A05BE0160597F4FCE011C
:1052400001960E94740EBE017395CE0181529F4F4C
:105250000E94110F4AE955E0BE016F5F7F4FCE01FA
:1052600081529F4F0E94D31E80919D058F3F09F46C
:10527000E4CE80933F1182E090E0B1CF809162054F
:10528000882309F472C04DE050E06BE07FE088E7CE
:1052900095E00E94DE3885E0E4E1FAE0DE01A1520B
:1052A000BF4F01900D928A95E1F780E1EFEDF0E0BC
:1052B000EC0FFD1F3596DF011D928A95E9F74AE054
:1052C000BE01645F7E4F82E390E00E94AA3365E1F5
:1052D00070E0CE0181529F4F0E949F3304E110E0A5
:1052E000A801481B590BBE01645F7E4FCE0181525D
:1052F0009F4F0E94CE3865E170E0CE0181529F4FF2
:105300000E949F33A801481B590B67E17FE0CE0143
:1053100081529F4F0E94CE3845E150E0BE0161525C
:105320007F4F85E895E00E94DE3880E491E190931C
:10533000770580937605BE0160597F4FCE010196B7
:105340000E94740EBE017395CE018C509F4F0E9437
:10535000110F42E655E0BE016F5F7F4FCE018C50CA
:105360009F4F0E94D41910926205BE0160597F4F71
:10537000CE0101960E94740EBE017395CE0181523A
:105380009F4F0E94110F42E655E0BE016F5F7F4FB5
:10539000CE0181529F4F0E942C1780916505882372
:1053A00009F44BCE83E090E01ACF109234110E94A2
:1053B00094020E94BA0584E090E011CFEF92FF9230
:1053C0000F931F93CF93DF93CDB7DEB7CB57D109A0
:1053D0000FB6F894DEBF0FBECDBF8C017B0180916C
:1053E0008F04882399F16BE37FE08FE894E00E94BB
:1053F000F61143E150E065E47FE083EA94E00E9427
:10540000DE3843E150E061E57FE086EB94E00E9406
:10541000DE3843E150E06FE57FE089EC94E00E94E4
:10542000DE3843E150E06EE67FE08CED94E00E94D0
:10543000DE38B801CE0101960E94110F6FE874E0CA
:10544000CE0101960E943B1F10928F04B701CE013E
:1054500001960E94740EB801CE0180599F4F0E94A0
:10546000110F4FE854E0BE016F5F7F4FCE018059AE
:105470009F4F0E94D31EC558DF4F0FB6F894DEBF72
:105480000FBECDBFDF91CF911F910F91FF90EF9095
:105490000895EF92FF920F931F93CF93DF93CDB7B1
:1054A000DEB7CB57D1090FB6F894DEBF0FBECDBF24
:1054B0008C017B018091BD03882309F45BC06EE7FA
:1054C0007FE08DEB93E00E94F61143E150E06CEF3A
:1054D0007BE081ED93E00E94DE3843E150E066E836
:1054E0007FE084EE93E00E94DE3843E150E065E423
:1054F0007FE087EF93E00E94DE3843E150E062E90D
:105500007FE08AE094E00E94DE3843E150E06FE9FA
:105510007FE08DE194E00E94DE3843E150E06EEAE6
:105520007FE080E394E00E94DE3843E150E06EEBE0
:105530007FE083E494E00E94DE3843E150E066ECD3
:105540007FE086E594E00E94DE3843E150E060E5CC
:105550007CE089E694E00E94DE38B801CE01019635
:105560000E94110F6DEB73E0CE0101960E943B1F6C
:105570001092BD03B701CE0101960E94740EB801CE
:10558000CE0180599F4F0E94110F4DEB53E0BE0199
:105590006F5F7F4FCE0180599F4F0E94D31EC55829
:1055A000DF4F0FB6F894DEBF0FBECDBFDF91CF91B6
:1055B0001F910F91FF90EF900895CF92DF92EF929D
:1055C000FF920F931F93CF93DF93CDB7DEB7C65FE4
:1055D000D1090FB6F894DEBF0FBECDBF90912B104E
:1055E000992309F491C22091EB022F3F41F0792FCA
:1055F0002A3031F071E08091EE02821708F070E0FD
:10560000809119028F3F41F0692F8A3031F061E0BB
:1056100030911C02381708F060E08091C0038F3F82
:1056200041F0592F8A3031F051E03091C3033817DF
:1056300008F050E0809192048F3F41F0492F8A306A
:1056400031F041E030919504381708F040E0809146
:1056500022098F3F41F0392F8A3031F031E0E0915B
:105660002509E81708F030E0E0912C10E850F1E04F
:10567000E73F08F0F0E0E0911708EF3F39F0EA303B
:1056800031F091E080911A088E1708F090E02350D5
:1056900081E0243008F080E08F2B872B862B852B30
:1056A000842B832B09F491110E94390E8091EB0217
:1056B0008F3F09F0C1C06AEA74E1CE0180599F4F63
:1056C0000E94740E6EE974E1CE0185519F4F0E94D5
:1056D000110F8091E802882309F445C06FEC7FE048
:1056E00088EE92E00E94F61143E150E06AED7FE01F
:1056F0008CEF92E00E94DE3843E150E066E87CE007
:105700008FE093E00E94DE3843E150E061EE7FE0FD
:1057100082E293E00E94DE3843E150E066EE7FE0F3
:1057200085E393E00E94DE3843E150E06CEE7FE0D9
:1057300088E493E00E94DE3843E150E065EF7FE0CB
:105740008BE593E00E94DE38BE0165517F4FCE01AC
:1057500001960E94110F68EE72E0CE0101960E9440
:105760003B1F1092E802BE0160597F4FCE010196A7
:105770000E94740EBE0165517F4FCE0181529F4F32
:105780000E94110F48EE52E0BE016F5F7F4FCE01C5
:1057900081529F4F0E94D31E0E9401040091271046
:1057A000109128102091291030912A106B017C0152
:1057B000C01AD10AE20AF30AC0922310D092241030
:1057C000E0922510F09226100E94010460932710A9
:1057D000709328108093291090932A10809134118F
:1057E000882309F476C1009122096AEA74E1CE01A6
:1057F00001960E94740E6EE974E1CE0180599F4FAC
:105800000E94110FA7019601BE016F5F7F4FCE016D
:1058100080599F4F0E94B91ACA50DF4F0FB6F894B3
:10582000DEBF0FBECDBFDF91CF911F910F91FF90D3
:10583000EF90DF90CF9008958130F1F0823009F041
:10584000ABCF809117088F3F09F0A6CF6AEA74E1C9
:10585000CE0101960E94740E6EE974E1CE0180596A
:105860009F4F0E94110FBE016F5F7F4FCE01805985
:105870009F4F0E94E91F90CF909119029F3F09F01E
:1058800049C06AEA74E1CE0180599F4F0E94740EAC
:105890006EE974E1CE0185519F4F0E94110F8091F6
:1058A0001602882329F16CEF7FE086E192E00E94E6
:1058B000F61143E150E064E070E18AE292E00E9478
:1058C000DE3843E150E06BE070E18DE392E00E944E
:1058D000DE38BE0165517F4FCE0101960E94110F47
:1058E00066E172E0CE0101960E943B1F1092160203
:1058F000BE0160597F4FCE0101960E94740EBE0119
:1059000065517F4FCE0181529F4F0E94110F46E19A
:1059100052E03ACF9130F1F0923009F03DCF9091C2
:1059200022099F3F09F090C06AEA74E1CE01019616
:105930000E94740E6EE974E1CE0180599F4F0E945F
:10594000110FBE016F5F7F4FCE0180599F4F0E94A4
:105950005D1F22CF1091C0031F3FB1F46AEA74E1CA
:10596000CE0101960E94740E6EE974E1CE01805959
:105970009F4F0E94110FBE016F5F7F4FCE01805974
:105980009F4F0E94492A08CF1830E1F510919204E8
:105990001F3FB1F46AEA74E1CE0101960E94740ED1
:1059A0006EE974E1CE0180599F4F0E94110FBE0134
:1059B0006F5F7F4FCE0180599F4F0E94DE29ECCE52
:1059C0001A3009F4E9CE80913B11882321F08AE056
:1059D00080939204E1CE6AEA74E1CE0101960E94BE
:1059E000740E6EE974E1CE0180599F4F0E94110F31
:1059F000412FBE016F5F7F4FCE0180599F4F0E94A4
:105A0000BC27CACE1A3009F4C7CE80913B11882337
:105A100021F08AE08093C003BFCE6AEA74E1CE0130
:105A200001960E94740E6EE974E1CE0180599F4F79
:105A30000E94110F412FBE016F5F7F4FCE01805931
:105A40009F4F0E94FF27A8CE26E3E0E7F0E0EC0F8F
:105A5000FD1F3296DF011D922A95E9F7E1968FAF7F
:105A6000E197E2968FAFE29722E430E0E6963FAF0F
:105A70002EAFE6972FEFE7962FAFE797E8962FAF79
:105A8000E897E9968FAFE99723E0EA962FAFEA9778
:105A9000EB968FAFEB979330C9F46AEA74E1CE01CD
:105AA00001960E94740E6EE974E1CE0181529F4FFF
:105AB0000E94110FAE0140595F4FBE016F5F7F4FD3
:105AC000CE0181529F4F0E94F41C66CE8093D81362
:105AD00063CE8091DB13882309F49ECE1092DB13F2
