:100000000C9400020C9431020C9431020C943102D5
:100010000C9431020C9431020C9431020C94310294
:100020000C9431020C9431020C9431020C94310284
:100030000C9431020C9431020C9431020C94310274
:100040000C9431020C9431020C9431020C94310264
:100050000C9431020C9431020C9431020C949430C3
:100060000C9431020C9408310C94DE300C94310263
:100070000C9431020C9431020C9431020C94310234
:100080000C9431020C9431020C9431020C94310224
:100090000C9431020C9431020C9431020C943E31D8
:1000A0000C9431020C9431020C9431020C94310204
:1000B0000C9431020C9431020C9431020C943102F4
:1000C0000C9431020C9431020C9431020C943102E4
:1000D0000C9431020C9431020C9431020C943102D4
:1000E0000C9431020C94A60A0C9423040C949802EC
:1000F0000C94A2020C94AC020C94690E0C945B0458
:100100000C94D5080C9401040C948E020C947F027C
:100110000C9462320C94B0240C94710F0C94E90688
:100120000C94B9020C946F0E0C94B4020C94A206B9
:100130000C9415040C94B9030C94860D0C94F10DD9
:100140000C9492060C94D40A0C9487020C94890D9A
:100150000C94AC120C94B0020C942C0B0C948302F3
:100160000C94910A0C949D210C9411210C9437212C
:100170000C9423250C948B020C94CF0A0C949E02B1
:100180000C946C0E0C94BE030C94B8030C9479027E
:100190000C948B0D0C94A8040C94F3210C94BE02C7
:1001A0000C94BA020C9416130C94D1080C94930678
:1001B0000C94F9040C94BA0A0C94BC060C94720FBB
:1001C0000C9494020C9480230C94F2030C94CD08AC
:1001D0000C94B5060C94BA030C94A6020C94D52486
:1001E00048483A4D4D20414D002A002A2A2A2A2A01
:1001F0002A2A2A2A2A2A2A2A2A2A2A2A2A2A2A0089
:100200005F5F5F5F5F5F00456E7465722050617372
:1002100073776F72643A002A2A2A2A2A2A2A2A2AFB
:100220002A2A2A2A2A2A2A2A2A2A2A002376002A3D
:100230005E002D0030002D005F005F005F5F5F00FB
:1002400050726573732027302720696620646F6EB3
:10025000652E00202020202020636F6E74696E754B
:1002600065002020507265737320616E79206B6584
:100270007920746F004D4F4E4441592B2B20536D04
:1002800061727421204C454473002A2A2A2A2A2AA2
:100290002A2A2A2A2A2A2A2A2A2A2A2A2A2A000012
:1002A000002100240027002A002D00300033000127
:1002B000010000040107010A0100002200250028B6
:1002C000002B002E0031003400020100000501085F
:1002D000010B01000020002300260029002C002F24
:1002E00000320000010000030106010901050505B7
:1002F00005070508080808020202020A0A0808049D
:1003000004040401010101010101010303030303CA
:10031000030303040707070C0C0C0C0C0C0C0C0259
:1003200002020206060606060606060B0B0B0B0B60
:100330000B0B0B0102102020080810204010204059
:100340008002010201080402010102040810204099
:1003500080804020100804020180040201804020B7
:1003600010080402010804020101020408102040E0
:1003700080010204081020408000000A0B02090CD2
:100380000D0E08070304010000000000000000003B
:10039000000000000000000000000000000000005D
:1003A000000000000012111000000000000000001A
:1003B00000000000000000000000000000000052EB
:1003C0003A205F5F5F20473A205F5F5F20423A201C
:1003D0005F5F5F004E756D626572206F66204C45F1
:1003E00044733A205F5F5F00523A205F5F5F2047AF
:1003F0003A205F5F5F20423A205F5F5F0000623219
:1004000011241FBECFEFD1E2DEBFCDBF00E00CBF95
:1004100025E1AEE3B0E101C01D92A234B207E1F7DD
:1004200010E1A0E0B2E0EEEFF4E700E00BBF02C0A5
:1004300007900D92AE33B107D9F711E0C0E0D2E0DA
:1004400000E006C021970109802FFE010E94343888
:10045000CF3FD10780E00807A9F70E942C330C9406
:100460007D3A0C94000020E0DC0160FF03C001C075
:100470002D932D936250E0F77040D0F70895CF93FD
:10048000DF93C0910714D0910814209789F08A81D6
:100490009B81009749F02D853E85B901660F771F36
:1004A000620F731F0E9433020C80DD81C02DEDCFDF
:1004B000DF91CF9108958150823108F05AC0E82F22
:1004C000F0E08827E959FD4F8F4F0C9434388702AC
:1004D0008B0279027F028302B9028E029402980293
:1004E0009E02A202A602AC02B002B902B402BA0293
:1004F000BE02809180008F77809380000895809164
:1005000080008F7DF9CF80918000877FF5CF84B503
:100510008F7784BD089584B58F7DFBCF8091B00027
:100520008F778093B00008958091B0008F7DF9CFD0
:10053000809190008F778093900008958091900033
:100540008F7DF9CF80919000877FF5CF8091A000BB
:100550008F778093A00008958091A0008F7DF9CFC0
:100560008091A000877FF5CF809120018F778093C5
:1005700020010895809120018F7DF9CF8091200185
:10058000877FF5CFCF93DF93282F30E0F901E7582D
:10059000FC4F8491F901ED5CFC4FD491F901E351DA
:1005A000FD4FC491CC23A1F081110E945B02EC2F7E
:1005B000F0E0EE0FFF1FED52FD4FA591B491EC91CD
:1005C000ED2381E090E009F480E0DF91CF91089580
:1005D00080E090E0FACF1F93CF93DF93282F30E095
:1005E000F901E758FC4F8491F901ED5CFC4FD4917F
:1005F000F901E351FD4FC491CC23A9F0162F8111CD
:100600000E945B02EC2FF0E0EE0FFF1FE754FD4F5E
:10061000A591B4918FB7F894EC91111108C0D095C1
:10062000DE23DC938FBFDF91CF911F910895DE2BE6
:10063000F8CFCF93DF9390E0FC01ED5CFC4F249169
:1006400083519D4FFC0184918823C9F090E0880F6D
:10065000991FFC01E156FD4FA591B491FC01E754AF
:10066000FD4FC591D49161110DC09FB7F8948C9145
:10067000209582238C938881282328839FBFDF9134
:10068000CF910895623051F49FB7F8943C91822F36
:10069000809583238C93E8812E2BEFCF8FB7F8942E
:1006A000EC912E2B2C938FBFEACF3FB7F89480911B
:1006B000571190915811A0915911B0915A1126B526
:1006C000A89B05C02F3F19F00196A11DB11D3FBF8A
:1006D000BA2FA92F982F8827BC01CD01620F711D59
:1006E000811D911D42E0660F771F881F991F4A9553
:1006F000D1F708958F929F92AF92BF92CF92DF92DF
:10070000EF92FF924B015C010E9455036B017C014B
:100710000E9455036C197D098E099F09683E73403C
:1007200081059105A8F321E0821A9108A108B1087A
:1007300088EEC80E83E0D81EE11CF11C81149104E0
:10074000A104B10429F7FF90EF90DF90CF90BF9004
:10075000AF909F908F9008952FB7F89460915311A8
:100760007091541180915511909156112FBF089599
:1007700008950895FC01848590E00895AF92BF929A
:10078000CF92DF92EF92FF920F931F93CF93DF935D
:100790006C017B018B01040F151FEB015E01AE188C
:1007A000BF08C017D10759F06991D601ED91FC91AE
:1007B0000190F081E02DC6011995892B79F7C501CB
:1007C000DF91CF911F910F91FF90EF90DF90CF902D
:1007D000BF90AF900895FB01448155816081718184
:1007E0000C94BE03FC01538D448D252F30E0842FE3
:1007F00090E0821B930B541710F0CF960895019749
:100800000895FC01918D828D981761F0A28DAE0F35
:10081000BF2FB11D5D968C91928D9F5F9F73928FBC
:1008200090E008958FEF9FEF0895FC01918D828DE8
:10083000981731F0828DE80FF11D858D90E00895B5
:100840008FEF9FEF0895FC01918D228D892F90E00D
:10085000805C9F4F821B91098F73992708958DE0CB
:1008600094E10E94230421E0892B09F420E0822FE7
:100870000895FC01A48DA80FB92FB11DA35ABF4F35
:100880002C91848D90E001968F739927848FA6898F
:10089000B7892C93A089B1898C91837080648C93E3
:1008A000938D848D981306C00288F389E02D808192
:1008B0008F7D80830895EF92FF920F931F93CF93C4
:1008C000DF93EC0181E0888F9B8D8C8D98131AC08B
:1008D000E889F989808185FF15C09FB7F894EE8972
:1008E000FF896083E889F9898081837080648083CF
:1008F0009FBF81E090E0DF91CF911F910F91FF901A
:10090000EF900895F62E0B8D10E00F5F1F4F0F73C1
:100910001127E02E8C8D8E110CC00FB607FCFACF7C
:10092000E889F989808185FFF5CFCE010E943904DD
:10093000F1CFEB8DEC0FFD2FF11DE35AFF4FF0824D
:100940009FB7F8940B8FEA89FB8980818062CFCFB3
:10095000CF93DF93EC01888D8823B9F0AA89BB89F6
:10096000E889F9898C9185FD03C0808186FD0DC0E1
:100970000FB607FCF7CF8C9185FFF2CF808185FF02
:10098000EDCFCE010E943904E9CFDF91CF910895D8
:1009900080E090E0892B29F00E942F0481110E94B1
:1009A000000080E090E0892B49F080E090E0892B06
:1009B00029F00E94000081110E94000080E090E078
:1009C000892B49F080E090E0892B29F00E940000FB
:1009D00081110E94000080E090E0892B49F080E0C6
:1009E00090E0892B29F00E94000081110C940000F6
:1009F000089581E090E008954F925F926F927F9208
:100A00008F929F92AF92BF92CF92DF92EF92FF921E
:100A10000F931F93CF93DF9300D0CDB7DEB76A015A
:100A200019821A821B828823C9F18B01E1E0F0E070
:100A3000482E512C712C612CD8012D918D0122232F
:100A400049F17F01B1E0EB1AF108D601AE0DBF1DEF
:100A50008C908820F9F030E050E040E02F5F3F4F6D
:100A60004F4F5F4FC301B2010E94BB379B01AC01E6
:100A7000912CB12CA12CC501B4016F5F7F4F8F4F1A
:100A80009F4F0E94BB37A1E0B0E0AC0FBD1FAE0D81
:100A9000BF1D8C933196E430F10571F669817A813E
:100AA0008B810F900F900F90DF91CF911F910F913D
:100AB000FF90EF90DF90CF90BF90AF909F908F907E
:100AC0007F906F905F904F900895CF92DF92EF925A
:100AD000FF920F931F93CF93DF93F090AA1480910E
:100AE000AD149091AE14A091AF14B091B014892BB5
:100AF0008A2B8B2BD9F00E94550300910914109179
:100B00000A1420910B1430910C14601B710B820B92
:100B1000930B0091AD141091AE142091AF1430914D
:100B2000B0146017710782079307C8F20E9455033B
:100B30006093091470930A1480930B1490930C140F
:100B4000E091B514F091B614309759F04091B1147A
:100B50005091B2146091B3147091B4148F2D199503
:100B6000F82EC0910714D0910814209721F1EC843D
:100B70008091AB149091AC148436910508F41C86D6
:100B8000E881F981C280D380AE01475F5F4FBE012B
:100B90006A5F7F4F8F2D0E94FC048B01282F4D85AB
:100BA0005E856A817B81CE01F6011995EC860C8009
:100BB000DD81C02DDACF8091051490910614EC01EF
:100BC0002196D0930614C09305144997E4F10E942E
:100BD000AC03009101141091021420910314309180
:100BE00004146B017C01C01AD10AE20AF30AA701BE
:100BF0009601211531054105510521F421E030E030
:100C000040E050E088EE93E0C89FB001C99F700DAE
:100C1000D89F700D1124072E000C880B990B0E9491
:100C2000F3373093AC142093AB1410920614109247
:100C300005140E94AC036093011470930214809316
:100C4000031490930414DF91CF911F910F91FF90A3
:100C5000EF90DF90CF9008952091DE10260F33277C
:100C6000331F21323105ECF420910211FC0190E098
:100C700080E0243069F082E00895A091DE10219197
:100C8000AC0142545F4EA40FB52FB11D2C930196B9
:100C9000861798F38091DE10680F6093DE1080E075
:100CA000089581E008951092021181E0809304116B
:100CB0001092031161E084E10E94EB0261E085E1A2
:100CC0000E94EB02E9EBF0E080818E7F80838081DF
:100CD0008D7F808388E48093B80085E48093BC0096
:100CE0000895CF93DF9391E09093BD108823B9F0DE
:100CF000C091B800D091BA008091BC008A7B8093EB
:100D0000BC0060E084E10E94EB0260E085E10E94AB
:100D1000EB020E945306D093BA00C093B800DF9153
:100D2000CF9108950895E091511180915011E817E5
:100D300030F4F0E0E856FF4E808190E008958FEFA8
:100D40009FEF089590915111809150112FEF3FEF37
:100D5000981748F4E92FF0E0E856FF4E208130E084
:100D60009F5F90935111C901089580915011909106
:100D70005111891B990B0895CF92DF92EF92FF9248
:100D80000F931F93CF93DF937C01CB018A012091B6
:100D90009710222389F0EB016B01C40ED51ECC15F0
:100DA000DD0569F06991D701ED91FC910190F08129
:100DB000E02DC7011995F3CF642F0E942C06C801BE
:100DC000DF91CF911F910F91FF90EF90DF90CF9027
:100DD0000895CF93DF931F92CDB7DEB7698320913B
:100DE00097102223F9F020914E11203258F021E083
:100DF00030E0FC013383228390E080E00F90DF91AC
:100E0000CF91089580914F11E82FF0E0E958FF4EFF
:100E1000998190838F5F80934F1180934E1181E071
:100E200090E0ECCF61E0CE0101960E942C06F7CF56
:100E3000CF92DF92EF92FF920F931F93CF93DF93A6
:100E4000FC01C48121E020939710C093761010928A
:100E50004F1110924E118385682B87EB94E10E940D
:100E6000E906D0914E11D13208F092C00E9455038C
:100E70006B017C0180910211811165C082E0809339
:100E8000021181E0809304118FEF80930111109281
:100E90002611D0932511A7E7B0E1E5E0F1E180E06C
:100EA000D81385C01092271180912711CC0FC82B21
:100EB000C093271180910311813009F07CC01092FA
:100EC00003110E9455036B017C01809127118093CF
:100ED000BB008091B9109091BA10A091BB10B09155
:100EE000BC10892B8A2B8B2B99F00E945503009103
:100EF000B9101091BA102091BB103091BC106C1930
:100F00007D098E099F090617170728073907E0F1A1
:100F10008091BC0083FDD9CF85EC8093BC000E94FA
:100F200055036B017C0180910211823009F445C0A8
:100F3000809101118F3F61F180910111803241F167
:100F40008091011125C08091B9109091BA10A091A3
:100F5000BB10B091BC10892B8A2B8B2B09F48ACF44
:100F60000E9455030091B9101091BA102091BB1046
:100F70003091BC106C197D098E099F09061717075F
:100F80002807390708F076CF8091B8100E947106C3
:100F900010924F1110924E1110929710DF91CF9135
:100FA0001F910F91FF90EF90DF90CF9008959D914A
:100FB00091938F5F75CF85EEB0CF8091B9109091EE
:100FC000BA10A091BB10B091BC10892B8A2B8B2B2F
:100FD00009F4A9CF0E9455030091B9101091BA10DD
:100FE0002091BB103091BC106C197D098E099F09AE
:100FF000061717072807390708F095CFC5CFCF93F5
:10100000DF93DC0126E0629FA00DB11D11249096B4
:101010005C934E935F9721E091962C939197FC01FE
:10102000E359FF4F0190F081E02DEC01C459DF4FEF
:101030002881222341F0309719F0DC01662329F042
:10104000DF91CF9108953097D9F35C968C91DF9121
:10105000CF911994CF92DF92EF92FF920F931F934B
:10106000CF93DF93EC01162F042FFC0186E0689FDD
:10107000E00DF11D112411A2878D90A18130910501
:1010800009F180F08230910509F443C0039709F417
:1010900045C0DF91CF911F910F91FF90EF90DF90AE
:1010A000CF9008954423A9F341E050E0CE010E947F
:1010B000FF070E94AC03C85ADF4F688379838A8395
:1010C0009B83E7CF0E94AC03FE01E85AFF4FC0802C
:1010D000D180E280F380AB01BC014C195D096E093F
:1010E0007F09729680819181B0E0A0E08417950716
:1010F000A607B70770F442E050E0612FCE01DF9100
:10110000CF911F910F91FF90EF90DF90CF900C94B3
:10111000FF0743E050E00111BCCFEFCF50E040E0CB
:10112000ECCF8F929F92AF92BF92CF92DF92EF92CD
:10113000FF92CF93DF93EFEFE60FEC01C12CD12CA0
:101140007601EF3FE9F08990912CB12CA12CF0E0D1
:1011500061E070E080E090E0FE1741F0AAE0B0E0CE
:101160009B01AC010E948E36FF5FF6CFA501940172
:101170000E94BB37C60ED71EE81EF91EE150E1CF14
:10118000C701B601DF91CF91FF90EF90DF90CF9034
:10119000BF90AF909F908F900895862F642F0C94EE
:1011A0001903862F642F0C94EB02862F0C94C20235
:1011B0002F923F924F925F926F927F928F929F9267
:1011C000AF92BF92CF92DF92EF92FF920F931F9355
:1011D000CF93DF93CDB7DEB72C970FB6F894DEBF71
:1011E0000FBECDBF9C878B8784599F4F9A8389837D
:1011F00081E0A981BA818C930E94AC03EB85FC85C8
:10120000E45AFF4FFC83EB830081118122813381FB
:10121000AB01BC01401B510B620B730BEB85FC85D2
:10122000E859FF4F80819181B0E0A0E084179507D5
:10123000A607B70708F037C110E0CB84DC84F6E6D8
:10124000CF0ED11CEB84FC8422E6E20EF11CD60109
:101250008C91181758F4D701ED91FC91E10FF11D15
:1012600062E080810E9419031F5FF1CF312C4B8413
:101270005C84B7E64B0E511CEB84FC84E4E6EE0E76
:10128000F11C812C912C540183942B853C852E5983
:101290003F4F3A872987D2018C91381608F063C0F6
:1012A000032D10E0D701ED91FC91E00FF11F61E0FB
:1012B00080810E941903D701ED91FC91E00FF11F8D
:1012C00060E080810E94EB02D501C401032C04C0C0
:1012D000880F991FAA1FBB1F0A94D2F79E838D8384
:1012E000FC01E095F095F887EF83212CD6018C91D5
:1012F000281620F5622C712CA985BA85ED91FC91F8
:10130000E60DF71D80810E94C202660C771CEB85FA
:10131000FC85E60DF71D892B51F4808591852D8183
:101320003E81822B932B918780872394DFCF80850A
:101330009185AF81B8858A239B23F5CFD701ED91A5
:10134000FC91E00FF11F61E080810E94EB02F70148
:1013500080819181080F191F60E0D8018C910E9453
:101360001903339498CF0B851C85C801CC9678015E
:101370002FEF3FEFF701478D50A1452B21F4148E3D
:10138000368F258F11A2F6E0EF0EF11CE816F90654
:1013900089F7A12C96E0392E8B849C8420E6820E5E
:1013A000911CD6018C91A81608F05AC0B12C6A2C59
:1013B000712CB4E06B0E711C660C771CEB85FC8500
:1013C0006E0E7F1ED2018C91B81608F047C0F30153
:1013D000408151810B2C02C0569547950A94E2F743
:1013E000A89EC00111248B0D911DEB85FC8560E04A
:1013F000258D368D8217930709F473C06F5F36967B
:101400006A30B1F740FF28C0EB85FC8570E060E0F2
:10141000248D21111BC0369EF001379EF00D112442
:101420002B853C85E20FF31FD4012D913C91D9010E
:10143000A80FB91F2C91248F968F858F10A2178E1D
:1014400041E08B859C850E942A0806C06F5F7F4F14
:1014500036966A307105E1F6B394B4CFA394A1CF68
:10146000D12CF80181A18111D82E0A5F1F4FE016FF
:10147000F106B9F70E94AC03AB81BC816D937D93FB
:101480008D939C931397DD2071F0EB85FC8581A1F2
:10149000882349F0878D90A1019729F4848D8111CB
:1014A00006C08FEF05C0A981BA811C92FACF815383
:1014B0002C960FB6F894DEBF0FBECDBFDF91CF9153
:1014C0001F910F91FF90EF90DF90CF90BF90AF9062
:1014D0009F908F907F906F905F904F903F902F9054
:1014E00008954170AECFDC011C9211961C921197A9
:1014F0001296ED91FC9113973197EA30F10508F0BF
:1015000053C08827E957F54F8F4F0C943438910A10
:10151000A60ABA0A910AA60ABA0AD40AD40AD40AAE
:10152000CF0ACD01CC96FD01178214821582168256
:101530003496E817F907C1F7FD01E05CFF4FA25AA6
:10154000BF4F1192AE17BF07E1F70895CD0188583C
:101550009F4F17961C92179714961C9214971596E6
:101560001C92159716961C9216971496A817B907F1
:1015700081F70895CD01CC96FD0117821482158262
:1015800016823496E817F907C1F7FD01E05CFF4FBA
:10159000A15BBF4F1192EA17FB07E1F7089514967C
:1015A0001C92149715961C920895FC01848180FF6B
:1015B00005C0128A84FF0AC0638B089581FF03C0AF
:1015C0002695228BF7CF82FFF5CFFBCF85FF04C096
:1015D0004695460F438B02C086FDFBCF08950F93BF
:1015E0001F93CF93DF93209157102F5F322F3770C7
:1015F0003093571020FF2BC020E831FD2064347059
:1016000009F02062205FFC01EC01239600E011E06C
:101610006785662329F070E0C8010E94DF376F5F9D
:101620006187822F869F080E80E0811D1124811121
:1016300010C01682662311F0615061873196EC1755
:10164000FD0731F7DF91CF911F910F91089520E0B1
:10165000D4CF81508683EECF4F925F927F928F924C
:101660009F92AF92BF92CF92DF92EF92FF920F9331
:101670001F93CF93DF932C01EB010E945503F201DE
:1016800026893789621B730B6A307105B0F3F894B1
:101690008A819B81181619060CF0CDC1E881F98169
:1016A0006EB1862E689484F83EB13F7E3EB9D984EF
:1016B0008E812D2D281B822F2E834C85042E000C0D
:1016C000550BAA81BB817F85F888E9887F5FF394F9
:1016D000E3949F819884BA84AB841081C12C6C2DD3
:1016E0000C2D2C2D2081112788942111280F08F40E
:1016F0002FEF8195889470FD120F1795889471FDD6
:10170000120F1795889472FD120F1795889473FD28
:10171000120F1795889474FD120F1795889475FD14
:10172000120F1795889476FD120F1795889477FD00
:10173000120F17958894622F7111612F8D0D162F3E
:10174000002C8EB800C000C017FF3EB9218166276B
:10175000889400C0002C3EB92111290F00C0002C34
:101760008EB800C000C016FF3EB908F42FEF919567
:10177000889400C0002C3EB9F0FC620F00C0002C21
:101780008EB800C000C015FF3EB967958894F1FC83
:10179000620F00C0002C3EB96795889400C0002CF1
:1017A0008EB800C000C014FF3EB9F2FC620F67950E
:1017B000889400C0002C3EB9F3FC620F00C0002CDE
:1017C0008EB800C000C013FF3EB967958894F4FC42
:1017D000620F00C0002C3EB96795889400C0002CB1
:1017E0008EB800C000C012FF3EB9F5FC620F6795CD
:1017F000889400C0002C3EB9F6FC620F00C0002C9B
:101800008EB800C000C011FF3EB967958894F7FC00
:10181000620F00C0002C3EB96795889400C0002C70
:101820008EB800C000C010FF3EB9122FF110162F65
:101830009B0D00C0002C3EB900C000C0002C8EB82B
:1018400000C000C017FF3EB922816627889400C0FF
:10185000002C3EB92111290D00C0002C8EB800C00B
:1018600000C016FF3EB908F42FEFE40FF51F00C0CB
:10187000002C3EB9E0FC620F00C0002C8EB800C006
:1018800000C015FF3EB967958894E1FC620F00C067
:10189000002C3EB96795889400C0002C8EB800C01B
:1018A00000C014FF3EB9E2FC620F6795889400C047
:1018B000002C3EB9E3FC620F00C0002C8EB800C0C3
:1018C00000C013FF3EB967958894E4FC620F00C026
:1018D000002C3EB96795889400C0002C8EB800C0DB
:1018E00000C012FF3EB9E5FC620F6795889400C006
:1018F000002C3EB9E6FC620F00C0002C8EB800C080
:1019000000C011FF3EB967958894E7FC620F00C0E4
:10191000002C3EB96795889400C0002C8EB800C09A
:1019200000C010FF3EB9122FE110162F919400C095
:10193000002C3EB99A0C00C000C08EB800C000C098
:1019400017FF3EB920816627889400C0002C3EB95D
:101950002111280F00C0002C8EB800C000C016FF57
:101960003EB908F42FEF8195889400C0002C3EB951
:1019700070FD620F00C0002C8EB800C000C015FFC3
:101980003EB96795889471FD620F00C0002C3EB986
:101990006795889400C0002C8EB800C000C014FF6A
:1019A0003EB972FD620F6795889400C0002C3EB965
:1019B00073FD620F00C0002C8EB800C000C013FF82
:1019C0003EB96795889474FD620F00C0002C3EB943
:1019D0006795889400C0002C8EB800C000C012FF2C
:1019E0003EB975FD620F6795889400C0002C3EB922
:1019F00076FD620F00C0002C8EB800C000C011FF41
:101A00003EB96795889477FD620F00C0002C3EB9FF
:101A10006795889400C0002C8EB800C000C010FFED
:101A20003EB9122F7111162F8D0D00C0002C3EB93A
:101A3000119709F086CEEA81FB812EE130E0DF01CB
:101A40000E943C3830E020E0A901AAE9EA9F0E0E8E
:101A5000411DFA9F400D511D11244F0F511DDC01F6
:101A6000CB01840F951FA11DB11D893E43E0940752
:101A7000A105B10508F434C0885E9340A109B109FD
:101A800042E0B695A795979587954A95D1F747E097
:101A9000849F080E211D949F200D311D1124290FB4
:101AA000311D6091561070E0860F971F820F931FB3
:101AB00040915311509154116091551170915611EC
:101AC000292F3327420F531F611D711D409353115E
:101AD0005093541160935511709356118093561082
:101AE00078940E945503F201778B668BDF91CF913A
:101AF0001F910F91FF90EF90DF90CF90BF90AF902C
:101B00009F908F907F905F904F90089580E991E033
:101B100008956C9A08956F927F928F92CF92DF9280
:101B2000EF92FF920F931F93CF93DF93CDB7DEB762
:101B300062970FB6F894DEBF0FBECDBF8C016B016C
:101B40007A01822FA801475F5F4FB8016A5F7F4F1C
:101B50000E94FC043B01882ED8011C962C91C701E1
:101B6000F7FE04C0882799278E199F09DA82C98257
:101B70009C838B839E838D83688A798A8A8A2130AD
:101B800049F5CE0101960E94EF0A83E08D871F86FA
:101B90001E86F7FE02C08DEF8D87D801ED91FC9176
:101BA0000088F189E02DBE016F5F7F4FC801199554
:101BB00062960FB6F894DEBF0FBECDBFDF91CF9116
:101BC0001F910F91FF90EF90DF90CF908F907F90BB
:101BD0006F9008951C861B861A86198618861F82A8
:101BE000D4CFCF92DF92EF92FF920F931F93CF93B8
:101BF000DF93CDB7DEB762970FB6F894DEBF0FBEA6
:101C0000CDBF8C016B017A01822FA801475F5F4F26
:101C1000B8016A5F7F4F0E94FC049B01482FD801E6
:101C20001C968C91DA82C982FC82EB82FE82ED8264
:101C3000288B398B4A8B813009F5CE0101960E94A1
:101C4000EF0A1D861F861E86D801ED91FC91008843
:101C5000F189E02DBE016F5F7F4FC8011995629633
:101C60000FB6F894DEBF0FBECDBFDF91CF911F91AD
:101C70000F91FF90EF90DF90CF9008951C861B8608
:101C80001A86198618861F82DCCF0895E8EEF2E0E6
:101C900091E090838FEF83831482E6E1F2E09083FA
:101CA00083831482EDEBF3E0908383831482EFE867
:101CB000F4E0908383831482E3E6F9E090838383E6
:101CC000148280935510E8E1F8E0908383831482B6
:101CD000089590E080E00895FC0164870895FC0178
:101CE000868597850895CF93DF93EC0118820E9433
:101CF000AC036D837E838F839887DF91CF910895A6
:101D00000F931F93CF93DF93EC016623F1F00E94B2
:101D1000AC03AB01BC018D819E81AF81B885098187
:101D20001A812B813C81800F911FA21FB31F21E0DC
:101D3000481759076A077B0708F420E02883888141
:101D4000DF91CF911F910F9108950E94730EF7CFED
:101D50000F931F93CF9326E0FB013296DC0112967E
:101D600001900D922A95E1F728EE3AE0FC013183CB
:101D7000208324E1FB013896DC01189601900D9236
:101D80002A95E1F79C01245E3F4FAB01445E5F4F13
:101D90008901045C1F4FC6E0FA01D90101900D9240
:101DA000CA95E1F72A5F3F4F4A5F5F4F201731071F
:101DB00091F7FB01E85AFF4F0081118122813381A5
:101DC000FC01E85AFF4F0083118322833383FB0118
:101DD000E45AFF4F0081118122813381FC01E45AD2
:101DE000FF4F0083118322833383FB01E05AFF4FAF
:101DF00020813181FC01E05AFF4F31832083FB01B8
:101E0000EE59FF4F20813181FC01EE59FF4F3183A4
:101E10002083FB01EC59FF4F20813181FC01EC59FB
:101E2000FF4F318320833296DB01AA59BF4F2D919A
:101E30003C9131832083FB01E859FF4F20813181A0
:101E4000FC01E859FF4F31832083FB01E659FF4F26
:101E500020813181FC01E659FF4F31832083FB0152
:101E6000E459FF4F2081FC01E459FF4F208363595F
:101E70007F4FFB012081318183599F4FFC013183CA
:101E80002083CF911F910F910895FC01DB011296E1
:101E90008D919C911397938382838CED9AE091832B
:101EA000808314968C911497848315968C91159742
:101EB000858316968C911697868317968C91179723
:101EC000878318968C911897808719968C9119970B
:101ED00081871A968C911A9782871B968C9183879B
:101EE0000895089590E080E00895FB01019000209E
:101EF000E9F73197AF01461B570BDC01ED91FC91DF
:101F00000280F381E02D1994CF93DF93BC018DE023
:101F100094E10E94750FEC0161E07BE08DE094E1BB
:101F20000E94750F8C0F9D1FDF91CF9108954F92E6
:101F30005F926F927F929F92AF92BF92CF92DF9209
:101F4000EF92FF920F931F93CF93DF93CDB7DEB73E
:101F5000E0970FB6F894DEBF0FBECDBF982EF62ED9
:101F60008A01462F50E088E0BE016F5F7F4F5B0122
:101F7000DB01E82F1D92EA95E9F7FE013996DF01B2
:101F8000682F1D926A95E9F73896DF01682F1D9238
:101F90006A95E9F73896DF01682F1D926A95E9F78F
:101FA0003896DF01682F1D926A95E9F73896DF01B0
:101FB0001D928A95E9F7CA01BC01641B750B821753
:101FC000930718F4840F951FF7CF261B370BB90121
:101FD00090E080E00E946F352B013C016F2D70E096
:101FE00090E080E00E946F359B01AC01C301B2011B
:101FF0000E9415376B017C01B1E09B1661F0E2E0B5
:102000009E1609F4AFC084E09BE00E94840FC12CAF
:10201000D12C760140C02BEA3AEA4AEA5EE30E94FC
:102020006A3587FF12C08FEF8A838D8388E0F501C0
:10203000AEE6B0E101900D928A95E1F720E030E044
:1020400040E450E4C701B60122C02BEA3AEA4AE272
:102050005FE3C701B6010E946A3587FF72C08FEF48
:102060008B878E8788E0FE013996AEE6B0E101905D
:102070000D928A95E1F72BEA3AEA4AEA5EE3C70154
:10208000B6010E94A83620E030E040E450E40E940F
:10209000D0356B017C01B090721060916E106B199D
:1020A000770B072E000C880B990B0E947135A70146
:1020B00096010E94D0350E9487376B0DD8016C9332
:1020C000B090731060916F106B19770B072E000C96
:1020D000880B990B0E947135A70196010E94D0359B
:1020E0000E9487376B0DF8016183B0907410609186
:1020F00070106B19770B072E000C880B990B0E9440
:102100007135A70196010E94D0350E9487376B0D6B
:10211000D80112966C93E0960FB6F894DEBF0FBE0E
:10212000CDBFDF91CF911F910F91FF90EF90DF9086
:10213000CF90BF90AF909F907F906F905F904F90A7
:1021400008958FEF898B8F8B88E0FE017196AEE644
:10215000B0E101900D928A95E1F72BEA3AEA4AE262
:102160005FE38DCF2BEA3AEA4AEA5EE30E946A35E2
:1021700087FF07C08FEF8B8F8D8F88E0FE017996E8
:1021800057CF2BEA3AEA4AE25FE3C701B6010E9461
:102190006A3587FF07C08FEF8AA38FA388E0FE010F
:1021A000B19663CF8FEF89A78EA788E0FE01B9961D
:1021B000CECF2F923F924F925F926F927F928F92EB
:1021C0009F92AF92BF92CF92DF92EF92FF920F93C6
:1021D0001F93CF93DF9300D0CDB7DEB7FC017B0117
:1021E0006A0122813381190144E0241A3108DC019B
:1021F000A358BF4F5C9159832330310519F0263025
:10220000310529F4DF01A258BF4F8C918983DF018A
:10221000A458BF4F6C90862C912CC601B4010E942B
:10222000CB37762E689D5001699DB00C1124240196
:102230004A0C5B1C93E02916310408F014C1772482
:102240007394760E09F40FC1472D50E0CA0101972F
:10225000889E5001899EB00C989EB00C1124679CFA
:10226000200111242530310509F4E8C09924939404
:102270002630310509F41EC1AF01470D511DCA01B9
:10228000805C9F4FDC018C918823A1F0B4E08B9F90
:10229000B00111249B012E0F3F1F3B832A839920FD
:1022A00049F0DA01DF960C91B4E00B9F8001112414
:1022B0000E0F1F1F3981731608F071C04A815B81B0
:1022C000452B09F472C0992009F4A7C00115110526
:1022D00009F46BC0CA18DB08B60190E080E00E94E8
:1022E0006F353B014C014A185B08B20190E080E079
:1022F0000E946F359B01AC01C401B3010E941537E8
:102300004B015C01D801DC90EA81FB8160816D1991
:10231000770B072E000C880B990B0E947135A501D5
:1023200094010E94D0350E9487376D0DD7016C93C0
:10233000F801D180AA81BB8111966C916D19770B40
:10234000072E000C880B990B0E947135A501940192
:102350000E94D0350E9487376D0DF7016183D80147
:1023600012961C91EA81FB816281611B770B072E1B
:10237000000C880B990B0E947135A50194010E94F5
:10238000D0350E948737610FD70112966C930DC02C
:10239000912C72CF4A815B8184179507E1F4D701B4
:1023A0001D921D921D921C9213970F900F900F90EB
:1023B000DF91CF911F910F91FF90EF90DF90CF9021
:1023C000BF90AF909F908F907F906F905F904F9055
:1023D0003F902F9008950196A9018617970750F412
:1023E0002D91240F352F311D2C153D0598F2782E97
:1023F00029015A01872D90E00196880F991F880FB7
:10240000991F9F01280F391F3B832A83992009F4C4
:1024100051CF8C01045011094BCFB3E02B1631047E
:1024200020F2EA81FB818081D7018C938181119612
:102430008C931197828112968C93B7CF9A012F5F5C
:102440003F4F220F331F220F331F2E0F3F1F3B839F
:102450002A838A01000F111F000F111F0E0F1F1F6B
:102460009924939427CF2330310519F1A0F421301A
:10247000310509F48DCF22303105A9F4472D50E004
:102480004F5F5F4F440F551F440F551F4E0F5F1F87
:102490005B834A830CC02530310581F308F478CF83
:1024A0002630310531F08FE19BE00E94840F912CA2
:1024B00001CF912CDF01A258BF4F6C9170E0CB018E
:1024C00001979B838A8390E080E0DE9750E040E0B4
:1024D00084CFFC01228133812A30310531F49A0105
:1024E000AB01658184810C94970F0C94D9104DE059
:1024F00050E007960C946E3A0F931F93CF938C0184
:10250000C62F0E9418076C2F6460C8010E9418072C
:102510006C2F6B7FC8010E94180783EC90E0019735
:10252000F1F7CF911F910F9108950F931F93CF93C0
:10253000DF938C01D62FC42F607F642B0E947C1206
:1025400080E1D89FB00111246C2BC801DF91CF919D
:102550001F910F910C947C1241E00E94951281E032
:1025600090E00895EF92FF920F931F93CF93DF9324
:102570008C017B01D0E0C0E0F701EC0FFD1F6491FE
:10258000662331F041E0C8010E9495122196F4CFF4
:10259000CE01DF91CF911F910F91FF90EF900895A1
:1025A000CF93DF9300D000D01F921F92CDB7DEB73C
:1025B00028E0EBE3FAE0DE01119601900D922A95F6
:1025C000E1F7FC012085241710F44FEF420F50E093
:1025D000440F551F21E030E02C0F3D1F420F531FC9
:1025E000FA012081620F606840E028960FB6F894E7
:1025F000DEBF0FBECDBFDF91CF910C949512CF936C
:10260000DF93EC0140E06CE00E94D01260EE71E0DC
:10261000CE01DF91CF910C94B21240E061E00E94B4
:1026200095128BE39FE10197F1F708950E94493AD3
:10263000FC0180819181009711F00C94DF3808959E
:10264000EF92FF920F931F93CF93DF93EC017B01E7
:102650008A0188819981009729F02A813B8124177A
:10266000350788F4B8016F5F7F4F0E946839009783
:1026700091F0998388831B830A832C813D81232BCE
:1026800011F4FC0110821D830C83B70188819981AC
:102690000E94573A0CC088819981009711F00E94DE
:1026A000DF38198218821D821C821B821A82CE0199
:1026B000DF91CF911F910F91FF90EF900895EF92CE
:1026C000FF920F931F93CF93DF9300D000D000D0E1
:1026D000CDB7DEB78C01862FF801118210821382EC
:1026E0001282158214824AE09E012F5F3F4F7901CA
:1026F000B90190E00E944035F70101900020E9F710
:102700003197AF014E195F09B701C8010E9420132C
:1027100029960FB6F894DEBF0FBECDBFDF91CF91E3
:102720001F910F91FF90EF900895CF93DF931F9229
:102730001F92CDB7DEB7FC01118210821382128284
:102740001582148269831A82BE016F5F7F4FFB017D
:1027500001900020E9F73197AF01461B570B0E940B
:1027600020130F900F90DF91CF9108950F931F9337
:10277000CF93DF9300D000D0CDB7DEB78C016A30A5
:10278000C8F4CE0101960E945F13BE016F5F7F4FB8
:10279000C8010E94EB03CE0101960E9418132696F1
:1027A0000FB6F894DEBF0FBECDBFDF91CF911F9162
:1027B0000F9108956A50653050F4E62FF0E0EB5722
:1027C000F54F6081CE0101960E949513DECF66E43D
:1027D000F9CF4F925F926F927F929F92AF92BF928A
:1027E000CF92DF92EF92FF920F931F93CF93DF93DD
:1027F000CDB7DEB72C970FB6F894DEBF0FBECDBFB6
:102800005C016B01F42E122FDB011A968C911A9742
:1028100051969C915197E82FE91BFF0B1E171F063D
:1028200099F094F0891B089F800D112494E1981B66
:10283000892F14969C91149791FF04C08695529607
:102840008C9302C092FDFBCFF60167856117D8F427
:1028500080898017C0F443899685490F069F600DD3
:1028600011249289890F680FC5010E94D012EE20B1
:1028700009F441C06AE372E0C5010E94B212F60198
:1028800080898F5F808BD60150968C9150978017EE
:1028900008F47FC050961C9250971F969C901F97EB
:1028A000E110B8C0602F043008F063E0C6010B9659
:1028B000F60126812F3F99F1FF24FA94F60EFC01D0
:1028C000412C512C32014FEFF41669F1219130E087
:1028D00050E040E0A0E061E070E080E090E0FA16B7
:1028E00009F46DC0B4E0660F771F881F991FBA9571
:1028F000D1F7AF5FF4CFD6015096EC91E33020F4DE
:10290000EC0DFD2DF11DF386B501CE0101960E945F
:10291000450F6F2DCE0101960E94B613B0CF0E94D5
:1029200091082B013C01D60119968C9190E0B0E002
:10293000A0E084159505A605B70508F44DC0F6017D
:10294000808590E0B0E0A0E0481659066A067B0654
:1029500008F442C093949786E189EF5FD6015196BF
:10296000EC93519754968D919C915597009779F1DE
:102970001A962C912E1758F1E80FF92FF11D319767
:102980004082F6018785811720F0178686858F5F44
:1029900086872C960FB6F894DEBF0FBECDBFDF91B1
:1029A000CF911F910F91FF90EF90DF90CF90BF904C
:1029B000AF909F907F906F905F904F9008950E948E
:1029C000BB37460E571E681E791EFA947CCF8DE2E7
:1029D0009BE00E94840FD5CFF12CE12C602E712C4E
:1029E0000F5FF6018785E614F70458F6438996854C
:1029F000490F6289089F600D11246E0DC5010E9468
:102A0000D01268E372E0C5010E94B212FFEFEF1A24
:102A1000FF0AE7CF93941F969C921F9751968C9133
:102A200051978F5F51968C93ACCF8F929F92AF92BC
:102A3000BF92CF92DF92EF92FF920F931F93CF93AB
:102A4000DF93CDB7DEB7CF56D1090FB6F894DEBF0E
:102A50000FBECDBF6C015A01922EF02ECE01019611
:102A60000E94A80ECE0101960E94D808882E8FEFF2
:102A700088122BC00091BB03609159100F3F29F1C0
:102A800010E0F501E60FF11DD801A758B54F8C9164
:102A900082836F0D4E2DC6010E94D012F801E359BA
:102AA000F54F6081CE0101960E949513BE016F5FC4
:102AB0007F4FC6010E94EB03CE0101960E941813BE
:102AC000809159108F5F809359108092BB03809141
:102AD00059108330A0F063E0C50102960E9491086E
:102AE000092D10E030E020E0061717072807390706
:102AF000D0F0F501618381E0808310925910C159B3
:102B0000DF4F0FB6F894DEBF0FBECDBFDF91CF9180
:102B10001F910F91FF90EF90DF90CF90BF90AF90FB
:102B20009F908F9008954E2D6F2DC6010E94D01258
:102B30006CE372E0C6010E94B212DFCFCF92DF9247
:102B4000EF920F931F93CF93DF93CDB7DEB7CB57A1
:102B5000D1090FB6F894DEBF0FBECDBF6C01FA01EC
:102B6000102F8E2D42E0E42E811102C093E0E92E59
:102B700090916910911125C0CE0101960E94A80E76
:102B8000B601CE0180599F4F0E94450F03E02FEF01
:102B900049E650E1BE016F5F7F4FCE0180599F4FE4
:102BA0000E941515C558DF4F0FB6F894DEBF0FBE53
:102BB000CDBFDF91CF911F910F91EF90DF90CF901C
:102BC00008959091641091110FC0CE0101960E945A
:102BD000A80EB601CE0180599F4F0E94450F0AE012
:102BE0002FEF44E650E1D6CF90915F1091110FC0C6
:102BF000CE0101960E94A80EB601CE0180599F4FCA
:102C00000E94450F01E12FEF4FE550E1C3CF9091B6
:102C10005A10911113C0882389F0CE0101960E94A9
:102C2000A80EB601CE0180599F4F0E94450F83E048
:102C3000E82E00E1212F4AE550E1ACCF91E09383EB
:102C400090916A109083909165109183909160109B
:102C50009283882321F080915B10F9018083109288
:102C600069101092641010925F1010925A109ACF4F
:102C7000FC01118210821382128215821482611566
:102C8000710551F0FB0101900020E9F73197AF0188
:102C9000461B570B0C94201308951F93CF93DF937B
:102CA000CDB7DEB768970FB6F894DEBF0FBECDBFC5
:102CB000162FBC01CE010D960E94450FCE010D9638
:102CC0000E940D1340E060E0CE010D960E94D012EC
:102CD00066EF77E0CE0101960E943816BE016F5F65
:102CE0007F4FCE010D960E94EB03CE0101960E940C
:102CF0001813BE01635F7F4FCE0101960E94450FFE
:102D0000CE0101960E94FF1241E060E0CE010D96D7
:102D10000E94D01263E078E0CE0101960E9438163E
:102D2000BE016F5F7F4FCE010D960E94EB03CE0177
:102D300001960E941813112311F142E060E0CE01C8
:102D40000D960E94D01268EE73E0CE010D960E949F
:102D5000B21243E060E0CE010D960E94D01264ED05
:102D600073E0CE010D960E94B21268960FB6F894E9
:102D7000DEBF0FBECDBFDF91CF911F91089543E01D
:102D800060E0CE010D960E94D0126FEB73E0E9CFA8
:102D90008F929F92AF92BF92CF92DF92EF92FF926B
:102DA0000F931F93CF93DF93CDB7DEB72C970FB65A
:102DB000F894DEBF0FBECDBF7C014B015A01690103
:102DC0000E940D1340E060E0C7010E94D012B401E0
:102DD000CE0101960E943816BE016F5F7F4FC7017A
:102DE0000E94EB03CE0101960E941813B701CE0199
:102DF00001960E94450FCE0101960E94FF1241E00C
:102E000060E0C7010E94D012B501CE0101960E9478
:102E10003816BE016F5F7F4FC7010E94EB03CE01E2
:102E200001960E94181342E060E0C7010E94D01290
:102E3000B601CE0101960E943816BE016F5F7F4F2A
:102E4000C7010E94EB03CE0101960E94181343E0D4
:102E500060E0C7010E94D012B801CE0101960E9425
:102E60003816BE016F5F7F4FC7010E94EB03CE0192
:102E700001960E9418132C960FB6F894DEBF0FBE71
:102E8000CDBFDF91CF911F910F91FF90EF90DF9019
:102E9000CF90BF90AF909F908F900895CF92DF9288
:102EA000EF92FF920F931F93CF93DF93CDB7DEB7CF
:102EB0002C970FB6F894DEBF0FBECDBF8C016B010F
:102EC0007A010E940D13B801CE0101960E94450FB0
:102ED000CE0101960E94FF1241E060E0C8010E940D
:102EE000D01260E472E0C8010E94B21242E060E0D9
:102EF000C8010E94D012B601CE0101960E94381678
:102F0000BE016F5F7F4FC8010E94EB03CE010196A7
:102F10000E94181343E060E0C8010E94D012B7017C
:102F2000CE0101960E943816BE016F5F7F4FC80127
:102F30000E94EB03CE0101960E9418132C960FB647
:102F4000F894DEBF0FBECDBFDF91CF911F910F91DF
:102F5000FF90EF90DF90CF9008952F923F924F9285
:102F60005F926F927F928F929F92AF92BF92CF9219
:102F7000DF92EF92FF920F931F93CF93DF93CDB722
:102F8000DEB7CC5FD1090FB6F894DEBF0FBECDBF60
:102F90005C016A01CE0180599F4F0E94A80EB501C5
:102FA000CE0185519F4F0E94450FD60116969C91E8
:102FB000169719968C919F3F49F48A3048F093E018
:102FC000F92E843638F482E0F82E04C08031D8F728
:102FD000FF24F3946F2D70E06F5F7F4F84E190E0EA
:102FE0000E94DF374B01F601818131E043E0882305
:102FF00011F032E042E0D6011A968C91880D992D9D
:10300000911D0197B4010E94DF37C650DF4F6883DE
:10301000CA5FD040461708F42EC2C750DF4F8882DF
:10302000C95FD040882DF89C800D112424E1281B15
:10303000461B632FC6010E94D50ABE0160597F4F0F
:10304000FE0131965F01CF010E94A80EC5010E94CA
:10305000D808C550DF4F8883CB5FD0408F3F09F041
:10306000F2C1E091BA03EF3F09F4EDC1809158102D
:10307000D60116969C911697E9131FC0B1E0FB127A
:103080001AC0F60191859A30B0F0811114C0BE01CA
:1030900065517F4FC5010E94450F0DE31BE022E5FE
:1030A0003BE047E65BE0B6016A5E7F4FC5010E94E8
:1030B000C816F092581010E00BC1882309F45CC1C7
:1030C000F0E0E758F54F108119968C9119978950C7
:1030D000990B181719067CF7165F5496ED91FC9121
:1030E00055973097A9F051968C91AF01D50190E09A
:1030F0009D012A193B092817390770F4FA0121911B
:10310000AF012D939F0121503109F9011082F0CFB9
:103110008BE79BE00E94840FD6011E962D903D9078
:103120004D905C9051975196BC91C450DF4FB8833D
:10313000CC5FD040F60116861786108A118ACE0120
:1031400085519F4F0E940D1340E060E0CE018551F4
:103150009F4F0E94D012B6016A5E7F4FCE0181520E
:103160009F4F0E943816BE0161527F4FCE0185519C
:103170009F4F0E94EB03CE0181529F4F0E94181374
:10318000BE0165517F4FCE0181529F4F0E94450F76
:10319000CE0181529F4F0E94FF12D60111968C9151
:1031A0008823E1F041E060E0CE0185519F4F0E940D
:1031B000D012B6016D5D7F4FCE0181529F4F0E94AC
:1031C0003816BE0161527F4FCE0185519F4F0E943C
:1031D000EB03CE0181529F4F0E941813C950DF4F5D
:1031E000B982A882C75FD040C450DF4FB881CC5F9E
:1031F000D0406B2E712CC950DF4F88819981C75FF9
:10320000D0408A199B098615970520F5C950DF4FD4
:10321000E881F981C75FD0407190C950DF4FF983D1
:10322000E883C75FD040BE0165517F4FCE01815218
:103230009F4F0E94450FE12C0F2DC750DF4F288173
:10324000C95FD040472DB601CE0181529F4F0E94E9
:10325000E913CACFD6011A968C9186151704E1F0AE
:10326000D8F0BE0165517F4FCE0181529F4F0E9421
:10327000450FEE24E3940F2DC750DF4F2881C95F1F
:10328000D04040E0B601CE0181529F4F0E94E91329
:10329000BFEF6B1A7B0ADECFF60126863786408A9F
:1032A000518A81890488F589E02D309759F0D5013C
:1032B00090E09D012A193B092817390738F42D9110
:1032C0002193F7CF87E99BE00E94840F109258105A
:1032D00081E0F60121899285291708F080E0D60166
:1032E00013962C91139731E0232782239091581045
:1032F0009327892309F4A7C01E968C91C650DF4FEF
:10330000B881CA5FD0408B1708F09DC0BE016551DF
:103310007F4FCE0181529F4F0E94450FE12C0F2D10
:10332000282D412FB601CE0181529F4F0E94E913F3
:10333000F6018281882309F486C0F1E0FF1283C080
:10334000D6015496ED91FC915597309729F15196FD
:103350008C91AF01D50190E09D012A193B092817F6
:103360003907F0F4FA012191AF012D939F0121500B
:103370003109F9011082F0CF17968C9117978F3F82
:1033800031F0E81304C081E013968C9394CEF0E002
:10339000E758F54F10819CCF8BE79BE00E94840F8C
:1033A000D6011E962D903D904D905C905197519670
:1033B0006C90712CF60191898285981748F545012A
:1033C000D60151969C9151971A968C9194012A1985
:1033D0003B092615370570F7981760F7F40111912E
:1033E0004F01BE0165517F4FCE0181529F4F0E9418
:1033F000450FE12C01E0C750DF4F2881C95FD04065
:10340000412FB601CE0181529F4F0E94E913D8CFC0
:10341000D60126863786408A518A0488F589E02DB0
:10342000309769F051968C91D50190E09D012A1951
:103430003B092817390738F42D912193F7CF87E9F5
:103440009BE00E94840FC550DF4FB881CB5FD04016
:10345000B093BA03F60191898285981718F4838195
:10346000882349F081E0D60113968C93F6011686E5
:103470001786108A118AC450DF4F0FB6F894DEBF4A
:103480000FBECDBFDF91CF911F910F91FF90EF90B5
:10349000DF90CF90BF90AF909F908F907F906F9074
:1034A0005F904F903F902F900895BF92CF92DF9200
:1034B000EF92FF920F931F93CF93DF93CDB7DEB7B9
:1034C000C250D1400FB6F894DEBF0FBECDBF8C0105
:1034D0006A01CE0180599F4F0E94A80EB801CE010B
:1034E00089509F4F0E94450FCE0189509F4F0E94E7
:1034F0000D1340E060E0CE0189509F4F0E94D01232
:10350000B6016A5E7F4FCE0101960E943816BE0159
:103510006F5F7F4FCE0189509F4F0E94EB03CE011A
:1035200001960E941813BE0169507F4FCE0101968B
:103530000E94450FCE0101960E94FF12D6011196FE
:103540008C918823D1F041E060E0CE0189509F4FFB
:103550000E94D012B6016D5D7F4FCE0101960E9490
:103560003816BE016F5F7F4FCE0189509F4F0E947A
:10357000EB03CE0101960E941813BE0160597F4FE4
:10358000CE0101960E94A80EBE0169507F4FCE0168
:1035900085519F4F0E94450FF601968181859F3F7F
:1035A00039F48A3038F013E0843628F412E003C08E
:1035B0008031E0F711E0612F70E06F5F7F4F84E1B1
:1035C00090E00E94DF379B01D60111968C91E2E0DA
:1035D00042E0811102C0E1E043E0D6011A968C91ED
:1035E000820F932F911D0197B9010E94DF37F62EAC
:1035F000461778F1B22E129F200D112484E1821B10
:10360000282F461B6E2FC6010E94D50AF60186851B
:103610008F15C0F4918982859817A0F4BE01655179
:103620007F4FCE0181529F4F0E94450FEE24E394BD
:10363000012F2B2D40E0B601CE0181529F4F0E94F9
:10364000E913E4CFD6011E961D921D921D921C9285
:103650005197CE5FDE4F0FB6F894DEBF0FBECDBFE1
:10366000DF91CF911F910F91FF90EF90DF90CF905E
:10367000BF9008953F924F925F926F927F928F9288
:103680009F92AF92BF92CF92DF92EF92FF920F93F1
:103690001F93CF93DF93CDB7DEB7CE50D1400FB697
:1036A000F894DEBF0FBECDBF7C0149015A01023044
:1036B00030F00430A0F082E090E0083090F000910B
:1036C000F9131091FA130130110581F00230110540
:1036D00009F402C283ED9BE00E94840F1DC081E0CB
:1036E00090E09093FA138093F913E9CFCE018059BB
:1036F0009F4F0E94A80EB701CE0193950E94450FDF
:103700008091FB139091FC138130910509F441C025
:10371000E0F0029709F4EAC0C25FDE4F0FB6F894FA
:10372000DEBF0FBECDBFDF91CF911F910F91FF90F4
:10373000EF90DF90CF90BF90AF909F908F907F9051
:103740006F905F904F903F90089510922E0981E006
:1037500080932B091092FE1310925C1110925D1150
:1037600010925E1110925F1184E690E0A0E0B0E04C
:103770008093230990932409A0932509B0932609E7
:1037800082E299E00E94730E1093FC130093FB13E6
:10379000C3CF80912B09882309F477C04DE050E016
:1037A00065EC7BE081E499E00E946E3A8FE0E3E40F
:1037B000FAE0DE01A152BF4F01900D928A95E1F728
:1037C00086E0EFEDF0E0EC0FFD1F3F96DF011D926C
:1037D0008A95E9F78091FD134AE0BE01645F7E4F50
:1037E00090E00E94353565E170E0CE0181529F4F37
:1037F0000E942A3504E110E0A801481B590BBE01C4
:10380000645F7E4FCE0181529F4F0E945E3A65E118
:1038100070E0CE0181529F4F0E942A35A801481BBB
:10382000590B6DEC7BE0CE0181529F4F0E945E3AB6
:1038300045E150E0BE0161527F4F8EE499E00E9465
:103840006E3A86EF93E19093400980933F0980910F
:10385000FD1380933509BE0160597F4FCE0101965B
:103860000E94A80EBE017395CE018C509F4F0E94FE
:10387000450F4BE259E0BE016F5F7F4FCE018C5088
:103880009F4F0E94551A10922B09BE0160597F4F1D
:10389000CE0101960E94A80EBE017395CE01815201
:1038A0009F4F0E94450F4BE259E0BE016F5F7F4F73
:1038B000CE0181529F4F0E94AD1780912E0988231F
:1038C00009F42ACF82E090E09093FC138093FB13DD
:1038D000BE017395CE0101960E94450F43E05BE067
:1038E000BA01CE0101960E944E1716CF0091FE1329
:1038F000C501B4010E946F356B017C01E02FF0E03F
:10390000EA50FC4E608170E090E080E00E946F35EC
:1039100020E030E048EC52E40E94D0359B01AC013D
:10392000C701B6010E94153720915C1130915D11DD
:1039300040915E1150915F110E94A9364B015C01CC
:10394000C090FD13D12CE02EF12CBFEFEB1AFB0A37
:1039500020E030E040E85FE3C501B4010E94B637E3
:1039600087FD10C020E030E040E85FE3C501B4010E
:103970000E94A8364B015C010F5FEC14FD041CF3A0
:1039800000E0E1CF80925C1190925D11A0925E11F7
:10399000B0925F110093FE130F5FEC14FD040CF066
:1039A00000E061E082E299E00E94800E882309F441
:1039B0008DC0A090FE13E0E8AE9E50011124C50119
:1039C000805A9E4E5C0190E8099F80011124005AA4
:1039D0001E4EC152DF4F188219821A821B82CF5DA0
:1039E000D04019821A821B821C8280E6C82E83E195
:1039F000D82EF12CE12CA701BE0161527F4FC501E9
:103A00000E946912A701BE016F5F7F4FC8010E942B
:103A10006912CF51DF4F9880C15ED04040905C1159
:103A200050905D1160905E1170905F116B8169190B
:103A3000770B072E000C880B990B0E947135A301A0
:103A400092010E94D0350E948737960EC052DF4FF8
:103A50008880C05ED0406A816819770B072E000C01
:103A6000880B990B0E947135A30192010E94D035F9
:103A70000E948737860EC152DF4F3880CF5DD0401D
:103A800069816319770B072E000C880B990B0E9434
:103A90007135A30192010E94D0350E948737360EFE
:103AA000D6013C9211968C92119712969C92BFEF80
:103AB000EB1AFB0AE3E0CE0ED11CF2E3EF16F104A1
:103AC00009F099CF82E299E00E94730E0E94650589
:103AD00081E08093001420CECE0101960E94A80EB2
:103AE000B701CE0180599F4F0E94450F15CECF924E
:103AF000DF92EF92FF920F931F93CF93DF93CDB797
:103B0000DEB7C359D1090FB6F894DEBF0FBECDBFE3
:103B10007C016B018091EA08882309F46FC04DE0B5
:103B200050E067EE7BE080E099E00E946E3A85E02D
:103B3000E8E5FAE0DE01A059BF4F01900D928A95A9
:103B4000E1F780E1E0E7F0E0EC0FFD1F3596DF01E3
:103B50001D928A95E9F74AE0BE016F567F4F83E0D8
:103B600090E00E94353565E170E0CE0180599F4FAD
:103B70000E942A3504E110E0A801481B590BBE0140
:103B80006F567F4FCE0180599F4F0E945E3A65E18C
:103B900070E0CE0180599F4F0E942A35A801481B32
:103BA000590B61EF7BE0CE0180599F4F0E945E3A36
:103BB00045E150E0BE0160597F4F8DE099E00E94E1
:103BC0006E3A8DEF93E19093FF088093FE08B60163
:103BD000CE0101960E94A80EB701CE018B579F4FD0
:103BE0000E94450F4AEE58E0BE016F5F7F4FCE0145
:103BF0008B579F4F0E94551A1092EA08B601CE01CA
:103C000001960E94A80EB701CE0180599F4F0E94D5
:103C1000450F4AEE58E0BE016F5F7F4FCE018059DD
:103C20009F4F0E94AD17CD56DF4F0FB6F894DEBF01
:103C30000FBECDBFDF91CF911F910F91FF90EF90FD
:103C4000DF90CF9008959F92AF92BF92CF92DF9274
:103C5000EF92FF920F931F93CF93DF93CDB7DEB711
:103C6000A5970FB6F894DEBF0FBECDBF8C017B01C8
:103C7000BC01CE0144960E94450FCE0144960E949D
:103C80000D1340E060E0CE0144960E94D012B701CF
:103C9000695F7F4FCE0101960E943816BE016F5FAB
:103CA0007F4FCE0144960E94EB03CE0101960E9405
:103CB0001813BE016C5E7F4FCE0101960E94450F26
:103CC000CE0101960E94FF12F701268181E0233088
:103CD00008F480E0F7019181892391E0243008F411
:103CE00090E0892BF70182838823C1F042E062E1F2
:103CF000CE0144960E94D0126FE272E0CE0144964B
:103D00000E94B21243E062E1CE0144960E94D012BA
:103D10006CE272E0CE0144960E94B212B801CE016C
:103D200044960E94450F01E010E083E1982E570170
:103D3000F4E1AF0EB11CF70184819801280F311D09
:103D400096819217130608F458C0C02ED82ED00EB4
:103D5000402F60E0CE0144960E94D0126D2DCE011E
:103D600080960E945F13BE01605E7F4FCE01449635
:103D70000E94EB03CE0180960E941813402F61E051
:103D8000CE0144960E94D01266E372E0CE014496C2
:103D90000E94B212F701828140E1811101C043E12A
:103DA00050E02D2D2150330B929EB001939E700D4B
:103DB00011246A0D7B1DCE0101960E946E3A4C2D96
:103DC00062E0CE0144960E94D012BE016F5F7F4F29
:103DD000CE0180960E943816BE01605E7F4FCE01F4
:103DE00044960E94EB03CE0180960E9418130F5F49
:103DF0001F4F0430110509F09ECFF701858190E037
:103E00000196348121E03817190609F020E081E09D
:103E10000430110508F080E0282B99F1F701818129
:103E2000882379F1402F60E0CE0144960E94D012A1
:103E300064E372E0CE0144960E94B212402F61E02A
:103E4000CE0144960E94D01262E372E0CE01449605
:103E50000E94B212402F62E0CE0144960E94D0121E
:103E60006CEF7BE0CE0180960E943816BE01605E4A
:103E70007F4FCE0144960E94EB03CE0180960E94B4
:103E80001813A5960FB6F894DEBF0FBECDBFDF9115
:103E9000CF911F910F91FF90EF90DF90CF90BF9047
:103EA000AF909F900895DF92EF92FF920F931F9330
:103EB000CF93DF93CDB7DEB7CF56D1090FB6F894C5
:103EC000DEBF0FBECDBF7C018A01CE0101960E94EC
:103ED000A80ECE0101960E94D808D82E8FEFD812D6
:103EE0000AC08091BC038F3F31F0F80156818517DD
:103EF00098F48F5F8383D092BC03C159DF4F0FB614
:103F0000F894DEBF0FBECDBFDF91CF911F910F910F
:103F1000FF90EF90DF9008953181332311F08A30C4
:103F200049F3893069F08B3091F0B701CE010196E9
:103F30000E94450FB801CE0101960E94231EDBCFDF
:103F4000F8018481882389F381508483EECFF801BE
:103F50002581948181E0291708F480E041E0533005
:103F600008F440E08423832311F49217F0F69F5F56
:103F7000F8019483DACF0F931F93CF93DF93CDB7DC
:103F8000DEB72C970FB6F894DEBF0FBECDBF8B0106
:103F9000BC01CE0101960E94450FB801CE010196E9
:103FA0000E94231E2C960FB6F894DEBF0FBECDBF25
:103FB000DF91CF911F910F910895EF92FF920F9390
:103FC0001F93CF93DF93CDB7DEB7CB57D1090FB691
:103FD000F894DEBF0FBECDBF8C017B0180916309D9
:103FE000882309F453C06CE07CE083E699E00E94EA
:103FF000771243E150E068E17CE087E799E00E94B6
:104000006E3A43E150E060E27CE08AE899E00E9489
:104010006E3A43E150E06AE27CE08DE999E00E946B
:104020006E3A43E150E068E37CE080EB99E00E9467
:104030006E3A43E150E064E47CE083EC99E00E9456
:104040006E3A43E150E06EE47CE086ED99E00E9438
:104050006E3A43E150E06EE57CE089EE99E00E9423
:104060006E3A43E150E06CE67CE08CEF99E00E9410
:104070006E3AB801CE0101960E94450F63E679E0E1
:10408000CE0101960E94BB1F10926309B701CE01B9
:1040900001960E94A80EB801CE0180599F4F0E9440
:1040A000450F43E659E0BE016F5F7F4FCE01805957
:1040B0009F4F0E94531FC558DF4F0FB6F894DEBFC5
:1040C0000FBECDBFDF91CF911F910F91FF90EF9069
:1040D0000895EF92FF920F931F93CF93DF93CDB785
:1040E000DEB7CB57D1090FB6F894DEBF0FBECDBFF8
:1040F0008C017B0180911808882399F163E77CE0AB
:1041000088E198E00E94771243E150E06AE77CE0A2
:104110008CE298E00E946E3A43E150E064E87CE073
:104120008FE398E00E946E3A43E150E06EE87CE055
:1041300082E598E00E946E3A43E150E06CE97CE051
:1041400085E698E00E946E3AB801CE0101960E9481
:10415000450F68E178E0CE0101960E94BB1F1092E6
:104160001808B701CE0101960E94A80EB801CE0131
:1041700080599F4F0E94450F48E158E0BE016F5F94
:104180007F4FCE0180599F4F0E94531FC558DF4F6C
:104190000FB6F894DEBF0FBECDBFDF91CF911F9158
:1041A0000F91FF90EF9008952F923F924F925F9260
:1041B0006F927F928F929F92AF92BF92CF92DF9237
:1041C000EF92FF920F931F93CF93DF93CDB7DEB79C
:1041D000CF50D1400FB6F894DEBF0FBECDBF8C01DB
:1041E0007B016A01722EDA0112962D913C915901E0
:1041F000B4E0AB1AB108E091F307F091F407E830AE
:10420000F10508F005C78827E75FFE4D8F4F0C9436
:104210003438112137219D21F3218023B024D52466
:10422000232510925B110E943F020E94650581E0E8
:1042300090E09093F4078093F307C15FDE4F0FB6D1
:10424000F894DEBF0FBECDBFDF91CF911F910F91CC
:10425000FF90EF90DF90CF90BF90AF909F908F90A6
:104260007F906F905F904F903F902F90089580EDDA
:1042700097E0A0E0B0E08093EB079093EC07A09369
:10428000ED07B093EE078AEE97E00E94730E11E0FF
:10429000109318071093E0061093A8061093700669
:1042A00010936F061092E3061092AB0610927306FD
:1042B0008FEF80931B077601ECE7EE0EF11CD70120
:1042C0001D921D921D921C921397C6010E94730AA3
:1042D000B4E07B1679F1B71558F0E2E07E1679F07C
:1042E000F3E07F16B1F088EA9CE00E94840FA5CF2E
:1042F00026E082E090E0271508F09BCFF4CFF6018E
:10430000E358FF4F108382E3D7018C9387E090E05E
:1043100090CFF601E358FF4F82E0808389E1F701F7
:104320008083D60112968D919C91059779F782E34F
:104330008083ECCF84E090E07CCF809118078823C5
:10434000A9F165EB7CE088E197E00E94771283E1B8
:10435000EDEBFCE0B3E0AB16B10410F0E0EDFCE0F7
:10436000DE01119601900D928A95E1F743E150E04C
:10437000BE016F5F7F4F8CE297E00E946E3A43E18F
:1043800050E063EE7CE08FE397E00E946E3AB80164
:10439000CE0180599F4F0E94450F68E177E0CE0122
:1043A00080599F4F0E94BB1F10921807B701CE0182
:1043B00001960E94A80EB801CE0180599F4F0E941D
:1043C000450F48E157E0BE016F5F7F4FCE01805936
:1043D0009F4F0E94531F80911B078F3F09F42DCFE1
:1043E00083E090E026CF8091E0068823F1F0809171
:1043F0001B078130E1F1823009F4CAC0B701CE0158
:1044000001960E94A80EB801CE0184519F4F0E94D0
:10441000450F40EE56E0BE016F5F7F4FCE018451E5
:104420009F4F0E94551A1092E006B701CE010196E7
:104430000E94A80EB801CE0180599F4F0E94450FDF
:1044400040EE56E0BE016F5F7F4FCE0180599F4F17
:104450000E94AD1780911B07813009F405C182309D
:1044600009F431C18BE69DE00E94840F18C122300F
:10447000310589F048F42130310509F466C086E140
:104480009DE00E94840F19C02430310509F45DC0FD
:1044900025303105A1F74DE050E062EF7CE0CE0120
:1044A00081529F4F0E946E3A45E150E068EF7CE0F8
:1044B000CE0180599F4F0E946E3A6DE070E0CE01B0
:1044C00081529F4F0E942A354CE050E0481B590B07
:1044D000E3E0AE16B10408F046C06EE57EE0CE0122
:1044E00081529F4F0E945E3A65E170E0CE01805993
:1044F0009F4F0E942A3544E150E0481B590B61E46C
:104500007DE0CE0180599F4F0E945E3A1092E806EE
:104510008EE18093E9064DE050E0BE0161527F4F8D
:1045200086EF96E00E946E3A45E150E0BE01605988
:104530007F4F83E097E00E946E3AC60183589F4FF9
:104540009093F5068093F40659CF4DE050E063E078
:104550007DE0CE0181529F4F0E946E3A45E150E0CE
:104560006AE07DE0A5CF68E47DE0CE0181529F4FF7
:104570000E945E3A65E170E0CE0180599F4F0E9433
:104580002A3544E150E0481B590B6EE47DE0B9CF79
:104590004DE050E065E57DE086EF96E00E946E3AE2
:1045A0004AE0BE016C5F7E4F81E090E00E943535AD
:1045B0004AE0BE0168507F4F82E390E00E943535AB
:1045C00045E150E06DE57DE0CE0180599F4F0E94AE
:1045D0006E3A65E170E0CE0180599F4F0E942A3506
:1045E000F4E18F2E912CA401481B590BBE016C5F86
:1045F0007E4FCE0180599F4F0E945E3A65E170E088
:10460000CE0180599F4F0E942A35A401481B590BA7
:1046100063E67DE0CE0180599F4F0E945E3A65E1DE
:1046200070E0CE0180599F4F0E942A35A401481B9B
:10463000590BBE0168507F4FCE0180599F4F0E9499
:104640005E3A45E150E0BE0160597F4F83E097E05C
:104650000E946E3A81E08093E80682E38093E90647
:10466000C60184589F4F6CCFF601E358FF4F20815D
:1046700030E050E040E0F3E0AF16B10430F42150F8
:10468000330B032E000C440B550B62E370E080E00B
:1046900090E00E94F337F601E458FF4F20838091A9
:1046A000E306882309F4C9CDD60112968D919C9119
:1046B0008230910509F42ACEE0F4019709F43ACE4C
:1046C00088E89DE012CEF601E458FF4F208130E0EB
:1046D00050E040E062E370E080E090E00E94F33759
:1046E000F601E358FF4F33E0A316B104B8F62F5F8D
:1046F000D5CF8430910509F41DCE059709F706CE74
:104700008091A806882309F4E4C085E0E8E5FAE092
:10471000DE01A059BF4F01900D928A95E1F780E12B
:10472000E0E7F0E0EC0FFD1F3596DF011D928A9562
:10473000E9F72330310579F040F42130310549F1B2
:1047400080E29EE00E94840F21C02430310509F1EF
:1047500026303105A9F74DE050E062EC7DE0CE0156
:1047600081529F4F0E946E3A65E170E0CE01805900
:104770009F4F0E942A3544E150E0481B590B6AECD8
:104780007DE0CE0180599F4F0E945E3A7FE0972ED8
:1047900045C03601BDE76B0E711CF301808180318D
:1047A00008F08FE04AE0BE0168507F4F90E00E9421
:1047B00035354DE050E063ED7DE0CE0181529F4FF5
:1047C0000E946E3A65E170E0CE0180599F4F0E94D1
:1047D0002A35E4E18E2E912CA401481B590BBE0111
:1047E00068507F4FCE0180599F4F0E945E3A65E12D
:1047F00070E0CE0180599F4F0E942A35A401481BCA
:10480000590B64ED7DE0CE0180599F4F0E945E3AC6
:10481000D3019C90BFE0B91508F4B8CF6DE070E00B
:10482000CE0181529F4F0E942A354CE050E0481B38
:10483000590BE3E0AE16B10408F073C06AED7DE0F9
:10484000CE0181529F4F0E945E3A65E170E0CE0139
:1048500080599F4F0E942A3544E150E0481B590B74
:1048600061E47DE0CE0180599F4F0E945E3A4DE0A9
:1048700050E0BE0161527F4F8EEB96E00E946E3A8F
:1048800045E150E0BE0160597F4F8BEC96E00E94FD
:104890006E3A9092B106C60182589F4F9093BD0622
:1048A0008093BC06B701CE0101960E94A80EB80104
:1048B000CE0184519F4F0E94450F48EA56E0BE0149
:1048C0006F5F7F4FCE0184519F4F0E94551A109207
:1048D000A806B701CE0101960E94A80EB801CE012C
:1048E00080599F4F0E94450F48EA56E0BE016F5F16
:1048F0007F4FCE0180599F4F0E94AD178091AB062C
:10490000882309F49ACCD60112968D919C9183301C
:10491000910509F4FBCCD0F40197F9F084EE9DE009
:10492000E4CC6FED7DE0CE0181529F4F0E945E3A54
:1049300065E170E0CE0180599F4F0E942A3544E125
:1049400050E0481B590B6EE47DE08CCF843091051C
:1049500021F0069709F4DACCE1CF85E090E069CC4C
:1049600080916F068823B1F0B801CE0101960E94B4
:10497000450F03E01BE02BEF3DE0A8016EE07EE079
:10498000CE0101960E94C81610926F068AEE97E03B
:104990000E94730E61E08AEE97E00E94800E8823E9
:1049A00009F44BCC86E090E044CC809170068823DB
:1049B00081F14DE050E06EE07EE086E896E00E94F6
:1049C0006E3AF601E258FF4F808180937906C60166
:1049D000805C9F4F909385068093840631978081F9
:1049E00080937A06B701CE0101960E94A80EB80105
:1049F000CE0180599F4F0E94450F40E756E0BE010F
:104A00006F5F7F4FCE0180599F4F0E94551A1092C1
:104A10007006B701CE0101960E94A80EB801CE0122
:104A200080599F4F0E94450F40E756E0BE016F5FDF
:104A30007F4FCE0180599F4F0E94AD178091730622
:104A4000811164CCFACBCE0180599F4F0E94A80EF1
:104A5000B801CE0188509F4F0E94450FF601228178
:104A600033818901045011090330110508F007C38F
:104A7000E158FF4F9081992309F401C38FEF890F0B
:104A80002630310509F0C7C231E0F601E158FF4F89
:104A90008080912CFFEF8F1A9F0A880C991C880C3C
:104AA000991C8C0C9D1C332379F090E00196880FA3
:104AB000991F880F991FA601480F591FC95FDE4F24
:104AC00059834883C750D140D60112968D919C914D
:104AD0008330910549F086309105C9F4F601E1581B
:104AE000FF4F2081222399F0F601E158FF4F6081AA
:104AF00070E0FF9750E040E0F12CE12C461757079B
:104B000028F52191E20EF11C4F5F5F4FF7CF612C2A
:104B1000F12CE12CD40113962C91F601E458FF4FAF
:104B20005F012111DDC08091F507882309F459C088
:104B3000F3E07F1609F489C0F71558F022E07216E9
:104B4000E9F08FE89EE00E94840F90C06624639491
:104B5000E1CF36E03715A8F34DE050E00330110502
:104B600008F0B2C06BE57EE0CE0181529F4F0E94FB
:104B70006E3A45E150E064E67EE074C04DE050E0FE
:104B800061E37EE0CE0181529F4F0E946E3A45E183
:104B900050E068E37EE0CE0101960E946E3A4DE05F
:104BA00050E0BE0161527F4F86EF97E00E946E3A5F
:104BB00045E150E0BE016F5F7F4F83E098E00E94C7
:104BC0006E3ABE0168507F4FCE0184519F4F0E94C4
:104BD000450F662DCE0184519F4F0E944D161092B5
:104BE000F507BE0160597F4FCE0101960E94A80EC5
:104BF000BE0168507F4FCE0181529F4F0E94450FEA
:104C000002E310E00E191F090F3F110519F010F013
:104C10000FEF10E0E62C9501A401BE016F5F7F4FFE
:104C2000CE0181529F4F0E949E15662009F405CB4C
:104C3000F601E158FF4FE081EC0DFD2DF11DE05C28
:104C4000FF4FD5018C918083F8CA4DE050E067E4B6
:104C50007EE0CE0181529F4F0E946E3A45E150E0C6
:104C60006DE47EE0CE0101960E946E3AF601E158B5
:104C7000FF4F808190E04AE0BE016C5F7E4F01965D
:104C80000E94353565E170E0CE0101960E942A351B
:104C900004E110E0A801481B590BBE016C5F7E4F78
:104CA000CE0101960E945E3A65E170E0CE01019668
:104CB0000E942A35A801481B590B61ED7BE0CE010B
:104CC00001960E945E3A6BCF65E77EE0CE0181528D
:104CD0009F4F0E946E3A45E150E06EE77EE0C2CF02
:104CE00041E04093F507A0806A2D70E0A60141588D
:104CF0005F4FC75FDE4F59834883C950D140FA01E7
:104D0000A081AA9E500111244A2F50E0FA01319649
:104D100003301105C8F4AA2309F4A8C18330910512
:104D200071F041505109469FD001479FB00D569FE9
:104D3000B00D112485015D0186309105A1F4870134
:104D4000060F171F57010FC0E69F8001E79F100D48
:104D5000F69F100D11248330910519F086309105CE
:104D600011F4A111ECCFD601A258BF4F4C914E17B0
:104D70001F0671F06CF0AC014350510942305105EF
:104D8000C8F186309105B1F141E08130910509F01B
:104D900040E0D601A358BF4F5C915E171F0639F063
:104DA00034F08230910521F021E0059709F020E0F0
:104DB000411103C0222309F4BEC0F501EE0FFF1F0D
:104DC000EA0DFB1D311118C0E05AFC4EA016B106C9
:104DD00008F0A6C0D40112968C91129711969C915E
:104DE00011972C91208391838283BFEFAB1ABB0A6A
:104DF0003396ECCF422FCDCF9F01205A3C4E190164
:104E00007501C8018A199B099C0150E040E0C45F0C
:104E1000DE4F288339834A835B83CC50D140E01630
:104E2000F10608F07DC0B7016A197B0990E080E0C7
:104E30000E946F352B013C01C45FDE4F6881798190
:104E40008A819B81CC50D1400E946F359B01AC017F
:104E5000C301B2010E9415372B013C01C95FDE4F2F
:104E6000A881B981C750D1401296DC90F4016281CB
:104E70006D19770B072E000C880B990B0E9471356A
:104E8000A30192010E94D0350E948737D60EC95FD8
:104E9000DE4FA881B981C750D1401196CC90F40162
:104EA00061816C19770B072E000C880B990B0E94FF
:104EB0007135A30192010E94D0350E948737C60E3A
:104EC000C95FDE4FA881B981C750D140BC91C55F91
:104ED000DE4FB883CB50D140F40160816B1B770B60
:104EE000072E000C880B990B0E947135A3019201CB
:104EF0000E94D0350E948737C55FDE4F8881CB5036
:104F0000D140860FD1018C931196CC9211971296B5
:104F1000DC92BFEFEB1AFB0AE3E02E0E311C7FCFD1
:104F20000E946505C75FDE4FE881F981C950D14015
:104F300080818F5F88CED60111968C91811144C0FB
:104F4000C152DF4F188219821A821B82CF5DD04076
:104F500000E613E1F12CE12CA701BE0161527F4F65
:104F6000C6010E94D910CF51DF4F8881C15ED04069
:104F7000C052DF4F9881C05ED040C152DF4F2881C0
:104F8000CF5DD040F801208391838283FFEFEF1A39
:104F9000FF0A0D5F1F4F22E3E216F104E9F60E94BB
:104FA0006505BE0168507F4FCE0101960E94450FF6
:104FB0004AEA5EE06FEB7EE0CE0101960E944E175A
:104FC00081E0D60111968C93BE0160597F4FCE01CE
:104FD00001960E94A80ECE0101960E94D8088F3F2C
:104FE000A1F4E0916E06EF3F81F0F0E0E758F54F55
:104FF0009081911103C091E0F601908380936E0639
:105000001092F4071092F30718C980936E0615C921
:1050100083ED9EE06AC9892E912CFFEF8F1A9F0ABB
:10502000880C991C880C991C8C0C9D1C90E0019696
:10503000880F991F880F991F9601280F391FC95F84
:10504000DE4F39832883C750D14031E03DCDF60192
:10505000E158FF4F8080912C3FEF831A930A880C10
:10506000991C880C991C8C0C9D1C14C001E010E04C
:10507000B12CA12C8330910509F070CE74CE233071
:10508000310581F048F42130310508F789E19EE0CF
:105090000E94840F30E018CD26303105C0F2263052
:1050A0003105A1F780E030E0F0CCCF92DF92EF92B3
:1050B000FF921F93CF93DF93CDB7DEB7CB57D109C4
:1050C0000FB6F894DEBF0FBECDBFFA013FEF320F2F
:1050D000343020F546E050E0223031F044E050E03A
:1050E000243011F045E050E053834283122F7F01BA
:1050F0006C01CE0101960E94A80EB601CE01805926
:105100009F4F0E94450F22E0210FA701BE016F5F54
:105110007F4FCE0180599F4F0E94D420C558DF4F4A
:105120000FB6F894DEBF0FBECDBFDF91CF911F91B8
:10513000FF90EF90DF90CF900895CF92DF92EF92A3
:10514000FF920F931F93CF93DF93CDB7DEB7CE506F
:10515000D1400FB6F894DEBF0FBECDBF6C018A01FF
:10516000F22E86E0821748F0A2E02A17E0F4B1E0C0
:105170002B1749F087E49FE060C0E7E02E17E9F1C4
:10518000F9E02F13F7CFC25FDE4F0FB6F894DEBF02
:105190000FBECDBFDF91CF911F910F91FF90EF9088
:1051A000DF90CF90089584E0281308C083E090E05A
:1051B000D80113969C938E9312970AC0B6E082E0B2
:1051C00090E02B13F5CF81E090E0FA019383828386
:1051D000CE0101960E94A80EB601CE0180599F4FC4
:1051E0000E94450F2F2DA801BE016F5F7F4FCE019A
:1051F00080599F4F0E94D420C6CF8AE090E0FA01E8
:1052000093838283CE0180599F4F0E94A80EB601DE
:10521000CE0193950E94450F80916C0690916D068A
:105220008230910509F49EC058F4009709F47DC0BE
:10523000019709F487C08AE39FE00E94840FA3CFFF
:105240008330910509F4D9C00497A9F7F801818149
:1052500081114AC0C152DF4F188219821A821B8203
:10526000CF5DD04080E6E82E83E1F82ED12CC12C12
:105270009601AE0141525F4FD80115966C9115977A
:1052800014968C910E94970FCF51DF4F8881C15E99
:10529000D040C052DF4F9881C05ED040C152DF4F36
:1052A0002881CF5DD040F701208391838283FFEF77
:1052B000CF1ADF0A83E0E80EF11CA2E3CA16D1047C
:1052C000B9F60E946505BE017395CE0101960E9454
:1052D000450F4AEA5EE06FEB7EE0CE0101960E9448
:1052E0004E1781E0F8018183BE0160597F4FCE01E6
:1052F00001960E94A80ECE0101960E94D8088F3F09
:1053000089F4E0916105EF3F69F0F0E0E758F54F6F
:105310009081911103C091E0D8019C9310926D0689
:1053200010926C06809361052ECF10925B110E9443
:105330003F020E94650581E090E090936D068093A6
:105340006C0621CF81E080939A05809362051092CC
:1053500065058FEF80939D05C8010E94730A82E066
:1053600090E0EBCF80919A05882321F16BE07FE0FC
:105370008AE995E00E94771243E150E067E17FE01F
:105380008EEA95E00E946E3A43E150E06FE17FE0E3
:1053900081EC95E00E946E3ABE017395CE010196B4
:1053A0000E94450F6AE975E0CE0101960E94BB1F7D
:1053B00010929A05BE0160597F4FCE0101960E945E
:1053C000A80EBE017395CE0181529F4F0E94450FDA
:1053D0004AE955E0BE016F5F7F4FCE0181529F4F7A
:1053E0000E94531F80919D058F3F09F4CCCED801B8
:1053F00014968C9383E090E0A0CF8091620588237F
:1054000009F473C04DE050E067E27FE088E795E083
:105410000E946E3A85E0E8E5FAE0DE01A152BF4F56
:1054200001900D928A95E1F780E1EFEDF0E0EC0F4D
:10543000FD1F3596DF011D928A95E9F74AE0BE010E
:10544000645F7E4F82E390E00E94353565E170E055
:10545000CE0181529F4F0E942A3524E1E22EF12C89
:10546000A701481B590BBE01645F7E4FCE018152DC
:105470009F4F0E945E3A65E170E0CE0181529F4FDE
:105480000E942A35A701481B590B63E37FE0CE0138
:1054900081529F4F0E945E3A45E150E0BE01615249
:1054A0007F4F85E895E00E946E3A0B5F1F4F109387
:1054B000770500937605BE0160597F4FCE010196B6
:1054C0000E94A80EBE017395CE018C509F4F0E9482
:1054D000450F42E655E0BE016F5F7F4FCE018C5015
:1054E0009F4F0E94551A10926205BE0160597F4F6E
:1054F000CE0101960E94A80EBE017395CE01815285
:105500009F4F0E94450F42E655E0BE016F5F7F4FFF
:10551000CE0181529F4F0E94AD178091650588236F
:1055200009F431CE84E090E008CFEF92FF920F9320
:105530001F93CF93DF93CDB7DEB7CB57D1090FB60B
:10554000F894DEBF0FBECDBF8C017B0180918F042C
:10555000882399F167E57FE08FE894E00E94771255
:1055600043E150E061E67FE083EA94E00E946E3A16
:1055700043E150E06DE67FE086EB94E00E946E3AF6
:1055800043E150E06BE77FE089EC94E00E946E3AE3
:1055900043E150E06AE87FE08CED94E00E946E3ACF
:1055A000B801CE0101960E94450F6FE874E0CE016C
:1055B00001960E94BB1F10928F04B701CE01019685
:1055C0000E94A80EB801CE0180599F4F0E94450F3E
:1055D0004FE854E0BE016F5F7F4FCE0180599F4F6F
:1055E0000E94531FC558DF4F0FB6F894DEBF0FBEA1
:1055F000CDBFDF91CF911F910F91FF90EF90089554
:10560000EF92FF920F931F93CF93DF93CDB7DEB747
:10561000CB57D1090FB6F894DEBF0FBECDBF8C01BA
:105620007B018091BD03882309F45BC06AE97FE0B8
:105630008DEB93E00E94771243E150E068E17CE05B
:1056400081ED93E00E946E3A43E150E062EA7FE030
:1056500084EE93E00E946E3A43E150E061E67FE021
:1056600087EF93E00E946E3A43E150E06EEA7FE0FC
:105670008AE094E00E946E3A43E150E06BEB7FE0F9
:105680008DE194E00E946E3A43E150E06AEC7FE0E5
:1056900080E394E00E946E3A43E150E06AED7FE0DF
:1056A00083E494E00E946E3A43E150E062EE7FE0D2
:1056B00086E594E00E946E3A43E150E06CE67CE0BF
:1056C00089E694E00E946E3AB801CE0101960E94EC
:1056D000450F6DEB73E0CE0101960E94BB1F109247
:1056E000BD03B701CE0101960E94A80EB801CE01FC
:1056F00080599F4F0E94450F4DEB53E0BE016F5FF5
:105700007F4FCE0180599F4F0E94531FC558DF4FD6
:105710000FB6F894DEBF0FBECDBFDF91CF911F91C2
:105720000F91FF90EF900895CF92DF92EF92FF924A
:105730000F931F93CF93DF93CDB7DEB7C65FD10929
:105740000FB6F894DEBF0FBECDBF909154109923D1
:1057500009F482C32091EB022F3F41F0792F2A30C8
:1057600031F071E08091EE02821708F070E08091D4
:1057700019028F3F41F0692F8A3031F061E030919A
:105780001C02381708F060E08091C0038F3F41F0A1
:10579000592F8A3031F051E03091C303381708F0A7
:1057A00050E0809192048F3F41F0492F8A3031F0D0
:1057B00041E030919504381708F040E08091660987
:1057C0008F3F41F0392F8A3031F031E0E0916909A3
:1057D000E81708F030E0E0915510E850F1E0E73FBD
:1057E00008F0F0E0E0911B08EF3F39F0EA3031F0CB
:1057F00091E080911E088E1708F090E0235081E020
:10580000243008F080E08F2B872B862B852B842B70
:10581000832B09F491110E94460E8091EB028F3F79
:1058200009F010C16FEC74E1CE0180599F4F0E94C6
:10583000A80E63EC74E1CE0185519F4F0E94450F85
:105840008091E802882309F445C06BEE7FE088EE82
:1058500092E00E94771243E150E066EF7FE08CEF28
:1058600092E00E946E3A43E150E062EA7CE08FE011
:1058700093E00E946E3A43E150E06DEF7FE082E2F8
:1058800093E00E946E3A43E150E062E070E185E30C
:1058900093E00E946E3A43E150E068E070E188E4F2
:1058A00093E00E946E3A43E150E061E170E18BE5E4
:1058B00093E00E946E3ABE0165517F4FCE01019682
:1058C0000E94450F68EE72E0CE0101960E94BB1F58
:1058D0001092E802BE0160597F4FCE0101960E94EE
:1058E000A80EBE0165517F4FCE0181529F4F0E948D
:1058F000450F48EE52E0BE016F5F7F4FCE018152EF
:105900009F4F0E94531F0E94AC03009150101091B2
:1059100051102091521030915310601B710B820B6B
:10592000930B60934C1070934D1080934E10909396
:105930004F100E94AC0360935010709351108093ED
:1059400052109093531080914B108F5F80934B10A7
:10595000853108F441C010915B1110924B1042E068
:1059600060E083EC94E10E94D01262E370E11111D7
:1059700002C067E370E183EC94E10E94750F43E09D
:1059800060E083EC94E10E94D01220914C103091A1
:105990004D1040914E1050914F1019A28E010F5D85
:1059A0001F4F8AE0C82ED12CE12CF12CCA01B9017D
:1059B000A70196010E94F337605DF80162938F01A1
:1059C000211531054105510589F7309729F0BF01AF
:1059D00083EC94E10E94750F80915B11882309F498
:1059E00020C200916609C0904C10D0904D10E090FC
:1059F0004E10F0904F106FEC74E1CE0101960E94B2
:105A0000A80E63EC74E1CE0180599F4F0E94450FB0
:105A1000A7019601BE016F5F7F4FCE0180599F4F56
:105A20000E943A1BCA50DF4F0FB6F894DEBF0FBE7C
:105A3000CDBFDF91CF911F910F91FF90EF90DF903D
:105A4000CF9008958130F1F0823009F05CCF8091E1
:105A50001B088F3F09F057CF6FEC74E1CE01019620
:105A60000E94A80E63EC74E1CE0180599F4F0E9402
:105A7000450FBE016F5F7F4FCE0180599F4F0E943F
:105A8000692041CF909119029F3F09F049C06FEC06
:105A900074E1CE0180599F4F0E94A80E63EC74E11F
:105AA000CE0185519F4F0E94450F80911602882399
:105AB00029F168E170E186E192E00E94771243E10A
:105AC00050E060E270E18AE292E00E946E3A43E1C7
:105AD00050E067E270E18DE392E00E946E3ABE0111
