:020000040000FA
:100000000C9402020C9433020C9433020C943302CD
:100010000C9433020C9433020C9433020C9433028C
:100020000C9433020C9433020C9433020C9433027C
:100030000C9433020C9433020C9433020C9433026C
:100040000C9433020C9433020C9433020C9433025C
:100050000C9433020C9433020C9433020C947A31D6
:100060000C9433020C94EE310C94C4310C94330292
:100070000C9433020C9433020C9433020C9433022C
:100080000C9433020C9433020C9433020C9433021C
:100090000C9433020C9433020C9433020C942432EB
:1000A0000C9433020C9433020C9433020C943302FC
:1000B0000C9433020C9433020C9433020C943302EC
:1000C0000C9433020C9433020C9433020C943302DC
:1000D0000C9433020C9433020C9433020C943302CC
:1000E0000C9433020C94AE020C94CD0A0C947B1346
:1000F0000C94AA040C94100E0C94BB030C949A2537
:100100000C94C0030C9481020C9417040C94A50D5C
:100110000C94EE0A0C944B0B0C94681E0C94890200
:100120000C94CF080C94D3080C948B0E0C948E0E68
:100130000C94FF210C94930A0C94C3200C9490020D
:100140000C94C0020C9485020C94910F0C949406AC
:100150000C94A4060C94BC020C94BA030C94BC033B
:100160000C94A4020C9424220C94B6020C945D040A
:100170000C94B40A0C947B020C94AA0D0C94A0026B
:100180000C948D020C9448330C9425040C94950621
:100190000C94C40F0C94A80D0C94CE1E0C94FB046C
:1001A0000C94880E0C94B2020C9472220C94B4221B
:1001B0000C94BB020C94900F0C9496020C949A022F
:1001C0000C9403040C94EB060C94421E0C94B7069A
:1001D0000C94A8020C94BE060C94241F0C94D7080F
:1001E0000C94F40348483A4D4D20414D002A002A12
:1001F0002A2A2A2A2A2A2A2A2A2A2A2A2A2A2A2A5F
:100200002A2A2A005F5F5F5F5F5F00456E74657238
:100210002050617373776F72643A002A2A2A2A2A5F
:100220002A2A2A2A2A2A2A2A2A2A2A2A2A2A2A0058
:100230002376002A5E002D0030002D005F005F0055
:100240005F5F5F00507265737320273027206966F7
:1002500020646F6E652E00202020202020636F6EAA
:1002600074696E7565002020507265737320616E2D
:1002700079206B657920746F004D4F4E4441592BA6
:100280002B20536D61727421204C454473002A2A3F
:100290002A2A2A2A2A2A2A2A2A2A2A2A2A2A2A2ABE
:1002A0002A2A0000002100240027002A002D003007
:1002B00000330001010000040107010A01000022CF
:1002C00000250028002B002E003100340002010020
:1002D00000050108010B0100002000230026002971
:1002E000002C002F0032000001000003010601096C
:1002F0000105050505070508080808020202020AAB
:100300000A080804040404010101010101010103B8
:1003100003030303030303040707070C0C0C0C0C73
:100320000C0C0C0202020206060606060606060B66
:100330000B0B0B0B0B0B0B010210202008081020DD
:100340004010204080020102010804020101020461
:100350000810204080804020100804020180040220
:100360000180402010080402010804020101020477
:100370000810204080010204081020408000000A7C
:100380000B02090C0D0E0807030401000000000019
:10039000000000000000000000000000000000005D
:1003A000000000000000000000121110000000001A
:1003B000000000000000000000000000000000003D
:1003C000000000523A205F5F5F20473A205F5F5F86
:1003D00020423A205F5F5F004E756D626572206F4C
:1003E00066204C4544733A205F5F5F00523A205FBD
:1003F0005F5F20473A205F5F5F20423A205F5F5F88
:100400000000483311241FBECFEFD1E2DEBFCDBFC5
:1004100000E00CBF25E1A2E7B0E101C01D92A637C4
:10042000B207E1F710E1A0E0B2E0E8ECF6E700E0A7
:100430000BBF02C007900D92A237B107D9F712E0A7
:10044000C2E0D2E000E006C021970109802FFE0142
:100450000E941939C130D10780E00807A9F70E942E
:1004600012340C94623B0C94000020E0DC0160FF2D
:1004700003C001C02D932D936250E0F77040D0F778
:100480000895CF93DF93C0913B14D0913C142097F3
:1004900089F08A819B81009749F02D853E85B901BD
:1004A000660F771F620F731F0E9435020C80DD817B
:1004B000C02DEDCFDF91CF9108958150823108F0AA
:1004C0005AC0E82FF0E08827E759FD4F8F4F0C9472
:1004D000193989028D027B0281028502BB029002DA
:1004E00096029A02A002A402A802AE02B202BB02C5
:1004F000B602BC02C002809180008F77809380009A
:100500000895809180008F7DF9CF80918000877F52
:10051000F5CF84B58F7784BD089584B58F7DFBCFEB
:100520008091B0008F778093B00008958091B000E3
:100530008F7DF9CF809190008F7780939000089500
:10054000809190008F7DF9CF80919000877FF5CFCB
:100550008091A0008F778093A00008958091A000E3
:100560008F7DF9CF8091A000877FF5CF809120010A
:100570008F77809320010895809120018F7DF9CF9E
:1005800080912001877FF5CFCF93DF93282F30E034
:10059000F901E358FC4F8491F901E95CFC4FD491D7
:1005A000F901EF50FD4FC491CC23A1F081110E94BD
:1005B0005D02EC2FF0E0EE0FFF1FE952FD4FA59119
:1005C000B491EC91ED2381E090E009F480E0DF91BB
:1005D000CF91089580E090E0FACF1F93CF93DF93FF
:1005E000282F30E0F901E358FC4F8491F901E95CD0
:1005F000FC4FD491F901EF50FD4FC491CC23A9F0E9
:10060000162F81110E945D02EC2FF0E0EE0FFF1F0C
:10061000E354FD4FA591B4918FB7F894EC9111116B
:1006200008C0D095DE23DC938FBFDF91CF911F915F
:100630000895DE2BF8CFCF93DF9390E0FC01E95CC7
:10064000FC4F24918F509D4FFC0184918823C9F069
:1006500090E0880F991FFC01ED55FD4FA591B491D5
:10066000FC01E354FD4FC591D49161110DC09FB7BA
:10067000F8948C91209582238C9388812823288359
:100680009FBFDF91CF910895623051F49FB7F894E6
:100690003C91822F809583238C93E8812E2BEFCF82
:1006A0008FB7F894EC912E2B2C938FBFEACF3FB7E6
:1006B000F89480918B1190918C11A0918D11B09133
:1006C0008E1126B5A89B05C02F3F19F00196A11DDC
:1006D000B11D3FBFBA2FA92F982F8827BC01CD018C
:1006E000620F711D811D911D42E0660F771F881FEB
:1006F000991F4A95D1F708958F929F92AF92BF921A
:10070000CF92DF92EF92FF924B015C010E94570360
:100710006B017C010E9457036C197D098E099F09AA
:10072000683E734081059105A8F321E0821A910883
:10073000A108B10888EEC80E83E0D81EE11CF11CA8
:1007400081149104A104B10429F7FF90EF90DF9088
:10075000CF90BF90AF909F908F9008952FB7F8944F
:1007600060918711709188118091891190918A11FF
:100770002FBF089508950895FC01848590E00895A1
:10078000AF92BF92CF92DF92EF92FF920F931F939F
:10079000CF93DF936C017B018B01040F151FEB01DD
:1007A0005E01AE18BF08C017D10759F06991D60194
:1007B000ED91FC910190F081E02DC6011995892BF6
:1007C00079F7C501DF91CF911F910F91FF90EF90C5
:1007D000DF90CF90BF90AF900895FB014481558189
:1007E000608171810C94C003FC01538D448D252FD1
:1007F00030E0842F90E0821B930B541710F0CF96BB
:10080000089501970895FC01918D828D981761F0EC
:10081000A28DAE0FBF2FB11D5D968C91928D9F5F03
:100820009F73928F90E008958FEF9FEF0895FC01E2
:10083000918D828D981731F0828DE80FF11D858D95
:1008400090E008958FEF9FEF0895FC01918D228D28
:10085000892F90E0805C9F4F821B91098F739927AD
:10086000089581E494E10E94250421E0892B09F494
:1008700020E0822F0895FC01A48DA80FB92FB11D8F
:10088000A35ABF4F2C91848D90E001968F739927C6
:10089000848FA689B7892C93A089B1898C918370A4
:1008A00080648C93938D848D981306C00288F3899D
:1008B000E02D80818F7D80830895EF92FF920F93CA
:1008C0001F93CF93DF93EC0181E0888F9B8D8C8DFC
:1008D00098131AC0E889F989808185FF15C09FB7F0
:1008E000F894EE89FF896083E889F98980818370B3
:1008F000806480839FBF81E090E0DF91CF911F9162
:100900000F91FF90EF900895F62E0B8D10E00F5F82
:100910001F4F0F731127E02E8C8D8E110CC00FB658
:1009200007FCFACFE889F989808185FFF5CFCE01F0
:100930000E943B04F1CFEB8DEC0FFD2FF11DE35A2C
:10094000FF4FF0829FB7F8940B8FEA89FB89808173
:100950008062CFCFCF93DF93EC01888D8823B9F0ED
:10096000AA89BB89E889F9898C9185FD03C08081BA
:1009700086FD0DC00FB607FCF7CF8C9185FFF2CF37
:10098000808185FFEDCFCE010E943B04E9CFDF914E
:10099000CF91089580E090E0892B29F00E943104E6
:1009A00081110E94000080E090E0892B49F080E0F6
:1009B00090E0892B29F00E94000081110E94000024
:1009C00080E090E0892B49F080E090E0892B29F0CD
:1009D0000E94000081110E94000080E090E0892BBD
:1009E00049F080E090E0892B29F00E9400008111FD
:1009F0000C940000089581E090E008954F925F927A
:100A00006F927F928F929F92AF92BF92CF92DF921E
:100A1000EF92FF920F931F93CF93DF9300D0CDB748
:100A2000DEB76A0119821A821B828823C9F18B0101
:100A3000E1E0F0E0482E512C712C612CD8012D9171
:100A40008D01222349F17F01B1E0EB1AF108D601B3
:100A5000AE0DBF1D8C908820F9F030E050E040E0F2
:100A60002F5F3F4F4F4F5F4FC301B2010E94A0382D
:100A70009B01AC01912CB12CA12CC501B4016F5F7D
:100A80007F4F8F4F9F4F0E94A038A1E0B0E0AC0F86
:100A9000BD1FAE0DBF1D8C933196E430F10571F68C
:100AA00069817A818B810F900F900F90DF91CF91A8
:100AB0001F910F91FF90EF90DF90CF90BF90AF907C
:100AC0009F908F907F906F905F904F900895CF92FE
:100AD000DF92EF92FF920F931F93CF93DF93F090EB
:100AE000DE148091E1149091E214A091E314B0918E
:100AF000E414892B8A2B8B2BD9F00E945703009189
:100B00003D1410913E1420913F1430914014601B0D
:100B1000710B820B930B0091E1141091E214209160
:100B2000E3143091E4146017710782079307C8F249
:100B30000E94570360933D1470933E1480933F14BA
:100B400090934014E091E914F091EA14309759F031
:100B50004091E5145091E6146091E7147091E81407
:100B60008F2D1995F82EC0913B14D0913C142097ED
:100B700021F1EC848091DF149091E014843691058A
:100B800008F41C86E881F981C280D380AE01475FFA
:100B90005F4FBE016A5F7F4F8F2D0E94FE048B0165
:100BA000282F4D855E856A817B81CE01F6011995DE
:100BB000EC860C80DD81C02DDACF809139149091C4
:100BC0003A14EC012196D0933A14C0933914499702
:100BD000E4F10E94AE030091351410913614209177
:100BE0003714309138146B017C01C01AD10AE20A23
:100BF000F30AA7019601211531054105510521F49C
:100C000021E030E040E050E088EE93E0C89FB00182
:100C1000C99F700DD89F700D1124072E000C880BF2
:100C2000990B0E94D8383093E0142093DF1410926F
:100C30003A14109239140E94AE03609335147093E5
:100C400036148093371490933814DF91CF911F910D
:100C50000F91FF90EF90DF90CF90089520911211A7
:100C6000260F3327331F21323105ECF42091361142
:100C7000FC0190E080E0243069F082E00895A091CA
:100C800012112191AC014E505F4EA40FB52FB11D32
:100C90002C930196861798F380911211680F609338
:100CA000121180E0089581E008951092361181E0DC
:100CB000809338111092371161E084E10E94ED02B7
:100CC00061E085E10E94ED02E9EBF0E080818E7F3A
:100CD000808380818D7F808388E48093B80085E461
:100CE0008093BC000895CF93DF9391E09093F1102F
:100CF0008823B9F0C091B800D091BA008091BC00AF
:100D00008A7B8093BC0060E084E10E94ED0260E099
:100D100085E10E94ED020E945506D093BA00C0936F
:100D2000B800DF91CF9108950895E09185118091E9
:100D30008411E81730F4F0E0E453FF4E808190E036
:100D400008958FEF9FEF0895909185118091841100
:100D50002FEF3FEF981748F4E92FF0E0E453FF4EF0
:100D6000208130E09F5F90938511C90108958091A3
:100D7000841190918511891B990B0895CF92DF9270
:100D8000EF92FF920F931F93CF93DF937C01CB01E0
:100D90008A012091CB10222389F0EB016B01C40E54
:100DA000D51ECC15DD0569F06991D701ED91FC9157
:100DB0000190F081E02DC7011995F3CF642F0E94B7
:100DC0002E06C801DF91CF911F910F91FF90EF90F8
:100DD000DF90CF900895CF93DF931F92CDB7DEB70A
:100DE00069832091CB102223F9F0209182112032C7
:100DF00058F021E030E0FC013383228390E080E072
:100E00000F90DF91CF91089580918311E82FF0E04A
:100E1000E555FF4E998190838F5F80938311809376
:100E2000821181E090E0ECCF61E0CE0101960E945A
:100E30002E06F7CFCF92DF92EF92FF920F931F9380
:100E4000CF93DF93FC01C48121E02093CB10C093AA
:100E5000AA1010928311109282118385682B8BEE59
:100E600094E10E94EB06D0918211D13208F092C039
:100E70000E9457036B017C0180913611811165C07E
:100E800082E08093361181E0809338118FEF809358
:100E9000351110925A11D0935911ABEAB0E1E9E340
:100EA000F1E180E0D81385C010925B1180915B1155
:100EB000CC0FC82BC0935B1180913711813009F0A2
:100EC0007CC0109237110E9457036B017C01809106
:100ED0005B118093BB008091ED109091EE10A0917A
:100EE000EF10B091F010892B8A2B8B2B99F00E9478
:100EF00057030091ED101091EE102091EF103091FA
:100F0000F0106C197D098E099F090617170728072D
:100F10003907E0F18091BC0083FDD9CF85EC809347
:100F2000BC000E9457036B017C0180913611823016
:100F300009F445C0809135118F3F61F180913511E1
:100F4000803241F18091351125C08091ED10909152
:100F5000EE10A091EF10B091F010892B8A2B8B2B03
:100F600009F48ACF0E9457030091ED101091EE1002
:100F70002091EF103091F0106C197D098E099F09B6
:100F8000061717072807390708F076CF8091EC106D
:100F90000E94730610928311109282111092CB104E
:100FA000DF91CF911F910F91FF90EF90DF90CF9045
:100FB00008959D9191938F5F75CF85EEB0CF80910D
:100FC000ED109091EE10A091EF10B091F010892BE0
:100FD0008A2B8B2B09F4A9CF0E9457030091ED10A7
:100FE0001091EE102091EF103091F0106C197D09E6
:100FF0008E099F09061717072807390708F095CFAC
:10100000C5CFCF93DF93DC0126E0629FA00DB11D19
:10101000112490965C934E935F9721E091962C93C8
:101020009197FC01E359FF4F0190F081E02DEC0115
:10103000C459DF4F2881222341F0309719F0DC0199
:10104000662329F0DF91CF9108953097D9F35C960C
:101050008C91DF91CF911994CF92DF92EF92FF9212
:101060000F931F93CF93DF93EC01162F042FFC01F6
:1010700086E0689FE00DF11D112411A2878D90A1DB
:101080008130910509F180F08230910509F443C067
:10109000039709F445C0DF91CF911F910F91FF9005
:1010A000EF90DF90CF9008954423A9F341E050E002
:1010B000CE010E9401080E94AE03C85ADF4F688328
:1010C00079838A839B83E7CF0E94AE03FE01E85AAF
:1010D000FF4FC080D180E280F380AB01BC014C198E
:1010E0005D096E097F09729680819181B0E0A0E070
:1010F00084179507A607B70770F442E050E0612F08
:10110000CE01DF91CF911F910F91FF90EF90DF9073
:10111000CF900C94010843E050E00111BCCFEFCF19
:1011200050E040E0ECCF8F929F92AF92BF92CF926F
:10113000DF92EF92FF92CF93DF93EFEFE60FEC0198
:10114000C12CD12C7601EF3FE9F08990912CB12C84
:10115000A12CF0E061E070E080E090E0FE1741F04B
:10116000AAE0B0E09B01AC010E947337FF5FF6CFAD
:10117000A50194010E94A038C60ED71EE81EF91ED4
:10118000E150E1CFC701B601DF91CF91FF90EF9021
:10119000DF90CF90BF90AF909F908F900895862F53
:1011A000642F0C941B03862F642F0C94ED02862F62
:1011B0000C94C4022F923F924F925F926F927F9253
:1011C0008F929F92AF92BF92CF92DF92EF92FF9257
:1011D0000F931F93CF93DF93CDB7DEB72C970FB646
:1011E000F894DEBF0FBECDBF9C878B8784599F4F7D
:1011F0009A83898381E0A981BA818C930E94AE038E
:10120000EB85FC85E45AFF4FFC83EB830081118161
:1012100022813381AB01BC01401B510B620B730B6C
:10122000EB85FC85E859FF4F80819181B0E0A0E01B
:1012300084179507A607B70708F037C110E0CB84DD
:10124000DC84F6E6CF0ED11CEB84FC8422E6E20EB1
:10125000F11CD6018C91181758F4D701ED91FC912F
:10126000E10FF11D62E080810E941B031F5FF1CF3F
:10127000312C4B845C84B7E64B0E511CEB84FC8410
:10128000E4E6EE0EF11C812C912C540183942B8505
:101290003C852E593F4F3A872987D2018C913816C9
:1012A00008F063C0032D10E0D701ED91FC91E00F31
:1012B000F11F61E080810E941B03D701ED91FC9139
:1012C000E00FF11F60E080810E94ED02D501C401B2
:1012D000032C04C0880F991FAA1FBB1F0A94D2F7C2
:1012E0009E838D83FC01E095F095F887EF83212C98
:1012F000D6018C91281620F5622C712CA985BA850F
:10130000ED91FC91E60DF71D80810E94C402660CF0
:10131000771CEB85FC85E60DF71D892B51F4808544
:1013200091852D813E81822B932B918780872394F9
:10133000DFCF80859185AF81B8858A239B23F5CF48
:10134000D701ED91FC91E00FF11F61E080810E94D7
:10135000ED02F70180819181080F191F60E0D8012B
:101360008C910E941B03339498CF0B851C85C80178
:10137000CC9678012FEF3FEFF701478D50A1452B19
:1013800021F4148E368F258F11A2F6E0EF0EF11C9A
:10139000E816F90689F7A12C96E0392E8B849C84F7
:1013A00020E6820E911CD6018C91A81608F05AC036
:1013B000B12C6A2C712CB4E06B0E711C660C771C7E
:1013C000EB85FC856E0E7F1ED2018C91B81608F05D
:1013D00047C0F301408151810B2C02C056954795BF
:1013E0000A94E2F7A89EC00111248B0D911DEB8594
:1013F000FC8560E0258D368D8217930709F473C054
:101400006F5F36966A30B1F740FF28C0EB85FC85E8
:1014100070E060E0248D21111BC0369EF001379EE4
:10142000F00D11242B853C85E20FF31FD4012D9183
:101430003C91D901A80FB91F2C91248F968F858FCD
:1014400010A2178E41E08B859C850E942C0806C057
:101450006F5F7F4F36966A307105E1F6B394B4CF73
:10146000A394A1CFD12CF80181A18111D82E0A5FBC
:101470001F4FE016F106B9F70E94AE03AB81BC81A5
:101480006D937D938D939C931397DD2071F0EB8585
:10149000FC8581A1882349F0878D90A1019729F4CB
:1014A000848D811106C08FEF05C0A981BA811C927D
:1014B000FACF81532C960FB6F894DEBF0FBECDBF86
:1014C000DF91CF911F910F91FF90EF90DF90CF9020
:1014D000BF90AF909F908F907F906F905F904F9054
:1014E0003F902F9008954170AECFDC011C92119671
:1014F0001C9211971296ED91FC9113973197EA3057
:10150000F10508F070C08827E757F54F8F4F0C940E
:101510001939930AB40ACD0A930AB40ACD0A930A78
:10152000B40ACD0AEE0ACD01CC96FD0112962D919A
:101530003C9113972730310591F41582148216825D
:1015400017823496E817F90789F7FD01E05CFF4F31
:10155000A25ABF4F1192EA17FB07E1F708951482D0
:10156000158216821782EDCFFD01CD0188589F4F5D
:1015700012962D913C9113972830310549F415822C
:101580001482168217823496E817F90789F70895AE
:101590001482158216821782F6CFCD01CC96FD01FA
:1015A00012962D913C9113972930310591F41582B3
:1015B0001482168217823496E817F90789F7FD011D
:1015C000E05CFF4FA15BBF4F1192EA17FB07E1F709
:1015D00008951482158216821782EDCF14961C92FC
:1015E000149715961C920895FC01848180FF05C014
:1015F000128A84FF0AC0638B089581FF03C0269579
:10160000228BF7CF82FFF5CFFBCF85FF04C0469535
:10161000460F438B02C086FDFBCF08950F931F93A7
:10162000CF93DF9320918B102F5F322F3770309341
:101630008B1020FF2BC020E831FD2064347009F0AE
:101640002062205FFC01EC01239600E011E0678539
:10165000662329F070E0C8010E94C4386F5F61877B
:10166000822F869F080E80E0811D1124811110C0F9
:101670001682662311F0615061873196EC17FD07E1
:1016800031F7DF91CF911F910F91089520E0D4CFD2
:1016900081508683EECF4F925F927F928F929F927E
:1016A000AF92BF92CF92DF92EF92FF920F931F9370
:1016B000CF93DF932C01EB010E945703F20126899F
:1016C0003789621B730B6A307105B0F3F8948A8115
:1016D0009B81181619060CF0CDC1E881F9816EB115
:1016E000862E689484F83EB13F7E3EB9D9848E81BF
:1016F0002D2D281B822F2E834C85042E000C550B7C
:10170000AA81BB817F85F888E9887F5FF394E394A1
:101710009F819884BA84AB841081C12C6C2D0C2DD0
:101720002C2D2081112788942111280F08F42FEFE8
:101730008195889470FD120F1795889471FD120F92
:101740001795889472FD120F1795889473FD120FE8
:101750001795889474FD120F1795889475FD120FD4
:101760001795889476FD120F1795889477FD120FC0
:1017700017958894622F7111612F8D0D162F002CF3
:101780008EB800C000C017FF3EB92181662788943B
:1017900000C0002C3EB92111290F00C0002C8EB8CA
:1017A00000C000C016FF3EB908F42FEF9195889451
:1017B00000C0002C3EB9F0FC620F00C0002C8EB8B7
:1017C00000C000C015FF3EB967958894F1FC620F18
:1017D00000C0002C3EB96795889400C0002C8EB8DC
:1017E00000C000C014FF3EB9F2FC620F67958894F8
:1017F00000C0002C3EB9F3FC620F00C0002C8EB874
:1018000000C000C013FF3EB967958894F4FC620FD6
:1018100000C0002C3EB96795889400C0002C8EB89B
:1018200000C000C012FF3EB9F5FC620F67958894B6
:1018300000C0002C3EB9F6FC620F00C0002C8EB830
:1018400000C000C011FF3EB967958894F7FC620F95
:1018500000C0002C3EB96795889400C0002C8EB85B
:1018600000C000C010FF3EB9122FF110162F9B0DC3
:1018700000C0002C3EB900C000C0002C8EB800C0D3
:1018800000C017FF3EB922816627889400C0002C53
:101890003EB92111290D00C0002C8EB800C000C037
:1018A00016FF3EB908F42FEFE40FF51F00C0002C1F
:1018B0003EB9E0FC620F00C0002C8EB800C000C032
:1018C00015FF3EB967958894E1FC620F00C0002CBB
:1018D0003EB96795889400C0002C8EB800C000C047
:1018E00014FF3EB9E2FC620F6795889400C0002C9B
:1018F0003EB9E3FC620F00C0002C8EB800C000C0EF
:1019000013FF3EB967958894E4FC620F00C0002C79
:101910003EB96795889400C0002C8EB800C000C006
:1019200012FF3EB9E5FC620F6795889400C0002C59
:101930003EB9E6FC620F00C0002C8EB800C000C0AB
:1019400011FF3EB967958894E7FC620F00C0002C38
:101950003EB96795889400C0002C8EB800C000C0C6
:1019600010FF3EB9122FE110162F919400C0002CE9
:101970003EB99A0C00C000C08EB800C000C017FF6E
:101980003EB920816627889400C0002C3EB9211101
:10199000280F00C0002C8EB800C000C016FF3EB952
:1019A00008F42FEF8195889400C0002C3EB970FD9B
:1019B000620F00C0002C8EB800C000C015FF3EB9F9
:1019C0006795889471FD620F00C0002C3EB9679541
:1019D000889400C0002C8EB800C000C014FF3EB92F
:1019E00072FD620F6795889400C0002C3EB973FDAC
:1019F000620F00C0002C8EB800C000C013FF3EB9BB
:101A00006795889474FD620F00C0002C3EB96795FD
:101A1000889400C0002C8EB800C000C012FF3EB9F0
:101A200075FD620F6795889400C0002C3EB976FD65
:101A3000620F00C0002C8EB800C000C011FF3EB97C
:101A40006795889477FD620F00C0002C3EB96795BA
:101A5000889400C0002C8EB800C000C010FF3EB9B2
:101A6000122F7111162F8D0D00C0002C3EB9119749
:101A700009F086CEEA81FB812EE130E0DF010E9491
:101A8000213930E020E0A901AAE9EA9F0E0E411DAC
:101A9000FA9F400D511D11244F0F511DDC01CB0148
:101AA000840F951FA11DB11D893E43E09407A10538
:101AB000B10508F434C0885E9340A109B10942E041
:101AC000B695A795979587954A95D1F747E0849F56
:101AD000080E211D949F200D311D1124290F311D49
:101AE00060918A1070E0860F971F820F931F4091BC
:101AF0008711509188116091891170918A11292F55
:101B00003327420F531F611D711D4093871150935E
:101B100088116093891170938A1180938A10789448
:101B20000E945703F201778B668BDF91CF911F9153
:101B30000F91FF90EF90DF90CF90BF90AF909F906C
:101B40008F907F905F904F90089580E991E0089585
:101B50006C9A08956F927F928F92CF92DF92EF925C
:101B6000FF920F931F93CF93DF93CDB7DEB76297AA
:101B70000FB6F894DEBF0FBECDBF8C016B017A01AA
:101B8000822FA801475F5F4FB8016A5F7F4F0E94B5
:101B9000FE043B01882ED8011C962C91C701F7FE4C
:101BA00004C0882799278E199F09DA82C9829C83ED
:101BB0008B839E838D83688A798A8A8A213049F54E
:101BC000CE0101960E940E0B83E08D871F861E8634
:101BD000F7FE02C08DEF8D87D801ED91FC91008852
:101BE000F189E02DBE016F5F7F4FC80119956296A4
:101BF0000FB6F894DEBF0FBECDBFDF91CF911F911E
:101C00000F91FF90EF90DF90CF908F907F906F902B
:101C100008951C861B861A86198618861F82D4CFC3
:101C2000CF92DF92EF92FF920F931F93CF93DF93A8
:101C3000CDB7DEB762970FB6F894DEBF0FBECDBF4B
:101C40008C016B017A01822FA801475F5F4FB801B9
:101C50006A5F7F4F0E94FE049B01482FD8011C96AB
:101C60008C91DA82C982FC82EB82FE82ED82288B23
:101C7000398B4A8B813009F5CE0101960E940E0BFB
:101C80001D861F861E86D801ED91FC910088F18982
:101C9000E02DBE016F5F7F4FC801199562960FB6A8
:101CA000F894DEBF0FBECDBFDF91CF911F910F9192
:101CB000FF90EF90DF90CF9008951C861B861A86C8
:101CC000198618861F82DCCF0895E8EEF2E091E0D5
:101CD00090838FEF83831482E6E1F2E09083838325
:101CE0001482EDEBF3E0908383831482EFE8F4E059
:101CF000908383831482E9EBF7E0908383831482DB
:101D000080938910EEE6F6E0908383831482089531
:101D100090E080E00895FC0164870895FC018685C9
:101D200097850895CF93DF93EC0118820E94AE034C
:101D30006D837E838F839887DF91CF9108950F9372
:101D40001F93CF93DF93EC016623F1F00E94AE0363
:101D5000AB01BC018D819E81AF81B88509811A815B
:101D60002B813C81800F911FA21FB31F21E04817D8
:101D700059076A077B0708F420E028838881DF91F0
:101D8000CF911F910F9108950E94920EF7CF0F935C
:101D90001F93CF9326E0FB013296DC01129601904F
:101DA0000D922A95E1F728EE3AE0FC013183208379
:101DB00024E1FB013896DC01189601900D922A95DA
:101DC000E1F79C01245E3F4FAB01445E5F4F890108
:101DD000045C1F4FC6E0FA01D90101900D92CA952B
:101DE000E1F72A5F3F4F4A5F5F4F2017310791F7B6
:101DF000FB01E85AFF4F0081118122813381FC01F0
:101E0000E85AFF4F0083118322833383FB01E45A96
:101E1000FF4F0081118122813381FC01E45AFF4F81
:101E20000083118322833383FB01E05AFF4F20811B
:101E30003181FC01E05AFF4F31832083FB01EE59D1
:101E4000FF4F20813181FC01EE59FF4F3183208308
:101E5000FB01EC59FF4F20813181FC01EC59FF4F10
:101E6000318320833296DB01AA59BF4F2D913C91DB
:101E700031832083FB01E859FF4F20813181FC0130
:101E8000E859FF4F31832083FB01E659FF4F208142
:101E90003181FC01E659FF4F31832083FB01E45976
:101EA000FF4F2081FC01E459FF4F208363597F4F8E
:101EB000FB012081318183599F4FFC0131832083B5
:101EC000CF911F910F910895FC01DB0112968D9126
:101ED0009C911397938382838CED9AE09183808306
:101EE00014968C911497848315968C9115978583FD
:101EF00016968C911697868317968C9117978783E1
:101F000018968C911897808719968C9119978187CC
:101F10001A968C911A9782871B968C9183870895C5
:101F2000089590E080E008950F931F93CF938C0164
:101F3000C62F0E941A076C2F6460C8010E941A07FE
:101F40006C2F6B7FC8010E941A0783EC90E0019709
:101F5000F1F7CF911F910F9108950F931F93CF9396
:101F6000DF938C01D62FC42F607F642B0E94940FC7
:101F700080E1D89FB00111246C2BC801DF91CF9173
:101F80001F910F910C94940F41E00E94AD0F81E0DE
:101F900090E00895EF92FF920F931F93CF93DF93FA
:101FA0008C017B01D0E0C0E0F701EC0FFD1F6491D4
:101FB000662331F041E0C8010E94AD0F2196F4CFB5
:101FC000CE01DF91CF911F910F91FF90EF90089577
:101FD000CF93DF9300D000D01F921F92CDB7DEB712
:101FE00028E0EBE3FAE0DE01119601900D922A95CC
:101FF000E1F7FC012085241710F44FEF420F50E069
:10200000440F551F21E030E02C0F3D1F420F531F9E
:10201000FA012081620F606840E028960FB6F894BC
:10202000DEBF0FBECDBFDF91CF910C94AD0FCF932C
:10203000DF93EC0140E06CE00E94E80F64EE71E099
:10204000CE01DF91CF910C94CA0F40E061E00E9475
:10205000AD0F8BE39FE10197F1F70895FB0101902C
:102060000020E9F73197AF01461B570BDC01ED91DA
:10207000FC910280F381E02D19948F929F92AF9290
:10208000BF92EF92FF920F931F93CF93DF93CDB741
:10209000DEB7A1970FB6F894DEBF0FBECDBF7C01AF
:1020A0009A01AB0119A28E010F5D1F4F8AE0882EA5
:1020B000912CA12CB12CCA01B901A50194010E9457
:1020C000D838605DF80162938F0121153105410513
:1020D000510589F790E080E0309721F0BF01C701FA
:1020E0000E942E10A1960FB6F894DEBF0FBECDBF92
:1020F000DF91CF911F910F91FF90EF90BF90AF9024
:102100009F908F900895CF93DF93BC0181E494E179
:102110000E942E10EC0161E07BE081E494E10E94DA
:102120002E108C0F9D1FDF91CF9108954F925F92DB
:102130006F927F929F92AF92BF92CF92DF92EF9277
:10214000FF920F931F93CF93DF93CDB7DEB7E09746
:102150000FB6F894DEBF0FBECDBF982EF62E8A01C3
:10216000462F50E088E0BE016F5F7F4F5B01DB01CF
:10217000E82F1D92EA95E9F7FE013996DF01682FF5
:102180001D926A95E9F73896DF01682F1D926A95CE
:10219000E9F73896DF01682F1D926A95E9F73896BE
:1021A000DF01682F1D926A95E9F73896DF011D92CD
:1021B0008A95E9F7CA01BC01641B750B8217930766
:1021C00018F4840F951FF7CF261B370BB90190E049
:1021D00080E00E9454362B013C016F2D70E090E0AE
:1021E00080E00E9454369B01AC01C301B2010E9401
:1021F000FA376B017C01B1E09B1661F0E2E09E16BC
:1022000009F4AFC084E09BE00E948310C12CD12C64
:10221000760140C02BEA3AEA4AEA5EE30E944F3672
:1022200087FF12C08FEF8A838D8388E0F501A2EAD1
:10223000B0E101900D928A95E1F720E030E040E4B2
:1022400050E4C701B60122C02BEA3AEA4AE25FE352
:10225000C701B6010E944F3687FF72C08FEF8B8790
:102260008E8788E0FE013996A2EAB0E101900D92D6
:102270008A95E1F72BEA3AEA4AEA5EE3C701B6013A
:102280000E948D3720E030E040E450E40E94B536F3
:102290006B017C01B090A6106091A2106B19770BB6
:1022A000072E000C880B990B0E945636A701960149
:1022B0000E94B5360E946C386B0DD8016C93B090BB
:1022C000A7106091A3106B19770B072E000C880BD9
:1022D000990B0E945636A70196010E94B5360E94BE
:1022E0006C386B0DF8016183B090A8106091A41058
:1022F0006B19770B072E000C880B990B0E94563632
:10230000A70196010E94B5360E946C386B0DD8016A
:1023100012966C93E0960FB6F894DEBF0FBECDBF59
:10232000DF91CF911F910F91FF90EF90DF90CF90B1
:10233000BF90AF909F907F906F905F904F90089567
:102340008FEF898B8F8B88E0FE017196A2EAB0E156
:1023500001900D928A95E1F72BEA3AEA4AE25FE3AF
:102360008DCF2BEA3AEA4AEA5EE30E944F3687FFB6
:1023700007C08FEF8B8F8D8F88E0FE01799657CF46
:102380002BEA3AEA4AE25FE3C701B6010E944F3600
:1023900087FF07C08FEF8AA38FA388E0FE01B19665
:1023A00063CF8FEF89A78EA788E0FE01B996CECFC5
:1023B0002F923F924F925F926F927F928F929F9255
:1023C000AF92BF92CF92DF92EF92FF920F931F9343
:1023D000CF93DF9300D0CDB7DEB7FC017B016A015C
:1023E00022813381190144E0241A3108DC01A35809
:1023F000BF4F5C9159832330310519F026303105E8
:1024000029F4DF01A258BF4F8C918983DF01A458C2
:10241000BF4F6C90862C912CC601B4010E94B0383D
:10242000762E689D5001699DB00C112424014A0C40
:102430005B1C93E02916310408F014C177247394CF
:10244000760E09F40FC1472D50E0CA010197889E0E
:102450005001899EB00C989EB00C1124679C2001FD
:1024600011242530310509F4E8C0992493942630CD
:10247000310509F41EC1AF01470D511DCA01805C31
:102480009F4FDC018C918823A1F0B4E08B9FB001B9
:1024900011249B012E0F3F1F3B832A83992049F073
:1024A000DA01DF960C91B4E00B9F800111240E0F2E
:1024B0001F1F3981731608F071C04A815B81452B5B
:1024C00009F472C0992009F4A7C00115110509F497
:1024D0006BC0CA18DB08B60190E080E00E94543659
:1024E0003B014C014A185B08B20190E080E00E9479
:1024F00054369B01AC01C401B3010E94FA374B0171
:102500005C01D801DC90EA81FB8160816D19770B59
:10251000072E000C880B990B0E945636A5019401DA
:102520000E94B5360E946C386D0DD7016C93F8018E
:10253000D180AA81BB8111966C916D19770B072E02
:10254000000C880B990B0E945636A50194010E943D
:10255000B5360E946C386D0DF7016183D801129673
:102560001C91EA81FB816281611B770B072E000CB5
:10257000880B990B0E945636A50194010E94B5362E
:102580000E946C38610FD70112966C930DC0912C8C
:1025900072CF4A815B8184179507E1F4D7011D92C0
:1025A0001D921D921C9213970F900F900F90DF9128
:1025B000CF911F910F91FF90EF90DF90CF90BF9040
:1025C000AF909F908F907F906F905F904F903F90D3
:1025D0002F9008950196A9018617970750F42D9121
:1025E000240F352F311D2C153D0598F2782E290129
:1025F0005A01872D90E00196880F991F880F991F27
:102600009F01280F391F3B832A83992009F451CF5A
:102610008C01045011094BCFB3E02B16310420F28A
:10262000EA81FB818081D7018C93818111968C9303
:102630001197828112968C93B7CF9A012F5F3F4FEB
:10264000220F331F220F331F2E0F3F1F3B832A837E
:102650008A01000F111F000F111F0E0F1F1F992459
:10266000939427CF2330310519F1A0F4213031059F
:1026700009F48DCF22303105A9F4472D50E04F5F8A
:102680005F4F440F551F440F551F4E0F5F1F5B8355
:102690004A830CC02530310581F308F478CF263009
:1026A000310531F08FE19BE00E948310912C01CF26
:1026B000912CDF01A258BF4F6C9170E0CB010197C4
:1026C0009B838A8390E080E0DE9750E040E084CFF7
:1026D000FC01228133812A30310531F49A01AB01AA
:1026E000658184810C9496100C94D8114DE050E0D3
:1026F00007960C94533B0E942E3BFC0180819181F4
:10270000009711F00C94C4390895EF92FF920F9343
:102710001F93CF93DF93EC017B018A01888199811C
:10272000009729F02A813B812417350788F4B801E6
:102730006F5F7F4F0E944D3A009791F09983888395
:102740001B830A832C813D81232B11F4FC01108211
:102750001D830C83B701888199810E943C3B0CC08A
:1027600088819981009711F00E94C43919821882DA
:102770001D821C821B821A82CE01DF91CF911F9194
:102780000F91FF90EF900895EF92FF920F931F9398
:10279000CF93DF9300D000D000D0CDB7DEB78C014F
:1027A000862FF80111821082138212821582148200
:1027B0004AE09E012F5F3F4F7901B90190E00E94EE
:1027C0002536F70101900020E9F73197AF014E1946
:1027D0005F09B701C8010E94851329960FB6F894C6
:1027E000DEBF0FBECDBFDF91CF911F910F91FF9044
:1027F000EF900895CF93DF931F921F92CDB7DEB76E
:10280000FC01118210821382128215821482698364
:102810001A82BE016F5F7F4FFB0101900020E9F734
:102820003197AF01461B570B0E9485130F900F90F5
:10283000DF91CF9108950F931F93CF93DF9300D033
:1028400000D0CDB7DEB78C016A30C8F4CE01019656
:102850000E94C413BE016F5F7F4FC8010E94ED0349
:10286000CE0101960E947D1326960FB6F894DEBF26
:102870000FBECDBFDF91CF911F910F9108956A5088
:10288000653050F4E62FF0E0EB57F54F6081CE0154
:1028900001960E94FA13DECF66E4F9CF4F925F9261
:1028A0006F927F929F92AF92BF92CF92DF92EF9200
:1028B000FF920F931F93CF93DF93CDB7DEB72C9783
:1028C0000FB6F894DEBF0FBECDBF5C016B01F42ED6
:1028D000122FDB011A968C911A9751969C91519761
:1028E000E82FE91BFF0B1E171F0699F094F0891BB8
:1028F000089F800D112494E1981B892F14969C91B8
:10290000149791FF04C0869552968C9302C092FD55
:10291000FBCFF60167856117D8F480898017C0F472
:1029200043899685490F069F600D11249289890F6E
:10293000680FC5010E94E80FEE2009F441C06EE364
:1029400072E0C5010E94CA0FF60180898F5F808BFB
:10295000D60150968C915097801708F47FC05096FE
:102960001C9250971F969C901F97E110B8C0602F43
:10297000043008F063E0C6010B96F60126812F3F74
:1029800099F1FF24FA94F60EFC01412C512C3201EE
:102990004FEFF41669F1219130E050E040E0A0E003
:1029A00061E070E080E090E0FA1609F46DC0B4E0F8
:1029B000660F771F881F991FBA95D1F7AF5FF4CFC5
:1029C000D6015096EC91E33020F4EC0DFD2DF11D75
:1029D000F386B501CE0101960E94640F6F2DCE01E2
:1029E00001960E941B14B0CF0E9493082B013C015A
:1029F000D60119968C9190E0B0E0A0E08415950581
:102A0000A605B70508F44DC0F601808590E0B0E05A
:102A1000A0E0481659066A067B0608F442C0939463
:102A20009786E189EF5FD6015196EC9351975496C2
:102A30008D919C915597009779F11A962C912E17AC
:102A400058F1E80FF92FF11D31974082F601878583
:102A5000811720F0178686858F5F86872C960FB6A4
:102A6000F894DEBF0FBECDBFDF91CF911F910F91C4
:102A7000FF90EF90DF90CF90BF90AF909F907F90AE
:102A80006F905F904F9008950E94A038460E571E99
:102A9000681E791EFA947CCF8DE29BE00E94831021
:102AA000D5CFF12CE12C602E712C0F5FF6018785BC
:102AB000E614F70458F643899685490F6289089F02
:102AC000600D11246E0DC5010E94E80F6CE372E0E9
:102AD000C5010E94CA0FFFEFEF1AFF0AE7CF9394D8
:102AE0001F969C921F9751968C9151978F5F51968C
:102AF0008C93ACCF8F929F92AF92BF92CF92DF9286
:102B0000EF92FF920F931F93CF93DF93CDB7DEB772
:102B1000CF56D1090FB6F894DEBF0FBECDBF6C0102
:102B20005A01922EF02ECE0101960E94C70ECE01C0
:102B300001960E94DA08882E8FEF88122BC0009130
:102B4000BB0360918D100F3F29F110E0F501E60FF6
:102B5000F11DD801A758B54F8C9182836F0D4E2D72
:102B6000C6010E94E80FF801E359F54F6081CE01DC
:102B700001960E94FA13BE016F5F7F4FC6010E944B
:102B8000ED03CE0101960E947D1380918D108F5F21
:102B900080938D108092BB0380918D108330A0F0C4
:102BA00063E0C50102960E949308092D10E030E011
:102BB00020E00617170728073907D0F0F5016183D1
:102BC00081E0808310928D10C159DF4F0FB6F894C9
:102BD000DEBF0FBECDBFDF91CF911F910F91FF9050
:102BE000EF90DF90CF90BF90AF909F908F9008951F
:102BF0004E2D6F2DC6010E94E80F60E472E0C60101
:102C00000E94CA0FDFCFCF92DF92EF920F931F93F4
:102C1000CF93DF93CDB7DEB7CB57D1090FB6F8947A
:102C2000DEBF0FBECDBF6C01FA01102F8E2D42E02A
:102C3000E42E811102C093E0E92E90919D10911134
:102C400025C0CE0101960E94C70EB601CE01805963
:102C50009F4F0E94640F03E02FEF4DE950E1BE014A
:102C60006F5F7F4FCE0180599F4F0E947A15C558E4
:102C7000DF4F0FB6F894DEBF0FBECDBFDF91CF910F
:102C80001F910F91EF90DF90CF9008959091981041
:102C900091110FC0CE0101960E94C70EB601CE0160
:102CA00080599F4F0E94640F0AE02FEF48E950E1DE
:102CB000D6CF9091931091110FC0CE0101960E9432
:102CC000C70EB601CE0180599F4F0E94640F01E1EB
:102CD0002FEF43E950E1C3CF90918E10911113C0B3
:102CE000882389F0CE0101960E94C70EB601CE015D
:102CF00080599F4F0E94640F83E0E82E00E1212F4E
:102D00004EE850E1ACCF91E0938390919E10908378
:102D1000909199109183909194109283882321F03F
:102D200080918F10F901808310929D10109298105D
:102D30001092931010928E109ACFFC011182108283
:102D400013821282158214826115710551F0FB0104
:102D500001900020E9F73197AF01461B570B0C9407
:102D6000851308951F93CF93DF93CDB7DEB7689790
:102D70000FB6F894DEBF0FBECDBF162FBC01CE013B
:102D80000D960E94640FCE010D960E94251040E022
:102D900060E0CE010D960E94E80F63E17AE0CE017B
:102DA00001960E949D16BE016F5F7F4FCE010D966A
:102DB0000E94ED03CE0101960E947D13BE01635F68
:102DC0007F4FCE0101960E94640FCE0101960E94B2
:102DD000171041E060E0CE010D960E94E80F60E21E
:102DE0007AE0CE0101960E949D16BE016F5F7F4F73
:102DF000CE010D960E94ED03CE0101960E947D1337
:102E0000112311F142E060E0CE010D960E94E80F1F
:102E10006CEE73E0CE010D960E94CA0F43E060E0B5
:102E2000CE010D960E94E80F68ED73E0CE010D967D
:102E30000E94CA0F68960FB6F894DEBF0FBECDBFD2
:102E4000DF91CF911F91089543E060E0CE010D9690
:102E50000E94E80F63EC73E0E9CF8F929F92AF92EC
:102E6000BF92CF92DF92EF92FF920F931F93CF9377
:102E7000DF93CDB7DEB72C970FB6F894DEBF0FBE49
:102E8000CDBF7C014B015A0169010E94251040E031
:102E900060E0C7010E94E80FB401CE0101960E94D4
:102EA0009D16BE016F5F7F4FC7010E94ED03CE01EB
:102EB00001960E947D13B701CE0101960E94640F16
:102EC000CE0101960E94171041E060E0C7010E9408
:102ED000E80FB501CE0101960E949D16BE016F5FFD
:102EE0007F4FC7010E94ED03CE0101960E947D1322
:102EF00042E060E0C7010E94E80FB601CE010196F2
:102F00000E949D16BE016F5F7F4FC7010E94ED03B7
:102F1000CE0101960E947D1343E060E0C7010E944C
:102F2000E80FB801CE0101960E949D16BE016F5FA9
:102F30007F4FC7010E94ED03CE0101960E947D13D1
:102F40002C960FB6F894DEBF0FBECDBFDF91CF91A8
:102F50001F910F91FF90EF90DF90CF90BF90AF90B7
:102F60009F908F900895CF92DF92EF92FF920F93F0
:102F70001F93CF93DF93CDB7DEB72C970FB6F8949E
:102F8000DEBF0FBECDBF8C016B017A010E94251000
:102F9000B801CE0101960E94640FCE0101960E94F5
:102FA000171041E060E0C8010E94E80F64E472E09D
:102FB000C8010E94CA0F42E060E0C8010E94E80F09
:102FC000B601CE0101960E949D16BE016F5F7F4F34
:102FD000C8010E94ED03CE0101960E947D1343E0DB
:102FE00060E0C8010E94E80FB701CE0101960E947F
:102FF0009D16BE016F5F7F4FC8010E94ED03CE0199
:1030000001960E947D132C960FB6F894DEBF0FBE7A
:10301000CDBFDF91CF911F910F91FF90EF90DF9087
:10302000CF9008952F923F924F925F926F927F922E
:103030008F929F92AF92BF92CF92DF92EF92FF92C8
:103040000F931F93CF93DF93CDB7DEB7CC5FD1093A
:103050000FB6F894DEBF0FBECDBF5C016A01CE0192
:1030600080599F4F0E94C70EB501CE0185519F4FD9
:103070000E94640FD60116969C91169719968C9112
:103080009F3F49F48A3048F093E0F92E843638F4B3
:1030900082E0F82E04C08031D8F7FF24F3946F2D1E
:1030A00070E06F5F7F4F84E190E00E94C4384B0175
:1030B000F601818131E043E0882311F032E042E003
:1030C000D6011A968C91880D992D911D0197B40106
:1030D0000E94C438C650DF4F6883CA5FD04046178D
:1030E00008F42EC2C750DF4F8882C95FD040882DB8
:1030F000F89C800D112424E1281B461B632FC60178
:103100000E94F40ABE0160597F4FFE0131965F01B3
:10311000CF010E94C70EC5010E94DA08C550DF4FDB
:103120008883CB5FD0408F3F09F0F2C1E091BA03B2
:10313000EF3F09F4EDC180918C10D60116969C9159
:103140001697E9131FC0B1E0FB121AC0F601918572
:103150009A30B0F0811114C0BE0165517F4FC50196
:103160000E94640F0DE31BE022E53BE047E65BE0D5
:10317000B6016A5E7F4FC5010E942D17F0928C1038
:1031800010E00BC1882309F45CC1F0E0E758F54F6B
:10319000108119968C9119978950990B1817190657
:1031A0007CF7165F5496ED91FC9155973097A9F0F6
:1031B00051968C91AF01D50190E09D012A193B09F0
:1031C0002817390770F4FA012191AF012D939F015F
:1031D00021503109F9011082F0CF8BE79BE00E946A
:1031E0008310D6011E962D903D904D905C90519786
:1031F0005196BC91C450DF4FB883CC5FD040F601EC
:1032000016861786108A118ACE0185519F4F0E941B
:10321000251040E060E0CE0185519F4F0E94E80FED
:10322000B6016A5E7F4FCE0181529F4F0E949D166C
:10323000BE0161527F4FCE0185519F4F0E94ED0329
:10324000CE0181529F4F0E947D13BE0165517F4F79
:10325000CE0181529F4F0E94640FCE0181529F4F39
:103260000E941710D60111968C918823E1F041E05D
:1032700060E0CE0185519F4F0E94E80FB6016D5D61
:103280007F4FCE0181529F4F0E949D16BE01615219
:103290007F4FCE0185519F4F0E94ED03CE01815299
:1032A0009F4F0E947D13C950DF4FB982A882C75F2C
:1032B000D040C450DF4FB881CC5FD0406B2E712C12
:1032C000C950DF4F88819981C75FD0408A199B0917
:1032D0008615970520F5C950DF4FE881F981C75F52
:1032E000D0407190C950DF4FF983E883C75FD04069
:1032F000BE0165517F4FCE0181529F4F0E94640FE6
:10330000E12C0F2DC750DF4F2881C95FD040472DDA
:10331000B601CE0181529F4F0E944E14CACFD601F2
:103320001A968C9186151704E1F0D8F0BE0165510C
:103330007F4FCE0181529F4F0E94640FEE24E39491
:103340000F2DC750DF4F2881C95FD04040E0B60144
:10335000CE0181529F4F0E944E14BFEF6B1A7B0A21
:10336000DECFF60126863786408A518A8189048815
:10337000F589E02D309759F0D50190E09D012A198B
:103380003B092817390738F42D912193F7CF87E9A6
:103390009BE00E94831010928C1081E0F60121893D
:1033A0009285291708F080E0D60113962C91139787
:1033B00031E02327822390918C109327892309F4ED
:1033C000A7C01E968C91C650DF4FB881CA5FD0400F
:1033D0008B1708F09DC0BE0165517F4FCE01815211
:1033E0009F4F0E94640FE12C0F2D282D412FB60115
:1033F000CE0181529F4F0E944E14F6018281882394
:1034000009F486C0F1E0FF1283C0D6015496ED9115
:10341000FC915597309729F151968C91AF01D501C8
:1034200090E09D012A193B0928173907F0F4FA01A9
:103430002191AF012D939F0121503109F901108293
:10344000F0CF17968C9117978F3F31F0E81304C097
:1034500081E013968C9394CEF0E0E758F54F1081FD
:103460009CCF8BE79BE00E948310D6011E962D9087
:103470003D904D905C90519751966C90712CF60157
:1034800091898285981748F54501D60151969C91FE
:1034900051971A968C9194012A193B0926153705E4
:1034A00070F7981760F7F40111914F01BE01655153
:1034B0007F4FCE0181529F4F0E94640FE12C01E0AB
:1034C000C750DF4F2881C95FD040412FB601CE01E0
:1034D00081529F4F0E944E14D8CFD6012686378640
:1034E000408A518A0488F589E02D309769F0519619
:1034F0008C91D50190E09D012A193B0928173907C5
:1035000038F42D912193F7CF87E99BE00E94831037
:10351000C550DF4FB881CB5FD040B093BA03F601FE
:1035200091898285981718F48381882349F081E076
:10353000D60113968C93F60116861786108A118A87
:10354000C450DF4F0FB6F894DEBF0FBECDBFDF9182
:10355000CF911F910F91FF90EF90DF90CF90BF9090
:10356000AF909F908F907F906F905F904F903F9023
:103570002F900895BF92CF92DF92EF92FF920F9318
:103580001F93CF93DF93CDB7DEB7C250D1400FB6B4
:10359000F894DEBF0FBECDBF8C016A01CE01805909
:1035A0009F4F0E94C70EB801CE0189509F4F0E94C5
:1035B000640FCE0189509F4F0E94251040E060E0CB
:1035C000CE0189509F4F0E94E80FB6016A5E7F4F7F
:1035D000CE0101960E949D16BE016F5F7F4FCE0106
:1035E00089509F4F0E94ED03CE0101960E947D13EA
:1035F000BE0169507F4FCE0101960E94640FCE013B
:1036000001960E941710D60111968C918823D1F053
:1036100041E060E0CE0189509F4F0E94E80FB60163
:103620006D5D7F4FCE0101960E949D16BE016F5FBA
:103630007F4FCE0189509F4F0E94ED03CE0101962E
:103640000E947D13BE0160597F4FCE0101960E94FA
:10365000C70EBE0169507F4FCE0185519F4F0E941A
:10366000640FF601968181859F3F39F48A3038F0E6
:1036700013E0843628F412E003C08031E0F711E053
:10368000612F70E06F5F7F4F84E190E00E94C4384B
:103690009B01D60111968C91E2E042E0811102C0BB
:1036A000E1E043E0D6011A968C91820F932F911D91
:1036B0000197B9010E94C438F62E461778F1B22E50
:1036C000129F200D112484E1821B282F461B6E2F90
:1036D000C6010E94F40AF60186858F15C0F491890F
:1036E00082859817A0F4BE0165517F4FCE018152AB
:1036F0009F4F0E94640FEE24E394012F2B2D40E096
:10370000B601CE0181529F4F0E944E14E4CFD601E4
:103710001E961D921D921D921C925197CE5FDE4FF8
:103720000FB6F894DEBF0FBECDBFDF91CF911F91D2
:103730000F91FF90EF90DF90CF90BF900895CF92C0
:10374000DF92EF92FF920F931F93CF93DF93CDB74A
:10375000DEB7C359D1090FB6F894DEBF0FBECDBF97
:103760007C016B0180914007882309F46FC04DE014
:1037700050E065EC7BE086E597E00E94533B85E0F6
:10378000E3E4FAE0DE01A059BF4F01900D928A9563
:10379000E1F780E1E0E7F0E0EC0FFD1F3596DF0197
:1037A0001D928A95E9F74AE0BE016F567F4F83E08C
:1037B00090E00E941A3665E170E0CE0180599F4F7B
:1037C0000E940F3604E110E0A801481B590BBE010E
:1037D0006F567F4FCE0180599F4F0E94433B65E15A
:1037E00070E0CE0180599F4F0E940F36A801481B00
:1037F000590B6FEC7BE0CE0180599F4F0E94433BF9
:1038000045E150E0BE0160597F4F83E697E00E949A
:10381000533B8AE993E19093550780935407B6018F
:10382000CE0101960E94C70EB701CE018B579F4F64
:103830000E94640F40E457E0BE016F5F7F4FCE01EE
:103840008B579F4F0E94BA1A10924007B601CE01C3
:1038500001960E94C70EB701CE0180599F4F0E946A
:10386000640F40E457E0BE016F5F7F4FCE01805987
:103870009F4F0E941218CD56DF4F0FB6F894DEBF4F
:103880000FBECDBFDF91CF911F910F91FF90EF90B1
:10389000DF90CF9008959F92AF92BF92CF92DF9228
:1038A000EF92FF920F931F93CF93DF93CDB7DEB7C5
:1038B000A5970FB6F894DEBF0FBECDBF8C017B017C
:1038C000BC01CE0144960E94640FCE0144960E9432
:1038D000251040E060E0CE0144960E94E80FB70159
:1038E000695F7F4FCE0101960E949D16BE016F5FFA
:1038F0007F4FCE0144960E94ED03CE0101960E94B7
:103900007D13BE016C5E7F4FCE0101960E94640F55
:10391000CE0101960E941710F701268181E0233025
:1039200008F480E0F7019181892391E0243008F4C4
:1039300090E0892BF70182838823C1F042E062E1A5
:10394000CE0144960E94E80F63E372E0CE014496F4
:103950000E94CA0F43E062E1CE0144960E94E80F44
:1039600060E372E0CE0144960E94CA0FB801CE0116
:1039700044960E94640F01E010E083E1982E570105
:10398000F4E1AF0EB11CF70184819801280F311DBD
:1039900096819217130608F458C0C02ED82ED00E68
:1039A000402F60E0CE0144960E94E80F6D2DCE01BD
:1039B00080960E94C413BE01605E7F4FCE01449684
:1039C0000E94ED03CE0180960E947D13402F61E09E
:1039D000CE0144960E94E80F6AE372E0CE0144965D
:1039E0000E94CA0FF701828140E1811101C043E1C9
:1039F00050E02D2D2150330B929EB001939E700DFF
:103A000011246A0D7B1DCE0101960E94533B4C2D63
:103A100062E0CE0144960E94E80FBE016F5F7F4FC7
:103A2000CE0180960E949D16BE01605E7F4FCE0142
:103A300044960E94ED03CE0180960E947D130F5F95
:103A40001F4F0430110509F09ECFF701858190E0EA
:103A50000196348121E03817190609F020E081E051
:103A60000430110508F080E0282B99F1F7018181DD
:103A7000882379F1402F60E0CE0144960E94E80F40
:103A800068E372E0CE0144960E94CA0F402F61E0C5
:103A9000CE0144960E94E80F66E372E0CE014496A0
:103AA0000E94CA0F402F62E0CE0144960E94E80FA8
:103AB0006AED7BE0CE0180960E949D16BE01605E9D
:103AC0007F4FCE0144960E94ED03CE0180960E9466
:103AD0007D13A5960FB6F894DEBF0FBECDBFDF9164
:103AE000CF911F910F91FF90EF90DF90CF90BF90FB
:103AF000AF909F900895DF92EF92FF920F931F93E4
:103B0000CF93DF93CDB7DEB7CF56D1090FB6F89478
:103B1000DEBF0FBECDBF7C018A01CE0101960E949F
:103B2000C70ECE0101960E94DA08D82E8FEFD81268
:103B30000AC08091BC038F3F31F0F8015681851790
:103B400098F48F5F8383D092BC03C159DF4F0FB6C7
:103B5000F894DEBF0FBECDBFDF91CF911F910F91C3
:103B6000FF90EF90DF9008953181332311F08A3078
:103B700049F3893069F08B3091F0B701CE0101969D
:103B80000E94640FB801CE0101960E944B1CDBCF4E
:103B9000F8018481882389F381508483EECFF80172
:103BA0002581948181E0291708F480E041E05330B9
:103BB00008F440E08423832311F49217F0F69F5F0A
:103BC000F8019483DACF0F931F93CF93DF93CDB790
:103BD000DEB72C970FB6F894DEBF0FBECDBF8B01BA
:103BE000BC01CE0101960E94640FB801CE0101967E
:103BF0000E944B1C2C960FB6F894DEBF0FBECDBFB3
:103C0000DF91CF911F910F9108952F923F924F9284
:103C10005F926F927F928F929F92AF92BF92CF925C
:103C2000DF92EF92FF920F931F93CF93DF93CDB765
:103C3000DEB7CF50D1400FB6F894DEBF0FBECDBF78
:103C40008C017B016A01922EDA0112962D913C9132
:103C50005901B4E0AB1AB108E091100AF091110AD1
:103C6000E830F10508F063C78827E65CF14E8F4F16
:103C70000C941939421E681ECE1E241FC320FF213A
:103C800024227222109234140E9441020E9467057D
:103C900081E090E09093110A8093100AC15FDE4F9B
:103CA0000FB6F894DEBF0FBECDBFDF91CF911F914D
:103CB0000F91FF90EF90DF90CF90BF90AF909F90CB
:103CC0008F907F906F905F904F903F902F900895CE
:103CD00080ED97E0A0E0B0E08093080A9093090A95
:103CE000A0930A0AB0930B0A87E09AE00E94920E12
:103CF00011E0109335091093FD081093C508109337
:103D00008D0810938C08109200091092C808109228
:103D100090088FEF809338097601ECE7EE0EF11CE6
:103D2000D7011D921D921D921C921397C6010E94ED
:103D3000750AB4E09B1679F1B91558F0E2E09E16C9
:103D400079F0F3E09F16B1F08AEE9BE00E948310B9
:103D5000A5CF26E082E090E0291508F09BCFF4CFB4
:103D6000F601E358FF4F108382E3D7018C9387E07D
:103D700090E090CFF601E358FF4F82E0808389E125
:103D8000F7018083D60112968D919C91059779F762
:103D900082E38083ECCF84E090E07CCF8091350992
:103DA0008823A9F167EF7BE085E399E00E94761311
:103DB00083E1EFEFFBE0B3E0AB16B10410F0E2E11A
:103DC000FCE0DE01119601900D928A95E1F743E146
:103DD00050E0BE016F5F7F4F89E499E00E94533B42
:103DE00043E150E065E27CE08CE599E00E94533BC2
:103DF000B801CE0180599F4F0E94640F65E379E0BE
:103E0000CE0180599F4F0E94E31D10923509B701E2
:103E1000CE0101960E94C70EB801CE0180599F4F76
:103E20000E94640F45E359E0BE016F5F7F4FCE01F2
:103E300080599F4F0E947B1D809138098F3F09F464
:103E40002DCF83E090E026CF8091FD088823F1F00C
:103E5000809138098130E1F1823009F4D4C0B70192
:103E6000CE0101960E94C70EB801CE0184519F4F2A
:103E70000E94640F4DEF58E0BE016F5F7F4FCE018F
:103E800084519F4F0E94BA1A1092FD08B701CE01CB
:103E900001960E94C70EB801CE0180599F4F0E9423
:103EA000640F4DEF58E0BE016F5F7F4FCE01805928
:103EB0009F4F0E94121880913809813009F40FC178
:103EC000823009F43FC18DEA9CE00E94831022C138
:103ED0002430310509F474C008F062C02130310586
:103EE00009F46EC02230310509F065C04DE050E0A4
:103EF00064E37CE0CE0181529F4F0E94533B45E139
:103F000050E06AE37CE0CE0180599F4F0E94533B12
:103F10006DE070E0CE0181529F4F0E940F364CE061
:103F200050E0481B590BE3E0AE16B10408F056C050
:103F300060EA7DE0CE0181529F4F0E94433B65E1E4
:103F400070E0CE0180599F4F0E940F3644E150E04F
:103F5000481B590B63E87CE0CE0180599F4F0E94BB
:103F6000433B109205098EE1809306094DE050E035
:103F7000BE0161527F4F83E199E00E94533B45E1CE
:103F800050E0BE0160597F4F80E299E00E94533BB0
:103F9000C60183589F4F90931209809311095FCFF8
:103FA0002730310569F02830310509F49FCF2530DD
:103FB000310509F49BCF88E59CE00E948310A8CFCF
:103FC0004DE050E065E47CE0CE0181529F4F0E94BD
:103FD000533B45E150E06CE47CE095CF6AE87CE03F
:103FE000CE0181529F4F0E94433B65E170E0CE01BC
:103FF00080599F4F0E940F3644E150E0481B590BF7
:1040000060E97CE0A9CF4DE050E067E97CE083E126
:1040100099E00E94533B4AE0BE016C5F7E4F81E015
:1040200090E00E941A364AE0BE0168507F4F82E35A
:1040300090E00E941A3645E150E06FE97CE0CE0145
:1040400080599F4F0E94533B65E170E0CE0180593B
:104050009F4F0E940F3624E1822E912CA401481B11
:10406000590BBE016C5F7E4FCE0180599F4F0E945D
:10407000433B65E170E0CE0180599F4F0E940F36AF
:10408000A401481B590B65EA7CE0CE0180599F4F83
:104090000E94433B65E170E0CE0180599F4F0E9432
:1040A0000F36A401481B590BBE0168507F4FCE014B
:1040B00080599F4F0E94433B45E150E0BE0160594B
:1040C0007F4F80E299E00E94533B81E08093050995
:1040D00082E380930609C60184589F4F5CCFF601A6
:1040E000E358FF4F208130E050E040E0F3E0AF16AE
:1040F000B10430F42150330B032E000C440B550B4C
:1041000062E370E080E090E00E94D838F601E45865
:10411000FF4F208380910009882309F4BFCDD60189
:1041200012968D919C918430910509F434CE00F55E
:104130008130910509F42FCE029709F418CE8AEC4C
:104140009CE004CEF601E458FF4F208130E050E0BF
:1041500040E062E370E080E090E00E94D838F60131
:10416000E358FF4F33E0A316B10498F62F5FD1CF89
:104170008730910509F40FCE8830910509F4F7CD09
:104180000597E9F6F4CD8091C508882309F4EAC0C3
:1041900085E0E3E4FAE0DE01A059BF4F01900D9203
:1041A0008A95E1F780E1E0E7F0E0EC0FFD1F35963E
:1041B000DF011D928A95E9F72430310599F120F548
:1041C0002130310579F12330310539F54DE050E0EA
:1041D00064E07DE0CE0181529F4F0E94533B65E138
:1041E00070E0CE0180599F4F0E940F3644E150E0AD
:1041F000481B590B6CE07DE0CE0180599F4F0E9417
:10420000433BAFE09A2E53C02730310559F0293097
:104210003105E1F226303105C9F282E69DE00E94C7
:104220008310EFCF3601BDE76B0E711CF301808167
:10423000803108F08FE04AE0BE0168507F4F90E087
:104240000E941A364DE050E065E17DE0CE018152DA
:104250009F4F0E94533B65E170E0CE0180599F4F14
:104260000E940F36B4E18B2E912CA401481B590BF0
:10427000BE0168507F4FCE0180599F4F0E94433B43
:1042800065E170E0CE0180599F4F0E940F36A40176
:10429000481B590B66E17DE0CE0180599F4F0E947B
:1042A000433BD3019C90BFE0B91508F4AACF6DE061
:1042B00070E0CE0181529F4F0E940F364CE050E0DB
:1042C000481B590BE3E0AE16B10408F076C06CE170
:1042D0007DE0CE0181529F4F0E94433B65E170E03B
:1042E000CE0180599F4F0E940F3644E150E0481B99
:1042F000590B63E87CE0CE0180599F4F0E94433BFD
:104300004DE050E0BE0161527F4F8BED98E00E947E
:10431000533B45E150E0BE0160597F4F88EE98E085
:104320000E94533B9092CE08C60182589F4F9093B3
:10433000DA088093D908B701CE0101960E94C70E12
:10434000B801CE0184519F4F0E94640F45EC58E0A4
:10435000BE016F5F7F4FCE0184519F4F0E94BA1AFA
:104360001092C508B701CE0101960E94C70EB80190
:10437000CE0180599F4F0E94640F45EC58E0BE016A
:104380006F5F7F4FCE0180599F4F0E94121880911E
:10439000C808882309F482CCD60112968D919C918D
:1043A0008430910549F1F0F48130910529F10397AA
:1043B00009F4DDCC86E29DE0C9CC61E27DE0CE016E
:1043C00081529F4F0E94433B65E170E0CE018059CE
:1043D0009F4F0E940F3644E150E0481B590B60E9A3
:1043E0007CE089CF8730910539F08930910509F457
:1043F000BECC0697F9F6BBCC85E090E04BCC809123
:104400008C088823B1F0B801CE0101960E94640F98
:1044100003E01BE02DE33DE0A80160E57DE0CE0177
:1044200001960E942D1710928C0887E09AE00E9456
:10443000920E61E087E09AE00E949F0E882309F4C3
:104440002DCC86E090E026CC80918D08882381F1E8
:104450004DE050E060E57DE083EA98E00E94533B48
:10446000F601E258FF4F808180939608C601805C78
:104470009F4F9093A2088093A108319780818093E9
:104480009708B701CE0101960E94C70EB801CE0170
:1044900080599F4F0E94640F4DE858E0BE016F5F46
:1044A0007F4FCE0180599F4F0E94BA1A10928D08FB
:1044B000B701CE0101960E94C70EB801CE01805906
:1044C0009F4F0E94640F4DE858E0BE016F5F7F4F21
:1044D000CE0180599F4F0E9412188091900881113F
:1044E00046CCDCCBCE0180599F4F0E94C70EB8014D
:1044F000CE0188509F4F0E94640FD6011296ED9115
:10450000FC918F01045011095F01B7E0AB1AB108AB
:104510000330110508F026C3D601A158BF4F9C9166
:10452000992309F41FC38FEF890F41E03697F1F00B
:10453000692E712C2FEF621A720A660C771C660CBA
:10454000771C6C0C7D1C90E00196880F991F880FDA
:10455000991FA601480F591FC95FDE4F5983488331
:10456000C750D14041E021C080E040E0F601E15871
:10457000FF4F6080712CEFEF6E1A7E0A660C771C7D
:10458000660C771C6C0C7D1C442379F090E001963E
:10459000880F991F880F991F9601280F391FC95F2F
:1045A000DE4F39832883C750D1406114710409F468
:1045B000BBC2D60112968D919C918330910561F01A
:1045C0008930910549F086309105F9F4F601E158FA
:1045D000FF4F20812223C9F0F601E158FF4F60818F
:1045E00070E0FF9730E020E0F12CE12C2617370730
:1045F00058F55191E50EF11C2F5F3F4FF7CF8BE53A
:104600009DE00E94831040E0D0CF812CF12CE12C62
:10461000F30153815111E6C0F3E0AF16B10408F481
:1046200084C08091120A882309F459C023E09216AD
:1046300009F48DC0291558F032E09316E9F081EDA8
:104640009DE00E94831094C088248394E1CF46E0CB
:104650004915A8F34DE050E00330110508F0B6C04D
:104660006DE97DE0CE0181529F4F0E94533B45E1B1
:1046700050E066EA7DE078C04DE050E063E77DE021
:10468000CE0181529F4F0E94533B45E150E06AE7C3
:104690007DE0CE0101960E94533B4DE050E0BE010B
:1046A00061527F4F83E19AE00E94533B45E150E025
:1046B000BE016F5F7F4F80E29AE00E94533BBE01D4
:1046C00068507F4FCE0184519F4F0E94640F682D28
:1046D000CE0184519F4F0E94B2161092120ABE0161
:1046E00060597F4FCE0101960E94C70EBE016850EF
:1046F0007F4FCE0181529F4F0E94640F02E310E072
:104700000E191F090F3F110519F010F00FEF10E0FF
:10471000E82C960124583F4FA301BE016F5F7F4FE5
:10472000CE0181529F4F0E940316882009F4B6CA19
:10473000F601E158FF4FE081EC0DFD2DF11DE05C2D
:10474000FF4FD601A458BF4F8C918083A7CA4DE07C
:1047500050E069E87DE0CE0181529F4F0E94533BBB
:1047600045E150E06FE87DE0CE0101960E94533BA9
:10477000F601E158FF4F808190E04AE0BE016C5F96
:104780007E4F01960E941A3665E170E0CE010196D7
:104790000E940F3604E110E0A801481B590BBE012E
:1047A0006C5F7E4FCE0101960E94433B65E170E055
:1047B000CE0101960E940F36A801481B590B61E8F3
:1047C0007EE0CE0101960E94433B67CF67EB7DE020
:1047D000CE0181529F4F0E94533B45E150E060EC77
:1047E0007DE0C2CF21E02093120AF601E458FF4F8A
:1047F0002081622F70E0D601A158BF4FC75FDE4F06
:10480000B983A883C950D1409C90299D900111245F
:10481000A92DB0E0FD01319603301105B8F49920BF
:1048200009F497C18330910561F01197A69F80012B
:10483000A79F100DB69F100D1124290186309105F8
:1048400099F42701460E571E870115C0E69F2001E7
:10485000E79F500CF69F500C11248330910541F0D6
:104860008630910529F089018930910521F498015C
:1048700089019110E6CFB3E0AB16B10408F40ECA7B
:10488000D601A258BF4F2C912E171F0671F06CF065
:104890009C012350310922303105C0F18630910549
:1048A000A9F121E08130910509F020E0D601A3585B
:1048B000BF4F3C913E171F0639F034F0823091050E
:1048C00021F051E0059709F050E0211103C0552374
:1048D00009F4BDC0F801EE0FFF1FE00FF11F4111F9
:1048E00017C0E256FC4E0415150508F0A5C0D3010B
:1048F00012968C91129711969C9111972C9120836E
:10490000918382830F5F1F4F3396EDCF252FCECF3C
:104910009F0122563C4E19017801C201801B910B68
:104920009C0150E040E0C45FDE4F288339834A8316
:104930005B83CC50D140E414F50408F07DC0B7018E
:10494000601B710B90E080E00E9454364B015C01CB
:10495000C45FDE4F688179818A819B81CC50D140D0
:104960000E9454369B01AC01C501B4010E94FA3784
:104970004B015C01C95FDE4FA881B981C750D140AE
:104980001296DC90F30162816D19770B072E000CF3
:10499000880B990B0E945636A50194010E94B536EA
:1049A0000E946C38D60EC95FDE4FA881B981C7500E
:1049B000D1401196CC90F30161816C19770B072ED1
:1049C000000C880B990B0E945636A50194010E9499
:1049D000B5360E946C38C60EC95FDE4FA881B9811A
:1049E000C750D140BC91C55FDE4FB883CB50D1409A
:1049F000F30160816B1B770B072E000C880B990B62
:104A00000E945636A50194010E94B5360E946C386A
:104A1000C55FDE4F8881CB50D140860FD1018C938A
:104A20001196CC9211971296DC92BFEFEB1AFB0A0B
:104A3000E3E02E0E311C7FCF0E946705C75FDE4F7B
:104A4000E881F981C950D14080818F5F7ECED60147
:104A500011968C91811144C0C152DF4F1882198286
:104A60001A821B82CF5DD0400EE913E1F12CE12CBC
:104A7000A701BE0161527F4FC6010E94D811CF51DC
:104A8000DF4F8881C15ED040C052DF4F9881C05E49
:104A9000D040C152DF4F2881CF5DD040F801208344
:104AA00091838283FFEFEF1AFF0A0D5F1F4F22E30E
:104AB000E216F104E9F60E946705BE0168507F4FD7
:104AC000CE0101960E94640F4CEE5DE061E07EE055
:104AD000CE0101960E94B31781E0D60111968C9306
:104AE000BE0160597F4FCE0101960E94C70ECE01D4
:104AF00001960E94DA088F3FA1F4E0918B08EF3F06
:104B000081F0F0E0E758F54F9081911103C091E0FA
:104B1000F601908380938B081092110A1092100A6C
:104B2000BDC880938B08BAC885E19EE00FC98DE3AC
:104B30009EE00CC9F601E158FF4F6080712CFFEF39
:104B40006F1A7F0A660C771C660C771C6C0C7D1C38
:104B50005ACD83309105D1F444244394512C10E074
:104B600000E089CE3197E930F10508F048CD88277B
:104B7000E354FA4D8F4F0C9419399A259A25B42293
:104B80009A259A25B4229A259A25B422442443943E
:104B9000512C10E000E08630910509F065CEDCCFA5
:104BA0003F924F925F926F927F928F929F92AF92BD
:104BB000BF92CF92DF92EF92FF920F931F93CF930A
:104BC000DF93CDB7DEB7CE50D1400FB6F894DEBF3D
:104BD0000FBECDBF6C0149015A01023030F00430E4
:104BE000B0F082E090E00830A0F0E0909613F090F2
:104BF000971321E0E216F10489F032E0E316F104A4
:104C000009F426C28FE89EE00E9483101DC081E057
:104C100090E09093971380939613E7CFCE0180593D
:104C20009F4F0E94C70EB601CE0193950E94640F5C
:104C300080919813909199138130910509F441C0A6
:104C4000E0F0029709F4EAC0C25FDE4F0FB6F894B5
:104C5000DEBF0FBECDBFDF91CF911F910F91FF90AF
:104C6000EF90DF90CF90BF90AF909F908F907F900C
:104C70006F905F904F903F9008951092840781E06D
:104C80008093810710929B1310928F1110929011B4
:104C9000109291111092921184E690E0A0E0B0E0A1
:104CA0008093790790937A07A0937B07B0937C0752
:104CB00088E797E00E94920EF0929913E092981381
:104CC000C3CF80918107882309F477C04DE050E07D
:104CD00065E77EE087E997E00E94533B8FE0E8E5D7
:104CE000FAE0DE01A152BF4F01900D928A95E1F7E3
:104CF00086E0EFEDF0E0EC0FFD1F3F96DF011D9227
:104D00008A95E9F780919A134AE0BE01645F7E4F6D
:104D100090E00E941A3665E170E0CE0181529F4F0B
:104D20000E940F3604E110E0A801481B590BBE0198
:104D3000645F7E4FCE0181529F4F0E94433B65E1ED
:104D400070E0CE0181529F4F0E940F36A801481B90
:104D5000590B6DE77EE0CE0181529F4F0E94433B8D
:104D600045E150E0BE0161527F4F84EA97E00E9426
:104D7000533B83E993E19093960780939507809145
:104D80009A1380938B07BE0160597F4FCE01019625
:104D90000E94C70EBE017395CE018C509F4F0E949A
:104DA000640F41E857E0BE016F5F7F4FCE018C502A
:104DB0009F4F0E94BA1A10928107BE0160597F4F1F
:104DC000CE0101960E94C70EBE017395CE0181529D
:104DD0009F4F0E94640F41E857E0BE016F5F7F4F15
:104DE000CE0181529F4F0E94121880918407882320
:104DF00009F42ACF82E090E090939913809398135E
:104E0000BE017395CE0101960E94640F43E05BE002
:104E1000BA01CE0101960E94B31716CF00919B13E1
:104E2000C501B4010E9454366B017C01E02FF0E013
:104E3000ED56FC4E608170E090E080E00E945436B8
:104E400020E030E048EC52E40E94B5369B01AC0112
:104E5000C701B6010E94FA3720918F11309190114D
:104E600040919111509192110E948E374B015C013B
:104E7000E0909A13F12CC02ED12CBFEFCB1ADB0A95
:104E800020E030E040E85FE3C501B4010E949B38B8
:104E900087FD10C020E030E040E85FE3C501B401C9
:104EA0000E948D374B015C010F5FCE14DF041CF3B1
:104EB00000E0E1CF80928F1190929011A092911119
:104EC000B092921100939B130F5FCE14DF040CF08D
:104ED00000E061E088E797E00E949F0E882309F4D4
:104EE0008DC0A0909B13E0E8AE9E50011124950167
:104EF0002D563E4E590130E8039F800111240D5676
:104F00001E4EC152DF4F188219821A821B82CF5D5A
:104F1000D04019821A821B821C828EE9C82E83E13E
:104F2000D82EF12CE12CA701BE0161527F4FC501A3
:104F30000E946813A701BE016F5F7F4FC8010E94E6
:104F40006813CF51DF4F9880C15ED04040908F11E1
:104F50005090901160909111709092116B8169192D
:104F6000770B072E000C880B990B0E945636A30175
:104F700092010E94B5360E946C38960EC052DF4FE7
:104F80008880C05ED0406A816819770B072E000CBC
:104F9000880B990B0E945636A30192010E94B536E8
:104FA0000E946C38860EC152DF4F3880CF5DD040F2
:104FB00069816319770B072E000C880B990B0E94EF
:104FC0005636A30192010E94B5360E946C38360E07
:104FD000D6013C9211968C92119712969C92BFEF3B
:104FE000EB1AFB0AE3E0CE0ED11CF2E3EF16F1045C
:104FF00009F099CF88E797E00E94920E0E94AE03D5
:105000006B017C010E9467050E94AE039B01AC010D
:105010002C193D094E095F0969017A0136E0C31672
:10502000D104E104F10480F063E87EE081E494E1DE
:105030000E942E10B701A60181E494E10E943D1068
:105040008CE89EE00E94831081E080939D13FCCD4C
:10505000CE0180599F4F0E94C70EB601CE018C50E1
:105060009F4F0E94640F083008F0EECD89E090E079
:10507000053011F088E090E090931613809315139B
:10508000BE0160597F4FCE0101960E94C70EBE013E
:105090006C507F4FCE0181529F4F0E94640F22E0DF
:1050A000200F43E153E1BE016F5F7F4FCE0181527C
:1050B0009F4F0E94051EC8CDCF92DF92EF92FF92C4
:1050C0001F93CF93DF93CDB7DEB7CB57D1090FB680
:1050D000F894DEBF0FBECDBFFA013FEF320F343080
:1050E00020F546E050E0223031F044E050E024303A
:1050F00011F045E050E053834283122F7F016C0191
:10510000CE0101960E94C70EB601CE0180599F4F75
:105110000E94640F22E0210FA701BE016F5F7F4F45
:10512000CE0180599F4F0E94051EC558DF4F0FB614
:10513000F894DEBF0FBECDBFDF91CF911F91FF90DE
:10514000EF90DF90CF900895EF92FF920F931F930F
:10515000CF93DF93CDB7DEB7CB57D1090FB6F89415
:10516000DEBF0FBECDBF8C017B018091B9078823C4
:1051700009F453C063EA7EE089EB97E00E9476135E
:1051800043E150E06FEA7EE08DEC97E00E94533BF4
:1051900043E150E067EB7EE080EE97E00E94533BF6
:1051A00043E150E061EC7EE083EF97E00E94533BE7
:1051B00043E150E06FEC7EE086E098E00E94533BD4
:1051C00043E150E06BED7EE089E198E00E94533BC3
:1051D00043E150E065EE7EE08CE298E00E94533BB4
:1051E00043E150E065EF7EE08FE398E00E94533B9F
:1051F00043E150E063E07FE082E598E00E94533BAA
:10520000B801CE0101960E94640F69EB77E0CE01F0
:1052100001960E94E31D1092B907B701CE010196D5
:105220000E94C70EB801CE0180599F4F0E94640FA3
:1052300049EB57E0BE016F5F7F4FCE0180599F4F12
:105240000E947B1DC558DF4F0FB6F894DEBF0FBE1E
:10525000CDBFDF91CF911F910F91FF90EF900895F7
:10526000EF92FF920F931F93CF93DF93CDB7DEB7EB
:10527000CB57D1090FB6F894DEBF0FBECDBF8C015E
:105280007B0180916E06882399F16AE07FE08EE6CB
:1052900096E00E94761343E150E061E17FE082E80E
:1052A00096E00E94533B43E150E06BE17FE085E9EB
:1052B00096E00E94533B43E150E065E27FE088EADC
:1052C00096E00E94533B43E150E063E37FE08BEBC9
:1052D00096E00E94533BB801CE0101960E94640FF4
:1052E0006EE676E0CE0101960E94E31D10926E06F6
:1052F000B701CE0101960E94C70EB801CE018059B8
:105300009F4F0E94640F4EE656E0BE016F5F7F4FD5
:10531000CE0180599F4F0E947B1DC558DF4F0FB6AD
:10532000F894DEBF0FBECDBFDF91CF911F910F91DB
:10533000FF90EF900895CF92DF92EF92FF920F933C
:105340001F93CF93DF93CDB7DEB7CE50D1400FB6CA
:10535000F894DEBF0FBECDBF6C018A01F22E86E04D
:10536000821748F0A2E02A17E0F4B1E02B1749F0C9
:105370008BE79FE060C0E7E02E17E9F1F9E02F131B
:10538000F7CFC25FDE4F0FB6F894DEBF0FBECDBFC2
:10539000DF91CF911F910F91FF90EF90DF90CF9011
:1053A000089584E0281308C083E090E0D8011396A4
:1053B0009C938E9312970AC0B6E082E090E02B1384
:1053C000F5CF81E090E0FA0193838283CE010196CC
:1053D0000E94C70EB601CE0180599F4F0E94640FF4
:1053E0002F2DA801BE016F5F7F4FCE0180599F4FC7
:1053F0000E94051EC6CF8AE090E0FA019383828363
:10540000CE0180599F4F0E94C70EB601CE019395E1
:105410000E94640F80916C0690916D068230910518
:1054200009F497C058F4009709F478C1019709F47A
:105430007CC08EE69FE00E948310A3CF833091054D
:1054400009F4D2C00497A9F7F801818181114AC0FB
:10545000C152DF4F188219821A821B82CF5DD04061
:105460008EE9E82E83E1F82ED12CC12C9601AE01F5
:1054700041525F4FD80115966C91159714968C91F7
:105480000E949610CF51DF4F8881C15ED040C0523C
:10549000DF4F9881C05ED040C152DF4F2881CF5D81
:1054A000D040F701208391838283FFEFCF1ADF0A78
:1054B00083E0E80EF11CA2E3CA16D104B9F60E94FB
:1054C0006705BE017395CE0101960E94640F4CEEF4
:1054D0005DE061E07EE0CE0101960E94B31781E0BD
:1054E000F8018183BE0160597F4FCE0101960E9471
:1054F000C70ECE0101960E94DA088F3F99F4E09121
:105500006105EF3F79F0F0E0E758F54F9081911198
:1055100003C091E0D8019C9321E030E030936D0608
:1055200020936C06809361052CCF81E080939A05CF
:1055300080936205109265058FEF80939D05C801E9
:105540000E94750A82E090E090936D0680936C064D
:1055500018CF80919A05882321F16FE37FE08AE9D3
:1055600095E00E94761343E150E06BE47FE08EEA21
:1055700095E00E94533B43E150E063E57FE081EC1E
:1055800095E00E94533BBE017395CE0101960E94A7
:10559000640F6AE975E0CE0101960E94E31D109246
:1055A0009A05BE0160597F4FCE0101960E94C70E39
:1055B000BE017395CE0181529F4F0E94640F4AE94C
:1055C00055E0BE016F5F7F4FCE0181529F4F0E9419
:1055D0007B1D80919D058F3F09F4D3CED801149691
:1055E0008C9383E090E0B0CF80916205882309F42A
:1055F00073C04DE050E06BE57FE088E795E00E94E6
:10560000533B85E0E3E4FAE0DE01A152BF4F019095
:105610000D928A95E1F780E1EFEDF0E0EC0FFD1FD0
:105620003596DF011D928A95E9F74AE0BE01645F75
:105630007E4F82E390E00E941A3665E170E0CE0171
:1056400081529F4F0E940F3624E1E22EF12CA701D8
:10565000481B590BBE01645F7E4FCE0181529F4FA4
:105660000E94433B65E170E0CE0181529F4F0E9452
:105670000F36A701481B590B67E67FE0CE01815228
:105680009F4F0E94433B45E150E0BE0161527F4F76
:1056900085E895E00E94533B0B5F1F4F1093770501
:1056A00000937605BE0160597F4FCE0101960E949E
:1056B000C70EBE017395CE018C509F4F0E94640FA0
:1056C00042E655E0BE016F5F7F4FCE018C509F4F89
:1056D0000E94BA1A10926205BE0160597F4FCE0136
:1056E00001960E94C70EBE017395CE0181529F4F55
:1056F0000E94640F42E655E0BE016F5F7F4FCE010E
:1057000081529F4F0E94121880916505882309F4E9
:1057100038CE10926D0610926C0633CE109234146F
:105720000E9441020E94670584E090E00DCFEF9255
:10573000FF920F931F93CF93DF93CDB7DEB7CB5775
:10574000D1090FB6F894DEBF0FBECDBF8C017B012F
:1057500080918F04882399F16BE87FE08FE894E0D3
:105760000E94761343E150E065E97FE083EA94E02C
:105770000E94533B43E150E061EA7FE086EB94E016
:105780000E94533B43E150E06FEA7FE089EC94E0F4
:105790000E94533B43E150E06EEB7FE08CED94E0E0
:1057A0000E94533BB801CE0101960E94640F6FE83E
:1057B00074E0CE0101960E94E31D10928F04B701A0
:1057C000CE0101960E94C70EB801CE0180599F4FAD
:1057D0000E94640F4FE854E0BE016F5F7F4FCE011F
:1057E00080599F4F0E947B1DC558DF4F0FB6F8941C
:1057F000DEBF0FBECDBFDF91CF911F910F91FF9004
:10580000EF900895EF92FF920F931F93CF93DF9342
:10581000CDB7DEB7CB57D1090FB6F894DEBF0FBEB8
:10582000CDBF8C017B018091BD03882309F45BC04F
:105830006EEC7FE08DEB93E00E94761343E150E045
:105840006FEA7EE081ED93E00E94533B43E150E03C
:1058500066ED7FE084EE93E00E94533B43E150E02D
:1058600065E97FE087EF93E00E94533B43E150E01E
:1058700062EE7FE08AE094E00E94533B43E150E017
:105880006FEE7FE08DE194E00E94533B43E150E0F6
:105890006EEF7FE080E394E00E94533B43E150E0F1
:1058A0006EE070E183E494E00E94533B43E150E0FA
:1058B00066E170E186E594E00E94533B43E150E0ED
:1058C00063E07FE089E694E00E94533BB801CE019B
:1058D00001960E94640F6DEB73E0CE0101960E9469
:1058E000E31D1092BD03B701CE0101960E94C70EC1
:1058F000B801CE0180599F4F0E94640F4DEB53E0D9
:10590000BE016F5F7F4FCE0180599F4F0E947B1D6C
:10591000C558DF4F0FB6F894DEBF0FBECDBFDF9185
:10592000CF911F910F91FF90EF900895CF92DF924A
:10593000EF92FF920F931F93CF93DF93CDB7DEB714
:10594000C65FD1090FB6F894DEBF0FBECDBF9091F0
:105950008810992309F466C32091EB022F3F41F090
:10596000792F2A3031F071E08091EE02821708F031
:1059700070E0809119028F3F41F0692F8A3031F039
:1059800061E030911C02381708F060E08091C0039C
:105990008F3F41F0592F8A3031F051E03091C303ED
:1059A000381708F050E0809192048F3F41F0492F62
:1059B0008A3031F041E030919504381708F040E02A
:1059C0008091BC078F3F41F0392F8A3031F031E0B0
:1059D000E091BF07E81708F030E0E0918910E85047
:1059E000F1E0E73F08F0F0E0E0917106EF3F39F0B9
:1059F000EA3031F091E0809174068E1708F090E063
:105A0000235081E0243008F080E08F2B872B862BF9
:105A1000852B842B832B09F491110E94650E8091B4
:105A2000EB028F3F09F0F4C063E075E1CE018059CD
:105A30009F4F0E94C70E67EF74E1CE0185519F4FC3
:105A40000E94640F8091E802882309F445C06FE149
:105A500070E188EE92E00E94761343E150E06AE242
:105A600070E18CEF92E00E94533B43E150E069E328
:105A70007FE08FE093E00E94533B43E150E061E31D
:105A800070E182E293E00E94533B43E150E066E321
:105A900070E185E393E00E94533B43E150E06CE307
:105AA00070E188E493E00E94533B43E150E065E4F9
:105AB00070E18BE593E00E94533BBE0165517F4F3F
:105AC000CE0101960E94640F68EE72E0CE0101964D
:105AD0000E94E31D1092E802BE0160597F4FCE0183
