:100000000C9452040C9483040C9483040C94830485
:100010000C9483040C9483040C9483040C94830444
:100020000C9483040C9483040C9483040C94830434
:100030000C9483040C9483040C9483040C94830424
:100040000C9483040C9483040C9483040C94830414
:100050000C9483040C9483040C9483040C941E412C
:100060000C9483040C9492410C9468410C94830486
:100070000C9483040C9483040C9483040C948304E4
:100080000C9483040C9483040C9483040C948304D4
:100090000C9483040C9483040C9483040C94C84142
:1000A0000C9483040C9483040C9483040C948304B4
:1000B0000C9483040C9483040C9483040C948304A4
:1000C0000C9483040C9483040C9483040C94830494
:1000D0000C9483040C9483040C9483040C94830484
:1000E0000C9483040C94E8040C943B070C94EF0AE2
:1000F0000C94B8040C945D070C94C2040C94EC08A6
:100100000C940F090C94DE040C94E2070C94A304E5
:100110000C94DA040C94F8060C94B5040C941609AB
:100120000C9401100C94E3040C94F30A0C94F30661
:100130000C94ED080C94A9040C9488120C94D60429
:100140000C949B0F0C94C8040C94D0040C94E404FD
:100150000C946E110C9483080C94AD040C94F4066A
:100160000C948A100C94B1040C94DD110C94950736
:100170000C94EC420C94EB0A0C9490100C943F0DF0
:100180000C94F5060C94990F0C94FC080C944309FC
:100190000C942C070C94BE040C946F110C94CC049A
:1001A0000C9494100C944F070C948D1048483A4DC1
:1001B0004D20414D002D0030002376002A5E00487E
:1001C000483A4D4D20414D00414E494D4154494F13
:1001D0004E533A002D002376002A5E0048483A4DDF
:1001E0004D20414D00414E494D4154494F4E533AE7
:1001F000002D0030002376002A5E0048483A4D4D1D
:1002000020414D0053544152542050543A002D0087
:100210002376002A5E0048483A4D4D20414D005358
:10022000544152542050543A002A002A2A2A2A2A99
:100230002A2A2A2A2A2A2A2A2A2A2A2A2A2A2A0048
:100240005F5F5F5F5F5F00456E7465722050617332
:1002500073776F72643A002A2A2A2A2A2A2A2A2ABB
:100260002A2A2A2A2A2A2A2A2A2A2A002376002AFD
:100270005E002D0030002D005F005F00746F207065
:1002800069636B206D6F726520636F6C6F72732E84
:1002900000507265737320616E79206F74686572A7
:1002A000206B6579005072657373202730272069B1
:1002B0006620646F6E652E00202020202020636F52
:1002C0006E74696E756500202050726573732061CD
:1002D0006E79206B657920746F004D4F4E44415903
:1002E0002B2B20536D61727421204C454473002ADE
:1002F0002A2A2A2A2A2A2A2A2A2A2A2A2A2A2A2A5E
:100300002A2A2A0000002100240027002A002D00AC
:100310003000330001010000040107010A01000060
:100320002200250028002B002E003100340002019D
:100330000000050108010B01000020002300260039
:1003400029002C002F0032000001000003010601EB
:10035000090105050505070508080808020202024B
:100360000A0A080804040404010101010101010151
:100370000303030303030303040707070C0C0C0C1C
:100380000C0C0C0C02020202060606060606060605
:100390000B0B0B0B0B0B0B0B010210202008081092
:1003A00020401020408002010201080402010102E5
:1003B00004081020408080402010080402018004BE
:1003C0000201804020100804020108040201010219
:1003D0000408102040800102040810204080000022
:1003E0000A0B02090C0D0E080703040100000000AF
:1003F00000000000000000000000000000000000FD
:1004000000000000000000000000121110000000B9
:1004100000000000000000000000000000000000DC
:1004200000000000746F207069636B206D6F72654F
:1004300020636F6C6F72732E00507265737320614E
:100440006E79206F74686572206B657900507265F3
:1004500073732027302720696620646F6E652E0035
:10046000523A205F5F5F20473A205F5F5F20423A49
:10047000205F5F5F002843686F6F73652050617471
:1004800020436F6C6F72290048483A4D4D20414D12
:10049000005041545445524E3A0048483A4D4D2080
:1004A000414D00504154204F524445523A00464F6E
:1004B000523A204120422043204420452046005308
:1004C000454C4543543A20302031203220332034EB
:1004D0002035002853656C65637420486578204E8C
:1004E000756D626572290048483A4D4D20414D00B6
:1004F000504154204F524445523A005F205F205FE4
:10050000205F205F205F205F205F205F205F005F13
:10051000205F205F205F205F205F205F205F205FE3
:10052000205F005F205F205F205F205F205F205FF3
:10053000205F205F205F0050726573732023207757
:1005400068656E20646F6E65210048483A4D4D2005
:10055000414D00504154204F524445523A005F5F94
:1005600000205041545445524E53212900284D41FA
:1005700058200048483A4D4D20414D004E4F2E2006
:10058000504154533A005F5F5F00204C4544732153
:100590002900284D4158200048483A4D4D20414DF2
:1005A000004E4F2E204C4544733A005F5F002043BD
:1005B0004845434B505453212900284D41582000B1
:1005C00048483A4D4D20414D004E4F2E204348455E
:1005D000434B3A00322D4279204E756D6265722090
:1005E0004C45447300312D4279204E756D62657221
:1005F0002053656374696F6E730048483A4D4D200F
:10060000414D004D4554484F443A00746F20706985
:10061000636B206D6F726520636F6C6F72732E0059
:10062000507265737320616E79206F7468657220F3
:100630006B657900507265737320273027206966D7
:1006400020646F6E652E00523A205F5F5F20473A4C
:10065000205F5F5F20423A205F5F5F002850696340
:100660006B20436865636B707420436F6C6F7229F5
:100670000048483A4D4D20414D00455155414C3AB6
:10068000005F5F5F00204C454473212900284D41E5
:1006900058200048483A4D4D20414D004E4F2E20E5
:1006A0004C4544733A005F5F0020434845434B503C
:1006B0005453212900284D4158200048483A4D4DB7
:1006C00020414D004E4F2E20434845434B3A0032C7
:1006D0002D4279204E756D626572204C4544730041
:1006E000312D4279204E756D6265722043686563D5
:1006F0006B7074730048483A4D4D20414D004D4594
:1007000054484F443A00746F207069636B206D6FDA
:10071000726520636F6C6F72732E00507265737315
:1007200020616E79206F74686572206B6579005066
:10073000726573732027302720696620646F6E65A9
:100740002E004E756D626572206F66204C454473B5
:100750003A205F5F5F00523A205F5F5F20473A2098
:100760005F5F5F20423A205F5F5F00285069636BE4
:1007700020436865636B707420436F6C6F7229004F
:1007800048483A4D4D20414D00554E455155414C3C
:100790003A00523A205F5F5F20473A205F5F5F2058
:1007A000423A205F5F5F00285069636B20436865B1
:1007B000636B707420436F6C6F72290048483A4D28
:1007C0004D20414D00554E455155414C3A00746FF6
:1007D000207069636B206D6F726520636F6C6F7240
:1007E000732E00507265737320616E79206F746888
:1007F0006572206B6579005072657373202730270E
:1008000020696620646F6E652E00523A205F5F5F3C
:1008100020473A205F5F5F20423A205F5F5F0028F9
:1008200043686F6F736520326E6420436F6C6F7224
:10083000290048483A4D4D20414D00482026204887
:100840003A00523A205F5F5F20473A205F5F5F20A7
:10085000423A205F5F5F002843686F6F7365203105
:10086000737420436F6C6F72290048483A4D4D20D5
:10087000414D0048202620483A00523A205F5F5FF1
:1008800020473A205F5F5F20423A205F5F5F005061
:10089000726573732023207768656E20646F6E65C0
:1008A0002100EC4211241FBECFEFD1E2DEBFCDBF4D
:1008B00000E00CBF20E1A0EBBBE001C01D92AF3D0A
:1008C000B207E1F71BE0A0E0B2E0ECEFF5E900E0F1
:1008D0000BBF02C007900D92A03BB107D9F714E0FF
:1008E000C2E5D4E000E006C021970109802FFE0197
:1008F0000E94A848C135D10780E00807A9F70E94E7
:10090000BE430C94FC4A0C9400008150823108F0E4
:100910005AC0E82FF0E08827EF56FB4F8F4F0C941A
:10092000A848B104B504A304A904AD04E304B804C1
:10093000BE04C204C804CC04D004D604DA04E30420
:10094000DE04E404E804809180008F7780938000C7
:100950000895809180008F7DF9CF80918000877FFE
:10096000F5CF84B58F7784BD089584B58F7DFBCF97
:100970008091B0008F778093B00008958091B0008F
:100980008F7DF9CF809190008F77809390000895AC
:10099000809190008F7DF9CF80919000877FF5CF77
:1009A0008091A0008F778093A00008958091A0008F
:1009B0008F7DF9CF8091A000877FF5CF80912001B6
:1009C0008F77809320010895809120018F7DF9CF4A
:1009D00080912001877FF5CFCF93DF93282F30E0E0
:1009E000F901E252FC4F8491F901E856FC4FD49191
:1009F000F901EE5AFC4FC491CC23A1F081110E9461
:100A00008504EC2FF0E0EE0FFF1FE85CFC4FA59192
:100A1000B491EC91ED2381E090E009F480E0DF9166
:100A2000CF91089580E090E0FACF1F93CF93DF93AA
:100A3000282F30E0F901E252FC4F8491F901E85689
:100A4000FC4FD491F901EE5AFC4FC491CC23A9F08C
:100A5000162F81110E948504EC2FF0E0EE0FFF1F8E
:100A6000E25EFC4FA591B4918FB7F894EC9111110F
:100A700008C0D095DE23DC938FBFDF91CF911F910B
:100A80000895DE2BF8CFCF93DF9390E0FC01E8567A
:100A9000FC4F24918E5A9C4FFC0184918823C9F00D
:100AA00090E0880F991FFC01EC5FFC4FA591B49179
:100AB000FC01E25EFC4FC591D49161110DC09FB75E
:100AC000F8948C91209582238C9388812823288305
:100AD0009FBFDF91CF910895623051F49FB7F89492
:100AE0003C91822F809583238C93E8812E2BEFCF2E
:100AF0008FB7F894EC912E2B2C938FBFEACF3FB792
:100B0000F8948091A50C9091A60CA091A70CB0919F
:100B1000A80C26B5A89B05C02F3F19F00196A11D72
:100B2000B11D3FBFBA2FA92F982F8827BC01CD0137
:100B3000620F711D811D911D42E0660F771F881F96
:100B4000991F4A95D1F708958F929F92AF92BF92C5
:100B5000CF92DF92EF92FF924B015C010E947F05E2
:100B60006B017C010E947F056C197D098E099F092C
:100B7000683E734081059105A8F321E0821A91082F
:100B8000A108B10888EEC80E83E0D81EE11CF11C54
:100B900081149104A104B10429F7FF90EF90DF9034
:100BA000CF90BF90AF909F908F9008952FB7F894FB
:100BB0006091A10C7091A20C8091A30C9091A40C57
:100BC0002FBF0895AF92BF92CF92DF92EF92FF9224
:100BD0000F931F93CF93DF93D090471080914A10CB
:100BE00090914B10A0914C10B0914D10892B8A2BF5
:100BF0008B2BD9F00E947F050091A60F1091A70FB3
:100C00002091A80F3091A90F601B710B820B930BE1
:100C100000914A1010914B1020914C1030914D10C2
:100C20006017710782079307C8F20E947F056093DF
:100C3000A60F7093A70F8093A80F9093A90FE09130
:100C40005210F0915310309759F040914E1050913E
:100C50004F1060915010709151108D2D1995D82E14
:100C6000C091A40FD091A50F84E8E82E8FE0F82E54
:100C70008701209749F18FE0043A180729F18D8503
:100C80008823F1F0E881F981A284B3840680F7819A
:100C9000E02DCE011995BC01CE01F5011995F801A1
:100CA00091838083809148109091491084369105FA
:100CB00008F41C860C80DD81C02D0E5F1F4FD9CF3C
:100CC000F80111821082EECFC091A40FD091A50F30
:100CD00000E110E02097A9F08D85882361F04E8512
:100CE0005F856A817B81E881F9810280F381E02D53
:100CF0002D2DCE0119950C80DD81C02D01501109DB
:100D000049F7C091A40FD091A50F2097C9F0F4EA3C
:100D1000EF16FFE0FF06A1F08D85882351F0F70163
:100D200060817181E881F9810484F585E02DCE012F
:100D300019950C80DD81C02DF2E0EF0EF11CE5CF9E
:100D40008091820F9091830FEC012196D093830FB5
:100D5000C093820F4997E4F10E94D60500917E0F5F
:100D600010917F0F2091800F3091810F6B017C01DA
:100D7000C01AD10AE20AF30AA7019601211531052A
:100D80004105510521F421E030E040E050E088EEDB
:100D900093E0C89FB001C99F700DD89F700D1124BA
:100DA000072E000C880B990B0E948648309349103F
:100DB000209348101092830F1092820F0E94D60544
:100DC00060937E0F70937F0F8093800F9093810FBD
:100DD000DF91CF911F910F91FF90EF90DF90CF9017
:100DE000BF90AF9008950895089580E991E0089527
:100DF000AF92BF92CF92DF92EF92FF920F931F9329
:100E0000CF93DF936C017B018B01040F151FEB0166
:100E10005E01AE18BF08C017D10759F06991D6011D
:100E2000ED91FC910190F081E02DC6011995892B7F
:100E300079F7C501DF91CF911F910F91FF90EF904E
:100E4000DF90CF90BF90AF900895FB014481558112
:100E5000608171810C94F806FC01538D448D252F1F
:100E600030E0842F90E0821B930B541710F0CF9644
:100E7000089501970895FC01918D828D981761F076
:100E8000A28DAE0FBF2FB11D5D968C91928D9F5F8D
:100E90009F73928F90E008958FEF9FEF0895FC016C
:100EA000918D828D981731F0828DE80FF11D858D1F
:100EB00090E008958FEF9FEF0895FC01918D228DB2
:100EC000892F90E0805C9F4F821B91098F73992737
:100ED00008958AEA9FE00E945D0721E0892B09F4CA
:100EE00020E0822F0895FC01A48DA80FB92FB11D19
:100EF000A35ABF4F2C91848D90E001968F73992750
:100F0000848FA689B7892C93A089B1898C9183702D
:100F100080648C93938D848D981306C00288F38926
:100F2000E02D80818F7D80830895EF92FF920F9353
:100F30001F93CF93DF93EC0181E0888F9B8D8C8D85
:100F400098131AC0E889F989808185FF15C09FB779
:100F5000F894EE89FF896083E889F989808183703C
:100F6000806480839FBF81E090E0DF91CF911F91EB
:100F70000F91FF90EF900895F62E0B8D10E00F5F0C
:100F80001F4F0F731127E02E8C8D8E110CC00FB6E2
:100F900007FCFACFE889F989808185FFF5CFCE017A
:100FA0000E947307F1CFEB8DEC0FFD2FF11DE35A7B
:100FB000FF4FF0829FB7F8940B8FEA89FB898081FD
:100FC0008062CFCFCF93DF93EC01888D8823B9F077
:100FD000AA89BB89E889F9898C9185FD03C0808144
:100FE00086FD0DC00FB607FCF7CF8C9185FFF2CFC1
:100FF000808185FFEDCFCE010E947307E9CFDF919D
:10100000CF91089580E090E0892B29F00E94690734
:1010100081110E94000080E090E0892B49F080E07F
:1010200090E0892B29F00E94000081110E940000AD
:1010300080E090E0892B49F080E090E0892B29F056
:101040000E94000081110E94000080E090E0892B46
:1010500049F080E090E0892B29F00E940000811186
:101060000C9400000895AF92BF92CF92DF92EF925E
:10107000FF920F931F93CF93DF9300D0CDB7DEB7CE
:101080005A0119821A821B82882361F18B01E1E0E7
:10109000F0E0E82EF12CD8012D918D012223F1F002
:1010A0006F01B1E0CB1AD108D501AC0DBD1D4C913B
:1010B0004423A1F030E02F5F3F4FD7010E94ED465F
:1010C000A42FB0E011969B01AC010E94E246A1E082
:1010D000B0E0AC0FBD1FAC0DBD1D8C933196E4305C
:1010E000F105C9F669817A818B810F900F900F907D
:1010F000DF91CF911F910F91FF90EF90DF90CF90F4
:10110000BF90AF90089581E090E0089520912C0C5D
:10111000260F3327331F21323105ECF42091500C78
:10112000FC0190E080E0243069F082E00895A09115
:101130002C0C2191AC01445F534FA40FB52FB11D6E
:101140002C930196861798F380912C0C680F60936E
:101150002C0C80E0089581E008951092500C81E0FD
:101160008093520C1092510C61E084E10E941505AD
:1011700061E085E10E941505E9EBF0E080818E7F5A
:10118000808380818D7F808388E48093B80085E4AC
:101190008093BC000895CF93DF9391E090930B0C64
:1011A0008823B9F0C091B800D091BA008091BC00FA
:1011B0008A7B8093BC0060E084E10E94150560E0BA
:1011C00085E10E9415050E94AD08D093BA00C09336
:1011D000B800DF91CF9108950895E0919F0C809120
:1011E0009E0CE81730F4F0E0EA51F44F808190E073
:1011F00008958FEF9FEF089590919F0C80919E0C22
:101200002FEF3FEF981748F4E92FF0E0EA51F44F41
:10121000208130E09F5F90939F0CC90108958091D9
:101220009E0C90919F0C891B990B0895CF92DF9291
:10123000EF92FF920F931F93CF93DF937C01CB012B
:101240008A012091E50B222389F0EB016B01C40E8A
:10125000D51ECC15DD0569F06991D701ED91FC91A2
:101260000190F081E02DC7011995F3CF642F0E9402
:101270008608C801DF91CF911F910F91FF90EF90E9
:10128000DF90CF900895CF93DF931F92CDB7DEB755
:1012900069832091E50B2223F9F020919C0C2032E8
:1012A00058F021E030E0FC013383228390E080E0BD
:1012B0000F90DF91CF91089580919D0CE82FF0E081
:1012C000EB53F44F998190838F5F80939D0C8093B3
:1012D0009C0C81E090E0ECCF61E0CE0101960E9491
:1012E0008608F7CFCF92DF92EF92FF920F931F9372
:1012F000CF93DF93FC01C48121E02093E50BC093E1
:10130000C40B10929D0C10929C0C8385682B84E575
:1013100090E10E944309D0919C0CD13208F092C018
:101320000E947F056B017C018091500C811165C08A
:1013300082E08093500C81E08093520C8FEF809379
:101340004F0C1092740CD093730CA5ECBBE0E3E54A
:10135000FCE080E0D81385C01092750C8091750C6C
:10136000CC0FC82BC093750C8091510C813009F0C3
:101370007CC01092510C0E947F056B017C01809112
:10138000750C8093BB008091070C9091080CA09184
:10139000090CB0910A0C892B8A2B8B2B99F00E9497
:1013A0007F050091070C1091080C2091090C3091D9
:1013B0000A0C6C197D098E099F0906171707280763
:1013C0003907E0F18091BC0083FDD9CF85EC809393
:1013D000BC000E947F056B017C018091500C823023
:1013E00009F445C080914F0C8F3F61F180914F0C03
:1013F000803241F180914F0C25C08091070C909173
:10140000080CA091090CB0910A0C892B8A2B8B2B0C
:1014100009F48ACF0E947F050091070C1091080CF7
:101420002091090C30910A0C6C197D098E099F09D5
:10143000061717072807390708F076CF8091060CA2
:101440000E94CB0810929D0C10929C0C1092E50B00
:10145000DF91CF911F910F91FF90EF90DF90CF9090
:1014600008959D9191938F5F75CF85EEB0CF809158
:10147000070C9091080CA091090CB0910A0C892BD3
:101480008A2B8B2B09F4A9CF0E947F050091070CB2
:101490001091080C2091090C30910A0C6C197D09EF
:1014A0008E099F09061717072807390708F095CFF7
:1014B000C5CFCF93DF93DC0126E0629FA00DB11D65
:1014C000112490965C934E935F9721E091962C9314
:1014D0009197FC01E359FF4F0190F081E02DEC0161
:1014E000C459DF4F2881222341F0309719F0DC01E5
:1014F000662329F0DF91CF9108953097D9F35C9658
:101500008C91DF91CF911994CF92DF92EF92FF925D
:101510000F931F93CF93DF93EC01162F042FFC0141
:1015200086E0689FE00DF11D112411A2878D90A126
:101530008130910509F180F08230910509F443C0B2
:10154000039709F445C0DF91CF911F910F91FF9050
:10155000EF90DF90CF9008954423A9F341E050E04D
:10156000CE010E94590A0E94D605C85ADF4F6883EF
:1015700079838A839B83E7CF0E94D605FE01E85AD0
:10158000FF4FC080D180E280F380AB01BC014C19D9
:101590005D096E097F09729680819181B0E0A0E0BB
:1015A00084179507A607B70770F442E050E0612F53
:1015B000CE01DF91CF911F910F91FF90EF90DF90BF
:1015C000CF900C94590A43E050E00111BCCFEFCF0B
:1015D00050E040E0ECCF862F642F0C944305862F1B
:1015E000642F0C941505862F0C94EC042F923F92D7
:1015F0004F925F926F927F928F929F92AF92BF9223
:10160000CF92DF92EF92FF920F931F93CF93DF93CE
:10161000CDB7DEB72C970FB6F894DEBF0FBECDBFA7
:101620009C878B8784599F4F9A83898381E0A98106
:10163000BA818C930E94D605EB85FC85E45AFF4F56
:10164000FC83EB830081118122813381AB01BC01DA
:10165000401B510B620B730BEB85FC85E859FF4F68
:1016600080819181B0E0A0E084179507A607B707B5
:1016700008F04FC110E0CB84DC84F6E6CF0ED11C1D
:10168000EB84FC8422E6E20EF11CD6018C91181743
:1016900058F4D701ED91FC91E10FF11D62E08081DA
:1016A0000E9443051F5FF1CF312C4B845C84B7E669
:1016B0004B0E511CEB84FC84E4E6EE0EF11C812CF5
:1016C000912C540183942B853C852E593F4F3A87AA
:1016D0002987D2018C91381608F063C0032D10E0E1
:1016E000D701ED91FC91E00FF11F61E080810E9434
:1016F0004305D701ED91FC91E00FF11F60E080817F
:101700000E941505D501C401032C04C0880F991F40
:10171000AA1FBB1F0A94D2F79E838D83FC01E0951C
:10172000F095F887EF83212CD6018C91281620F5AF
:10173000622C712CA985BA85ED91FC91E60DF71DFF
:1017400080810E94EC04660C771CEB85FC85E60D1D
:10175000F71D892B51F4808591852D813E81822B47
:10176000932B918780872394DFCF80859185AF81EC
:10177000B8858A239B23F5CFD701ED91FC91E00F2B
:10178000F11F61E080810E941505F7018081918140
:10179000080F191F60E0D8018C910E944305339413
:1017A00098CF0B851C85C801CC9678012FEF3FEFB1
:1017B000F701478D50A1452B21F4148E368F258FCC
:1017C00011A2F6E0EF0EF11CE816F90689F7A12C3C
:1017D0008B849C8420E6820E911C96E0392ED601E3
:1017E0008C91A81608F058C0B12C6A2C712CB4E06A
:1017F0006B0E711C660C771CEB85FC856E0E7F1ED4
:10180000D2018C91B81608F045C0F3014081518196
:101810000B2C02C0569547950A94E2F7A89EC0018A
:1018200011248B0D911DEB85FC8560E0258D368D97
:101830008217930709F472C06F5F36966A30B1F76A
:1018400040FF26C0EB85FC8570E060E0248D21110F
:1018500019C0D401ED91FC91E80FF91F4081369E2B
:10186000F001379EF00D11242B853C85E20FF31F0C
:10187000448F968F858F10A2178E41E0C9010E9478
:10188000840A06C06F5F7F4F36966A307105F1F6A5
:10189000B394B6CFA394A3CFD12CD80191968C91B9
:1018A0008111D82E0A5F1F4FE016F106B1F70E9492
:1018B000D605EB81FC816083718382839383DD2075
:1018C00041F1AB85BC8591968C919197882309F164
:1018D0005F968D919C9190970197D9F45C968C912D
:1018E0002C960FB6F894DEBF0FBECDBFDF91CF911F
:1018F0001F910F91FF90EF90DF90CF90BF90AF902E
:101900009F908F907F906F905F904F903F902F901F
:101910000895E981FA81108280E0E2CF41708B85E1
:101920009C85ADCF8F929F92AF92BF92CF92DF9264
:10193000EF92FF92CF93DF93EFEFE60FEC01C12C14
:10194000D12C7601EF3FE9F08990912CB12CA12C9C
:10195000F0E061E070E080E090E0FE1741F0AAE086
:10196000B0E09B01AC010E94E246FF5FF6CFA5010B
:1019700094010E946248C60ED71EE81EF91EE1506F
:10198000E1CFC701B601DF91CF91FF90EF90DF90DB
:10199000CF90BF90AF909F908F9008950E94F60ACD
:1019A000882311F0815308958FEF0895CF93DF932B
:1019B000EC016AE070E080E090E00E94A405CE01B6
:1019C0000E94F60A8823D9F38153DF91CF910895BD
:1019D000FC01848180FF05C0128A84FF0AC0638BEA
:1019E000089581FF03C02695228BF7CF82FFF5CFA4
:1019F000FBCF85FF04C04695460F438B02C086FD92
:101A0000FBCF08950F931F93CF93DF932091C10BCA
:101A10002F5F322F37703093C10B20FF2BC020E88F
:101A200031FD2064347009F02062205FFC01EC017C
:101A3000239600E011E06785662329F070E0C80175
:101A40000E9472486F5F6187822F869F080E80E038
:101A5000811D1124811110C01682662311F061507E
:101A600061873196EC17FD0731F7DF91CF911F9118
:101A70000F91089520E0D4CF81508683EECF4F920E
:101A80005F927F928F929F92AF92BF92CF92DF929E
:101A9000EF92FF920F931F93CF93DF932C01EB01F3
:101AA0000E947F05F20126893789621B730B6A3019
:101AB0007105B0F3F8948A819B81181619060CF011
:101AC000CDC1E881F9816EB1862E689484F83EB16B
:101AD0003F7E3EB9DA848F812D2D281B822F2F83E4
:101AE0004C85042E000C550BAA81BB817889FF849C
:101AF000E9887F5FF394E3949E819884B984AB84F2
:101B00001181C12C6C2D0C2D2C2D21811127889435
:101B10002111280F08F42FEF8195889470FD120F82
:101B20001795889471FD120F1795889472FD120F06
:101B30001795889473FD120F1795889474FD120FF2
:101B40001795889475FD120F1795889476FD120FDE
:101B50001795889477FD120F17958894622F71114D
:101B6000612F8D0D162F002C8EB800C017FF3EB9C7
:101B700020816627889400C000C0002C3EB9211146
:101B8000290F00C0002C8EB800C016FF3EB908F423
:101B90002FEF9195889400C000C0002C3EB9F0FC56
:101BA000620F00C0002C8EB800C015FF3EB96795CB
:101BB0008894F1FC620F00C000C0002C3EB967950C
:101BC000889400C0002C8EB800C014FF3EB9F2FC0F
:101BD000620F6795889400C000C0002C3EB9F3FCEA
:101BE000620F00C0002C8EB800C013FF3EB967958D
:101BF0008894F4FC620F00C000C0002C3EB96795C9
:101C0000889400C0002C8EB800C012FF3EB9F5FCCD
:101C1000620F6795889400C000C0002C3EB9F6FCA6
:101C2000620F00C0002C8EB800C011FF3EB967954E
:101C30008894F7FC620F00C000C0002C3EB9679585
:101C4000889400C0002C8EB800C010FF3EB9122F3F
:101C5000F110162F9B0D00C000C0002C3EB900C033
:101C600000C0002C8EB800C017FF3EB92281662745
:101C7000889400C000C0002C3EB92111290D00C07D
:101C8000002C8EB800C016FF3EB908F42FEFE40F09
:101C9000F51F00C000C0002C3EB9E0FC620F00C080
:101CA000002C8EB800C015FF3EB967958894E1FC02
:101CB000620F00C000C0002C3EB96795889400C038
:101CC000002C8EB800C014FF3EB9E2FC620F67958D
:101CD000889400C000C0002C3EB9E3FC620F00C035
:101CE000002C8EB800C013FF3EB967958894E4FCC1
:101CF000620F00C000C0002C3EB96795889400C0F8
:101D0000002C8EB800C012FF3EB9E5FC620F67954B
:101D1000889400C000C0002C3EB9E6FC620F00C0F1
:101D2000002C8EB800C011FF3EB967958894E7FC7F
:101D3000620F00C000C0002C3EB96795889400C0B7
:101D4000002C8EB800C010FF3EB9122FE110162FE4
:101D5000919400C000C0002C3EB99A0C00C000C095
:101D60008EB800C017FF3EB921816627889400C055
:101D700000C0002C3EB92111280F00C0002C8EB8E5
:101D800000C016FF3EB908F42FEF8195889400C07B
:101D900000C0002C3EB970FD620F00C0002C8EB850
:101DA00000C015FF3EB96795889471FD620F00C0B1
:101DB00000C0002C3EB96795889400C0002C8EB8F6
:101DC00000C014FF3EB972FD620F6795889400C091
:101DD00000C0002C3EB973FD620F00C0002C8EB80D
:101DE00000C013FF3EB96795889474FD620F00C070
:101DF00000C0002C3EB96795889400C0002C8EB8B6
:101E000000C012FF3EB975FD620F6795889400C04F
:101E100000C0002C3EB976FD620F00C0002C8EB8C9
:101E200000C011FF3EB96795889477FD620F00C02E
:101E300000C0002C3EB96795889400C0002C8EB875
:101E400000C010FF3EB9122F7111162F8D0D00C06A
:101E500000C0002C3EB9119709F086CEEA81FB81C3
:101E60002EE130E0DF010E94B04830E020E0A9011F
:101E7000AAE9EA9F0E0E411DFA9F400D511D112443
:101E80004F0F511DDC01CB01840F951FA11DB11D0A
:101E9000893E43E09407A105B10508F434C0885E8B
:101EA0009340A109B10942E0B695A795979587950A
:101EB0004A95D1F747E0849F080E211D949F200D7D
:101EC000311D1124290F311D6091C00B70E0860F68
:101ED000971F820F931F4091A10C5091A20C60910B
:101EE000A30C7091A40C292F3327420F531F611D9F
:101EF000711D4093A10C5093A20C6093A30C70939E
:101F0000A40C8093C00B78940E947F05F201778B1C
:101F1000668BDF91CF911F910F91FF90EF90DF9033
:101F2000CF90BF90AF909F908F907F905F904F9099
:101F300008956C9A08956F927F928F92CF92DF925C
:101F4000EF92FF920F931F93CF93DF93CDB7DEB73E
:101F500062970FB6F894DEBF0FBECDBF8C016B0148
:101F60007A01822FA801475F5F4FB8016A5F7F4FF8
:101F70000E9433083B01882ED8011C962C91C70182
:101F8000F7FE04C0882799278E199F09DA82C98233
:101F90009C838B839E838D83688A798A8A8A213089
:101FA00049F5CE0101960E94020D83E08D871F86C0
:101FB0001E86F7FE02C08DEF8D87D801ED91FC9152
:101FC0000088F189E02DBE016F5F7F4FC801199530
:101FD00062960FB6F894DEBF0FBECDBFDF91CF91F2
:101FE0001F910F91FF90EF90DF90CF908F907F9097
:101FF0006F9008951C861B861A86198618861F8284
:10200000D4CFCF92DF92EF92FF920F931F93CF9393
:10201000DF93CDB7DEB762970FB6F894DEBF0FBE81
:10202000CDBF8C016B017A01822FA801475F5F4F02
:10203000B8016A5F7F4F0E9433089B01482FD80187
:102040001C968C91DA82C982FC82EB82FE82ED8240
:10205000288B398B4A8B813009F5CE0101960E947D
:10206000020D1D861F861E86D801ED91FC91008809
:10207000F189E02DBE016F5F7F4FC801199562960F
:102080000FB6F894DEBF0FBECDBFDF91CF911F9189
:102090000F91FF90EF90DF90CF9008951C861B86E4
:1020A0001A86198618861F82DCCF089591E09093D6
:1020B000E8028FEF8093EB021092EC0290931602ED
:1020C0008093190210921A029093BD038093C0036B
:1020D0001092C1039093370680933A0610923B0604
:1020E0008093BF0B8093BE0B9093090780930C07DE
:1020F00010920D0710926E0E10926F0EEEE6FEE03B
:10210000128213821086158670968FE0EE35F807DE
:10211000B9F7089590E080E00895FC016487089580
:10212000FC01848590E00895FC01868597850895DB
:10213000CF93DF93EC0118820E94D6056D837E83D6
:102140008F839887DF91CF9108950F931F93CF933B
:1021500026E0FB013296DC01129601900D922A9541
:10216000E1F72EE938E0FC013183208324E1FB0113
:102170003896DC01189601900D922A95E1F79C01A2
:10218000245E3F4FAB01445E5F4F8901045C1F4FEB
:10219000C6E0FA01D90101900D92CA95E1F72A5FD4
:1021A0003F4F4A5F5F4F2017310791F7FB01E85A15
:1021B000FF4F0081118122813381FC01E85AFF4FDA
:1021C0000083118322833383FB01E45AFF4F008194
:1021D000118122813381FC01E45AFF4F0083118376
:1021E00022833383FB01E05AFF4F20813181FC01C0
:1021F000E05AFF4F31832083FB01EE59FF4F2081CE
:102200003181FC01EE59FF4F31832083FB01EC59F2
:10221000FF4F20813181FC01EC59FF4F3183208336
:102220003296DB01AA59BF4F2D913C913183208317
:10223000FB01E859FF4F20813181FC01E859FF4F34
:1022400031832083FB01E659FF4F20813181FC015E
:10225000E659FF4F31832083FB01E459FF4F208172
:10226000FC01E459FF4F208363597F4FFB0120811C
:10227000318183599F4FFC0131832083CF911F917E
:102280000F910895FC01DB0112968D919C9113979B
:102290009383828382E998E09183808314968C9162
:1022A0001497848315968C911597858316968C9137
:1022B0001697868317968C911797878318968C911B
:1022C0001897808719968C91199781871A968C9107
:1022D0001A9782871B968C9183870895089590E0C2
:1022E00080E00895CF93DF93C091A40FD091A50F04
:1022F000209799F08A819B81009759F02E853F8520
:10230000A901440F551F420F531F70E060E00E9467
:10231000DF4A0C80DD81C02DEBCFDF91CF91089596
:10232000CF93DF93FC0101900020E9F73197AF01D3
:10233000481B590BBC018AEA9FE00E94F806EC0199
:1023400042E050E067EB78E08AEA9FE00E94F806FE
:102350008C0F9D1FDF91CF9108950F931F93CF9303
:102360008C01C62F0E9472096C2F6460C8010E9404
:1023700072096C2F6B7FC8010E94720983EC90E098
:102380000197F1F7CF911F910F9108950F931F932C
:10239000CF93DF938C01D62FC42F607F642B0E94D4
:1023A000AD1180E1D89FB00111246C2BC801DF91E1
:1023B000CF911F910F910C94AD1141E00E94C61175
:1023C00081E090E00895EF92FF920F931F93CF93D7
:1023D000DF938C017B01D0E0C0E0F701EC0FFD1F23
:1023E0006491662331F041E0C8010E94C611219634
:1023F000F4CFCE01DF91CF911F910F91FF90EF901D
:102400000895CF93DF9300D000D01F921F92CDB7D5
:10241000DEB728E0E1EEF7E0DE01119601900D92C3
:102420002A95E1F7FC012085241710F44FEF420FA5
:1024300050E0440F551F21E030E02C0F3D1F420FAC
:10244000531FFA012081620F606840E028960FB6A2
:10245000F894DEBF0FBECDBFDF91CF910C94C611B3
:10246000CF93DF93EC0140E06CE00E9401126CEA34
:1024700071E0CE01DF91CF910C94E31140E061E077
:102480000E94C6118BE39FE10197F1F708950F9326
:102490001F93CF93DF93CDB7DEB72C970FB6F89489
:1024A000DEBF0FBECDBF8C010E943E12B801CE012F
:1024B00001960E944211CE0101960E94301241E025
:1024C00060E0C8010E94011265EA72E0C8010E9442
:1024D000E31142E060E0C8010E94011261E972E08C
:1024E000C8010E94E31143E060E0C8010E940112AC
:1024F0006CE772E0C8010E94E3112C960FB6F894C5
:10250000DEBF0FBECDBFDF91CF911F910F91089518
:102510000E94D14AFC0180819181009711F00C94B6
:10252000674908950F931F93CF93DF93EC01888140
:102530009981009759F02A813B812617370730F09F
:1025400081E0DF91CF911F910F9108958B016F5F13
:102550007F4F0E94F049009759F0998388831B832D
:102560000A832C813D81232B59F7FC011082E8CF8F
:1025700080E0E7CFEF92FF920F931F93CF93DF930B
:10258000EC017B01FB0101900020E9F731978F01FD
:10259000061B170BB8010E94921228813981811104
:1025A00013C02115310519F0C9010E94674919822C
:1025B00018821D821C821B821A82DF91CF911F918B
:1025C0000F91FF90EF9008951D830C83B701C9010F
:1025D000DF91CF911F910F91FF90EF900C94E64AFD
:1025E0000F931F93CF93DF9300D000D000D0CDB7CF
:1025F000DEB78C01862FF8011182108213821282BD
:10260000158214824AE0BE016F5F7F4F90E00E9406
:10261000BD45BE016F5F7F4FC8010E94BA12299667
:102620000FB6F894DEBF0FBECDBFDF91CF911F91E3
:102630000F9108950F931F93CF93DF93CDB7DEB71C
:1026400062970FB6F894DEBF0FBECDBF8C01CB01F1
:10265000F8011182108213821282158214824AE0DC
:10266000BE016F5F7F4F0E94B245BE016F5F7F4F1B
:10267000C8010E94BA1262960FB6F894DEBF0FBE70
:10268000CDBFDF91CF911F910F910895CF93DF932D
:102690001F921F92CDB7DEB7FC0111821082138208
:1026A00012821582148269831A82BE016F5F7F4F86
:1026B0000E94BA120F900F90DF91CF9108950F935F
:1026C0001F93CF93DF9300D000D0CDB7DEB78C013E
:1026D0006A30C8F4CE0101960E94F012BE016F5F0D
:1026E0007F4FC8010E942507CE0101960E948A12E1
:1026F00026960FB6F894DEBF0FBECDBFDF91CF9107
:102700001F910F9108956A50653050F4E62FF0E064
:10271000E55CF74F6081CE0101960E944613DECF43
:1027200066E4F9CF2F923F924F925F926F927F9221
:102730008F929F92AF92BF92CF92DF92EF92FF92D1
:102740000F931F93CF93DF93CDB7DEB7C052D14025
:102750000FB6F894DEBF0FBECDBF1C01C152DF4FD4
:1027600079836883CF5DD040F42E8E0109531F4FCB
:102770008CE0E9EEF7E0D80101900D928A95E1F73F
:102780006E012BEBC20ED11C8CE0E5EFF7E0D60119
:1027900001900D928A95E1F70E9472110E94E20564
:1027A00031E0F31283C4C1010E943E1240E060E0B8
:1027B000C1010E94011263E778E0C1010E94E311A8
:1027C00040E06CE0C1010E9401126AE678E0C101BC
:1027D0000E94E31141E060E0C1010E94011267E53F
:1027E00078E0C1010E94E31143E060E0C1010E9472
:1027F000011262E478E0C1010E94E311DE01AD52F2
:10280000BF4F7D0123E0D22EC152DF4F6881798115
:10281000CF5DD040CE0101960E94A510CE01019659
:102820000E94D60C082F10E0EBEBF0E0EC0FFD1F40
:10283000E00FF11F808190E0F701819391937F0178
:1028400043E06D2DC1010E940112E7ECF0E0EC0FB6
:10285000FD1FE00FF11F6081CE0101960E9446131B
:10286000BE016F5F7F4FC1010E942507CE01019617
:102870000E948A12D394F6E0DF12C6CFCD52DF4F0A
:1028800088819981C35DD04024E6289F3001299F2B
:10289000700C1124CB52DF4F28813981C55DD040A7
:1028A0004AE0429FC001439F900D1124680E791E9B
:1028B000C952DF4F88819981C75DD040680E791E6B
:1028C000CE018D529F4F7C019AE0D92EC152DF4F2D
:1028D00068817981CF5DD040CE0101960E94A5101C
:1028E000CE0101960E94D60C082F10E0EBEBF0E031
:1028F000EC0FFD1FE00FF11F808190E0D7018D9359
:102900009D937D0143E06D2DC1010E940112E7EC12
:10291000F0E0EC0FFD1FE00FF11F6081CE0101968A
:102920000E944613BE016F5F7F4FC1010E942507C1
:10293000CE0101960E948A12D394BDE0DB12C6CF6D
:10294000CD52DF4FC880D980C35DD040CB52DF4F1E
:10295000A880B980C55DD040C952DF4F888099807A
:10296000C75DD040FE01ED52FF4F7F0181E1582E3F
:10297000C152DF4F68817981CF5DD040CE01019691
:102980000E94A510CE0101960E94D60C082F10E0DF
:10299000EBEBF0E0EC0FFD1FE00FF11F808190E00A
:1029A000D7018D939D937D0143E0652DC1010E9468
:1029B0000112E7ECF0E0EC0FFD1FE00FF11F60816A
:1029C000CE0101960E944613BE016F5F7F4FC10189
:1029D0000E942507CE0101960E948A125394B4E109
:1029E0005B12C6CFEFEF6E16710411F008F0DBCE6C
:1029F00044E64C9DC0014D9D900D11245AE05A9D16
:102A000090015B9D300D1124820F931F880E991E3B
:102A10006FEF8616910411F008F0C5CECD52DF4F4E
:102A200088819981C35DD040489F6001499FD00C47
:102A30001124CB52DF4F28813981C55DD040529F90
:102A4000C001539F900D1124C80ED91EC952DF4FEB
:102A500088819981C75DD040C80ED91E8FEFC816F6
:102A6000D10411F008F09FCECF51DF4F6882C15ED4
:102A7000D040C455DF4F6882CC5AD040C552DF4F9A
:102A80008882CB5DD040C356DF4F8882CD59D0407D
:102A9000C751DF4FC882C95ED040C257DF4FC882DE
:102AA000CE58D0406092AC0C8092AD0CC092AE0C6F
:102AB0000E94E205C1010E943E1240E060E0C101B7
:102AC0000E9401126BE378E0C1010E94E31140E033
:102AD0006CE0C1010E94011262E378E0C1010E9432
:102AE000E31141E060E0C1010E9401126FE178E072
:102AF000C1010E94E31143E060E0C1010E940112A4
:102B00006AE078E0C1010E94E311DE01AD52BF4FDF
:102B10007D0103E0402EC152DF4F68817981CF5D96
:102B2000D040CE0101960E94A510CE0101960E94D0
:102B3000D60C082F10E0EBEBF0E0EC0FFD1FE00FE0
:102B4000F11F808190E0F701819391937F0143E031
:102B5000642DC1010E940112E7ECF0E0EC0FFD1FB3
:102B6000E00FF11F6081CE0101960E944613BE0165
:102B70006F5F7F4FC1010E942507CE0101960E9421
:102B80008A124394F6E04F12C6CFCD52DF4F8881B0
:102B90009981C35DD04044E6489F9001499F300D24
:102BA0001124CB52DF4F88819981C55DD0405AE016
:102BB000589FB001599F700D1124C901860F971FAE
:102BC000C952DF4FA880B980C75DD040A80EB91E9A
:102BD000CE018D529F4F7C011AE0412EC152DF4F32
:102BE00068817981CF5DD040CE0101960E94A51009
:102BF000CE0101960E94D60C082F10E0EBEBF0E01E
:102C0000EC0FFD1FE00FF11F808190E0D7018D9345
:102C10009D937D0143E0642DC1010E940112E7EC08
:102C2000F0E0EC0FFD1FE00FF11F6081CE01019677
:102C30000E944613BE016F5F7F4FC1010E942507AE
:102C4000CE0101960E948A124394BDE04B12C6CF7A
:102C5000CD52DF4F48805980C35DD040CB52DF4F0B
:102C6000E881F981C55DD040CB51DF4FF983E8831E
:102C7000C55ED040C952DF4F28813981C75DD04041
:102C8000C351DF4F39832883CD5ED040AE014D5212
:102C90005F4F7A0151E1C752DF4F5883C95DD04081
:102CA000C152DF4F68817981CF5DD040CE0101965E
:102CB0000E94A510CE0101960E94D60C082F10E0AC
:102CC000EBEBF0E0EC0FFD1FE00FF11F808190E0D7
:102CD000D7018D939D937D0143E0C752DF4F6881FB
:102CE000C95DD040C1010E940112E7ECF0E0EC0F99
:102CF000FD1FE00FF11F6081CE0101960E94461377
:102D0000BE016F5F7F4FC1010E942507CE01019672
:102D10000E948A12C752DF4FB881C95DD040BF5FA1
:102D2000C752DF4FB883C95DD040B43109F0B8CF86
:102D3000EFEFAE16B10411F008F0BCCEF4E6F49D4E
:102D40007001F59DF00C11244AE0CB51DF4F288132
:102D50003981C55ED040429FB001439F700D112460
:102D6000E60EF71EC351DF4F88819981CD5ED040BA
:102D7000E80EF91E9FEFE916F10411F008F09ACE63
:102D8000CD52DF4F88819981C35DD040F89F80018B
:102D9000F99F100D1124CB52DF4F88819981C55DB9
:102DA000D040489FB001499F700D1124060F171F96
:102DB000C952DF4F68817981C75DD040060F171F68
:102DC0000F3F110511F008F075CEC355DF4FA882F3
:102DD000CD5AD040C256DF4FE882CE59D040C157BD
:102DE000DF4F0883CF58D040B50166197709072E09
:102DF000000C880B990B0E94E94520E030E045E18A
:102E000053E40E946947CB51DF4F688379838A83FB
:102E10009B83C55ED040B70168197909072E000C65
:102E2000880B990B0E94E94520E030E045E153E42E
:102E30000E946947C351DF4F688379838A839B83EC
:102E4000CD5ED040B8016C197D09072E000C880BAF
:102E5000990B0E94E94520E030E045E153E40E94EF
:102E60006947CB50DF4F688379838A839B83C55F33
:102E7000D0400CEA1CE0C752DF4F1882C95DD04039
:102E8000CF51DF4F3881C15ED040232F30E050E07A
:102E900040E0CF50DF4F288339834A835B83C15F93
:102EA000D040C552DF4F9881CB5DD040892F90E054
:102EB000B0E0A0E0C552DF4F88839983AA83BB832B
:102EC000CB5DD040C751DF4F3881C95ED040232F42
:102ED00030E050E040E0C751DF4F288339834A8318
:102EE0005B83C95ED040C752DF4F4881C95DD04087
:102EF000642F70E090E080E00E94E7456B017C0168
:102F0000CF50DF4F688179818A819B81C15FD0403A
:102F10000E94E7454B015C01CB51DF4F288139818D
:102F20004A815B81C55ED040C701B6010E9424463C
:102F30009B01AC01C501B4010E94FD460E940A48F4
:102F4000CF51DF4F688379838A839B83C15ED040F2
:102F5000C552DF4F688179818A819B81CB5DD040EA
:102F60000E94E7454B015C01C351DF4F2881398145
:102F70004A815B81CD5ED040C701B6010E942446E4
:102F80009B01AC01C501B4010E94FD460E940A48A4
:102F90004B015C01C751DF4F688179818A819B8138
:102FA000C95ED0400E94E7452B013C01CB50DF4F6A
:102FB000288139814A815B81C55FD040C701B60154
:102FC0000E9424469B01AC01C301B2010E94FD4650
:102FD0000E940A486B017C01CF51DF4F68817981E3
:102FE0008A819B81C15ED0400E94DB47D8016C93EF
:102FF000C501B4010E94DB47F8016183C701B60136
:103000000E94DB47D80112966C93C752DF4FB881FC
:10301000C95DD040BF5FC752DF4FB883C95DD040A4
:103020000D5F1F4FB63909F05ECF0E94E205C10166
:103030000E943E1240E060E0C1010E94011267EF71
:1030400077E0C1010E94E31142E060E0C1010E940B
:10305000011263EE77E0C1010E94E31143E060E0FA
:10306000C1010E9401126EEC77E0C1010E94E311E0
:10307000C152DF4F68817981CF5DD040CE0101968A
:103080000E94A510CE0101960E94D60CEBEBF0E059
:10309000EC0FFD1FE80FF11D8081882311F40C94C3
:1030A000B02E0E9472110E94E2057DCBF2E0FF1269
:1030B00015C63601FE01E455FF4FCE0183569F4FE2
:1030C000BE0162577F4F9E0120593F4FAF01415FC4
:1030D0005F4FC751DF4FE883C95ED0408F2E982ED7
:1030E000A92EB62ECB51DF4F7883C55ED04011920A
:1030F000DC011D92CD01DB011D92BD01D9011D92A4
:103100009D014E175F0799F70AE0C1010E943E1228
:1031100040E060E0C1010E94011265EC77E0C1016E
:103120000E94E31140E06CE0C1010E9401126CEBCF
:1031300077E0C1010E94E31141E060E0C1010E941B
:10314000011267EA77E0C1010E94E31143E060E009
:10315000C1010E94011262E977E0C1010E94E311FE
:103160009E012D523F4F690113E0C152DF4F68812C
:103170007981CF5DD040CE0101960E94A510CE018D
:1031800001960E94D60CE82EF12CF301EE0DFF1DE6
:10319000808190E0D6018D939D936D0143E0612F76
:1031A000C1010E940112E7ECF0E0EC0FFD1FEE0DF3
:1031B000FF1D6081CE0101960E944613BE016F5F24
:1031C0007F4FC1010E942507CE0101960E948A12FD
:1031D0001F5F163051F6CD52DF4F88819981C35D54
:1031E000D040B4E6B89F2001B99F500C1124CB52B7
:1031F000DF4F28813981C55DD040029FC001039F08
:10320000900D1124480E591EC952DF4F88819981B3
:10321000C75DD040480E591EFE01ED52FF4F6F01B1
:103220001AE0C152DF4F68817981CF5DD040CE0175
:1032300001960E94A510CE0101960E94D60CE82EA0
:10324000F12CF301EE0DFF1D808190E0D6018D93EE
:103250009D936D0143E0612FC1010E940112E7ECD3
:10326000F0E0EC0FFD1FEE0DFF1D6081CE01019619
:103270000E944613BE016F5F7F4FC1010E94250768
:10328000CE0101960E948A121F5F1D3051F6CD5269
:10329000DF4FC880D980C35DD040CB52DF4FE8817B
:1032A000F981C55DD040CF51DF4FF983E883C15E1E
:1032B000D040C952DF4F28813981C75DD040C55207
:1032C000DF4F39832883CB5DD040AE014D525F4F35
:1032D000C752DF4F59834883C95DD04011E1C152C5
:1032E000DF4F68817981CF5DD040CE0101960E9489
:1032F000A510CE0101960E94D60CE82EF12CF30108
:10330000EE0DFF1D808190E0C752DF4FA881B9818B
:10331000C95DD0408D939D93C752DF4FB983A88379
:10332000C95DD04043E0612FC1010E940112E7EC6A
:10333000F0E0EC0FFD1FEE0DFF1D6081CE01019648
:103340000E944613BE016F5F7F4FC1010E94250797
:10335000CE0101960E948A121F5F143109F0BFCF7F
:10336000BFEF4B16510411F008F0CFCE44E64C9D50
:1033700090014D9D300D1124CF51DF4FA881B981AF
:10338000C15ED0400A9FC0010B9F900D1124280FF1
:10339000391FC552DF4FE881F981CB5DD0402E0F38
:1033A0003F1F2F3F310511F008F0AFCECD52DF4F58
:1033B00048815981C35DD040F4E6F49FC001F59F78
:1033C000900D1124CB52DF4F68817981C55DD040CB
:1033D000069FA001079F500D1124840F951FC9520D
:1033E000DF4F48815981C75DD040840F951F8F3FC3
:1033F000910511F008F089CEC751DF4FE881C95E11
:10340000D040C752DF4FE883C95DD040C652DF4F7E
:103410008882CA5DD040C752DF4FA881B981C95D9B
:10342000D0404D92C752DF4FB983A883C95DD040C9
:10343000C552DF4F9882CB5DD040C452DF4FA88287
:10344000CC5DD040C552DF4FE881F981CB5DD040E3
:103450002193C552DF4FF983E883CB5DD040CF5134
:10346000DF4FB882C15ED040CB51DF4FF881C55EDF
:10347000D040CE51DF4FF883C25ED040CF51DF4FF6
:10348000A881B981C15ED0408D93CF51DF4FB98300
:10349000A883C15ED04091E0E1969FAFE197409252
:1034A000AC0C2093AD0C8093AE0CE1E0F0E0CB507F
:1034B000DF4FF983E883C55FD040C351DF4F1882E7
:1034C000CD5ED04044244394512C0E94E205C35168
:1034D000DF4FF881CD5ED040F40DC351DF4FF8834C
:1034E000CD5ED040CB50DF4F8881C55FD040F639EC
:1034F000E8F1C1010E943E1240E060E0C1010E947B
:1035000001126FE277E0C1010E94E31142E060E046
:10351000C1010E9401126BE177E0C1010E94E31139
:1035200043E060E0C1010E94011266E077E0C10162
:103530000E94E311C152DF4F68817981CF5DD04095
:10354000CE0101960E94A510CE0101960E94D60CD4
:10355000860D972D911DDC018C91882311F40C941C
:10356000B02E0E9472110E94E205A4CD8F3009F2A4
:10357000C351DF4FF881CD5ED040EF2FF0E0CB5F3D
:10358000DE4FF983E883C550D140C1010E943E124D
:1035900040E060E0C1010E94011269E877E0C101EA
:1035A0000E94E31140E06CE0C1010E94011260E85A
:1035B00077E0C1010E94E31141E060E0C1010E9497
:1035C00001126BE677E0C1010E94E31142E060E086
:1035D000C1010E94011266E577E0C1010E94E3117A
:1035E00043E060E0C1010E94011262E477E0C101A2
:1035F0000E94E311CE018D529F4F7C01A3E0DA2E91
:10360000C152DF4F68817981CF5DD040CE010196F4
:103610000E94A510CE0101960E94D60C082F10E042
:10362000F301E00FF11F808190E0D7018D939D930E
:103630007D0142E06D2DC1010E940112E7ECF0E036
:10364000EC0FFD1FE00FF11F6081CE0101960E947B
:103650004613BE016F5F7F4FC1010E942507CE0157
:1036600001960E948A12D394B6E0DB12C9CFCD52E4
:10367000DF4F28813981C35DD040E4E6E29FC0017D
:10368000E39F900D1124CB52DF4F48815981C55DD6
:10369000D040FAE0F49F9001F59F300D1124820F85
:1036A000931FC952DF4F28813981C75DD040AC01DB
:1036B000420F531FCF50DF4F59834883C15FD04023
:1036C000CE018D529F4F7C01FAE0DF2EC152DF4FB9
:1036D00068817981CF5DD040CE0101960E94A5100E
:1036E000CE0101960E94D60C082F10E0F301E00FE6
:1036F000F11F808190E0D7018D939D937D0142E081
:103700006D2DC1010E940112E7ECF0E0EC0FFD1FEE
:10371000E00FF11F6081CE0101960E944613BE01A9
:103720006F5F7F4FC1010E942507CE0101960E9465
:103730008A12D394BDE0DB12C9CFCD52DF4F48804F
:103740005980C35DD040CB52DF4FA880B980C55DA2
:10375000D040C952DF4FE881F981C75DD040C751E1
:10376000DF4FF983E883C95ED0409E012D523F4F61
:103770007901E1E1DE2EC152DF4F68817981CF5DB1
:10378000D040CE0101960E94A510CE0101960E9464
:10379000D60C082F10E0F301E00FF11F808190E0BC
:1037A000D7018D939D937D0142E06D2DC1010E9453
:1037B0000112E7ECF0E0EC0FFD1FE00FF11F60815C
:1037C000CE0101960E944613BE016F5F7F4FC1017B
:1037D0000E942507CE0101960E948A12D394B4E17B
:1037E000DB12C9CFCD52DF4F88809980C35DD040B6
:1037F000CB52DF4FC880D980C55DD040C952DF4F62
:10380000E880F980C75DD040FE01ED52FF4FC75000
:10381000DF4FF983E883C95FD040F0E1CB51DF4F40
:10382000F883C55ED040C152DF4F68817981CF5D9A
:10383000D040CE0101960E94A510CE0101960E94B3
:10384000D60C082F10E0F301E00FF11F808190E00B
:10385000C750DF4FA881B981C95FD0408D939D9338
:10386000C750DF4FB983A883C95FD04043E0CB5135
:10387000DF4F6881C55ED040C1010E940112E7ECB4
:10388000F0E0EC0FFD1FE00FF11F6081CE0101960B
:103890000E944613BE016F5F7F4FC1010E94250742
:1038A000CE0101960E948A12CB51DF4FB881C55ECE
:1038B000D040BF5FCB51DF4FB883C55ED040B3313E
:1038C00009F0B1CFCF50DF4FE881F981C15FD0401F
:1038D000EF3FF10511F008F058CEF4E6F49DC00179
:1038E000F59D900D11244AE04A9D90014B9D300DAD
:1038F0001124820F931FC751DF4FA881B981C95E80
:10390000D040A80FB91FC751DF4FB983A883C95E44
:10391000D040AF3FB10511F008F037CEF89DC0019F
:10392000F99D900D11244C9D90014D9D300D112459
:10393000820F931FFC01EE0DFF1DC750DF4FF9836F
:10394000E883C95FD040EF3FF10511F008F01DCECC
:10395000CD52DF4F28813981C35DD040F4E6F29F1C
:10396000C001F39F900D1124CB52DF4F4881598144
:10397000C55DD0406AE0649F9001659F300D1124C1
:10398000820F931FC952DF4F48805980C75DD040D6
:10399000480E591ECB5FDE4F88819981C550D140BA
:1039A000840D911D873991050CF0EFCDC752DF4F83
:1039B000A881B981C95DD040CF50DF4FE881C15F98
:1039C000D040ED93C752DF4FB983A883C95DD04083
:1039D000C552DF4FA881B981CB5DD040C751DF4FC1
:1039E000E881C95ED040ED93C552DF4FB983A8830B
:1039F000CB5DD040CF51DF4FA881B981C15ED040AF
:103A0000C750DF4FE881C95FD040ED93CF51DF4F02
:103A1000B983A883C15ED040E0E7F0E0EC0FFD1F62
:103A2000CB50DF4F28813981C55FD040E20FF31FB3
:103A30004082CB51DF4F1882C55ED040C752DF4F66
:103A400048815981C95DD04042505109C35FDE4F62
:103A500059834883CD50D140C201B0E0A0E0C15F9E
:103A6000DE4F88839983AA83BB83CF50D140C55250
:103A7000DF4FA881B981CB5DD0401297CD5EDE4F7C
:103A8000B983A883C351D140CF51DF4FE881F98179
:103A9000C15ED0403297CB5EDE4FF983E883C551DB
:103AA000D140CB51DF4F3881C55ED040232F30E06D
:103AB000CF5FDE4F39832883C150D1404216530671
:103AC00008F4FEC0C35FDE4FA881B981CD50D1405C
:103AD0001C91CB51DF4FB881C55ED0406B2F70E099
:103AE00090E080E00E94E745C350DF4F6883798310
:103AF0008A839B83CD5FD040C15FDE4F688179812F
:103B00008A819B81CF50D1400E94E7456B017C01A7
:103B1000CF50DF4F68817981C15FD040611B71094F
:103B2000072E000C880B990B0E94E945A70196010E
:103B30000E946947C350DF4F288139814A815B81E8
:103B4000CD5FD0400E9424464B015C01612F70E0A4
:103B500090E080E00E94E7459B01AC01C501B40103
:103B60000E94FD460E940A48C75FDE4F6883798342
:103B70008A839B83C950D140CD5EDE4FE881F981B5
:103B8000C351D1401081C751DF4F68817981C95E2F
:103B9000D040611B7109072E000C880B990B0E9405
:103BA000E945A70196010E946947C350DF4F28816C
:103BB00039814A815B81CD5FD0400E9424464B0110
:103BC0005C01612F70E090E080E00E94E7459B017E
:103BD000AC01C501B4010E94FD460E940A484B0198
:103BE0005C01CB5EDE4FA881B981C551D1401C91EB
:103BF000C750DF4F68817981C95FD040611B71096F
:103C0000072E000C880B990B0E94E945A70196012D
:103C10000E946947C350DF4F288139814A815B8107
:103C2000CD5FD0400E9424466B017C01612F70E083
:103C300090E080E00E94E7459B01AC01C701B6011E
:103C40000E94FD460E940A486B017C01CF5FDE4F57
:103C500008811981C150D140CB5FDE4FE881F981E5
:103C6000C550D1400E0F1F1FC801880F991F080FA4
:103C7000191F0755134FC75FDE4F688179818A810D
:103C80009B81C950D1400E94DB47D8016C93C5018C
:103C9000B4010E94DB47F8016183C701B6010E94AD
:103CA000DB47D80112966C93CB51DF4FB881C55ECC
:103CB000D040BF5FCB51DF4FB883C55ED040F1CE5F
:103CC000CB50DF4FE881F981C55FD0403196CB50B2
:103CD000DF4FF983E883C55FD040F7CBB3E0FB1239
:103CE0008EC5C1010E943E1240E060E0C1010E9409
:103CF00001126EEF76E0C1010E94E31140E06CE03A
:103D0000C1010E94011265EF76E0C1010E94E3113A
:103D100042E060E0C1010E94011260EE76E0C10164
:103D20000E94E31143E060E0C1010E9401126FECC8
:103D300076E0C1010E94E311C152DF4F68817981B1
:103D4000CF5DD040CE0101960E94A510CE01019614
:103D50000E94D60C90E08230910570F7C752DF4F79
:103D60001882C95DD040892B09F08FC3C752DF4F3D
:103D70008881C95DD04081508F3008F499C0C1015D
:103D80000E943E1240E060E0C1010E94011264EC1A
:103D900076E0C1010E94E31140E06CE0C1010E94A5
:103DA00001126BEB76E0C1010E94E31141E060E09B
:103DB000C1010E94011265EB76E0C1010E94E3118E
:103DC00041E065E0C1010E9401126FE070E0CE01A8
:103DD00001960E941A13BE016F5F7F4FC1010E94BE
:103DE0002507CE0101960E948A1241E068E0C101D8
:103DF0000E94011269EA76E0C1010E94E31143E0EA
:103E000069E0C1010E94011266EA76E0C1010E94E8
:103E1000E3117E01E3EDEE0EF11C69E0B62E6701C1
:103E2000C152DF4F68817981CF5DD040CE010196CC
:103E30000E94A510CE0101960E94D60C082F10E01A
:103E4000EBEBF0E0EC0FFD1FE00FF11F808190E045
:103E5000D7018D939D937D0143E06B2DC1010E949D
:103E60000112E7ECF0E0EC0FFD1FE00FF11F6081A5
:103E7000CE0101960E944613BE016F5F7F4FC101C4
:103E80000E942507CE0101960E948A12BAE0BB1259
:103E90000CC0F601908182819B9D800D1124C75238
:103EA000DF4F8883C95DD04061CF5AE0B52EB8CFCF
:103EB000C752DF4F2881C95DD0402150330BB90173
:103EC000072E000C880B990B0E94E9459B01AC0161
:103ED00060E070E085E193E40E9469470E940A482F
:103EE0000E94DB472B01FE01E455FF4FCE018356B4
:103EF0009F4F6E012EE8C20ED11CAE0140595F4F9C
:103F0000CB50DF4F59834883C55FD0407F015FE0CE
:103F1000E50EF11CCB50DF4F28813981C55FD040C1
:103F20008F01BC01A6011192DC011D92CD01D601C9
:103F30001D926D01D9011D929D01EE15FF0599F7A6
:103F4000F8013197C351DF4FF983E883CD5ED0404C
:103F50009B0121503109CB51DF4F39832883C55E46
:103F6000D040CA010197C751DF4F99838883C95E4A
:103F7000D040C552DF4F1882CB5DD040CF51DF4FCC
:103F80001882C15ED040D201BB27CB5FDE4FB98320
:103F9000A883C550D140920150E040E0C75FDE4F9A
:103FA000288339834A835B83C950D140C752DF4F8E
:103FB0003881C95DD040C552DF4F4881CB5DD040CC
:103FC000341709F422C280E091E000E011E0A12C56
:103FD000BB24B394CF51DF4FB881C15ED040AB2F2B
:103FE000B0E0C750DF4FB983A883C95FD040CB5F33
:103FF000DE4FE881F981C550D140EA0FFB1FCF5059
:10400000DF4FF983E883C15FD04014E6C12E9AE008
:10401000D92ECF50DF4F28813981C15FD040273959
:1040200031050CF055C1C1010E943E1240E060E034
:10403000C1010E9401126AE776E0C1010E94E3110A
:1040400040E06CE0C1010E94011261E776E0C1012D
:104050000E94E31141E060E0C1010E9401126CE5A1
:1040600076E0C1010E94E31143E060E0C1010E94DB
:10407000011267E476E0C1010E94E3113E0133EDD5
:10408000630E711C7301A3E0BA2EC152DF4F688129
:104090007981CF5DD040CE0101960E94A510CE015E
:1040A00001960E94D60C082F10E0EBEBF0E0EC0F2D
:1040B000FD1FE00FF11F808190E0D7018D939D934C
:1040C0007D0143E06B2DC1010E940112E7ECF0E09D
:1040D000EC0FFD1FE00FF11F6081CE0101960E94E1
:1040E0004613BE016F5F7F4FC1010E942507CE01BD
:1040F00001960E948A12B394B6E0BB12C6CFCD528D
:10410000DF4F88819981C35DD040C89E5001C99E10
:10411000B00C1124CB52DF4F28813981C55DD040CE
:10412000D29EC001D39E900D1124A80EB91EC95273
:10413000DF4F88819981C75DD040A80EB91E7301F9
:10414000FAE09F2EC152DF4F68817981CF5DD04068
:10415000CE0101960E94A510CE0101960E94D60CB8
:10416000082F10E0EBEBF0E0EC0FFD1FE00FF11F6C
:10417000808190E0F701819391937F0143E0692D65
:10418000C1010E940112E7ECF0E0EC0FFD1FE00F0F
:10419000F11F6081CE0101960E944613BE016F5F40
:1041A0007F4FC1010E942507CE0101960E948A120D
:1041B0009394FDE09F12C6CFCD52DF4F8881998145
:1041C000C35DD040C89E8001C99E100D1124CB5202
:1041D000DF4F28813981C55DD040D29EC001D39E7A
:1041E000900D1124080F191FC952DF4F8881998142
:1041F000C75DD040080F191FE1E19E2EC152DF4F6D
:1042000068817981CF5DD040CE0101960E94A510D2
:10421000CE0101960E94D60CE82EF12CEBEBF0E0DB
:10422000EC0FFD1FEE0DFF1D808190E0D3018D93FB
:104230009D933D0143E0692DC1010E940112E7EC0D
:10424000F0E0EC0FFD1FEE0DFF1D6081CE01019629
:104250000E944613BE016F5F7F4FC1010E94250778
:10426000CE0101960E948A129394B4E19B12C6CFAC
:10427000CD52DF4F28813981C35DD040C29EC0013D
:10428000C39E900D1124CB52DF4F48815981C55DEB
:10429000D040D49E9001D59E300D1124820F931FE3
:1042A000C952DF4F28813981C75DD040820F931FEB
:1042B000EFEFAE16B10411F008F0ABCE0F3F1105D1
:1042C00011F008F0A6CE8F3F910511F008F0A1CEB5
:1042D000742CCF50DF4F28813981C15FD0402739FE
:1042E0003105BCF4C351DF4FA881B981CD5ED04008
:1042F0001196AC92CB51DF4FE881F981C55ED04079
:104300000183C751DF4FA881B981C95ED0401196A2
:104310008C93C552DF4FB881CB5DD040B11168C1DD
:1043200081E0E1968FAFE197C356DF4F9881CD5979
:10433000D040C257DF4F8881CE58D040C455DF4FA0
:104340002881CC5AD0402093AC0C9093AD0C809334
:10435000AE0C0E94E205C552DF4FB881CB5DD04064
:10436000B11141C2CF51DF4FE881C15ED040EF5F54
:10437000CF51DF4FE883C15ED040C552DF4F288167
:10438000CB5DD0402F5FC552DF4F2883CB5DD0403F
:10439000CB50DF4F48815981C55FD0404F5F5F4FA1
:1043A000CB50DF4F59834883C55FD040C351DF4FA7
:1043B00088819981CD5ED0400196C351DF4F9983AA
:1043C0008883CD5ED040CB51DF4FA881B981C55ED7
:1043D000D0401196CB51DF4FB983A883C55ED04042
:1043E000C751DF4FE881F981C95ED0403196C7518E
:1043F000DF4FF983E883C95ED040CF51DF4FF881AA
:10440000C15ED040F63908F4D1CDC1010E943E1200
:1044100040E060E0C1010E94011264E376E0C10166
:104420000E94E31142E060E0C1010E94011260E2DB
:1044300076E0C1010E94E31143E060E0C1010E9407
:1044400001126BE076E0C1010E94E311C152DF4F1F
:1044500068817981CF5DD040CE0101960E94A51080
:10446000CE0101960E94D60C2BEB30E02C0F3D1FA5
:10447000280F311DD9018C91882311F40C94B02E92
:104480000E9472110E94E2052CCC512C412C34E682
:10449000A32E4AE0B42EC20101978739910508F492
:1044A00022CDC1010E943E1240E060E0C1010E94A5
:1044B00001126CE976E0C1010E94E31140E06CE07A
:1044C000C1010E94011263E976E0C1010E94E3117B
:1044D00041E060E0C1010E9401126DE876E0C10197
:1044E0000E94E31141E065E0C1010E94011265E90B
:1044F00070E0CE0101960E941A13BE016F5F7F4FDC
:10450000C1010E942507CE0101960E948A1241E056
:1045100068E0C1010E94011265E876E0C1010E94D5
:10452000E31143E068E0C1010E94011261E876E016
:10453000C1010E94E3116E0133EDC30ED11C28E0CE
:10454000922E7601C152DF4F68817981CF5DD040D4
:10455000CE0101960E94A510CE0101960E94D60CB4
:10456000082F10E0EBEBF0E0EC0FFD1FE00FF11F68
:10457000808190E0D6018D939D936D0143E0692D7C
:10458000C1010E940112E7ECF0E0EC0FFD1FE00F0B
:10459000F11F6081CE0101960E944613BE016F5F3C
:1045A0007F4FC1010E942507CE0101960E948A1209
:1045B0009394BBE09B12C6CFF70180819181A89EA6
:1045C000B001A99E700D112422813381B29EC001D9
:1045D000B39E900D1124680F791F44805580460EBC
:1045E000571EFFE0C752DF4FF883C95DD04053CF5D
:1045F000CB50DF4FE881F981C55FD0407082612CDC
:10460000262D30E0C350DF4F39832883CD5FD04063
:104610004216530608F49DCEC351DF4FA881B981DD
:10462000CD5ED0401C91662D70E090E080E00E944D
:10463000E745CF50DF4F688379838A839B83C15FCF
:10464000D040C75FDE4F688179818A819B81C950E4
:10465000D1400E94E7456B017C01C351DF4FE881E7
:10466000F981CD5ED0406181611B770B072E000C74
:10467000880B990B0E94E945A70196010E946947A2
:10468000CF50DF4F288139814A815B81C15FD040A3
:104690000E9424464B015C01612F70E090E080E0B5
:1046A0000E94E7459B01AC01C501B4010E94FD4693
:1046B0000E940A48CF5FDE4F688379838A839B8399
:1046C000C150D140CB51DF4FA881B981C55ED040E8
:1046D0001C9111966C91611B770B072E000C880BB7
:1046E000990B0E94E945A70196010E946947CF50A6
:1046F000DF4F288139814A815B81C15FD0400E94B0
:1047000024464B015C01612F70E090E080E00E9444
:10471000E7459B01AC01C501B4010E94FD460E9422
:104720000A484B015C01C751DF4FE881F981C95E3E
:10473000D04010816181611B770B072E000C880B24
:10474000990B0E94E945A70196010E946947CF5045
:10475000DF4F288139814A815B81C15FD0400E944F
:1047600024466B017C01612F70E090E080E00E94A4
:10477000E7459B01AC01C701B6010E94FD460E94BE
:104780000A486B017C01C350DF4F08811981CD5F5E
:10479000D040C750DF4F28813981C95FD040020F18
:1047A000131FC801880F991F080F191F0755134FB2
:1047B000CF5FDE4F688179818A819B81C150D14072
:1047C0000E94DB47D8016C93C501B4010E94DB470E
:1047D000F8016183C701B6010E94DB47D801129638
:1047E0006C9363940DCFCF51DF4FF881C15ED04001
:1047F000F70DCF51DF4FF883C15ED040BECDB4E09E
:10480000FB120C94B02EC1010E943E1240E060E009
:10481000C1010E94011263E076E0C1010E94E31130
:1048200040E06CE0C1010E9401126AEF75E0C10135
:104830000E94E31142E060E0C1010E94011265EEB6
:1048400075E0C1010E94E31143E060E0C1010E94F4
:10485000011264ED75E0C1010E94E311C152DF4F06
:1048600068817981CF5DD040CE0101960E94A5106C
:10487000CE0101960E94D60C90E08230910570F72F
:10488000C752DF4F1882C95DD040892B09F06DC136
:10489000C752DF4F8881C95DD04081508E3108F406
:1048A00099C0C1010E943E1240E060E0C1010E9437
:1048B000011269EC75E0C1010E94E31140E06CE077
:1048C000C1010E94011260EC75E0C1010E94E31178
:1048D00041E060E0C1010E9401126AEB75E0C10194
:1048E0000E94E31141E065E0C1010E9401126EE106
:1048F00070E0CE0101960E941A13BE016F5F7F4FD8
:10490000C1010E942507CE0101960E948A1241E052
:1049100068E0C1010E9401126EEA75E0C1010E94C7
:10492000E31143E069E0C1010E9401126BEA75E006
:10493000C1010E94E3117E01E3EDEE0EF11C69E07E
:10494000B62E6701C152DF4F68817981CF5DD040BB
:10495000CE0101960E94A510CE0101960E94D60CB0
:10496000082F10E0EBEBF0E0EC0FFD1FE00FF11F64
:10497000808190E0D7018D939D937D0143E06B2D65
:10498000C1010E940112E7ECF0E0EC0FFD1FE00F07
:10499000F11F6081CE0101960E944613BE016F5F38
:1049A0007F4FC1010E942507CE0101960E948A1205
:1049B000BAE0BB120CC0F601808162818B9D600D54
:1049C0001124C752DF4F6883C95DD04061CF5AE0E0
:1049D000B52EB8CFC752DF4F2881C95DD0402150D6
:1049E000330BB901072E000C880B990B0E94E94587
:1049F0009B01AC0160E070E085E193E40E946947AF
:104A00000E940A480E94DB47CF51DF4F79836883B9
:104A1000C15ED040CB51DF4F1882C55ED040CB5134
:104A2000DF4F3881C55ED040C752DF4F4881C95D36
:104A3000D040431728F0832F81508F3008F46CC189
:104A4000C1010E943E1240E060E0C1010E940112DB
:104A50006CE775E0C1010E94E31140E06CE0C10128
:104A60000E94011263E775E0C1010E94E31141E079
:104A700060E0C1010E9401126DE675E0C1010E9473
:104A8000E31141E065E0C1010E9401126FE070E0B6
:104A9000CE0101960E941A13BE016F5F7F4FC101C4
:104AA0000E942507CE0101960E948A1241E068E02B
:104AB000C1010E94011261E675E0C1010E94E3118B
:104AC00043E069E0C1010E9401126EE575E0C10199
:104AD0000E94E3118E010D521F4F99E0B92E78010B
:104AE000C152DF4F68817981CF5DD040CE01019600
:104AF0000E94A510CE0101960E94D60CC82ED12C82
:104B0000EBEBF0E0EC0FFD1FEC0DFD1D808190E064
:104B1000D8018D939D938D0143E06B2DC1010E94BF
:104B20000112E7ECF0E0EC0FFD1FEC0DFD1D6081C4
:104B3000CE0101960E944613BE016F5F7F4FC101F7
:104B40000E942507CE0101960E948A12BAE0BB128C
:104B5000E0C0F701908182819B9D800D1124CB5193
:104B6000DF4F8883C55ED0405ACFCF51DF4F1982C7
:104B70001882C15ED04034E6A32E4AE0B42ECF5155
:104B8000DF4F88819981C15ED040019786399105B8
:104B900008F440CFC1010E943E1240E060E0C10134
:104BA0000E94011261EA75E0C1010E94E31140E038
:104BB0006CE0C1010E94011268E975E0C1010E9428
:104BC000E31141E060E0C1010E94011262E975E079
:104BD000C1010E94E31141E065E0C1010E940112A0
:104BE00066E970E0CE0101960E941A13BE016F5F64
:104BF0007F4FC1010E942507CE0101960E948A12B3
:104C000041E068E0C1010E9401126AE875E0C1015B
:104C10000E94E31143E068E0C1010E94011266E8CE
:104C200075E0C1010E94E3116E0133EDC30ED11C8A
:104C300028E0922E7601C152DF4F68817981CF5DE5
:104C4000D040CE0101960E94A510CE0101960E948F
:104C5000D60C082F10E0EBEBF0E0EC0FFD1FE00F9F
:104C6000F11F808190E0D6018D939D936D0143E00B
:104C7000692DC1010E940112E7ECF0E0EC0FFD1F6D
:104C8000E00FF11F6081CE0101960E944613BE0124
:104C90006F5F7F4FC1010E942507CE0101960E94E0
:104CA0008A129394BBE09B12C6CFF7018081918159
:104CB000A89EB001A99E700D112422813381B29E5D
:104CC000C001B39E900D1124680F791F84819581D6
:104CD0009B01280F391FCF51DF4F39832883C15ED5
:104CE000D040B90190E080E00E94E7459B01AC0113
:104CF00060E070E085E193E40E9469470E940A4801
:104D00000E94DB476F5FC752DF4F6883C95DD040A9
:104D100036CF8AE0B82EE4CEC1010E943E1240E0B8
:104D200060E0C1010E94011263E575E0C1010E94CB
:104D3000E31140E06CE0C1010E9401126AE475E0F9
:104D4000C1010E94E31142E060E0C1010E94011232
:104D500067E375E0C1010E94E31160ED77E080E058
:104D600090E00E94A40541E060E0C1010E940112B0
:104D700063E275E0C1010E94E31142E060E0C1011D
:104D80000E9401126FE075E0C1010E94E31143E04F
:104D900060E0C1010E9401126BEF74E0C1010E944A
:104DA000E31180E790E08C0F9D1F4E96FE01E059C5
:104DB000FF4F1192E817F907E1F7F12C0CE010E032
:104DC000CB51DF4F3881C55ED040232F30E0C55234
:104DD000DF4F39832883CB5DD040C752DF4F4881F6
:104DE000C95DD040842E912CB12CA12CF11010C0A3
:104DF000C152DF4F68817981CF5DD040CE010196ED
:104E00000E94A510CE0101960E94D60C082F10E03A
:104E10000A30110530F0C552DF4F08811981CB5D92
:104E2000D0400930110509F04AC0C1010E943E126C
:104E300040E060E0C1010E94011260EF74E0C10136
:104E40000E94E31140E06CE0C1010E94011267EE94
:104E500074E0C1010E94E31141E060E0C1010E94E1
:104E6000011263ED74E0C1010E94E31142E061E0D0
:104E7000C1010E9401126FEB74E0C1010E94E311B5
:104E800043E064E0C1010E9401126EEA74E0C101D6
:104E90000E94E311C152DF4F68817981CF5DD0401C
:104EA000CE0101960E94A510CE0101960E94D60C5B
:104EB00090E08A30910519F08C01065F1F4FC552B2
:104EC000DF4F88819981CB5DD0400817190708F022
:104ED000F9C0CF2CD12CE0E7F0E0EC0FFD1FEC0D7A
:104EE000FD1D81E0800F8083C501B4010E94E7456C
:104EF0002B013C016F2D70E090E080E00E94E745BF
:104F00009B01AC01C301B2010E9469470E940A489B
:104F10000E94DB47F3944F2D51E09FEFC91AD90A45
:104F2000651760F1852F90E001968C9D90018D9D15
:104F3000300D9C9D300D1124742FE72FE41B872F1B
:104F400090E028173907BCF0A0E7B0E0AC0FBD1F18
:104F5000AE0FB11DFD01E081A0E7B0E0AC0FBD1FB9
:104F60008A0F9B1FDC01EC93CD5EDE4F7883C3512B
:104F7000D1407F5FE2CF5F5F4F0DD2CFCD5EDE4F7E
:104F80008881C351D1408F5FE0E7F0E0EC0FFD1F57
:104F9000E80FF11DDE01A059BF4FC752DF4F288136
:104FA000C95DD040821720F49D9191938F5FF5CF1A
:104FB000C1010E943E1240E060E0C1010E94011266
:104FC00063EA74E0C1010E94E31140E06CE0C101BA
:104FD0000E9401126AE974E0C1010E94E311C75204
:104FE000DF4F3881C95DD0403B3010F5AE014059EC
:104FF0005F4F6A01E12CC752DF4F5881C95DD04035
:105000005E1509F45FC06E2D660F41E0C1010E947C
:105010000112D6017D906D01B101CE0101960E9471
:105020004211672DCE0101960E945F13E394E3CFF6
:10503000C752DF4FB881C95DD040FE01E059FF4F34
:105040006F01E12CB53108F05FC341E06E2DC10165
:105050000E940112D6017D906D01B101CE01019631
:105060000E944211672DCE0101960E945F13E394C6
:10507000E394B4E1EB12E9CFA0E7CA2ED12CCC0E19
:10508000DD1EEAE0CE0ED11CBAE0EB2E66E76E0D17
:10509000660F42E0C1010E940112D6017D906D01B0
:1050A000B101CE0101960E944211672DCE010196F9
:1050B0000E945F13E394C752DF4FB881C95DD040AF
:1050C000BE11E4CFFF2081F0C152DF4F68817981AA
:1050D000CF5DD040CE0101960E94A510CE01019671
:1050E0000E94D60C082F10E00B30110509F07ECE7F
:1050F000FE01E455FF4FC751DF4FF983E883C95ED6
:10510000D0409E0123563F4FCB50DF4F3983288339
:10511000C55FD040AE0142575F4FC750DF4F598344
:105120004883C95FD040225E3F4FCB50DF4F88811C
:105130009981C55FD0401192DC011D92CD01DA0149
:105140001D92AD012E173F07B1F7C351DF4F1882F3
:10515000CD5ED040C552DF4F1882CB5DD040CF51DD
:10516000DF4F28813981C15ED0403327C55EDE4FD5
:1051700039832883CB51D140CF51DF4FA881B981EA
:10518000C15ED040CD01B0E0A0E0C35EDE4F8883B9
:105190009983AA83BB83CD51D1406AE0862EC55244
:1051A000DF4FF881CB5DD040EF2FF0E0C35FDE4FE3
:1051B000F983E883CD50D140C55EDE4F68807980A9
:1051C000CB51D1406E0E7F1EC1010E943E1240E0C5
:1051D00060E0C1010E94011261E974E0C1010E9416
:1051E000E31140E06CE0C1010E94011268E874E044
:1051F000C1010E94E31141E060E0C1010E9401127F
:1052000065E774E0C1010E94E31143E060E0C10181
:105210000E94011260E674E0C1010E94E3112E01B8
:10522000E3ED4E0E511C720153E0D52EC152DF4FFB
:1052300068817981CF5DD040CE0101960E94A51092
:10524000CE0101960E94D60C082F10E0EBEBF0E0A7
:10525000EC0FFD1FE00FF11F808190E0D7018D93CF
:105260009D937D0143E06D2DC1010E940112E7EC89
:10527000F0E0EC0FFD1FE00FF11F6081CE01019601
:105280000E944613BE016F5F7F4FC1010E94250738
:10529000CE0101960E948A12D394B6E0DB12C6CFEB
:1052A000CD52DF4F28813981C35DD040E4E6E29FD3
:1052B000C001E39F900D1124CB52DF4F48815981EB
:1052C000C55DD040849E9001859E300D1124820FD3
:1052D000931FC952DF4F28813981C75DD040AC018F
:1052E000420F531FC350DF4F59834883CD5FD040D7
:1052F00072014AE0D42EC152DF4F68817981CF5DBF
:10530000D040CE0101960E94A510CE0101960E94C8
:10531000D60C082F10E0EBEBF0E0EC0FFD1FE00FD8
:10532000F11F808190E0D7018D939D937D0143E033
:105330006D2DC1010E940112E7ECF0E0EC0FFD1FA2
:10534000E00FF11F6081CE0101960E944613BE015D
:105350006F5F7F4FC1010E942507CE0101960E9419
:105360008A12D394BDE0DB12C6CFCD52DF4F088145
:105370001981C35DD040CB52DF4FE880F980C55D15
:10538000D040C952DF4FC880D980C75DD04031E1DD
:10539000932EC152DF4F68817981CF5DD040CE011D
:1053A00001960E94A510CE0101960E94D60CA82E4F
:1053B000B12CEBEBF0E0EC0FFD1FEA0DFB1D808143
:1053C00090E0F201819391932F0143E0692DC10197
:1053D0000E940112E7ECF0E0EC0FFD1FEA0DFB1D4F
:1053E0006081CE0101960E944613BE016F5F7F4F20
:1053F000C1010E942507CE0101960E948A12939452
:10540000F4E19F12C6CFC350DF4F28813981CD5FB1
:10541000D0402F3F310511F008F0D6CE24E6209F72
:10542000C001219F900D11248E9C90018F9C300D06
:105430001124820F931FAC014C0D5D1DCF5FDE4F19
:1054400059834883C150D1404F3F510511F008F0B6
:10545000BBCECD52DF4F28813981C35DD04054E6A9
:10546000529FC001539F900D1124CB52DF4F4881B2
:105470005981C55DD040849E9001859E300D1124D8
:10548000820F931FC952DF4F28813981C75DD040F9
:10549000DC01A20FB31FCB5FDE4FB983A883C550D9
:1054A000D140AF3FB10511F008F08ECEB7E96B16D1
:1054B00071040CF089CEC751DF4FA881B981C95E54
:1054C000D040C350DF4FE881CD5FD040ED93C7514E
:1054D000DF4FB983A883C95ED040CB50DF4FA8818E
:1054E000B981C55FD040CF5FDE4FE881C150D14068
:1054F000ED93CB50DF4FB983A883C55FD040C75031
:10550000DF4FA881B981C95FD040CB5FDE4FE88112
:10551000C550D140ED93C750DF4FB983A883C95F11
:10552000D040C351DF4FF881CD5ED040F1114AC168
:10553000C356DF4F9881CD59D040C257DF4F888185
:10554000CE58D040C455DF4F2881CC5AD04020934C
:10555000AC0C9093AD0C8093AE0C0E94E205C3514D
:10556000DF4FE881CD5ED040E11157C2C552DF4F19
:10557000F881CB5DD040FF5FC552DF4FF883CB5D34
:10558000D040C351DF4F4881CD5ED0404F5FC35103
:10559000DF4F4883CD5ED040C552DF4F5881CB5D91
:1055A000D040563960F4CB51DF4FB881C55ED04052
:1055B000C351DF4FE881CD5ED040BE13EECD0E94D7
:1055C0007211E1968FADE1978150990BA0E7B0E0A1
:1055D000AC0FBD1F1197C351DF4FB983A883CD5EB8
:1055E000D040CB51DF4F1882C55ED040C751DF4F4E
:1055F0001882C95ED040CF51DF4F48815981C15ECA
:10560000D0409A0150E040E0CB5FDE4F28833983E1
:105610004A835B83C550D140ADE9B0E0AC0FBD1FFC
:10562000A80FB91FC75FDE4FB983A883C950D14007
:10563000EEE8F0E0EC0FFD1FE80FF91FC35FDE4F4F
:10564000F983E883CD50D1402CEA30E02C0F3D1F88
:10565000280F391FC15FDE4F39832883CF50D140D7
:10566000C752DF4F3881C95DD040CB51DF4F4881F1
:10567000C55ED040341709F433C34111DFC1C75FA1
:10568000DE4FA881B981C950D1409C91C35FDE4FE4
:10569000E881F981CD50D1408081C15FDE4FA88182
:1056A000B981CF50D1402C912093AC0C9093AD0C8C
:1056B0008093AE0CC751DF4FF881C95ED040CF5107
:1056C000DF4F2881C15ED040F20FC751DF4FF88312
:1056D000C95ED040CB51DF4F3881C55ED0403F5FBF
:1056E000CB51DF4F3883C55ED040C351DF4F488177
:1056F0005981CD5ED0404F5F5F4FC351DF4F59831B
:105700004883CD5ED040ACCF41E06E2DC1010E94F8
:105710000112D6017D906D01B101CE0101960E946A
:105720004211672DCE0101960E945F13E394E3942A
:10573000B4E1EB12E9CFF0E7CF2ED12CCC0EDD1E79
:10574000EAE0CE0ED11CE12C42E06E2DC1010E9498
:105750000112D6017D906D01B101CE0101960E942A
:105760004211672DCE0101960E945F13E394E394EA
:10577000B4E1EB12E9CF70E7C72ED12CCC0EDD1EC1
:10578000E4E1CE0ED11CE4E1EE2E6CE66E0D660F68
:1057900043E0C1010E940112D6017D906D01B1016B
:1057A000CE0101960E944211672DCE0101960E9402
:1057B0005F13E394C752DF4FB881C95DD040BE117B
:1057C000E4CF80CCCF50DF4F1882C15FD040C751AB
:1057D000DF4F28813981C95ED04022503109CB5E2C
:1057E000DE4F39832883C551D140CB50DF4F4881EC
:1057F0005981C55FD04042505109C95EDE4F59837F
:105800004883C751D140C750DF4F88819981C95F14
:10581000D0400297C75EDE4F99838883C951D1403B
:10582000CF50DF4FB881C15FD040AB2FB0E0C75F32
:10583000DE4FB983A883C950D140CF51DF4FE881F3
:10584000F981C15ED040EA17FB0708F486CECB5E33
:10585000DE4FA881B981C551D1401C91CF50DF4F97
:10586000B881C15FD0406B2F70E090E080E00E9473
:10587000E7452B013C01C35EDE4F688179818A8157
:105880009B81CD51D1400E94E7456B017C01C35003
:10589000DF4F68817981CD5FD040611B7109072E90
:1058A000000C880B990B0E94E945A70196010E9404
:1058B0006947A30192010E9424464B015C01612FBC
:1058C00070E090E080E00E94E7459B01AC01C501DB
:1058D000B4010E94FD460E940A48C15FDE4F688302
:1058E00079838A839B83CF50D140C95EDE4FE881A4
:1058F000F981C751D1401081CF5FDE4F6881798136
:10590000C150D140611B7109072E000C880B990B07
:105910000E94E945A70196010E946947A3019201EF
:105920000E9424464B015C01612F70E090E080E012
:105930000E94E7459B01AC01C501B4010E94FD46F0
:105940000E940A484B015C01C75EDE4FA881B98105
:10595000C951D1401C91CB5FDE4F68817981C55020
:10596000D140611B7109072E000C880B990B0E9416
:10597000E945A70196010E946947A30192010E948F
:1059800024466B017C01612F70E090E080E00E9472
:10599000E7459B01AC01C701B6010E94FD460E948C
:1059A0000A486B017C01C75FDE4F08811981C9502D
:1059B000D140C35FDE4FE881F981CD50D1400E0F59
:1059C0001F1FC801880F991F080F191F0755134F74
:1059D000C15FDE4F688179818A819B81CF50D14040
:1059E0000E94DB47D8016C93C501B4010E94DB47DC
:1059F000F8016183C701B6010E94DB47D801129606
:105A00006C93CF50DF4FB881C15FD040BF5FCF50A4
:105A1000DF4FB883C15FD04003CFC552DF4F28812D
:105A2000CB5DD040CF51DF4F3881C15ED040230FD6
:105A3000C552DF4F2883CB5DD040A3CDC751DF4F88
:105A4000B881C95ED040C552DF4FB883CB5DD0402E
:105A5000E1E0EB1BC350DF4FE883CD5FD040CF5177
:105A6000DF4F28813981C15ED0402B0F311DCF5FC0
:105A7000DE4F39832883C150D140C350DF4F688146
:105A8000CD5FD040C552DF4F5881CB5DD040650F10
:105A9000CF5FDE4F88819981C150D14058171906D8
:105AA00008F008CEC351DF4FE881F981CD5ED040C8
:105AB00000810150110BECEAF0E0EC0FFD1FE00F4C
:105AC000F11F2081CF50DF4F2883C15FD04070E0AD
:105AD00090E080E00E94E7452B013C01C351DF4F7D
