:020000040000FA
:100000000C949B040C94CC040C94CC040C94CC0461
:100010000C94CC040C94CC040C94CC040C94CC0420
:100020000C94CC040C94CC040C94CC040C94CC0410
:100030000C94CC040C94CC040C94CC040C94CC0400
:100040000C94CC040C94CC040C94CC040C94CC04F0
:100050000C94CC040C94CC040C94CC040C94F64476
:100060000C94CC040C946A450C9440450C94CC043C
:100070000C94CC040C94CC040C94CC040C94CC04C0
:100080000C94CC040C94CC040C94CC040C94CC04B0
:100090000C94CC040C94CC040C94CC040C94A0458B
:1000A0000C94CC040C94CC040C94CC040C94CC0490
:1000B0000C94CC040C94CC040C94CC040C94CC0480
:1000C0000C94CC040C94CC040C94CC040C94CC0470
:1000D0000C94CC040C94CC040C94CC040C94CC0460
:1000E0000C94CC040C949E120C9427100C948D103C
:1000F0000C940D110C94263D0C94B8070C94CB0D68
:100100000C9444050C9480070C94A2090C9474057B
:100110000C9441050C946A050C940F090C94DB07B0
:100120000C94C7070C94E9070C94C93C0C94620525
:100130000C945C050C947F070C94CF090C94091166
:100140000C94223C0C946E080C94E8110C94770BE0
:100150000C9481070C946F050C94C4460C94D53B09
:100160000C9478090C9449130C9488090C94350567
:100170000C9425100C947F0B0C949B090C947B0B16
:100180000C944A050C94BF3D0C9439050C94A13B8A
:100190000C944E050C94E7110C9454050C946605D0
:1001A0000C9479090C9406110C943D050C9470057F
:1001B0000C9403110C9458050C942F050C942108F1
:1001C0000C9484070C94653D48483A4D4D20414DB0
:1001D000002D0030002376002A5E0048483A4D4D3D
:1001E00020414D00414E494D4154494F4E533A0034
:1001F0002D002376002A5E0048483A4D4D20414D9F
:1002000000414E494D4154494F4E533A002D003064
:10021000002376002A5E0048483A4D4D20414D00AB
:1002200053544152542050543A002D002376002A52
:100230005E0048483A4D4D20414D005354415254C0
:100240002050543A002A002A2A2A2A2A2A2A2A2A0C
:100250002A2A2A2A2A2A2A2A2A2A2A005F5F5F5F54
:100260005F5F00456E7465722050617373776F72C3
:10027000643A002A2A2A2A2A2A2A2A2A2A2A2A2ABE
:100280002A2A2A2A2A2A2A002376002A5E002D00FA
:1002900030002D005F005F00746F207069636B2079
:1002A0006D6F726520636F6C6F72732E0050726594
:1002B000737320616E79206F74686572206B657945
:1002C0000050726573732027302720696620646FA1
:1002D0006E652E00202020202020636F6E74696ED2
:1002E0007565002020507265737320616E79206BF4
:1002F000657920746F004D4F4E4441592B2B20538C
:100300006D61727421204C454473002A2A2A2A2ADE
:100310002A2A2A2A2A2A2A2A2A2A2A2A2A2A2A0067
:1003200000002100240027002A002D0030003300A7
:1003300001010000040107010A010000220025005C
:1003400028002B002E0031003400020100000501BE
:1003500008010B01000020002300260029002C00CA
:100360002F0032000001000003010601090105050C
:100370000505070508080808020202020A0A08081B
:100380000404040401010101010101010303030349
:1003900003030303040707070C0C0C0C0C0C0C0CD8
:1003A0000202020206060606060606060B0B0B0BE9
:1003B0000B0B0B0B0102102020080810204010200E
:1003C0004080020102010804020101020408102019
:1003D0004080804020100804020180040201804017
:1003E0002010080402010804020101020408102080
:1003F0004080010204081020408000000A0B02091E
:100400000C0D0E08070304010000000000000000AE
:1004100000000000000000000000000000000000DC
:100420000000000000001211100000000000000099
:1004300000000000000000000000000000000000BC
:10044000746F207069636B206D6F726520636F6CD1
:100450006F72732E00507265737320616E79206F16
:1004600074686572206B657900507265737320271C
:10047000302720696620646F6E652E00523A205F37
:100480005F5F20473A205F5F5F20423A205F5F5FF7
:10049000002843686F6F73652050617420436F6C50
:1004A0006F72290048483A4D4D20414D005041544B
:1004B0005445524E3A0048483A4D4D20414D005067
:1004C0004154204F524445523A00464F523A20413F
:1004D000204220432044204520460053454C4543BC
:1004E000543A203020312032203320342035002867
:1004F00053656C65637420486578204E756D626540
:1005000072290048483A4D4D20414D005041542039
:100510004F524445523A005F205F205F205F205FCA
:10052000205F205F205F205F205F005F205F205FF3
:10053000205F205F205F205F205F205F205F005FE3
:10054000205F205F205F205F205F205F205F205FB3
:10055000205F0050726573732023207768656E20DA
:10056000646F6E65210048483A4D4D20414D005062
:100570004154204F524445523A005F5F00205041A1
:10058000545445524E53212900284D4158200048CB
:10059000483A4D4D20414D004E4F2E20504154536E
:1005A0003A005F5F5F00204C454473212900284DCD
:1005B0004158200048483A4D4D20414D004E4F2EA5
:1005C000204C4544733A005F5F0020434845434B4D
:1005D000505453212900284D4158200048483A4D95
:1005E0004D20414D004E4F2E20434845434B3A008D
:1005F000322D4279204E756D626572204C454473F0
:1006000000312D4279204E756D626572205365630D
:1006100074696F6E730048483A4D4D20414D004D4E
:100620004554484F443A00746F207069636B206DE5
:100630006F726520636F6C6F72732E0050726573FA
:100640007320616E79206F74686572206B65790024
:1006500050726573732027302720696620646F6E9F
:10066000652E00523A205F5F5F20473A205F5F5F50
:1006700020423A205F5F5F00285069636B20436827
:1006800065636B707420436F6C6F72290048483A41
:100690004D4D20414D00455155414C3A005F5F5F43
:1006A00000204C454473212900284D415820004822
:1006B000483A4D4D20414D004E4F2E204C4544733D
:1006C0003A005F5F0020434845434B505453212973
:1006D00000284D4158200048483A4D4D20414D00DA
:1006E0004E4F2E20434845434B3A00322D4279204D
:1006F0004E756D626572204C45447300312D427910
:10070000204E756D62657220436865636B7074730B
:100710000048483A4D4D20414D004D4554484F4406
:100720003A00746F207069636B206D6F726520638F
:100730006F6C6F72732E00507265737320616E79E7
:10074000206F74686572206B6579005072657373F1
:100750002027302720696620646F6E652E004E7555
:100760006D626572206F66204C4544733A205F5F6E
:100770005F00523A205F5F5F20473A205F5F5F2053
:10078000423A205F5F5F00285069636B20436865D1
:10079000636B707420436F6C6F72290048483A4D48
:1007A0004D20414D00554E455155414C3A00523A6D
:1007B000205F5F5F20473A205F5F5F20423A205F03
:1007C0005F5F00285069636B20436865636B7074DA
:1007D00020436F6C6F72290048483A4D4D20414DBF
:1007E00000554E455155414C3A00746F2070696375
:1007F0006B206D6F726520636F6C6F72732E00508B
:100800007265737320616E79206F74686572206BF6
:100810006579005072657373202730272069662040
:10082000646F6E652E00523A205F5F5F20473A206A
:100830005F5F5F20423A205F5F5F002843686F6F11
:10084000736520326E6420436F6C6F7229004848D4
:100850003A4D4D20414D0048202620483A00523A5A
:10086000205F5F5F20473A205F5F5F20423A205F52
:100870005F5F002843686F6F736520317374204396
:100880006F6C6F72290048483A4D4D20414D004829
:10089000202620483A00746F207069636B206D6FCA
:1008A000726520636F6C6F72732E00507265737384
:1008B00020616E79206F74686572206B65790050D5
:1008C000726573732027302720696620646F6E6518
:1008D0002E00523A205F5F5F20473A205F5F5F2023
:1008E000423A205F5F5F002843686F6F7365205353
:1008F0006F6C696420436F6C6F72290048483A4DF1
:100900004D20414D00534F4C49443A00507265739D
:10091000732023207768656E20646F6E6521005216
:100920003A205F5F5F20473A205F5F5F20423A20B6
:100930005F5F5F00C44611241FBECFEFD1E2DEBF70
:10094000CDBF00E00CBF20E1A4E7BCE001C01D92D8
:10095000AD3EB207E1F71CE0A0E0B2E0ECEAFDE951
:1009600000E00BBF02C007900D92A437B107D9F782
:1009700014E0CBE9D4E000E006C021970109802F04
:10098000FE010E94804CCA39D10780E00807A9F710
:100990000E9496470C94D44E0C9400001092440E82
:1009A0001092450E8091460E9091470E823091052F
:1009B000C9F08330910511F1019791F5E4E4FEE06F
:1009C000148215821682178234968EE0E038F8077A
:1009D000B9F7E4E8FEE082EA9EE011928E179F07E5
:1009E000E1F70895E4E4FEE014821582168217828E
:1009F00034968EE0EC3BF807B9F70895E4E4FEE0A6
:100A0000148215821682178234968EE0E038F80739
:100A1000B9F7E4E8FEE011928EE0E339F807D9F780
:100A200008958150823108F05AC0E82FF0E08827FD
:100A3000E35EFA4F8F4F0C94804C3D0541052F0526
:100A4000350539056F0544054A054E055405580519
:100A50005C05620566056F056A0570057405809181
:100A600080008F77809380000895809180008F7D33
:100A7000F9CF80918000877FF5CF84B58F7784BDD3
:100A8000089584B58F7DFBCF8091B0008F778093E0
:100A9000B00008958091B0008F7DF9CF80919000D3
:100AA0008F77809390000895809190008F7DF9CF8B
:100AB00080919000877FF5CF8091A0008F77809301
:100AC000A00008958091A0008F7DF9CF8091A000B3
:100AD000877FF5CF809120018F7780932001089543
:100AE000809120018F7DF9CF80912001877FF5CF04
:100AF000CF93DF93282F30E0F901E650FC4F84912B
:100B0000F901EC54FC4FD491F901E259FC4FC49126
:100B1000CC23A1F081110E941105EC2FF0E0EE0F23
:100B2000FF1FEC5AFC4FA591B491EC91ED2381E0AD
:100B300090E009F480E0DF91CF91089580E090E0AB
:100B4000FACF1F93CF93DF93282F30E0F901E650BF
:100B5000FC4F8491F901EC54FC4FD491F901E25916
:100B6000FC4FC491CC23A9F0162F81110E941105CE
:100B7000EC2FF0E0EE0FFF1FE65CFC4FA591B49167
:100B80008FB7F894EC91111108C0D095DE23DC9357
:100B90008FBFDF91CF911F910895DE2BF8CFCF93B8
:100BA000DF9390E0FC01EC54FC4F249182599C4F60
:100BB000FC0184918823C9F090E0880F991FFC0103
:100BC000E05EFC4FA591B491FC01E65CFC4FC59141
:100BD000D49161110DC09FB7F8948C912095822318
:100BE0008C938881282328839FBFDF91CF9108951C
:100BF000623051F49FB7F8943C91822F8095832303
:100C00008C93E8812E2BEFCF8FB7F894EC912E2B9D
:100C10002C938FBFEACF3FB7F8948091780D9091D5
:100C2000790DA0917A0DB0917B0D26B5A89B05C0DA
:100C30002F3F19F00196A11DB11D3FBFBA2FA92F5B
:100C4000982F8827BC01CD01620F711D811D911D58
:100C500042E0660F771F881F991F4A95D1F70895C4
:100C60008F929F92AF92BF92CF92DF92EF92FF92BC
:100C70004B015C010E940B066B017C010E940B067C
:100C80006C197D098E099F09683E734081059105A5
:100C9000A8F321E0821A9108A108B10888EEC80ED5
:100CA00083E0D81EE11CF11C81149104A104B1045D
:100CB00029F7FF90EF90DF90CF90BF90AF909F907B
:100CC0008F9008952FB7F8946091740D7091750D01
:100CD0008091760D9091770D2FBF0895AF92BF92BE
:100CE000CF92DF92EF92FF920F931F93CF93DF93F8
:100CF000D09055108091581090915910A0915A1091
:100D0000B0915B10892B8A2B8B2BD9F00E940B069C
:100D10000091400E1091410E2091420E3091430EF1
:100D2000601B710B820B930B00915810109159109E
:100D300020915A1030915B1060177107820793075A
:100D4000C8F20E940B066093400E7093410E809390
:100D5000420E9093430EE0916010F0916110309735
:100D600059F040915C1050915D1060915E1070914F
:100D70005F108D2D1995D82EC0913E0ED0913F0E4B
:100D80008EE1E82E8EE0F82E8701209749F18EE063
:100D90000E33180729F18D858823F1F0E881F98158
:100DA000A284B3840680F781E02DCE011995BC01A1
:100DB000CE01F5011995F801918380838091561039
:100DC000909157108436910508F41C860C80DD81C3
:100DD000C02D0E5F1F4FD9CFF80111821082EECFC8
:100DE000C0913E0ED0913F0E00E110E02097A9F097
:100DF0008D85882361F04E855F856A817B81E881DE
:100E0000F9810280F381E02D2D2DCE0119950C8002
:100E1000DD81C02D0150110949F7C0913E0ED091DE
:100E20003F0E2097C9F0FEE3EF16FEE0FF06A1F0AB
:100E30008D85882351F0F70160817181E881F98106
:100E40000484F585E02DCE0119950C80DD81C02D3F
:100E5000F2E0EF0EF11CE5CF80911C0E90911D0E7B
:100E6000EC012196D0931D0EC0931C0E4997E4F11E
:100E70000E9462060091180E1091190E20911A0E10
:100E800030911B0E6B017C01C01AD10AE20AF30AF1
:100E9000A7019601211531054105510521F421E0F5
:100EA00030E040E050E088EE93E0C89FB001C99F79
:100EB000700DD89F700D1124072E000C880B990B14
:100EC0000E945E4C309357102093561010921D0EC6
:100ED00010921C0E0E9462066093180E7093190EF9
:100EE00080931A0E90931B0EDF91CF911F910F915B
:100EF000FF90EF90DF90CF90BF90AF90089508954E
:100F0000089580E991E00895AF92BF92CF92DF9269
:100F1000EF92FF920F931F93CF93DF936C017B01AE
:100F20008B01040F151FEB015E01AE18BF08C0173F
:100F3000D10759F06991D601ED91FC910190F081B2
:100F4000E02DC6011995892B79F7C501DF91CF9165
:100F50001F910F91FF90EF90DF90CF90BF90AF90D7
:100F60000895FB0144815581608171810C9484074F
:100F7000FC01538D448D252F30E0842F90E0821B9F
:100F8000930B541710F0CF96089501970895FC0124
:100F9000918D828D981761F0A28DAE0FBF2FB11D7C
:100FA0005D968C91928D9F5F9F73928F90E00895D4
:100FB0008FEF9FEF0895FC01918D828D981731F08E
:100FC000828DE80FF11D858D90E008958FEF9FEFE2
:100FD0000895FC01918D228D892F90E0805C9F4FB8
:100FE000821B91098F739927089588EB9FE00E94D7
:100FF000E90721E0892B09F420E0822F0895FC0104
:10100000A48DA80FB92FB11DA35ABF4F2C91848D69
:1010100090E001968F739927848FA689B7892C93C6
:10102000A089B1898C91837080648C93938D848D19
:10103000981306C00288F389E02D80818F7D80831C
:101040000895EF92FF920F931F93CF93DF93EC01DC
:1010500081E0888F9B8D8C8D98131AC0E889F9895F
:10106000808185FF15C09FB7F894EE89FF89608362
:10107000E889F98980818370806480839FBF81E0E3
:1010800090E0DF91CF911F910F91FF90EF90089525
:10109000F62E0B8D10E00F5F1F4F0F731127E02E00
:1010A0008C8D8E110CC00FB607FCFACFE889F98938
:1010B000808185FFF5CFCE010E94FF07F1CFEB8D38
:1010C000EC0FFD2FF11DE35AFF4FF0829FB7F8940C
:1010D0000B8FEA89FB8980818062CFCFCF93DF932A
:1010E000EC01888D8823B9F0AA89BB89E889F98940
:1010F0008C9185FD03C0808186FD0DC00FB607FC75
:10110000F7CF8C9185FFF2CF808185FFEDCFCE01A7
:101110000E94FF07E9CFDF91CF91089580E090E032
:10112000892B29F00E94F50781110E94000080E0C0
:1011300090E0892B49F080E090E0892B29F00E9413
:10114000000081110E94000080E090E0892B49F0AE
:1011500080E090E0892B29F00E94000081110E941C
:10116000000080E090E0892B49F080E090E0892B3E
:1011700029F00E94000081110C9400000895AF92A4
:10118000BF92CF92DF92EF92FF920F931F93CF9374
:10119000DF9300D0CDB7DEB75A0119821A821B82C5
:1011A000882361F18B01E1E0F0E0E82EF12CD80119
:1011B0002D918D012223F1F06F01B1E0CB1AD108FE
:1011C000D501AC0DBD1D4C914423A1F030E02F5F43
:1011D0003F4FD7010E94C54AA42FB0E011969B0152
:1011E000AC010E94BA4AA1E0B0E0AC0FBD1FAC0D4B
:1011F000BD1D8C933196E430F105C9F669817A8181
:101200008B810F900F900F90DF91CF911F910F91D5
:10121000FF90EF90DF90CF90BF90AF90089581E066
:1012200090E008952091FF0C260F3327331F2132C1
:101230003105ECF42091230DFC0190E080E0243096
:1012400069F082E00895A091FF0C2191AC01415218
:10125000534FA40FB52FB11D2C930196861798F309
:101260008091FF0C680F6093FF0C80E0089581E08F
:1012700008951092230D81E08093250D1092240D86
:1012800061E084E10E94A10561E085E10E94A10581
:10129000E9EBF0E080818E7F808380818D7F808389
:1012A00088E48093B80085E48093BC000895CF93D0
:1012B000DF9391E09093DE0C8823B9F0C091B800E1
:1012C000D091BA008091BC008A7B8093BC0060E022
:1012D00084E10E94A10560E085E10E94A1050E94D1
:1012E0003909D093BA00C093B800DF91CF91089527
:1012F0000895E091720D8091710DE81730F4F0E0DF
:10130000E754F34F808190E008958FEF9FEF0895A9
:101310009091720D8091710D2FEF3FEF981748F467
:10132000E92FF0E0E754F34F208130E09F5F909386
:10133000720DC90108958091710D9091720D891BF4
:10134000990B0895CF92DF92EF92FF920F931F9324
:10135000CF93DF937C01CB018A012091B80C22232B
:1013600089F0EB016B01C40ED51ECC15DD0569F0CB
:101370006991D701ED91FC910190F081E02DC701B9
:101380001995F3CF642F0E941209C801DF91CF9104
:101390001F910F91FF90EF90DF90CF900895CF9322
:1013A000DF931F92CDB7DEB769832091B80C22235B
:1013B000F9F020916F0D203258F021E030E0FC016F
:1013C0003383228390E080E00F90DF91CF910895E6
:1013D0008091700DE82FF0E0E856F34F99819083EB
:1013E0008F5F8093700D80936F0D81E090E0ECCF64
:1013F00061E0CE0101960E941209F7CFCF92DF92F1
:10140000EF92FF920F931F93CF93DF93FC01C48160
:1014100021E02093B80CC093970C1092700D10929D
:101420006F0D8385682B82E690E10E94CF09D091F1
:101430006F0DD13208F092C00E940B066B017C0147
:101440008091230D811165C082E08093230D81E09E
:101450008093250D8FEF8093220D1092470DD0932E
:10146000460DA8E9BCE0E6E2FDE080E0D81385C0C7
:101470001092480D8091480DCC0FC82BC093480D99
:101480008091240D813009F07CC01092240D0E94BF
:101490000B066B017C018091480D8093BB0080910D
:1014A000DA0C9091DB0CA091DC0CB091DD0C892B57
:1014B0008A2B8B2B99F00E940B060091DA0C10916D
:1014C000DB0C2091DC0C3091DD0C6C197D098E0950
:1014D0009F090617170728073907E0F18091BC001C
:1014E00083FDD9CF85EC8093BC000E940B066B0175
:1014F0007C018091230D823009F445C08091220D3A
:101500008F3F61F18091220D803241F18091220D57
:1015100025C08091DA0C9091DB0CA091DC0CB0918D
:10152000DD0C892B8A2B8B2B09F48ACF0E940B06AA
:101530000091DA0C1091DB0C2091DC0C3091DD0C69
:101540006C197D098E099F090617170728073907A7
:1015500008F076CF8091D90C0E9457091092700D37
:1015600010926F0D1092B80CDF91CF911F910F91D7
:10157000FF90EF90DF90CF9008959D9191938F5FB2
:1015800075CF85EEB0CF8091DA0C9091DB0CA091F5
:10159000DC0CB091DD0C892B8A2B8B2B09F4A9CFA5
:1015A0000E940B060091DA0C1091DB0C2091DC0CF0
:1015B0003091DD0C6C197D098E099F0906171707FC
:1015C0002807390708F095CFC5CFCF93DF93DC010B
:1015D00026E0629FA00DB11D112490965C934E935E
:1015E0005F9721E091962C939197FC01E359FF4F6F
:1015F0000190F081E02DEC01C459DF4F28812223B6
:1016000041F0309719F0DC01662329F0DF91CF918A
:1016100008953097D9F35C968C91DF91CF9119940E
:10162000CF92DF92EF92FF920F931F93CF93DF93AE
:10163000EC01162F042FFC0186E0689FE00DF11DE0
:10164000112411A2878D90A18130910509F180F0BC
:101650008230910509F443C0039709F445C0DF9136
:10166000CF911F910F91FF90EF90DF90CF90089551
:101670004423A9F341E050E0CE010E94E50A0E9414
:101680006206C85ADF4F688379838A839B83E7CFDA
:101690000E946206FE01E85AFF4FC080D180E280BE
:1016A000F380AB01BC014C195D096E097F0972968C
:1016B00080819181B0E0A0E084179507A607B70765
:1016C00070F442E050E0612FCE01DF91CF911F9185
:1016D0000F91FF90EF90DF90CF900C94E50A43E0DC
:1016E00050E00111BCCFEFCF50E040E0ECCF862FAF
:1016F000642F0C94CF05862F642F0C94A105862FA0
:101700000C9478052F923F924F925F926F927F9246
:101710008F929F92AF92BF92CF92DF92EF92FF9201
:101720000F931F93CF93DF93CDB7DEB72C970FB6F0
:10173000F894DEBF0FBECDBF9C878B8784599F4F27
:101740009A83898381E0A981BA818C930E94620681
:10175000EB85FC85E45AFF4FFC83EB83008111810C
:1017600022813381AB01BC01401B510B620B730B17
:10177000EB85FC85E859FF4F80819181B0E0A0E0C6
:1017800084179507A607B70708F04FC110E0CB8470
:10179000DC84F6E6CF0ED11CEB84FC8422E6E20E5C
:1017A000F11CD6018C91181758F4D701ED91FC91DA
:1017B000E10FF11D62E080810E94CF051F5FF1CF34
:1017C000312C4B845C84B7E64B0E511CEB84FC84BB
:1017D000E4E6EE0EF11C812C912C540183942B85B0
:1017E0003C852E593F4F3A872987D2018C91381674
:1017F00008F063C0032D10E0D701ED91FC91E00FDC
:10180000F11F61E080810E94CF05D701ED91FC912D
:10181000E00FF11F60E080810E94A105D501C401A5
:10182000032C04C0880F991FAA1FBB1F0A94D2F76C
:101830009E838D83FC01E095F095F887EF83212C42
:10184000D6018C91281620F5622C712CA985BA85B9
:10185000ED91FC91E60DF71D80810E947805660CE4
:10186000771CEB85FC85E60DF71D892B51F48085EF
:1018700091852D813E81822B932B918780872394A4
:10188000DFCF80859185AF81B8858A239B23F5CFF3
:10189000D701ED91FC91E00FF11F61E080810E9482
:1018A000A105F70180819181080F191F60E0D8011F
:1018B0008C910E94CF05339498CF0B851C85C8016D
:1018C000CC9678012FEF3FEFF701478D50A1452BC4
:1018D00021F4148E368F258F11A2F6E0EF0EF11C45
:1018E000E816F90689F7A12C8B849C8420E6820EE9
:1018F000911C96E0392ED6018C91A81608F058C09C
:10190000B12C6A2C712CB4E06B0E711C660C771C28
:10191000EB85FC856E0E7F1ED2018C91B81608F007
:1019200045C0F301408151810B2C02C0569547956B
:101930000A94E2F7A89EC00111248B0D911DEB853E
:10194000FC8560E0258D368D8217930709F472C0FF
:101950006F5F36966A30B1F740FF26C0EB85FC8595
:1019600070E060E0248D211119C0D401ED91FC914B
:10197000E80FF91F4081369EF001379EF00D1124CB
:101980002B853C85E20FF31F448F968F858F10A225
:10199000178E41E0C9010E94100B06C06F5F7F4F98
:1019A00036966A307105F1F6B394B6CFA394A3CFFF
:1019B000D12CD80191968C918111D82E0A5F1F4F9E
:1019C000E016F106B1F70E946206EB81FC816083AC
:1019D000718382839383DD2041F1AB85BC85919631
:1019E0008C919197882309F15F968D919C919097A6
:1019F0000197D9F45C968C912C960FB6F894DEBFC3
:101A00000FBECDBFDF91CF911F910F91FF90EF904F
:101A1000DF90CF90BF90AF909F908F907F906F900E
:101A20005F904F903F902F900895E981FA81108246
:101A300080E0E2CF41708B859C85ADCF8F929F92E5
:101A4000AF92BF92CF92DF92EF92FF92CF93DF934C
:101A5000EFEFE60FEC01C12CD12C7601EF3FE9F05E
:101A60008990912CB12CA12CF0E061E070E080E035
:101A700090E0FE1741F0AAE0B0E09B01AC010E94AB
:101A8000BA4AFF5FF6CFA50194010E943A4CC60EF8
:101A9000D71EE81EF91EE150E1CFC701B601DF9164
:101AA000CF91FF90EF90DF90CF90BF90AF909F903D
:101AB0008F9008950E94820B882311F0815308951E
:101AC0008FEF0895CF93DF93EC016AE070E080E040
:101AD00090E00E943006CE010E94820B8823D9F349
:101AE0008153DF91CF910895FC01848180FF05C06F
:101AF000128A84FF0AC0638B089581FF03C0269574
:101B0000228BF7CF82FFF5CFFBCF85FF04C0469530
:101B1000460F438B02C086FDFBCF08950F931F93A2
:101B2000CF93DF932091850C2F5F322F3770309346
:101B3000850C20FF2BC020E831FD2064347009F0B3
:101B40002062205FFC01EC01239600E011E0678534
:101B5000662329F070E0C8010E944A4C6F5F6187DC
:101B6000822F869F080E80E0811D1124811110C0F4
:101B70001682662311F0615061873196EC17FD07DC
:101B800031F7DF91CF911F910F91089520E0D4CFCD
:101B900081508683EECF4F925F927F928F929F9279
:101BA000AF92BF92CF92DF92EF92FF920F931F936B
:101BB000CF93DF932C01EB010E940B06F2012689E3
:101BC0003789621B730B6A307105B0F3F8948A8110
:101BD0009B81181619060CF0CDC1E881F9816EB110
:101BE000862E689484F83EB13F7E3EB9D9848E81BA
:101BF0002D2D281B822F2E834C85042E000C550B77
:101C0000AA81BB817F85F888E9887F5FF394E3949C
:101C10009F819884BA84AB841081C12C6C2D0C2DCB
:101C20002C2D2081112788942111280F08F42FEFE3
:101C30008195889470FD120F1795889471FD120F8D
:101C40001795889472FD120F1795889473FD120FE3
:101C50001795889474FD120F1795889475FD120FCF
:101C60001795889476FD120F1795889477FD120FBB
:101C700017958894622F7111612F8D0D162F002CEE
:101C80008EB800C000C017FF3EB921816627889436
:101C900000C0002C3EB92111290F00C0002C8EB8C5
:101CA00000C000C016FF3EB908F42FEF919588944C
:101CB00000C0002C3EB9F0FC620F00C0002C8EB8B2
:101CC00000C000C015FF3EB967958894F1FC620F13
:101CD00000C0002C3EB96795889400C0002C8EB8D7
:101CE00000C000C014FF3EB9F2FC620F67958894F3
:101CF00000C0002C3EB9F3FC620F00C0002C8EB86F
:101D000000C000C013FF3EB967958894F4FC620FD1
:101D100000C0002C3EB96795889400C0002C8EB896
:101D200000C000C012FF3EB9F5FC620F67958894B1
:101D300000C0002C3EB9F6FC620F00C0002C8EB82B
:101D400000C000C011FF3EB967958894F7FC620F90
:101D500000C0002C3EB96795889400C0002C8EB856
:101D600000C000C010FF3EB9122FF110162F9B0DBE
:101D700000C0002C3EB900C000C0002C8EB800C0CE
:101D800000C017FF3EB922816627889400C0002C4E
:101D90003EB92111290D00C0002C8EB800C000C032
:101DA00016FF3EB908F42FEFE40FF51F00C0002C1A
:101DB0003EB9E0FC620F00C0002C8EB800C000C02D
:101DC00015FF3EB967958894E1FC620F00C0002CB6
:101DD0003EB96795889400C0002C8EB800C000C042
:101DE00014FF3EB9E2FC620F6795889400C0002C96
:101DF0003EB9E3FC620F00C0002C8EB800C000C0EA
:101E000013FF3EB967958894E4FC620F00C0002C74
:101E10003EB96795889400C0002C8EB800C000C001
:101E200012FF3EB9E5FC620F6795889400C0002C54
:101E30003EB9E6FC620F00C0002C8EB800C000C0A6
:101E400011FF3EB967958894E7FC620F00C0002C33
:101E50003EB96795889400C0002C8EB800C000C0C1
:101E600010FF3EB9122FE110162F919400C0002CE4
:101E70003EB99A0C00C000C08EB800C000C017FF69
:101E80003EB920816627889400C0002C3EB92111FC
:101E9000280F00C0002C8EB800C000C016FF3EB94D
:101EA00008F42FEF8195889400C0002C3EB970FD96
:101EB000620F00C0002C8EB800C000C015FF3EB9F4
:101EC0006795889471FD620F00C0002C3EB967953C
:101ED000889400C0002C8EB800C000C014FF3EB92A
:101EE00072FD620F6795889400C0002C3EB973FDA7
:101EF000620F00C0002C8EB800C000C013FF3EB9B6
:101F00006795889474FD620F00C0002C3EB96795F8
:101F1000889400C0002C8EB800C000C012FF3EB9EB
:101F200075FD620F6795889400C0002C3EB976FD60
:101F3000620F00C0002C8EB800C000C011FF3EB977
:101F40006795889477FD620F00C0002C3EB96795B5
:101F5000889400C0002C8EB800C000C010FF3EB9AD
:101F6000122F7111162F8D0D00C0002C3EB9119744
:101F700009F086CEEA81FB812EE130E0DF010E948C
:101F8000884C30E020E0A901AAE9EA9F0E0E411D2D
:101F9000FA9F400D511D11244F0F511DDC01CB0143
:101FA000840F951FA11DB11D893E43E09407A10533
:101FB000B10508F434C0885E9340A109B10942E03C
:101FC000B695A795979587954A95D1F747E0849F51
:101FD000080E211D949F200D311D1124290F311D44
:101FE0006091840C70E0860F971F820F931F4091C1
:101FF000740D5091750D6091760D7091770D292FAC
:102000003327420F531F611D711D4093740D509370
:10201000750D6093760D7093770D8093840C789492
:102020000E940B06F201778B668BDF91CF911F9197
:102030000F91FF90EF90DF90CF90BF90AF909F9067
:102040008F907F905F904F9008956C9A08956F9253
:102050007F928F92CF92DF92EF92FF920F931F9316
:10206000CF93DF93CDB7DEB762970FB6F894DEBF9C
:102070000FBECDBF8C016B017A01822FA801475F93
:102080005F4FB8016A5F7F4F0E94BF083B01882EF7
:10209000D8011C962C91C701F7FE04C08827992708
:1020A0008E199F09DA82C9829C838B839E838D83DC
:1020B000688A798A8A8A213049F5CE0101960E9480
:1020C0008E0D83E08D871F861E86F7FE02C08DEF82
:1020D0008D87D801ED91FC910088F189E02DBE013A
:1020E0006F5F7F4FC801199562960FB6F894DEBFF7
:1020F0000FBECDBFDF91CF911F910F91FF90EF9059
:10210000DF90CF908F907F906F9008951C861B86F4
:102110001A86198618861F82D4CFCF92DF92EF924B
:10212000FF920F931F93CF93DF93CDB7DEB76297E4
:102130000FB6F894DEBF0FBECDBF8C016B017A01E4
:10214000822FA801475F5F4FB8016A5F7F4F0E94EF
:10215000BF089B01482FD8011C968C91DA82C98256
:10216000FC82EB82FE82ED82288B398B4A8B813098
:1021700009F5CE0101960E948E0D1D861F861E86D2
:10218000D801ED91FC910088F189E02DBE016F5FCF
:102190007F4FC801199562960FB6F894DEBF0FBE47
:1021A000CDBFDF91CF911F910F91FF90EF90DF9006
:1021B000CF9008951C861B861A86198618861F8262
:1021C000DCCF0895E8EEF2E091E090838FEF838317
:1021D0001482E6E1F2E0908383831482EDEBF3E076
:1021E000908383831482E6E3F6E0908383831482F2
:1021F0008093830C8093820CE8E0F7E090838383E4
:1022000014820C94CE0490E080E00895FC01648771
:102210000895FC01848590E00895FC0186859785EA
:102220000895CF93DF93EC0118820E9462066D83BC
:102230007E838F839887DF91CF9108950F931F93AB
:10224000CF9326E0FB013296DC01129601900D92AD
:102250002A95E1F72DE938E0FC013183208324E160
:10226000FB013896DC01189601900D922A95E1F752
:102270009C01245E3F4FAB01445E5F4F8901045CCB
:102280001F4FC6E0FA01D90101900D92CA95E1F7FE
:102290002A5F3F4F4A5F5F4F2017310791F7FB01DD
:1022A000E85AFF4F0081118122813381FC01E85AF5
:1022B000FF4F0083118322833383FB01E45AFF4FD6
:1022C0000081118122813381FC01E45AFF4F008398
:1022D000118322833383FB01E05AFF4F2081318138
:1022E000FC01E05AFF4F31832083FB01EE59FF4F81
:1022F00020813181FC01EE59FF4F31832083FB01A6
:10230000EC59FF4F20813181FC01EC59FF4F3183A3
:1023100020833296DB01AA59BF4F2D913C91318326
:102320002083FB01E859FF4F20813181FC01E859EE
:10233000FF4F31832083FB01E659FF4F208131811C
:10234000FC01E659FF4F31832083FB01E459FF4F25
:102350002081FC01E459FF4F208363597F4FFB012B
:102360002081318183599F4FFC0131832083CF919C
:102370001F910F910895FC01DB0112968D919C91A4
:1023800013979383828381E998E0918380831496E5
:102390008C911497848315968C9115978583169646
:1023A0008C911697868317968C911797878318962A
:1023B0008C911897808719968C91199781871A9616
:1023C0008C911A9782871B968C9183870895089524
:1023D00090E080E00895CF93DF93C0913E0ED091BE
:1023E0003F0E209799F08A819B81009759F02E85A6
:1023F0003F85A901440F551F420F531F70E060E055
:102400000E94B74E0C80DD81C02DEBCFDF91CF91C4
:102410000895FC0101900020E9F73197AF01481BB6
:10242000590BBC0188EB9FE00C948407CF93DF939A
:102430000E940912EC0186EB98E00E9409128C0FB1
:102440009D1FDF91CF910895CF92DF92EF92FF927F
:102450000F931F93CF93DF93CDB7DEB7A1970FB63E
:10246000F894DEBF0FBECDBF282F30E050E040E033
:1024700019A28E010F5D1F4F8AE0C82ED12CE12CCE
:10248000F12CCA01B901A70196010E945E4C605D62
:10249000F80162938F01211531054105510589F736
:1024A0003097C9F0CF010E9409128C0186EB98E0A9
:1024B0000E940912800F911FA1960FB6F894DEBFFB
:1024C0000FBECDBFDF91CF911F910F91FF90EF9085
:1024D000DF90CF90089510E000E0E8CF0F931F93B6
:1024E000CF938C01C62F0E94FE096C2F6460C80137
:1024F0000E94FE096C2F6B7FC8010E94FE0983ECCD
:1025000090E00197F1F7CF911F910F9108950F93EC
:102510001F93CF93DF938C01D62FC42F607F642B42
:102520000E946E1280E1D89FB00111246C2BC8016B
:10253000DF91CF911F910F910C946E1241E00E9498
:10254000871281E090E00895EF92FF920F931F931E
:10255000CF93DF938C017B01D0E0C0E0F701EC0F5B
:10256000FD1F6491662331F041E0C8010E9487128B
:102570002196F4CFCE01DF91CF911F910F91FF9063
:10258000EF900895CF93DF9300D000D01F921F9259
:10259000CDB7DEB728E0E0EEF7E0DE01119601905E
:1025A0000D922A95E1F7FC012085241710F44FEFD6
:1025B000420F50E0440F551F21E030E02C0F3D1F2B
:1025C000420F531FFA012081620F606840E0289695
:1025D0000FB6F894DEBF0FBECDBFDF91CF910C9444
:1025E0008712CF93DF93EC0140E06CE00E94C212AF
:1025F00068EC71E0CE01DF91CF910C94A41240E021
:1026000061E00E9487128BE39FE10197F1F7089543
:102610000F931F93CF93DF93CDB7DEB72C970FB6F1
:10262000F894DEBF0FBECDBF8C010E94FF12B8012F
:10263000CE0101960E94BB11CE0101960E94F112BB
:1026400041E060E0C8010E94C21261EC72E0C80182
:102650000E94A41242E060E0C8010E94C2126DEA2A
:1026600072E0C8010E94A41243E060E0C8010E9429
:10267000C21268E972E0C8010E94A4122C960FB63B
:10268000F894DEBF0FBECDBFDF91CF911F910F91A8
:1026900008950E94A94EFC0180819181009711F05C
:1026A0000C943F4D08950F931F93CF93DF93EC014C
:1026B00088819981009759F02A813B812617370735
:1026C00030F081E0DF91CF911F910F9108958B0140
:1026D0006F5F7F4F0E94C84D009759F099838883A0
:1026E0001B830A832C813D81232B59F7FC01108227
:1026F000E8CF80E0E7CFEF92FF920F931F93CF9345
:10270000DF93EC01198218821B821A821D821C82BF
:1027100061157105E1F08B01FB0101900020E9F7E3
:1027200031977F01E61AF70AB7010E9453132881F7
:102730003981811113C02115310519F0C9010E9499
:102740003F4D198218821D821C821B821A82DF91E2
:10275000CF911F910F91FF90EF900895FD82EC8231
:10276000B801C901DF91CF911F910F91FF90EF90B8
:102770000C94BE4ECF93DF93CDB7DEB768970FB6FC
:10278000F894DEBF0FBECDBFBC01CE010D960E94F6
:10279000BB11CE010D960E94FF1240E060E0CE0119
:1027A0000D960E94C21264E176E0CE0101960E946D
:1027B0007B13BE016F5F7F4FCE010D960E94B10764
:1027C000CE0101960E944B13BE01635F7F4FCE0185
:1027D00001960E94BB11CE0101960E94F11241E0C8
:1027E00060E0CE010D960E94C21261E276E0CE0159
:1027F00001960E947B13BE016F5F7F4FCE010D9645
:102800000E94B107CE0101960E944B1343E060E0A5
:10281000CE010D960E94C2126FE179E0CE010D96B5
:102820000E94A41268960FB6F894DEBF0FBECDBF0B
:10283000DF91CF9108950F931F93CF93DF93CDB77F
:10284000DEB72C970FB6F894DEBF0FBECDBF8C015C
:102850000E94FF1240E060E0C8010E94C21269EBD2
:1028600078E0CE0101960E947B13BE016F5F7F4F1F
:10287000C8010E94B107CE0101960E944B13B80116
:10288000CE0101960E94BB11CE0101960E94F11269
:1028900042E060E0C8010E94C2126CE079E0C80129
:1028A0000E94A4122C960FB6F894DEBF0FBECDBFC7
:1028B000DF91CF911F910F910895EF92FF920F93A7
:1028C0001F93CF93DF93EC017B01FB01019000206C
:1028D000E9F731978F01061B170BB8010E945313BC
:1028E00028813981811113C02115310519F0C901E1
:1028F0000E943F4D198218821D821C821B821A82FF
:10290000DF91CF911F910F91FF90EF9008951D835C
:102910000C83B701C901DF91CF911F910F91FF90F7
:10292000EF900C94BE4E0F931F93CF93DF9300D084
:1029300000D000D0CDB7DEB78C01862FF801118210
:10294000108213821282158214824AE0BE016F5FE8
:102950007F4F90E00E949549BE016F5F7F4FC80195
:102960000E945D1429960FB6F894DEBF0FBECDBF4E
:10297000DF91CF911F910F9108959F92AF92BF92D7
:10298000CF92DF92EF92FF920F931F93CF93DF933B
:10299000CDB7DEB7A5970FB6F894DEBF0FBECDBF9B
:1029A0008C017B01BC01CE0144960E94BB11CE017B
:1029B00044960E94FF1240E060E0CE0144960E94DF
:1029C000C212B701695F7F4FCE0101960E947B134F
:1029D000BE016F5F7F4FCE0144960E94B107CE01CA
:1029E00001960E944B13BE016C5E7F4FCE01019693
:1029F0000E94BB11CE0101960E94F112F7012681BF
:102A000081E0233008F480E0F7019181892391E08F
:102A1000243008F490E0892BF70182838823C1F0E9
:102A200042E062E1CE0144960E94C2126BE872E07D
:102A3000CE0144960E94A41243E062E1CE01449686
:102A40000E94C21268E872E0CE0144960E94A4126D
:102A5000B801CE0144960E94BB1101E010E083E171
:102A6000982E5701F4E1AF0EB11CF7018481980153
:102A7000280F311D96819217130608F458C0C02EF6
:102A8000D82ED00E402F60E0CE0144960E94C21294
:102A90006D2DCE0180960E949314BE01605E7F4F23
:102AA000CE0144960E94B107CE0180960E944B133E
:102AB000402F61E0CE0144960E94C21262E972E0AA
:102AC000CE0144960E94A412F701828140E1811157
:102AD00001C043E150E02D2D2150330B929EB001F7
:102AE000939E700D11246A0D7B1DCE0101960E94EC
:102AF000C54E4C2D62E0CE0144960E94C212BE012A
:102B00006F5F7F4FCE0180960E947B13BE01605E97
:102B10007F4FCE0144960E94B107CE0180960E945D
:102B20004B130F5F1F4F0430110509F09ECFF701C3
:102B3000858190E00196348121E03817190609F06B
:102B400020E081E00430110508F080E0282B99F1A5
:102B5000F7018181882379F1402F60E0CE0144960E
:102B60000E94C21260E972E0CE0144960E94A41253
:102B7000402F61E0CE0144960E94C2126EE872E0DE
:102B8000CE0144960E94A412402F62E0CE014496EA
:102B90000E94C21264EC78E0CE0180960E947B1302
:102BA000BE01605E7F4FCE0144960E94B107CE0108
:102BB00080960E944B13A5960FB6F894DEBF0FBE09
:102BC000CDBFDF91CF911F910F91FF90EF90DF90DC
:102BD000CF90BF90AF909F900895DF92EF92FF92B9
:102BE0000F931F93CF93DF93CDB7DEB7CF56D109A5
:102BF0000FB6F894DEBF0FBECDBF7C018A01CE01B7
:102C000001960E941E11CE0101960E945A0DD82EE7
:102C10008FEFD8120AC08091BC038F3F31F0F801CA
:102C20005681851798F48F5F8383D092BC03C15976
:102C3000DF4F0FB6F894DEBF0FBECDBFDF91CF914F
:102C40001F910F91FF90EF90DF9008953181332312
:102C500011F08A3049F3893069F08B3091F0B70177
:102C6000CE0101960E94BB11B801CE0101960E94CF
:102C7000BD14DBCFF8018481882389F381508483DC
:102C8000EECFF8012581948181E0291708F480E0D6
:102C900041E0533008F440E08423832311F4921779
:102CA000F0F69F5FF8019483DACF0F931F93CF93D1
:102CB000DF93CDB7DEB72C970FB6F894DEBF0FBE0B
:102CC000CDBF8B01BC01CE0101960E94BB11B801A2
:102CD000CE0101960E94BD142C960FB6F894DEBF6B
:102CE0000FBECDBFDF91CF911F910F910895EF924D
:102CF000FF920F931F93CF93DF93CDB7DEB7CB57E0
:102D0000D1090FB6F894DEBF0FBECDBF8C017B0199
:102D1000809108078823A9F14DE050E064ED78E048
:102D20008FE097E00E94C54E43E150E06BED78E004
:102D30008CE197E00E94C54E43E150E065EE78E0FB
:102D40008FE297E00E94C54E43E150E06FEE78E0DD
:102D500082E497E00E94C54E43E150E06DEF78E0D9
:102D600085E597E00E94C54EB801CE0101960E940C
:102D7000BB1168E077E0CE0101960E9455161092D3
:102D80000807B701CE0101960E941E11B801CE01BD
:102D900080599F4F0E94BB1148E057E0BE016F5F12
:102DA0007F4FCE0180599F4F0E94ED15C558DF4FD0
:102DB0000FB6F894DEBF0FBECDBFDF91CF911F914C
:102DC0000F91FF90EF900895EF92FF920F931F9352
:102DD000CF93DF93CDB7DEB7CB57D1090FB6F894B9
:102DE000DEBF0FBECDBF8C017B01809136068823EC
:102DF000A9F14DE050E069E079E08DE396E00E94B2
:102E0000C54E43E150E063E179E08AE496E00E9438
:102E1000C54E43E150E06FE179E08DE596E00E9418
:102E2000C54E43E150E06DE279E080E796E00E9414
:102E3000C54E43E150E06CE379E083E896E00E9400
:102E4000C54EB801CE0101960E94BB1166E376E043
:102E5000CE0101960E94551610923606B701CE019A
:102E600001960E941E11B801CE0180599F4F0E9409
:102E7000BB1146E356E0BE016F5F7F4FCE01805924
:102E80009F4F0E94ED15C558DF4F0FB6F894DEBF77
:102E90000FBECDBFDF91CF911F910F91FF90EF90AB
:102EA0000895EF92FF920F931F93CF93DF93CDB7C7
:102EB000DEB7CB57D1090FB6F894DEBF0FBECDBF3A
:102EC0008C017B018091BD03882309F45DC04DE036
:102ED00050E06CE479E084EC93E00E94C54E43E15D
:102EE00050E064E579E081ED93E00E94C54E43E156
:102EF00050E06CE579E084EE93E00E94C54E43E13A
:102F000050E063E179E087EF93E00E94C54E43E132
:102F100050E068E679E08AE094E00E94C54E43E123
:102F200050E065E779E08DE194E00E94C54E43E111
:102F300050E064E879E080E394E00E94C54E43E10C
:102F400050E064E979E083E494E00E94C54E43E1F7
:102F500050E06CE979E086E594E00E94C54E43E1DB
:102F600050E065EA79E089E694E00E94C54EB80138
:102F7000CE0101960E94BB116DEB73E0CE0101966C
:102F80000E9455161092BD03B701CE0101960E9412
:102F90001E11B801CE0180599F4F0E94BB114DEB0D
:102FA00053E0BE016F5F7F4FCE0180599F4F0E945B
:102FB000ED15C558DF4F0FB6F894DEBF0FBECDBF7D
:102FC000DF91CF911F910F91FF90EF9008950F9394
:102FD0001F93CF93DF93CDB7DEB762970FB6F89408
:102FE000DEBF0FBECDBF8C01CB01F8011182108274
:102FF00013821282158214824AE0BE016F5F7F4FF6
:103000000E948A49BE016F5F7F4FC8010E945D1414
:1030100062960FB6F894DEBF0FBECDBFDF91CF91A1
:103020001F910F910895CF93DF931F921F92CDB7F9
:10303000DEB7FC0111821082138212821582148283
:1030400069831A82BE016F5F7F4F0E945D140F90EB
:103050000F90DF91CF9108950F931F93CF93DF933C
:1030600000D000D0CDB7DEB78C016A30C8F4CE01F5
:1030700001960E949314BE016F5F7F4FC8010E94AA
:10308000B107CE0101960E944B1326960FB6F89415
:10309000DEBF0FBECDBFDF91CF911F910F9108957D
:1030A0006A50653050F4E62FF0E0E65CF74F60813F
:1030B000CE0101960E941318DECF66E4F9CF2F925D
:1030C0003F924F925F926F927F928F929F92AF92B8
:1030D000BF92CF92DF92EF92FF920F931F93CF9305
:1030E000DF93CDB7DEB7C052D1400FB6F894DEBF44
:1030F0000FBECDBF1C01C152DF4F79836883CF5D06
:10310000D040F42E8E0109531F4F8CE0E8EEF7E01B
:10311000D80101900D928A95E1F76E012BEBC20E5A
:10312000D11C8CE0E4EFF7E0D60101900D928A9576
:10313000E1F70E94EB110E946E0631E0F31283C4A6
:10314000C1010E94FF1240E060E0C1010E94C21272
:103150006FE878E0C1010E94A41240E06CE0C10178
:103160000E94C21266E878E0C1010E94A41241E008
:1031700060E0C1010E94C21263E778E0C1010E94D1
:10318000A41243E060E0C1010E94C2126EE578E043
:10319000C1010E94A412DE01AD52BF4F7D0123E0A8
:1031A000D22EC152DF4F68817981CF5DD040CE01F0
:1031B00001960E941E11CE0101960E94620D082FF9
:1031C00010E0EBEBF0E0EC0FFD1FE00FF11F808152
:1031D00090E0F701819391937F0143E06D2DC10150
:1031E0000E94C212E7ECF0E0EC0FFD1FE00FF11FB0
:1031F0006081CE0101960E941318BE016F5F7F4F60
:10320000C1010E94B107CE0101960E944B13D394D5
:10321000F6E0DF12C6CFCD52DF4F88819981C35DC2
:10322000D04024E6289F3001299F700C1124CB52F6
:10323000DF4F28813981C55DD0404AE0429FC001FF
:10324000439F900D1124680E791EC952DF4F88816B
:103250009981C75DD040680E791ECE018D529F4F77
:103260007C019AE0D92EC152DF4F68817981CF5D10
:10327000D040CE0101960E941E11CE0101960E94FF
:10328000620D082F10E0EBEBF0E0EC0FFD1FE00FFC
:10329000F11F808190E0D7018D939D937D0143E0E4
:1032A0006D2DC1010E94C212E7ECF0E0EC0FFD1F92
:1032B000E00FF11F6081CE0101960E941318BE013C
:1032C0006F5F7F4FC1010E94B107CE0101960E943E
:1032D0004B13D394BDE0DB12C6CFCD52DF4FC88075
:1032E000D980C35DD040CB52DF4FA880B980C55D87
:1032F000D040C952DF4F88809980C75DD040FE0121
:10330000ED52FF4F7F0181E1582EC152DF4F68819E
:103310007981CF5DD040CE0101960E941E11CE0171
:1033200001960E94620D082F10E0EBEBF0E0EC0F2D
:10333000FD1FE00FF11F808190E0D7018D939D93D9
:103340007D0143E0652DC1010E94C212E7ECF0E06F
:10335000EC0FFD1FE00FF11F6081CE0101960E946E
:103360001318BE016F5F7F4FC1010E94B107CE01EC
:1033700001960E944B135394B4E15B12C6CFEFEF5A
:103380006E16710411F008F0DBCE44E64C9DC001CE
:103390004D9D900D11245AE05A9D90015B9D300D7A
:1033A0001124820F931F880E991E6FEF86169104C9
:1033B00011F008F0C5CECD52DF4F88819981C35DF1
:1033C000D040489F6001499FD00C1124CB52DF4F61
:1033D00028813981C55DD040529FC001539F900D17
:1033E0001124C80ED91EC952DF4F88819981C75D4B
:1033F000D040C80ED91E8FEFC816D10411F008F0C6
:103400009FCECF51DF4F6882C15ED040C455DF4FA1
:103410006882CC5AD040C552DF4F8882CB5DD04005
:10342000C356DF4F8882CD59D040C751DF4FC88285
:10343000C95ED040C257DF4FC882CE58D04060929C
:10344000820D8092830DC092840D0E946E06C10190
:103450000E94FF1240E060E0C1010E94C21267E5D5
:1034600078E0C1010E94A41240E06CE0C1010E941A
:10347000C2126EE478E0C1010E94A41241E060E053
:10348000C1010E94C2126BE378E0C1010E94A41244
:1034900043E060E0C1010E94C21266E278E0C1012F
:1034A0000E94A412DE01AD52BF4F7D0103E0402E09
:1034B000C152DF4F68817981CF5DD040CE01019646
:1034C0000E941E11CE0101960E94620D082F10E08D
:1034D000EBEBF0E0EC0FFD1FE00FF11F808190E0BF
:1034E000F701819391937F0143E0642DC1010E9414
:1034F000C212E7ECF0E0EC0FFD1FE00FF11F60815E
:10350000CE0101960E941318BE016F5F7F4FC1016B
:103510000E94B107CE0101960E944B134394F6E03E
:103520004F12C6CFCD52DF4F88819981C35DD04005
:1035300044E6489F9001499F300D1124CB52DF4F44
:1035400088819981C55DD0405AE0589FB001599F4C
:10355000700D1124C901860F971FC952DF4FA88033
:10356000B980C75DD040A80EB91ECE018D529F4FC5
:103570007C011AE0412EC152DF4F68817981CF5D15
:10358000D040CE0101960E941E11CE0101960E94EC
:10359000620D082F10E0EBEBF0E0EC0FFD1FE00FE9
:1035A000F11F808190E0D7018D939D937D0143E0D1
:1035B000642DC1010E94C212E7ECF0E0EC0FFD1F88
:1035C000E00FF11F6081CE0101960E941318BE0129
:1035D0006F5F7F4FC1010E94B107CE0101960E942B
:1035E0004B134394BDE04B12C6CFCD52DF4F488002
:1035F0005980C35DD040CB52DF4FE881F981C55D72
:10360000D040CB51DF4FF983E883C55ED040C9522B
:10361000DF4F28813981C75DD040C351DF4F3983E7
:103620002883CD5ED040AE014D525F4F7A0151E10B
:10363000C752DF4F5883C95DD040C152DF4F688108
:103640007981CF5DD040CE0101960E941E11CE013E
:1036500001960E94620D082F10E0EBEBF0E0EC0FFA
:10366000FD1FE00FF11F808190E0D7018D939D93A6
:103670007D0143E0C752DF4F6881C95DD040C10181
:103680000E94C212E7ECF0E0EC0FFD1FE00FF11F0B
:103690006081CE0101960E941318BE016F5F7F4FBB
:1036A000C1010E94B107CE0101960E944B13C7527F
:1036B000DF4FB881C95DD040BF5FC752DF4FB883CD
:1036C000C95DD040B43109F0B8CFEFEFAE16B10408
:1036D00011F008F0BCCEF4E6F49D7001F59DF00CFD
:1036E00011244AE0CB51DF4F28813981C55ED0409B
:1036F000429FB001439F700D1124E60EF71EC35187
:10370000DF4F88819981CD5ED040E80EF91E9FEF92
:10371000E916F10411F008F09ACECD52DF4F8881FE
:103720009981C35DD040F89F8001F99F100D11244D
:10373000CB52DF4F88819981C55DD040489FB00151
:10374000499F700D1124060F171FC952DF4F688162
:103750007981C75DD040060F171F0F3F110511F08B
:1037600008F075CEC355DF4FA882CD5AD040C2565F
:10377000DF4FE882CE59D040C157DF4F0883CF5882
:10378000D040B50166197709072E000C880B990BFC
:103790000E94C14920E030E044E452E40E94414BE1
:1037A000CB51DF4F688379838A839B83C55ED0408A
:1037B000B70168197909072E000C880B990B0E9434
:1037C000C14920E030E044E452E40E94414BC3513F
:1037D000DF4F688379838A839B83CD5ED040B801B5
:1037E0006C197D09072E000C880B990B0E94C149AA
:1037F00020E030E044E452E40E94414BCB50DF4FE4
:10380000688379838A839B83C55FD04002E81DE08B
:10381000C752DF4F1882C95DD040CF51DF4F38818A
:10382000C15ED040232F30E050E040E0CF50DF4F6A
:10383000288339834A835B83C15FD040C552DF4F01
:103840009881CB5DD040892F90E0B0E0A0E0C552D8
:10385000DF4F88839983AA83BB83CB5DD040C75158
:10386000DF4F3881C95ED040232F30E050E040E088
:10387000C751DF4F288339834A835B83C95ED040B9
:10388000C752DF4F4881C95DD040642F70E090E09F
:1038900080E00E94BF496B017C01CF50DF4F6881FF
:1038A00079818A819B81C15FD0400E94BF494B01D1
:1038B0005C01CB51DF4F288139814A815B81C55E34
:1038C000D040C701B6010E94FC499B01AC01C50173
:1038D000B4010E94D54A0E94E24BCF51DF4F68836A
:1038E00079838A839B83C15ED040C552DF4F688154
:1038F00079818A819B81CB5DD0400E94BF494B0179
:103900005C01C351DF4F288139814A815B81CD5EE3
:10391000D040C701B6010E94FC499B01AC01C50122
:10392000B4010E94D54A0E94E24B4B015C01C75191
:10393000DF4F688179818A819B81C95ED0400E9476
:10394000BF492B013C01CB50DF4F288139814A818F
:103950005B81C55FD040C701B6010E94FC499B0155
:10396000AC01C301B2010E94D54A0E94E24B6B0137
:103970007C01CF51DF4F688179818A819B81C15E53
:10398000D0400E94B34BD8016C93C501B4010E9492
:10399000B34BF8016183C701B6010E94B34BD80154
:1039A00012966C93C752DF4FB881C95DD040BF5F9C
:1039B000C752DF4FB883C95DD0400D5F1F4FB23390
:1039C00009F05ECF0E946E06C1010E94FF1240E026
:1039D00060E0C1010E94C21263E178E0C1010E946F
:1039E000A41242E060E0C1010E94C2126FEF77E0D2
:1039F000C1010E94A41243E060E0C1010E94C21212
:103A00006AEE77E0C1010E94A412C152DF4F6881C3
:103A10007981CF5DD040CE0101960E941E11CE016A
:103A200001960E94620DEBEBF0E0EC0FFD1FE80F3A
:103A3000F11D8081882311F40C947A330E94EB11DC
:103A40000E946E067DCBF2E0FF1214C63601FE0125
:103A5000E455FF4FCE0183569F4FBE0162577F4F03
:103A60009E0120593F4FAF01415F5F4FC751DF4F6C
:103A7000E883C95ED0408F2E982EA92EB62ECB514A
:103A8000DF4F7883C55ED0401192DC011D92CD01DD
:103A9000DB011D92BD01D9011D929D014E175F07EB
:103AA00099F70AE0C1010E94FF1240E060E0C10105
:103AB0000E94C21261EE77E0C1010E94A41240E0B0
:103AC0006CE0C1010E94C21268ED77E0C1010E9462
:103AD000A41241E060E0C1010E94C21263EC77E0F1
:103AE000C1010E94A41243E060E0C1010E94C21221
:103AF0006EEA77E0C1010E94A4129E012D523F4F51
:103B0000690113E0C152DF4F68817981CF5DD040F8
:103B1000CE0101960E941E11CE0101960E94620DF7
:103B2000E82EF12CF301EE0DFF1D808190E0D6010F
:103B30008D939D936D0143E0612FC1010E94C212DC
:103B4000E7ECF0E0EC0FFD1FEE0DFF1D6081CE01F4
:103B500001960E941318BE016F5F7F4FC1010E9442
:103B6000B107CE0101960E944B131F5F163051F62C
:103B7000CD52DF4F88819981C35DD040B4E6B89FB4
:103B80002001B99F500C1124CB52DF4F288139817D
:103B9000C55DD040029FC001039F900D1124480EC7
:103BA000591EC952DF4F88819981C75DD040480EA8
:103BB000591EFE01ED52FF4F6F011AE0C152DF4F57
:103BC00068817981CF5DD040CE0101960E941E119F
:103BD000CE0101960E94620DE82EF12CF301EE0D4C
:103BE000FF1D808190E0D6018D939D936D0143E090
:103BF000612FC1010E94C212E7ECF0E0EC0FFD1F43
:103C0000EE0DFF1D6081CE0101960E941318BE01CA
:103C10006F5F7F4FC1010E94B107CE0101960E94E4
:103C20004B131F5F1D3051F6CD52DF4FC880D98036
:103C3000C35DD040CB52DF4FE881F981C55DD040F4
:103C4000CF51DF4FF983E883C15ED040C952DF4FC7
:103C500028813981C75DD040C552DF4F3983288321
:103C6000CB5DD040AE014D525F4FC752DF4F5983FD
:103C70004883C95DD04011E1C152DF4F688179812D
:103C8000CF5DD040CE0101960E941E11CE0101965B
:103C90000E94620DE82EF12CF301EE0DFF1D8081D4
:103CA00090E0C752DF4FA881B981C95DD0408D93A4
:103CB0009D93C752DF4FB983A883C95DD04043E0CD
:103CC000612FC1010E94C212E7ECF0E0EC0FFD1F72
:103CD000EE0DFF1D6081CE0101960E941318BE01FA
:103CE0006F5F7F4FC1010E94B107CE0101960E9414
:103CF0004B131F5F143109F0BFCFBFEF4B165104B8
:103D000011F008F0CFCE44E64C9D90014D9D300D52
:103D10001124CF51DF4FA881B981C15ED0400A9FE5
:103D2000C0010B9F900D1124280F391FC552DF4F82
:103D3000E881F981CB5DD0402E0F3F1F2F3F310529
:103D400011F008F0AFCECD52DF4F48815981C35DED
:103D5000D040F4E6F49FC001F59F900D1124CB52A2
:103D6000DF4F68817981C55DD040069FA001079F24
:103D7000500D1124840F951FC952DF4F488159817E
:103D8000C75DD040840F951F8F3F910511F008F05B
:103D900089CEC751DF4FE881C95ED040C752DF4F9F
:103DA000E883C95DD040C652DF4F8882CA5DD040EB
:103DB000C752DF4FA881B981C95DD0404D92C7522B
:103DC000DF4FB983A883C95DD040C552DF4F9882C9
:103DD000CB5DD040C452DF4FA882CC5DD040C552ED
:103DE000DF4FE881F981CB5DD0402193C552DF4F91
:103DF000F983E883CB5DD040CF51DF4FB882C15EFD
:103E0000D040CB51DF4FF881C55ED040CE51DF4F5F
:103E1000F883C25ED040CF51DF4FA881B981C15E27
:103E2000D0408D93CF51DF4FB983A883C15ED0407E
:103E300091E0E1969FAFE1974092820D2093830D30
:103E40008093840DE1E0F0E0CB50DF4FF983E8830D
:103E5000C55FD040C351DF4F1882CD5ED0404424AF
:103E60004394512C0E946E06C351DF4FF881CD5E02
:103E7000D040F40DC351DF4FF883CD5ED040CB501E
:103E8000DF4F8881C55FD040F233E8F1C1010E9465
:103E9000FF1240E060E0C1010E94C2126BE477E0D3
:103EA000C1010E94A41242E060E0C1010E94C2125E
:103EB00067E377E0C1010E94A41243E060E0C10122
:103EC0000E94C21262E277E0C1010E94A412C152B4
:103ED000DF4F68817981CF5DD040CE0101960E948D
:103EE0001E11CE0101960E94620D860D972D911D27
:103EF000DC018C91882311F40C947A330E94EB112D
:103F00000E946E06A4CD8F3009F2C351DF4FF881B5
:103F1000CD5ED040EF2FF0E0CB5FDE4FF983E8833A
:103F2000C550D140C1010E94FF1240E060E0C101D4
:103F30000E94C21265EA77E0C1010E94A41240E02B
:103F40006CE0C1010E94C2126CE977E0C1010E94DD
:103F5000A41241E060E0C1010E94C21267E877E06C
:103F6000C1010E94A41242E060E0C1010E94C2129D
:103F700062E777E0C1010E94A41243E060E0C10162
:103F80000E94C2126EE577E0C1010E94A412CE0128
:103F90008D529F4F7C01A3E0DA2EC152DF4F688122
:103FA0007981CF5DD040CE0101960E941E11CE01D5
:103FB00001960E94620D082F10E0F301E00FF11F3F
:103FC000808190E0D7018D939D937D0142E06D2D1E
:103FD000C1010E94C212E7ECF0E0EC0FFD1FE00F00
:103FE000F11F6081CE0101960E941318BE016F5F20
:103FF0007F4FC1010E94B107CE0101960E944B1371
:10400000D394B6E0DB12C9CFCD52DF4F288139817E
:10401000C35DD040E4E6E29FC001E39F900D112410
:10402000CB52DF4F48815981C55DD040FAE0F49F03
:104030009001F59F300D1124820F931FC952DF4F5D
:1040400028813981C75DD040AC01420F531FCF504A
:10405000DF4F59834883C15FD040CE018D529F4FBF
:104060007C01FAE0DF2EC152DF4F68817981CF5D9C
:10407000D040CE0101960E941E11CE0101960E94F1
:10408000620D082F10E0F301E00FF11F808190E036
:10409000D7018D939D937D0142E06D2DC1010E945A
:1040A000C212E7ECF0E0EC0FFD1FE00FF11F6081A2
:1040B000CE0101960E941318BE016F5F7F4FC101B0
:1040C0000E94B107CE0101960E944B13D394BDE02C
:1040D000DB12C9CFCD52DF4F48805980C35DD0403D
:1040E000CB52DF4FA880B980C55DD040C952DF4FA9
:1040F000E881F981C75DD040C751DF4FF983E8837C
:10410000C95ED0409E012D523F4F7901E1E1DE2E84
:10411000C152DF4F68817981CF5DD040CE010196D9
:104120000E941E11CE0101960E94620D082F10E020
:10413000F301E00FF11F808190E0D7018D939D93F3
:104140007D0142E06D2DC1010E94C212E7ECF0E05A
:10415000EC0FFD1FE00FF11F6081CE0101960E9460
:104160001318BE016F5F7F4FC1010E94B107CE01DE
:1041700001960E944B13D394B4E1DB12C9CFCD5208
:10418000DF4F88809980C35DD040CB52DF4FC8801D
:10419000D980C55DD040C952DF4FE880F980C75D46
:1041A000D040FE01ED52FF4FC750DF4FF983E88347
:1041B000C95FD040F0E1CB51DF4FF883C55ED040FE
:1041C000C152DF4F68817981CF5DD040CE01019629
:1041D0000E941E11CE0101960E94620D082F10E070
:1041E000F301E00FF11F808190E0C750DF4FA881FD
:1041F000B981C95FD0408D939D93C750DF4FB9837C
:10420000A883C95FD04043E0CB51DF4F6881C55ED2
:10421000D040C1010E94C212E7ECF0E0EC0FFD1F9C
:10422000E00FF11F6081CE0101960E941318BE01BC
:104230006F5F7F4FC1010E94B107CE0101960E94BE
:104240004B13CB51DF4FB881C55ED040BF5FCB5120
:10425000DF4FB883C55ED040B33109F0B1CFCF5046
:10426000DF4FE881F981C15FD040EF3FF10511F0E8
:1042700008F058CEF4E6F49DC001F59D900D112490
:104280004AE04A9D90014B9D300D1124820F931FEF
:10429000C751DF4FA881B981C95ED040A80FB91FAF
:1042A000C751DF4FB983A883C95ED040AF3FB10586
:1042B00011F008F037CEF89DC001F99D900D112442
:1042C0004C9D90014D9D300D1124820F931FFC01D8
:1042D000EE0DFF1DC750DF4FF983E883C95FD04063
:1042E000EF3FF10511F008F01DCECD52DF4F2881D0
:1042F0003981C35DD040F4E6F29FC001F39F900D79
:104300001124CB52DF4F48815981C55DD0406AE00E
:10431000649F9001659F300D1124820F931FC95235
:10432000DF4F48805980C75DD040480E591ECB5F93
:10433000DE4F88819981C550D140840D911DC3976E
:104340000CF0F0CDC752DF4FA881B981C95DD040D4
:10435000CF50DF4FE881C15FD040ED93C752DF4FB0
:10436000B983A883C95DD040C552DF4FA881B98108
:10437000CB5DD040C751DF4FE881C95ED040ED939F
:10438000C552DF4FB983A883CB5DD040CF51DF4FFB
:10439000A881B981C15ED040C750DF4FE881C95FB5
:1043A000D040ED93CF51DF4FB983A883C15ED04099
:1043B000E0E7F0E0EC0FFD1FCB50DF4F28813981A3
:1043C000C55FD040E20FF31F4082CB51DF4F188210
:1043D000C55ED040C752DF4F48815981C95DD0408A
:1043E00042505109C35FDE4F59834883CD50D140BD
:1043F000C201B0E0A0E0C15FDE4F88839983AA8349
:10440000BB83CF50D140C552DF4FA881B981CB5D6E
:10441000D0401297CD5EDE4FB983A883C351D140FF
:10442000CF51DF4FE881F981C15ED0403297CB5E3A
:10443000DE4FF983E883C551D140CB51DF4F38813E
:10444000C55ED040232F30E0CF5FDE4F3983288315
:10445000C150D1404216530608F4FEC0C35FDE4F80
:10446000A881B981CD50D1401C91CB51DF4FB8818B
:10447000C55ED0406B2F70E090E080E00E94BF49A5
:10448000C350DF4F688379838A839B83CD5FD0409D
:10449000C15FDE4F688179818A819B81CF50D14095
:1044A0000E94BF496B017C01CF50DF4F6881798149
:1044B000C15FD040611B7109072E000C880B990B5E
:1044C0000E94C149A70196010E94414BC350DF4F92
:1044D000288139814A815B81CD5FD0400E94FC49AF
:1044E0004B015C01612F70E090E080E00E94BF49C9
:1044F0009B01AC01C501B4010E94D54A0E94E24B68
:10450000C75FDE4F688379838A839B83C950D1401C
:10451000CD5EDE4FE881F981C351D1401081C75192
:10452000DF4F68817981C95ED040611B7109072E18
:10453000000C880B990B0E94C149A70196010E94AB
:10454000414BC350DF4F288139814A815B81CD5F68
:10455000D0400E94FC494B015C01612F70E090E06B
:1045600080E00E94BF499B01AC01C501B4010E94DB
:10457000D54A0E94E24B4B015C01CB5EDE4FA88125
:10458000B981C551D1401C91C750DF4F68817981F5
:10459000C95FD040611B7109072E000C880B990B75
:1045A0000E94C149A70196010E94414BC350DF4FB1
:1045B000288139814A815B81CD5FD0400E94FC49CE
:1045C0006B017C01612F70E090E080E00E94BF49A8
:1045D0009B01AC01C701B6010E94D54A0E94E24B83
:1045E0006B017C01CF5FDE4F08811981C150D14042
:1045F000CB5FDE4FE881F981C550D1400E0F1F1F00
:10460000C801880F991F080F191F0158124FC75F63
:10461000DE4F688179818A819B81C950D1400E9497
:10462000B34BD8016C93C501B4010E94B34BF801A0
:104630006183C701B6010E94B34BD80112966C93F7
:10464000CB51DF4FB881C55ED040BF5FCB51DF4F4C
:10465000B883C55ED040F1CECB50DF4FE881F98101
:10466000C55FD0403196CB50DF4FF983E883C55FFB
:10467000D040F8CBB3E0FB128DC5C1010E94FF1200
:1046800040E060E0C1010E94C2126AE177E0C1012E
:104690000E94A41240E06CE0C1010E94C21261E1DC
:1046A00077E0C1010E94A41242E060E0C1010E94D3
:1046B000C2126CEF76E0C1010E94A41243E060E0F8
:1046C000C1010E94C2126BEE76E0C1010E94A412E9
:1046D000C152DF4F68817981CF5DD040CE01019614
:1046E0000E941E11CE0101960E94620D90E0823060
:1046F000910570F7C752DF4F1882C95DD040892BF2
:1047000009F08FC3C752DF4F8881C95DD040815007
:104710008F3008F499C0C1010E94FF1240E060E0B0
:10472000C1010E94C21260EE76E0C1010E94A41293
:1047300040E06CE0C1010E94C21267ED76E0C10169
:104740000E94A41241E060E0C1010E94C21261ED2A
:1047500076E0C1010E94A41241E065E0C1010E941F
:10476000C2126FE070E0CE0101960E94E717BE0111
:104770006F5F7F4FC1010E94B107CE0101960E9479
:104780004B1341E068E0C1010E94C21265EC76E083
:10479000C1010E94A41243E069E0C1010E94C2125B
:1047A00062EC76E0C1010E94A4127E01E3EDEE0E00
:1047B000F11C69E0B62E6701C152DF4F6881798133
:1047C000CF5DD040CE0101960E941E11CE01019610
:1047D0000E94620D082F10E0EBEBF0E0EC0FFD1FE4
:1047E000E00FF11F808190E0D7018D939D937D01B3
:1047F00043E06B2DC1010E94C212E7ECF0E0EC0F28
:10480000FD1FE00FF11F6081CE0101960E94131879
:10481000BE016F5F7F4FC1010E94B107CE010196BB
:104820000E944B13BAE0BB120CC0F601908182814A
:104830009B9D800D1124C752DF4F8883C95DD040F6
:1048400061CF5AE0B52EB8CFC752DF4F2881C95D7E
:10485000D0402150330BB901072E000C880B990B67
:104860000E94C1499B01AC0160E070E084E492E4E5
:104870000E94414B0E94E24B0E94B34B2B01FE0170
:10488000E455FF4FCE0183569F4F6E012EE8C20EB6
:10489000D11CAE0140595F4FCB50DF4F5983488345
:1048A000C55FD0407F015FE0E50EF11CCB50DF4FCC
:1048B00028813981C55FD0408F01BC01A6011192CA
:1048C000DC011D92CD01D6011D926D01D9011D9211
:1048D0009D01EE15FF0599F7F8013197C351DF4FA0
:1048E000F983E883CD5ED0409B0121503109CB5143
:1048F000DF4F39832883C55ED040CA010197C75175
:10490000DF4F99838883C95ED040C552DF4F18823C
:10491000CB5DD040CF51DF4F1882C15ED040D20175
:10492000BB27CB5FDE4FB983A883C550D14092012E
:1049300050E040E0C75FDE4F288339834A835B83C2
:10494000C950D140C752DF4F3881C95DD040C552F0
:10495000DF4F4881CB5DD040341709F422C280E09C
:1049600091E000E011E0A12CBB24B394CF51DF4FC4
:10497000B881C15ED040AB2FB0E0C750DF4FB983E4
:10498000A883C95FD040CB5FDE4FE881F981C55075
:10499000D140EA0FFB1FCF50DF4FF983E883C15F9F
:1049A000D04014E6C12E9AE0D92ECF50DF4F288197
:1049B0003981C15FD040233331050CF055C1C101AD
:1049C0000E94FF1240E060E0C1010E94C21266E94D
:1049D00076E0C1010E94A41240E06CE0C1010E9497
:1049E000C2126DE876E0C1010E94A41241E060E0CD
:1049F000C1010E94C21268E776E0C1010E94A412C0
:104A000043E060E0C1010E94C21263E676E0C101AA
:104A10000E94A4123E0133ED630E711C7301A3E0EA
:104A2000BA2EC152DF4F68817981CF5DD040CE016F
:104A300001960E941E11CE0101960E94620D082F60
:104A400010E0EBEBF0E0EC0FFD1FE00FF11F8081B9
:104A500090E0D7018D939D937D0143E06B2DC101C3
:104A60000E94C212E7ECF0E0EC0FFD1FE00FF11F17
:104A70006081CE0101960E941318BE016F5F7F4FC7
:104A8000C1010E94B107CE0101960E944B13B3945D
:104A9000B6E0BB12C6CFCD52DF4F88819981C35D8E
:104AA000D040C89E5001C99EB00C1124CB52DF4F9C
:104AB00028813981C55DD040D29EC001D39E900D22
:104AC0001124A80EB91EC952DF4F88819981C75D94
:104AD000D040A80EB91E7301FAE09F2EC152DF4FDD
:104AE00068817981CF5DD040CE0101960E941E1170
:104AF000CE0101960E94620D082F10E0EBEBF0E072
:104B0000EC0FFD1FE00FF11F808190E0F701819312
:104B100091937F0143E0692DC1010E94C212E7EC2D
:104B2000F0E0EC0FFD1FE00FF11F6081CE01019658
:104B30000E941318BE016F5F7F4FC1010E94B10731
:104B4000CE0101960E944B139394FDE09F12C6CFB5
:104B5000CD52DF4F88819981C35DD040C89E8001CE
:104B6000C99E100D1124CB52DF4F28813981C55DBC
:104B7000D040D29EC001D39E900D1124080F191F62
:104B8000C952DF4F88819981C75DD040080F191F36
:104B9000E1E19E2EC152DF4F68817981CF5DD04027
:104BA000CE0101960E941E11CE0101960E94620D57
:104BB000E82EF12CEBEBF0E0EC0FFD1FEE0DFF1DEE
:104BC000808190E0D3018D939D933D0143E0692D59
:104BD000C1010E94C212E7ECF0E0EC0FFD1FEE0DE8
:104BE000FF1D6081CE0101960E941318BE016F5F08
:104BF0007F4FC1010E94B107CE0101960E944B1365
:104C00009394B4E19B12C6CFCD52DF4F28813981F6
:104C1000C35DD040C29EC001C39E900D1124CB52F3
:104C2000DF4F48815981C55DD040D49E9001D59E0B
:104C3000300D1124820F931FC952DF4F2881398113
:104C4000C75DD040820F931FEFEFAE16B10411F095
:104C500008F0ABCE0F3F110511F008F0A6CE8F3F44
:104C6000910511F008F0A1CE742CCF50DF4F2881B0
:104C70003981C15FD04023333105BCF4C351DF4FCC
:104C8000A881B981CD5ED0401196AC92CB51DF4F57
:104C9000E881F981C55ED0400183C751DF4FA8810B
:104CA000B981C95ED04011968C93C552DF4FB8814F
:104CB000CB5DD040B11167C181E0E1968FAFE19744
:104CC000C356DF4F9881CD59D040C257DF4F8881FE
:104CD000CE58D040C455DF4F2881CC5AD0402093C5
:104CE000820D9093830D8093840D0E946E06C552B1
:104CF000DF4FB881CB5DD040B11140C2CF51DF4F03
:104D0000E881C15ED040EF5FCF51DF4FE883C15EE5
:104D1000D040C552DF4F2881CB5DD0402F5FC552B8
:104D2000DF4F2883CB5DD040CB50DF4F4881598186
:104D3000C55FD0404F5F5F4FCB50DF4F59834883F3
:104D4000C55FD040C351DF4F88819981CD5ED0408F
:104D50000196C351DF4F99838883CD5ED040CB51FC
:104D6000DF4FA881B981C55ED0401196CB51DF4F8E
:104D7000B983A883C55ED040C751DF4FE881F98170
:104D8000C95ED0403196C751DF4FF983E883C95ED1
:104D9000D040CF51DF4FF881C15ED040F23308F4EC
:104DA000D1CDC1010E94FF1240E060E0C1010E942C
:104DB000C21260E576E0C1010E94A41242E060E008
:104DC000C1010E94C2126CE376E0C1010E94A412EC
:104DD00043E060E0C1010E94C21267E276E0C101D7
:104DE0000E94A412C152DF4F68817981CF5DD0400B
:104DF000CE0101960E941E11CE0101960E94620D05
:104E00002BEB30E02C0F3D1F280F311DD9018C9169
:104E1000882311F40C947A330E94EB110E946E06E1
:104E20002CCC512C412C34E6A32E4AE0B42EC201E6
:104E30000197C39708F423CDC1010E94FF1240E0FF
:104E400060E0C1010E94C21268EB76E0C1010E94DD
:104E5000A41240E06CE0C1010E94C2126FEA76E049
:104E6000C1010E94A41241E060E0C1010E94C2128F
:104E700069EA76E0C1010E94A41241E065E0C10147
:104E80000E94C21261E370E0CE0101960E94E71712
:104E9000BE016F5F7F4FC1010E94B107CE01019635
:104EA0000E944B1341E068E0C1010E94C21261EA16
:104EB00076E0C1010E94A41243E068E0C1010E94B3
:104EC000C2126DE976E0C1010E94A4126E0133EDB9
:104ED000C30ED11C28E0922E7601C152DF4F6881AB
:104EE0007981CF5DD040CE0101960E941E11CE0186
:104EF00001960E94620D082F10E0EBEBF0E0EC0F42
:104F0000FD1FE00FF11F808190E0D6018D939D93EE
:104F10006D0143E0692DC1010E94C212E7ECF0E08F
:104F2000EC0FFD1FE00FF11F6081CE0101960E9482
:104F30001318BE016F5F7F4FC1010E94B107CE0100
:104F400001960E944B139394BBE09B12C6CFF701CE
:104F500080819181A89EB001A99E700D11242281AB
:104F60003381B29EC001B39E900D1124680F791F4A
:104F700044805580460E571EFFE0C752DF4FF8832E
:104F8000C95DD04054CFCB50DF4FE881F981C55F78
:104F9000D0407082612C262D30E0C350DF4F398322
:104FA0002883CD5FD0404216530608F49ECEC351ED
:104FB000DF4FA881B981CD5ED0401C91662D70E095
:104FC00090E080E00E94BF49CF50DF4F6883798333
:104FD0008A839B83C15FD040C75FDE4F6881798140
:104FE0008A819B81C950D1400E94BF496B017C01DD
:104FF000C351DF4FE881F981CD5ED0406181611BF3
:10500000770B072E000C880B990B0E94C149A70152
:1050100096010E94414BCF50DF4F288139814A8150
:105020005B81C15FD0400E94FC494B015C01612F54
:1050300070E090E080E00E94BF499B01AC01C50197
:10504000B4010E94D54A0E94E24BCF5FDE4F6883D5
:1050500079838A839B83C150D140CB51DF4FA88194
:10506000B981C55ED0401C9111966C91611B770B84
:10507000072E000C880B990B0E94C149A7019601CD
:105080000E94414BCF50DF4F288139814A815B819B
:10509000C15FD0400E94FC494B015C01612F70E070
:1050A00090E080E00E94BF499B01AC01C501B401C2
:1050B0000E94D54A0E94E24B4B015C01C751DF4F71
:1050C000E881F981C95ED04010816181611B770B55
:1050D000072E000C880B990B0E94C149A70196016D
:1050E0000E94414BCF50DF4F288139814A815B813B
:1050F000C15FD0400E94FC496B017C01612F70E0D0
:1051000090E080E00E94BF499B01AC01C701B6015D
:105110000E94D54A0E94E24B6B017C01C350DF4FD5
:1051200008811981CD5FD040C750DF4F2881398178
:10513000C95FD040020F131FC801880F991F080FC5
:10514000191F0158124FCF5FDE4F688179818A8124
:105150009B81C150D1400E94B34BD8016C93C501D3
:10516000B4010E94B34BF8016183C701B6010E94EC
:10517000B34BD80112966C9363940DCFCF51DF4F90
:10518000F881C15ED040F70DCF51DF4FF883C15E8B
:10519000D040BFCDB4E0FB120C947A33C1010E9421
:1051A000FF1240E060E0C1010E94C2126FE176E0B0
:1051B000C1010E94A41240E06CE0C1010E94C21231
:1051C00066E176E0C1010E94A41242E060E0C10104
:1051D0000E94C21261E076E0C1010E94A41243E085
:1051E00060E0C1010E94C21260EF75E0C1010E943F
:1051F000A412C152DF4F68817981CF5DD040CE01CA
:1052000001960E941E11CE0101960E94620D90E04F
:105210008230910570F7C752DF4F1882C95DD040C8
:10522000892B09F06DC1C752DF4F8881C95DD0401D
:1052300081508E3108F499C0C1010E94FF1240E0F4
:1052400060E0C1010E94C21265EE75E0C1010E94DA
:10525000A41240E06CE0C1010E94C2126CED75E046
:10526000C1010E94A41241E060E0C1010E94C2128B
:1052700066ED75E0C1010E94A41241E065E0C10144
:105280000E94C2126EE170E0CE0101960E94E71703
:10529000BE016F5F7F4FC1010E94B107CE01019631
:1052A0000E944B1341E068E0C1010E94C2126AEC07
:1052B00075E0C1010E94A41243E069E0C1010E94AF
:1052C000C21267EC75E0C1010E94A4127E01E3EDF9
:1052D000EE0EF11C69E0B62E6701C152DF4F688106
:1052E0007981CF5DD040CE0101960E941E11CE0182
:1052F00001960E94620D082F10E0EBEBF0E0EC0F3E
:10530000FD1FE00FF11F808190E0D7018D939D93E9
:105310007D0143E06B2DC1010E94C212E7ECF0E079
:10532000EC0FFD1FE00FF11F6081CE0101960E947E
:105330001318BE016F5F7F4FC1010E94B107CE01FC
:1053400001960E944B13BAE0BB120CC0F60180819B
:1053500062818B9D600D1124C752DF4F6883C95D48
:10536000D04061CF5AE0B52EB8CFC752DF4F288169
:10537000C95DD0402150330BB901072E000C880BBA
:10538000990B0E94C1499B01AC0160E070E084E48C
:1053900092E40E94414B0E94E24B0E94B34BCF51DA
:1053A000DF4F79836883C15ED040CB51DF4F1882D5
:1053B000C55ED040CB51DF4F3881C55ED040C7526B
:1053C000DF4F4881C95DD040431728F0832F8150BB
:1053D0008F3008F46BC1C1010E94FF1240E060E011
:1053E000C1010E94C21268E975E0C1010E94A412C5
:1053F00040E06CE0C1010E94C2126FE875E0C1019B
:105400000E94A41241E060E0C1010E94C21269E85A
:1054100075E0C1010E94A41241E065E0C1010E9453
:10542000C2126FE070E0CE0101960E94E717BE0144
:105430006F5F7F4FC1010E94B107CE0101960E94AC
:105440004B1341E068E0C1010E94C2126DE775E0B4
:10545000C1010E94A41243E069E0C1010E94C2128E
:105460006AE775E0C1010E94A4128E010D521F4F20
:1054700099E0B92E7801C152DF4F68817981CF5D03
:10548000D040CE0101960E941E11CE0101960E94CD
:10549000620DC82ED12CEBEBF0E0EC0FFD1FEC0DF4
:1054A000FD1D808190E0D8018D939D938D0143E097
:1054B0006B2DC1010E94C212E7ECF0E0EC0FFD1F62
:1054C000EC0DFD1D6081CE0101960E941318BE01F6
:1054D0006F5F7F4FC1010E94B107CE0101960E940C
:1054E0004B13BAE0BB12DFC0F701908182819B9D14
:1054F000800D1124CB51DF4F8883C55ED0405ACF39
:10550000CF51DF4F19821882C15ED04034E6A32EFE
:105510004AE0B42ECF51DF4F88819981C15ED040DF
:105520000197C29708F441CFC1010E94FF1240E0E9
:1055300060E0C1010E94C2126DEB75E0C1010E94E2
:10554000A41240E06CE0C1010E94C21264EB75E05D
:10555000C1010E94A41241E060E0C1010E94C21298
:105560006EEA75E0C1010E94A41241E065E0C1014C
:105570000E94C21262E370E0CE0101960E94E7171A
:10558000BE016F5F7F4FC1010E94B107CE0101963E
:105590000E944B1341E068E0C1010E94C21266EA1A
:1055A00075E0C1010E94A41243E068E0C1010E94BD
:1055B000C21262EA75E0C1010E94A4126E0133EDCD
:1055C000C30ED11C28E0922E7601C152DF4F6881B4
:1055D0007981CF5DD040CE0101960E941E11CE018F
:1055E00001960E94620D082F10E0EBEBF0E0EC0F4B
:1055F000FD1FE00FF11F808190E0D6018D939D93F8
:105600006D0143E0692DC1010E94C212E7ECF0E098
:10561000EC0FFD1FE00FF11F6081CE0101960E948B
:105620001318BE016F5F7F4FC1010E94B107CE0109
:1056300001960E944B139394BBE09B12C6CFF701D7
:1056400080819181A89EB001A99E700D11242281B4
:105650003381B29EC001B39E900D1124680F791F53
:10566000848195819B01280F391FCF51DF4F3983EA
:105670002883C15ED040B90190E080E00E94BF491C
:105680009B01AC0160E070E084E492E40E94414B35
:105690000E94E24B0E94B34B6F5FC752DF4F68839B
:1056A000C95DD04037CF8AE0B82EE5CEC1010E9457
:1056B000FF1240E060E0C1010E94C2126FE675E097
:1056C000C1010E94A41240E06CE0C1010E94C2121C
:1056D00066E675E0C1010E94A41242E060E0C101EB
:1056E0000E94C21263E575E0C1010E94A41260ED40
:1056F00077E080E090E00E94300641E060E0C10188
:105700000E94C2126FE375E0C1010E94A41242E040
:1057100060E0C1010E94C2126BE275E0C1010E940B
:10572000A41243E060E0C1010E94C21267E175E08B
:10573000C1010E94A41280E790E08C0F9D1F4E963D
:10574000FE01E059FF4F1192E817F907E1F7F12C3C
:105750000CE010E0CB51DF4F3881C55ED040232FE5
:1057600030E0C552DF4F39832883CB5DD040C7522C
:10577000DF4F4881C95DD040842E912CB12CA12CE3
:10578000F11010C0C152DF4F68817981CF5DD040E8
:10579000CE0101960E941E11CE0101960E94620D5B
:1057A000082F10E00A30110530F0C552DF4F088194
:1057B0001981CB5DD0400930110509F04AC0C10103
:1057C0000E94FF1240E060E0C1010E94C2126CE042
:1057D00075E0C1010E94A41240E06CE0C1010E948A
:1057E000C21263E075E0C1010E94A41241E060E0D2
:1057F000C1010E94C2126FEE74E0C1010E94A412A6
:1058000042E061E0C1010E94C2126BED74E0C1018F
:105810000E94A41243E064E0C1010E94C2126AEC3B
:1058200074E0C1010E94A412C152DF4F68817981E6
:10583000CF5DD040CE0101960E941E11CE0101968F
:105840000E94620D90E08A30910519F08C01065F8C
:105850001F4FC552DF4F88819981CB5DD04008171B
:10586000190708F0F9C0CF2CD12CE0E7F0E0EC0FDD
:10587000FD1FEC0DFD1D81E0800F8083C501B4018B
:105880000E94BF492B013C016F2D70E090E080E049
:105890000E94BF499B01AC01C301B2010E94414B70
:1058A0000E94E24B0E94B34BF3944F2D51E09FEFC7
:1058B000C91AD90A651760F1852F90E001968C9D71
:1058C00090018D9D300D9C9D300D1124742FE72F7C
:1058D000E41B872F90E028173907BCF0A0E7B0E061
:1058E000AC0FBD1FAE0FB11DFD01E081A0E7B0E020
:1058F000AC0FBD1F8A0F9B1FDC01EC93CD5EDE4F0A
:105900007883C351D1407F5FE2CF5F5F4F0DD2CF2D
:10591000CD5EDE4F8881C351D1408F5FE0E7F0E07C
:10592000EC0FFD1FE80FF11DDE01A059BF4FC7525C
:10593000DF4F2881C95DD040821720F49D9191935B
:105940008F5FF5CFC1010E94FF1240E060E0C1010E
:105950000E94C2126FEB74E0C1010E94A41240E0E9
:105960006CE0C1010E94C21266EB74E0C1010E94AA
:10597000A412C752DF4F3881C95DD0403B3010F5CB
:10598000AE0140595F4F6A01E12CC752DF4F588189
:10599000C95DD0405E1509F45FC06E2D660F41E011
:1059A000C1010E94C212D6017D906D01B101CE01EC
:1059B00001960E94BB11672DCE0101960E942C1802
:1059C000E394E3CFC752DF4FB881C95DD040FE01F9
:1059D000E059FF4F6F01E12CB53108F05FC341E0A2
:1059E0006E2DC1010E94C212D6017D906D01B101E0
:1059F000CE0101960E94BB11672DCE0101960E9437
:105A00002C18E394E394B4E1EB12E9CFA0E7CA2E9B
:105A1000D12CCC0EDD1EEAE0CE0ED11CBAE0EB2E6E
:105A200066E76E0D660F42E0C1010E94C212D60108
:105A30007D906D01B101CE0101960E94BB11672DD1
:105A4000CE0101960E942C18E394C752DF4FB88113
:105A5000C95DD040BE11E4CFFF2081F0C152DF4FBD
:105A600068817981CF5DD040CE0101960E941E11E0
:105A7000CE0101960E94620D082F10E00B30110537
:105A800009F07ECEFE01E455FF4FC751DF4FF98389
:105A9000E883C95ED0409E0123563F4FCB50DF4F75
:105AA00039832883C55FD040AE0142575F4FC7504E
:105AB000DF4F59834883C95FD040225E3F4FCB50B0
:105AC000DF4F88819981C55FD0401192DC011D9222
:105AD000CD01DA011D92AD012E173F07B1F7C35179
