:100000000C941A020C944B020C944B020C944B026D
:100010000C944B020C944B020C944B020C944B022C
:100020000C944B020C944B020C944B020C944B021C
:100030000C944B020C944B020C944B020C944B020C
:100040000C944B020C944B020C944B020C944B02FC
:100050000C944B020C944B020C944B020C94542EB7
:100060000C944B020C94C82E0C949E2E0C944B02B4
:100070000C944B020C944B020C944B020C944B02CC
:100080000C944B020C944B020C944B020C944B02BC
:100090000C944B020C944B020C944B020C94FE2ECD
:1000A0000C944B020C944B020C944B020C944B029C
:1000B0000C944B020C944B020C944B020C944B028C
:1000C0000C944B020C944B020C944B020C944B027C
:1000D0000C944B020C944B020C944B020C944B026C
:1000E0000C944B020C949E200C9439050C9407033D
:1000F0000C94DF060C943D050C948F0F0C941103A7
:100100000C9403030C94DE060C9401070C94D50D9B
:100110000C9415030C94DB200C94A2050C9428037A
:100120000C94F2020C942F210C9427060C941909BC
:100130000C9471050C942D030C94A1020C942303D0
:100140000C9426210C943F0E0C94731F0C94FD020A
:100150000C94E8020C943A050C947E020C94EE0286
:100160000C9422300C941D090C94EE1D0C94EE0698
:100170000C943A100C948A020C9408070C941F03F8
:100180000C943A0F0C949D020C9480050C94770DFE
:100190000C94160B0C941B030C946A020C94290308
:1001A0000C943C0E0C9494050C9435070C94380573
:1001B0000C94430E0C9421090C94390F0C941E1DC1
:1001C0000C94790D0C94F6020C94DA050C940D0342
:1001D0000C94981D0C94FA0248483A4D4D20414D1C
:1001E000002A002A2A2A2A2A2A2A2A2A2A2A2A2AC3
:1001F0002A2A2A2A2A2A2A005F5F5F5F5F5F00455A
:100200006E7465722050617373776F72643A002A5E
:100210002A2A2A2A2A2A2A2A2A2A2A2A2A2A2A2A3E
:100220002A2A2A002376002A5E002D0030002D00A5
:100230005F005F005F5F5F00746F207069636B2019
:100240006D6F726520636F6C6F72732E00507265F4
:10025000737320616E79206F74686572206B6579A5
:100260000050726573732027302720696620646F01
:100270006E652E00202020202020636F6E74696E32
:100280007565002020507265737320616E79206B54
:10029000657920746F004D4F4E4441592B2B2053EC
:1002A0006D61727421204C454473002A2A2A2A2A3F
:1002B0002A2A2A2A2A2A2A2A2A2A2A2A2A2A2A00C8
:1002C00000002100240027002A002D003000330008
:1002D00001010000040107010A01000022002500BD
:1002E00028002B002E00310034000201000005011F
:1002F00008010B01000020002300260029002C002B
:100300002F0032000001000003010601090105056C
:100310000505070508080808020202020A0A08087B
:1003200004040404010101010101010103030303A9
:1003300003030303040707070C0C0C0C0C0C0C0C38
:100340000202020206060606060606060B0B0B0B49
:100350000B0B0B0B0102102020080810204010206E
:100360004080020102010804020101020408102079
:100370004080804020100804020180040201804077
:1003800020100804020108040201010204081020E0
:100390004080010204081020408000000A0B02097E
:1003A0000C0D0E080703040100000000000000000F
:1003B000000000000000000000000000000000003D
:1003C00000000000000012111000000000000000FA
:1003D000000000000000000000000000000000001D
:1003E00050726573732023207768656E20646F6E8A
:1003F000652100523A205F5F5F20473A205F5F5FD0
:1004000020423A205F5F5F004E756D626572206F1B
:1004100066204C4544733A205F5F5F00523A205F8C
:100420005F5F20473A205F5F5F20423A205F5F5F57
:100430000000223011241FBECFEFD1E2DEBFCDBFBE
:1004400000E00CBF24E1AEE0B0E101C01D92AE3F80
:10045000B207E1F710E1A0E0B2E0EEEFFFE600E066
:100460000BBF02C007900D92AE30B107D9F712E072
:10047000CAE1D2E000E006C021970109802FFE0109
:100480000E94A035C931D10780E00807A9F70E9472
:10049000EC300C94FD370C94000010923A1110923D
:1004A0003B11E0913C11F0913D113197EA30F1059B
:1004B00008F047C08827E05AFD4F8F4F0C94A035B5
:1004C0006A027E028A026A027E028A02A102A102F6
:1004D000A1029D02EAE3F1E11782148215821682DD
:1004E000349681E1E637F807B9F7EAE7F1E188E900
:1004F00091E111928E179F07E1F70895EAE3F1E188
:100500001782148215821682349681E1E23BF80745
:10051000B9F70895EAE3F1E1178214821582168291
:10052000349681E1E637F807B9F7EAE7F1E111928D
:1005300081E1E938F807D9F7089510923E11109239
:100540003F11089520E0DC0160FF03C001C02D933E
:100550002D936250E0F77040D0F70895CF93DF936A
:10056000C0912E11D0912F11209789F08A819B8103
:10057000009749F02D853E85B901660F771F620F00
:10058000731F0E94A2020C80DD81C02DEDCFDF9190
:10059000CF9108958150823108F05AC0E82FF0E0E1
:1005A0008827EA52FD4F8F4F0C94A035F602FA02CD
:1005B000E802EE02F2022803FD02030307030D0323
:1005C000110315031B031F032803230329032D0312
:1005D000809180008F7780938000089580918000C3
:1005E0008F7DF9CF80918000877FF5CF84B58F779D
:1005F00084BD089584B58F7DFBCF8091B0008F7747
:100600008093B00008958091B0008F7DF9CF8091E4
:1006100090008F77809390000895809190008F7D57
:10062000F9CF80919000877FF5CF8091A0008F77E0
:100630008093A00008958091A0008F7DF9CF8091D4
:10064000A000877FF5CF809120018F7780932001D4
:100650000895809120018F7DF9CF80912001877FBF
:10066000F5CFCF93DF93282F30E0F901E656FC4F0A
:100670008491F901EC5AFC4FD491F901E25FFC4FEF
:10068000C491CC23A1F081110E94CA02EC2FF0E0AA
:10069000EE0FFF1FEC50FD4FA591B491EC91ED23AF
:1006A00081E090E009F480E0DF91CF91089580E04F
:1006B00090E0FACF1F93CF93DF93282F30E0F9011A
:1006C000E656FC4F8491F901EC5AFC4FD491F901A4
:1006D000E25FFC4FC491CC23A9F0162F81110E9438
:1006E000CA02EC2FF0E0EE0FFF1FE652FD4FA5917E
:1006F000B4918FB7F894EC91111108C0D095DE2316
:10070000DC938FBFDF91CF911F910895DE2BF8CF3F
:10071000CF93DF9390E0FC01EC5AFC4F2491825F71
:100720009C4FFC0184918823C9F090E0880F991FA9
:10073000FC01E054FD4FA591B491FC01E652FD4F40
:10074000C591D49161110DC09FB7F8948C912095FB
:1007500082238C938881282328839FBFDF91CF91A8
:100760000895623051F49FB7F8943C91822F8095A0
:1007700083238C93E8812E2BEFCF8FB7F894EC91E5
:100780002E2B2C938FBFEACF3FB7F8948091131193
:1007900090911411A0911511B091161126B5A89B36
:1007A00005C02F3F19F00196A11DB11D3FBFBA2F03
:1007B000A92F982F8827BC01CD01620F711D811DC3
:1007C000911D42E0660F771F881F991F4A95D1F748
:1007D00008958F929F92AF92BF92CF92DF92EF9245
:1007E000FF924B015C010E94C4036B017C010E94DB
:1007F000C4036C197D098E099F09683E7340810509
:100800009105A8F321E0821A9108A108B10888EEA9
:10081000C80E83E0D81EE11CF11C81149104A104D0
:10082000B10429F7FF90EF90DF90CF90BF90AF9089
:100830009F908F9008952FB7F89460910F11709149
:10084000101180911111909112112FBF08954F92A4
:100850005F926F927F929F92AF92BF92CF92DF9200
:10086000EF92FF920F931F93CF93DF9300D0CDB7FA
:10087000DEB7D09066148091691490916A14A091AB
:100880006B14B0916C14892B8A2B8B2BD9F00E949E
:10089000C403009130111091311120913211309127
:1008A0003311601B710B820B930B00916914109133
:1008B0006A1420916B1430916C14601771078207D1
:1008C0009307C8F20E94C4036093301170933111F2
:1008D0008093321190933311E0917114F09172145E
:1008E000309759F040916D1450916E1460916F14CF
:1008F000709170148D2D1995D82EE0902E11F090D6
:100900002F114D2C512C712C612CE114F10409F4A0
:1009100059C0D7011C96CC901C9780916714909178
:1009200068148436910510F41C961C92D701ED9141
:10093000FC91A280B38019821A821B82DD2079F19A
:10094000F701369610E000E02191222319F1928000
:10095000992001F130E050E040E02F5F3F4F4F4FD2
:100960005F4FC301B2010E945A359B01AC01892D32
:1009700090E0B0E0A0E0BC01CD016F5F7F4F8F4FF2
:100980009F4F0E945A35A1E0B0E0AC0FBD1FA00FF1
:10099000B11F8C930F5F1F4F03301105A9F609811A
:1009A0001A812B81F7014585568562817381C701C4
:1009B000F5011995D7011C96CC921C971496ED90D1
:1009C000FC90A3CF80912C1190912D118C010F5F81
:1009D0001F4F10932D1100932C114997B4F10E94D1
:1009E0001B04C0902811D0902911E0902A11F0909A
:1009F0002B119B01AC012C193D094E095F0921F413
:100A000021E030E040E050E088EE93E0089FB00144
:100A1000099F700D189F700D1124072E000C880B74
:100A2000990B0E947E3530936814209367141092BE
:100A30002D1110922C110E941B04609328117093A9
:100A4000291180932A1190932B110F900F900F90E2
:100A5000DF91CF911F910F91FF90EF90DF90CF909A
:100A6000BF90AF909F907F906F905F904F90089550
:100A70000895089580E991E00895AF92BF92CF92D2
:100A8000DF92EF92FF920F931F93CF93DF936C014E
:100A90007B018B01040F151FEB015E01AE18BF082F
:100AA000C017D10759F06991D601ED91FC910190E1
:100AB000F081E02DC6011995892B79F7C501DF91E9
:100AC000CF911F910F91FF90EF90DF90CF90BF904B
:100AD000AF900895FB0144815581608171810C9430
:100AE0003D05FC01538D448D252F30E0842F90E08F
:100AF000821B930B541710F0CF9608950197089519
:100B0000FC01918D828D981761F0A28DAE0FBF2FE1
:100B1000B11D5D968C91928D9F5F9F73928F90E037
:100B200008958FEF9FEF0895FC01918D828D9817A6
:100B300031F0828DE80FF11D858D90E008958FEFE3
:100B40009FEF0895FC01918D228D892F90E0805CAC
:100B50009F4F821B91098F739927089589EC93E128
:100B60000E94A20521E0892B09F420E0822F08953C
:100B7000FC01A48DA80FB92FB11DA35ABF4F2C9112
:100B8000848D90E001968F739927848FA689B78909
:100B90002C93A089B1898C91837080648C93938D00
:100BA000848D981306C00288F389E02D80818F7DA3
:100BB00080830895EF92FF920F931F93CF93DF935B
:100BC000EC0181E0888F9B8D8C8D98131AC0E88989
:100BD000F989808185FF15C09FB7F894EE89FF8958
:100BE0006083E889F98980818370806480839FBFF6
:100BF00081E090E0DF91CF911F910F91FF90EF90F6
:100C00000895F62E0B8D10E00F5F1F4F0F73112705
:100C1000E02E8C8D8E110CC00FB607FCFACFE88940
:100C2000F989808185FFF5CFCE010E94B805F1CF0B
:100C3000EB8DEC0FFD2FF11DE35AFF4FF0829FB7B4
:100C4000F8940B8FEA89FB8980818062CFCFCF93A4
:100C5000DF93EC01888D8823B9F0AA89BB89E889E4
:100C6000F9898C9185FD03C0808186FD0DC00FB68A
:100C700007FCF7CF8C9185FFF2CF808185FFEDCF08
:100C8000CE010E94B805E9CFDF91CF91089580E0B1
:100C900090E0892B29F00E94AE0581110E9400008E
:100CA00080E090E0892B49F080E090E0892B29F0EA
:100CB0000E94000081110E94000080E090E0892BDA
:100CC00049F080E090E0892B29F00E94000081111A
:100CD0000E94000080E090E0892B49F080E090E0E5
:100CE000892B29F00E94000081110C9400000895C6
:100CF0002091A110260F3327331F21323105ECF448
:100D00002091C510FC0190E080E0243069F082E081
:100D10000895A091A1102191AC014F575F4EA40FEF
:100D2000B52FB11D2C930196861798F38091A110D1
:100D3000680F6093A11080E0089581E008951092FB
:100D4000C51081E08093C7101092C61061E084E165
:100D50000E945A0361E085E10E945A03E9EBF0E04A
:100D600080818E7F808380818D7F808388E48093E3
:100D7000B80085E48093BC000895CF93DF9391E0A1
:100D8000909380108823B9F0C091B800D091BA0038
:100D90008091BC008A7B8093BC0060E084E10E946B
:100DA0005A0360E085E10E945A030E949F06D09397
:100DB000BA00C093B800DF91CF9108950895E091F3
:100DC0000D1180910C11E81730F4F0E0E55AFF4E58
:100DD000808190E008958FEF9FEF089590910D111D
:100DE00080910C112FEF3FEF981748F4E92FF0E0B6
:100DF000E55AFF4E208130E09F5F90930D11C901AD
:100E0000089580910C1190910D11891B990B0895F3
:100E1000CF92DF92EF92FF920F931F93CF93DF93C6
:100E20007C01CB018A0120915A10222389F0EB0129
:100E30006B01C40ED51ECC15DD0569F06991D70193
:100E4000ED91FC910190F081E02DC7011995F3CF50
:100E5000642F0E947806C801DF91CF911F910F91F6
:100E6000FF90EF90DF90CF900895CF93DF931F9284
:100E7000CDB7DEB7698320915A102223F9F0209173
:100E80000A11203258F021E030E0FC013383228344
:100E900090E080E00F90DF91CF91089580910B1149
:100EA000E82FF0E0E65CFF4E998190838F5F80939E
:100EB0000B1180930A1181E090E0ECCF61E0CE014C
:100EC00001960E947806F7CFCF92DF92EF92FF92C1
:100ED0000F931F93CF93DF93FC01C48121E02093F4
:100EE0005A10C093391010920B1110920A11838579
:100EF000682B83E794E10E943507D0910A11D13223
:100F000008F092C00E94C4036B017C018091C5105F
:100F1000811165C082E08093C51081E08093C71085
:100F20008FEF8093C4101092E910D093E810AAE3D9
:100F3000B0E1E8ECF0E180E0D81385C01092EA104F
:100F40008091EA10CC0FC82BC093EA108091C61094
:100F5000813009F07CC01092C6100E94C4036B015E
:100F60007C018091EA108093BB0080917C1090916D
:100F70007D10A0917E10B0917F10892B8A2B8B2B36
:100F800099F00E94C40300917C1010917D10209173
:100F90007E1030917F106C197D098E099F0906170C
:100FA000170728073907E0F18091BC0083FDD9CFEE
:100FB00085EC8093BC000E94C4036B017C0180918E
:100FC000C510823009F445C08091C4108F3F61F193
:100FD0008091C410803241F18091C41025C080916D
:100FE0007C1090917D10A0917E10B0917F10892B84
:100FF0008A2B8B2B09F48ACF0E94C40300917C10AA
:1010000010917D1020917E1030917F106C197D0918
:101010008E099F09061717072807390708F076CFAA
:1010200080917B100E94BD0610920B1110920A1144
:1010300010925A10DF91CF911F910F91FF90EF9076
:10104000DF90CF9008959D9191938F5F75CF85EE3E
:10105000B0CF80917C1090917D10A0917E10B091C6
:101060007F10892B8A2B8B2B09F4A9CF0E94C403F4
:1010700000917C1010917D1020917E1030917F1096
:101080006C197D098E099F0906171707280739076C
:1010900008F095CFC5CFCF93DF93DC0126E0629FA8
:1010A000A00DB11D112490965C934E935F9721E0A3
:1010B00091962C939197FC01E359FF4F0190F08199
:1010C000E02DEC01C459DF4F2881222341F03097F5
:1010D00019F0DC01662329F0DF91CF910895309754
:1010E000D9F35C968C91DF91CF911994CF92DF92D6
:1010F000EF92FF920F931F93CF93DF93EC01162F84
:10110000042FFC0186E0689FE00DF11D112411A25F
:10111000878D90A18130910509F180F08230910591
:1011200009F443C0039709F445C0DF91CF911F91A3
:101130000F91FF90EF90DF90CF9008954423A9F393
:1011400041E050E0CE010E944B080E941B04C85AA7
:10115000DF4F688379838A839B83E7CF0E941B04D8
:10116000FE01E85AFF4FC080D180E280F380AB01DE
:10117000BC014C195D096E097F09729680819181CD
:10118000B0E0A0E084179507A607B70770F442E027
:1011900050E0612FCE01DF91CF911F910F91FF9011
:1011A000EF90DF90CF900C944B0843E050E001119A
:1011B000BCCFEFCF50E040E0ECCF8F929F92AF9248
:1011C000BF92CF92DF92EF92FF92CF93DF93EFEF38
:1011D000E60FEC01C12CD12C7601EF3FE9F08990AC
:1011E000912CB12CA12CF0E061E070E080E090E067
:1011F000FE1741F0AAE0B0E09B01AC010E9432343E
:10120000FF5FF6CFA50194010E945A35C60ED71E86
:10121000E81EF91EE150E1CFC701B601DF91CF9181
:10122000FF90EF90DF90CF90BF90AF909F908F9006
:101230000895862F642F0C948803862F642F0C94B6
:101240005A03862F0C9431032F923F924F925F9254
:101250006F927F928F929F92AF92BF92CF92DF92C6
:10126000EF92FF920F931F93CF93DF93CDB7DEB72B
:101270002C970FB6F894DEBF0FBECDBF9C878B872F
:1012800084599F4F9A83898381E0A981BA818C9385
:101290000E941B04EB85FC85E45AFF4FFC83EB8323
:1012A0000081118122813381AB01BC01401B510BB4
:1012B000620B730BEB85FC85E859FF4F80819181B0
:1012C000B0E0A0E084179507A607B70708F037C17C
:1012D00010E0CB84DC84F6E6CF0ED11CEB84FC84DA
:1012E00022E6E20EF11CD6018C91181758F4D701B2
:1012F000ED91FC91E10FF11D62E080810E94880375
:101300001F5FF1CF312C4B845C84B7E64B0E511C30
:10131000EB84FC84E4E6EE0EF11C812C912C54014C
:1013200083942B853C852E593F4F3A872987D201DC
:101330008C91381608F063C0032D10E0D701ED91B1
:10134000FC91E00FF11F61E080810E948803D701CA
:10135000ED91FC91E00FF11F60E080810E945A0343
:10136000D501C401032C04C0880F991FAA1FBB1FFD
:101370000A94D2F79E838D83FC01E095F095F8875F
:10138000EF83212CD6018C91281620F5622C712C2C
:10139000A985BA85ED91FC91E60DF71D80810E942B
:1013A0003103660C771CEB85FC85E60DF71D892B58
:1013B00051F4808591852D813E81822B932B9187DD
:1013C00080872394DFCF80859185AF81B8858A237C
:1013D0009B23F5CFD701ED91FC91E00FF11F61E068
:1013E00080810E945A03F70180819181080F191FA3
:1013F00060E0D8018C910E948803339498CF0B85CC
:101400001C85C801CC9678012FEF3FEFF701478D7F
:1014100050A1452B21F4148E368F258F11A2F6E0B2
:10142000EF0EF11CE816F90689F7A12C96E0392E8B
:101430008B849C8420E6820E911CD6018C91A81688
:1014400008F05AC0B12C6A2C712CB4E06B0E711CE0
:10145000660C771CEB85FC856E0E7F1ED2018C918D
:10146000B81608F047C0F301408151810B2C02C02F
:10147000569547950A94E2F7A89EC00111248B0D5A
:10148000911DEB85FC8560E0258D368D82179307D5
:1014900009F473C06F5F36966A30B1F740FF28C019
:1014A000EB85FC8570E060E0248D21111BC0369E29
:1014B000F001379EF00D11242B853C85E20FF31FC0
:1014C000D4012D913C91D901A80FB91F2C91248FE3
:1014D000968F858F10A2178E41E08B859C850E9488
:1014E000760806C06F5F7F4F36966A307105E1F669
:1014F000B394B4CFA394A1CFD12CF80181A18111D1
:10150000D82E0A5F1F4FE016F106B9F70E941B04A0
:10151000AB81BC816D937D938D939C931397DD205C
:1015200071F0EB85FC8581A1882349F0878D90A11E
:10153000019729F4848D811106C08FEF05C0A98120
:10154000BA811C92FACF81532C960FB6F894DEBF65
:101550000FBECDBFDF91CF911F910F91FF90EF9004
:10156000DF90CF90BF90AF909F908F907F906F90C3
:101570005F904F903F902F9008954170AECFFC0147
:10158000848180FF05C0128A84FF0AC0638B08959E
:1015900081FF03C02695228BF7CF82FFF5CFFBCFCB
:1015A00085FF04C04695460F438B02C086FDFBCFE6
:1015B00008950F931F93CF93DF93209122102F5FF5
:1015C000322F37703093221020FF2BC020E831FDDE
:1015D0002064347009F02062205FFC01EC01239646
:1015E00000E011E06485662329F070E0C8010E94E4
:1015F0006A356F5F6187322F369F030E30E0311DF1
:101600001124311110C01682662311F061506187D8
:101610003196EC17FD0731F7DF91CF911F910F91B4
:10162000089520E0D4CF31503683EECF4F925F92B1
:101630007F928F929F92AF92BF92CF92DF92EF9262
:10164000FF920F931F93CF93DF932C01EB010E9426
:10165000C403F20127853089621B730B6A30710560
:10166000B0F3F8948A819B81181619060CF0CDC14D
:10167000E881F9816EB1862E689484F83EB13F7E90
:101680003EB9D9848E812D2D281B822F2E834F8524
:10169000042E000C550BAA81BB817C85FD84EE8451
:1016A0007F5FF394E3949F819884BA84AB84108124
:1016B000C12C6C2D0C2D2C2D2081112788942111EB
:1016C000280F08F42FEF8195889470FD120F17955D
:1016D000889471FD120F1795889472FD120F17955B
:1016E000889473FD120F1795889474FD120F179547
:1016F000889475FD120F1795889476FD120F179533
:10170000889477FD120F17958894622F7111612FBD
:101710008D0D162F002C8EB800C000C017FF3EB9EB
:1017200021816627889400C0002C3EB92111290F21
:1017300000C0002C8EB800C000C016FF3EB908F4EF
:101740002FEF9195889400C0002C3EB9F0FC620FF9
:1017500000C0002C8EB800C000C015FF3EB96795D0
:101760008894F1FC620F00C0002C3EB96795889404
:1017700000C0002C8EB800C000C014FF3EB9F2FCBF
:10178000620F6795889400C0002C3EB9F3FC620F8D
:1017900000C0002C8EB800C000C013FF3EB9679592
:1017A0008894F4FC620F00C0002C3EB967958894C1
:1017B00000C0002C8EB800C000C012FF3EB9F5FC7E
:1017C000620F6795889400C0002C3EB9F6FC620F4A
:1017D00000C0002C8EB800C000C011FF3EB9679554
:1017E0008894F7FC620F00C0002C3EB9679588947E
:1017F00000C0002C8EB800C000C010FF3EB9122FF0
:10180000F110162F9B0D00C0002C3EB900C000C087
:10181000002C8EB800C000C017FF3EB92281662799
:10182000889400C0002C3EB92111290D00C0002C65
:101830008EB800C000C016FF3EB908F42FEFE40FC9
:10184000F51F00C0002C3EB9E0FC620F00C0002C68
:101850008EB800C000C015FF3EB967958894E1FCC2
:10186000620F00C0002C3EB96795889400C0002C20
:101870008EB800C000C014FF3EB9E2FC620F67954D
:10188000889400C0002C3EB9E3FC620F00C0002C1D
:101890008EB800C000C013FF3EB967958894E4FC81
:1018A000620F00C0002C3EB96795889400C0002CE0
:1018B0008EB800C000C012FF3EB9E5FC620F67950C
:1018C000889400C0002C3EB9E6FC620F00C0002CDA
:1018D0008EB800C000C011FF3EB967958894E7FC40
:1018E000620F00C0002C3EB96795889400C0002CA0
:1018F0008EB800C000C010FF3EB9122FE110162FA5
:10190000919400C0002C3EB99A0C00C000C08EB863
:1019100000C000C017FF3EB920816627889400C030
:10192000002C3EB92111280F00C0002C8EB800C039
:1019300000C016FF3EB908F42FEF8195889400C0CF
:10194000002C3EB970FD620F00C0002C8EB800C0A4
:1019500000C015FF3EB96795889471FD620F00C005
:10196000002C3EB96795889400C0002C8EB800C04A
:1019700000C014FF3EB972FD620F6795889400C0E5
:10198000002C3EB973FD620F00C0002C8EB800C061
:1019900000C013FF3EB96795889474FD620F00C0C4
:1019A000002C3EB96795889400C0002C8EB800C00A
:1019B00000C012FF3EB975FD620F6795889400C0A4
:1019C000002C3EB976FD620F00C0002C8EB800C01E
:1019D00000C011FF3EB96795889477FD620F00C083
:1019E000002C3EB96795889400C0002C8EB800C0CA
:1019F00000C010FF3EB9122F7111162F8D0D00C0BF
:101A0000002C3EB9119709F086CE4A815B8120EE09
:101A100031E0DA010E94A835DC01CB01F4E0B69593
:101A2000A79597958795FA95D1F730E020E0B90111
:101A3000EAE94E9F040E611D5E9F600D711D112429
:101A4000650F711D860F971FA11DB11D893E43E0D3
:101A50009407A105B10508F434C0885E9340A1093C
:101A6000B10942E0B695A795979587954A95D1F724
:101A700047E0849F080E211D949F200D311D1124E5
:101A8000290F311D6091211070E0860F971F820F82
:101A9000931F40910F11509110116091111170918D
:101AA0001211292F3327420F531F611D711D4093BF
:101AB0000F115093101160931111709312118093B4
:101AC000211078940E94C403F201708B6787DF9124
:101AD000CF911F910F91FF90EF90DF90CF90BF902B
:101AE000AF909F908F907F905F904F9008956C9AE9
:101AF00008956F927F928F92CF92DF92EF92FF9232
:101B00000F931F93CF93DF93CDB7DEB762970FB6D6
:101B1000F894DEBF0FBECDBF6C017A013801822E72
:101B2000DC011C962C91CA0157FF04C08827992715
:101B3000841B950B7A8369839C838B839E838D831F
:101B40006D867E868F86213049F5CE0101960E94F2
:101B5000D90A83E0888B1A8A198AF7FE02C08DEFB2
:101B6000888BD601ED91FC910484F585E02DBE01B2
:101B70006F5F7F4FC601199562960FB6F894DEBF6E
:101B80000FBECDBFDF91CF911F910F91FF90EF90CE
:101B9000DF90CF908F907F906F9008951C861B866A
:101BA0001A86198618861F82D4CFEF92FF920F9360
:101BB0001F93CF93DF93CDB7DEB762970FB6F8943C
:101BC000DEBF0FBECDBF7C01DC011C968C917A83F9
:101BD00069835C834B835E834D830D871E872F87CC
:101BE0008130F9F4CE0101960E94D90A188A1A8A26
:101BF000198AD701ED91FC910484F585E02DBE0191
:101C00006F5F7F4FC701199562960FB6F894DEBFDC
:101C10000FBECDBFDF91CF911F910F91FF90EF903D
:101C200008951C861B861A86198618861F82DECFA9
:101C3000E8EEF2E091E090838FEF83831482E6E197
:101C4000F2E0908383831482EDEBF3E0908383834F
:101C50001482EFE8F4E0908383831482E6EEF8E0E8
:101C600090838383148280932010E4E1F8E09083D2
:101C7000838314820C944D0290E080E00895FC016F
:101C80008585968508950F931F93CF93DF9300D09A
:101C9000CDB7DEB7AB0119821A821B82DC01ED9150
:101CA000FC910190F081E02D00E010E020E0BE0109
:101CB0006F5F7F4F19950F900F900F90DF91CF912D
:101CC0001F910F910895CF93DF93EC0118820E942A
:101CD0001B046D837E838F839887DF91CF91089556
:101CE0000F931F93CF9326E0FB013296DC011296EF
:101CF00001900D922A95E1F72BE93AE0FC0131833E
:101D0000208324E1FB013896DC01189601900D92A6
:101D10002A95E1F79C01245E3F4FAB01445E5F4F83
:101D20008901045C1F4FC6E0FA01D90101900D92B0
:101D3000CA95E1F72A5F3F4F4A5F5F4F201731078F
:101D400091F7FB01E85AFF4F008111812281338115
:101D5000FC01E85AFF4F0083118322833383FB0188
:101D6000E45AFF4F0081118122813381FC01E45A42
:101D7000FF4F0083118322833383FB01E05AFF4F1F
:101D800020813181FC01E05AFF4F31832083FB0128
:101D9000EE59FF4F20813181FC01EE59FF4F318315
:101DA0002083FB01EC59FF4F20813181FC01EC596C
:101DB000FF4F318320833296DB01AA59BF4F2D910B
:101DC0003C9131832083FB01E859FF4F2081318111
:101DD000FC01E859FF4F31832083FB01E659FF4F97
:101DE00020813181FC01E659FF4F31832083FB01C3
:101DF000E459FF4F2081FC01E459FF4F20836359D0
:101E00007F4FFB012081318183599F4FFC0131833A
:101E10002083CF911F910F910895FC01DB01129651
:101E20008D919C911397938382838FE89AE091839D
:101E3000808314968C911497848315968C911597B2
:101E4000858316968C911697868317968C91179793
:101E5000878318968C911897808719968C9119977B
:101E600081871A968C911A9782871B968C9183870B
:101E70000895089590E080E00895CF93DF93FC01EA
:101E800001900020E9F73197AF01481B590BBC01C5
:101E900089EC93E10E943D05EC0142E050E064EBE7
:101EA0007AE089EC93E10E943D058C0F9D1FDF9144
:101EB000CF9108954DE050E007960C94EE370F93C4
:101EC0001F93CF938C01C62F0E9464076C2F646010
:101ED000C8010E9464076C2F6B7FC8010E946407D1
:101EE00083EC90E00197F1F7CF911F910F91089546
:101EF0000F931F93CF93DF938C01D62FC42F607F56
:101F0000642B0E945F0F80E1D89FB00111246C2BDD
:101F1000C801DF91CF911F910F910C945F0F41E0A9
:101F20000E94780F81E090E00895EF92FF920F9366
:101F30001F93CF93DF938C017B01D0E0C0E0F701CA
:101F4000EC0FFD1F6491662331F041E0C8010E944F
:101F5000780F2196F4CFCE01DF91CF911F910F9191
:101F6000FF90EF900895CF93DF9300D000D01F92A1
:101F70001F92CDB7DEB728E0E6EFF9E0DE0111965B
:101F800001900D922A95E1F7FC012085241710F4A9
:101F90004FEF420F50E0440F551F21E030E02C0F6F
:101FA0003D1F420F531FFA012081620F606840E01D
:101FB00028960FB6F894DEBF0FBECDBFDF91CF914C
:101FC0000C94780FCF93DF93EC0140E06CE00E941B
:101FD000B30F68ED71E0CE01DF91CF910C94950FB6
:101FE00040E061E00E94780F8BE39FE10197F1F7F9
:101FF00008950F931F93CF93DF93CDB7DEB72C9740
:102000000FB6F894DEBF0FBECDBF8C010E94F00F5B
:10201000B801CE0101960E940D0FCE0101960E94DB
:10202000E20F41E060E0C8010E94B30F61E672E098
:10203000C8010E94950F42E060E0C8010E94B30F02
:102040006DE472E0C8010E94950F43E060E0C801B2
:102050000E94B30F68E372E0C8010E94950F2C96AE
:102060000FB6F894DEBF0FBECDBFDF91CF911F91A9
:102070000F9108950E94C937FC01808191810097DA
:1020800011F00C945F360895EF92FF920F931F9317
:10209000CF93DF93EC017B018A01888199810097BE
:1020A00029F02A813B812417350788F4B8016F5F36
:1020B0007F4F0E94E836009791F0998388831B83B5
:1020C0000A832C813D81232B11F4FC0110821D8396
:1020D0000C83B701888199810E94D7370CC0888111
:1020E0009981009711F00E945F36198218821D8233
:1020F0001C821B821A82CE01DF91CF911F910F911A
:10210000FF90EF900895EF92FF920F931F93CF935C
:10211000DF9300D000D000D0CDB7DEB78C01862F82
:10212000F8011182108213821282158214824AE011
:102130009E012F5F3F4F7901B90190E00E94E43288
:10214000F70101900020E9F73197AF014E195F09BF
:10215000B701C8010E94441029960FB6F894DEBF5B
:102160000FBECDBFDF91CF911F910F91FF90EF90E8
:102170000895CF93DF931F921F92CDB7DEB7FC0176
:1021800011821082138212821582148269831A824C
:10219000BE016F5F7F4FFB0101900020E9F731978F
:1021A000AF01461B570B0E9444100F900F90DF9118
:1021B000CF9108950F931F93CF93DF9300D000D05A
:1021C000CDB7DEB78C016A30C8F4CE0101960E940B
:1021D0008310BE016F5F7F4FC8010E946A05CE0168
:1021E00001960E943C1026960FB6F894DEBF0FBEF3
:1021F000CDBFDF91CF911F910F9108956A50653047
:1022000050F4E62FF0E0E05CF54F6081CE010196DE
:102210000E94B910DECF66E4F9CF4F925F926F92C1
:102220007F929F92AF92BF92CF92DF92EF92FF92F6
:102230000F931F93CF93DF93CDB7DEB72C970FB6D5
:10224000F894DEBF0FBECDBF5C016B01F42E122FE0
:10225000DB011A968C911A9751969C915197E82F11
:10226000E91BFF0B1E171F0699F094F0891B089FAE
:10227000800D112494E1981B892F14969C9114973A
:1022800091FF04C0869552968C9302C092FDFBCFBD
:10229000F60167856117D8F480898017C0F44389F7
:1022A0009685490F069F600D11249289890F680F4A
:1022B000C5010E94B30FEE2009F441C062E372E051
:1022C000C5010E94950FF60180898F5F808BD60132
:1022D00050968C915097801708F47FC050961C92AE
:1022E00050971F969C901F97E110B8C0602F043044
:1022F00008F063E0C6010B96F60126812F3F99F1A5
:10230000FF24FA94F60EFC01412C512C32014FEFC0
:10231000F41669F1219130E050E040E0A0E061E086
:1023200070E080E090E0FA1609F46DC0B4E0660F4A
:10233000771F881F991FBA95D1F7AF5FF4CFD601E9
:102340005096EC91E33020F4EC0DFD2DF11DF38659
:10235000B501CE0101960E940D0F6F2DCE010196A1
:102360000E94DA10B0CF0E94DD082B013C01D6019B
:1023700019968C9190E0B0E0A0E084159505A60533
:10238000B70508F44DC0F601808590E0B0E0A0E00C
:10239000481659066A067B0608F442C0939497864D
:1023A000E189EF5FD6015196EC93519754968D9148
:1023B0009C915597009779F11A962C912E1758F108
:1023C000E80FF92FF11D31974082F60187858117BB
:1023D00020F0178686858F5F86872C960FB6F89437
:1023E000DEBF0FBECDBFDF91CF911F910F91FF9048
:1023F000EF90DF90CF90BF90AF909F907F906F90C5
:102400005F904F9008950E945A35460E571E681EE1
:10241000791EFA947CCF87EB9AE00E943D0FD5CFCE
:10242000F12CE12C602E712C0F5FF6018785E614EC
:10243000F70458F643899685490F6289089F600D15
:1024400011246E0DC5010E94B30F60E372E0C50157
:102450000E94950FFFEFEF1AFF0AE7CF93941F96A4
:102460009C921F9751968C9151978F5F51968C93A8
:10247000ACCF8F929F92AF92BF92CF92DF92EF92AA
:10248000FF920F931F93CF93DF93CDB7DEB7CF5655
:10249000D1090FB6F894DEBF0FBECDBF6C015A0153
:1024A000922EF02ECE0101960E94700ECE01019662
:1024B0000E942409882E8FEF88122BC00091BB0345
:1024C000609124100F3F29F110E0F501E60FF11D96
:1024D000D801AC5CB54F8C9182836F0D4E2DC60137
:1024E0000E94B30FF801E85DF54F6081CE010196BF
:1024F0000E94B910BE016F5F7F4FC6010E946A053E
:10250000CE0101960E943C10809124108F5F809331
:1025100024108092BB03809124108330A0F063E0EC
:10252000C50102960E94DD08092D10E030E020E090
:102530000617170728073907D0F0F501618381E0F6
:10254000808310922410C159DF4F0FB6F894DEBF7C
:102550000FBECDBFDF91CF911F910F91FF90EF90F4
:10256000DF90CF90BF90AF909F908F9008954E2DA9
:102570006F2DC6010E94B30F64E372E0C6010E9492
:10258000950FDFCFCF92DF92EF920F931F93CF93F0
:10259000DF93CDB7DEB7CB57D1090FB6F894DEBFC6
:1025A0000FBECDBF6C01FA01102F8E2D42E0E42E3C
:1025B000811102C093E0E92E90913410911125C051
:1025C000CE0101960E94700EB601CE0180599F4F38
:1025D0000E940D0F03E02FEF44E350E1BE016F5F57
:1025E0007F4FCE0180599F4F0E943912C558DF4F4F
:1025F0000FB6F894DEBF0FBECDBFDF91CF911F9114
:102600000F91EF90DF90CF90089590912F1091113E
:102610000FC0CE0101960E94700EB601CE01805906
:102620009F4F0E940D0F0AE02FEF4FE250E1D6CFEF
:1026300090912A1091110FC0CE0101960E94700E48
:10264000B601CE0180599F4F0E940D0F01E12FEF7F
:102650004AE250E1C3CF90912510911113C0882315
:1026600089F0CE0101960E94700EB601CE0180590C
:102670009F4F0E940D0F83E0E82E00E1212F45E2DD
:1026800050E1ACCF91E0938390913510908390917D
:102690003010918390912B109283882321F08091A8
:1026A0002610F90180831092341010922F1010928E
:1026B0002A10109225109ACFFC01118210821382E9
:1026C0001282158214826115710551F0FB0101908F
:1026D0000020E9F73197AF01461B570B0C944410CB
:1026E00008951F93CF93DF93CDB7DEB768970FB6EA
:1026F000F894DEBF0FBECDBF162FBC01CE010D96E4
:102700000E940D0FCE010D960E94F00F40E060E098
:10271000CE010D960E94B30F62EF77E0CE010196D5
:102720000E945C13BE016F5F7F4FCE010D960E9429
:102730006A05CE0101960E943C10BE01635F7F4F87
:10274000CE0101960E940D0FCE0101960E94E20F6C
:1027500041E060E0CE010D960E94B30F6FEF77E08D
:10276000CE0101960E945C13BE016F5F7F4FCE01C8
:102770000D960E946A05CE0101960E943C1011231D
:1027800011F142E060E0CE010D960E94B30F6CE1C2
:1027900074E0CE010D960E94950F43E060E0CE01FB
:1027A0000D960E94B30F68E074E0CE010D960E9472
:1027B000950F68960FB6F894DEBF0FBECDBFDF91C0
:1027C000CF911F91089543E060E0CE010D960E94E5
:1027D000B30F63EF73E0E9CF0F931F93CF93DF93B2
:1027E000CDB7DEB72C970FB6F894DEBF0FBECDBFC6
:1027F0008C010E94F00F40E060E0C8010E94B30F1E
:1028000067EC7AE0CE0101960E945C13BE016F5F17
:102810007F4FC8010E946A05CE0101960E943C10BC
:10282000B801CE0101960E940D0FCE0101960E94C3
:10283000E20F42E060E0C8010E94B30F60EE73E077
:10284000C8010E94950F2C960FB6F894DEBF0FBEFC
:10285000CDBFDF91CF911F910F9108952F923F929D
:102860004F925F926F927F928F929F92AF92BF92A0
:10287000CF92DF92EF92FF920F931F93CF93DF934C
:10288000CDB7DEB7CC5FD1090FB6F894DEBF0FBE6F
:10289000CDBF5C016A01CE0180599F4F0E94700E2E
:1028A000B501CE0185519F4F0E940D0FD60116969E
:1028B0009C91169719968C919F3F39F48A3038F085
:1028C00013E0843628F412E003C08031E0F711E011
:1028D000612F70E06F5F7F4F84E190E00E946A3566
:1028E0004B01F601818131E043E0882311F032E0B1
:1028F00042E0D6011A968C91880D992D911D019771
:10290000B4010E946A35C650DF4F6883CA5FD04069
:10291000461708F487C2C750DF4F8882C95FD0408E
:10292000882D189D800D112424E1281B461B632F40
:10293000C6010E94BF0ABE0160597F4FFE01319659
:102940005F01CF010E94700EC5010E942409C5508D
:10295000DF4F8883CB5FD0408F3F09F04BC2E091BF
:10296000BA03EF3F09F446C280912310D6011696B0
:102970009C911697E91379C0113009F074C019962B
:102980009C919A3008F46FC081116DC0BE016551F1
:102990007F4FCE0181529F4F0E940D0FCE01815279
:1029A0009F4F0E94F00F40E060E0CE0181529F4FA8
:1029B0000E94B30FB6016A5E7F4FC5010E945C138F
:1029C000B501CE0181529F4F0E946A05C5010E9448
:1029D0003C10BE0161527F4FC5010E940D0FC50121
:1029E0000E94E20F41E060E0CE0181529F4F0E94C1
:1029F000B30F62ED7AE0C5010E945C13B501CE0110
:102A000081529F4F0E946A05C5010E943C1042E01E
:102A100060E0CE0181529F4F0E94B30F66EE7AE0D4
:102A2000C5010E945C13B501CE0181529F4F0E94E7
:102A30006A05C5010E943C1043E060E0CE0181526E
:102A40009F4F0E94B30F6BEF7AE0C5010E945C13A9
:102A5000B501CE0181529F4F0E946A05C5010E94B7
:102A60003C1010932310F12C0BC1882309F45BC197
:102A7000F0E0EC5CF54F2081F60181858950990BDF
:102A80002817190684F78AE0F82EF20E0488F589D3
:102A9000E02D3097A9F051968C91AF01D50190E0CF
:102AA0009D012A193B092817390770F4FA01219171
:102AB000AF012D939F0121503109F9011082F0CF10
:102AC00080E19BE00E943D0FD6011E962D903D9027
:102AD0004D905C9051975196BC91C450DF4FB88394
:102AE000CC5FD040F60116861786108A118ACE0177
:102AF00085519F4F0E94F00F40E060E0CE0185516C
:102B00009F4F0E94B30FB6016A5E7F4FCE01815284
:102B10009F4F0E945C13BE0161527F4FCE018551D1
:102B20009F4F0E946A05CE0181529F4F0E943C1028
:102B3000BE0165517F4FCE0181529F4F0E940D0F04
:102B4000CE0181529F4F0E94E20FD60111968C91C7
:102B50008823E1F041E060E0CE0185519F4F0E9463
:102B6000B30FB6016D5D7F4FCE0181529F4F0E9422
:102B70005C13BE0161527F4FCE0185519F4F0E9471
:102B80006A05CE0181529F4F0E943C10C950DF4F11
:102B9000B982A882C75FD040C450DF4FB881CC5FF4
:102BA000D0406B2E712CC950DF4F88819981C75F4F
:102BB000D0408A199B098615970520F5C950DF4F2B
:102BC000E881F981C75FD0407190C950DF4FF98328
:102BD000E883C75FD040BE0165517F4FCE0181526F
:102BE0009F4F0E940D0FE12C012FC750DF4F28810E
:102BF000C95FD040472DB601CE0181529F4F0E9440
:102C00000D11CACFD6011A968C9186151704E1F0E2
:102C1000D8F0BE0165517F4FCE0181529F4F0E9477
:102C20000D0FEE24E394012FC750DF4F2881C95FB9
:102C3000D04040E0B601CE0181529F4F0E940D115D
:102C4000BFEF6B1A7B0ADECFF60126863786408AF5
:102C5000518A81890488F589E02D309759F0D50192
:102C600090E09D012A193B092817390738F42D9166
:102C70002193F7CF8CE29BE00E943D0F109223102E
:102C800081E0F60121899285291708F080E0D601BC
:102C900013962C91139731E02327822390912310D0
:102CA0009327892309F4A6C01E968C91C650DF4F46
:102CB000B881CA5FD0408B1708F09CC0BE01655137
:102CC0007F4FCE0181529F4F0E940D0FE12C012FAB
:102CD000282D4F2DB601CE0181529F4F0E940D111C
:102CE000F6018281882309F485C0113009F082C081
:102CF0000488F589E02D309731F1D60151968C91F9
:102D0000AF01D50190E09D012A193B092817390729
:102D1000F0F4FA012191AF012D939F012150310967
:102D2000F9011082F0CF17968C9117978F3F31F0F1
:102D3000E81304C081E013968C9395CEF0E0EC5C30
:102D4000F54FF0809DCF80E19BE00E943D0FD601C2
:102D50001E962D903D904D905C90519751966C90A1
:102D6000712CF60191898285981748F54501D601A5
:102D700051969C9151971A968C9194012A193B096E
:102D80002615370570F7981760F7F40111914F0178
:102D9000BE0165517F4FCE0181529F4F0E940D0FA2
:102DA000E12C01E0C750DF4F2881C95FD040412F9F
:102DB000B601CE0181529F4F0E940D11D8CFD6018E
:102DC00026863786408A518A0488F589E02D309717
:102DD00069F051968C91D50190E09D012A193B092B
:102DE0002817390738F42D912193F7CF8CE29BE017
:102DF0000E943D0FC550DF4FB881CB5FD040B093EC
:102E0000BA03F60191898285981718F48381882383
:102E100049F081E0D60113968C93F6011686178649
:102E2000108A118AC450DF4F0FB6F894DEBF0FBE70
:102E3000CDBFDF91CF911F910F91FF90EF90DF9069
:102E4000CF90BF90AF909F908F907F906F905F904A
:102E50004F903F902F900895BF92CF92DF92EF92C4
:102E6000FF920F931F93CF93DF93CDB7DEB7C2507E
:102E7000D1400FB6F894DEBF0FBECDBF8C016A0102
:102E8000CE0180599F4F0E94700EB801CE0189502B
:102E90009F4F0E940D0FCE0189509F4F0E94F00F4F
:102EA00040E060E0CE0189509F4F0E94B30FB60111
:102EB0006A5E7F4FCE0101960E945C13BE016F5F78
:102EC0007F4FCE0189509F4F0E946A05CE01019627
:102ED0000E943C10BE0169507F4FCE0101960E94B6
:102EE0000D0FCE0101960E94E20FD60111968C9132
:102EF0008823D1F041E060E0CE0189509F4F0E94CD
:102F0000B30FB6016D5D7F4FCE0101960E945C1339
:102F1000BE016F5F7F4FCE0189509F4F0E946A05AF
:102F2000CE0101960E943C10BE0160597F4FCE0138
:102F300001960E94700EBE0169507F4FCE018551EF
:102F40009F4F0E940D0FF601968181859F3F39F4B6
:102F50008A3038F013E0843628F412E003C0803160
:102F6000E0F711E0612F70E06F5F7F4F84E190E048
:102F70000E946A359B01D60111968C91E2E042E0F5
:102F8000811102C0E1E043E0D6011A968C91820FD4
:102F9000932F911D0197B9010E946A35F62E4617AD
:102FA00078F1B22E129F200D112484E1821B282F6C
:102FB000461B6E2FC6010E94BF0AF60186858F153B
:102FC000C0F4918982859817A0F4BE0165517F4FA6
:102FD000CE0181529F4F0E940D0FEE24E394012FEA
:102FE0002B2D40E0B601CE0181529F4F0E940D1162
:102FF000E4CFD6011E961D921D921D921C925197F0
:10300000CE5FDE4F0FB6F894DEBF0FBECDBFDF91AF
:10301000CF911F910F91FF90EF90DF90CF90BF90D5
:103020000895AF92BF92CF92DF92EF92FF920F93EB
:103030001F93CF93DF93CDB7DEB7C359D1090FB636
:10304000F894DEBF0FBECDBF6C015B018A01DA01CF
:103050008C91882309F46EC04DE050E06AE57BE076
:10306000C80146960E94EE3785E0EEEFF9E0DE01FA
:10307000A059BF4F01900D928A95E1F780E1E0E7FA
:10308000F0E0EC0FFD1F3596DF011D928A95E9F700
:103090004AE0BE016F567F4F83E090E00E94D93234
:1030A00065E170E0CE0180599F4F0E94CE3224E14D
:1030B000E22EF12CA701481B590BBE016F567F4F22
:1030C000CE0180599F4F0E94DE3765E170E0CE014E
:1030D00080599F4F0E94CE32A701481B590B64E6CE
:1030E0007BE0CE0180599F4F0E94DE3745E150E0E2
:1030F000BE0160597F4FC80183960E94EE3785EC70
:1031000093E1F801958B848BB501CE0101960E9465
:10311000700EB601CE018B579F4F0E940D0FA80174
:10312000BE016F5F7F4FCE018B579F4F0E942C17C0
:10313000D8011C92B501CE0101960E94700EB60115
:10314000CE0180599F4F0E940D0FA801BE016F5FF5
:103150007F4FCE0180599F4F0E942E14CD56DF4FD6
:103160000FB6F894DEBF0FBECDBFDF91CF911F9198
:103170000F91FF90EF90DF90CF90BF90AF900895A8
:103180008F929F92AF92BF92CF92DF92EF92FF9277
:103190000F931F93CF93DF93CDB7DEB7CE50D140BF
:1031A0000FB6F894DEBF0FBECDBF7C016B014901A5
:1031B0005A01043048F40230C0F4013049F08FE67F
:1031C0009BE00E943D0F04C00830B0F00930B9F711
:1031D0008091C3139091C4138130910581F00297BF
:1031E00009F432C18BEC9BE022C081E090E0909327
:1031F000C4138093C313ECCF82E090E0F8CFB60104
:10320000CE0180599F4F0E94700EB701CE01939559
:103210000E940D0F809138119091391181309105E4
:1032200061F140F0029709F4C8C08EE89BE00E946B
:103230003D0F0FC01092BB0981E08093B809109236
:10324000C61310923411109235111092361110924B
:103250003711C25FDE4F0FB6F894DEBF0FBECDBF91
:10326000DF91CF911F910F91FF90EF90DF90CF9062
:10327000BF90AF909F908F9008958091B809882358
:1032800009F477C04DE050E060E87BE08EEC99E017
:103290000E94EE378FE0E3E1FAE0DE01A152BF4F7A
:1032A00001900D928A95E1F786E0EFEDF0E0EC0FEA
:1032B000FD1F3F96DF011D928A95E9F78091C513A6
:1032C0004AE0BE01645F7E4F90E00E94D93265E122
:1032D00070E0CE0181529F4F0E94CE3204E110E097
:1032E000A801481B590BBE01645F7E4FCE0181527D
:1032F0009F4F0E94DE3765E170E0CE0181529F4F03
:103300000E94CE32A801481B590B68E87BE0CE0131
:1033100081529F4F0E94DE3745E150E0BE0161526D
:103320007F4F8BED99E00E94EE3780EC93E1909314
:10333000CD098093CC098091C5138093C209BE0149
:1033400060597F4FCE0101960E94700EBE017395A9
:10335000CE018C509F4F0E940D0F48EB59E0BE01EB
:103360006F5F7F4FCE018C509F4F0E942C171092A1
:10337000B809BE0160597F4FCE0101960E94700EC0
:10338000BE017395CE0181529F4F0E940D0F48EBF5
:1033900059E0BE016F5F7F4FCE0181529F4F0E9467
:1033A0002E148091BB09882309F453CF82E090E06A
:1033B00090933911809338114CCF0091C613C501F9
:1033C000B4010E9413336B017C01E02FF0E0E05464
:1033D000FC4E608170E090E080E00E94133320E0BA
:1033E00030E048EC52E40E9474339B01AC01C70109
:1033F000B6010E94B93420913411309135114091B9
:103400003611509137110E944D346B017C0120E040
:1034100030E040E85FE30E940E33882349F0C09219
:103420003411D0923511E0923611F092371111CF4C
:1034300010923411109235111092361110923711EA
:103440000F5F0093C61305CFB601CE0101960E940F
:10345000700EB701CE0180599F4F0E940D0FF9CE1B
:103460009F92AF92BF92CF92DF92EF92FF920F9313
:103470001F93CF93DF93CDB7DEB7A5970FB6F89420
:10348000DEBF0FBECDBF8C017B01BC01CE014496D7
:103490000E940D0FCE0144960E94F00F40E060E0C4
:1034A000CE0144960E94B30FB701695F7F4FCE01F2
:1034B00001960E945C13BE016F5F7F4FCE01449660
:1034C0000E946A05CE0101960E943C10BE016C5E0E
:1034D0007F4FCE0101960E940D0FCE0101960E94F2
:1034E000E20FF701268181E0233008F480E0F70144
:1034F0009181892391E0243008F490E0892BF70131
:1035000082838823C1F042E062E1CE0144960E94AA
:10351000B30F67E272E0CE0144960E94950F43E03C
:1035200062E1CE0144960E94B30F64E272E0CE01E4
:1035300044960E94950FB801CE0144960E940D0F4B
:1035400001E010E083E1982E5701F4E1AF0EB11CC9
:10355000F70184819801280F311D96819217130677
:1035600008F458C0C02ED82ED00E402F60E0CE01F7
:1035700044960E94B30F6D2DCE0180960E94831059
:10358000BE01605E7F4FCE0144960E946A05CE0167
:1035900080960E943C10402F61E0CE0144960E942C
:1035A000B30F6EE272E0CE0144960E94950FF701D0
:1035B000828140E1811101C043E150E02D2D215075
:1035C000330B929EB001939E700D11246A0D7B1DEA
:1035D000CE0101960E94EE374C2D62E0CE0144965A
:1035E0000E94B30FBE016F5F7F4FCE0180960E9495
:1035F0005C13BE01605E7F4FCE0144960E946A0557
:10360000CE0180960E943C100F5F1F4F04301105C1
:1036100009F09ECFF701858190E00196348121E089
:103620003817190609F020E081E00430110508F090
:1036300080E0282B99F1F7018181882379F1402FCF
:1036400060E0CE0144960E94B30F6CE272E0CE01BE
:1036500044960E94950F402F61E0CE0144960E944F
:10366000B30F6AE272E0CE0144960E94950F402F9C
:1036700062E0CE0144960E94B30F6FED7BE0CE0175
:1036800080960E945C13BE01605E7F4FCE0144961F
:103690000E946A05CE0180960E943C10A5960FB646
:1036A000F894DEBF0FBECDBFDF91CF911F910F9178
:1036B000FF90EF90DF90CF90BF90AF909F900895D4
:1036C000DF92EF92FF920F931F93CF93DF93CDB7CB
:1036D000DEB7CF56D1090FB6F894DEBF0FBECDBF0F
:1036E0007C018A01CE0101960E94700ECE010196E6
:1036F0000E942409D82E8FEFD8120AC08091BC03F3
:103700008F3F31F0F8015681851798F48F5F8383DE
:10371000D092BC03C159DF4F0FB6F894DEBF0FBE85
:10372000CDBFDF91CF911F910F91FF90EF90DF9070
:1037300008953181332311F08A3049F3893069F0DB
:103740008B3091F0B701CE0101960E940D0FB801A8
:10375000CE0101960E94301ADBCFF80184818823C4
:1037600089F381508483EECFF8012581948181E033
:10377000291708F480E041E0533008F440E0842346
:10378000832311F49217F0F69F5FF8019483DACF48
:103790000F931F93CF93DF93CDB7DEB72C970FB660
:1037A000F894DEBF0FBECDBF8B01BC01CE010196E8
:1037B0000E940D0FB801CE0101960E94301A2C967E
:1037C0000FB6F894DEBF0FBECDBFDF91CF911F9132
:1037D0000F910895EF92FF920F931F93CF93DF9372
:1037E000CDB7DEB7CB57D1090FB6F894DEBF0FBE09
:1037F000CDBF8C017B018091E608882309F453C07A
:103800006FEE7BE086EE98E00E945A0F43E150E0B5
:103810006BEF7BE08AEF98E00E94EE3743E150E0E7
:1038200063E07CE08DE099E00E94EE3743E150E0F8
:103830006DE07CE080E299E00E94EE3743E150E0E9
:103840006BE17CE083E399E00E94EE3743E150E0D6
:1038500067E27CE086E499E00E94EE3743E150E0C5
:1038600061E37CE089E599E00E94EE3743E150E0B6
:1038700061E47CE08CE699E00E94EE3743E150E0A1
:103880006FE47CE082E999E00E94EE37B801CE0156
:1038900001960E940D0F66EE78E0CE0101960E941F
:1038A000C81B1092E608B701CE0101960E94700E67
:1038B000B801CE0180599F4F0E940D0F46EE58E08F
:1038C000BE016F5F7F4FCE0180599F4F0E94601BEA
:1038D000C558DF4F0FB6F894DEBF0FBECDBFDF91E6
:1038E000CF911F910F91FF90EF900895EF92FF926B
:1038F0000F931F93CF93DF93CDB7DEB7CB57D1098B
:103900000FB6F894DEBF0FBECDBF8C017B01809156
:103910001408882399F166E57CE084E198E00E9430
:103920005A0F43E150E06DE57CE088E298E00E94A8
:10393000EE3743E150E067E67CE08BE398E00E94DD
:10394000EE3743E150E061E77CE08EE498E00E94CE
:10395000EE3743E150E06FE77CE081E698E00E94BB
:10396000EE37B801CE0101960E940D0F64E178E0B8
:10397000CE0101960E94C81B10921408B701CE0117
:1039800001960E94700EB801CE0180599F4F0E948F
:103990000D0F44E158E0BE016F5F7F4FCE018059AB
:1039A0009F4F0E94601BC558DF4F0FB6F894DEBFD3
:1039B0000FBECDBFDF91CF911F910F91FF90EF9080
:1039C00008952F923F924F925F926F927F928F92C3
:1039D0009F92AF92BF92CF92DF92EF92FF920F939E
:1039E0001F93CF93DF93CDB7DEB7C851D1400FB649
:1039F000F894DEBF0FBECDBF8C016B01F42E209179
:103A00003C1130913D11590144E0A41AB108E091F4
:103A10002611F0912711E830F10510F00C94532590
:103A20008827EA5EF24E8F4F0C94A0351E1D981D1C
:103A3000EE1D731F9E20DB2026212F2180ED97E0B5
:103A4000A0E0B0E08093E9079093EA07A093EB072A
:103A5000B093EC0788EE97E00E94630E11E010939C
:103A600016071093DE061093A60610936E061093A9
:103A70006D061092E1061092A906109271068FEF62
:103A80008093190710922211109223111092241181
:103A9000109225110E944D0254E0F51609F445C01C
:103AA0005F1558F082E0F81659F193E0F91671F1BC
:103AB0008BE89CE00E943D0F09C0A6E081E090E009
:103AC000AF15B0F39093271180932611C85EDE4F97
:103AD0000FB6F894DEBF0FBECDBFDF91CF911F911F
:103AE0000F91FF90EF90DF90CF90BF90AF909F909D
:103AF0008F907F906F905F904F903F902F900895A0
:103B00001093231182E3809322110CC082E08093F2
:103B1000231189E18093221180913C1190913D11F4
:103B2000059781F386E090E0CDCF83E090E0CACFA7
:103B3000809116078823A9F168E97CE086E197E087
:103B40000E945A0F83E1E0EAFCE0B3E0AB16B10457
:103B500010F0E3EBFCE0DE01119601900D928A95E6
:103B6000E1F743E150E0BE016F5F7F4F8AE297E0EB
:103B70000E94EE3743E150E066EC7CE08DE397E095
:103B80000E94EE37B801CE0180599F4F0E940D0F61
:103B900066E177E0CE0180599F4F0E94C81B1092CA
:103BA0001607B601CE0101960E94700EB801CE0133
:103BB00080599F4F0E940D0F46E157E0BE016F5F95
:103BC0007F4FCE0180599F4F0E94601B8091190743
:103BD0008F3F09F47BCF82E090E074CF8091DE06C6
:103BE0008823F1F0809119078130E1F1823009F4E6
:103BF000C9C0B601CE0101960E94700EB801CE0177
:103C000084519F4F0E940D0F4EED56E0BE016F5F35
:103C10007F4FCE0184519F4F0E942C171092DE06D9
:103C2000B601CE0101960E94700EB801CE018059F6
:103C30009F4F0E940D0F4EED56E0BE016F5F7F4F0C
:103C4000CE0180599F4F0E942E1480911907813018
:103C500009F403C1823009F42BC18EE49DE00E9477
:103C60003D0F12C12230310589F048F42130310571
:103C700009F465C089EF9CE00E943D0F19C0243013
:103C8000310509F45CC025303105A1F74DE050E065
:103C900065ED7CE0CE0181529F4F0E94EE3745E1F9
:103CA00050E06BED7CE0CE0180599F4F0E94EE37D3
:103CB0006DE070E0CE0181529F4F0E94CE324CE009
:103CC00050E0481B590BE3E0AE16B10408F045C0C4
:103CD00063E27EE0CE0181529F4F0E94DE3765E1B4
:103CE00070E0CE0180599F4F0E94CE3244E150E0F7
:103CF000481B590B64E27DE0CE0180599F4F0E9422
:103D0000DE371092E6068EE18093E7064DE050E044
:103D1000BE0161527F4F84EF96E00E94EE3745E18D
:103D200050E0BE0160597F4F81E097E00E94EE377E
:103D300083E291E19093F3068093F2065ACF4DE02F
:103D400050E066EE7CE0CE0181529F4F0E94EE373C
:103D500045E150E06DEE7CE0A6CF6BE27DE0CE0168
:103D600081529F4F0E94DE3765E170E0CE0180599D
:103D70009F4F0E94CE3244E150E0481B590B61E353
:103D80007DE0BACF4DE050E068E37DE084EF96E05F
:103D90000E94EE374AE0BE016C5F7E4F81E090E00A
:103DA0000E94D9324AE0BE0168507F4F82E390E022
:103DB0000E94D93245E150E060E47DE0CE018059B7
:103DC0009F4F0E94EE3765E170E0CE0180599F4F12
:103DD0000E94CE32A4E1EA2EF12CA701481B590B18
:103DE000BE016C5F7E4FCE0180599F4F0E94DE372F
:103DF00065E170E0CE0180599F4F0E94CE32A7014D
:103E0000481B590B66E47DE0CE0180599F4F0E940C
:103E1000DE3765E170E0CE0180599F4F0E94CE32BF
:103E2000A701481B590BBE0168507F4FCE01805936
:103E30009F4F0E94DE3745E150E0BE0160597F4F41
:103E400081E097E00E94EE3781E08093E60682E30E
:103E50008093E70682E291E16DCF2091231130E05B
:103E600050E040E0F3E0AF16B10430F42150330BE2
:103E7000032E000C440B550B62E370E080E090E0F1
:103E80000E947E35209322118091E106882309F457
:103E90001DCE80913C1190913D118230910509F425
:103EA00041CED0F4019709F440CE8BE69DE002CEDE
:103EB0002091221130E050E040E062E370E080E0C9
:103EC00090E00E947E3503E0A016B10418F0209324
:103ED0002311DACF2F5FFBCF8430910509F425CE73
:103EE000059719F71FCE8091A606882309F4DFC035
:103EF00085E0EEEFF9E0DE01A059BF4F01900D9291
:103F00008A95E1F780E1E0E7F0E0EC0FFD1F3596E0
:103F1000DF011D928A95E9F72330310579F040F4ED
:103F20002130310549F185EE9DE00E943D0F21C011
:103F30002430310509F126303105A9F74DE050E074
:103F400065EA7DE0CE0181529F4F0E94EE3765E128
:103F500070E0CE0180599F4F0E94CE3244E150E084
:103F6000481B590B6DEA7DE0CE0180599F4F0E949E
:103F7000DE37EFE0FE2E41C080912311803108F042
:103F80008FE04AE0BE0168507F4F90E00E94D93236
:103F90004DE050E066EB7DE0CE0181529F4F0E94E4
:103FA000EE3765E170E0CE0180599F4F0E94CE321E
:103FB000F4E1EF2EF12CA701481B590BBE0168500C
:103FC0007F4FCE0180599F4F0E94DE3765E170E040
:103FD000CE0180599F4F0E94CE32A701481B590B3A
:103FE00067EB7DE0CE0180599F4F0E94DE37F09055
:103FF0002311BFE0BF1508F4BCCF6DE070E0CE0127
:1040000081529F4F0E94CE324CE050E0481B590B2A
:10401000E3E0AE16B10408F072C06DEB7DE0CE01B6
:1040200081529F4F0E94DE3765E170E0CE018059DA
:104030009F4F0E94CE3244E150E0481B590B64E28E
:104040007DE0CE0180599F4F0E94DE374DE050E069
:10405000BE0161527F4F8CEB96E00E94EE3745E146
:1040600050E0BE0160597F4F89EC96E00E94EE3728
:10407000F092AF0684E291E19093BB068093BA067A
:10408000B601CE0101960E94700EB801CE01845196
:104090009F4F0E940D0F46EA56E0BE016F5F7F4FB3
:1040A000CE0184519F4F0E942C171092A606B60194
:1040B000CE0101960E94700EB801CE0180599F4F2B
:1040C0000E940D0F46EA56E0BE016F5F7F4FCE01A2
:1040D00080599F4F0E942E148091A906882309F4CD
:1040E000F5CC80913C1190913D118330910509F4FC
:1040F00019CDD0F40197F9F087EC9DE0DBCC62ECB0
:104100007DE0CE0181529F4F0E94DE3765E170E075
:10411000CE0180599F4F0E94CE3244E150E0481BAF
:10412000590B61E37DE08DCF8430910521F0069736
:1041300009F4F8CCE1CF84E090E0C4CC80916D0626
:10414000882379F0B801CE0101960E940D0FCE01AF
:1041500001960E94EC1310926D0688EE97E00E9483
:10416000630E0E941B04AB01BC018091ED0790918E
:10417000EE07A091EF07B091F0070091E9071091C9
:10418000EA072091EB073091EC07800F911FA21FE7
:10419000B31F21E0481759076A077B0708F420E09E
:1041A0002093E807481759076A077B0708F48ECC65
:1041B00085E090E087CC80916E06882369F14DE020
:1041C00050E067EC7AE084E896E00E94EE37809158
:1041D0002411809377068AE791E190938306809378
:1041E00082068091231180937806B601CE01019654
:1041F0000E94700EB801CE0180599F4F0E940D0F92
:104200004EE656E0BE016F5F7F4FCE0180599F4F53
:104210000E942C1710926E06B601CE0101960E94E4
:10422000700EB801CE0180599F4F0E940D0F4EE6CF
:1042300056E0BE016F5F7F4FCE0180599F4F0E94B5
:104240002E148091710681116DCC40CC10922111F9
:104250000E94AE020E94270487E090E033CCCE019A
:1042600080599F4F0E94700EB801CE0188509F4F19
:104270000E940D0F80913C1190913D118C010450D2
:104280001109C55FDE4F19830883CB50D14003303D
:10429000110508F020C430912511332309F41BC403
:1042A0002FEF230FA1E0069709F428C4B4E03B9F49
:1042B000C0011124FC01E25CFE4E1F01F4E02F9FBF
:1042C000900111248901025C1E4EC95FDE4F1983E3
:1042D0000883C750D140A1E02AC410E0B12CA12C22
:1042E000F10193809110E1C08091F107882309F4D6
:1042F0005EC0F3E0FF1609F48CC0FF1550F002E039
:10430000F01611F184E59EE00E943D0F93C011E08C
:10431000E7CF26E02F15B0F3C55FDE4F4881598106
:10432000CB50D1404330510508F0B1C04DE050E0D2
:1043300060E27EE0CE0181529F4F0E94EE3745E160
:1043400050E069E27EE072C04DE050E066EF7DE053
:10435000CE0181529F4F0E94EE3745E150E06DEF54
:104360007DE0CE0101960E94EE374DE050E0BE01A7
:1043700061527F4F82EF97E00E94EE3745E150E0B7
:10438000BE016F5F7F4F8FEF97E00E94EE37BE0157
:1043900068507F4FCE0184519F4F0E940D0F612FB7
:1043A000CE0184519F4F0E9471131092F107BE01FC
:1043B00060597F4FCE0101960E94700EBE01685079
:1043C0007F4FCE0181529F4F0E940D0F82E390E0FC
:1043D0008A199B098F3F910519F010F08FEF90E03B
:1043E000E12E082F22E231E1A101BE016F5F7F4F74
:1043F000CE0181529F4F0E94C212112309F466CB55
:10440000E0912511F0E0E658FE4E80912211808364
:104410005DCB4DE050E06CE07EE0CE0181529F4FDD
:104420000E94EE3745E150E062E17EE0CE01019668
:104430000E94EE378091251190E04AE0BE016C5F4A
:104440007E4F01960E94D93265E170E0CE0101965F
:104450000E94CE3274E1E72EF12CA701481B590BC4
:10446000BE016C5F7E4FCE0101960E94DE3765E192
:1044700070E0CE0101960E94CE32A701481B590B75
:104480006CE87BE0CE0101960E94DE376ECF4DE0F6
:1044900050E06AE37EE0CE0181529F4F0E94EE37EA
:1044A00045E150E063E47EE0C1CF21E02093F107D5
:1044B000E09022112E2D30E060912511E69E7001D2
:1044C0001124E62FF0E0AF014F5F5F4FC55FDE4F75
:1044D00008811981CB50D14003301105C0F4662307
:1044E00009F4EFC28330910569F03197E29FB00182
:1044F000E39F700DF29F700D112467017B018630E0
:104500009105A1F46501C20ED31E75010FC0429F33
:104510006001439FD00C529FD00C11248330910531
:1045200019F08630910511F46111ECCF60912411DE
:104530006417150681F07CF09C012350310922306C
:10454000310508F4B9C08630910509F4B5C021E001
:104550008130910509F020E0709123117417150640
:1045600049F044F0392D8230910529F031E0853051
:10457000910509F030E0211103C0332309F4B9C0DB
:104580008701000F111F0E0D1F1DF801E65DFC4E87
:10459000AA2309F493C0065D1C4E5701C6018E196B
:1045A0009F099C0150E040E0C55FDE4F28833983BE
:1045B0004A835B83CB50D140AC14BD0408F091C05A
:1045C000B5016E197F0990E080E00E9413332B0142
:1045D0003C01C55FDE4F688179818A819B81CB5028
:1045E000D1400E9413339B01AC01C301B2010E9470
:1045F000B9342B013C01C95FDE4FA881B981C75096
:10460000D14012969C90F10162816919770B072EB7
:10461000000C880B990B0E941533A30192010E9494
:1046200074330E942B35690DC75FDE4F6883C95014
:10463000D140C95FDE4FA881B981C750D1401196E2
:104640008C90F10161816819770B072E000C880BA3
:10465000990B0E941533A30192010E9474330E94AA
:104660002B35860EC95FDE4FA881B981C750D14076
:104670009C90F10160816919770B072E000C880B63
:10468000990B0E941533A30192010E9474330E947A
:104690002B35960ED8019C9211968C921197C75F7C
:1046A000DE4FE881C950D1401296EC93FFEFAF1A6C
:1046B000BF0A0D5F1F4F80CF292D4ECFEC14FD0494
:1046C00080F4D10112968C91129711969C911197BA
:1046D0002C91208391838283BFEFEB1AFB0A3396E0
:1046E000EDCF0E942704809125118F5F80932511C3
:1046F000EDC920913B112111B2C18330910519F010
:10470000069709F0672F5AE3A52E51E1B52E30E048
:1047100020E0062F10E0CD5EDE4F19830883C351E1
:10472000D140CD5EDE4F08811981C351D1402017A1
:10473000310708F084C18091221190E0289F800108
:10474000299F100D389F100D1124A9014F5F5F4F55
:10475000CF5EDE4F59834883C151D1407C01E00ECA
:10476000F11EC55FDE4FA881B981CB50D1401397B0
:1047700030F52115310519F1880F991FF701E81B54
:10478000F90BD92C78018F0180913C1190913D114A
:1047900083309105E9F0A8F481309105A1F10297E9
:1047A00009F40EC186E89EE008C114E0A10EB11C18
:1047B000CF5EDE4F28813981C151D140B2CFD12C9B
:1047C000E3CF8530910509F4FBC0E8F0069751F777
:1047D0001501E4E02E0E311CDD2031F0C95FDE4F03
:1047E000B982A882C750D140EAE7F1E190E080E0C9
:1047F00010E000E02817390709F4EFC04191040FD9
:10480000111D0196F7CFCF5EDE4FE881F981C151CE
:10481000D140E65CFE4E87AD882309F4CCC024E08D
:10482000829FC0011124AC01465C5E4E1A01DD205E
:1048300009F4E1C086AD54E0859FC0011124DC017C
:10484000A65CBE4EC95FDE4FB983A883C750D14076
:10485000C801880F991F800F911F9C01265D3C4E57
:10486000C75FDE4F39832883C950D140C15FDE4F17
:1048700019830883CF50D140C701801B910B9C0145
:1048800050E040E0CB5EDE4F288339834A835B8370
:10489000C551D140C15FDE4F48815981CF50D140D1
:1048A0004E155F0508F081CFBA01601B710B90E0D7
:1048B00080E00E9413332B013C01CB5EDE4F688108
:1048C00079818A819B81C551D1400E9413339B011C
:1048D000AC01C301B2010E94B9342B013C01C95F94
:1048E000DE4FA881B981C750D14012968C90F1015A
:1048F00062816819770B072E000C880B990B0E94B8
:104900001533A30192010E9474330E942B35860E49
:10491000C95FDE4FA881B981C750D1401196DC90A4
:10492000F10161816D19770B072E000C880B990B33
:104930000E941533A30192010E9474330E942B350B
:10494000D60EC95FDE4FA881B981C750D140CC9047
:10495000F10160816C19770B072E000C880B990B05
:104960000E941533A30192010E9474330E942B35DB
:10497000C60EC75FDE4FA881B981C950D140CC9225
:104980001196DC92119712968C921297C15FDE4FAE
:10499000E881F981CF50D1403196C15FDE4FF98374
:1049A000E883CF50D1401396C75FDE4FB983A88309
:1049B000C950D1406FCF8FE69EE00E943D0F19C0D5
:1049C0001501B4E02B0E311CDD20A9F0C95FDE4FCC
:1049D000B982A882C750D1403BCFCF5EDE4FE8817D
:1049E000F981C151D140E65CFE4EE7ACE00EF12EFC
:1049F000F11CD1102DCFC55FDE4F28813981CB50FE
:104A0000D1402330310508F4D0CEF801EE0FFF1F5E
:104A1000E00FF11FE65DFC4E0E151F0508F0C5CE38
:104A2000D10112968C91129711969C9111972C910D
:104A30002083918382830F5F1F4F3396EDCF0E94B7
:104A40002704BE0168507F4FCE0101960E940D0FD2
:104A5000CE0101960E94F90F81E080933B11BE01C7
:104A600060597F4FCE0101960E94700ECE010196D3
:104A70000E9424098F3FA1F4E0916C06EF3F81F082
:104A8000F0E0EC5CF54F9081911103C091E09093C0
:104A90003A1180936C06109227111092261116C8B5
:104AA00080936C0613C884E99EE004C880912511A8
:104AB00014E0819FC00111249C01225C3E4E19012B
:104AC00014C0CC24C394D12CF12CE12C833091055B
:104AD00009F027CD2BCD8330910571F040F401977B
:104AE00028F78EED9DE00E943D0FA0E020C08630AB
:104AF0009105E0F20697A9F720E0A0E0809125114A
:104B000014E0819FC0011124AC01425C5E4E1A0189
:104B1000AA2369F054E0259F900111248901025CC9
:104B20001E4EC95FDE4F19830883C750D140809164
:104B30003C1190913D118330910549F086309105EB
:104B400009F0CBCB20912511222309F4C6CB40914B
:104B5000251150E0EAE7F1E130E020E0B12CA12C92
:104B60002417350708F0D3CB6191A60EB11C2F5F37
:104B70003F4FF6CFEF92FF921F93CF93DF93CDB7C6
:104B8000DEB7CB57D1090FB6F894DEBF0FBECDBF4D
:104B90002FEF240F243020F526E030E0423031F0B2
:104BA00024E030E0443011F025E030E030933D1156
:104BB00020933C11142F7C01CE0101960E94700EAF
:104BC000B701CE0180599F4F0E940D0F42E0410F67
:104BD000BE016F5F7F4FCE0180599F4F0E94E11C45
:104BE000C558DF4F0FB6F894DEBF0FBECDBFDF91C3
:104BF000CF911F91FF90EF9008952F923F924F9287
:104C00005F926F927F928F929F92AF92BF92CF925C
:104C1000DF92EF92FF920F931F93CF93DF93CDB765
:104C2000DEB7C654D1400FB6F894DEBF0FBECDBF7D
:104C30007C01142F473038F4423018F5413039F0F8
:104C400083E29FE09CC04730F1F14930C9F7CA5B6D
:104C5000DE4F0FB6F894DEBF0FBECDBFDF91CF9110
:104C60001F910F91FF90EF90DF90CF90BF90AF908A
:104C70009F908F907F906F905F904F903F902F907C
:104C8000089583E090E0443031F081E090E04630D8
:104C900011F082E090E090933D1180933C11CE01A1
:104CA00001960E94700EB701CE0180599F4F0E945D
:104CB0000D0F412FBE016F5F7F4FCE0180599F4F77
:104CC0000E94E11CC4CF8AE090E090933D11809354
:104CD0003C11CE0180599F4F0E94700EB701CE014A
:104CE00093950E940D0F9E012C5C3E4FC15CDE4FE0
:104CF00039832883CF53D14088E0D901E82F1D9212
:104D0000EA95E9F728503109CF5BDE4F39832883D4
:104D1000C154D140D901E82F1D92EA95E9F7AE01BF
:104D20004C5D5E4FDA01E82F1D92EA95E9F7BE016E
:104D3000645E7E4FDB01E82F1D92EA95E9F7DE0104
:104D4000AC5EBE4FFD01282F11922A95E9F79E0116
:104D5000245F3E4FF90111928A95E9F780911F1166
:104D6000909120118230910509F4C5C058F4009744
:104D700009F464C0019709F474C086E19FE00E94C1
:104D80003D0F65CF8330910509F44CC10497A9F715
:104D900080913B11811158C2C0903F11D12CB12C90
:104DA000A12C1FEFB3E3CB16D10408F03EC275016E
:104DB000EE0CFF1CEA0CFB1CF701E65DFC4E7F01CC
:104DC0004501C6018A199B099C0150E040E0CD5B7A
:104DD000DE4F288339834A835B83C354D1408C14CC
:104DE0009D0408F01CC2B4016A197B0990E080E0C0
:104DF0000E9413332B013C01CD5BDE4F688179812A
:104E00008A819B81C354D1400E9413339B01AC0122
:104E1000C301B2010E94B9342B013C0180913E11C3
:104E2000813009F408C1823009F4B8C18BEF9EE0EB
:104E30000E943D0F412C512C320150C181E08093E2
:104E40009A0580936205109265058FEF80939D050A
:104E50000E944D0281E090E09093201180931F11F9
:104E6000F6CE80919A05882321F16CEC7EE08AE9E8
:104E700095E00E945A0F43E150E068ED7EE08EEA33
:104E800095E00E94EE3743E150E060EE7EE081EC79
:104E900095E00E94EE37BE017395CE0101960E9407
:104EA0000D0F6AE975E0CE0101960E94C81B1092B1
:104EB0009A05BE0160597F4FCE0101960E94700E87
:104EC000BE017395CE0181529F4F0E940D0F4AE99A
:104ED00055E0BE016F5F7F4FCE0181529F4F0E9410
:104EE000601B80919D058F3F09F4B1CE80933E11E8
:104EF00082E090E0B1CF80916205882309F472C00E
:104F00004DE050E068EE7EE088E795E00E94EE37E5
:104F100085E0EEEFF9E0DE01A152BF4F01900D9266
:104F20008A95E1F780E1EFEDF0E0EC0FFD1F35969B
:104F3000DF011D928A95E9F74AE0BE01645C7E4F6D
:104F400082E390E00E94D93265E170E0CE018152A7
:104F50009F4F0E94CE3204E110E0A801481B590B7C
:104F6000BE01645C7E4FCE0181529F4F0E94DE37AE
:104F700065E170E0CE0181529F4F0E94CE32A801C0
:104F8000481B590B64EF7EE0CE0181529F4F0E9477
:104F9000DE3745E150E0BE0161527F4F85E895E084
:104FA0000E94EE378FE391E1909377058093760529
:104FB000BE0160597F4FCE0101960E94700EBE0166
:104FC0007395CE018C509F4F0E940D0F42E655E025
:104FD000BE016F5F7F4FCE018C509F4F0E942C17F8
:104FE00010926205BE0160597F4FCE0101960E946A
:104FF000700EBE017395CE0181529F4F0E940D0F1E
:1050000042E655E0BE016F5F7F4FCE0181529F4F58
:105010000E942E1480916505882309F418CE83E040
:1050200090E01ACF109221110E94AE020E94270434
:1050300084E090E011CF2BEA3AEA4AEA5EE3C3014A
:10504000B2010E940E3387FF1BC0CB5CDE4F18837A
:10505000C553D140C85CDE4F1883C853D14088E0A7
:10506000FE01EC5CFE4FA7E1B1E101900D928A9543
:10507000E1F720E030E040E450E4C301B2012AC08F
:105080002BEA3AEA4AE25FE3C301B2010E940E331F
:1050900087FF6BC0C25DDE4F1883CE52D140CF5C1C
:1050A000DE4F1883C153D14088E0FE01E45DFE4F1E
:1050B000A7E1B1E101900D928A95E1F72BEA3AEA76
:1050C0004AEA5EE3C301B2010E944C3420E030E0C2
:1050D00040E450E40E9474332B013C0100911D1107
:1050E00060911911601B770B072E000C880B990B30
:1050F0000E941533A30192010E9474330E942B3544
:10510000060F30901C11609118116319770B072E50
:10511000000C880B990B0E941533A30192010E9489
:1051200074330E942B35360E20901B11609117119D
:105130006219770B072E000C880B990B0E94153310
:10514000A30192010E9474330E942B35260ED701D1
:105150002C9211963C92119712960C93BFEF8B1ADA
:105160009B0AE3E0EE0EF11C3ACECC5DDE4F1883D5
:10517000C452D140C65DDE4F1883CA52D14088E088
:10518000FE01EC5DFE4FA7E1B1E101900D928A9521
:10519000E1F72BEA3AEA4AE25FE394CF2BEA3AEAF4
:1051A0004AEA5EE3C301B2010E940E3387FF0FC0DB
:1051B000C25EDE4F1883CE51D140C05EDE4F1883F1
:1051C000C052D14088E0FE01E45EFE4F4CCF2BEA96
:1051D0003AEA4AE25FE3C301B2010E940E3387FF5D
:1051E0000FC0CB5EDE4F1883C551D140C65EDE4F87
:1051F0001883CA51D14088E0FE01EC5EFE4F58CFC3
:10520000C45FDE4F1883CC50D140CF5EDE4F188391
:10521000C151D14088E0FE01E45FFE4FB4CF8091E0
:105220003F115601C80ED11CBDCD0E942704BE01FE
:105230007395CE0101960E940D0FCE0101960E943A
:10524000F90F81E080933B11BE0160597F4FCE0181
:1052500001960E94700ECE0101960E9424098F3F94
:1052600089F4E0916105EF3F69F0F0E0EC5CF54F07
:105270009081911103C091E090933A111092201106
:1052800010921F1180936105E2CCEF92FF920F9371
:105290001F93CF93DF93CDB7DEB7CB57D1090FB6AE
:1052A000F894DEBF0FBECDBF8C017B0180918F04CF
:1052B000882399F163E37FE08FE894E00E945A0F1E
:1052C00043E150E06DE37FE083EA94E00E94EE3733
:1052D00043E150E069E47FE086EB94E00E94EE3722
:1052E00043E150E067E57FE089EC94E00E94EE370F
:1052F00043E150E066E67FE08CED94E00E94EE37FB
:10530000B801CE0101960E940D0F6FE874E0CE0146
:1053100001960E94C81B10928F04B701CE0101961E
:105320000E94700EB801CE0180599F4F0E940D0F50
:105330004FE854E0BE016F5F7F4FCE0180599F4F11
:105340000E94601BC558DF4F0FB6F894DEBF0FBE3A
:10535000CDBFDF91CF911F910F91FF90EF900895F6
:10536000EF92FF920F931F93CF93DF93CDB7DEB7EA
:10537000CB57D1090FB6F894DEBF0FBECDBF8C015D
:105380007B018091BD03882309F45BC066E77FE061
:105390008DEB93E00E945A0F43E150E06BEF7BE00E
:1053A00081ED93E00E94EE3743E150E06EE77FE04D
:1053B00084EE93E00E94EE3743E150E06DE37FE03E
:1053C00087EF93E00E94EE3743E150E06AE87FE028
:1053D0008AE094E00E94EE3743E150E067E97FE025
:1053E0008DE194E00E94EE3743E150E066EA7FE011
:1053F00080E394E00E94EE3743E150E066EB7FE00B
:1054000083E494E00E94EE3743E150E06EEB7FE0EE
:1054100086E594E00E94EE3743E150E06FE47CE0E3
:1054200089E694E00E94EE37B801CE0101960E9411
:105430000D0F6DEB73E0CE0101960E94C81B109218
:10544000BD03B701CE0101960E94700EB801CE01D6
:1054500080599F4F0E940D0F4DEB53E0BE016F5FCF
:105460007F4FCE0180599F4F0E94601BC558DF4F70
:105470000FB6F894DEBF0FBECDBFDF91CF911F9165
:105480000F91FF90EF900895CF92DF92EF92FF92ED
:105490000F931F93CF93DF93CDB7DEB7C65FD109CC
:1054A0000FB6F894DEBF0FBECDBF90911F109923A9
:1054B00009F475C22091EB022F3F41F0792F2A3079
:1054C00031F071E08091EE02821708F070E0809177
:1054D00019028F3F41F0692F8A3031F061E030913D
:1054E0001C02381708F060E08091C0038F3F41F044
:1054F000592F8A3031F051E03091C303381708F04A
:1055000050E0809192048F3F41F0492F8A3031F072
:1055100041E030919504381708F040E08091E908A7
:105520008F3F41F0392F8A3031F031E0E091EC08C3
:10553000E81708F030E0E0912010E850F1E0E73F94
:1055400008F0F0E0E0911708EF3F39F0EA3031F071
:1055500091E080911A088E1708F090E0235081E0C6
:10556000243008F080E08F2B872B862B852B842B13
:10557000832B09F491110E94180E8091EB028F3F4A
:1055800009F0C0C06BE874E1CE0180599F4F0E94C2
:10559000700E6FE774E1CE0185519F4F0E940D0F91
:1055A0008091E802882309F445C067EC7FE088EE2B
:1055B00092E00E945A0F43E150E062ED7FE08CEFF1
:1055C00092E00E94EE3743E150E065E87CE08FE036
:1055D00093E00E94EE3743E150E069ED7FE082E224
:1055E00093E00E94EE3743E150E06EED7FE085E30B
:1055F00093E00E94EE3743E150E064EE7FE088E400
:1056000093E00E94EE3743E150E06DEE7FE08BE5E2
:1056100093E00E94EE37BE0165517F4FCE010196A7
:105620000E940D0F68EE72E0CE0101960E94C81B29
:105630001092E802BE0160597F4FCE0101960E9490
:10564000700EBE0165517F4FCE0181529F4F0E9467
:105650000D0F48EE52E0BE016F5F7F4FCE018152C9
:105660009F4F0E94601B0E941B0400911B10109111
:105670001C1020911D1030911E106B017C01C01A6E
:10568000D10AE20AF30AC0921710D0921810E092E1
:105690001910F0921A100E941B0460931B10709353
:1056A0001C1080931D1090931E108091211188234F
:1056B000C9F00091E9086BE874E1CE0101960E94FF
:1056C000700E6FE774E1CE0180599F4F0E940D0F5D
:1056D000A7019601BE016F5F7F4FCE0180599F4F9A
:1056E0000E94C018CA50DF4F0FB6F894DEBF0FBE3D
:1056F000CDBFDF91CF911F910F91FF90EF90DF9081
:10570000CF9008958130F1F0823009F0ACCF8091D4
:1057100017088F3F09F0A7CF6BE874E1CE0101961F
:105720000E94700E6FE774E1CE0180599F4F0E9476
:105730000D0FBE016F5F7F4FCE0180599F4F0E94BA
:10574000761C91CF909119029F3F09F049C06BE8F8
:1057500074E1CE0180599F4F0E94700E6FE774E193
:10576000CE0185519F4F0E940D0F80911602882314
:1057700029F164EF7FE086E192E00E945A0F43E155
:1057800050E06CEF7FE08AE292E00E94EE3743E166
:1057900050E063E070E18DE392E00E94EE37BE01DD
:1057A00065517F4FCE0101960E940D0F66E172E0B8
:1057B000CE0101960E94C81B10921602BE016059CC
:1057C0007F4FCE0101960E94700EBE0165517F4F42
:1057D000CE0181529F4F0E940D0F46E152E03BCF18
:1057E0009130F1F0923009F03ECF9091E9089F3F5F
:1057F00009F090C06BE874E1CE0101960E94700E32
:105800006FE774E1CE0180599F4F0E940D0FBE01DA
:105810006F5F7F4FCE0180599F4F0E94EA1B23CFBD
:105820001091C0031F3FB1F46BE874E1CE01019603
:105830000E94700E6FE774E1CE0180599F4F0E9465
:105840000D0FBE016F5F7F4FCE0180599F4F0E94A9
:10585000B02909CF1830E1F5109192041F3FB1F43F
:105860006BE874E1CE0101960E94700E6FE774E15F
:10587000CE0180599F4F0E940D0FBE016F5F7F4F79
:10588000CE0180599F4F0E944529EDCE1A3009F470
:10589000EACE80913A11882321F08AE08093920425
:1058A000E2CE6BE874E1CE0101960E94700E6FE7C4
:1058B00074E1CE0180599F4F0E940D0F412FBE0110
:1058C0006F5F7F4FCE0180599F4F0E94BA25CBCE8C
:1058D0001A3009F4C8CE80913A11882321F08AE069
:1058E0008093C003C0CE6BE874E1CE0101960E94A4
:1058F000700E6FE774E1CE0180599F4F0E940D0F2B
:10590000412FBE016F5F7F4FCE0180599F4F0E9494
:10591000FD25A9CE26E3E0E7F0E0EC0FFD1F32966F
:10592000DF011D922A95E9F7E1968FAFE197E296A4
:105930008FAFE29722E430E0E6963FAF2EAFE697D6
:105940002FEFE7962FAFE797E8962FAFE897E99606
:105950008FAFE99723E0EA962FAFEA97EB968FAFE8
:10596000EB979330C9F46BE874E1CE0101960E9485
:10597000700E6FE774E1CE0181529F4F0E940D0FB0
:10598000AE0140595F4FBE016F5F7F4FCE01815224
:105990009F4F0E94111867CE8093C51364CE10915B
:1059A0001610112309F431C180911502882391F05A
:1059B00084E190E0A0E0B0E080930D0290930E02AD
:1059C000A0930F02B09310028CE092E00E94630E4D
:1059D000109215020E941B04AB01BC0180911102C0
:1059E00090911202A0911302B091140200910D0245
:1059F00010910E0220910F0230911002800F911F22
:105A0000A21FB31F21E0481759076A077B0708F454
:105A100020E020930C02481759076A077B0708F417
:105A200061CE80910A02882309F446C08CE291E09D
:105A3000A0E0B0E08093020290930302A0930402DE
:105A4000B093050281E092E00E94630E8FE794E13B
:105A50000E94F00F40E060E08FE794E10E94B30FF6
:105A60006FE072E08FE794E10E94950F41E062E001
:105A70008FE794E10E94B30F6FEF71E08FE794E13D
:105A80000E94950F42E067E08FE794E10E94B30F18
:105A900068EF71E08FE794E10E94950F43E060E0CA
:105AA0008FE794E10E94B30F63EE71E08FE794E11A
:105AB0000E94950F10920A0280911510863008F40A
:105AC00061C0FF24FA94F092000210910E108091B0
:105AD0001510181708F094C00E941B04AB01BC01FC
