:020000040000FA
:100000000C941A020C944B020C944B020C944B026D
:100010000C944B020C944B020C944B020C944B022C
:100020000C944B020C944B020C944B020C944B021C
:100030000C944B020C944B020C944B020C944B020C
:100040000C944B020C944B020C944B020C944B02FC
:100050000C944B020C944B020C944B020C94DD2D2F
:100060000C944B020C94512E0C94272E0C944B02A2
:100070000C944B020C944B020C944B020C944B02CC
:100080000C944B020C944B020C944B020C944B02BC
:100090000C944B020C944B020C944B020C94872E44
:1000A0000C944B020C944B020C944B020C944B029C
:1000B0000C944B020C944B020C944B020C944B028C
:1000C0000C944B020C944B020C944B020C944B027C
:1000D0000C944B020C944B020C944B020C944B026C
:1000E0000C944B020C944F0E0C94AD060C94B90278
:1000F0000C944E050C94CF020C94CB020C94A602E7
:100100000C94E6040C94AB2F0C94451E0C94701FB9
:100110000C9440050C94D4020C94CC0A0C94BD02AF
:100120000C94B4060C94F91F0C944A100C94D3054B
:100130000C9486050C94870D0C94C5080C94890AC0
:100140000C94240B0C94C9080C94A2020C948B06FA
:100150000C94E9040C94530E0C94B3020C949F0F6E
:100160000C94D9020C9402200C948A060C942C0551
:100170000C949A060C94A9020C94AF020C949A0267
:100180000C94E30D0C94490F0C94C1020C94E404FC
:100190000C949E0A0C944A0F0C944C0E0C94EF1B7A
:1001A0000C94E1060C94C70A0C94AD1F0C94850DB9
:1001B0000C9494020C946A1C0C941D050C94C702B8
:1001C0000C94D5020C94B20A0C94C01C0C94CD086B
:1001D0000C94E5040C949E0248483A4D4D20414D44
:1001E000002A002A2A2A2A2A2A2A2A2A2A2A2A2AC3
:1001F0002A2A2A2A2A2A2A005F5F5F5F5F5F00455A
:100200006E7465722050617373776F72643A002A5E
:100210002A2A2A2A2A2A2A2A2A2A2A2A2A2A2A2A3E
:100220002A2A2A002376002A5E002D0030002D00A5
:100230005F005F005F5F5F00746F207069636B2019
:100240006D6F726520636F6C6F72732E00507265F4
:10025000737320616E79206F74686572206B6579A5
:100260000050726573732027302720696620646F01
:100270006E652E00202020202020636F6E74696E32
:100280007565002020507265737320616E79206B54
:10029000657920746F004D4F4E4441592B2B2053EC
:1002A0006D61727421204C454473002A2A2A2A2A3F
:1002B0002A2A2A2A2A2A2A2A2A2A2A2A2A2A2A00C8
:1002C00000002100240027002A002D003000330008
:1002D00001010000040107010A01000022002500BD
:1002E00028002B002E00310034000201000005011F
:1002F00008010B01000020002300260029002C002B
:100300002F0032000001000003010601090105056C
:100310000505070508080808020202020A0A08087B
:1003200004040404010101010101010103030303A9
:1003300003030303040707070C0C0C0C0C0C0C0C38
:100340000202020206060606060606060B0B0B0B49
:100350000B0B0B0B0102102020080810204010206E
:100360004080020102010804020101020408102079
:100370004080804020100804020180040201804077
:1003800020100804020108040201010204081020E0
:100390004080010204081020408000000A0B02097E
:1003A0000C0D0E080703040100000000000000000F
:1003B000000000000000000000000000000000003D
:1003C00000000000000012111000000000000000FA
:1003D000000000000000000000000000000000001D
:1003E00050726573732023207768656E20646F6E8A
:1003F000652100523A205F5F5F20473A205F5F5FD0
:1004000020423A205F5F5F004E756D626572206F1B
:1004100066204C4544733A205F5F5F00523A205F8C
:100420005F5F20473A205F5F5F20423A205F5F5F57
:100430000000AB2F11241FBECFEFD1E2DEBFCDBF36
:1004400000E00CBF24E1A2E5BFE001C01D92A7338C
:10045000B207E1F71FE0A0E0B2E0E0E1FFE600E074
:100460000BBF02C007900D92A235B107D9F712E079
:10047000CAE1D2E000E006C021970109802FFE0109
:100480000E942935C931D10780E00807A9F70E94E9
:1004900075300C9486370C940000089520E0DC0140
:1004A00060FF03C001C02D932D936250E0F77040B0
:1004B000D0F70895CF93DF93C0916A10D0916B105D
:1004C000209789F08A819B81009749F02D853E8590
:1004D000B901660F771F620F731F0E944E020C80D6
:1004E000DD81C02DEDCFDF91CF9108958150823114
:1004F00008F05AC0E82FF0E08827EE57FD4F8F4FE5
:100500000C942935A202A60294029A029E02D402F9
:10051000A902AF02B302B902BD02C102C702CB02F7
:10052000D402CF02D502D902809180008F778093C8
:1005300080000895809180008F7DF9CF80918000A8
:10054000877FF5CF84B58F7784BD089584B58F7D7F
:10055000FBCF8091B0008F778093B0000895809199
:10056000B0008F7DF9CF809190008F7780939000BD
:100570000895809190008F7DF9CF80919000877FC2
:10058000F5CF8091A0008F778093A000089580918F
:10059000A0008F7DF9CF8091A000877FF5CF80915B
:1005A00020018F77809320010895809120018F7D15
:1005B000F9CF80912001877FF5CFCF93DF93282F4C
:1005C00030E0F901E656FC4F8491F901EC5AFC4FFA
:1005D000D491F901E25FFC4FC491CC23A1F08111C9
:1005E0000E947602EC2FF0E0EE0FFF1FEC50FD4F63
:1005F000A591B491EC91ED2381E090E009F480E0C5
:10060000DF91CF91089580E090E0FACF1F93CF93D0
:10061000DF93282F30E0F901E656FC4F8491F90171
:10062000EC5AFC4FD491F901E25FFC4FC491CC230A
:10063000A9F0162F81110E947602EC2FF0E0EE0F48
:10064000FF1FE652FD4FA591B4918FB7F894EC913E
:10065000111108C0D095DE23DC938FBFDF91CF91BD
:100660001F910895DE2BF8CFCF93DF9390E0FC012C
:10067000EC5AFC4F2491825F9C4FFC0184918823AB
:10068000C9F090E0880F991FFC01E054FD4FA5913F
:10069000B491FC01E652FD4FC591D49161110DC09A
:1006A0009FB7F8948C91209582238C93888128237E
:1006B00028839FBFDF91CF910895623051F49FB797
:1006C000F8943C91822F809583238C93E8812E2B84
:1006D000EFCF8FB7F894EC912E2B2C938FBFEACFEE
:1006E0003FB7F89480914F1090915010A091511005
:1006F000B091521026B5A89B05C02F3F19F0019666
:10070000A11DB11D3FBFBA2FA92F982F8827BC016B
:10071000CD01620F711D811D911D42E0660F771F93
:10072000881F991F4A95D1F708958F929F92AF9293
:10073000BF92CF92DF92EF92FF924B015C010E9439
:1007400070036B017C010E9470036C197D098E0996
:100750009F09683E734081059105A8F321E0821A44
:100760009108A108B10888EEC80E83E0D81EE11CEC
:10077000F11C81149104A104B10429F7FF90EF90BA
:10078000DF90CF90BF90AF909F908F9008952FB73C
:10079000F89460914B1070914C1080914D10909195
:1007A0004E102FBF08954F925F926F927F929F924B
:1007B000AF92BF92CF92DF92EF92FF920F931F936F
:1007C000CF93DF9300D0CDB7DEB7D0909F13809149
:1007D000A2139091A313A091A413B091A513892BF8
:1007E0008A2B8B2BD9F00E94700300916C10109112
:1007F0006D1020916E1030916F10601B710B820B89
:10080000930B0091A2131091A3132091A413309184
:10081000A5136017710782079307C8F20E9470033F
:1008200060936C1070936D1080936E1090936F10A6
:10083000E091AA13F091AB13309759F04091A613B1
:100840005091A7136091A8137091A9138D2D19953C
:10085000D82EE0906A10F0906B104D2C512C712C1A
:10086000612CE114F10409F459C0D7011C96CC9015
:100870001C978091A0139091A1138436910510F4D8
:100880001C961C92D701ED91FC91A280B380198235
:100890001A821B82DD2079F1F701369610E000E024
:1008A0002191222319F19280992001F130E050E04A
:1008B00040E02F5F3F4F4F4F5F4FC301B2010E9497
:1008C000E3349B01AC01892D90E0B0E0A0E0BC01D5
:1008D000CD016F5F7F4F8F4F9F4F0E94E334A1E0A8
:1008E000B0E0AC0FBD1FA00FB11F8C930F5F1F4F67
:1008F00003301105A9F609811A812B81F70145857D
:10090000568562817381C701F5011995D7011C963F
:10091000CC921C971496ED90FC90A3CF8091681018
:10092000909169108C010F5F1F4F10936910009315
:1009300068104997B4F10E94C703C0906410D0902A
:100940006510E0906610F09067109B01AC012C19C7
:100950003D094E095F0921F421E030E040E050E01C
:1009600088EE93E0089FB001099F700D189F700DED
:100970001124072E000C880B990B0E940735309329
:10098000A1132093A01310926910109268100E9476
:10099000C703609364107093651080936610909302
:1009A00067100F900F900F90DF91CF911F910F91D3
:1009B000FF90EF90DF90CF90BF90AF909F907F908F
:1009C0006F905F904F9008950895089580E991E0A9
:1009D0000895AF92BF92CF92DF92EF92FF920F9362
:1009E0001F93CF93DF936C017B018B01040F151FC5
:1009F000EB015E01AE18BF08C017D10759F069912D
:100A0000D601ED91FC910190F081E02DC601199580
:100A1000892B79F7C501DF91CF911F910F91FF903D
:100A2000EF90DF90CF90BF90AF900895FB0144818D
:100A30005581608171810C94E904FC01538D448DD2
:100A4000252F30E0842F90E0821B930B541710F079
:100A5000CF96089501970895FC01918D828D981786
:100A600061F0A28DAE0FBF2FB11D5D968C91928D5E
:100A70009F5F9F73928F90E008958FEF9FEF08958F
:100A8000FC01918D828D981731F0828DE80FF11D58
:100A9000858D90E008958FEF9FEF0895FC01918D73
:100AA000228D892F90E0805C9F4F821B91098F736C
:100AB0009927089582E093E10E944E0521E0892B59
:100AC00009F420E0822F0895FC01A48DA80FB92F0E
:100AD000B11DA35ABF4F2C91848D90E001968F7366
:100AE0009927848FA689B7892C93A089B1898C9185
:100AF000837080648C93938D848D981306C00288D4
:100B0000F389E02D80818F7D80830895EF92FF929D
:100B10000F931F93CF93DF93EC0181E0888F9B8D20
:100B20008C8D98131AC0E889F989808185FF15C0DA
:100B30009FB7F894EE89FF896083E889F9898081FD
:100B40008370806480839FBF81E090E0DF91CF91CC
:100B50001F910F91FF90EF900895F62E0B8D10E0EE
:100B60000F5F1F4F0F731127E02E8C8D8E110CC05D
:100B70000FB607FCFACFE889F989808185FFF5CFA8
:100B8000CE010E946405F1CFEB8DEC0FFD2FF11D1E
:100B9000E35AFF4FF0829FB7F8940B8FEA89FB89E5
:100BA00080818062CFCFCF93DF93EC01888D882343
:100BB000B9F0AA89BB89E889F9898C9185FD03C0C0
:100BC000808186FD0DC00FB607FCF7CF8C9185FFA5
:100BD000F2CF808185FFEDCFCE010E946405E9CF81
:100BE000DF91CF91089580E090E0892B29F00E9459
:100BF0005A0581110E94000080E090E0892B49F0A5
:100C000080E090E0892B29F00E94000081110E9471
:100C1000000080E090E0892B49F080E090E0892B93
:100C200029F00E94000081110E94000080E090E005
:100C3000892B49F080E090E0892B29F00E94000088
:100C400081110C94000008952091DD0F260F3327A9
:100C5000331F21323105ECF420910110FC0190E0AA
:100C600080E0243069F082E00895A091DD0F2191A9
:100C7000AC014354504FA40FB52FB11D2C930196D6
:100C8000861798F38091DD0F680F6093DD0F80E089
:100C9000089581E008951092011081E0809303107F
:100CA0001092021061E084E10E94060361E085E198
:100CB0000E940603E9EBF0E080818E7F80838081D3
:100CC0008D7F808388E48093B80085E48093BC00A6
:100CD0000895CF93DF9391E09093BC0F8823B9F0F0
:100CE000C091B800D091BA008091BC008A7B8093FB
:100CF000BC0060E084E10E94060360E085E10E94A0
:100D000006030E944B06D093BA00C093B800DF914F
:100D1000CF9108950895E091491080914810E81707
:100D200030F4F0E0E956F04F808190E008958FEFC5
:100D30009FEF089590914910809148102FEF3FEF59
:100D4000981748F4E92FF0E0E956F04F208130E0A1
:100D50009F5F90934910C901089580914810909128
:100D60004910891B990B0895CF92DF92EF92FF9261
:100D70000F931F93CF93DF937C01CB018A012091C6
:100D8000960F222389F0EB016B01C40ED51ECC1502
:100D9000DD0569F06991D701ED91FC910190F08139
:100DA000E02DC7011995F3CF642F0E942406C801D6
:100DB000DF91CF911F910F91FF90EF90DF90CF9037
:100DC0000895CF93DF931F92CDB7DEB7698320914B
:100DD000960F2223F9F020914610203258F021E09E
:100DE00030E0FC013383228390E080E00F90DF91BC
:100DF000CF91089580914710E82FF0E0EA58F04F26
:100E0000998190838F5F809347108093461081E093
:100E100090E0ECCF61E0CE0101960E942406F7CF6E
:100E2000CF92DF92EF92FF920F931F93CF93DF93B6
:100E3000FC01C48121E02093960FC093750F10929E
:100E40004710109246108385682B8CEA93E10E942C
:100E5000E106D0914610D13208F092C00E94700392
:100E60006B017C0180910110811165C082E080934B
:100E7000011081E0809303108FEF80930010109297
:100E80002510D0932410A6E7BFE0E4E0F0E180E075
:100E9000D81385C01092261080912610CC0FC82B35
:100EA000C093261080910210813009F07CC010920E
:100EB00002100E9470036B017C01809126108093C8
:100EC000BB008091B80F9091B90FA091BA0FB0916B
:100ED000BB0F892B8A2B8B2B99F00E9470030091FA
:100EE000B80F1091B90F2091BA0F3091BB0F6C1948
:100EF0007D098E099F090617170728073907E0F1B2
:100F00008091BC0083FDD9CF85EC8093BC000E940A
:100F100070036B017C0180910110823009F445C09F
:100F2000809100108F3F61F180910010803241F17B
:100F30008091001025C08091B80F9091B90FA091B9
:100F4000BA0FB091BB0F892B8A2B8B2B09F48ACF58
:100F50000E9470030091B80F1091B90F2091BA0F41
:100F60003091BB0F6C197D098E099F090617170771
:100F70002807390708F076CF8091B70F0E946906DD
:100F800010924710109246101092960FDF91CF9159
:100F90001F910F91FF90EF90DF90CF9008959D915A
:100FA00091938F5F75CF85EEB0CF8091B80F909100
:100FB000B90FA091BA0FB091BB0F892B8A2B8B2B45
:100FC00009F4A9CF0E9470030091B80F1091B90FD6
:100FD0002091BA0F3091BB0F6C197D098E099F09C2
:100FE000061717072807390708F095CFC5CFCF9305
:100FF000DF93DC0126E0629FA00DB11D11249096C5
:101000005C934E935F9721E091962C939197FC010E
:10101000E359FF4F0190F081E02DEC01C459DF4FFF
:101020002881222341F0309719F0DC01662329F052
:10103000DF91CF9108953097D9F35C968C91DF9131
:10104000CF911994CF92DF92EF92FF920F931F935B
:10105000CF93DF93EC01162F042FFC0186E0689FED
:10106000E00DF11D112411A2878D90A18130910511
:1010700009F180F08230910509F443C0039709F427
:1010800045C0DF91CF911F910F91FF90EF90DF90BE
:10109000CF9008954423A9F341E050E0CE010E948F
:1010A000F7070E94C703C85ADF4F688379838A8392
:1010B0009B83E7CF0E94C703FE01E85AFF4FC08021
:1010C000D180E280F380AB01BC014C195D096E094F
:1010D0007F09729680819181B0E0A0E08417950726
:1010E000A607B70770F442E050E0612FCE01DF9110
:1010F000CF911F910F91FF90EF90DF90CF900C94C4
:10110000F70743E050E00111BCCFEFCF50E040E0E3
:10111000ECCF8F929F92AF92BF92CF92DF92EF92DD
:10112000FF92CF93DF93EFEFE60FEC01C12CD12CB0
:101130007601EF3FE9F08990912CB12CA12CF0E0E1
:1011400061E070E080E090E0FE1741F0AAE0B0E0DE
:101150009B01AC010E94BB33FF5FF6CFA501940158
:101160000E94E334C60ED71EE81EF91EE150E1CFFF
:10117000C701B601DF91CF91FF90EF90DF90CF9044
:10118000BF90AF909F908F900895862F642F0C94FE
:101190003403862F642F0C940603862F0C94DD02F3
:1011A0002F923F924F925F926F927F928F929F9277
:1011B000AF92BF92CF92DF92EF92FF920F931F9365
:1011C000CF93DF93CDB7DEB72C970FB6F894DEBF81
:1011D0000FBECDBF9C878B8784599F4F9A8389838D
:1011E00081E0A981BA818C930E94C703EB85FC85BD
:1011F000E45AFF4FFC83EB8300811181228133810C
:10120000AB01BC01401B510B620B730BEB85FC85E2
:10121000E859FF4F80819181B0E0A0E084179507E5
:10122000A607B70708F037C110E0CB84DC84F6E6E8
:10123000CF0ED11CEB84FC8422E6E20EF11CD60119
:101240008C91181758F4D701ED91FC91E10FF11D25
:1012500062E080810E9434031F5FF1CF312C4B8408
:101260005C84B7E64B0E511CEB84FC84E4E6EE0E86
:10127000F11C812C912C540183942B853C852E5993
:101280003F4F3A872987D2018C91381608F063C006
:10129000032D10E0D701ED91FC91E00FF11F61E00B
:1012A00080810E943403D701ED91FC91E00FF11F82
:1012B00060E080810E940603D501C401032C04C0B4
:1012C000880F991FAA1FBB1F0A94D2F79E838D8394
:1012D000FC01E095F095F887EF83212CD6018C91E5
:1012E000281620F5622C712CA985BA85ED91FC9108
:1012F000E60DF71D80810E94DD02660C771CEB85F0
:10130000FC85E60DF71D892B51F4808591852D8193
:101310003E81822B932B918780872394DFCF80851A
:101320009185AF81B8858A239B23F5CFD701ED91B5
:10133000FC91E00FF11F61E080810E940603F7013C
:1013400080819181080F191F60E0D8018C910E9463
:101350003403339498CF0B851C85C801CC96780153
:101360002FEF3FEFF701478D50A1452B21F4148E4D
:10137000368F258F11A2F6E0EF0EF11CE816F90664
:1013800089F7A12C96E0392E8B849C8420E6820E6E
:10139000911CD6018C91A81608F05AC0B12C6A2C69
:1013A000712CB4E06B0E711C660C771CEB85FC8510
:1013B0006E0E7F1ED2018C91B81608F047C0F30163
:1013C000408151810B2C02C0569547950A94E2F753
:1013D000A89EC00111248B0D911DEB85FC8560E05A
:1013E000258D368D8217930709F473C06F5F36968B
:1013F0006A30B1F740FF28C0EB85FC8570E060E003
:10140000248D21111BC0369EF001379EF00D112452
:101410002B853C85E20FF31FD4012D913C91D9011E
:10142000A80FB91F2C91248F968F858F10A2178E2D
:1014300041E08B859C850E94220806C06F5F7F4F2C
:1014400036966A307105E1F6B394B4CFA394A1CF78
:10145000D12CF80181A18111D82E0A5F1F4FE0160F
:10146000F106B9F70E94C703AB81BC816D937D93F0
:101470008D939C931397DD2071F0EB85FC8581A102
:10148000882349F0878D90A1019729F4848D8111DB
:1014900006C08FEF05C0A981BA811C92FACF815393
:1014A0002C960FB6F894DEBF0FBECDBFDF91CF9163
:1014B0001F910F91FF90EF90DF90CF90BF90AF9072
:1014C0009F908F907F906F905F904F903F902F9064
:1014D00008954170AECFDC011C9211961C921197B9
:1014E0001296ED91FC9113973197EA30F10508F0CF
:1014F00053C08827E158F54F8F4F0C942935890A3E
:101500009E0AB20A890A9E0AB20ACC0ACC0ACC0AFE
:10151000C70ACD01CC96FD0117821482158216826E
:101520003496E817F907C1F7FD01E05CFF4FA25AB6
:10153000BF4F1192AE17BF07E1F70895CD0188584C
:101540009F4F17961C92179714961C9214971596F6
:101550001C92159716961C9216971496A817B90701
:1015600081F70895CD01CC96FD0117821482158272
:1015700016823496E817F907C1F7FD01E05CFF4FCA
:10158000A15BBF4F1192EA17FB07E1F7089514968C
:101590001C92149715961C920895FC01848180FF7B
:1015A00005C0128A84FF0AC0638B089581FF03C0BF
:1015B0002695228BF7CF82FFF5CFFBCF85FF04C0A6
:1015C0004695460F438B02C086FDFBCF08950F93CF
:1015D0001F93CF93DF9320915E0F2F5F322F3770D1
:1015E00030935E0F20FF2BC020E831FD2064347063
:1015F00009F02062205FFC01EC01239600E011E07D
:101600006485662329F070E0C8010E94F3346F5F9F
:101610006187322F369F030E30E0311D11243111C6
:1016200010C01682662311F0615061873196EC1765
:10163000FD0731F7DF91CF911F910F91089520E0C1
:10164000D4CF31503683EECF4F925F927F928F92FC
:101650009F92AF92BF92CF92DF92EF92FF920F9341
:101660001F93CF93DF932C01EB010E947003F201D3
:1016700027853089621B730B6A307105B0F3F894CB
:101680008A819B81181619060CF0CDC1E881F98179
:101690006EB1862E689484F83EB13F7E3EB9D984FF
:1016A0008E812D2D281B822F2E834F85042E000C1A
:1016B000550BAA81BB817C85FD84EE847F5FF3940A
:1016C000E3949F819884BA84AB841081C12C6C2DE3
:1016D0000C2D2C2D2081112788942111280F08F41E
:1016E0002FEF8195889470FD120F1795889471FDE6
:1016F000120F1795889472FD120F1795889473FD39
:10170000120F1795889474FD120F1795889475FD24
:10171000120F1795889476FD120F1795889477FD10
:10172000120F17958894622F7111612F8D0D162F4E
:10173000002C8EB800C000C017FF3EB9218166277B
:10174000889400C0002C3EB92111290F00C0002C44
:101750008EB800C000C016FF3EB908F42FEF919577
:10176000889400C0002C3EB9F0FC620F00C0002C31
:101770008EB800C000C015FF3EB967958894F1FC93
:10178000620F00C0002C3EB96795889400C0002C01
:101790008EB800C000C014FF3EB9F2FC620F67951E
:1017A000889400C0002C3EB9F3FC620F00C0002CEE
:1017B0008EB800C000C013FF3EB967958894F4FC52
:1017C000620F00C0002C3EB96795889400C0002CC1
:1017D0008EB800C000C012FF3EB9F5FC620F6795DD
:1017E000889400C0002C3EB9F6FC620F00C0002CAB
:1017F0008EB800C000C011FF3EB967958894F7FC11
:10180000620F00C0002C3EB96795889400C0002C80
:101810008EB800C000C010FF3EB9122FF110162F75
:101820009B0D00C0002C3EB900C000C0002C8EB83B
:1018300000C000C017FF3EB922816627889400C00F
:10184000002C3EB92111290D00C0002C8EB800C01B
:1018500000C016FF3EB908F42FEFE40FF51F00C0DB
:10186000002C3EB9E0FC620F00C0002C8EB800C016
:1018700000C015FF3EB967958894E1FC620F00C077
:10188000002C3EB96795889400C0002C8EB800C02B
:1018900000C014FF3EB9E2FC620F6795889400C057
:1018A000002C3EB9E3FC620F00C0002C8EB800C0D3
:1018B00000C013FF3EB967958894E4FC620F00C036
:1018C000002C3EB96795889400C0002C8EB800C0EB
:1018D00000C012FF3EB9E5FC620F6795889400C016
:1018E000002C3EB9E6FC620F00C0002C8EB800C090
:1018F00000C011FF3EB967958894E7FC620F00C0F5
:10190000002C3EB96795889400C0002C8EB800C0AA
:1019100000C010FF3EB9122FE110162F919400C0A5
:10192000002C3EB99A0C00C000C08EB800C000C0A8
:1019300017FF3EB920816627889400C0002C3EB96D
:101940002111280F00C0002C8EB800C000C016FF67
:101950003EB908F42FEF8195889400C0002C3EB961
:1019600070FD620F00C0002C8EB800C000C015FFD3
:101970003EB96795889471FD620F00C0002C3EB996
:101980006795889400C0002C8EB800C000C014FF7A
:101990003EB972FD620F6795889400C0002C3EB975
:1019A00073FD620F00C0002C8EB800C000C013FF92
:1019B0003EB96795889474FD620F00C0002C3EB953
:1019C0006795889400C0002C8EB800C000C012FF3C
:1019D0003EB975FD620F6795889400C0002C3EB932
:1019E00076FD620F00C0002C8EB800C000C011FF51
:1019F0003EB96795889477FD620F00C0002C3EB910
:101A00006795889400C0002C8EB800C000C010FFFD
:101A10003EB9122F7111162F8D0D00C0002C3EB94A
:101A2000119709F086CE4A815B8120EE31E0DA0120
:101A30000E943135DC01CB01F4E0B695A79597956E
:101A40008795FA95D1F730E020E0B901EAE94E9F99
:101A5000040E611D5E9F600D711D1124650F711DC7
:101A6000860F971FA11DB11D893E43E09407A10574
:101A7000B10508F434C0885E9340A109B10942E081
:101A8000B695A795979587954A95D1F747E0849F96
:101A9000080E211D949F200D311D1124290F311D89
:101AA00060915D0F70E0860F971F820F931F40912A
:101AB0004B1050914C1060914D1070914E10292F89
:101AC0003327420F531F611D711D40934B105093DC
:101AD0004C1060934D1070934E1080935D0F78946E
:101AE0000E947003F201708B6787DF91CF911F9185
:101AF0000F91FF90EF90DF90CF90BF90AF909F90AD
:101B00008F907F905F904F9008956C9A08956F9298
:101B10007F928F92CF92DF92EF92FF920F931F935B
:101B2000CF93DF93CDB7DEB762970FB6F894DEBFE1
:101B30000FBECDBF6C017A013801822EDC011C96EC
:101B40002C91CA0157FF04C088279927841B950B45
:101B50007A8369839C838B839E838D836D867E8647
:101B60008F86213049F5CE0101960E94E70A83E075
:101B7000888B1A8A198AF7FE02C08DEF888BD601EE
:101B8000ED91FC910484F585E02DBE016F5F7F4FE0
:101B9000C601199562960FB6F894DEBF0FBECDBF91
:101BA000DF91CF911F910F91FF90EF90DF90CF9039
:101BB0008F907F906F9008951C861B861A861986D9
:101BC00018861F82D4CFEF92FF920F931F93CF936B
:101BD000DF93CDB7DEB762970FB6F894DEBF0FBEC6
:101BE000CDBF7C01DC011C968C917A8369835C8378
:101BF0004B835E834D830D871E872F878130F9F4D9
:101C0000CE0101960E94E70A188A1A8A198AD7011A
:101C1000ED91FC910484F585E02DBE016F5F7F4F4F
:101C2000C701199562960FB6F894DEBF0FBECDBFFF
:101C3000DF91CF911F910F91FF90EF9008951C8637
:101C40001B861A86198618861F82DECFE8EEF2E020
:101C500091E090838FEF83831482E6E1F2E090833A
:101C600083831482EDEBF3E0908383831482EFE8A7
:101C7000F4E0908383831482E6EEF8E0908383831C
:101C8000148280935C0FE4E1F8E0908383831482F4
:101C900080E790E10C946B0A90E080E00895FC01ED
:101CA0008585968508950F931F93CF93DF9300D07A
:101CB000CDB7DEB7AB0119821A821B82DC01ED9130
:101CC000FC910190F081E02D00E010E020E0BE01E9
:101CD0006F5F7F4F19950F900F900F90DF91CF910D
:101CE0001F910F910895CF93DF93EC0118820E940A
:101CF000C7036D837E838F839887DF91CF9108958B
:101D00000F931F93CF9326E0FB013296DC011296CE
:101D100001900D922A95E1F72EE43AE0FC0131831F
:101D2000208324E1FB013896DC01189601900D9286
:101D30002A95E1F79C01245E3F4FAB01445E5F4F63
:101D40008901045C1F4FC6E0FA01D90101900D9290
:101D5000CA95E1F72A5F3F4F4A5F5F4F201731076F
:101D600091F7FB01E85AFF4F0081118122813381F5
:101D7000FC01E85AFF4F0083118322833383FB0168
:101D8000E45AFF4F0081118122813381FC01E45A22
:101D9000FF4F0083118322833383FB01E05AFF4FFF
:101DA00020813181FC01E05AFF4F31832083FB0108
:101DB000EE59FF4F20813181FC01EE59FF4F3183F5
:101DC0002083FB01EC59FF4F20813181FC01EC594C
:101DD000FF4F318320833296DB01AA59BF4F2D91EB
:101DE0003C9131832083FB01E859FF4F20813181F1
:101DF000FC01E859FF4F31832083FB01E659FF4F77
:101E000020813181FC01E659FF4F31832083FB01A2
:101E1000E459FF4F2081FC01E459FF4F20836359AF
:101E20007F4FFB012081318183599F4FFC0131831A
:101E30002083CF911F910F910895FC01DB01129631
:101E40008D919C9113979383828382E49AE091838E
:101E5000808314968C911497848315968C91159792
:101E6000858316968C911697868317968C91179773
:101E7000878318968C911897808719968C9119975B
:101E800081871A968C911A9782871B968C918387EB
:101E90000895089590E080E00895CF93DF93FC01CA
:101EA00001900020E9F73197AF01481B590BBC01A5
:101EB00082E093E10E94E904EC0142E050E067E631
:101EC0007AE082E093E10E94E9048C0F9D1FDF918C
:101ED000CF9108954DE050E007960C9477370F931B
:101EE0001F93CF938C01C62F0E9410076C2F646044
:101EF000C8010E9410076C2F6B7FC8010E94100759
:101F000083EC90E00197F1F7CF911F910F91089525
:101F10000F931F93CF93DF938C01D62FC42F607F35
:101F2000642B0E946F0F80E1D89FB00111246C2BAD
:101F3000C801DF91CF911F910F910C946F0F41E079
:101F40000E94880F81E090E00895EF92FF920F9336
:101F50001F93CF93DF938C017B01D0E0C0E0F701AA
:101F6000EC0FFD1F6491662331F041E0C8010E942F
:101F7000880F2196F4CFCE01DF91CF911F910F9161
:101F8000FF90EF900895CF93DF9300D000D01F9281
:101F90001F92CDB7DEB728E0EEEBF9E0DE01119637
:101FA00001900D922A95E1F7FC012085241710F489
:101FB0004FEF420F50E0440F551F21E030E02C0F4F
:101FC0003D1F420F531FFA012081620F606840E0FD
:101FD00028960FB6F894DEBF0FBECDBFDF91CF912C
:101FE0000C94880FCF93DF93EC0140E06CE00E94EB
:101FF000C30F68ED71E0CE01DF91CF910C94A50F76
:1020000040E061E00E94880F8BE39FE10197F1F7C8
:1020100008950F931F93CF93DF93CDB7DEB72C971F
:102020000FB6F894DEBF0FBECDBF8C010E9400102A
:10203000B801CE0101960E941D0FCE0101960E94AB
:10204000F20F41E060E0C8010E94C30F61E672E058
:10205000C8010E94A50F42E060E0C8010E94C30FC2
:102060006DE472E0C8010E94A50F43E060E0C80182
:102070000E94C30F68E372E0C8010E94A50F2C966E
:102080000FB6F894DEBF0FBECDBFDF91CF911F9189
:102090000F9108950E945237FC0180819181009731
:1020A00011F00C94E8350895EF92FF920F931F936F
:1020B000CF93DF93EC017B018A018881998100979E
:1020C00029F02A813B812417350788F4B8016F5F16
:1020D0007F4F0E947136009791F0998388831B830C
:1020E0000A832C813D81232B11F4FC0110821D8376
:1020F0000C83B701888199810E9460370CC0888168
:102100009981009711F00E94E835198218821D828A
:102110001C821B821A82CE01DF91CF911F910F91F9
:10212000FF90EF900895EF92FF920F931F93CF933C
:10213000DF9300D000D000D0CDB7DEB78C01862F62
:10214000F8011182108213821282158214824AE0F1
:102150009E012F5F3F4F7901B90190E00E946D32DF
:10216000F70101900020E9F73197AF014E195F099F
:10217000B701C8010E94541029960FB6F894DEBF2B
:102180000FBECDBFDF91CF911F910F91FF90EF90C8
:102190000895CF93DF931F921F92CDB7DEB7FC0156
:1021A00011821082138212821582148269831A822C
:1021B000BE016F5F7F4FFB0101900020E9F731976F
:1021C000AF01461B570B0E9454100F900F90DF91E8
:1021D000CF9108950F931F93CF93DF9300D000D03A
:1021E000CDB7DEB78C016A30C8F4CE0101960E94EB
:1021F0009310BE016F5F7F4FC8010E941605CE018C
:1022000001960E944C1026960FB6F894DEBF0FBEC2
:10221000CDBFDF91CF911F910F9108956A50653026
:1022200050F4E62FF0E0ED50F64F6081CE010196BC
:102230000E94C910DECF66E4F9CF4F925F926F9291
:102240007F929F92AF92BF92CF92DF92EF92FF92D6
:102250000F931F93CF93DF93CDB7DEB72C970FB6B5
:10226000F894DEBF0FBECDBF5C016B01F42E122FC0
:10227000DB011A968C911A9751969C915197E82FF1
:10228000E91BFF0B1E171F0699F094F0891B089F8E
:10229000800D112494E1981B892F14969C9114971A
:1022A00091FF04C0869552968C9302C092FDFBCF9D
:1022B000F60167856117D8F480898017C0F44389D7
:1022C0009685490F069F600D11249289890F680F2A
:1022D000C5010E94C30FEE2009F441C062E372E021
:1022E000C5010E94A50FF60180898F5F808BD60102
:1022F00050968C915097801708F47FC050961C928E
:1023000050971F969C901F97E110B8C0602F043023
:1023100008F063E0C6010B96F60126812F3F99F184
:10232000FF24FA94F60EFC01412C512C32014FEFA0
:10233000F41669F1219130E050E040E0A0E061E066
:1023400070E080E090E0FA1609F46DC0B4E0660F2A
:10235000771F881F991FBA95D1F7AF5FF4CFD601C9
:102360005096EC91E33020F4EC0DFD2DF11DF38639
:10237000B501CE0101960E941D0F6F2DCE01019671
:102380000E94EA10B0CF0E9489082B013C01D601BF
:1023900019968C9190E0B0E0A0E084159505A60513
:1023A000B70508F44DC0F601808590E0B0E0A0E0EC
:1023B000481659066A067B0608F442C0939497862D
:1023C000E189EF5FD6015196EC93519754968D9128
:1023D0009C915597009779F11A962C912E1758F1E8
:1023E000E80FF92FF11D31974082F601878581179B
:1023F00020F0178686858F5F86872C960FB6F89417
:10240000DEBF0FBECDBFDF91CF911F910F91FF9027
:10241000EF90DF90CF90BF90AF909F907F906F90A4
:102420005F904F9008950E94E334460E571E681E39
:10243000791EFA947CCF8AE69AE00E944D0FD5CFA0
:10244000F12CE12C602E712C0F5FF6018785E614CC
:10245000F70458F643899685490F6289089F600DF5
:1024600011246E0DC5010E94C30F60E372E0C50127
:102470000E94A50FFFEFEF1AFF0AE7CF93941F9674
:102480009C921F9751968C9151978F5F51968C9388
:10249000ACCF8F929F92AF92BF92CF92DF92EF928A
:1024A000FF920F931F93CF93DF93CDB7DEB7CF5635
:1024B000D1090FB6F894DEBF0FBECDBF6C015A0133
:1024C000922EF02ECE0101960E94800ECE01019632
:1024D0000E94D008882E8FEF88122BC00091BB037A
:1024E0006091600F0F3F29F110E0F501E60FF11D3B
:1024F000D801A951B64F8C9182836F0D4E2DC60124
:102500000E94C30FF801E552F64F6081CE0101969B
:102510000E94C910BE016F5F7F4FC6010E94160561
:10252000CE0101960E944C108091600F8F5F8093C6
:10253000600F8092BB038091600F8330A0F063E056
:10254000C50102960E948908092D10E030E020E0C4
:102550000617170728073907D0F0F501618381E0D6
:1025600080831092600FC159DF4F0FB6F894DEBF21
:102570000FBECDBFDF91CF911F910F91FF90EF90D4
:10258000DF90CF90BF90AF909F908F9008954E2D89
:102590006F2DC6010E94C30F64E372E0C6010E9462
:1025A000A50FDFCFCF92DF92EF920F931F93CF93C0
:1025B000DF93CDB7DEB7CB57D1090FB6F894DEBFA6
:1025C0000FBECDBF6C01FA01102F8E2D42E0E42E1C
:1025D000811102C093E0E92E9091700F911125C0F6
:1025E000CE0101960E94800EB601CE0180599F4F08
:1025F0000E941D0F03E02FEF40E75FE0BE016F5F19
:102600007F4FCE0180599F4F0E944912C558DF4F1E
:102610000FB6F894DEBF0FBECDBFDF91CF911F91F3
:102620000F91EF90DF90CF90089590916B0F9111E3
:102630000FC0CE0101960E94800EB601CE018059D6
:102640009F4F0E941D0F0AE02FEF4BE65FE0D6CFB1
:102650009091660F91110FC0CE0101960E94800EDD
:10266000B601CE0180599F4F0E941D0F01E12FEF4F
:1026700046E65FE0C3CF9091610F911113C08823AC
:1026800089F0CE0101960E94800EB601CE018059DC
:102690009F4F0E941D0F83E0E82E00E1212F41E6AD
:1026A0005FE0ACCF91E093839091710F9083909114
:1026B0006C0F91839091670F9283882321F0809112
:1026C000620FF90180831092700F10926B0F1092BD
:1026D000660F1092610F9ACFFC0111821082138253
:1026E0001282158214826115710551F0FB0101906F
:1026F0000020E9F73197AF01461B570B0C9454109B
:1027000008951F93CF93DF93CDB7DEB768970FB6C9
:10271000F894DEBF0FBECDBF162FBC01CE010D96C3
:102720000E941D0FCE010D960E94001040E060E057
:10273000CE010D960E94C30F62EF77E0CE010196A5
:102740000E946C13BE016F5F7F4FCE010D960E94F9
:102750001605CE0101960E944C10BE01635F7F4FAB
:10276000CE0101960E941D0FCE0101960E94F20F2C
:1027700041E060E0CE010D960E94C30F6FEF77E05D
:10278000CE0101960E946C13BE016F5F7F4FCE0198
:102790000D960E941605CE0101960E944C10112341
:1027A00011F142E060E0CE010D960E94C30F6CE192
:1027B00074E0CE010D960E94A50F43E060E0CE01CB
:1027C0000D960E94C30F68E074E0CE010D960E9442
:1027D000A50F68960FB6F894DEBF0FBECDBFDF9190
:1027E000CF911F91089543E060E0CE010D960E94C5
:1027F000C30F63EF73E0E9CF0F931F93CF93DF9382
:10280000CDB7DEB72C970FB6F894DEBF0FBECDBFA5
:102810008C010E94001040E060E0C8010E94C30FDC
:102820006AE77AE0CE0101960E946C13BE016F5FE9
:102830007F4FC8010E941605CE0101960E944C10E0
:10284000B801CE0101960E941D0FCE0101960E9493
:10285000F20F42E060E0C8010E94C30F60EE73E037
:10286000C8010E94A50F2C960FB6F894DEBF0FBECC
:10287000CDBFDF91CF911F910F9108952F923F927D
:102880004F925F926F927F928F929F92AF92BF9280
:10289000CF92DF92EF92FF920F931F93CF93DF932C
:1028A000CDB7DEB7CC5FD1090FB6F894DEBF0FBE4F
:1028B000CDBF5C016A01CE0180599F4F0E94800EFE
:1028C000B501CE0185519F4F0E941D0FD60116966E
:1028D0009C91169719968C919F3F39F48A3038F065
:1028E00013E0843628F412E003C08031E0F711E0F1
:1028F000612F70E06F5F7F4F84E190E00E94F334BE
:102900004B01F601818131E043E0882311F032E090
:1029100042E0D6011A968C91880D992D911D019750
:10292000B4010E94F334C650DF4F6883CA5FD040C1
:10293000461708F487C2C750DF4F8882C95FD0406E
:10294000882D189D800D112424E1281B461B632F20
:10295000C6010E94CD0ABE0160597F4FFE0131962B
:102960005F01CF010E94800EC5010E94D008C550B2
:10297000DF4F8883CB5FD0408F3F09F04BC2E0919F
:10298000BA03EF3F09F446C280915F0FD601169655
:102990009C911697E91379C0113009F074C019960B
:1029A0009C919A3008F46FC081116DC0BE016551D1
:1029B0007F4FCE0181529F4F0E941D0FCE01815249
:1029C0009F4F0E94001040E060E0CE0181529F4F77
:1029D0000E94C30FB6016A5E7F4FC5010E946C134F
:1029E000B501CE0181529F4F0E941605C5010E947C
:1029F0004C10BE0161527F4FC5010E941D0FC501E1
:102A00000E94F20F41E060E0CE0181529F4F0E9490
:102A1000C30F65E87AE0C5010E946C13B501CE01D1
:102A200081529F4F0E941605C5010E944C1042E042
:102A300060E0CE0181529F4F0E94C30F69E97AE0A6
:102A4000C5010E946C13B501CE0181529F4F0E94B7
:102A50001605C5010E944C1043E060E0CE01815292
:102A60009F4F0E94C30F6EEA7AE0C5010E946C136B
:102A7000B501CE0181529F4F0E941605C5010E94EB
:102A80004C1010935F0FF12C0BC1882309F45BC12C
:102A9000F0E0E951F64F2081F60181858950990BCC
:102AA0002817190684F78AE0F82EF20E0488F589B3
:102AB000E02D3097A9F051968C91AF01D50190E0AF
:102AC0009D012A193B092817390770F4FA01219151
:102AD000AF012D939F0121503109F9011082F0CFF0
:102AE00083EC9AE00E944D0FD6011E962D903D90EA
:102AF0004D905C9051975196BC91C450DF4FB88374
:102B0000CC5FD040F60116861786108A118ACE0156
:102B100085519F4F0E94001040E060E0CE0185513A
:102B20009F4F0E94C30FB6016A5E7F4FCE01815254
:102B30009F4F0E946C13BE0161527F4FCE018551A1
:102B40009F4F0E941605CE0181529F4F0E944C104C
:102B5000BE0165517F4FCE0181529F4F0E941D0FD4
:102B6000CE0181529F4F0E94F20FD60111968C9197
:102B70008823E1F041E060E0CE0185519F4F0E9443
:102B8000C30FB6016D5D7F4FCE0181529F4F0E94F2
:102B90006C13BE0161527F4FCE0185519F4F0E9441
:102BA0001605CE0181529F4F0E944C10C950DF4F35
:102BB000B982A882C75FD040C450DF4FB881CC5FD4
:102BC000D0406B2E712CC950DF4F88819981C75F2F
:102BD000D0408A199B098615970520F5C950DF4F0B
:102BE000E881F981C75FD0407190C950DF4FF98308
:102BF000E883C75FD040BE0165517F4FCE0181524F
:102C00009F4F0E941D0FE12C012FC750DF4F2881DD
:102C1000C95FD040472DB601CE0181529F4F0E941F
:102C20001D11CACFD6011A968C9186151704E1F0B2
:102C3000D8F0BE0165517F4FCE0181529F4F0E9457
:102C40001D0FEE24E394012FC750DF4F2881C95F89
:102C5000D04040E0B601CE0181529F4F0E941D112D
:102C6000BFEF6B1A7B0ADECFF60126863786408AD5
:102C7000518A81890488F589E02D309759F0D50172
:102C800090E09D012A193B092817390738F42D9146
:102C90002193F7CF8FED9AE00E944D0F10925F0FB6
:102CA00081E0F60121899285291708F080E0D6019C
:102CB00013962C91139731E02327822390915F0F75
:102CC0009327892309F4A6C01E968C91C650DF4F26
:102CD000B881CA5FD0408B1708F09CC0BE01655117
:102CE0007F4FCE0181529F4F0E941D0FE12C012F7B
:102CF000282D4F2DB601CE0181529F4F0E941D11EC
:102D0000F6018281882309F485C0113009F082C060
:102D10000488F589E02D309731F1D60151968C91D8
:102D2000AF01D50190E09D012A193B092817390709
:102D3000F0F4FA012191AF012D939F012150310947
:102D4000F9011082F0CF17968C9117978F3F31F0D1
:102D5000E81304C081E013968C9395CEF0E0E9511E
:102D6000F64FF0809DCF83EC9AE00E944D0FD60184
:102D70001E962D903D904D905C90519751966C9081
:102D8000712CF60191898285981748F54501D60185
:102D900051969C9151971A968C9194012A193B094E
:102DA0002615370570F7981760F7F40111914F0158
:102DB000BE0165517F4FCE0181529F4F0E941D0F72
:102DC000E12C01E0C750DF4F2881C95FD040412F7F
:102DD000B601CE0181529F4F0E941D11D8CFD6015E
:102DE00026863786408A518A0488F589E02D3097F7
:102DF00069F051968C91D50190E09D012A193B090B
:102E00002817390738F42D912193F7CF8FED9AE0E9
:102E10000E944D0FC550DF4FB881CB5FD040B093BB
:102E2000BA03F60191898285981718F48381882363
:102E300049F081E0D60113968C93F6011686178629
:102E4000108A118AC450DF4F0FB6F894DEBF0FBE50
:102E5000CDBFDF91CF911F910F91FF90EF90DF9049
:102E6000CF90BF90AF909F908F907F906F905F902A
:102E70004F903F902F900895BF92CF92DF92EF92A4
:102E8000FF920F931F93CF93DF93CDB7DEB7C2505E
:102E9000D1400FB6F894DEBF0FBECDBF8C016A01E2
:102EA000CE0180599F4F0E94800EB801CE018950FB
:102EB0009F4F0E941D0FCE0189509F4F0E9400100E
:102EC00040E060E0CE0189509F4F0E94C30FB601E1
:102ED0006A5E7F4FCE0101960E946C13BE016F5F48
:102EE0007F4FCE0189509F4F0E941605CE0101965B
:102EF0000E944C10BE0169507F4FCE0101960E9486
:102F00001D0FCE0101960E94F20FD60111968C91F1
:102F10008823D1F041E060E0CE0189509F4F0E94AC
:102F2000C30FB6016D5D7F4FCE0101960E946C13F9
:102F3000BE016F5F7F4FCE0189509F4F0E941605E3
:102F4000CE0101960E944C10BE0160597F4FCE0108
:102F500001960E94800EBE0169507F4FCE018551BF
:102F60009F4F0E941D0FF601968181859F3F39F486
:102F70008A3038F013E0843628F412E003C0803140
:102F8000E0F711E0612F70E06F5F7F4F84E190E028
:102F90000E94F3349B01D60111968C91E2E042E04D
:102FA000811102C0E1E043E0D6011A968C91820FB4
:102FB000932F911D0197B9010E94F334F62E461705
:102FC00078F1B22E129F200D112484E1821B282F4C
:102FD000461B6E2FC6010E94CD0AF60186858F150D
:102FE000C0F4918982859817A0F4BE0165517F4F86
:102FF000CE0181529F4F0E941D0FEE24E394012FBA
:103000002B2D40E0B601CE0181529F4F0E941D1131
:10301000E4CFD6011E961D921D921D921C925197CF
:10302000CE5FDE4F0FB6F894DEBF0FBECDBFDF918F
:10303000CF911F910F91FF90EF90DF90CF90BF90B5
:103040000895CF92DF92EF92FF920F931F93CF9349
:10305000DF93CDB7DEB7CB5CD1090FB6F894DEBFF6
:103060000FBECDBF7C016B01E0E7F0E0EC0FFD1F70
:10307000329686E3DF011D928A95E9F781E0E196B9
:103080008FAFE197E2968FAFE29722E430E0E696C9
:103090003FAF2EAFE6979FEFE7969FAFE797E89693
:1030A0009FAFE897E9968FAFE99793E0EA969FAFD5
:1030B000EA97EB968FAFEB978091FE128F3F09F462
:1030C00079C04DE050E06DE07BE080E790E08C0F50
:1030D0009D1F46960E94773785E0E6ECF9E0DE0119
:1030E000A855BF4F01900D928A95E1F780E1E8EA7B
:1030F000F0E0EC0FFD1F3596DF011D928A95E9F790
:103100004AE0BE0167537F4F83E090E00E94623245
:1031100065E170E0CE0188559F4F0E94573204E16F
:1031200010E0A801481B590BBE0167537F4FCE0129
:1031300088559F4F0E94673765E170E0CE01885542
:103140009F4F0E945732A801481B590B67E17BE053
:10315000CE0188559F4F0E94673745E150E0BE0180
:1031600068557F4F80E790E08C0F9D1F83960E94EB
:1031700077378EEF92E1CC57DF4F99838883C4581D
:10318000D040B601CE0101960E94800EB701CE015B
:1031900083549F4F0E941D0FAE0140595F4FBE01E7
:1031A0006F5F7F4FCE0183549F4F0E943C17E19683
:1031B0001FAEE197B601CE0101960E94800EB701C5
:1031C000CE0188559F4F0E941D0FAE0140595F4FA1
:1031D000BE016F5F7F4FCE0188559F4F0E943E1406
:1031E000C553DF4F0FB6F894DEBF0FBECDBFDF91E2
:1031F000CF911F910F91FF90EF90DF90CF900895A6
:103200009F92AF92BF92CF92DF92EF92FF920F9375
:103210001F93CF93DF93CDB7DEB7A5970FB6F89482
:10322000DEBF0FBECDBF8C017B01BC01CE01449639
:103230000E941D0FCE0144960E94001040E060E005
:10324000CE0144960E94C30FB701695F7F4FCE0144
:1032500001960E946C13BE016F5F7F4FCE014496B2
:103260000E941605CE0101960E944C10BE016C5EB4
:103270007F4FCE0101960E941D0FCE0101960E9444
:10328000F20FF701268181E0233008F480E0F70196
:103290009181892391E0243008F490E0892BF70193
:1032A00082838823C1F042E062E1CE0144960E940D
:1032B000C30F67E272E0CE0144960E94A50F43E07F
:1032C00062E1CE0144960E94C30F64E272E0CE0137
:1032D00044960E94A50FB801CE0144960E941D0F8E
:1032E00001E010E083E1982E5701F4E1AF0EB11C2C
:1032F000F70184819801280F311D968192171306DA
:1033000008F458C0C02ED82ED00E402F60E0CE0159
:1033100044960E94C30F6D2DCE0180960E9493109B
:10332000BE01605E7F4FCE0144960E941605CE011D
:1033300080960E944C10402F61E0CE0144960E947E
:10334000C30F6EE272E0CE0144960E94A50FF70112
:10335000828140E1811101C043E150E02D2D2150D7
:10336000330B929EB001939E700D11246A0D7B1D4C
:10337000CE0101960E9477374C2D62E0CE01449633
:103380000E94C30FBE016F5F7F4FCE0180960E94E7
:103390006C13BE01605E7F4FCE0144960E941605FD
:1033A000CE0180960E944C100F5F1F4F0430110514
:1033B00009F09ECFF701858190E00196348121E0EC
:1033C0003817190609F020E081E00430110508F0F3
:1033D00080E0282B99F1F7018181882379F1402F32
:1033E00060E0CE0144960E94C30F6CE272E0CE0111
:1033F00044960E94A50F402F61E0CE0144960E94A2
:10340000C30F6AE272E0CE0144960E94A50F402FDE
:1034100062E0CE0144960E94C30F62E27BE0CE01DF
:1034200080960E946C13BE01605E7F4FCE01449671
:103430000E941605CE0180960E944C10A5960FB6EC
:10344000F894DEBF0FBECDBFDF91CF911F910F91DA
:10345000FF90EF90DF90CF90BF90AF909F90089536
:10346000DF92EF92FF920F931F93CF93DF93CDB72D
:10347000DEB7CF56D1090FB6F894DEBF0FBECDBF71
:103480007C018A01CE0101960E94800ECE01019638
:103490000E94D008D82E8FEFD8120AC08091BC03AA
:1034A0008F3F31F0F8015681851798F48F5F838341
:1034B000D092BC03C159DF4F0FB6F894DEBF0FBEE8
:1034C000CDBFDF91CF911F910F91FF90EF90DF90D3
:1034D00008953181332311F08A3049F3893069F03E
:1034E0008B3091F0B701CE0101960E941D0FB801FB
:1034F000CE0101960E940019DBCFF8018481882358
:1035000089F381508483EECFF8012581948181E095
:10351000291708F480E041E0533008F440E08423A8
:10352000832311F49217F0F69F5FF8019483DACFAA
:103530000F931F93CF93DF93CDB7DEB72C970FB6C2
:10354000F894DEBF0FBECDBF8B01BC01CE0101964A
:103550000E941D0FB801CE0101960E9400192C9601
:103560000FB6F894DEBF0FBECDBFDF91CF911F9194
:103570000F910895EF92FF920F931F93CF93DF93D4
:10358000CDB7DEB7CB57D1090FB6F894DEBF0FBE6B
:10359000CDBF8C017B018091E608882309F453C0DC
:1035A00062E37BE086EE98E00E946A0F43E150E020
:1035B0006EE37BE08AEF98E00E94773743E150E0CA
:1035C00066E47BE08DE099E00E94773743E150E0CC
:1035D00060E57BE080E299E00E94773743E150E0CC
:1035E0006EE57BE083E399E00E94773743E150E0AA
:1035F0006AE67BE086E499E00E94773743E150E099
:1036000064E77BE089E599E00E94773743E150E089
:1036100064E87BE08CE699E00E94773743E150E074
:1036200062E97BE082E999E00E947737B801CE0138
:1036300001960E941D0F66EE78E0CE0101960E9471
:10364000981A1092E608B701CE0101960E94800EEA
:10365000B801CE0180599F4F0E941D0F46EE58E0E1
:10366000BE016F5F7F4FCE0180599F4F0E94301A7D
:10367000C558DF4F0FB6F894DEBF0FBECDBFDF9148
:10368000CF911F910F91FF90EF900895EF92FF92CD
:103690000F931F93CF93DF93CDB7DEB7CB57D109ED
:1036A0000FB6F894DEBF0FBECDBF8C017B018091B9
:1036B0001408882399F169E97BE084E198E00E948D
:1036C0006A0F43E150E060EA7BE088E298E00E9404
:1036D000773743E150E06AEA7BE08BE398E00E94B1
:1036E000773743E150E064EB7BE08EE498E00E94A2
:1036F000773743E150E062EC7BE081E698E00E949E
:103700007737B801CE0101960E941D0F64E178E081
:10371000CE0101960E94981A10921408B701CE01AA
:1037200001960E94800EB801CE0180599F4F0E94E1
:103730001D0F44E158E0BE016F5F7F4FCE018059FD
:103740009F4F0E94301AC558DF4F0FB6F894DEBF66
:103750000FBECDBFDF91CF911F910F91FF90EF90E2
:1037600008952F923F924F925F926F927F928F9225
:103770009F92AF92BF92CF92DF92EF92FF920F9300
:103780001F93CF93DF93CDB7DEB7CA51D1400FB6A9
:10379000F894DEBF0FBECDBF8C016B015A01F22E33
:1037A000DA0112962D913C914901B4E08B1A9108EF
:1037B000E0916210F0916310E830F10510F00C9484
:1037C00051248827E951F44E8F4F0C942935EF1B73
:1037D0006A1CC01C451E701FAD1FF91F022080ED22
:1037E00097E0A0E0B0E08093E9079093EA07A09308
:1037F000EB07B093EC0788EE97E00E94730E11E0A0
:10380000109316071093DE061093A60610936E060B
:1038100010936D061092E1061092A906109271069F
:103820008FEF8093190710925E1010925F10109224
:10383000601010926110C5010E946B0AE4E0FE1650
:1038400009F445C0EF1558F0F2E0FF1659F123E0F6
:10385000F21671F18EEC9BE00E944D0F09C036E02C
:1038600081E090E03F15B0F3909363108093621075
:10387000C65EDE4F0FB6F894DEBF0FBECDBFDF9140
:10388000CF911F910F91FF90EF90DF90CF90BF905D
:10389000AF909F908F907F906F905F904F903F90F0
:1038A0002F90089510935F1082E380935E100CC0F8
:1038B00082E080935F1089E180935E10D5011296BB
:1038C0008D919C91059781F386E090E0CDCF83E0C8
:1038D00090E0CACF809116078823A9F16BED7BE0B9
:1038E00086E197E00E946A0F83E1E3EEFBE0B3E03C
:1038F0008B16910410F0E6EFFBE0DE0111960190CB
:103900000D928A95E1F743E150E0BE016F5F7F4F72
:103910008AE297E00E94773743E150E069E07CE07B
:103920008DE397E00E947737B801CE0180599F4F11
:103930000E941D0F66E177E0CE0180599F4F0E94E3
:10394000981A10921607B601CE0101960E94800EB9
:10395000B801CE0180599F4F0E941D0F46E157E0EC
:10396000BE016F5F7F4FCE0180599F4F0E94301A7A
:10397000809119078F3F09F47BCF82E090E074CFEC
:103980008091DE068823F1F0809119078130E1F102
:10399000823009F4C9C0B601CE0101960E94800EA2
:1039A000B801CE0184519F4F0E941D0F4EED56E08D
:1039B000BE016F5F7F4FCE0184519F4F0E943C1725
:1039C0001092DE06B601CE0101960E94800EB8016B
:1039D000CE0180599F4F0E941D0F4EED56E0BE0153
:1039E0006F5F7F4FCE0180599F4F0E943E148091A0
:1039F0001907813009F403C1823009F42BC181E930
:103A00009CE00E944D0F12C12230310589F048F42C
:103A10002130310509F465C08CE39CE00E944D0F14
:103A200019C02430310509F45CC025303105A1F7F7
:103A30004DE050E068E17CE0CE0181529F4F0E9452
:103A4000773745E150E06EE17CE0CE0180599F4F31
:103A50000E9477376DE070E0CE0181529F4F0E9447
:103A600057324CE050E0481B590BE3E08E169104AE
:103A700008F045C066E67DE0CE0181529F4F0E946E
:103A8000673765E170E0CE0180599F4F0E94573241
:103A900044E150E0481B590B67E67CE0CE018059B9
:103AA0009F4F0E9467371092E6068EE18093E706EB
:103AB0004DE050E0BE0161527F4F84EF96E00E94DE
:103AC000773745E150E0BE0160597F4F81E097E0D4
:103AD0000E9477378FE590E19093F3068093F2068A
:103AE0005ACF4DE050E069E27CE0CE0181529F4F19
:103AF0000E94773745E150E060E37CE0A6CF6EE6B8
:103B00007CE0CE0181529F4F0E94673765E170E0F3
:103B1000CE0180599F4F0E94573244E150E0481B2C
:103B2000590B64E77CE0BACF4DE050E06BE77CE0F6
:103B300084EF96E00E9477374AE0BE016C5F7E4FCB
:103B400081E090E00E9462324AE0BE0168507F4FFF
:103B500082E390E00E94623245E150E063E87CE05D
:103B6000CE0180599F4F0E94773765E170E0CE010A
:103B700080599F4F0E94573224E1E22EF12CA70179
:103B8000481B590BBE016C5F7E4FCE0180599F4F81
:103B90000E94673765E170E0CE0180599F4F0E9417
:103BA0005732A701481B590B69E87CE0CE018059C8
:103BB0009F4F0E94673765E170E0CE0180599F4FAB
:103BC0000E945732A701481B590BBE0168507F4F16
:103BD000CE0180599F4F0E94673745E150E0BE01FA
:103BE00060597F4F81E097E00E94773781E08093B2
:103BF000E60682E38093E7068EE590E16DCF2091A3
:103C00005F1030E050E040E0F3E08F16910430F4B4
:103C10002150330B032E000C440B550B62E370E074
:103C200080E090E00E94073520935E108091E106CD
:103C3000882309F41DCED50112968D919C91823076
:103C4000910509F441CED0F4019709F440CE8EEAF3
:103C50009CE002CE20915E1030E050E040E062E354
:103C600070E080E090E00E94073533E08316910415
:103C700018F020935F10DACF2F5FFBCF84309105CF
:103C800009F425CE059719F71FCE8091A606882343
:103C900009F4DFC085E0E6ECF9E0DE01A059BF4F92
:103CA00001900D928A95E1F780E1E0E7F0E0EC0FFA
:103CB000FD1F3596DF011D928A95E9F72330310506
:103CC00079F040F42130310549F188E29DE00E940D
:103CD0004D0F21C02430310509F126303105A9F7F7
:103CE0004DE050E068EE7CE0CE0181529F4F0E9493
:103CF000773765E170E0CE0180599F4F0E945732BF
:103D000044E150E0481B590B60EF7CE0CE01805944
:103D10009F4F0E946737AFE0FA2E41C080915F103D
:103D2000803108F08FE04AE0BE0168507F4F90E09C
:103D30000E9462324DE050E069EF7CE0CE0181529A
:103D40009F4F0E94773765E170E0CE0180599F4F09
:103D50000E945732B4E1EB2EF12CA701481B590BFE
:103D6000BE0168507F4FCE0180599F4F0E94673738
:103D700065E170E0CE0180599F4F0E945732A70144
:103D8000481B590B6AEF7CE0CE0180599F4F0E947F
:103D90006737F0905F10BFE0BF1508F4BCCF6DE04F
:103DA00070E0CE0181529F4F0E9457324CE050E0AC
:103DB000481B590BE3E08E16910408F072C060E0D6
:103DC0007DE0CE0181529F4F0E94673765E170E030
:103DD000CE0180599F4F0E94573244E150E0481B6A
:103DE000590B67E67CE0CE0180599F4F0E946737F0
:103DF0004DE050E0BE0161527F4F8CEB96E00E9497
:103E0000773745E150E0BE0160597F4F89EC96E07D
:103E10000E947737F092AF0680E690E19093BB0660
:103E20008093BA06B601CE0101960E94800EB801B9
:103E3000CE0184519F4F0E941D0F46EA56E0BE01FD
:103E40006F5F7F4FCE0184519F4F0E943C171092AD
:103E5000A606B601CE0101960E94800EB801CE01E1
:103E600080599F4F0E941D0F46EA56E0BE016F5FCA
:103E70007F4FCE0180599F4F0E943E148091A9062A
:103E8000882309F4F5CCD50112968D919C9183304D
:103E9000910509F419CDD0F40197F9F08AE09DE07D
:103EA000DBCC65E07DE0CE0181529F4F0E946737F9
:103EB00065E170E0CE0180599F4F0E94573244E186
:103EC00050E0481B590B64E77CE08DCF84309105AE
:103ED00021F0069709F4F8CCE1CF84E090E0C4CC5F
:103EE00080916D06882379F0B801CE0101960E9479
:103EF0001D0FCE0101960E94FC1310926D0688EEF4
:103F000097E00E94730E0E94C703AB01BC01809131
:103F1000ED079091EE07A091EF07B091F0070091A7
:103F2000E9071091EA072091EB073091EC07800F29
:103F3000911FA21FB31F21E0481759076A077B078B
:103F400008F420E02093E807481759076A077B0721
:103F500008F48ECC85E090E087CC80916E068823B3
:103F600071F14DE050E06AE77AE084E896E00E9463
:103F700077378091601080937706B0E4AB0EB11C68
:103F8000B0928306A092820680915F10809378069B
:103F9000B601CE0101960E94800EB801CE01805973
:103FA0009F4F0E941D0F4EE656E0BE016F5F7F4F90
:103FB000CE0180599F4F0E943C1710926E06B601A9
:103FC000CE0101960E94800EB801CE0180599F4F0C
:103FD0000E941D0F4EE656E0BE016F5F7F4FCE017F
:103FE00080599F4F0E943E148091710681116CCCC4
:103FF0003FCC10925D100E945A020E94D30387E0CA
:1040000090E032CCCE0180599F4F0E94800EB801C3
:10401000CE0188509F4F0E941D0FF50142815381B0
:104020009A0124503109C15FDE4F39832883CF5074
:10403000D1402330310508F04EC420916110222375
:1040400009F449C48FEF820FA1E04630510509F40D
:1040500057C430E02F5F3F4F220F331F220F331F13
:104060001501220E331E90E00196880F991F880FCC
:10407000991FF501E80FF91FC95FDE4FF983E88347
:10408000C750D140A1E059C4D12C912C812CF10111
:1040900013811111E2C08091F107882309F45FC0F8
:1040A000F3E0FF1609F48EC0FF1558F022E0F21677
:1040B00019F187E99DE00E944D0F95C0DD24D3944E
:1040C000E6CF36E03F15A8F3C15FDE4F4881598146
:1040D000CF50D1404330510508F0B1C04DE050E021
:1040E00063E67DE0CE0181529F4F0E94773745E124
:1040F00050E06CE67DE073C04DE050E069E37DE0A8
:10410000CE0181529F4F0E94773745E150E060E435
:104110007DE0CE0101960E9477374DE050E0BE0170
:1041200061527F4F82EF97E00E94773745E150E080
:10413000BE016F5F7F4F8FEF97E00E947737BE0120
:1041400068507F4FCE0184519F4F0E941D0F6D2DEF
:10415000CE0184519F4F0E9481131092F107BE013E
:1041600060597F4FCE0101960E94800EBE016850BB
:104170007F4FCE0181529F4F0E941D0F02E310E03E
:10418000081919090F3F110519F010F00FEF10E091
:10419000ED2C2EE530E1A101BE016F5F7F4FCE0116
:1041A00081529F4F0E94D212DD2009F461CBE09131
:1041B0006110EA0DFB2DF11DE05CFF4F80915E1058
:1041C000808356CB4DE050E06FE47DE0CE0181521C
:1041D0009F4F0E94773745E150E065E57DE0CE01D5
:1041E00001960E9477378091611090E04AE0BE010D
:1041F0006C5F7E4F01960E94623265E170E0CE01F5
:1042000001960E94573204E110E0A801481B590BA7
:10421000BE016C5F7E4FCE0101960E94673765E15B
:1042200070E0CE0101960E945732A801481B590B3D
:1042300067E97AE0CE0101960E9467376ECF4DE0C4
:1042400050E06DE77DE0CE0181529F4F0E947737AD
:1042500045E150E066E87DE0C2CF21E02093F10720
:10426000E0905E102E2D30E0B0916110EB9E700159
:104270001124EB2FF0E0AF014F5F5F4FC15FDE4FC6
:1042800068817981CF50D14063307105C0F4BB2380
:1042900009F417C38330910569F03197E29FB001AB
:1042A000E39F700DF29F700D112467017B01863032
:1042B0009105A1F46401C20ED31E74010FC0429F88
:1042C0006001439FD00C529FD00C11248330910584
:1042D00019F08630910511F4B111ECCF60916010A6
:1042E0006417150681F07CF09C01235031092230BF
:1042F000310508F4B9C08630910509F4B5C021E054
:104300008130910509F020E070915F107417150657
:1043100049F044F0312F8230910529F031E08530A9
:10432000910509F030E0211103C0332309F4B9C02D
:104330008701000F111F0E0D1F1DF801E05AFD4EE1
:10434000AA2309F493C0005A1D4E5701C6018E19C5
:104350009F099C0150E040E0C55FDE4F2883398310
:104360004A835B83CB50D140AC14BD0408F091C0AC
:10437000B5016E197F0990E080E00E949C322B010C
:104380003C01C55FDE4F688179818A819B81CB507A
:10439000D1400E949C329B01AC01C301B2010E943A
:1043A00042342B013C01C95FDE4FA881B981C7505F
:1043B000D14012969C90F10162816919770B072E0A
:1043C000000C880B990B0E949E32A30192010E945F
:1043D000FD320E94B434690DC75FDE4F6883C95057
:1043E000D140C95FDE4FA881B981C750D140119635
:1043F0008C90F10161816819770B072E000C880BF6
:10440000990B0E949E32A30192010E94FD320E94EC
:10441000B434860EC95FDE4FA881B981C750D14040
:104420009C90F10160816919770B072E000C880BB5
:10443000990B0E949E32A30192010E94FD320E94BC
:10444000B434960ED8019C9211968C921197C75F46
:10445000DE4FE881C950D1401296EC93FFEFAF1ABE
:10446000BF0A0D5F1F4F80CF212F4ECFEC14FD04EC
:1044700080F4D10112968C91129711969C9111970C
:104480002C91208391838283BFEFEB1AFB0A339632
:10449000EDCF0E94D303809161108F5F80936110F4
:1044A000E7C9F50121812111D6C18330910519F0A9
:1044B000069709F0672F30E020E0462F50E0CB5EF2
:1044C000DE4F59834883C551D140B501645071090D
:1044D000CD5EDE4F79836883C351D140CB5EDE4F22
:1044E00088819981C551D1402817390708F0A3C1A7
:1044F00080915E1090E0289F7001299FF00C389FFA
:10450000F00C1124D9011196C75FDE4FB983A8833F
:10451000C950D1404C018E0C9F1CC15FDE4FE88119
:10452000F981CF50D140339720F52115310509F19C
:10453000880F991FA401481B590B012F47017A01CD
:10454000D50112968D919C9183309105D9F098F404
:104550008130910509F443C0029709F41BC189EC2D
:104560009DE015C1C75FDE4F28813981C950D14018
:10457000B5CF00E0E5CF8530910509F40BC178F1A6
:10458000069769F7C75FDE4F88819981C950D1408E
:10459000880F991F880F991F1C012A0C3B1C0023B0
:1045A00071F0CD5EDE4F68817981C351D140680FD3
:1045B000791FC95FDE4F79836883C750D140F50109
:1045C000E05CFF4F90E080E0F12CE12C28173907E8
:1045D00009F4FEC04191E40EF11C0196F7CFC75FCC
:1045E000DE4FE881F981C950D140EA0DFB1D87AD4E
:1045F000882309F4CAC0B4E08B9F100111242A0C4F
:104600003B1C002309F4F2C086ADE4E08E9FC0019C
:1046100011249501280F391FC95FDE4F3983288384
:10462000C750D140C701880F991F8E0D9F1DDC0117
:10463000A05ABD4EC55FDE4FB983A883CB50D14091
:10464000CF5EDE4FF982E882C151D140C4018E199C
:104650009F099C0150E040E0C95EDE4F288339830A
:104660004A835B83C751D140CF5EDE4F4881598179
:10467000C151D1404815590508F074CFBA016E19DF
:104680007F0990E080E00E949C322B013C01C95ED2
:10469000DE4F688179818A819B81C751D1400E9418
:1046A0009C329B01AC01C301B2010E9442342B0138
:1046B0003C01C95FDE4FA881B981C750D140129635
:1046C0000C91F1016281601B770B072E000C880BA7
:1046D000990B0E949E32A30192010E94FD320E941A
:1046E000B434060FC95FDE4FA881B981C750D140ED
:1046F0001196DC90F10161816D19770B072E000C8A
:10470000880B990B0E949E32A30192010E94FD32F8
:104710000E94B434D60EC95FDE4FA881B981C7505C
:10472000D140CC90F10160816C19770B072E000C01
:10473000880B990B0E949E32A30192010E94FD32C8
:104740000E94B434C60EC55FDE4FA881B981CB503C
:10475000D140CC921196DC92119712960C9312973D
:10476000CF5EDE4FE881F981C151D1403196CF5EF5
:10477000DE4FF983E883C151D1401396C55FDE4F08
:10478000B983A883CB50D1406FCF82EB9DE00E94CC
:104790004D0F2AC0C75FDE4F88819981C950D14033
:1047A000880F991F880F991F1C012A0C3B1C00239E
:1047B000E9F0CD5EDE4F48815981C351D140480FA9
:1047C000591FC95FDE4F59834883C750D1402ACF54
:1047D000C75FDE4FE881F981C950D140EA0DFB1D6A
:1047E00087AC8E0C9F2C911C01111CCFC15FDE4F3A
:1047F00028813981CF50D1402330310508F4B2CE21
:10480000F701EE0FFF1FEE0DFF1DE05AFD4EE814FD
:10481000F90408F0A7CED10112968C911297119647
:104820009C9111972C91208391838283BFEFEB1A87
:10483000FB0A3396ECCF0E94D303BE0168507F4F32
:10484000CE0101960E941D0FCE0101960E94091013
:1048500081E0F5018183BE0160597F4FCE01019651
:104860000E94800ECE0101960E94D0088F3FA9F4CD
:10487000E0916C06EF3F89F0F0E0E951F64F90814E
:10488000911103C091E0D5019C9380936C06109226
:104890006310109262100C94381C80936C060C9478
:1048A000381C87ED9DE00C942C1C8091611090E0E9
:1048B0000196880F991F880F991F1501280E391E20
:1048C00015C0CC24C394D12CF12CE12C833091055C
:1048D00009F0FFCC03CD4330510581F048F441305D
:1048E000510518F781E29DE00E944D0FA0E025C020
:1048F00046305105D0F246305105A1F780E0A0E0E6
:104900002091611030E02F5F3F4F220F331F220FA5
:10491000331F1501220E331EAA2379F090E0019671
:10492000880F991F880F991FA501480F591FC95F4C
:10493000DE4F59834883C750D140F501828193816E
:104940008330910549F08630910509F09DCB209187
:104950006110222309F498CB4091611050E0F501D9
:10496000E05CFF4F30E020E0912C812C24173507CC
:1049700008F0A4CB6191860E911C2F5F3F4FF6CFBC
:10498000CF92DF92EF92FF921F93CF93DF93CDB739
:10499000DEB7CB57D1090FB6F894DEBF0FBECDBF3F
:1049A000FA013FEF320F343020F546E050E022307C
:1049B00031F044E050E0243011F045E050E0538302
:1049C0004283122F7F016C01CE0101960E94800E5E
:1049D000B601CE0180599F4F0E941D0F22E0210F8A
:1049E000A701BE016F5F7F4FCE0180599F4F0E948C
:1049F000B11BC558DF4F0FB6F894DEBF0FBECDBF59
:104A0000DF91CF911F91FF90EF90DF90CF900895AD
:104A10002F923F924F925F926F927F928F929F92CE
:104A2000AF92BF92CF92DF92EF92FF920F931F93BC
:104A3000CF93DF93CDB7DEB7C654D1400FB6F8940D
:104A4000DEBF0FBECDBF6C018A01F22E26E02F150E
:104A500048F032E0F31638F541E0F41651F086E6FE
:104A60009EE0A4C057E0F51609F447C089E0F812AB
:104A7000F6CFCA5BDE4F0FB6F894DEBF0FBECDBFD8
:104A8000DF91CF911F910F91FF90EF90DF90CF902A
:104A9000BF90AF909F908F907F906F905F904F905E
:104AA0003F902F90089594E0F91208C083E090E0C1
:104AB000D80113969C938E9312970AC0B6E082E0B9
:104AC00090E0FB12F5CF81E090E0FA0193838283BE
:104AD000CE0101960E94800EB601CE0180599F4FF3
:104AE0000E941D0F2F2DA801BE016F5F7F4FCE01C9
:104AF00080599F4F0E94B11BBCCF8AE090E0F80123
:104B000093838283CE0180599F4F0E94800EB6010D
:104B1000CE0193950E941D0F9E012C5C3E4FC15CFF
:104B2000DE4F39832883CF53D14068E0D901E62F87
:104B30001D92EA95E9F728503109D901E62F1D9217
:104B4000EA95E9F7AE014C5D5E4FDA01E62F1D9262
:104B5000EA95E9F74E01F4EE8F1AFEEF9F0AD401B1
:104B6000E62F1D92EA95E9F7DE01AC5EBE4FFD012E
:104B7000862F11928A95E9F7CE01845F9E4FFC0142
:104B800011926A95E9F760915B1070915C10623048
:104B9000710509F4D0C068F46115710509F46CC0A1
:104BA0006130710509F47CC089E59EE00E944D0FDB
:104BB00060CF6330710509F456C164307105A1F707
:104BC000F801618161116FC2C580D12CB12CA12C7B
:104BD000FF24FA94F3E3CF16D10408F055C2C501BF
:104BE000880F991F8A0D9B1D9C01205A3D4ECF5B5B
:104BF000DE4F39832883C154D1404501C6018A194B
:104C00009B099C0150E040E0CD5BDE4F2883398357
:104C10004A835B83C354D1408C149D0408F02DC299
:104C2000B4016A197B0990E080E00E949C322B015C
:104C30003C01CD5BDE4F688179818A819B81C354C1
:104C4000D1400E949C329B01AC01C301B2010E9481
:104C500042342B013C01D80114968C91813009F427
:104C60000BC1823009F4C8C18EE39EE00E944D0F53
:104C7000412C512C320153C181E080939A058093DD
:104C80006205109265058FEF80939D05C8010E9413
:104C90006B0A81E090E090935C1080935B10E9CE0A
:104CA00080919A05882321F16FE07EE08AE995E002
:104CB0000E946A0F43E150E06BE17EE08EEA95E0EE
:104CC0000E94773743E150E063E27EE081EC95E0BB
:104CD0000E947737BE017395CE0101960E941D0F89
:104CE0006AE975E0CE0101960E94981A10929A0521
:104CF000BE0160597F4FCE0101960E94800EBE0119
:104D00007395CE0181529F4F0E941D0F4AE955E0D5
:104D1000BE016F5F7F4FCE0181529F4F0E94301ABC
:104D200080919D058F3F09F4A4CED80114968C93F1
:104D300082E090E0B0CF80916205882309F473C0CF
:104D40004DE050E06BE27EE088E795E00E94773727
:104D500085E0E6ECF9E0DE01A152BF4F01900D9233
:104D60008A95E1F780E1EFEDF0E0EC0FFD1F35965D
:104D7000DF011D928A95E9F74AE0BE01645C7E4F2F
:104D800082E390E00E94623265E170E0CE018152E0
:104D90009F4F0E94573234E1E32EF12CA701481BAC
:104DA000590BBE01645C7E4FCE0181529F4F0E9421
:104DB000673765E170E0CE0181529F4F0E94573204
:104DC000A701481B590B67E37EE0CE0181529F4F3C
:104DD0000E94673745E150E0BE0161527F4F85E890
:104DE00095E00E9477370B5F1F4F10937705009374
:104DF0007605BE0160597F4FCE0101960E94800E5C
:104E0000BE017395CE018C509F4F0E941D0F42E64C
:104E100055E0BE016F5F7F4FCE018C509F4F0E94C7
:104E20003C1710926205BE0160597F4FCE0101967A
:104E30000E94800EBE017395CE0181529F4F0E9449
:104E40001D0F42E655E0BE016F5F7F4FCE018152DC
:104E50009F4F0E943E1480916505882309F409CE76
:104E600083E090E018CF10925D100E945A020E94D9
:104E7000D30384E090E00FCF2BEA3AEA4AEA5EE3FC
:104E8000C301B2010E94973287FF1BC0CB5CDE4F8B
:104E9000F882C553D140C85CDE4FF882C853D14078
:104EA00088E0FE01EC5CFE4FA3E5B0E101900D92BD
:104EB0008A95E1F720E030E040E450E4C301B2011C
:104EC0002AC02BEA3AEA4AE25FE3C301B2010E9438
:104ED000973287FF78C0C25DDE4FF882CE52D14054
:104EE000CF5CDE4FF882C153D14088E0FE01E45D23
:104EF000FE4FA3E5B0E101900D928A95E1F72BEA10
:104F00003AEA4AEA5EE3C301B2010E94D53320E0E7
:104F100030E040E450E40E94FD322B013C01E0907F
:104F20005910609155106E19770B072E000C880BE5
:104F3000990B0E949E32A30192010E94FD320E94B1
:104F4000B434E60E30905810609154106319770B0A
:104F5000072E000C880B990B0E949E32A301920130
:104F60000E94FD320E94B434360E2090571060919A
:104F700053106219770B072E000C880B990B0E94B7
:104F80009E32A30192010E94FD320E94B434260E8B
:104F9000CF5BDE4FE881F981C154D140208231825C
:104FA000E282FFEF8F1A9F0ACF5BDE4F28813981A3
:104FB000C154D1402D5F3F4FCF5BDE4F39832883F3
:104FC000C154D14029CECC5DDE4FF882C452D140CD
:104FD000C65DDE4FF882CA52D14088E0FE01EC5D2A
:104FE000FE4FA3E5B0E101900D928A95E1F72BEA1F
:104FF0003AEA4AE25FE387CF2BEA3AEA4AEA5EE31B
:10500000C301B2010E94973287FF0FC0C25EDE4F1C
:10501000F882CE51D140C05EDE4FF882C052D140FE
:1050200088E0FE01E45EFE4F3FCF2BEA3AEA4AE217
:105030005FE3C301B2010E94973287FF0FC0CB5ECE
:10504000DE4FF882C551D140C65EDE4FF882CA51AC
:10505000D14088E0FE01EC5EFE4F4BCFC45FDE4FD7
:10506000F882CC50D140CF5EDE4FF882C151D140A2
:1050700088E0FE01E45FFE4FB4CFD80115968C9115
:105080005601C80ED11CA6CD0E94D303BE01739554
:10509000CE0101960E941D0FCE0101960E940910BB
:1050A00081E0F8018183BE0160597F4FCE010196F6
:1050B0000E94800ECE0101960E94D0088F3F89F495
:1050C000E0916105EF3F69F0F0E0E951F64F908122
:1050D000911103C091E0D8019C9310925C10109242
:1050E0005B1080936105C5CCEF92FF920F931F93E5
:1050F000CF93DF93CDB7DEB7CB57D1090FB6F89476
:10510000DEBF0FBECDBF8C017B0180918F04882351
:1051100099F166E77EE08FE894E00E946A0F43E130
:1051200050E060E87EE083EA94E00E94773743E154
:1051300050E06CE87EE086EB94E00E94773743E134
:1051400050E06AE97EE089EC94E00E94773743E121
:1051500050E069EA7EE08CED94E00E947737B80178
:10516000CE0101960E941D0F6FE874E0CE010196FA
:105170000E94981A10928F04B701CE0101960E94E6
:10518000800EB801CE0180599F4F0E941D0F4FE83D
:1051900054E0BE016F5F7F4FCE0180599F4F0E9448
:1051A000301AC558DF4F0FB6F894DEBF0FBECDBF23
:1051B000DF91CF911F910F91FF90EF900895EF92A3
:1051C000FF920F931F93CF93DF93CDB7DEB7CB57EB
:1051D000D1090FB6F894DEBF0FBECDBF8C017B01A5
:1051E0008091BD03882309F45BC069EB7EE08DEB01
:1051F00093E00E946A0F43E150E06EE37BE081EDB3
:1052000093E00E94773743E150E061EC7EE084EE6A
:1052100093E00E94773743E150E060E87EE087EF5B
:1052200093E00E94773743E150E06DEC7EE08AE046
:1052300094E00E94773743E150E06AED7EE08DE133
:1052400094E00E94773743E150E069EE7EE080E32E
:1052500094E00E94773743E150E069EF7EE083E419
:1052600094E00E94773743E150E061E07FE086E51B
:1052700094E00E94773743E150E062E97BE089E601
:1052800094E00E947737B801CE0101960E941D0F6D
:105290006DEB73E0CE0101960E94981A1092BD0347
:1052A000B701CE0101960E94800EB801CE0180594F
:1052B0009F4F0E941D0F4DEB53E0BE016F5F7F4F6C
:1052C000CE0180599F4F0E94301AC558DF4F0FB64C
:1052D000F894DEBF0FBECDBFDF91CF911F910F912C
:1052E000FF90EF900895CF92DF92EF92FF920F938D
:1052F0001F93CF93DF93CDB7DEB7C65FD1090FB64B
:10530000F894DEBF0FBECDBF90915B0F992309F4D7
:10531000CFC22091EB022F3F41F0792F2A3031F09C
:1053200071E08091EE02821708F070E0809119021E
:105330008F3F41F0692F8A3031F061E030911C02DB
:10534000381708F060E08091C0038F3F41F0592F7B
:105350008A3031F051E03091C303381708F050E043
:10536000809192048F3F41F0492F8A3031F041E023
:1053700030919504381708F040E08091E9088F3F9C
:1053800041F0392F8A3031F031E0E091EC08E81734
:1053900008F030E0E0915C0FE850F1E0E73F08F002
:1053A000F0E0E0911708EF3F39F0EA3031F091E09A
:1053B00080911A088E1708F090E0235081E0243085
:1053C00008F080E08F2B872B862B852B842B832B5B
:1053D00009F491110E94260E8091EB028F3F09F093
:1053E00092C064EC73E1CE0180599F4F0E94800E01
:1053F00068EB73E1CE0185519F4F0E941D0F809194
:10540000E802882309F445C06AE07FE088EE92E074
:105410000E946A0F43E150E065E17FE08CEF92E08B
:105420000E94773743E150E068EC7BE08FE093E047
:105430000E94773743E150E06CE17FE082E293E045
:105440000E94773743E150E061E27FE085E393E03B
:105450000E94773743E150E067E27FE088E493E021
:105460000E94773743E150E060E37FE08BE593E013
:105470000E947737BE0165517F4FCE0101960E9491
:105480001D0F68EE72E0CE0101960E94981A1092EC
:10549000E802BE0160597F4FCE0101960E94800E46
:1054A000BE0165517F4FCE0181529F4F0E941D0F5B
:1054B00048EE52E0BE016F5F7F4FCE0181529F4F99
:1054C0000E94301A80915D10882369F064EC73E1CA
:1054D000CE0101960E94800E68EB73E1CE018059E7
:1054E0009F4F0E941D0FCA50DF4F0FB6F894DEBFCA
:1054F0000FBECDBFDF91CF911F910F91FF90EF9025
:10550000DF90CF9008958130E1F08230D9F680911C
:1055100017088F3FB9F664EC73E1CE0101960E9443
:10552000800E68EB73E1CE0180599F4F0E941D0FE2
:10553000BE016F5F7F4FCE0180599F4F0E94461B77
:10554000C1CF909119029F3F09F049C064EC73E10B
:10555000CE0180599F4F0E94800E68EB73E1CE010F
:1055600085519F4F0E941D0F80911602882329F1BB
:1055700067E37FE086E192E00E946A0F43E150E03A
:105580006FE37FE08AE292E00E94773743E150E0E8
:1055900066E47FE08DE392E00E947737BE016551BB
:1055A0007F4FCE0101960E941D0F66E172E0CE0191
:1055B00001960E94981A10921602BE0160597F4F00
:1055C000CE0101960E94800EBE0165517F4FCE0133
:1055D00081529F4F0E941D0F46E152E06BCF9130E8
:1055E000F1F0923009F06ECF9091E9089F3F09F0F9
:1055F00094C064EC73E1CE0101960E94800E68EBCA
:1056000073E1CE0180599F4F0E941D0FBE016F5F55
:105610007F4FCE0180599F4F0E94BA1A53CF1091ED
:10562000C0031F3FB1F464EC73E1CE0101960E9408
:10563000800E68EB73E1CE0180599F4F0E941D0FD1
:10564000BE016F5F7F4FCE0180599F4F0E94DF28C0
:1056500039CF1830F1F5109192041F3FB1F464EC8A
:1056600073E1CE0101960E94800E68EB73E1CE01DA
:1056700080599F4F0E941D0FBE016F5F7F4FCE016B
:1056800080599F4F0E9474281DCF1A3009F41ACFF9
:1056900080917010882321F08AE08093920412CFC9
:1056A00064EC73E1CE0101960E94800E68EB73E119
:1056B000CE0180599F4F0E941D0F212F40E750E1DE
:1056C000BE016F5F7F4FCE0180599F4F0E94C02463
:1056D000F9CE1A3009F4F6CE80917010882321F0AB
:1056E0008AE08093C003EECE64EC73E1CE010196B4
:1056F0000E94800E68EB73E1CE0180599F4F0E949B
:105700001D0F212F40E750E1BE016F5F7F4FCE019B
:1057100080599F4F0E940825D5CE2091FE122F3F21
:10572000D9F49330B1F464EC73E1CE0101960E9498
:10573000800E68EB73E1CE0180599F4F0E941D0FD0
:10574000BE016F5F7F4FCE0180599F4F0E9421188D
:10575000B9CE8093FE12B6CE9091001391119AC0EB
:105760000091C0030F3FF9F464EC73E1CE010196A0
:105770000E94800E68EB73E1CE0180599F4F0E941A
:105780001D0FBE016F5F7F4FCE0180599F4F0E945A
:10579000DF2881E02091FE129091FF12291380E012
:1057A000809300138FCE083009F049C00091920415
:1057B0000F3FB1F464EC73E1CE0101960E94800EBC
:1057C00068EB73E1CE0180599F4F0E941D0FBE010F
:1057D0006F5F7F4FCE0180599F4F0E947428D9CFB1
:1057E0000A30B9F21091FF129CE7F92EF19EF001F8
:1057F0001124E059FF4E8081882329F041E0410FB8
:105800004093FF12C6CF64EC73E1CE0101960E9473
:10581000800E68EB73E1CE0180599F4F0E941D0FEF
:105820001F9DA001112440595F4E202FBE016F5FC4
:105830007F4FCE0180599F4F0E94C024AACF0A30CB
:1058400009F4A7CF1091FF128CE7F82EF19EF0011A
:105850001124E059FF4E80818111D0CF64EC73E1B7
:10586000CE0101960E94800E68EB73E1CE01805953
:105870009F4F0E941D0F1F9DA001112440595F4E94
:10588000202FBE016F5F7F4FCE0180599F4F0E9436
:1058900008257FCF9FEF9093FE12909101139923DB
:1058A00021F08AE08093E9080DCE80935D100ACE46
:1058B00010915A0F112309F431C1809115028823E8
:1058C00091F084E190E0A0E0B0E080930D0290932D
:1058D0000E02A0930F02B09310028CE092E00E949F
:1058E000730E109215020E94C703AB01BC01809198
:1058F000110290911202A0911302B0911402009132
:105900000D0210910E0220910F0230911002800FB3
:10591000911FA21FB31F21E0481759076A077B0791
:1059200008F420E020930C02481759076A077B0708
:1059300008F4D9CD80910A02882309F446C08CE28C
:1059400091E0A0E0B0E08093020290930302A09364
:105950000402B093050281E092E00E94730E88EB8E
:1059600093E10E94001040E060E088EB93E10E9428
:10597000C30F6FE072E088EB93E10E94A50F41E056
:1059800062E088EB93E10E94C30F6FEF71E088EB58
:1059900093E10E94A50F42E067E088EB93E10E944B
:1059A000C30F68EF71E088EB93E10E94A50F43E01D
:1059B00060E088EB93E10E94C30F63EE71E088EB37
:1059C00093E10E94A50F10920A028091590F863030
:1059D00008F461C0FF24FA94F09200021091520F73
:1059E0008091590F181708F094C00E94C703AB01AB
:1059F000BC018091060290910702A0910802B0912B
:105A00000902C0900202D0900302E0900402F090DC
:105A100005028C0D9D1DAE1DBF1D21E048175907C5
:105A20006A077B0708F420E02093010280910102BD
:105A30008823A9F067E0610F42E088EB93E10E94C0
:105A4000C30F61EE71E088EB93E10E94A50F81E046
:105A500092E00E94730E81E0810F8093520F80913B
:105A6000520F863008F43FCD11E010930A021092D5
:105A7000590F1092520F66E083E59FE00E9489085B
:105A80006B3E74418840910509F02DCD10935B0F5A
:105A90000E94260E28CD64EC73E1CE0101960E948F
:105AA000800ECE0101960E94D008F82E2FEF8213AF
:105AB00093CF009100026091590F0F3F09F48ACFF4
:105AC00010E0E62FF0E0ED5AF04FD801A951B64FA3
:105AD0008C918083695F42E088EB93E10E94C30F61
