:020000040000FA
:100000000C9400020C9431020C9431020C943102D5
:100010000C9431020C9431020C9431020C94310294
:100020000C9431020C9431020C9431020C94310284
:100030000C9431020C9431020C9431020C94310274
:100040000C9431020C9431020C9431020C94310264
:100050000C9431020C9431020C9431020C94A330B4
:100060000C9431020C9417310C94ED300C94310245
:100070000C9431020C9431020C9431020C94310234
:100080000C9431020C9431020C9431020C94310224
:100090000C9431020C9431020C9431020C944D31C9
:1000A0000C9431020C9431020C9431020C94310204
:1000B0000C9431020C9431020C9431020C943102F4
:1000C0000C9431020C9431020C9431020C943102E4
:1000D0000C9431020C9431020C9431020C943102D4
:1000E0000C9431020C94E40D0C9464020C94630E95
:1000F0000C94F3020C9401030C9483020C94E00220
:100100000C940E040C94ED020C940E030C94470412
:100110000C9405030C94D8020C940A070C945023F9
:100120000C9422090C9413040C9405230C9445118F
:100130000C943E070C94DC020C943E0F0C94E706E2
:100140000C9413030C946A040C9426090C94110764
:100150000C94D4020C947C0D0C9459230C94F7024B
:100160000C945D0E0C94411F0C9411200C943D0FC7
:100170000C9496210C940F030C9470020C940D04B3
:100180000C942A090C94790D0C94DB100C945604F1
:100190000C94E3020C941F0B0C94CE020C9471325D
:1001A0000C94C1220C9450020C94600E0C94FD042B
:1001B0000C94FB020C940F040C9409030C94780427
:1001C0000C94F7060C94E9020C9487020C94B0048A
:1001D0000C94E8060C94BB1F0C944E050C947E0DF9
:1001E00048483A4D4D20414D002A002A2A2A2A2A01
:1001F0002A2A2A2A2A2A2A2A2A2A2A2A2A2A2A0089
:100200005F5F5F5F5F5F00456E7465722050617372
:1002100073776F72643A002A2A2A2A2A2A2A2A2AFB
:100220002A2A2A2A2A2A2A2A2A2A2A002376002A3D
:100230005E002D0030002D005F005F005F5F5F00FB
:1002400050726573732027302720696620646F6EB3
:10025000652E00202020202020636F6E74696E754B
:1002600065002020507265737320616E79206B6584
:100270007920746F004D4F4E4441592B2B20536D04
:1002800061727421204C454473002A2A2A2A2A2AA2
:100290002A2A2A2A2A2A2A2A2A2A2A2A2A2A000012
:1002A000002100240027002A002D00300033000127
:1002B000010000040107010A0100002200250028B6
:1002C000002B002E0031003400020100000501085F
:1002D000010B01000020002300260029002C002F24
:1002E00000320000010000030106010901050505B7
:1002F00005070508080808020202020A0A0808049D
:1003000004040401010101010101010303030303CA
:10031000030303040707070C0C0C0C0C0C0C0C0259
:1003200002020206060606060606060B0B0B0B0B60
:100330000B0B0B0102102020080810204010204059
:100340008002010201080402010102040810204099
:1003500080804020100804020180040201804020B7
:1003600010080402010804020101020408102040E0
:1003700080010204081020408000000A0B02090CD2
:100380000D0E08070304010000000000000000003B
:10039000000000000000000000000000000000005D
:1003A000000000000012111000000000000000001A
:1003B00000000000000000000000000000000052EB
:1003C0003A205F5F5F20473A205F5F5F20423A201C
:1003D0005F5F5F004E756D626572206F66204C45F1
:1003E00044733A205F5F5F00523A205F5F5F2047AF
:1003F0003A205F5F5F20423A205F5F5F000071320A
:1004000011241FBECFEFD1E2DEBFCDBF00E00CBF95
:1004100025E1A6E1B0E101C01D92AD31B207E1F7DF
:1004200010E1A0E0B2E0E2E1F5E700E00BBF02C0BE
:1004300007900D92A631B107D9F711E0C0E0D2E0E4
:1004400000E006C021970109802FFE010E943E387E
:10045000CF3FD10780E00807A9F70E943B330C94F7
:10046000873A0C94000010923B1110923C11E091DD
:100470003D11F0913E113197EA30F10508F047C087
:100480008827EA5BFD4F8F4F0C943E385002640280
:1004900070025002640270028702870287028302A0
:1004A000EBE3F1E11782148215821682349681E122
:1004B000E737F807B9F7EBE7F1E189E991E1119244
:1004C0008E179F07E1F70895EBE3F1E1178214829D
:1004D00015821682349681E1E33BF807B9F7089557
:1004E000EBE3F1E11782148215821682349681E1E2
:1004F000E737F807B9F7EBE7F1E1119281E1EA3864
:10050000F807D9F7089510923F11109240110895FD
:1005100020E0DC0160FF03C001C02D932D936250E9
:10052000E0F77040D0F70895CF93DF93C091E213C6
:10053000D091E313209789F08A819B81009749F03D
:100540002D853E85B901660F771F620F731F0E94CC
:1005500088020C80DD81C02DEDCFDF91CF91089511
:100560008150823108F05AC0E82FF0E08827E45427
:10057000FD4F8F4F0C943E38DC02E002CE02D402D5
:10058000D8020E03E302E902ED02F302F702FB02D6
:10059000010305030E0309030F0313038091800079
:1005A0008F77809380000895809180008F7DF9CFB0
:1005B00080918000877FF5CF84B58F7784BD0895C3
:1005C00084B58F7DFBCF8091B0008F778093B00092
:1005D00008958091B0008F7DF9CF809190008F7742
:1005E000809390000895809190008F7DF9CF809145
:1005F0009000877FF5CF8091A0008F778093A00037
:1006000008958091A0008F7DF9CF8091A000877F11
:10061000F5CF809120018F778093200108958091FC
:1006200020018F7DF9CF80912001877FF5CFCF9377
:10063000DF93282F30E0F901E758FC4F8491F9014E
:10064000ED5CFC4FD491F901E351FD4FC491CC23F3
:10065000A1F081110E94B002EC2FF0E0EE0FFF1F1D
:10066000ED52FD4FA591B491EC91ED2381E090E026
:1006700009F480E0DF91CF91089580E090E0FACF17
:100680001F93CF93DF93282F30E0F901E758FC4FF9
:100690008491F901ED5CFC4FD491F901E351FD4FD8
:1006A000C491CC23A9F0162F81110E94B002EC2F27
:1006B000F0E0EE0FFF1FE754FD4FA591B4918FB707
:1006C000F894EC91111108C0D095DE23DC938FBF14
:1006D000DF91CF911F910895DE2BF8CFCF93DF9359
:1006E00090E0FC01ED5CFC4F249183519D4FFC0197
:1006F00084918823C9F090E0880F991FFC01E1568E
:10070000FD4FA591B491FC01E754FD4FC591D491E3
:1007100061110DC09FB7F8948C91209582238C9322
:100720008881282328839FBFDF91CF91089562306D
:1007300051F49FB7F8943C91822F809583238C933A
:10074000E8812E2BEFCF8FB7F894EC912E2B2C93C2
:100750008FBFEACF3FB7F89480912611909127116F
:10076000A0912811B091291126B5A89B05C02F3F53
:1007700019F00196A11DB11D3FBFBA2FA92F982FC7
:100780008827BC01CD01620F711D811D911D42E0C2
:10079000660F771F881F991F4A95D1F708958F928A
:1007A0009F92AF92BF92CF92DF92EF92FF924B0156
:1007B0005C010E94AA036B017C010E94AA036C19D0
:1007C0007D098E099F09683E734081059105A8F354
:1007D00021E0821A9108A108B10888EEC80E83E0D2
:1007E000D81EE11CF11C81149104A104B10429F765
:1007F000FF90EF90DF90CF90BF90AF909F908F9041
:1008000008952FB7F894609122117091231180916F
:100810002411909125112FBF089508950895FC018A
:10082000848590E00895AF92BF92CF92DF92EF92CD
:10083000FF920F931F93CF93DF936C017B018B018A
:10084000040F151FEB015E01AE18BF08C017D107DA
:1008500059F06991D601ED91FC910190F081E02D64
:10086000C6011995892B79F7C501DF91CF911F91A9
:100870000F91FF90EF90DF90CF90BF90AF900895D1
:10088000FB0144815581608171810C941304FC014A
:10089000538D448D252F30E0842F90E0821B930BE5
:1008A000541710F0CF96089501970895FC01918D8B
:1008B000828D981761F0A28DAE0FBF2FB11D5D968E
:1008C0008C91928D9F5F9F73928F90E008958FEF30
:1008D0009FEF0895FC01918D828D981731F0828DE4
:1008E000E80FF11D858D90E008958FEF9FEF08953B
:1008F000FC01918D228D892F90E0805C9F4F821B9F
:1009000091098F739927089588EE93E10E947804E6
:1009100021E0892B09F420E0822F0895FC01A48DA9
:10092000A80FB92FB11DA35ABF4F2C91848D90E011
:1009300001968F739927848FA689B7892C93A089F4
:10094000B1898C91837080648C93938D848D98137E
:1009500006C00288F389E02D80818F7D8083089511
:10096000EF92FF920F931F93CF93DF93EC0181E0FF
:10097000888F9B8D8C8D98131AC0E889F9898081A6
:1009800085FF15C09FB7F894EE89FF896083E889D9
:10099000F98980818370806480839FBF81E090E0CB
:1009A000DF91CF911F910F91FF90EF900895F62E58
:1009B0000B8D10E00F5F1F4F0F731127E02E8C8DF2
:1009C0008E110CC00FB607FCFACFE889F989808137
:1009D00085FFF5CFCE010E948E04F1CFEB8DEC0F99
:1009E000FD2FF11DE35AFF4FF0829FB7F8940B8F54
:1009F000EA89FB8980818062CFCFCF93DF93EC01BE
:100A0000888D8823B9F0AA89BB89E889F9898C91F6
:100A100085FD03C0808186FD0DC00FB607FCF7CFB2
:100A20008C9185FFF2CF808185FFEDCFCE010E94B2
:100A30008E04E9CFDF91CF91089580E090E0892B7B
:100A400029F00E94840481110E94000080E090E05F
:100A5000892B49F080E090E0892B29F00E9400006A
:100A600081110E94000080E090E0892B49F080E035
:100A700090E0892B29F00E94000081110E94000063
:100A800080E090E0892B49F080E090E0892B29F00C
:100A90000E94000081110C940000089581E090E014
:100AA00008954F925F926F927F928F929F92AF9232
:100AB000BF92CF92DF92EF92FF920F931F93CF934B
:100AC000DF9300D0CDB7DEB76A0119821A821B828C
:100AD0008823C9F18B01E1E0F0E0482E512C712C04
:100AE000612CD8012D918D01222349F17F01B1E0C4
:100AF000EB1AF108D601AE0DBF1D8C908820F9F0DD
:100B000030E050E040E02F5F3F4F4F4F5F4FC30159
:100B1000B2010E94C5379B01AC01912CB12CA12CD4
:100B2000C501B4016F5F7F4F8F4F9F4F0E94C53744
:100B3000A1E0B0E0AC0FBD1FAE0DBF1D8C93319690
:100B4000E430F10571F669817A818B810F900F9005
:100B50000F90DF91CF911F910F91FF90EF90DF9059
:100B6000CF90BF90AF909F908F907F906F905F904D
:100B70004F900895CF92DF92EF92FF920F931F93C1
:100B8000CF93DF93F090851480918814909189140D
:100B9000A0918A14B0918B14892B8A2B8B2BD9F0BE
:100BA0000E94AA030091E4131091E5132091E6132B
:100BB0003091E713601B710B820B930B009188142B
:100BC0001091891420918A1430918B146017710749
:100BD00082079307C8F20E94AA036093E4137093FC
:100BE000E5138093E6139093E713E0919014F0914E
:100BF0009114309759F040918C1450918D1460915C
:100C00008E1470918F148F2D1995F82EC091E213C8
:100C1000D091E313209721F1EC8480918614909178
:100C200087148436910508F41C86E881F981C28016
:100C3000D380AE01475F5F4FBE016A5F7F4F8F2D4C
:100C40000E9451058B01282F4D855E856A817B812D
:100C5000CE01F6011995EC860C80DD81C02DDACF2E
:100C60008091E0139091E113EC012196D093E11370
:100C7000C093E0134997E4F10E9401040091DC1352
:100C80001091DD132091DE133091DF136B017C0195
:100C9000C01AD10AE20AF30AA7019601211531050B
:100CA0004105510521F421E030E040E050E088EEBC
:100CB00093E0C89FB001C99F700DD89F700D11249B
:100CC000072E000C880B990B0E94FD373093871478
:100CD000209386141092E1131092E0130E940104F5
:100CE0006093DC137093DD138093DE139093DF1316
:100CF000DF91CF911F910F91FF90EF90DF90CF90F8
:100D000008952091AD10260F3327331F213231056E
:100D1000ECF42091D110FC0190E080E0243069F0E7
:100D200082E00895A091AD102191AC0143575F4E30
:100D3000A40FB52FB11D2C930196861798F38091BF
:100D4000AD10680F6093AD1080E0089581E00895C4
:100D50001092D11081E08093D3101092D21061E0F4
:100D600084E10E94400361E085E10E944003E9EBD9
:100D7000F0E080818E7F808380818D7F808388E416
:100D80008093B80085E48093BC000895CF93DF93EF
:100D900091E090938C108823B9F0C091B800D09165
:100DA000BA008091BC008A7B8093BC0060E084E143
:100DB0000E94400360E085E10E9440030E94A80673
:100DC000D093BA00C093B800DF91CF9108950895F1
:100DD000E091201180911F11E81730F4F0E0E959FB
:100DE000FF4E808190E008958FEF9FEF08959091DE
:100DF000201180911F112FEF3FEF981748F4E92F32
:100E0000F0E0E959FF4E208130E09F5F9093201180
:100E1000C901089580911F1190912011891B990B90
:100E20000895CF92DF92EF92FF920F931F93CF938B
:100E3000DF937C01CB018A0120916610222389F087
:100E4000EB016B01C40ED51ECC15DD0569F069916F
:100E5000D701ED91FC910190F081E02DC70119952A
:100E6000F3CF642F0E948106C801DF91CF911F91BB
:100E70000F91FF90EF90DF90CF900895CF93DF9385
:100E80001F92CDB7DEB76983209166102223F9F057
:100E900020911D11203258F021E030E0FC01338315
:100EA000228390E080E00F90DF91CF9108958091B0
:100EB0001E11E82FF0E0EA5BFF4E998190838F5F6F
:100EC00080931E1180931D1181E090E0ECCF61E0D2
:100ED000CE0101960E948106F7CFCF92DF92EF926A
:100EE000FF920F931F93CF93DF93FC01C48121E006
:100EF00020936610C093451010921E1110921D1180
:100F00008385682B82E994E10E943E07D0911D11F0
:100F1000D13208F092C00E94AA036B017C0180913B
:100F2000D110811165C082E08093D11081E080935F
:100F3000D3108FEF8093D0101092F510D093F4104F
:100F4000A6E4B0E1E4EDF0E180E0D81385C01092B2
:100F5000F6108091F610CC0FC82BC093F61080913C
:100F6000D210813009F07CC01092D2100E94AA03E6
:100F70006B017C018091F6108093BB0080918810FA
:100F800090918910A0918A10B0918B10892B8A2B97
:100F90008B2B99F00E94AA03009188101091891060
:100FA00020918A1030918B106C197D098E099F0950
:100FB0000617170728073907E0F18091BC0083FD69
:100FC000D9CF85EC8093BC000E94AA036B017C0101
:100FD0008091D110823009F445C08091D0108F3FAC
:100FE00061F18091D010803241F18091D01025C004
:100FF0008091881090918910A0918A10B0918B10E7
:10100000892B8A2B8B2B09F48ACF0E94AA0300918B
:1010100088101091891020918A1030918B106C19D2
:101020007D098E099F09061717072807390708F059
:1010300076CF809187100E94C60610921E111092E2
:101040001D1110926610DF91CF911F910F91FF90AB
:10105000EF90DF90CF9008959D9191938F5F75CF22
:1010600085EEB0CF8091881090918910A0918A1060
:10107000B0918B10892B8A2B8B2B09F4A9CF0E945E
:10108000AA03009188101091891020918A10309144
:101090008B106C197D098E099F0906171707280701
:1010A000390708F095CFC5CFCF93DF93DC0126E059
:1010B000629FA00DB11D112490965C934E935F9793
:1010C00021E091962C939197FC01E359FF4F0190F9
:1010D000F081E02DEC01C459DF4F2881222341F03B
:1010E000309719F0DC01662329F0DF91CF91089544
:1010F0003097D9F35C968C91DF91CF911994CF9270
:10110000DF92EF92FF920F931F93CF93DF93EC0147
:10111000162F042FFC0186E0689FE00DF11D1124BD
:1011200011A2878D90A18130910509F180F0823064
:10113000910509F443C0039709F445C0DF91CF91AD
:101140001F910F91FF90EF90DF90CF90089544236F
:10115000A9F341E050E0CE010E9454080E9401042E
:10116000C85ADF4F688379838A839B83E7CF0E94C5
:101170000104FE01E85AFF4FC080D180E280F38075
:10118000AB01BC014C195D096E097F097296808123
:101190009181B0E0A0E084179507A607B70770F427
:1011A00042E050E0612FCE01DF91CF911F910F916E
:1011B000FF90EF90DF90CF900C94540843E050E004
:1011C0000111BCCFEFCF50E040E0ECCF8F929F9267
:1011D000AF92BF92CF92DF92EF92FF92CF93DF93C5
:1011E000EFEFE60FEC01C12CD12C7601EF3FE9F0D7
:1011F0008990912CB12CA12CF0E061E070E080E0AE
:1012000090E0FE1741F0AAE0B0E09B01AC010E9423
:101210009D36FF5FF6CFA50194010E94C537C60E2B
:10122000D71EE81EF91EE150E1CFC701B601DF91DC
:10123000CF91FF90EF90DF90CF90BF90AF909F90B5
:101240008F900895862F642F0C946E03862F642F41
:101250000C944003862F0C9417032F923F924F92C9
:101260005F926F927F928F929F92AF92BF92CF9236
:10127000DF92EF92FF920F931F93CF93DF93CDB73F
:10128000DEB72C970FB6F894DEBF0FBECDBF9C879C
:101290008B8784599F4F9A83898381E0A981BA8182
:1012A0008C930E940104EB85FC85E45AFF4FFC837C
:1012B000EB830081118122813381AB01BC01401B92
:1012C000510B620B730BEB85FC85E859FF4F808156
:1012D0009181B0E0A0E084179507A607B70708F052
:1012E00037C110E0CB84DC84F6E6CF0ED11CEB8452
:1012F000FC8422E6E20EF11CD6018C91181758F4FA
:10130000D701ED91FC91E10FF11D62E080810E9417
:101310006E031F5FF1CF312C4B845C84B7E64B0E1C
:10132000511CEB84FC84E4E6EE0EF11C812C912C24
:10133000540183942B853C852E593F4F3A8729874A
:10134000D2018C91381608F063C0032D10E0D7014C
:10135000ED91FC91E00FF11F61E080810E946E032E
:10136000D701ED91FC91E00FF11F60E080810E94B8
:101370004003D501C401032C04C0880F991FAA1F84
:10138000BB1F0A94D2F79E838D83FC01E095F095F4
:10139000F887EF83212CD6018C91281620F5622C3A
:1013A000712CA985BA85ED91FC91E60DF71D808120
:1013B0000E941703660C771CEB85FC85E60DF71D74
:1013C000892B51F4808591852D813E81822B932B31
:1013D000918780872394DFCF80859185AF81B88501
:1013E0008A239B23F5CFD701ED91FC91E00FF11FEC
:1013F00061E080810E944003F70180819181080FA4
:10140000191F60E0D8018C910E946E03339498CF2D
:101410000B851C85C801CC9678012FEF3FEFF701B3
:10142000478D50A1452B21F4148E368F258F11A2A4
:10143000F6E0EF0EF11CE816F90689F7A12C96E00C
:10144000392E8B849C8420E6820E911CD6018C91CF
:10145000A81608F05AC0B12C6A2C712CB4E06B0E9F
:10146000711C660C771CEB85FC856E0E7F1ED2010D
:101470008C91B81608F047C0F301408151810B2CC4
:1014800002C0569547950A94E2F7A89EC001112420
:101490008B0D911DEB85FC8560E0258D368D8217C7
:1014A000930709F473C06F5F36966A30B1F740FF57
:1014B00028C0EB85FC8570E060E0248D21111BC005
:1014C000369EF001379EF00D11242B853C85E20FEE
:1014D000F31FD4012D913C91D901A80FB91F2C9174
:1014E000248F968F858F10A2178E41E08B859C8567
:1014F0000E947F0806C06F5F7F4F36966A30710585
:10150000E1F6B394B4CFA394A1CFD12CF80181A17B
:101510008111D82E0A5F1F4FE016F106B9F70E941D
:101520000104AB81BC816D937D938D939C93139744
:10153000DD2071F0EB85FC8581A1882349F0878D42
:1015400090A1019729F4848D811106C08FEF05C009
:10155000A981BA811C92FACF81532C960FB6F894C8
:10156000DEBF0FBECDBFDF91CF911F910F91FF90D6
:10157000EF90DF90CF90BF90AF909F908F907F9033
:101580006F905F904F903F902F9008954170AECF35
:10159000FC01848180FF05C0128A84FF0AC0638B2E
:1015A000089581FF03C02695228BF7CF82FFF5CFE8
:1015B000FBCF85FF04C04695460F438B02C086FDD6
:1015C000FBCF08950F931F93CF93DF9320912E109D
:1015D0002F5F322F377030932E1020FF2BC020E862
:1015E00031FD2064347009F02062205FFC01EC01C1
:1015F000239600E011E06785662329F070E0C801BA
:101600000E94E9376F5F6187822F869F080E80E016
:10161000811D1124811110C01682662311F06150C2
:1016200061873196EC17FD0731F7DF91CF911F915C
:101630000F91089520E0D4CF81508683EECF4F9252
:101640005F927F928F929F92AF92BF92CF92DF92E2
:10165000EF92FF920F931F93CF93DF932C01EB0137
:101660000E94AA03F20126893789621B730B6A3034
:101670007105B0F3F8948A819B81181619060CF055
:10168000CDC1E881F9816EB1862E689484F83EB1AF
:101690003F7E3EB9D9848E812D2D281B822F2E832B
:1016A0004C85042E000C550BAA81BB817F85F888E0
:1016B000E9887F5FF394E3949F819884BA84AB8434
:1016C0001081C12C6C2D0C2D2C2D2081112788947C
:1016D0002111280F08F42FEF8195889470FD120FC7
:1016E0001795889471FD120F1795889472FD120F4B
:1016F0001795889473FD120F1795889474FD120F37
:101700001795889475FD120F1795889476FD120F22
:101710001795889477FD120F17958894622F711191
:10172000612F8D0D162F002C8EB800C000C017FF42
:101730003EB921816627889400C0002C3EB9211152
:10174000290F00C0002C8EB800C000C016FF3EB9A3
:1017500008F42FEF9195889400C0002C3EB9F0FC5E
:10176000620F00C0002C8EB800C000C015FF3EB94B
:1017700067958894F1FC620F00C0002C3EB9679514
:10178000889400C0002C8EB800C000C014FF3EB981
:10179000F2FC620F6795889400C0002C3EB9F3FC00
:1017A000620F00C0002C8EB800C000C013FF3EB90D
:1017B00067958894F4FC620F00C0002C3EB96795D1
:1017C000889400C0002C8EB800C000C012FF3EB943
:1017D000F5FC620F6795889400C0002C3EB9F6FCBA
:1017E000620F00C0002C8EB800C000C011FF3EB9CF
:1017F00067958894F7FC620F00C0002C3EB967958E
:10180000889400C0002C8EB800C000C010FF3EB904
:10181000122FF110162F9B0D00C0002C3EB900C0F6
:1018200000C0002C8EB800C000C017FF3EB9228156
:101830006627889400C0002C3EB92111290D00C0F4
:10184000002C8EB800C000C016FF3EB908F42FEF80
:10185000E40FF51F00C0002C3EB9E0FC620F00C091
:10186000002C8EB800C000C015FF3EB96795889463
:10187000E1FC620F00C0002C3EB96795889400C05F
:10188000002C8EB800C000C014FF3EB9E2FC620F0D
:101890006795889400C0002C3EB9E3FC620F00C03D
:1018A000002C8EB800C000C013FF3EB96795889425
:1018B000E4FC620F00C0002C3EB96795889400C01C
:1018C000002C8EB800C000C012FF3EB9E5FC620FCC
:1018D0006795889400C0002C3EB9E6FC620F00C0FA
:1018E000002C8EB800C000C011FF3EB967958894E7
:1018F000E7FC620F00C0002C3EB96795889400C0D9
:10190000002C8EB800C000C010FF3EB9122FE110AD
:10191000162F919400C0002C3EB99A0C00C000C054
:101920008EB800C000C017FF3EB92081662788949A
:1019300000C0002C3EB92111280F00C0002C8EB829
:1019400000C000C016FF3EB908F42FEF81958894BF
:1019500000C0002C3EB970FD620F00C0002C8EB894
:1019600000C000C015FF3EB96795889471FD620FF5
:1019700000C0002C3EB96795889400C0002C8EB83A
:1019800000C000C014FF3EB972FD620F67958894D5
:1019900000C0002C3EB973FD620F00C0002C8EB851
:1019A00000C000C013FF3EB96795889474FD620FB4
:1019B00000C0002C3EB96795889400C0002C8EB8FA
:1019C00000C000C012FF3EB975FD620F6795889494
:1019D00000C0002C3EB976FD620F00C0002C8EB80E
:1019E00000C000C011FF3EB96795889477FD620F73
:1019F00000C0002C3EB96795889400C0002C8EB8BA
:101A000000C000C010FF3EB9122F7111162F8D0DAE
:101A100000C0002C3EB9119709F086CEEA81FB8107
:101A20002EE130E0DF010E94463830E020E0A901DD
:101A3000AAE9EA9F0E0E411DFA9F400D511D112487
:101A40004F0F511DDC01CB01840F951FA11DB11D4E
:101A5000893E43E09407A105B10508F434C0885ECF
:101A60009340A109B10942E0B695A795979587954E
:101A70004A95D1F747E0849F080E211D949F200DC1
:101A8000311D1124290F311D60912D1070E0860F3A
:101A9000971F820F931F4091221150912311609143
:101AA000241170912511292F3327420F531F611DD7
:101AB000711D409322115093231160932411709350
:101AC000251180932D1078940E94AA03F201778B40
:101AD000668BDF91CF911F910F91FF90EF90DF9078
:101AE000CF90BF90AF909F908F907F905F904F90DE
:101AF000089580E991E008956C9A08956F927F921D
:101B00008F92CF92DF92EF92FF920F931F93CF931A
:101B1000DF93CDB7DEB762970FB6F894DEBF0FBE86
:101B2000CDBF8C016B017A01822FA801475F5F4F07
:101B3000B8016A5F7F4F0E9451053B01882ED80192
:101B40001C962C91C701F7FE04C0882799278E198F
:101B50009F09DA82C9829C838B839E838D83688AE6
:101B6000798A8A8A213049F5CE0101960E94E20ADB
:101B700083E08D871F861E86F7FE02C08DEF8D875E
:101B8000D801ED91FC910088F189E02DBE016F5FD5
:101B90007F4FC801199562960FB6F894DEBF0FBE4D
:101BA000CDBFDF91CF911F910F91FF90EF90DF900C
:101BB000CF908F907F906F9008951C861B861A8619
:101BC000198618861F82D4CFCF92DF92EF92FF92B0
:101BD0000F931F93CF93DF93CDB7DEB762970FB606
:101BE000F894DEBF0FBECDBF8C016B017A01822F4E
:101BF000A801475F5F4FB8016A5F7F4F0E945105A0
:101C00009B01482FD8011C968C91DA82C982FC82F4
:101C1000EB82FE82ED82288B398B4A8B813009F56D
:101C2000CE0101960E94E20A1D861F861E86D801FB
:101C3000ED91FC910088F189E02DBE016F5F7F4F2F
:101C4000C801199562960FB6F894DEBF0FBECDBFDE
:101C5000DF91CF911F910F91FF90EF90DF90CF9088
:101C600008951C861B861A86198618861F82DCCF6B
:101C70000895E8EEF2E091E090838FEF8383148281
:101C8000E6E1F2E0908383831482EDEBF3E090834E
:101C900083831482EFE8F4E0908383831482EFE17E
:101CA000F9E090838383148280932C10E4E1F8E0C0
:101CB0009083838314820C94330290E080E0089533
:101CC000FC0164870895FC01868597850895CF936C
:101CD000DF93EC0118820E9401046D837E838F8361
:101CE0009887DF91CF9108950F931F93CF9326E0AC
:101CF000FB013296DC01129601900D922A95E1F7D4
:101D000024EA3AE0FC013183208324E1FB01389688
:101D1000DC01189601900D922A95E1F79C01245E52
:101D20003F4FAB01445E5F4F8901045C1F4FC6E02B
:101D3000FA01D90101900D92CA95E1F72A5F3F4F50
:101D40004A5F5F4F2017310791F7FB01E85AFF4FB9
:101D50000081118122813381FC01E85AFF4F008309
:101D6000118322833383FB01E45AFF4F00811181E9
:101D700022813381FC01E45AFF4F008311832283C7
:101D80003383FB01E05AFF4F20813181FC01E05A8F
:101D9000FF4F31832083FB01EE59FF4F20813181BA
:101DA000FC01EE59FF4F31832083FB01EC59FF4FBB
:101DB00020813181FC01EC59FF4F31832083329621
:101DC000DB01AA59BF4F2D913C9131832083FB0148
:101DD000E859FF4F20813181FC01E859FF4F3183E1
:101DE0002083FB01E659FF4F20813181FC01E65938
:101DF000FF4F31832083FB01E459FF4F2081FC0119
:101E0000E459FF4F208363597F4FFB0120813181CB
:101E100083599F4FFC0131832083CF911F910F91F4
:101E20000895FC01DB0112968D919C911397938389
:101E3000828388E99AE09183808314968C91149729
:101E4000848315968C911597858316968C91169799
:101E5000868317968C911797878318968C9118977D
:101E6000808719968C91199781871A968C911A9769
:101E700082871B968C9183870895089590E080E077
:101E80000895CF93DF93FC0101900020E9F731978B
:101E9000AF01481B590BBC0188EE93E10E9413046B
:101EA000EC0142E050E06DEB7AE088EE93E10E94B5
:101EB00013048C0F9D1FDF91CF9108954F925F9275
:101EC0006F927F928F929F92AF92BF92CF92DF924A
:101ED000EF92FF920F931F93CF93DF93FC017B014F
:101EE0005A0122813381490184E0881A9108DF0177
:101EF000A458BF4F7C90C72DD0E0CA01BE010E94FC
:101F0000D5376C9F60016D9FD00C11248E010C0D94
:101F10001D1DDF01A158BF4F93E08916910408F001
:101F2000E4C06F5F6C93662309F4E0C0862F90E0F5
:101F3000AC0141505109C49F6001C59FD00CD49F92
:101F4000D00C1124769E800111242530310509F42E
:101F5000EDC081E026303105B1F577247394EF01AF
:101F6000C258DF4F688170E030E020E0EE9750E02B
:101F700040E02617370758F48991840F952F911D5B
:101F80008A159B0508F4ADC02C938C016A018C91D5
:101F900090E00196880F991F880F991FEF01C80FD5
:101FA000D91F04977110CEC0209709F487C0F3E0C1
:101FB0008F16910408F482C08981F70180838A8199
:101FC00082837CC080E0AC91AE0FBF2FB11DED01CC
:101FD000C05CDF4FC881CC2309F46CC094E0C99F7A
:101FE000E0011124CE0FDF1F8823F1F2DF968C90E1
:101FF00084E0889E400111248E0E9F1E209709F4D4
:102000005DC08114910409F459C0AC18BD08B50134
:1020100090E080E00E947E352B013C010C191D09E7
:10202000B80190E080E00E947E359B01AC01C301C5
:10203000B2010E9424372B013C01F4011081688118
:10204000611B770B072E000C880B990B0E948035C3
:10205000A30192010E94DF350E949637610FF701BC
:102060006083F40111816981611B770B072E000CDD
:10207000880B990B0E948035A30192010E94DF35E5
:102080000E949637610FF7016183F40112816A8122
:10209000611B770B072E000C880B990B0E94803573
:1020A000A30192010E94DF350E949637610FF7016C
:1020B000628304C080EC9AE00E94410FDF91CF91CF
:1020C0001F910F91FF90EF90DF90CF90BF90AF9056
:1020D0009F908F907F906F905F904F900895712C9C
:1020E0003ECF2F5F3F4FAC0144CF6C93233031057F
:1020F000B1F388F42130310509F464CF2230310581
:1021000091F4CC91D0E02196CC0FDD1FCC0FDD1FD8
:10211000CE0FDF1F49CF2530310599F308F452CF98
:1021200026303105E1F287ED9AE0C6CFEC01219629
:10213000CC0FDD1FCC0FDD1FCE0FDF1F880F991FC7
:10214000880F991F4F01880E991E58CF4DE050E01F
:1021500007960C94783A0F931F93CF938C01C62F58
:102160000E946D076C2F6460C8010E946D076C2F80
:102170006B7FC8010E946D0783EC90E00197F1F737
:10218000CF911F910F9108950F931F93CF93DF93DA
:102190008C01D62FC42F607F642B0E94AB1080E18E
:1021A000D89FB00111246C2BC801DF91CF911F91F2
:1021B0000F910C94AB1041E00E94C41081E090E0BC
:1021C0000895EF92FF920F931F93CF93DF938C01AB
:1021D0007B01D0E0C0E0F701EC0FFD1F64916623A6
:1021E00031F041E0C8010E94C4102196F4CFCE0125
:1021F000DF91CF911F910F91FF90EF900895CF93B2
:10220000DF9300D000D01F921F92CDB7DEB728E039
:10221000E7EFF9E0DE01119601900D922A95E1F7C2
:10222000FC012085241710F44FEF420F50E0440FBB
:10223000551F21E030E02C0F3D1F420F531FFA01C4
:102240002081620F606840E028960FB6F894DEBFE8
:102250000FBECDBFDF91CF910C94C410CF93DF930D
:10226000EC0140E06CE00E94FF1060EE71E0CE01F6
:10227000DF91CF910C94E11040E061E00E94C41026
:102280008BE39FE10197F1F708950E94533AFC0117
:1022900080819181009711F00C94E9380895EF92B4
:1022A000FF920F931F93CF93DF93EC017B018A0181
:1022B00088819981009729F02A813B81241735076D
:1022C00088F4B8016F5F7F4F0E947239009791F0D8
:1022D000998388831B830A832C813D81232B11F4EE
:1022E000FC0110821D830C83B701888199810E94B3
:1022F000613A0CC088819981009711F00E94E938F9
:10230000198218821D821C821B821A82CE01DF91E3
:10231000CF911F910F91FF90EF900895EF92FF9250
:102320000F931F93CF93DF9300D000D000D0CDB791
:10233000DEB78C01862FF80111821082138212827F
:10234000158214824AE09E012F5F3F4F7901B90147
:1023500090E00E944F35F70101900020E9F7319796
:10236000AF014E195F09B701C8010E944F112996AC
:102370000FB6F894DEBF0FBECDBFDF91CF911F9196
:102380000F91FF90EF900895CF93DF931F921F92CC
:10239000CDB7DEB7FC011182108213821282158242
:1023A000148269831A82BE016F5F7F4FFB01019027
:1023B0000020E9F73197AF01461B570B0E944F11E0
:1023C0000F900F90DF91CF9108950F931F93CF93AC
:1023D000DF9300D000D0CDB7DEB78C016A30C8F4EF
:1023E000CE0101960E948E11BE016F5F7F4FC80122
:1023F0000E944004CE0101960E94471126960FB616
:10240000F894DEBF0FBECDBFDF91CF911F910F912A
:1024100008956A50653050F4E62FF0E0EB5CF54F1C
:102420006081CE0101960E94C411DECF66E4F9CF2F
:102430004F925F926F927F929F92AF92BF92CF9294
:10244000DF92EF92FF920F931F93CF93DF93CDB75D
:10245000DEB72C970FB6F894DEBF0FBECDBF5C0180
:102460006B01F42E122FDB011A968C911A9751965C
:102470009C915197E82FE91BFF0B1E171F0699F03F
:1024800094F0891B089F800D112494E1981B892FDB
:1024900014969C91149791FF04C0869552968C9344
:1024A00002C092FDFBCFF60167856117D8F48089E1
:1024B0008017C0F443899685490F069F600D11244B
:1024C0009289890F680FC5010E94FF10EE2009F460
:1024D00041C06AE372E0C5010E94E110F601808903
:1024E0008F5F808BD60150968C915097801708F49F
:1024F0007FC050961C9250971F969C901F97E1109A
:10250000B8C0602F043008F063E0C6010B96F601F6
:1025100026812F3F99F1FF24FA94F60EFC01412CFD
:10252000512C32014FEFF41669F1219130E050E067
:1025300040E0A0E061E070E080E090E0FA1609F48D
:102540006DC0B4E0660F771F881F991FBA95D1F749
:10255000AF5FF4CFD6015096EC91E33020F4EC0D50
:10256000FD2DF11DF386B501CE0101960E94110FDC
:102570006F2DCE0101960E94E511B0CF0E94E608B2
:102580002B013C01D60119968C9190E0B0E0A0E0BF
:1025900084159505A605B70508F44DC0F60180859C
:1025A00090E0B0E0A0E0481659066A067B0608F401
:1025B00042C093949786E189EF5FD6015196EC93E0
:1025C000519754968D919C915597009779F11A9651
:1025D0002C912E1758F1E80FF92FF11D31974082F9
:1025E000F6018785811720F0178686858F5F86879D
:1025F0002C960FB6F894DEBF0FBECDBFDF91CF9102
:102600001F910F91FF90EF90DF90CF90BF90AF9010
:102610009F907F906F905F904F9008950E94C53774
:10262000460E571E681E791EFA947CCF85EE9AE0FE
:102630000E94410FD5CFF12CE12C602E712C0F5F41
:10264000F6018785E614F70458F643899685490F05
:102650006289089F600D11246E0DC5010E94FF1054
:1026600068E372E0C5010E94E110FFEFEF1AFF0A74
:10267000E7CF93941F969C921F9751968C915197F8
:102680008F5F51968C93ACCF8F929F92AF92BF92F7
:10269000CF92DF92EF92FF920F931F93CF93DF932E
:1026A000CDB7DEB7CF56D1090FB6F894DEBF0FBE57
:1026B000CDBF6C015A01922EF02ECE0101960E94E0
:1026C000740ECE0101960E942D09882E8FEF88127C
:1026D0002BC00091BB03609130100F3F29F110E037
:1026E000F501E60FF11DD801AC59B54F8C918283ED
:1026F0006F0D4E2DC6010E94FF10F801E75DF54FEA
:102700006081CE0101960E94C411BE016F5F7F4FB0
:10271000C6010E944004CE0101960E94471180919B
:1027200030108F5F809330108092BB038091301007
:102730008330A0F063E0C50102960E94E608092DEF
:1027400010E030E020E00617170728073907D0F01F
:10275000F501618381E0808310923010C159DF4F11
:102760000FB6F894DEBF0FBECDBFDF91CF911F91A2
:102770000F91FF90EF90DF90CF90BF90AF909F9020
:102780008F9008954E2D6F2DC6010E94FF106CE3AF
:1027900072E0C6010E94E110DFCFCF92DF92EF928C
:1027A0000F931F93CF93DF93CDB7DEB7CB57D109EC
:1027B0000FB6F894DEBF0FBECDBF6C01FA01102F2B
:1027C0008E2D42E0E42E811102C093E0E92E90911B
:1027D0004010911125C0CE0101960E94740EB601E1
:1027E000CE0180599F4F0E94110F03E02FEF40E46C
:1027F00050E1BE016F5F7F4FCE0180599F4F0E9415
:102800004413C558DF4F0FB6F894DEBF0FBECDBFDF
:10281000DF91CF911F910F91EF90DF90CF900895AE
:1028200090913B1091110FC0CE0101960E94740E41
:10283000B601CE0180599F4F0E94110F0AE02FEF81
:102840004BE350E1D6CF9091361091110FC0CE01DD
:1028500001960E94740EB601CE0180599F4F0E94CE
:10286000110F01E12FEF46E350E1C3CF90913110FA
:10287000911113C0882389F0CE0101960E94740E35
:10288000B601CE0180599F4F0E94110F83E0E82EC0
:1028900000E1212F41E350E1ACCF91E0938390918F
:1028A0004110908390913C109183909137109283C6
:1028B000882321F080913210F9018083109240101A
:1028C00010923B1010923610109231109ACFFC01EA
:1028D0001182108213821282158214826115710591
:1028E00051F0FB0101900020E9F73197AF01461B41
:1028F000570B0C944F1108951F93CF93DF93CDB7CF
:10290000DEB768970FB6F894DEBF0FBECDBF162FA7
:10291000BC01CE010D960E94110FCE010D960E94B2
:102920003C1140E060E0CE010D960E94FF1062EF86
:1029300077E0CE0101960E946714BE016F5F7F4F62
:10294000CE010D960E944004CE0101960E944711CF
:10295000BE01635F7F4FCE0101960E94110FCE0131
:1029600001960E942E1141E060E0CE010D960E947A
:10297000FF106FEF77E0CE0101960E946714BE0151
:102980006F5F7F4FCE010D960E944004CE010196ED
:102990000E944711112311F142E060E0CE010D9633
:1029A0000E94FF1068EE73E0CE010D960E94E110C8
:1029B00043E060E0CE010D960E94FF1064ED73E0ED
:1029C000CE010D960E94E11068960FB6F894DEBF16
:1029D0000FBECDBFDF91CF911F91089543E060E01E
:1029E000CE010D960E94FF106FEB73E0E9CF8F923E
:1029F0009F92AF92BF92CF92DF92EF92FF920F938E
:102A00001F93CF93DF93CDB7DEB72C970FB6F89413
:102A1000DEBF0FBECDBF7C014B015A0169010E9490
:102A20003C1140E060E0C7010E94FF10B401CE01FC
:102A300001960E946714BE016F5F7F4FC7010E941D
:102A40004004CE0101960E944711B701CE010196C4
:102A50000E94110FCE0101960E942E1141E060E00C
:102A6000C7010E94FF10B501CE0101960E946714B4
:102A7000BE016F5F7F4FC7010E944004CE010196E7
:102A80000E94471142E060E0C7010E94FF10B601BA
:102A9000CE0101960E946714BE016F5F7F4FC70190
:102AA0000E944004CE0101960E94471143E060E07D
:102AB000C7010E94FF10B801CE0101960E94671461
:102AC000BE016F5F7F4FC7010E944004CE01019697
:102AD0000E9447112C960FB6F894DEBF0FBECDBFF3
:102AE000DF91CF911F910F91FF90EF90DF90CF90EA
:102AF000BF90AF909F908F900895CF92DF92EF920A
:102B0000FF920F931F93CF93DF93CDB7DEB72C9730
:102B10000FB6F894DEBF0FBECDBF8C016B017A01FA
:102B20000E943C11B801CE0101960E94110FCE0106
:102B300001960E942E1141E060E0C8010E94FF1042
:102B400060E472E0C8010E94E11042E060E0C80168
:102B50000E94FF10B601CE0101960E946714BE01CB
:102B60006F5F7F4FC8010E944004CE0101960E9412
:102B7000471143E060E0C8010E94FF10B701CE0199
:102B800001960E946714BE016F5F7F4FC8010E94CB
:102B90004004CE0101960E9447112C960FB6F8947E
:102BA000DEBF0FBECDBFDF91CF911F910F91FF9080
:102BB000EF90DF90CF9008952F923F924F925F92C7
:102BC0006F927F928F929F92AF92BF92CF92DF923D
:102BD000EF92FF920F931F93CF93DF93CDB7DEB7A2
:102BE000CC5FD1090FB6F894DEBF0FBECDBF5C013C
:102BF0006A01CE0180599F4F0E94740EB501CE012B
:102C000085519F4F0E94110FD60116969C911697E1
:102C100019968C919F3F49F48A3048F093E0F92E41
:102C2000843638F482E0F82E04C08031D8F7FF24CF
:102C3000F3946F2D70E06F5F7F4F84E190E00E940E
:102C4000E9374B01F601818131E043E0882311F03F
:102C500032E042E0D6011A968C91880D992D911D93
:102C60000197B4010E94E937C650DF4F6883CA5FFD
:102C7000D040461708F42EC2C750DF4F8882C95F84
:102C8000D040882DF89C800D112424E1281B461B80
:102C9000632FC6010E94C80ABE0160597F4FFE0122
:102CA00031965F01CF010E94740EC5010E942D096B
:102CB000C550DF4F8883CB5FD0408F3F09F0F2C112
:102CC000E091BA03EF3F09F4EDC180912F10D601D6
:102CD00016969C911697E9131FC0B1E0FB121AC01B
:102CE000F60191859A30B0F0811114C0BE01655192
:102CF0007F4FC5010E94110F05EF1AE02AE03BE06B
:102D00004FE15BE0B6016A5E7F4FC5010E94F71498
:102D1000F0922F1010E00BC1882309F45CC1F0E0A1
:102D2000EC59F54F108119968C9119978950990B90
:102D3000181719067CF7165F5496ED91FC9155977C
:102D40003097A9F051968C91AF01D50190E09D018B
:102D50002A193B092817390770F4FA012191AF01AC
:102D60002D939F0121503109F9011082F0CF83E3A7
:102D70009BE00E94410FD6011E962D903D904D90F4
:102D80005C9051975196BC91C450DF4FB883CC5F93
:102D9000D040F60116861786108A118ACE01855119
:102DA0009F4F0E943C1140E060E0CE0185519F4F53
:102DB0000E94FF10B6016A5E7F4FCE0181529F4F85
:102DC0000E946714BE0161527F4FCE0185519F4F13
:102DD0000E944004CE0181529F4F0E944711BE01C4
:102DE00065517F4FCE0181529F4F0E94110FCE013E
:102DF00081529F4F0E942E11D60111968C918823EB
:102E0000E1F041E060E0CE0185519F4F0E94FF104C
:102E1000B6016D5D7F4FCE0181529F4F0E946714B6
:102E2000BE0161527F4FCE0185519F4F0E944004E9
:102E3000CE0181529F4F0E944711C950DF4FB98286
:102E4000A882C75FD040C450DF4FB881CC5FD0406C
:102E50006B2E712CC950DF4F88819981C75FD0409C
:102E60008A199B098615970520F5C950DF4FE8811F
:102E7000F981C75FD0407190C950DF4FF983E88373
:102E8000C75FD040BE0165517F4FCE0181529F4F39
:102E90000E94110FE12C0F2DC750DF4F2881C95F11
:102EA000D040472DB601CE0181529F4F0E9418128B
:102EB000CACFD6011A968C9186151704E1F0D8F086
:102EC000BE0165517F4FCE0181529F4F0E94110F6D
:102ED000EE24E3940F2DC750DF4F2881C95FD04007
:102EE00040E0B601CE0181529F4F0E941812BFEF01
:102EF0006B1A7B0ADECFF60126863786408A518A16
:102F000081890488F589E02D309759F0D50190E04A
:102F10009D012A193B092817390738F42D9121936F
:102F2000F7CF8FE49BE00E94410F10922F1081E0B9
:102F3000F60121899285291708F080E0D6011396C1
:102F40002C91139731E02327822390912F10932700
:102F5000892309F4A7C01E968C91C650DF4FB88113
:102F6000CA5FD0408B1708F09DC0BE0165517F4FEE
:102F7000CE0181529F4F0E94110FE12C0F2D282D61
:102F8000412FB601CE0181529F4F0E941812F601C7
:102F90008281882309F486C0F1E0FF1283C0D60144
:102FA0005496ED91FC915597309729F151968C915B
:102FB000AF01D50190E09D012A193B092817390777
:102FC000F0F4FA012191AF012D939F0121503109B5
:102FD000F9011082F0CF17968C9117978F3F31F03F
:102FE000E81304C081E013968C9394CEF0E0EC5982
:102FF000F54F10819CCF83E39BE00E94410FD601E7
:103000001E962D903D904D905C90519751966C90EE
:10301000712CF60191898285981748F54501D601F2
:1030200051969C9151971A968C9194012A193B09BB
:103030002615370570F7981760F7F40111914F01C5
:10304000BE0165517F4FCE0181529F4F0E94110FEB
:10305000E12C01E0C750DF4F2881C95FD040412FEC
:10306000B601CE0181529F4F0E941812D8CFD601CF
:1030700026863786408A518A0488F589E02D309764
:1030800069F051968C91D50190E09D012A193B0978
:103090002817390738F42D912193F7CF8FE49BE05F
:1030A0000E94410FC550DF4FB881CB5FD040B09335
:1030B000BA03F60191898285981718F483818823D1
:1030C00049F081E0D60113968C93F6011686178697
:1030D000108A118AC450DF4F0FB6F894DEBF0FBEBE
:1030E000CDBFDF91CF911F910F91FF90EF90DF90B7
:1030F000CF90BF90AF909F908F907F906F905F9098
:103100004F903F902F900895BF92CF92DF92EF9211
:10311000FF920F931F93CF93DF93CDB7DEB7C250CB
:10312000D1400FB6F894DEBF0FBECDBF8C016A014F
:10313000CE0180599F4F0E94740EB801CE01895074
:103140009F4F0E94110FCE0189509F4F0E943C114A
:1031500040E060E0CE0189509F4F0E94FF10B60111
:103160006A5E7F4FCE0101960E946714BE016F5FB9
:103170007F4FCE0189509F4F0E944004CE0101969F
:103180000E944711BE0169507F4FCE0101960E94F7
:10319000110FCE0101960E942E11D60111968C912D
:1031A0008823D1F041E060E0CE0189509F4F0E941A
:1031B000FF10B6016D5D7F4FCE0101960E9467142E
:1031C000BE016F5F7F4FCE0189509F4F0E94400428
:1031D000CE0101960E944711BE0160597F4FCE017A
:1031E00001960E94740EBE0169507F4FCE01855139
:1031F0009F4F0E94110FF601968181859F3F39F400
:103200008A3038F013E0843628F412E003C08031AD
:10321000E0F711E0612F70E06F5F7F4F84E190E095
:103220000E94E9379B01D60111968C91E2E042E0C1
:10323000811102C0E1E043E0D6011A968C91820F21
:10324000932F911D0197B9010E94E937F62E461779
:1032500078F1B22E129F200D112484E1821B282FB9
:10326000461B6E2FC6010E94C80AF60186858F157F
:10327000C0F4918982859817A0F4BE0165517F4FF3
:10328000CE0181529F4F0E94110FEE24E394012F33
:103290002B2D40E0B601CE0181529F4F0E941812A3
:1032A000E4CFD6011E961D921D921D921C9251973D
:1032B000CE5FDE4F0FB6F894DEBF0FBECDBFDF91FD
:1032C000CF911F910F91FF90EF90DF90CF90BF9023
:1032D00008953F924F925F926F927F928F929F924A
:1032E000AF92BF92CF92DF92EF92FF920F931F9314
:1032F000CF93DF93CDB7DEB7CE50D1400FB6F89461
:10330000DEBF0FBECDBF7C016B0149015A01043005
:1033100048F40230D8F4013049F08DE79BE00E9478
:10332000410F04C00830C8F00930B9F70091D41338
:103330001091D5130130110599F00230110509F4EF
:10334000F7C18CE99BE00E94410F20C081E090E032
:103350009093D5138093D413E9CF82E090E0F8CF17
:10336000B601CE0180599F4F0E94740EB701CE0165
:1033700093950E94110F8091D6139091D7138130AD
:10338000910589F1E0F0029709F4DAC0C25FDE4FDF
:103390000FB6F894DEBF0FBECDBFDF91CF911F9166
:1033A0000F91FF90EF90DF90CF90BF90AF909F90E4
:1033B0008F907F906F905F904F903F900895109204
:1033C000EA0881E08093E7081092D9131092371130
:1033D000109238111092391110923A111093D7139C
:1033E0000093D613D3CF8091E708882309F477C0E0
:1033F0004DE050E06EE87BE08DEF98E00E94783A77
:103400008FE0EFEFF9E0DE01A152BF4F01900D9286
:103410008A95E1F786E0EFEDF0E0EC0FFD1F3F96B7
:10342000DF011D928A95E9F78091D8134AE0BE0129
:10343000645F7E4F90E00E94443565E170E0CE010C
:1034400081529F4F0E94393504E110E0A801481BCA
:10345000590BBE01645F7E4FCE0181529F4F0E9487
:10346000683A65E170E0CE0181529F4F0E94393584
:10347000A801481B590B66E97BE0CE0181529F4FA2
:103480000E94683A45E150E0BE0161527F4F8AE0F8
:1034900099E00E94783A81ED93E19093FC08809343
:1034A000FB088091D8138093F108BE0160597F4FCB
:1034B000CE0101960E94740EBE017395CE018C5010
:1034C0009F4F0E94110F47EE58E0BE016F5F7F4F84
:1034D000CE018C509F4F0E9484181092E708BE01C5
:1034E00060597F4FCE0101960E94740EBE01739504
:1034F000CE0181529F4F0E94110F47EE58E0BE014E
:103500006F5F7F4FCE0181529F4F0E94DC158091EB
:10351000EA08882309F43ACF82E090E09093D71329
:103520008093D613BE017395CE0101960E94110FB0
:103530004FEB5AE0BA01CE0101960E947D1526CFCD
:103540001091D913E12EF12CC501B4010E947E35F2
:103550004B015C01F701EF52FC4E608170E090E09E
:1035600080E00E947E3520E030E048EC52E40E948A
:10357000DF359B01AC01C501B4010E9424372091C5
:103580003711309138114091391150913A110E9400
:10359000B836609337117093381180933911909336
:1035A0003A110091D813C02ED12C20E030E040E831
:1035B0005FE30E947935811112C010923711109289
:1035C00038111092391110923A11BFEFEB1AFB0A21
:1035D000EC14FD040CF0A9C01F5F1093D913809167
:1035E000D91390E09C012F5F3F4F0F5F2C153D05D5
:1035F0000CF000E09695982F882797958795FC0109
:10360000E55CFE4E7F01F0E80F9F80011124055C10
:103610001E4EC152DF4F188219821A821B82CF5D63
:10362000D04019821A821B821C823BE3A32E33E115
:10363000B32ED12CC12CA601BE0161527F4FC70110
:103640000E945E0FA601BE016F5F7F4FC8010E94FE
:103650005E0FCF51DF4F9880C15ED0404090371150
:10366000509038116090391170903A116B8169193E
:10367000770B072E000C880B990B0E948035A30155
:1036800092010E94DF350E949637960EC052DF4F9E
:103690008880C05ED0406A816819770B072E000CC5
:1036A000880B990B0E948035A30192010E94DF359F
:1036B0000E949637860EC152DF4F3880CF5DD040D2
:1036C00069816319770B072E000C880B990B0E94F8
:1036D0008035A30192010E94DF350E949637360E95
:1036E000D5013C9211968C92119712969C92BFEF45
:1036F000CB1ADB0AE3E0AE0EB11CF2E3CF16D10425
:1037000009F099CF0E94BA05E091E608EF3F49F031
:10371000F0E0EC59F54F8081811103C081E0809386
:10372000DB138FEF8093E60831CE1092D91357CF79
:10373000B601CE0101960E94740EB701CE018059E8
:103740009F4F0E94110F22CEAF92BF92CF92DF9275
:10375000EF92FF920F931F93CF93DF93CDB7DEB716
:10376000C359D1090FB6F894DEBF0FBECDBF6C01AF
:103770005B018A01DA018C91882309F46EC04DE067
:1037800050E060EB7BE0C80146960E94783A85E005
:10379000E4E1FAE0DE01A059BF4F01900D928A9555
:1037A000E1F780E1E0E7F0E0EC0FFD1F3596DF0187
:1037B0001D928A95E9F74AE0BE016F567F4F83E07C
:1037C00090E00E94443565E170E0CE0180599F4F42
:1037D0000E94393524E1E22EF12CA701481B590B38
:1037E000BE016F567F4FCE0180599F4F0E94683AAD
:1037F00065E170E0CE0180599F4F0E943935A701E5
:10380000481B590B6AEB7BE0CE0180599F4F0E9409
:10381000683A45E150E0BE0160597F4FC801839688
:103820000E94783A88ED93E1F801958B848BB5017D
:10383000CE0101960E94740EB601CE018B579F4FA8
:103840000E94110FA801BE016F5F7F4FCE018B5701
:103850009F4F0E948418D8011C92B501CE01019699
:103860000E94740EB601CE0180599F4F0E94110F25
:10387000A801BE016F5F7F4FCE0180599F4F0E940C
:10388000DC15CD56DF4F0FB6F894DEBF0FBECDBFAF
:10389000DF91CF911F910F91FF90EF90DF90CF902C
:1038A000BF90AF9008959F92AF92BF92CF92DF9258
:1038B000EF92FF920F931F93CF93DF93CDB7DEB7B5
:1038C000A5970FB6F894DEBF0FBECDBF8C017B016C
:1038D000BC01CE0144960E94110FCE0144960E9475
:1038E0003C1140E060E0CE0144960E94FF10B70119
:1038F000695F7F4FCE0101960E946714BE016F5F22
:103900007F4FCE0144960E944004CE0101960E9452
:103910004711BE016C5E7F4FCE0101960E94110FD0
:10392000CE0101960E942E11F701268181E02330FD
:1039300008F480E0F7019181892391E0243008F4B4
:1039400090E0892BF70182838823C1F042E062E195
:10395000CE0144960E94FF106FE272E0CE014496C1
:103960000E94E11043E062E1CE0144960E94FF1004
:103970006CE272E0CE0144960E94E110B801CE01E3
:1039800044960E94110F01E010E083E1982E570148
:10399000F4E1AF0EB11CF70184819801280F311DAD
:1039A00096819217130608F458C0C02ED82ED00E58
:1039B000402F60E0CE0144960E94FF106D2DCE0195
:1039C00080960E948E11BE01605E7F4FCE014496AC
:1039D0000E944004CE0180960E944711402F61E072
:1039E000CE0144960E94FF1066E372E0CE01449639
:1039F0000E94E110F701828140E1811101C043E1A1
:103A000050E02D2D2150330B929EB001939E700DEE
:103A100011246A0D7B1DCE0101960E94783A4C2D2F
:103A200062E0CE0144960E94FF10BE016F5F7F4F9F
:103A3000CE0180960E946714BE01605E7F4FCE016A
:103A400044960E944004CE0180960E9447110F5F69
:103A50001F4F0430110509F09ECFF701858190E0DA
:103A60000196348121E03817190609F020E081E041
:103A70000430110508F080E0282B99F1F7018181CD
:103A8000882379F1402F60E0CE0144960E94FF1018
:103A900064E372E0CE0144960E94E110402F61E0A1
:103AA000CE0144960E94FF1062E372E0CE0144967C
:103AB0000E94E110402F62E0CE0144960E94FF1068
:103AC00065EC7BE0CE0180960E946714BE01605ECB
:103AD0007F4FCE0144960E944004CE0180960E9402
:103AE0004711A5960FB6F894DEBF0FBECDBFDF918C
:103AF000CF911F910F91FF90EF90DF90CF90BF90EB
:103B0000AF909F900895DF92EF92FF920F931F93D3
:103B1000CF93DF93CDB7DEB7CF56D1090FB6F89468
:103B2000DEBF0FBECDBF7C018A01CE0101960E948F
:103B3000740ECE0101960E942D09D82E8FEFD81257
:103B40000AC08091BC038F3F31F0F8015681851780
:103B500098F48F5F8383D092BC03C159DF4F0FB6B7
:103B6000F894DEBF0FBECDBFDF91CF911F910F91B3
:103B7000FF90EF90DF9008953181332311F08A3068
:103B800049F3893069F08B3091F0B701CE0101968D
:103B90000E94110FB801CE0101960E94531CDBCF89
:103BA000F8018481882389F381508483EECFF80162
:103BB0002581948181E0291708F480E041E05330A9
:103BC00008F440E08423832311F49217F0F69F5FFA
:103BD000F8019483DACF0F931F93CF93DF93CDB780
:103BE000DEB72C970FB6F894DEBF0FBECDBF8B01AA
:103BF000BC01CE0101960E94110FB801CE010196C1
:103C00000E94531C2C960FB6F894DEBF0FBECDBF9A
:103C1000DF91CF911F910F910895EF92FF920F9333
:103C20001F93CF93DF93CDB7DEB7CB57D1090FB634
:103C3000F894DEBF0FBECDBF8C017B0180911F09C0
:103C4000882309F453C065ED7BE08FE199E00E9481
:103C5000A61043E150E061EE7BE083E399E00E942F
:103C6000783A43E150E069EE7BE086E499E00E9417
:103C7000783A43E150E063EF7BE089E599E00E9408
:103C8000783A43E150E061E07CE08CE699E00E9404
:103C9000783A43E150E06DE07CE08FE799E00E94E4
:103CA000783A43E150E067E17CE082E999E00E94E4
:103CB000783A43E150E067E27CE085EA99E00E94CF
:103CC000783A43E150E065E37CE08BEC99E00E94B8
:103CD000783AB801CE0101960E94110F6FE179E0A8
:103CE000CE0101960E94EB1D10921F09B701CE0173
:103CF00001960E94740EB801CE0180599F4F0E9418
:103D0000110F4FE159E0BE016F5F7F4FCE01805927
:103D10009F4F0E94831DC558DF4F0FB6F894DEBF3A
:103D20000FBECDBFDF91CF911F910F91FF90EF900C
:103D30000895EF92FF920F931F93CF93DF93CDB728
:103D4000DEB7CB57D1090FB6F894DEBF0FBECDBF9B
:103D50008C017B0180911408882399F16CE37CE04D
:103D600084E198E00E94A61043E150E063E47CE027
:103D700088E298E00E94783A43E150E06DE47CE00C
:103D80008BE398E00E94783A43E150E067E57CE0FD
:103D90008EE498E00E94783A43E150E065E67CE0EA
:103DA00081E698E00E94783AB801CE0101960E941F
:103DB000110F64E178E0CE0101960E94EB1D109294
:103DC0001408B701CE0101960E94740EB801CE010D
:103DD00080599F4F0E94110F44E158E0BE016F5F70
:103DE0007F4FCE0180599F4F0E94831DC558DF4FE2
:103DF0000FB6F894DEBF0FBECDBFDF91CF911F91FC
:103E00000F91FF90EF9008952F923F924F925F9203
:103E10006F927F928F929F92AF92BF92CF92DF92DA
:103E2000EF92FF920F931F93CF93DF93CDB7DEB73F
:103E3000C851D1400FB6F894DEBF0FBECDBF8C0184
:103E40006B01F42E20913D1130913E11590144E057
:103E5000A41AB108E0913511F0913611E830F1055E
:103E600010F00C9481278827E75CF04E8F4F0C945C
:103E70003E38411FBB1F11209621C122052350232C
:103E8000592380ED97E0A0E0B0E08093E90790939C
:103E9000EA07A093EB07B093EC0788EE97E00E9447
:103EA000670E11E0109316071093DE061093A60616
:103EB00010936E0610936D061092E1061092A906FB
:103EC000109271068FEF809319071092B71110921C
:103ED000B8111092B9111092BA110E94330254E035
:103EE000F51609F445C05F1558F082E0F81659F14F
:103EF00093E0F91671F181E79CE00E94410F09C03F
:103F0000A6E081E090E0AF15B0F390933611809376
:103F10003511C85EDE4F0FB6F894DEBF0FBECDBFC1
:103F2000DF91CF911F910F91FF90EF90DF90CF9095
:103F3000BF90AF909F908F907F906F905F904F90C9
:103F40003F902F9008951093B81182E38093B7119A
:103F50000CC082E08093B81189E18093B711809101
:103F60003D1190913E11059781F386E090E0CDCF11
:103F700083E090E0CACF809116078823A9F16EE70D
:103F80007CE086E197E00E94A61083E1E6E8FCE091
:103F9000B3E0AB16B10410F0E9E9FCE0DE011196E4
:103FA00001900D928A95E1F743E150E0BE016F5F09
:103FB0007F4F8AE297E00E94783A43E150E06CEA52
:103FC0007CE08DE397E00E94783AB801CE018059F9
:103FD0009F4F0E94110F66E177E0CE0180599F4FFD
:103FE0000E94EB1D10921607B601CE0101960E94A9
:103FF000740EB801CE0180599F4F0E94110F46E107
:1040000057E0BE016F5F7F4FCE0180599F4F0E94E6
:10401000831D809119078F3F09F47BCF82E090E0E8
:1040200074CF8091DE068823F1F0809119078130EA
:10403000E1F1823009F4C9C0B601CE0101960E94B7
:10404000740EB801CE0184519F4F0E94110F4EEDA6
:1040500056E0BE016F5F7F4FCE0184519F4F0E949B
:1040600084181092DE06B601CE0101960E94740EED
:10407000B801CE0180599F4F0E94110F4EED56E0BE
:10408000BE016F5F7F4FCE0180599F4F0E94DC15AC
:1040900080911907813009F403C1823009F42BC1E2
:1040A00084E39DE00E94410F12C12230310589F066
:1040B00048F42130310509F465C08FED9CE00E9481
:1040C000410F19C02430310509F45CC02530310599
:1040D000A1F74DE050E06BEB7CE0CE0181529F4FA9
:1040E0000E94783A45E150E061EC7CE0CE018059D5
:1040F0009F4F0E94783A6DE070E0CE0181529F4F51
:104100000E9439354CE050E0481B590BE3E0AE16F5
:10411000B10408F045C067E27EE0CE0181529F4FB6
:104120000E94683A65E170E0CE0180599F4F0E947D
:10413000393544E150E0481B590B6AE07DE0CE017F
:1041400080599F4F0E94683A1092E6068EE1809354
:10415000E7064DE050E0BE0161527F4F84EF96E0EC
:104160000E94783A45E150E0BE0160597F4F81E0FE
:1041700097E00E94783A88EB91E19093F306809360
:10418000F2065ACF4DE050E06CEC7CE0CE0181525B
:104190009F4F0E94783A45E150E063ED7CE0A6CF66
:1041A00061E17DE0CE0181529F4F0E94683A65E156
:1041B00070E0CE0180599F4F0E94393544E150E0B4
:1041C000481B590B67E17DE0BACF4DE050E06EE14E
:1041D0007DE084EF96E00E94783A4AE0BE016C5F91
:1041E0007E4F81E090E00E9444354AE0BE01685075
:1041F0007F4F82E390E00E94443545E150E066E263
:104200007DE0CE0180599F4F0E94783A65E170E0D1
:10421000CE0180599F4F0E943935A4E1EA2EF12C3E
:10422000A701481B590BBE016C5F7E4FCE01805920
:104230009F4F0E94683A65E170E0CE0180599F4F20
:104240000E943935A701481B590B6CE27DE0CE0175
:1042500080599F4F0E94683A65E170E0CE01805915
:104260009F4F0E943935A701481B590BBE0168506A
:104270007F4FCE0180599F4F0E94683A45E150E040
:10428000BE0160597F4F81E097E00E94783A81E05B
:104290008093E60682E38093E70687EB91E16DCF9A
:1042A0002091B81130E050E040E0F3E0AF16B104E7
:1042B00030F42150330B032E000C440B550B62E3FA
:1042C00070E080E090E00E94FD372093B71180916C
:1042D000E106882309F41DCE80913D1190913E1195
:1042E0008230910509F441CED0F4019709F440CE13
:1042F00081E59DE002CE2091B71130E050E040E032
:1043000062E370E080E090E00E94FD3703E0A016D9
:10431000B10418F02093B811DACF2F5FFBCF8430AF
:10432000910509F425CE059719F71FCE8091A606B1
:10433000882309F4DFC085E0E4E1FAE0DE01A0595A
:10434000BF4F01900D928A95E1F780E1E0E7F0E040
:10435000EC0FFD1F3596DF011D928A95E9F723309A
:10436000310579F040F42130310549F189EE9DE0C5
:104370000E94410F21C02430310509F1263031055A
:10438000A9F74DE050E06BE87DE0CE0181529F4FF0
:104390000E94783A65E170E0CE0180599F4F0E94FB
:1043A000393544E150E0481B590B63E97DE0CE010B
:1043B00080599F4F0E94683AEFE0FE2E41C08091E5
:1043C000B811803108F08FE04AE0BE0168507F4F9D
:1043D00090E00E9444354DE050E06CE97DE0CE0174
:1043E00081529F4F0E94783A65E170E0CE0180597A
:1043F0009F4F0E943935F4E1EF2EF12CA701481BA5
:10440000590BBE0168507F4FCE0180599F4F0E94CB
:10441000683A65E170E0CE0180599F4F0E943935BE
:10442000A701481B590B6DE97DE0CE0180599F4FD4
:104430000E94683AF090B811BFE0BF1508F4BCCFF5
:104440006DE070E0CE0181529F4F0E9439354CE003
:1044500050E0481B590BE3E0AE16B10408F072C0FF
:1044600063EA7DE0CE0181529F4F0E94683A65E188
:1044700070E0CE0180599F4F0E94393544E150E0F1
:10448000481B590B6AE07DE0CE0180599F4F0E9486
:10449000683A4DE050E0BE0161527F4F8CEB96E0F0
:1044A0000E94783A45E150E0BE0160597F4F89ECA7
:1044B00096E00E94783AF092AF0689EB91E19093F2
:1044C000BB068093BA06B601CE0101960E94740E17
:1044D000B801CE0184519F4F0E94110F46EA56E069
:1044E000BE016F5F7F4FCE0184519F4F0E948418A1
:1044F0001092A606B601CE0101960E94740EB80174
:10450000CE0180599F4F0E94110F46EA56E0BE012E
:104510006F5F7F4FCE0180599F4F0E94DC158091C5
:10452000A906882309F4F5CC80913D1190913E11A4
:104530008330910509F419CDD0F40197F9F08DEA93
:104540009DE0DBCC68EA7DE0CE0181529F4F0E9466
:10455000683A65E170E0CE0180599F4F0E9439357D
:1045600044E150E0481B590B67E17DE08DCF84307A
:10457000910521F0069709F4F8CCE1CF84E090E0B2
:10458000C4CC80916D068823B1F0B801CE010196AC
:104590000E94110F0FEB1AE024EC3DE0A80167ED3B
:1045A0007DE0CE0101960E94F71410926D0688EE10
:1045B00097E00E94670E0E940104AB01BC0180914C
:1045C000ED079091EE07A091EF07B091F0070091F1
:1045D000E9071091EA072091EB073091EC07800F73
:1045E000911FA21FB31F21E0481759076A077B07D5
:1045F00008F420E02093E807481759076A077B076B
:1046000008F487CC85E090E080CC80916E0688230A
:1046100069F14DE050E067ED7DE084E896E00E94AE
:10462000783A8091B911809377068BE791E1909366
:104630008306809382068091B81180937806B60134
:10464000CE0101960E94740EB801CE0180599F4F91
:104650000E94110F4EE656E0BE016F5F7F4FCE0104
:1046600080599F4F0E94841810926E06B601CE01A9
:1046700001960E94740EB801CE0180599F4F0E948E
:10468000110F4EE656E0BE016F5F7F4FCE0180599D
:104690009F4F0E94DC1580917106811166CC39CC48
:1046A000109234110E9494020E94BA0587E090E0B3
:1046B0002CCCCE0180599F4F0E94740EB801CE01C0
:1046C00088509F4F0E94110F80913D1190913E1193
:1046D0008C0104501109C55FDE4F19830883CB504C
:1046E000D1400330110508F025C43091BA113323AD
:1046F00009F420C42FEF230FA1E0069709F42DC47D
:10470000B4E03B9FC0011124FC01E15CFE4E1F019F
:10471000F4E02F9F900111248901015C1E4EC95FB6
:10472000DE4F19830883C750D140A1E02FC410E0A9
:10473000B12CA12CF10193809110E1C08091F1077F
:10474000882309F45EC0F3E0FF1609F48CC0FF155E
:1047500050F002E0F01611F188E59EE00E94410F52
:1047600093C011E0E7CF26E02F15B0F3C55FDE4F11
:1047700048815981CB50D1404330510508F0B1C038
:104780004DE050E064E27EE0CE0181529F4F0E94F6
:10479000783A45E150E06DE27EE072C04DE050E0D5
:1047A0006AEF7DE0CE0181529F4F0E94783A45E149
:1047B00050E061E07EE0CE0101960E94783A4DE043
:1047C00050E0BE0161527F4F82EF97E00E94783A3D
:1047D00045E150E0BE016F5F7F4F8FEF97E00E9491
:1047E000783ABE0168507F4FCE0184519F4F0E949E
:1047F000110F612FCE0184519F4F0E947C141092A3
:10480000F107BE0160597F4FCE0101960E94740EE0
:10481000BE0168507F4FCE0181529F4F0E94110F01
:1048200082E390E08A199B098F3F910519F010F0FF
:104830008FEF90E0E12E082F27EB31E1A101BE01BF
:104840006F5F7F4FCE0181529F4F0E94CD13112386
:1048500009F45FCBE091BA11F0E0E558FE4E80918B
:10486000B711808356CB4DE050E060E17EE0CE0191
:1048700081529F4F0E94783A45E150E066E17EE028
:10488000CE0101960E94783A8091BA1190E04AE0F8
:10489000BE016C5F7E4F01960E94443565E170E079
:1048A000CE0101960E94393574E1E72EF12CA70163
:1048B000481B590BBE016C5F7E4FCE0101960E94D2
:1048C000683A65E170E0CE0101960E943935A70192
:1048D000481B590B6AE97BE0CE0101960E94683AB9
:1048E0006ECF4DE050E06EE37EE0CE0181529F4FEF
:1048F0000E94783A45E150E067E47EE0C1CF21E0D4
:104900002093F107E090B7112E2D30E06091BA119D
:10491000E69E70011124E62FF0E0AF014F5F5F4F7C
:10492000C55FDE4F08811981CB50D140033011059E
:10493000C0F4662309F4F4C28330910569F031971D
:10494000E29FB001E39F700DF29F700D112467018B
:104950007B0186309105A1F46501C20ED31E75015D
:104960000FC0429F6001439FD00C529FD00C112476
:104970008330910519F08630910511F46111ECCF67
:104980006091B9116417150681F07CF09C012350E9
:1049900031092230310508F4B9C08630910509F497
:1049A000B5C021E08130910509F020E07091B81187
:1049B0007417150649F044F0392D8230910529F01D
:1049C00031E08530910509F030E0211103C0332337
:1049D00009F4B9C08701000F111F0E0D1F1DF8014A
:1049E000E55CFC4EAA2309F493C0055C1C4E5701FC
:1049F000C6018E199F099C0150E040E0C55FDE4F63
:104A0000288339834A835B83CB50D140AC14BD04E7
:104A100008F091C0B5016E197F0990E080E00E9416
:104A20007E352B013C01C55FDE4F688179818A812B
:104A30009B81CB50D1400E947E359B01AC01C301CC
:104A4000B2010E9424372B013C01C95FDE4FA881CF
:104A5000B981C750D14012969C90F10162816919C9
:104A6000770B072E000C880B990B0E948035A30151
:104A700092010E94DF350E949637690DC75FDE4FB5
:104A80006883C950D140C95FDE4FA881B981C75042
:104A9000D14011968C90F10161816819770B072E36
:104AA000000C880B990B0E948035A30192010E9493
:104AB000DF350E949637860EC95FDE4FA881B98127
:104AC000C750D1409C90F10160816919770B072E86
:104AD000000C880B990B0E948035A30192010E9463
:104AE000DF350E949637960ED8019C9211968C92D3
:104AF0001197C75FDE4FE881C950D1401296EC9301
:104B0000FFEFAF1ABF0A0D5F1F4F80CF292D4ECF89
:104B1000EC14FD0480F4D10112968C911297119639
:104B20009C9111972C91208391838283BFEFEB1A84
:104B3000FB0A3396EDCF0E94BA058091BA118F5FC0
:104B40008093BA11E6C920913C112111B6C183307E
:104B5000910519F0069709F0672F5BE3A52E51E147
:104B6000B52E30E020E0062F10E0CD5EDE4F198339
:104B70000883C351D140CD5EDE4F08811981C351F6
:104B8000D1402017310708F084C18091B71190E01F
:104B9000289F8001299F100D389F100D1124A90115
:104BA0004F5F5F4FCF5EDE4F59834883C151D14085
:104BB0007C01E00EF11EC55FDE4FA881B981CB50AC
:104BC000D140139730F52115310519F1880F991F40
:104BD000F701E81BF90BD92C78018F0180913D1169
:104BE00090913E1183309105E9F0A8F48130910550
:104BF000A1F1029709F40EC187ED9AE008C114E013
:104C0000A10EB11CCF5EDE4F28813981C151D14048
:104C1000B2CFD12CE3CF8530910509F4FBC0E8F089
:104C2000069751F71501E4E02E0E311CDD2031F01E
:104C3000C95FDE4FB982A882C750D140EBE7F1E1EE
:104C400090E080E010E000E02817390709F4EFC099
:104C50004191040F111D0196F7CFCF5EDE4FE88121
:104C6000F981C151D140E55CFE4E87AD882309F43E
:104C7000CCC024E0829FC0011124AC01455C5E4E93
:104C80001A01DD2009F4E1C086AD54E0859FC00122
:104C90001124DC01A55CBE4EC95FDE4FB983A88339
:104CA000C750D140C801880F991F800F911F9C01E8
:104CB000255C3C4EC75FDE4F39832883C950D14005
:104CC000C15FDE4F19830883CF50D140C701801BDD
:104CD000910B9C0150E040E0CB5EDE4F288339838E
:104CE0004A835B83C551D140C15FDE4F4881598102
:104CF000CF50D1404E155F0508F081CFBA01601B3F
:104D0000710B90E080E00E947E352B013C01CB5E70
:104D1000DE4F688179818A819B81C551D1400E9493
:104D20007E359B01AC01C301B2010E9424372B01E7
:104D30003C01C95FDE4FA881B981C750D1401296AE
:104D40008C90F10162816819770B072E000C880B9B
:104D5000990B0E948035A30192010E94DF350E94C9
:104D60009637860EC95FDE4FA881B981C750D14002
:104D70001196DC90F10161816D19770B072E000C03
:104D8000880B990B0E948035A30192010E94DF35A8
:104D90000E949637D60EC95FDE4FA881B981C750F1
:104DA000D140CC90F10160816C19770B072E000C7B
:104DB000880B990B0E948035A30192010E94DF3578
:104DC0000E949637C60EC75FDE4FA881B981C950D1
:104DD000D140CC921196DC92119712968C92129738
:104DE000C15FDE4FE881F981CF50D1403196C15F7C
:104DF000DE4FF983E883CF50D1401396C75FDE4F73
:104E0000B983A883C950D1406FCF80EC9AE00E944B
:104E1000410F19C01501B4E02B0E311CDD20A9F0A3
:104E2000C95FDE4FB982A882C750D1403BCFCF5E69
:104E3000DE4FE881F981C151D140E55CFE4EE7AC1F
:104E4000E00EF12EF11CD1102DCFC55FDE4F288171
:104E50003981CB50D1402330310508F4D0CEF80150
:104E6000EE0FFF1FE00FF11FE55CFC4E0E151F0556
:104E700008F0C5CED10112968C91129711969C9193
:104E800011972C912083918382830F5F1F4F33965C
:104E9000EDCF0E94BA05BE0168507F4FCE0101964A
:104EA0000E94110F43E75EE068E87EE0CE010196C4
:104EB0000E947D1581E080933C11BE0160597F4FB7
:104EC000CE0101960E94740ECE0101960E942D091A
:104ED0008F3FA1F4E0916C06EF3F81F0F0E0EC59D8
:104EE000F54F9081911103C091E090933B11809315
:104EF0006C0610923611109235110BC880936C0617
:104F000008C88CE99EE00C947D1F8091BA1114E0D2
:104F1000819FC00111249C01215C3E4E190114C0E7
:104F2000CC24C394D12CF12CE12C8330910509F0D1
:104F300022CD26CD8330910571F040F4019728F7FA
:104F400082EE9DE00E94410FA0E020C086309105D6
:104F5000E0F20697A9F720E0A0E08091BA1114E0F2
:104F6000819FC0011124AC01415C5E4E1A01AA234D
:104F700069F054E0259F900111248901015C1E4EC7
:104F8000C95FDE4F19830883C750D14080913D111E
:104F900090913E118330910549F08630910509F0DA
:104FA000C6CB2091BA11222309F4C1CB4091BA118A
:104FB00050E0EBE7F1E130E020E0B12CA12C241728
:104FC000350708F0CECB6191A60EB11C2F5F3F4F85
:104FD000F6CFEF92FF921F93CF93DF93CDB7DEB75B
:104FE000CB57D1090FB6F894DEBF0FBECDBF2FEF60
:104FF000240F243020F526E030E0423031F024E068
:1050000030E0443011F025E030E030933E11209341
:105010003D11142F7C01CE0101960E94740EB70140
:10502000CE0180599F4F0E94110F42E0410FBE01F7
:105030006F5F7F4FCE0180599F4F0E94041FC5585C
:10504000DF4F0FB6F894DEBF0FBECDBFDF91CF911B
:105050001F91FF90EF9008952F923F924F925F9291
:105060006F927F928F929F92AF92BF92CF92DF9278
:10507000EF92FF920F931F93CF93DF93CDB7DEB7DD
:10508000C654D1400FB6F894DEBF0FBECDBF7C0131
:10509000142F473038F4423018F5413039F08BE2A4
:1050A0009FE09CC04730F1F14930C9F7CA5BDE4F41
:1050B0000FB6F894DEBF0FBECDBFDF91CF911F9129
:1050C0000F91FF90EF90DF90CF90BF90AF909F90A7
:1050D0008F907F906F905F904F903F902F900895AA
:1050E00083E090E0443031F081E090E0463011F010
:1050F00082E090E090933E1180933D11CE010196A5
:105100000E94740EB701CE0180599F4F0E94110F6B
:10511000412FBE016F5F7F4FCE0180599F4F0E948C
:10512000041FC4CF8AE090E090933E1180933D111C
:10513000CE0180599F4F0E94740EB701CE01939506
:105140000E94110F9E012C5C3E4FC15CDE4F3983E3
:105150002883CF53D14088E0D901E82F1D92EA95EA
:10516000E9F728503109CF5BDE4F39832883C154DA
:10517000D140D901E82F1D92EA95E9F7AE014C5DC7
:105180005E4FDA01E82F1D92EA95E9F7BE01645EF1
:105190007E4FDB01E82F1D92EA95E9F7DE01AC5E58
:1051A000BE4FFD01282F11922A95E9F79E01245F39
:1051B0003E4FF90111928A95E9F780913211909151
:1051C00033118230910509F4C5C058F4009709F4F1
:1051D00064C0019709F474C08EE19FE00E94410F02
:1051E00065CF8330910509F44CC10497A9F78091EC
:1051F0003C1181115CC2C0904011D12CB12CA12C6A
:105200001FEFB3E3CB16D10408F03EC27501EE0CDC
:10521000FF1CEA0CFB1CF701E55CFC4E7F0145011D
:10522000C6018A199B099C0150E040E0CD5BDE4F2E
:10523000288339834A835B83C354D1408C149D04F3
:1052400008F01CC2B4016A197B0990E080E00E945A
:105250007E352B013C01CD5BDE4F688179818A81EF
:105260009B81C354D1400E947E359B01AC01C30198
:10527000B2010E9424372B013C0180913F11813003
:1052800009F408C1823009F4B8C183E09FE00E94AC
:10529000410F412C512C320150C181E080939A057D
:1052A00080936205109265058FEF80939D050E94A3
:1052B000330281E090E09093331180933211F6CE67
:1052C00080919A05882321F164ED7EE08AE995E0DA
:1052D0000E94A61043E150E060EE7EE08EEA95E089
:1052E0000E94783A43E150E068EE7EE081EC95E080
:1052F0000E94783ABE017395CE0101960E94110F6B
:105300006AE975E0CE0101960E94EB1D10929A05A4
:10531000BE0160597F4FCE0101960E94740EBE01FE
:105320007395CE0181529F4F0E94110F4AE955E0BB
:10533000BE016F5F7F4FCE0181529F4F0E94831D40
:1053400080919D058F3F09F4B1CE80933F1182E09B
:1053500090E0B1CF80916205882309F472C04DE0DE
:1053600050E060EF7EE088E795E00E94783A85E0C3
:10537000E4E1FAE0DE01A152BF4F01900D928A955F
:10538000E1F780E1EFEDF0E0EC0FFD1F3596DF0176
:105390001D928A95E9F74AE0BE01645C7E4F82E384
:1053A00090E00E94443565E170E0CE0181529F4F4C
:1053B0000E94393504E110E0A801481B590BBE01D9
:1053C000645C7E4FCE0181529F4F0E94683A65E136
:1053D00070E0CE0181529F4F0E943935A801481BD1
:1053E000590B6CEF7EE0CE0181529F4F0E94683ACC
:1053F00045E150E0BE0161527F4F85E895E00E9493
:10540000783A80E491E19093770580937605BE0128
:1054100060597F4FCE0101960E94740EBE017395B4
:10542000CE018C509F4F0E94110F42E655E0BE0105
:105430006F5F7F4FCE018C509F4F0E948418109257
:105440006205BE0160597F4FCE0101960E94740E25
:10545000BE017395CE0181529F4F0E94110F42E60B
:1054600055E0BE016F5F7F4FCE0181529F4F0E947A
:10547000DC1580916505882309F418CE83E090E05F
:105480001ACF109234110E9494020E94BA0584E04F
:1054900090E011CF2BEA3AEA4AEA5EE3C301B20197
:1054A0000E94793587FF1BC0CB5CDE4F1883C55344
:1054B000D140C85CDE4F1883C853D14088E0FE015C
:1054C000EC5CFE4FAAE2B1E101900D928A95E1F702
:1054D00020E030E040E450E4C301B2012AC02BEAEE
:1054E0003AEA4AE25FE3C301B2010E94793587FFDD
:1054F0006BC0C25DDE4F1883CE52D140CF5CDE4F11
:105500001883C153D14088E0FE01E45DFE4FAAE25A
:10551000B1E101900D928A95E1F72BEA3AEA4AEA65
:105520005EE3C301B2010E94B73620E030E040E400
:1055300050E40E94DF352B013C0100913011609155
:105540002C11601B770B072E000C880B990B0E9407
:105550008035A30192010E94DF350E949637060F25
:1055600030902F1160912B116319770B072E000CCF
:10557000880B990B0E948035A30192010E94DF35B0
:105580000E949637360E20902E1160912A116219D2
:10559000770B072E000C880B990B0E948035A30116
:1055A00092010E94DF350E949637260ED7012C9279
:1055B00011963C92119712960C93BFEF8B1A9B0A8F
:1055C000E3E0EE0EF11C3ACECC5DDE4F1883C45200
:1055D000D140C65DDE4F1883CA52D14088E0FE013B
:1055E000EC5DFE4FAAE2B1E101900D928A95E1F7E0
:1055F0002BEA3AEA4AE25FE394CF2BEA3AEA4AEA34
:105600005EE3C301B2010E94793587FF0FC0C25E1D
:10561000DE4F1883CE51D140C05EDE4F1883C0529A
:10562000D14088E0FE01E45EFE4F4CCF2BEA3AEA1F
:105630004AE25FE3C301B2010E94793587FF0FC0E0
:10564000CB5EDE4F1883C551D140C65EDE4F188356
:10565000CA51D14088E0FE01EC5EFE4F58CFC45FD6
:10566000DE4F1883CC50D140CF5EDE4F1883C1513E
:10567000D14088E0FE01E45FFE4FB4CF809140113D
:105680005601C80ED11CBDCD0E94BA05BE0173954E
:10569000CE0101960E94110F43E75EE068E87EE0CC
:1056A000CE0101960E947D1581E080933C11BE01E0
:1056B00060597F4FCE0101960E94740ECE01019673
:1056C0000E942D098F3F89F4E0916105EF3F69F059
:1056D000F0E0EC59F54F9081911103C091E0909367
:1056E0003B11109233111092321180936105DECC80
:1056F000EF92FF920F931F93CF93DF93CDB7DEB757
:10570000CB57D1090FB6F894DEBF0FBECDBF8C01C9
:105710007B0180918F04882399F16BE37FE08FE810
:1057200094E00E94A61043E150E065E47FE083EA44
:1057300094E00E94783A43E150E061E57FE086EB37
:1057400094E00E94783A43E150E06FE57FE089EC15
:1057500094E00E94783A43E150E06EE67FE08CED01
:1057600094E00E94783AB801CE0101960E94110F90
:105770006FE874E0CE0101960E94EB1D10928F0439
:10578000B701CE0101960E94740EB801CE01805976
:105790009F4F0E94110F4FE854E0BE016F5F7F4F93
:1057A000CE0180599F4F0E94831DC558DF4F0FB611
:1057B000F894DEBF0FBECDBFDF91CF911F910F9147
:1057C000FF90EF900895EF92FF920F931F93CF9366
:1057D000DF93CDB7DEB7CB57D1090FB6F894DEBF54
:1057E0000FBECDBF8C017B018091BD03882309F4DE
:1057F0005BC06EE77FE08DEB93E00E94A61043E173
:1058000050E061EE7BE081ED93E00E94783A43E165
:1058100050E066E87FE084EE93E00E94783A43E14E
:1058200050E065E47FE087EF93E00E94783A43E13F
:1058300050E062E97FE08AE094E00E94783A43E138
:1058400050E06FE97FE08DE194E00E94783A43E117
:1058500050E06EEA7FE080E394E00E94783A43E112
:1058600050E06EEB7FE083E494E00E94783A43E1FD
:1058700050E066EC7FE086E594E00E94783A43E1F0
:1058800050E065E37CE089E694E00E94783AB80154
:10589000CE0101960E94110F6DEB73E0CE010196CF
:1058A0000E94EB1D1092BD03B701CE0101960E942C
:1058B000740EB801CE0180599F4F0E94110F4DEB1D
:1058C00053E0BE016F5F7F4FCE0180599F4F0E9412
:1058D000831DC558DF4F0FB6F894DEBF0FBECDBF96
:1058E000DF91CF911F910F91FF90EF900895CF928C
:1058F000DF92EF92FF920F931F93CF93DF93CDB779
:10590000DEB7C65FD1090FB6F894DEBF0FBECDBFBC
:1059100090912B10992309F491C22091EB022F3F13
:1059200041F0792F2A3031F071E08091EE02821738
:1059300008F070E0809119028F3F41F0692F8A30A2
:1059400031F061E030911C02381708F060E080917E
:10595000C0038F3F41F0592F8A3031F051E0309130
:10596000C303381708F050E0809192048F3F41F054
:10597000492F8A3031F041E030919504381708F012
:1059800040E0809122098F3F41F0392F8A3031F079
:1059900031E0E0912509E81708F030E0E0912C10A3
:1059A000E850F1E0E73F08F0F0E0E0911708EF3F42
:1059B00039F0EA3031F091E080911A088E1708F042
:1059C00090E0235081E0243008F080E08F2B872B7B
:1059D000862B852B842B832B09F491110E94390E81
:1059E0008091EB028F3F09F0C1C06AEA74E1CE01F9
:1059F00080599F4F0E94740E6EE974E1CE0185516B
:105A00009F4F0E94110F8091E802882309F445C03E
:105A10006FEC7FE088EE92E00E94A61043E150E038
:105A20006AED7FE08CEF92E00E94783A43E150E02B
:105A30006BE67CE08FE093E00E94783A43E150E02F
:105A400061EE7FE082E293E00E94783A43E150E029
:105A500066EE7FE085E393E00E94783A43E150E010
:105A60006CEE7FE088E493E00E94783A43E150E0F6
:105A700065EF7FE08BE593E00E94783ABE016551C7
:105A80007F4FCE0101960E94110F68EE72E0CE01A9
:105A900001960E94EB1D1092E802BE0160597F4FF3
:105AA000CE0101960E94740EBE0165517F4FCE015A
:105AB00081529F4F0E94110F48EE52E0BE016F5F6E
:105AC0007F4FCE0181529F4F0E94831D0E9401048F
:105AD00000912710109128102091291030912A1040
