:100000000C9400020C9431020C9431020C943102D5
:100010000C9431020C9431020C9431020C94310294
:100020000C9431020C9431020C9431020C94310284
:100030000C9431020C9431020C9431020C94310274
:100040000C9431020C9431020C9431020C94310264
:100050000C9431020C9431020C9431020C94E63170
:100060000C9431020C945A320C9430320C943102BC
:100070000C9431020C9431020C9431020C94310234
:100080000C9431020C9431020C9431020C94310224
:100090000C9431020C9431020C9431020C94903285
:1000A0000C9431020C9431020C9431020C94310204
:1000B0000C9431020C9431020C9431020C943102F4
:1000C0000C9431020C9431020C9431020C943102E4
:1000D0000C9431020C9431020C9431020C943102D4
:1000E0000C9431020C940E030C94CE020C94E30297
:1000F0000C940A070C943E070C9448240C940103BA
:100100000C94F3020C94FE200C94F7020C940D0452
:100110000C94D8020C94B4330C945D0E0C944704E8
:100120000C9470020C94E40D0C94630E0C94790DF5
:100130000C94F7060C944E050C9456040C94780419
:100140000C9484200C94600E0C9413040C942209DB
:100150000C949C240C943E0F0C941F0B0C940503E0
:100160000C94FD040C9487020C940E040C9411075B
:100170000C9483020C942A090C947C0D0C94E706D1
:100180000C94E8060C9488120C947E0D0C94542167
:100190000C94D9220C9404240C94ED020C946A045F
:1001A0000C94FB020C940F040C94D4020C941303D3
:1001B0000C9493240C9450020C94E0020C940F03C2
:1001C0000C9464020C94DC020C9426090C941E120C
:1001D0000C94E9020C94B0040C943D0F0C940903A8
:1001E00048483A4D4D20414D002A002A2A2A2A2A01
:1001F0002A2A2A2A2A2A2A2A2A2A2A2A2A2A2A0089
:100200005F5F5F5F5F5F00456E7465722050617372
:1002100073776F72643A002A2A2A2A2A2A2A2A2AFB
:100220002A2A2A2A2A2A2A2A2A2A2A002376002A3D
:100230005E002D0030002D005F005F005F5F5F00FB
:1002400050726573732027302720696620646F6EB3
:10025000652E00202020202020636F6E74696E754B
:1002600065002020507265737320616E79206B6584
:100270007920746F004D4F4E4441592B2B20536D04
:1002800061727421204C454473002A2A2A2A2A2AA2
:100290002A2A2A2A2A2A2A2A2A2A2A2A2A2A000012
:1002A000002100240027002A002D00300033000127
:1002B000010000040107010A0100002200250028B6
:1002C000002B002E0031003400020100000501085F
:1002D000010B01000020002300260029002C002F24
:1002E00000320000010000030106010901050505B7
:1002F00005070508080808020202020A0A0808049D
:1003000004040401010101010101010303030303CA
:10031000030303040707070C0C0C0C0C0C0C0C0259
:1003200002020206060606060606060B0B0B0B0B60
:100330000B0B0B0102102020080810204010204059
:100340008002010201080402010102040810204099
:1003500080804020100804020180040201804020B7
:1003600010080402010804020101020408102040E0
:1003700080010204081020408000000A0B02090CD2
:100380000D0E08070304010000000000000000003B
:10039000000000000000000000000000000000005D
:1003A000000000000012111000000000000000001A
:1003B00000000000000000000000000000000052EB
:1003C0003A205F5F5F20473A205F5F5F20423A201C
:1003D0005F5F5F004E756D626572206F66204C45F1
:1003E00044733A205F5F5F00523A205F5F5F2047AF
:1003F0003A205F5F5F20423A205F5F5F0000B433C6
:1004000011241FBECFEFD1E2DEBFCDBF00E00CBF95
:1004100025E1A6E1B0E101C01D92A532B207E1F7E6
:1004200010E1A0E0B2E0E8E9F7E700E00BBF02C0AE
:1004300007900D92A631B107D9F711E0C0E0D2E0E4
:1004400000E006C021970109802FFE010E9481393A
:10045000CF3FD10780E00807A9F70E947E340C94B3
:10046000CA3B0C9400001092431110924411E09189
:100470004511F09146113197EA30F10508F047C077
:100480008827EA5BFD4F8F4F0C948139500264023C
:1004900070025002640270028702870287028302A0
:1004A000E3E4F1E11782148215821682349681E129
:1004B000EF37F807B9F7E3E8F1E181EA91E111924A
:1004C0008E179F07E1F70895E3E4F1E117821482A4
:1004D00015821682349681E1EB3BF807B9F708954F
:1004E000E3E4F1E11782148215821682349681E1E9
:1004F000EF37F807B9F7E3E8F1E1119281E1E2396A
:10050000F807D9F7089510924711109248110895ED
:1005100020E0DC0160FF03C001C02D932D936250E9
:10052000E0F77040D0F70895CF93DF93C091EA13BE
:10053000D091EB13209789F08A819B81009749F035
:100540002D853E85B901660F771F620F731F0E94CC
:1005500088020C80DD81C02DEDCFDF91CF91089511
:100560008150823108F05AC0E82FF0E08827E45427
:10057000FD4F8F4F0C948139DC02E002CE02D40291
:10058000D8020E03E302E902ED02F302F702FB02D6
:10059000010305030E0309030F0313038091800079
:1005A0008F77809380000895809180008F7DF9CFB0
:1005B00080918000877FF5CF84B58F7784BD0895C3
:1005C00084B58F7DFBCF8091B0008F778093B00092
:1005D00008958091B0008F7DF9CF809190008F7742
:1005E000809390000895809190008F7DF9CF809145
:1005F0009000877FF5CF8091A0008F778093A00037
:1006000008958091A0008F7DF9CF8091A000877F11
:10061000F5CF809120018F778093200108958091FC
:1006200020018F7DF9CF80912001877FF5CFCF9377
:10063000DF93282F30E0F901E758FC4F8491F9014E
:10064000ED5CFC4FD491F901E351FD4FC491CC23F3
:10065000A1F081110E94B002EC2FF0E0EE0FFF1F1D
:10066000ED52FD4FA591B491EC91ED2381E090E026
:1006700009F480E0DF91CF91089580E090E0FACF17
:100680001F93CF93DF93282F30E0F901E758FC4FF9
:100690008491F901ED5CFC4FD491F901E351FD4FD8
:1006A000C491CC23A9F0162F81110E94B002EC2F27
:1006B000F0E0EE0FFF1FE754FD4FA591B4918FB707
:1006C000F894EC91111108C0D095DE23DC938FBF14
:1006D000DF91CF911F910895DE2BF8CFCF93DF9359
:1006E00090E0FC01ED5CFC4F249183519D4FFC0197
:1006F00084918823C9F090E0880F991FFC01E1568E
:10070000FD4FA591B491FC01E754FD4FC591D491E3
:1007100061110DC09FB7F8948C91209582238C9322
:100720008881282328839FBFDF91CF91089562306D
:1007300051F49FB7F8943C91822F809583238C933A
:10074000E8812E2BEFCF8FB7F894EC912E2B2C93C2
:100750008FBFEACF3FB7F89480912E1190912F115F
:10076000A0913011B091311126B5A89B05C02F3F43
:1007700019F00196A11DB11D3FBFBA2FA92F982FC7
:100780008827BC01CD01620F711D811D911D42E0C2
:10079000660F771F881F991F4A95D1F708958F928A
:1007A0009F92AF92BF92CF92DF92EF92FF924B0156
:1007B0005C010E94AA036B017C010E94AA036C19D0
:1007C0007D098E099F09683E734081059105A8F354
:1007D00021E0821A9108A108B10888EEC80E83E0D2
:1007E000D81EE11CF11C81149104A104B10429F765
:1007F000FF90EF90DF90CF90BF90AF909F908F9041
:1008000008952FB7F89460912A1170912B1180915F
:100810002C1190912D112FBF089508950895FC017A
:10082000848590E00895AF92BF92CF92DF92EF92CD
:10083000FF920F931F93CF93DF936C017B018B018A
:10084000040F151FEB015E01AE18BF08C017D107DA
:1008500059F06991D601ED91FC910190F081E02D64
:10086000C6011995892B79F7C501DF91CF911F91A9
:100870000F91FF90EF90DF90CF90BF90AF900895D1
:10088000FB0144815581608171810C941304FC014A
:10089000538D448D252F30E0842F90E0821B930BE5
:1008A000541710F0CF96089501970895FC01918D8B
:1008B000828D981761F0A28DAE0FBF2FB11D5D968E
:1008C0008C91928D9F5F9F73928F90E008958FEF30
:1008D0009FEF0895FC01918D828D981731F0828DE4
:1008E000E80FF11D858D90E008958FEF9FEF08953B
:1008F000FC01918D228D892F90E0805C9F4F821B9F
:1009000091098F739927089580EF93E10E947804ED
:1009100021E0892B09F420E0822F0895FC01A48DA9
:10092000A80FB92FB11DA35ABF4F2C91848D90E011
:1009300001968F739927848FA689B7892C93A089F4
:10094000B1898C91837080648C93938D848D98137E
:1009500006C00288F389E02D80818F7D8083089511
:10096000EF92FF920F931F93CF93DF93EC0181E0FF
:10097000888F9B8D8C8D98131AC0E889F9898081A6
:1009800085FF15C09FB7F894EE89FF896083E889D9
:10099000F98980818370806480839FBF81E090E0CB
:1009A000DF91CF911F910F91FF90EF900895F62E58
:1009B0000B8D10E00F5F1F4F0F731127E02E8C8DF2
:1009C0008E110CC00FB607FCFACFE889F989808137
:1009D00085FFF5CFCE010E948E04F1CFEB8DEC0F99
:1009E000FD2FF11DE35AFF4FF0829FB7F8940B8F54
:1009F000EA89FB8980818062CFCFCF93DF93EC01BE
:100A0000888D8823B9F0AA89BB89E889F9898C91F6
:100A100085FD03C0808186FD0DC00FB607FCF7CFB2
:100A20008C9185FFF2CF808185FFEDCFCE010E94B2
:100A30008E04E9CFDF91CF91089580E090E0892B7B
:100A400029F00E94840481110E94000080E090E05F
:100A5000892B49F080E090E0892B29F00E9400006A
:100A600081110E94000080E090E0892B49F080E035
:100A700090E0892B29F00E94000081110E94000063
:100A800080E090E0892B49F080E090E0892B29F00C
:100A90000E94000081110C940000089581E090E014
:100AA00008954F925F926F927F928F929F92AF9232
:100AB000BF92CF92DF92EF92FF920F931F93CF934B
:100AC000DF9300D0CDB7DEB76A0119821A821B828C
:100AD0008823C9F18B01E1E0F0E0482E512C712C04
:100AE000612CD8012D918D01222349F17F01B1E0C4
:100AF000EB1AF108D601AE0DBF1D8C908820F9F0DD
:100B000030E050E040E02F5F3F4F4F4F5F4FC30159
:100B1000B2010E9408399B01AC01912CB12CA12C8F
:100B2000C501B4016F5F7F4F8F4F9F4F0E940839FF
:100B3000A1E0B0E0AC0FBD1FAE0DBF1D8C93319690
:100B4000E430F10571F669817A818B810F900F9005
:100B50000F90DF91CF911F910F91FF90EF90DF9059
:100B6000CF90BF90AF909F908F907F906F905F904D
:100B70004F900895CF92DF92EF92FF920F931F93C1
:100B8000CF93DF93F0908D148091901490919114F5
:100B9000A0919214B0919314892B8A2B8B2BD9F0AE
:100BA0000E94AA030091EC131091ED132091EE1313
:100BB0003091EF13601B710B820B930B009190141B
:100BC0001091911420919214309193146017710731
:100BD00082079307C8F20E94AA036093EC137093F4
:100BE000ED138093EE139093EF13E0919814F0912E
:100BF0009914309759F04091941450919514609144
:100C00009614709197148F2D1995F82EC091EA13B0
:100C1000D091EB13209721F1EC8480918E14909168
:100C20008F148436910508F41C86E881F981C2800E
:100C3000D380AE01475F5F4FBE016A5F7F4F8F2D4C
:100C40000E9451058B01282F4D855E856A817B812D
:100C5000CE01F6011995EC860C80DD81C02DDACF2E
:100C60008091E8139091E913EC012196D093E91358
:100C7000C093E8134997E4F10E9401040091E41342
:100C80001091E5132091E6133091E7136B017C017D
:100C9000C01AD10AE20AF30AA7019601211531050B
:100CA0004105510521F421E030E040E050E088EEBC
:100CB00093E0C89FB001C99F700DD89F700D11249B
:100CC000072E000C880B990B0E94403930938F142B
:100CD00020938E141092E9131092E8130E940104DD
:100CE0006093E4137093E5138093E6139093E713F6
:100CF000DF91CF911F910F91FF90EF90DF90CF90F8
:100D000008952091B510260F3327331F2132310566
:100D1000ECF42091D910FC0190E080E0243069F0DF
:100D200082E00895A091B5102191AC014B565F4E21
:100D3000A40FB52FB11D2C930196861798F38091BF
:100D4000B510680F6093B51080E0089581E00895B4
:100D50001092D91081E08093DB101092DA1061E0DC
:100D600084E10E94400361E085E10E944003E9EBD9
:100D7000F0E080818E7F808380818D7F808388E416
:100D80008093B80085E48093BC000895CF93DF93EF
:100D900091E0909394108823B9F0C091B800D0915D
:100DA000BA008091BC008A7B8093BC0060E084E143
:100DB0000E94400360E085E10E9440030E94A80673
:100DC000D093BA00C093B800DF91CF9108950895F1
:100DD000E091281180912711E81730F4F0E0E159F3
:100DE000FF4E808190E008958FEF9FEF08959091DE
:100DF0002811809127112FEF3FEF981748F4E92F22
:100E0000F0E0E159FF4E208130E09F5F9093281180
:100E1000C90108958091271190912811891B990B80
:100E20000895CF92DF92EF92FF920F931F93CF938B
:100E3000DF937C01CB018A0120916E10222389F07F
:100E4000EB016B01C40ED51ECC15DD0569F069916F
:100E5000D701ED91FC910190F081E02DC70119952A
:100E6000F3CF642F0E948106C801DF91CF911F91BB
:100E70000F91FF90EF90DF90CF900895CF93DF9385
:100E80001F92CDB7DEB7698320916E102223F9F04F
:100E900020912511203258F021E030E0FC0133830D
:100EA000228390E080E00F90DF91CF9108958091B0
:100EB0002611E82FF0E0E25BFF4E998190838F5F6F
:100EC000809326118093251181E090E0ECCF61E0C2
:100ED000CE0101960E948106F7CFCF92DF92EF926A
:100EE000FF920F931F93CF93DF93FC01C48121E006
:100EF00020936E10C0934D10109226111092251160
:100F00008385682B8AE994E10E943E07D0912511E0
:100F1000D13208F092C00E94AA036B017C0180913B
:100F2000D910811165C082E08093D91081E080934F
:100F3000DB108FEF8093D8101092FD10D093FC102F
:100F4000AEE4B0E1ECEDF0E180E0D81385C01092A2
:100F5000FE108091FE10CC0FC82BC093FE10809124
:100F6000DA10813009F07CC01092DA100E94AA03D6
:100F70006B017C018091FE108093BB0080919010EA
:100F800090919110A0919210B0919310892B8A2B7F
:100F90008B2B99F00E94AA03009190101091911050
:100FA00020919210309193106C197D098E099F0940
:100FB0000617170728073907E0F18091BC0083FD69
:100FC000D9CF85EC8093BC000E94AA036B017C0101
:100FD0008091D910823009F445C08091D8108F3F9C
:100FE00061F18091D810803241F18091D81025C0F4
:100FF0008091901090919110A0919210B0919310C7
:10100000892B8A2B8B2B09F48ACF0E94AA0300918B
:1010100090101091911020919210309193106C19B2
:101020007D098E099F09061717072807390708F059
:1010300076CF80918F100E94C606109226111092D2
:10104000251110926E10DF91CF911F910F91FF909B
:10105000EF90DF90CF9008959D9191938F5F75CF22
:1010600085EEB0CF8091901090919110A091921048
:10107000B0919310892B8A2B8B2B09F4A9CF0E9456
:10108000AA0300919010109191102091921030912C
:1010900093106C197D098E099F09061717072807F9
:1010A000390708F095CFC5CFCF93DF93DC0126E059
:1010B000629FA00DB11D112490965C934E935F9793
:1010C00021E091962C939197FC01E359FF4F0190F9
:1010D000F081E02DEC01C459DF4F2881222341F03B
:1010E000309719F0DC01662329F0DF91CF91089544
:1010F0003097D9F35C968C91DF91CF911994CF9270
:10110000DF92EF92FF920F931F93CF93DF93EC0147
:10111000162F042FFC0186E0689FE00DF11D1124BD
:1011200011A2878D90A18130910509F180F0823064
:10113000910509F443C0039709F445C0DF91CF91AD
:101140001F910F91FF90EF90DF90CF90089544236F
:10115000A9F341E050E0CE010E9454080E9401042E
:10116000C85ADF4F688379838A839B83E7CF0E94C5
:101170000104FE01E85AFF4FC080D180E280F38075
:10118000AB01BC014C195D096E097F097296808123
:101190009181B0E0A0E084179507A607B70770F427
:1011A00042E050E0612FCE01DF91CF911F910F916E
:1011B000FF90EF90DF90CF900C94540843E050E004
:1011C0000111BCCFEFCF50E040E0ECCF8F929F9267
:1011D000AF92BF92CF92DF92EF92FF92CF93DF93C5
:1011E000EFEFE60FEC01C12CD12C7601EF3FE9F0D7
:1011F0008990912CB12CA12CF0E061E070E080E0AE
:1012000090E0FE1741F0AAE0B0E09B01AC010E9423
:10121000E037FF5FF6CFA50194010E940839C60EA2
:10122000D71EE81EF91EE150E1CFC701B601DF91DC
:10123000CF91FF90EF90DF90CF90BF90AF909F90B5
:101240008F900895862F642F0C946E03862F642F41
:101250000C944003862F0C9417032F923F924F92C9
:101260005F926F927F928F929F92AF92BF92CF9236
:10127000DF92EF92FF920F931F93CF93DF93CDB73F
:10128000DEB72C970FB6F894DEBF0FBECDBF9C879C
:101290008B8784599F4F9A83898381E0A981BA8182
:1012A0008C930E940104EB85FC85E45AFF4FFC837C
:1012B000EB830081118122813381AB01BC01401B92
:1012C000510B620B730BEB85FC85E859FF4F808156
:1012D0009181B0E0A0E084179507A607B70708F052
:1012E00037C110E0CB84DC84F6E6CF0ED11CEB8452
:1012F000FC8422E6E20EF11CD6018C91181758F4FA
:10130000D701ED91FC91E10FF11D62E080810E9417
:101310006E031F5FF1CF312C4B845C84B7E64B0E1C
:10132000511CEB84FC84E4E6EE0EF11C812C912C24
:10133000540183942B853C852E593F4F3A8729874A
:10134000D2018C91381608F063C0032D10E0D7014C
:10135000ED91FC91E00FF11F61E080810E946E032E
:10136000D701ED91FC91E00FF11F60E080810E94B8
:101370004003D501C401032C04C0880F991FAA1F84
:10138000BB1F0A94D2F79E838D83FC01E095F095F4
:10139000F887EF83212CD6018C91281620F5622C3A
:1013A000712CA985BA85ED91FC91E60DF71D808120
:1013B0000E941703660C771CEB85FC85E60DF71D74
:1013C000892B51F4808591852D813E81822B932B31
:1013D000918780872394DFCF80859185AF81B88501
:1013E0008A239B23F5CFD701ED91FC91E00FF11FEC
:1013F00061E080810E944003F70180819181080FA4
:10140000191F60E0D8018C910E946E03339498CF2D
:101410000B851C85C801CC9678012FEF3FEFF701B3
:10142000478D50A1452B21F4148E368F258F11A2A4
:10143000F6E0EF0EF11CE816F90689F7A12C96E00C
:10144000392E8B849C8420E6820E911CD6018C91CF
:10145000A81608F05AC0B12C6A2C712CB4E06B0E9F
:10146000711C660C771CEB85FC856E0E7F1ED2010D
:101470008C91B81608F047C0F301408151810B2CC4
:1014800002C0569547950A94E2F7A89EC001112420
:101490008B0D911DEB85FC8560E0258D368D8217C7
:1014A000930709F473C06F5F36966A30B1F740FF57
:1014B00028C0EB85FC8570E060E0248D21111BC005
:1014C000369EF001379EF00D11242B853C85E20FEE
:1014D000F31FD4012D913C91D901A80FB91F2C9174
:1014E000248F968F858F10A2178E41E08B859C8567
:1014F0000E947F0806C06F5F7F4F36966A30710585
:10150000E1F6B394B4CFA394A1CFD12CF80181A17B
:101510008111D82E0A5F1F4FE016F106B9F70E941D
:101520000104AB81BC816D937D938D939C93139744
:10153000DD2071F0EB85FC8581A1882349F0878D42
:1015400090A1019729F4848D811106C08FEF05C009
:10155000A981BA811C92FACF81532C960FB6F894C8
:10156000DEBF0FBECDBFDF91CF911F910F91FF90D6
:10157000EF90DF90CF90BF90AF909F908F907F9033
:101580006F905F904F903F902F9008954170AECF35
:10159000FC01848180FF05C0128A84FF0AC0638B2E
:1015A000089581FF03C02695228BF7CF82FFF5CFE8
:1015B000FBCF85FF04C04695460F438B02C086FDD6
:1015C000FBCF08950F931F93CF93DF9320912E109D
:1015D0002F5F322F377030932E1020FF2BC020E862
:1015E00031FD2064347009F02062205FFC01EC01C1
:1015F000239600E011E06785662329F070E0C801BA
:101600000E942C396F5F6187822F869F080E80E0D1
:10161000811D1124811110C01682662311F06150C2
:1016200061873196EC17FD0731F7DF91CF911F915C
:101630000F91089520E0D4CF81508683EECF4F9252
:101640005F927F928F929F92AF92BF92CF92DF92E2
:10165000EF92FF920F931F93CF93DF932C01EB0137
:101660000E94AA03F20126893789621B730B6A3034
:101670007105B0F3F8948A819B81181619060CF055
:10168000CDC1E881F9816EB1862E689484F83EB1AF
:101690003F7E3EB9D9848E812D2D281B822F2E832B
:1016A0004C85042E000C550BAA81BB817F85F888E0
:1016B000E9887F5FF394E3949F819884BA84AB8434
:1016C0001081C12C6C2D0C2D2C2D2081112788947C
:1016D0002111280F08F42FEF8195889470FD120FC7
:1016E0001795889471FD120F1795889472FD120F4B
:1016F0001795889473FD120F1795889474FD120F37
:101700001795889475FD120F1795889476FD120F22
:101710001795889477FD120F17958894622F711191
:10172000612F8D0D162F002C8EB800C000C017FF42
:101730003EB921816627889400C0002C3EB9211152
:10174000290F00C0002C8EB800C000C016FF3EB9A3
:1017500008F42FEF9195889400C0002C3EB9F0FC5E
:10176000620F00C0002C8EB800C000C015FF3EB94B
:1017700067958894F1FC620F00C0002C3EB9679514
:10178000889400C0002C8EB800C000C014FF3EB981
:10179000F2FC620F6795889400C0002C3EB9F3FC00
:1017A000620F00C0002C8EB800C000C013FF3EB90D
:1017B00067958894F4FC620F00C0002C3EB96795D1
:1017C000889400C0002C8EB800C000C012FF3EB943
:1017D000F5FC620F6795889400C0002C3EB9F6FCBA
:1017E000620F00C0002C8EB800C000C011FF3EB9CF
:1017F00067958894F7FC620F00C0002C3EB967958E
:10180000889400C0002C8EB800C000C010FF3EB904
:10181000122FF110162F9B0D00C0002C3EB900C0F6
:1018200000C0002C8EB800C000C017FF3EB9228156
:101830006627889400C0002C3EB92111290D00C0F4
:10184000002C8EB800C000C016FF3EB908F42FEF80
:10185000E40FF51F00C0002C3EB9E0FC620F00C091
:10186000002C8EB800C000C015FF3EB96795889463
:10187000E1FC620F00C0002C3EB96795889400C05F
:10188000002C8EB800C000C014FF3EB9E2FC620F0D
:101890006795889400C0002C3EB9E3FC620F00C03D
:1018A000002C8EB800C000C013FF3EB96795889425
:1018B000E4FC620F00C0002C3EB96795889400C01C
:1018C000002C8EB800C000C012FF3EB9E5FC620FCC
:1018D0006795889400C0002C3EB9E6FC620F00C0FA
:1018E000002C8EB800C000C011FF3EB967958894E7
:1018F000E7FC620F00C0002C3EB96795889400C0D9
:10190000002C8EB800C000C010FF3EB9122FE110AD
:10191000162F919400C0002C3EB99A0C00C000C054
:101920008EB800C000C017FF3EB92081662788949A
:1019300000C0002C3EB92111280F00C0002C8EB829
:1019400000C000C016FF3EB908F42FEF81958894BF
:1019500000C0002C3EB970FD620F00C0002C8EB894
:1019600000C000C015FF3EB96795889471FD620FF5
:1019700000C0002C3EB96795889400C0002C8EB83A
:1019800000C000C014FF3EB972FD620F67958894D5
:1019900000C0002C3EB973FD620F00C0002C8EB851
:1019A00000C000C013FF3EB96795889474FD620FB4
:1019B00000C0002C3EB96795889400C0002C8EB8FA
:1019C00000C000C012FF3EB975FD620F6795889494
:1019D00000C0002C3EB976FD620F00C0002C8EB80E
:1019E00000C000C011FF3EB96795889477FD620F73
:1019F00000C0002C3EB96795889400C0002C8EB8BA
:101A000000C000C010FF3EB9122F7111162F8D0DAE
:101A100000C0002C3EB9119709F086CEEA81FB8107
:101A20002EE130E0DF010E94893930E020E0A90199
:101A3000AAE9EA9F0E0E411DFA9F400D511D112487
:101A40004F0F511DDC01CB01840F951FA11DB11D4E
:101A5000893E43E09407A105B10508F434C0885ECF
:101A60009340A109B10942E0B695A795979587954E
:101A70004A95D1F747E0849F080E211D949F200DC1
:101A8000311D1124290F311D60912D1070E0860F3A
:101A9000971F820F931F40912A1150912B11609133
:101AA0002C1170912D11292F3327420F531F611DC7
:101AB000711D40932A1150932B1160932C11709338
:101AC0002D1180932D1078940E94AA03F201778B38
:101AD000668BDF91CF911F910F91FF90EF90DF9078
:101AE000CF90BF90AF909F908F907F905F904F90DE
:101AF000089580E991E008956C9A08956F927F921D
:101B00008F92CF92DF92EF92FF920F931F93CF931A
:101B1000DF93CDB7DEB762970FB6F894DEBF0FBE86
:101B2000CDBF8C016B017A01822FA801475F5F4F07
:101B3000B8016A5F7F4F0E9451053B01882ED80192
:101B40001C962C91C701F7FE04C0882799278E198F
:101B50009F09DA82C9829C838B839E838D83688AE6
:101B6000798A8A8A213049F5CE0101960E94E20ADB
:101B700083E08D871F861E86F7FE02C08DEF8D875E
:101B8000D801ED91FC910088F189E02DBE016F5FD5
:101B90007F4FC801199562960FB6F894DEBF0FBE4D
:101BA000CDBFDF91CF911F910F91FF90EF90DF900C
:101BB000CF908F907F906F9008951C861B861A8619
:101BC000198618861F82D4CFCF92DF92EF92FF92B0
:101BD0000F931F93CF93DF93CDB7DEB762970FB606
:101BE000F894DEBF0FBECDBF8C016B017A01822F4E
:101BF000A801475F5F4FB8016A5F7F4F0E945105A0
:101C00009B01482FD8011C968C91DA82C982FC82F4
:101C1000EB82FE82ED82288B398B4A8B813009F56D
:101C2000CE0101960E94E20A1D861F861E86D801FB
:101C3000ED91FC910088F189E02DBE016F5F7F4F2F
:101C4000C801199562960FB6F894DEBF0FBECDBFDE
:101C5000DF91CF911F910F91FF90EF90DF90CF9088
:101C600008951C861B861A86198618861F82DCCF6B
:101C70000895E8EEF2E091E090838FEF8383148281
:101C8000E6E1F2E0908383831482EDEBF3E090834E
:101C900083831482EFE8F4E0908383831482EFE17E
:101CA000F9E090838383148280932C10E4E1F8E0C0
:101CB0009083838314820C94330290E080E0089533
:101CC000FC0164870895FC01868597850895CF936C
:101CD000DF93EC0118820E9401046D837E838F8361
:101CE0009887DF91CF9108950F931F93CF9326E0AC
:101CF000FB013296DC01129601900D922A95E1F7D4
:101D000024EA3AE0FC013183208324E1FB01389688
:101D1000DC01189601900D922A95E1F79C01245E52
:101D20003F4FAB01445E5F4F8901045C1F4FC6E02B
:101D3000FA01D90101900D92CA95E1F72A5F3F4F50
:101D40004A5F5F4F2017310791F7FB01E85AFF4FB9
:101D50000081118122813381FC01E85AFF4F008309
:101D6000118322833383FB01E45AFF4F00811181E9
:101D700022813381FC01E45AFF4F008311832283C7
:101D80003383FB01E05AFF4F20813181FC01E05A8F
:101D9000FF4F31832083FB01EE59FF4F20813181BA
:101DA000FC01EE59FF4F31832083FB01EC59FF4FBB
:101DB00020813181FC01EC59FF4F31832083329621
:101DC000DB01AA59BF4F2D913C9131832083FB0148
:101DD000E859FF4F20813181FC01E859FF4F3183E1
:101DE0002083FB01E659FF4F20813181FC01E65938
:101DF000FF4F31832083FB01E459FF4F2081FC0119
:101E0000E459FF4F208363597F4FFB0120813181CB
:101E100083599F4FFC0131832083CF911F910F91F4
:101E20000895FC01DB0112968D919C911397938389
:101E3000828388E99AE09183808314968C91149729
:101E4000848315968C911597858316968C91169799
:101E5000868317968C911797878318968C9118977D
:101E6000808719968C91199781871A968C911A9769
:101E700082871B968C9183870895089590E080E077
:101E80000895CF93DF93FC0101900020E9F731978B
:101E9000AF01481B590BBC0180EF93E10E94130472
:101EA000EC0142E050E06DEB7AE080EF93E10E94BC
:101EB00013048C0F9D1FDF91CF9108952F923F92B5
:101EC0004F925F926F927F928F929F92AF92BF924A
:101ED000CF92DF92EF92FF920F931F93CF93DF93F6
:101EE000CDB7DEB7E0970FB6F894DEBF0FBECDBF1B
:101EF000FC017B019A01028113810A30110509F06E
:101F000014C1D480C5804C2D50E088E0FE01B99604
:101F1000DF01982F1D929A95E9F73897DF01982FE6
:101F20001D929A95E9F73897DF01982F1D929A959F
:101F3000E9F73897DF01982F1D929A95E9F73897BE
:101F4000DF01982F1D929A95E9F78E010F5F1F4FC1
:101F5000D8011D928A95E9F7CA01BC01641B750B73
:101F60008217930718F4840F951FF7CF261B370BA2
:101F7000B90190E080E00E94C1364B015C016C2DFC
:101F800070E090E080E00E94C1369B01AC01C50189
:101F9000B4010E9467384B015C01B1E0DB1661F0CF
:101FA000E2E0DE1609F49BC080EC9AE00E94410F4B
:101FB000812C912C540141C02BEA3AEA4AEA5EE3B3
:101FC0000E94BC3687FF13C08FEF8AA78DA788E0D9
:101FD000FE01B996A5E4B0E101900D928A95E1F772
:101FE00020E030E040E450E4C501B40122C02BEA17
:101FF0003AEA4AE25FE3C501B4010E94BC3687FFBA
:102000005DC08FEF8BA38EA388E0FE01B196A5E49F
:10201000B0E101900D928A95E1F72BEA3AEA4AEA9B
:102020005EE3C501B4010E94FA3720E030E040E4ED
:1020300050E40E9422374B015C01109149106091DD
:102040004510611B770B072E000C880B990B0E9423
:10205000C336A50194010E9422370E94D938610F2E
:10206000D7016C9310914A1060914610611B770B59
:10207000072E000C880B990B0E94C336A501940112
:102080000E9422370E94D938610FF70161831091B5
:102090004B1060914710611B770B072E000C880BCB
:1020A000990B0E94C336A50194010E9422370E9419
:1020B000D938610FD70112966C93C8C08FEF898F02
:1020C0008F8F88E0FE017996A5E4B0E101900D9232
:1020D0008A95E1F72BEA3AEA4AE25FE3A2CF2BEADC
:1020E0003AEA4AEA5EE30E94BC3687FF07C08FEFF8
:1020F0008B8B8D8B88E0FE0171966CCF2BEA3AEAD0
:102100004AE25FE3C501B4010E94BC3687FF07C005
:102110008FEF8A878F8788E0FE01399678CF8FEF1F
:1021200089838E8388E0F801CFCF2801B4E04B1A71
:102130005108DC01A458BF4F4C91642E712CC90189
:10214000B3010E941839669D5001679DB00C11249F
:102150006301CA0CDB1CCF0181589F4F1C0193E027
:102160004916510408F0FFC06F5FD1016C936623DC
:1021700009F4FBC0862E912CC4010197689E500182
:10218000699EB00C789EB00C1124469F600111240A
:102190000530110509F4D9C081E006301105A9F513
:1021A00077247394CF0182589F4FDC018C90912C3F
:1021B00050E040E08F01005C1F4F70E060E0481588
:1021C000590570F4D8018D918D01860F972F911DBF
:1021D0008217930708F45AC0D1014C936C015B013C
:1021E000D1018C90912CBFEF8B1A9B0A880C991C03
:1021F000880C991C8F01080D191D772009F4CCC09B
:1022000084E0881A91081DC080E0D1016C916E0FA6
:102210007F2F711DAB01405C5F4FDA010C910023F1
:1022200071F1B4E00B9F800111240E0F1F1F882352
:1022300009F4B2C0DB01DF968C90B4E08B9E4001C4
:1022400011248E0E9F1E0115110521F5E0960FB683
:10225000F894DEBF0FBECDBFDF91CF911F910F91DC
:10226000FF90EF90DF90CF90BF90AF909F908F90B6
:102270007F906F905F904F903F902F9008958BEDDF
:102280009AE00E94410FE2CF712C8CCF4F5F5F4FDD
:10229000BC0195CF81149104C9F22A193B09B901F7
:1022A00090E080E00E94C1362B013C01CA18DB0897
:1022B000B60190E080E00E94C1369B01AC01C301F1
:1022C000B2010E9467382B013C01D401DC90F80177
:1022D00060816D19770B072E000C880B990B0E94FB
:1022E000C336A30192010E9422370E94D938D60E2C
:1022F000D701DC92F401D180D80111966C916D194F
:10230000770B072E000C880B990B0E94C336A30194
:1023100092010E9422370E94D938D60EF701D1824D
:10232000D4011296DC90F80162816D19770B072EAB
:10233000000C880B990B0E94C336A30192010E94E6
:1023400022370E94D9386D0DB5CE84010F5F1F4F23
:10235000000F111F000F111F0E0F1F1F880C991C5B
:10236000880C991C6ECFD1016C930330110509F4D0
:102370008BCF18F50130110509F446CF0230110555
:1023800029F5D1010C9110E00F5F1F4F000F111FB5
:10239000000F111F0E0F1F1F0115110509F456CF55
:1023A000B3E04B16510408F451CFF8018181D701F5
:1023B0008C93828112968C9349CF0530110509F3D5
:1023C00008F422CF0630110509F45ECF82EF9AE0BF
:1023D00058CF4DE050E007960C94BB3B0F931F93F2
:1023E000CF938C01C62F0E946D076C2F6460C801CB
:1023F0000E946D076C2F6B7FC8010E946D0783ECF4
:1024000090E00197F1F7CF911F910F9108950F93ED
:102410001F93CF93DF938C01D62FC42F607F642B43
:102420000E94EE1180E1D89FB00111246C2BC801ED
:10243000DF91CF911F910F910C94EE1141E00E941A
:10244000071281E090E00895EF92FF920F931F939F
:10245000CF93DF938C017B01D0E0C0E0F701EC0F5C
:10246000FD1F6491662331F041E0C8010E9407120C
:102470002196F4CFCE01DF91CF911F910F91FF9064
:10248000EF900895CF93DF9300D000D01F921F925A
:10249000CDB7DEB728E0E7EFF9E0DE011196019055
:1024A0000D922A95E1F7FC012085241710F44FEFD7
:1024B000420F50E0440F551F21E030E02C0F3D1F2C
:1024C000420F531FFA012081620F606840E0289696
:1024D0000FB6F894DEBF0FBECDBFDF91CF910C9445
:1024E0000712CF93DF93EC0140E06CE00E944212B0
:1024F00060EE71E0CE01DF91CF910C94241240E0A8
:1025000061E00E9407128BE39FE10197F1F70895C4
:102510000E94963BFC0180819181009711F00C9400
:102520002C3A0895EF92FF920F931F93CF93DF936E
:10253000EC017B018A0188819981009729F02A8129
:102540003B812417350788F4B8016F5F7F4F0E94E5
:10255000B53A009791F0998388831B830A832C8175
:102560003D81232B11F4FC0110821D830C83B701E4
:10257000888199810E94A43B0CC088819981009731
:1025800011F00E942C3A198218821D821C821B8233
:102590001A82CE01DF91CF911F910F91FF90EF90A2
:1025A0000895EF92FF920F931F93CF93DF9300D084
:1025B00000D000D0CDB7DEB78C01862FF801118294
:1025C000108213821282158214824AE09E012F5FCC
:1025D0003F4F7901B90190E00E949236F7010190D6
:1025E0000020E9F73197AF014E195F09B701C80123
:1025F0000E94921229960FB6F894DEBF0FBECDBF8F
:10260000DF91CF911F910F91FF90EF900895CF939D
:10261000DF931F921F92CDB7DEB7FC0111821082AB
:10262000138212821582148269831A82BE016F5F3F
:102630007F4FFB0101900020E9F73197AF01461B66
:10264000570B0E9492120F900F90DF91CF91089537
:102650000F931F93CF93DF9300D000D0CDB7DEB799
:102660008C016A30C8F4CE0101960E94D112BE01DD
:102670006F5F7F4FC8010E944004CE0101960E9407
:102680008A1226960FB6F894DEBF0FBECDBFDF913B
:10269000CF911F910F9108956A50653050F4E62F45
:1026A000F0E0EB5CF54F6081CE0101960E940713CC
:1026B000DECF66E4F9CF4F925F926F927F929F9246
:1026C000AF92BF92CF92DF92EF92FF920F931F9340
:1026D000CF93DF93CDB7DEB72C970FB6F894DEBF5C
:1026E0000FBECDBF5C016B01F42E122FDB011A96D9
:1026F0008C911A9751969C915197E82FE91BFF0BEB
:102700001E171F0699F094F0891B089F800D112455
:1027100094E1981B892F14969C91149791FF04C003
:10272000869552968C9302C092FDFBCFF601678589
:102730006117D8F480898017C0F443899685490FC2
:10274000069F600D11249289890F680FC5010E94B0
:102750004212EE2009F441C06AE372E0C5010E9412
:102760002412F60180898F5F808BD60150968C9160
:102770005097801708F47FC050961C9250971F9670
:102780009C901F97E110B8C0602F043008F063E000
:10279000C6010B96F60126812F3F99F1FF24FA948A
:1027A000F60EFC01412C512C32014FEFF41669F169
:1027B000219130E050E040E0A0E061E070E080E096
:1027C00090E0FA1609F46DC0B4E0660F771F881F19
:1027D000991FBA95D1F7AF5FF4CFD6015096EC911F
:1027E000E33020F4EC0DFD2DF11DF386B501CE0193
:1027F00001960E94110F6F2DCE0101960E942813A1
:10280000B0CF0E94E6082B013C01D60119968C91AD
:1028100090E0B0E0A0E084159505A605B70508F4A2
:102820004DC0F601808590E0B0E0A0E04816590662
:102830006A067B0608F442C093949786E189EF5FAD
:10284000D6015196EC93519754968D919C91559742
:10285000009779F11A962C912E1758F1E80FF92F5D
:10286000F11D31974082F6018785811720F0178688
:1028700086858F5F86872C960FB6F894DEBF0FBED5
:10288000CDBFDF91CF911F910F91FF90EF90DF901F
:10289000CF90BF90AF909F907F906F905F904F9040
:1028A00008950E940839460E571E681E791EFA9434
:1028B0007CCF80E09BE00E94410FD5CFF12CE12C32
:1028C000602E712C0F5FF6018785E614F70458F629
:1028D00043899685490F6289089F600D11246E0D0A
:1028E000C5010E94421268E372E0C5010E942412F1
:1028F000FFEFEF1AFF0AE7CF93941F969C921F9762
:1029000051968C9151978F5F51968C93ACCF8F924B
:102910009F92AF92BF92CF92DF92EF92FF920F936E
:102920001F93CF93DF93CDB7DEB7CF56D1090FB644
:10293000F894DEBF0FBECDBF6C015A01922EF02E6F
:10294000CE0101960E94740ECE0101960E942D09BF
:10295000882E8FEF88122BC00091BB03609130103E
:102960000F3F29F110E0F501E60FF11DD801AC5938
:10297000B54F8C9182836F0D4E2DC6010E9442127D
:10298000F801E75DF54F6081CE0101960E940713C3
:10299000BE016F5F7F4FC6010E944004CE010196C9
:1029A0000E948A12809130108F5F80933010809245
:1029B000BB03809130108330A0F063E0C501029624
:1029C0000E94E608092D10E030E020E00617170706
:1029D00028073907D0F0F501618381E080831092E8
:1029E0003010C159DF4F0FB6F894DEBF0FBECDBF18
:1029F000DF91CF911F910F91FF90EF90DF90CF90DB
:102A0000BF90AF909F908F9008954E2D6F2DC6016F
:102A10000E9442126CE372E0C6010E942412DFCFD2
:102A2000CF92DF92EF920F931F93CF93DF93CDB7A7
:102A3000DEB7CB57D1090FB6F894DEBF0FBECDBFBE
:102A40006C01FA01102F8E2D42E0E42E811102C09C
:102A500093E0E92E90914010911125C0CE0101968E
:102A60000E94740EB601CE0180599F4F0E94110F33
:102A700003E02FEF40E450E1BE016F5F7F4FCE01D6
:102A800080599F4F0E948714C558DF4F0FB6F894A6
:102A9000DEBF0FBECDBFDF91CF911F910F91EF90A1
:102AA000DF90CF90089590913B1091110FC0CE010F
:102AB00001960E94740EB601CE0180599F4F0E946C
:102AC000110F0AE02FEF4BE350E1D6CF9091361073
:102AD00091110FC0CE0101960E94740EB601CE0175
:102AE00080599F4F0E94110F01E12FEF46E350E103
:102AF000C3CF90913110911113C0882389F0CE017A
:102B000001960E94740EB601CE0180599F4F0E941B
:102B1000110F83E0E82E00E1212F41E350E1ACCF1B
:102B200091E0938390914110908390913C10918318
:102B3000909137109283882321F080913210F9010F
:102B400080831092401010923B1010923610109219
:102B500031109ACFFC0111821082138212821582E9
:102B600014826115710551F0FB0101900020E9F715
:102B70003197AF01461B570B0C94921208951F9387
:102B8000CF93DF93CDB7DEB768970FB6F894DEBF6B
:102B90000FBECDBF162FBC01CE010D960E94110FA6
:102BA000CE010D960E947F1240E060E0CE010D96AE
:102BB0000E94421262EF77E0CE0101960E94AA15B0
:102BC000BE016F5F7F4FCE010D960E944004CE0183
:102BD00001960E948A12BE01635F7F4FCE0101966B
:102BE0000E94110FCE0101960E94711241E060E037
:102BF000CE010D960E9442126FEF77E0CE01019652
:102C00000E94AA15BE016F5F7F4FCE010D960E94F4
:102C10004004CE0101960E948A12112311F142E074
:102C200060E0CE010D960E94421268EE73E0CE0184
:102C30000D960E94241243E060E0CE010D960E94A2
:102C4000421264ED73E0CE010D960E942412689644
:102C50000FB6F894DEBF0FBECDBFDF91CF911F91AD
:102C6000089543E060E0CE010D960E9442126FEBA2
:102C700073E0E9CF8F929F92AF92BF92CF92DF9293
:102C8000EF92FF920F931F93CF93DF93CDB7DEB7F1
:102C90002C970FB6F894DEBF0FBECDBF7C014B0161
:102CA0005A0169010E947F1240E060E0C7010E9462
:102CB0004212B401CE0101960E94AA15BE016F5FB7
:102CC0007F4FC7010E944004CE0101960E948A12E4
:102CD000B701CE0101960E94110FCE0101960E940C
:102CE000711241E060E0C7010E944212B501CE01BD
:102CF00001960E94AA15BE016F5F7F4FC7010E9417
:102D00004004CE0101960E948A1242E060E0C701B1
:102D10000E944212B601CE0101960E94AA15BE0180
:102D20006F5F7F4FC7010E944004CE0101960E9451
:102D30008A1243E060E0C7010E944212B801CE014E
:102D400001960E94AA15BE016F5F7F4FC7010E94C6
:102D50004004CE0101960E948A122C960FB6F89478
:102D6000DEBF0FBECDBFDF91CF911F910F91FF90BE
:102D7000EF90DF90CF90BF90AF909F908F9008958D
:102D8000CF92DF92EF92FF920F931F93CF93DF9337
:102D9000CDB7DEB72C970FB6F894DEBF0FBECDBF10
:102DA0008C016B017A010E947F12B801CE0101965D
:102DB0000E94110FCE0101960E94711241E060E065
:102DC000C8010E94421260E472E0C8010E9424120D
:102DD00042E060E0C8010E944212B601CE010196B5
:102DE0000E94AA15BE016F5F7F4FC8010E94400478
:102DF000CE0101960E948A1243E060E0C8010E9461
:102E00004212B701CE0101960E94AA15BE016F5F62
:102E10007F4FC8010E944004CE0101960E948A1291
:102E20002C960FB6F894DEBF0FBECDBFDF91CF91C9
:102E30001F910F91FF90EF90DF90CF9008952F9208
:102E40003F924F925F926F927F928F929F92AF923A
:102E5000BF92CF92DF92EF92FF920F931F93CF9387
:102E6000DF93CDB7DEB7CC5FD1090FB6F894DEBFE4
:102E70000FBECDBF5C016A01CE0180599F4F0E94F9
:102E8000740EB501CE0185519F4F0E94110FD601DE
:102E900016969C91169719968C919F3F49F48A300B
:102EA00048F093E0F92E843638F482E0F82E04C01E
:102EB0008031D8F7FF24F3946F2D70E06F5F7F4F60
:102EC00084E190E00E942C394B01F601818131E0D0
:102ED00043E0882311F032E042E0D6011A968C914B
:102EE000880D992D911D0197B4010E942C39C6506F
:102EF000DF4F6883CA5FD040461708F42EC2C75020
:102F0000DF4F8882C95FD040882DF89C800D112446
:102F100024E1281B461B632FC6010E94C80ABE017C
:102F200060597F4FFE0131965F01CF010E94740E00
:102F3000C5010E942D09C550DF4F8883CB5FD0406B
:102F40008F3F09F0F2C1E091BA03EF3F09F4EDC100
:102F500080912F10D60116969C911697E9131FC0E9
:102F6000B1E0FB121AC0F60191859A30B0F08111E0
:102F700014C0BE0165517F4FC5010E94110F00E1D1
:102F80001BE025E23BE04AE35BE0B6016A5E7F4F6F
:102F9000C5010E943A16F0922F1010E00BC1882351
:102FA00009F45CC1F0E0EC59F54F108119968C9151
:102FB00019978950990B181719067CF7165F5496C4
:102FC000ED91FC9155973097A9F051968C91AF01F6
:102FD000D50190E09D012A193B092817390770F4A3
:102FE000FA012191AF012D939F0121503109F9017F
:102FF0001082F0CF8EE49BE00E94410FD6011E9616
:103000002D903D904D905C9051975196BC91C4503D
:10301000DF4FB883CC5FD040F60116861786108A42
:10302000118ACE0185519F4F0E947F1240E060E0DF
:10303000CE0185519F4F0E944212B6016A5E7F4FBA
:10304000CE0181529F4F0E94AA15BE0161527F4F4F
:10305000CE0185519F4F0E944004CE0181529F4F67
:103060000E948A12BE0165517F4FCE0181529F4F4F
:103070000E94110FCE0181529F4F0E947112D60102
:1030800011968C918823E1F041E060E0CE018551FA
:103090009F4F0E944212B6016D5D7F4FCE0181525B
:1030A0009F4F0E94AA15BE0161527F4FCE018551EC
:1030B0009F4F0E944004CE0181529F4F0E948A126E
:1030C000C950DF4FB982A882C75FD040C450DF4FDC
:1030D000B881CC5FD0406B2E712CC950DF4F8881F6
:1030E0009981C75FD0408A199B098615970520F5FD
:1030F000C950DF4FE881F981C75FD0407190C95056
:10310000DF4FF983E883C75FD040BE0165517F4F31
:10311000CE0181529F4F0E94110FE12C0F2DC750FD
:10312000DF4F2881C95FD040472DB601CE018152C3
:103130009F4F0E945B13CACFD6011A968C918615B9
:103140001704E1F0D8F0BE0165517F4FCE018152E6
:103150009F4F0E94110FEE24E3940F2DC750DF4FB5
:103160002881C95FD04040E0B601CE0181529F4F17
:103170000E945B13BFEF6B1A7B0ADECFF601268637
:103180003786408A518A81890488F589E02D3097F5
:1031900059F0D50190E09D012A193B0928173907FC
:1031A00038F42D912193F7CF8AE69BE00E94410FDE
:1031B00010922F1081E0F60121899285291708F0DD
:1031C00080E0D60113962C91139731E023278223B8
:1031D00090912F109327892309F4A7C01E968C91F4
:1031E000C650DF4FB881CA5FD0408B1708F09DC032
:1031F000BE0165517F4FCE0181529F4F0E94110F3A
:10320000E12C0F2D282D412FB601CE0181529F4F69
:103210000E945B13F6018281882309F486C0F1E0E5
:10322000FF1283C0D6015496ED91FC9155973097CB
:1032300029F151968C91AF01D50190E09D012A1999
:103240003B0928173907F0F4FA012191AF012D93BA
:103250009F0121503109F9011082F0CF17968C910E
:1032600017978F3F31F0E81304C081E013968C93D9
:1032700094CEF0E0EC59F54F10819CCF8EE49BE0AA
:103280000E94410FD6011E962D903D904D905C906E
:10329000519751966C90712CF601918982859817FF
:1032A00048F54501D60151969C9151971A968C91FB
:1032B00094012A193B092615370570F7981760F70E
:1032C000F40111914F01BE0165517F4FCE01815232
:1032D0009F4F0E94110FE12C01E0C750DF4F288162
:1032E000C95FD040412FB601CE0181529F4F0E944D
:1032F0005B13D8CFD60126863786408A518A048848
:10330000F589E02D309769F051968C91D50190E0C8
:103310009D012A193B092817390738F42D9121936B
:10332000F7CF8AE69BE00E94410FC550DF4FB8817E
:10333000CB5FD040B093BA03F6019189828598178C
:1033400018F48381882349F081E0D60113968C9389
:10335000F60116861786108A118AC450DF4F0FB601
:10336000F894DEBF0FBECDBFDF91CF911F910F91BB
:10337000FF90EF90DF90CF90BF90AF909F908F9095
:103380007F906F905F904F903F902F900895BF92E5
:10339000CF92DF92EF92FF920F931F93CF93DF9321
:1033A000CDB7DEB7C250D1400FB6F894DEBF0FBE26
:1033B000CDBF8C016A01CE0180599F4F0E94740ECF
:1033C000B801CE0189509F4F0E94110FCE01895044
:1033D0009F4F0E947F1240E060E0CE0189509F4FD6
:1033E0000E944212B6016A5E7F4FCE0101960E9492
:1033F000AA15BE016F5F7F4FCE0189509F4F0E947B
:103400004004CE0101960E948A12BE0169507F4F8E
:10341000CE0101960E94110FCE0101960E947112F9
:10342000D60111968C918823D1F041E060E0CE0165
:1034300089509F4F0E944212B6016D5D7F4FCE01B1
:1034400001960E94AA15BE016F5F7F4FCE01895081
:103450009F4F0E944004CE0101960E948A12BE0135
:1034600060597F4FCE0101960E94740EBE016950D3
:103470007F4FCE0185519F4F0E94110FF60196811B
:1034800081859F3F39F48A3038F013E0843628F480
:1034900012E003C08031E0F711E0612F70E06F5F50
:1034A0007F4F84E190E00E942C399B01D601119658
:1034B0008C91E2E042E0811102C0E1E043E0D601FC
:1034C0001A968C91820F932F911D0197B9010E943A
:1034D0002C39F62E461778F1B22E129F200D1124AA
:1034E00084E1821B282F461B6E2FC6010E94C80A4A
:1034F000F60186858F15C0F4918982859817A0F40E
:10350000BE0165517F4FCE0181529F4F0E94110F26
:10351000EE24E394012F2B2D40E0B601CE01815221
:103520009F4F0E945B13E4CFD6011E961D921D9201
:103530001D921C925197CE5FDE4F0FB6F894DEBFFE
:103540000FBECDBFDF91CF911F910F91FF90EF90F4
:10355000DF90CF90BF9008953F924F925F926F920D
:103560007F928F929F92AF92BF92CF92DF92EF9213
:10357000FF920F931F93CF93DF93CDB7DEB7CE505B
:10358000D1400FB6F894DEBF0FBECDBF7C016B01FA
:1035900049015A01043048F40230D8F4013049F0AE
:1035A00088E99BE00E94410F04C00830C8F0093050
:1035B000B9F70091DC131091DD130130110599F07A
:1035C0000230110509F4F7C187EB9BE00E94410F1F
:1035D00020C081E090E09093DD138093DC13E9CF6D
:1035E00082E090E0F8CFB601CE0180599F4F0E9453
:1035F000740EB701CE0193950E94110F8091DE13D6
:103600009091DF138130910589F1E0F0029709F480
:10361000DAC0C25FDE4F0FB6F894DEBF0FBECDBF7B
:10362000DF91CF911F910F91FF90EF90DF90CF909E
:10363000BF90AF909F908F907F906F905F904F90D2
:103640003F9008951092EA0881E08093E708109275
:10365000E11310923F1110924011109241111092FB
:1036600042111093DF130093DE13D3CF8091E7084C
:10367000882309F477C04DE050E069EA7BE08DEFE4
:1036800098E00E94BB3B8FE0EFEFF9E0DE01A15232
:10369000BF4F01900D928A95E1F786E0EFEDF0E0E3
:1036A000EC0FFD1F3F96DF011D928A95E9F780918F
:1036B000E0134AE0BE01645F7E4F90E00E948736CF
:1036C00065E170E0CE0181529F4F0E947C3604E19B
:1036D00010E0A801481B590BBE01645F7E4FCE016C
:1036E00081529F4F0E94AB3B65E170E0CE01815259
:1036F0009F4F0E947C36A801481B590B61EB7BE071
:10370000CE0181529F4F0E94AB3B45E150E0BE018C
:1037100061527F4F8AE099E00E94BB3B89ED93E1C3
:103720009093FC088093FB088091E0138093F1084C
:10373000BE0160597F4FCE0101960E94740EBE01FA
:103740007395CE018C509F4F0E94110F47EE58E0A9
:10375000BE016F5F7F4FCE018C509F4F0E94C719F3
:103760001092E708BE0160597F4FCE0101960E947A
:10377000740EBE017395CE0181529F4F0E94110FAE
:1037800047EE58E0BE016F5F7F4FCE0181529F4FE1
:103790000E941F178091EA08882309F43ACF82E03B
:1037A00090E09093DF138093DE13BE017395CE01FA
:1037B00001960E94110F4FEB5AE0BA01CE0101961B
:1037C0000E94C01626CF1091E113E12EF12CC50105
:1037D000B4010E94C1364B015C01F701E752FC4E77
:1037E000608170E090E080E00E94C13620E030E02F
:1037F00048EC52E40E9422379B01AC01C501B401A0
:103800000E94673820913F11309140114091411141
:10381000509142110E94FB3760933F117093401109
:1038200080934111909342110091E013C02ED12C4E
:1038300020E030E040E85FE30E94BC36811112C016
:1038400010923F11109240111092411110924211AA
:10385000BFEFEB1AFB0AEC14FD040CF0A9C01F5FCC
:103860001093E1138091E11390E09C012F5F3F4F93
:103870000F5F2C153D050CF000E09695982F8827DA
:1038800097958795FC01ED5BFE4E7F01F0E80F9F59
:10389000800111240D5B1E4EC152DF4F1882198228
:1038A0001A821B82CF5DD04019821A821B821C8231
:1038B00033E4A32E33E1B32ED12CC12CA601BE01DB
:1038C00061527F4FC7010E945E0FA601BE016F5F6C
:1038D0007F4FC8010E945E0FCF51DF4F9880C15EBD
:1038E000D04040903F115090401160904111709035
:1038F00042116B816919770B072E000C880B990B0D
:103900000E94C336A30192010E9422370E94D93837
:10391000960EC052DF4F8880C05ED0406A81681921
:10392000770B072E000C880B990B0E94C336A3015E
:1039300092010E9422370E94D938860EC152DF4F71
:103940003880CF5DD04069816319770B072E000C5A
:10395000880B990B0E94C336A30192010E94223763
:103960000E94D938360ED5013C9211968C9211974F
:1039700012969C92BFEFCB1ADB0AE3E0AE0EB11CAD
:10398000F2E3CF16D10409F099CF0E94BA05E09175
:10399000E608EF3F49F0F0E0EC59F54F80818111E6
:1039A00003C081E08093E3138FEF8093E60831CE6C
:1039B0001092E11357CFB601CE0101960E94740E0A
:1039C000B701CE0180599F4F0E94110F22CEAF92B6
:1039D000BF92CF92DF92EF92FF920F931F93CF93FC
:1039E000DF93CDB7DEB7C359D1090FB6F894DEBF68
:1039F0000FBECDBF6C015B018A01DA018C91882377
:103A000009F46EC04DE050E06BEC7BE0C8014696D7
:103A10000E94BB3B85E0E4E1FAE0DE01A059BF4F24
:103A200001900D928A95E1F780E1E0E7F0E0EC0F7C
:103A3000FD1F3596DF011D928A95E9F74AE0BE0128
:103A40006F567F4F83E090E00E94873665E170E01B
:103A5000CE0180599F4F0E947C3624E1E22EF12C4A
:103A6000A701481B590BBE016F567F4FCE018059ED
:103A70009F4F0E94AB3B65E170E0CE0180599F4FA4
:103A80000E947C36A701481B590B65ED7BE0CE01F7
:103A900080599F4F0E94AB3B45E150E0BE01605909
:103AA0007F4FC80183960E94BB3B80EE93E1F801F3
:103AB000958B848BB501CE0101960E94740EB601E0
:103AC000CE018B579F4F0E94110FA801BE016F5F5F
:103AD0007F4FCE018B579F4F0E94C719D8011C9270
:103AE000B501CE0101960E94740EB601CE01805937
:103AF0009F4F0E94110FA801BE016F5F7F4FCE0143
:103B000080599F4F0E941F17CD56DF4F0FB6F89474
:103B1000DEBF0FBECDBFDF91CF911F910F91FF9000
:103B2000EF90DF90CF90BF90AF9008959F92AF92AB
:103B3000BF92CF92DF92EF92FF920F931F93CF939A
:103B4000DF93CDB7DEB7A5970FB6F894DEBF0FBEF3
:103B5000CDBF8C017B01BC01CE0144960E94110FA8
:103B6000CE0144960E947F1240E060E0CE01449670
:103B70000E944212B701695F7F4FCE0101960E94F9
:103B8000AA15BE016F5F7F4FCE0144960E9440048C
:103B9000CE0101960E948A12BE016C5E7F4FCE015B
:103BA00001960E94110FCE0101960E947112F70139
:103BB000268181E0233008F480E0F7019181892398
:103BC00091E0243008F490E0892BF7018283882368
:103BD000C1F042E062E1CE0144960E9442126FE2DF
:103BE00072E0CE0144960E94241243E062E1CE01CD
:103BF00044960E9442126CE272E0CE0144960E940A
:103C00002412B801CE0144960E94110F01E010E089
:103C100083E1982E5701F4E1AF0EB11CF7018481C6
:103C20009801280F311D96819217130608F458C089
:103C3000C02ED82ED00E402F60E0CE0144960E94B8
:103C400042126D2DCE0180960E94D112BE01605E9F
:103C50007F4FCE0144960E944004CE0180960E9480
:103C60008A12402F61E0CE0144960E94421266E320
:103C700072E0CE0144960E942412F701828140E155
:103C8000811101C043E150E02D2D2150330B929E54
:103C9000B001939E700D11246A0D7B1DCE0101961B
:103CA0000E94BB3B4C2D62E0CE0144960E94421222
:103CB000BE016F5F7F4FCE0180960E94AA15BE01A4
:103CC000605E7F4FCE0144960E944004CE018096F4
:103CD0000E948A120F5F1F4F0430110509F09ECF1A
:103CE000F701858190E00196348121E038171906AB
:103CF00009F020E081E00430110508F080E0282B75
:103D000099F1F7018181882379F1402F60E0CE019C
:103D100044960E94421264E372E0CE0144960E94EF
:103D20002412402F61E0CE0144960E94421262E3C9
:103D300072E0CE0144960E942412402F62E0CE0130
:103D400044960E94421260EE7BE0CE0180960E9473
:103D5000AA15BE01605E7F4FCE0144960E944004CA
:103D6000CE0180960E948A12A5960FB6F894DEBF07
:103D70000FBECDBFDF91CF911F910F91FF90EF90BC
:103D8000DF90CF90BF90AF909F900895DF92EF9219
:103D9000FF920F931F93CF93DF93CDB7DEB7CF562C
:103DA000D1090FB6F894DEBF0FBECDBF7C018A01EA
:103DB000CE0101960E94740ECE0101960E942D093B
:103DC000D82E8FEFD8120AC08091BC038F3F31F0FC
:103DD000F8015681851798F48F5F8383D092BC03D6
:103DE000C159DF4F0FB6F894DEBF0FBECDBFDF91D4
:103DF000CF911F910F91FF90EF90DF900895318147
:103E0000332311F08A3049F3893069F08B3091F017
:103E1000B701CE0101960E94110FB801CE010196A3
:103E20000E94961DDBCFF8018481882389F381509D
:103E30008483EECFF8012581948181E0291708F46D
:103E400080E041E0533008F440E08423832311F400
:103E50009217F0F69F5FF8019483DACF0F931F93C8
:103E6000CF93DF93CDB7DEB72C970FB6F894DEBFB4
:103E70000FBECDBF8B01BC01CE0101960E94110F78
:103E8000B801CE0101960E94961D2C960FB6F894AB
:103E9000DEBF0FBECDBFDF91CF911F910F9108956F
:103EA000EF92FF920F931F93CF93DF93CDB7DEB7BF
:103EB000CB57D1090FB6F894DEBF0FBECDBF8C0132
:103EC0007B0180911F09882309F453C060EF7BE0D8
:103ED0008FE199E00E94E91143E150E06CEF7BE053
:103EE00083E399E00E94BB3B43E150E064E07CE067
:103EF00086E499E00E94BB3B43E150E06EE07CE049
:103F000089E599E00E94BB3B43E150E06CE17CE035
:103F10008CE699E00E94BB3B43E150E068E27CE024
:103F20008FE799E00E94BB3B43E150E062E37CE015
:103F300082E999E00E94BB3B43E150E062E47CE00F
:103F400085EA99E00E94BB3B43E150E060E57CE0FC
:103F50008BEC99E00E94BB3BB801CE0101960E9418
:103F6000110F6FE179E0CE0101960E942E1F109291
:103F70001F09B701CE0101960E94740EB801CE014F
:103F800080599F4F0E94110F4FE159E0BE016F5FB2
:103F90007F4FCE0180599F4F0E94C61EC558DF4FEC
:103FA0000FB6F894DEBF0FBECDBFDF91CF911F914A
:103FB0000F91FF90EF900895EF92FF920F931F9350
:103FC000CF93DF93CDB7DEB7CB57D1090FB6F894B7
:103FD000DEBF0FBECDBF8C017B018091140888230A
:103FE00099F167E57CE084E198E00E94E91143E102
:103FF00050E06EE57CE088E298E00E94BB3B43E144
:1040000050E068E67CE08BE398E00E94BB3B43E134
:1040100050E062E77CE08EE498E00E94BB3B43E125
:1040200050E060E87CE081E698E00E94BB3BB8018C
:10403000CE0101960E94110F64E178E0CE01019655
:104040000E942E1F10921408B701CE0101960E9403
:10405000740EB801CE0180599F4F0E94110F44E1A8
:1040600058E0BE016F5F7F4FCE0180599F4F0E9485
:10407000C61EC558DF4F0FB6F894DEBF0FBECDBFCA
:10408000DF91CF911F910F91FF90EF9008952F92A4
:104090003F924F925F926F927F928F929F92AF92D8
:1040A000BF92CF92DF92EF92FF920F931F93CF9325
:1040B000DF93CDB7DEB7C851D1400FB6F894DEBF5D
:1040C0000FBECDBF8C016B01F42E209145113091B4
:1040D0004611590144E0A41AB108E0913D11F09154
:1040E0003E11E830F10510F00C94C4288827E458FC
:1040F000FF4D8F4F0C9481398420FE205421D9220A
:104100000424482493249C2480ED97E0A0E0B0E0B0
:104110008093E9079093EA07A093EB07B093EC072D
:1041200088EE97E00E94670E11E010931607109337
:10413000DE061093A60610936E0610936D0610927D
:10414000E1061092A906109271068FEF809319076D
:104150001092BF111092C0111092C1111092C21191
:104160000E94330254E0F51609F445C05F1558F07B
:1041700082E0F81659F193E0F91671F18CE89CE0B1
:104180000E94410F09C0A6E081E090E0AF15B0F3B6
:1041900090933E1180933D11C85EDE4F0FB6F894A8
:1041A000DEBF0FBECDBFDF91CF911F910F91FF906A
:1041B000EF90DF90CF90BF90AF909F908F907F90C7
:1041C0006F905F904F903F902F9008951093C01183
:1041D00082E38093BF110CC082E08093C01189E11B
:1041E0008093BF118091451190914611059781F3FD
:1041F00086E090E0CDCF83E090E0CACF80911607B3
:104200008823A9F169E97CE086E197E00E94E91141
:1042100083E1E1EAFCE0B3E0AB16B10410F0E4EBBB
:10422000FCE0DE01119601900D928A95E1F743E1E1
:1042300050E0BE016F5F7F4F8AE297E00E94BB3B78
:1042400043E150E067EC7CE08DE397E00E94BB3BEC
:10425000B801CE0180599F4F0E94110F66E177E0AF
:10426000CE0180599F4F0E942E1F10921607B60153
:10427000CE0101960E94740EB801CE0180599F4F65
:104280000E94110F46E157E0BE016F5F7F4FCE01E4
:1042900080599F4F0E94C61E809119078F3F09F4D5
:1042A0007BCF82E090E074CF8091DE068823F1F02E
:1042B000809119078130E1F1823009F4C9C0B6015B
:1042C000CE0101960E94740EB801CE0184519F4F19
:1042D0000E94110F4EED56E0BE016F5F7F4FCE0181
:1042E00084519F4F0E94C7191092DE06B601CE017D
:1042F00001960E94740EB801CE0180599F4F0E9412
:10430000110F4EED56E0BE016F5F7F4FCE01805919
:104310009F4F0E941F1780911907813009F403C134
:10432000823009F42BC18FE49DE00E94410F12C13D
:104330002230310589F048F42130310509F465C097
:104340008AEF9CE00E94410F19C02430310509F426
:104350005CC025303105A1F74DE050E066ED7CE012
:10436000CE0181529F4F0E94BB3B45E150E06CED76
:104370007CE0CE0180599F4F0E94BB3B6DE070E016
:10438000CE0181529F4F0E947C364CE050E0481B8A
:10439000590BE3E0AE16B10408F045C062E47EE0DC
:1043A000CE0181529F4F0E94AB3B65E170E0CE0190
:1043B00080599F4F0E947C3644E150E0481B590BC6
:1043C00065E27DE0CE0180599F4F0E94AB3B109289
:1043D000E6068EE18093E7064DE050E0BE016152B3
:1043E0007F4F84EF96E00E94BB3B45E150E0BE0169
:1043F00060597F4F81E097E00E94BB3B80EC91E1E8
:104400009093F3068093F2065ACF4DE050E067EEAA
:104410007CE0CE0181529F4F0E94BB3B45E150E0C2
:104420006EEE7CE0A6CF6CE27DE0CE0181529F4F24
:104430000E94AB3B65E170E0CE0180599F4F0E9426
:104440007C3644E150E0481B590B62E37DE0BACF73
:104450004DE050E069E37DE084EF96E00E94BB3BD5
:104460004AE0BE016C5F7E4F81E090E00E9487369B
:104470004AE0BE0168507F4F82E390E00E94873699
:1044800045E150E061E47DE0CE0180599F4F0E94FC
:10449000BB3B65E170E0CE0180599F4F0E947C36A6
:1044A000A4E1EA2EF12CA701481B590BBE016C5F59
:1044B0007E4FCE0180599F4F0E94AB3B65E170E07B
:1044C000CE0180599F4F0E947C36A701481B590B93
:1044D00067E47DE0CE0180599F4F0E94AB3B65E1D0
:1044E00070E0CE0180599F4F0E947C36A701481B87
:1044F000590BBE0168507F4FCE0180599F4F0E94DB
:10450000AB3B45E150E0BE0160597F4F81E097E051
:104510000E94BB3B81E08093E60682E38093E7063E
:104520008FEB91E16DCF2091C01130E050E040E081
:10453000F3E0AF16B10430F42150330B032E000C1E
:10454000440B550B62E370E080E090E00E9440393C
:104550002093BF118091E106882309F41DCE80913C
:104560004511909146118230910509F441CED0F465
:10457000019709F440CE8CE69DE002CE2091BF1158
:1045800030E050E040E062E370E080E090E00E94C4
:10459000403903E0A016B10418F02093C011DACF1F
:1045A0002F5FFBCF8430910509F425CE059719F7CD
:1045B0001FCE8091A606882309F4DFC085E0E4E1E0
:1045C000FAE0DE01A059BF4F01900D928A95E1F704
:1045D00080E1E0E7F0E0EC0FFD1F3596DF011D9272
:1045E0008A95E9F72330310579F040F4213031051F
:1045F00049F184E09EE00E94410F21C02430310542
:1046000009F126303105A9F74DE050E066EA7DE07A
:10461000CE0181529F4F0E94BB3B65E170E0CE010D
:1046200080599F4F0E947C3644E150E0481B590B53
:104630006EEA7DE0CE0180599F4F0E94AB3BEFE0D8
:10464000FE2E41C08091C011803108F08FE04AE019
:10465000BE0168507F4F90E00E9487364DE050E0E9
:1046600067EB7DE0CE0181529F4F0E94BB3B65E12D
:1046700070E0CE0180599F4F0E947C36F4E1EF2E0E
:10468000F12CA701481B590BBE0168507F4FCE018A
:1046900080599F4F0E94AB3B65E170E0CE0180598D
:1046A0009F4F0E947C36A701481B590B68EB7DE0A9
:1046B000CE0180599F4F0E94AB3BF090C011BFE0EC
:1046C000BF1508F4BCCF6DE070E0CE0181529F4F62
:1046D0000E947C364CE050E0481B590BE3E0AE16DC
:1046E000B10408F072C06EEB7DE0CE0181529F4FA5
:1046F0000E94AB3B65E170E0CE0180599F4F0E9464
:104700007C3644E150E0481B590B65E27DE0CE0168
:1047100080599F4F0E94AB3B4DE050E0BE0161527B
:104720007F4F8CEB96E00E94BB3B45E150E0BE0121
:1047300060597F4F89EC96E00E94BB3BF092AF0638
:1047400081EC91E19093BB068093BA06B601CE014D
:1047500001960E94740EB801CE0184519F4F0E94B1
:10476000110F46EA56E0BE016F5F7F4FCE018451C4
:104770009F4F0E94C7191092A606B601CE0101965E
:104780000E94740EB801CE0180599F4F0E94110FF4
:1047900046EA56E0BE016F5F7F4FCE0180599F4FC2
:1047A0000E941F178091A906882309F4F5CC8091F7
:1047B0004511909146118330910509F419CDD0F43B
:1047C0000197F9F088EC9DE0DBCC63EC7DE0CE0155
:1047D00081529F4F0E94AB3B65E170E0CE01805952
:1047E0009F4F0E947C3644E150E0481B590B62E326
:1047F0007DE08DCF8430910521F0069709F4F8CC47
:10480000E1CF84E090E0C4CC80916D068823B1F0C4
:10481000B801CE0101960E94110F0FEB1AE02FEDA7
:104820003DE0A80162EF7DE0CE0101960E943A16BC
:1048300010926D0688EE97E00E94670E0E940104B8
:10484000AB01BC018091ED079091EE07A091EF07BD
:10485000B091F0070091E9071091EA072091EB076A
:104860003091EC07800F911FA21FB31F21E0481762
:1048700059076A077B0708F420E02093E8074817E8
:1048800059076A077B0708F487CC85E090E080CC65
:1048900080916E06882369F14DE050E062EF7DE083
:1048A00084E896E00E94BB3B8091C111809377061B
:1048B00083E891E190938306809382068091C011F2
:1048C00080937806B601CE0101960E94740EB8015D
:1048D000CE0180599F4F0E94110F4EE656E0BE0157
:1048E0006F5F7F4FCE0180599F4F0E94C719109272
:1048F0006E06B601CE0101960E94740EB801CE017B
:1049000080599F4F0E94110F4EE656E0BE016F5F27
:104910007F4FCE0180599F4F0E941F1780917106D3
:10492000811166CC39CC10923C110E9494020E94F5
:10493000BA0587E090E02CCCCE0180599F4F0E94B1
:10494000740EB801CE0188509F4F0E94110F8091C4
:104950004511909146118C0104501109C55FDE4F3D
:1049600019830883CB50D1400330110508F025C4CA
:104970003091C211332309F420C42FEF230FA1E09B
:10498000069709F42DC4B4E03B9FC0011124FC013B
:10499000E95BFE4E1F01F4E02F9F90011124890175
:1049A000095B1E4EC95FDE4F19830883C750D14093
:1049B000A1E02FC410E0B12CA12CF1019380911043
:1049C000E1C08091F107882309F45EC0F3E0FF168F
:1049D00009F48CC0FF1550F002E0F01611F183E7E6
:1049E0009EE00E94410F93C011E0E7CF26E02F1513
:1049F000B0F3C55FDE4F48815981CB50D140433081
:104A0000510508F0B1C04DE050E06FE37EE0CE010B
:104A100081529F4F0E94BB3B45E150E068E47EE03D
:104A200072C04DE050E065E17EE0CE0181529F4FC3
:104A30000E94BB3B45E150E06CE17EE0CE01019677
:104A40000E94BB3B4DE050E0BE0161527F4F82EFC0
:104A500097E00E94BB3B45E150E0BE016F5F7F4F96
:104A60008FEF97E00E94BB3BBE0168507F4FCE01A5
:104A700084519F4F0E94110F612FCE0184519F4F8F
:104A80000E94BF151092F107BE0160597F4FCE0101
:104A900001960E94740EBE0168507F4FCE01815274
:104AA0009F4F0E94110F82E390E08A199B098F3F6C
:104AB000910519F010F08FEF90E0E12E082F2FEB09
:104AC00031E1A101BE016F5F7F4FCE0181529F4F47
:104AD0000E941015112309F45FCBE091C211F0E0A0
:104AE000ED57FE4E8091BF11808356CB4DE050E0D4
:104AF0006BE27EE0CE0181529F4F0E94BB3B45E1BD
:104B000050E061E37EE0CE0101960E94BB3B8091C4
:104B1000C21190E04AE0BE016C5F7E4F01960E9498
:104B2000873665E170E0CE0101960E947C3674E123
:104B3000E72EF12CA701481B590BBE016C5F7E4F7D
:104B4000CE0101960E94AB3B65E170E0CE0101967B
:104B50000E947C36A701481B590B65EB7BE0CE0118
:104B600001960E94AB3B6ECF4DE050E069E57EE0E0
:104B7000CE0181529F4F0E94BB3B45E150E062E66F
:104B80007EE0C1CF21E02093F107E090BF112E2DF0
:104B900030E06091C211E69E70011124E62FF0E032
:104BA000AF014F5F5F4FC55FDE4F08811981CB506A
:104BB000D14003301105C0F4662309F4F4C28330F8
:104BC000910569F03197E29FB001E39F700DF29F6C
:104BD000700D112467017B0186309105A1F46501F8
:104BE000C20ED31E75010FC0429F6001439FD00CBF
:104BF000529FD00C11248330910519F08630910515
:104C000011F46111ECCF6091C1116417150681F0A8
:104C10007CF09C01235031092230310508F4B9C0E1
:104C20008630910509F4B5C021E08130910509F085
:104C300020E07091C0117417150649F044F0392D29
:104C40008230910529F031E08530910509F030E09E
:104C5000211103C0332309F4B9C08701000F111FCC
:104C60000E0D1F1DF801ED5BFC4EAA2309F493C045
:104C70000D5B1C4E5701C6018E199F099C0150E027
:104C800040E0C55FDE4F288339834A835B83CB5086
:104C9000D140AC14BD0408F091C0B5016E197F0974
:104CA00090E080E00E94C1362B013C01C55FDE4FE1
:104CB000688179818A819B81CB50D1400E94C13625
:104CC0009B01AC01C301B2010E9467382B013C017A
:104CD000C95FDE4FA881B981C750D14012969C9020
:104CE000F10162816919770B072E000C880B990B73
:104CF0000E94C336A30192010E9422370E94D93834
:104D0000690DC75FDE4F6883C950D140C95FDE4F70
:104D1000A881B981C750D14011968C90F101618171
:104D20006819770B072E000C880B990B0E94C3366D
:104D3000A30192010E9422370E94D938860EC95FD2
:104D4000DE4FA881B981C750D1409C90F1016081AC
:104D50006919770B072E000C880B990B0E94C3363C
:104D6000A30192010E9422370E94D938960ED801E1
:104D70009C9211968C921197C75FDE4FE881C950C3
:104D8000D1401296EC93FFEFAF1ABF0A0D5F1F4F91
:104D900080CF292D4ECFEC14FD0480F4D101129662
:104DA0008C91129711969C9111972C91208391834D
:104DB0008283BFEFEB1AFB0A3396EDCF0E94BA0550
:104DC0008091C2118F5F8093C211E6C92091441176
:104DD0002111B6C18330910519F0069709F0672FAC
:104DE00053E4A52E51E1B52E30E020E0062F10E06F
:104DF000CD5EDE4F19830883C351D140CD5EDE4FB7
:104E000008811981C351D1402017310708F084C1AE
:104E10008091BF1190E0289F8001299F100D389F3D
:104E2000100D1124A9014F5F5F4FCF5EDE4F5983F4
:104E30004883C151D1407C01E00EF11EC55FDE4FB9
:104E4000A881B981CB50D140139730F52115310598
:104E500019F1880F991FF701E81BF90BD92C78017C
:104E60008F01809145119091461183309105E9F0B1
:104E7000A8F481309105A1F1029709F40EC182EFE7
:104E80009AE008C114E0A10EB11CCF5EDE4F28816C
:104E90003981C151D140B2CFD12CE3CF85309105BA
:104EA00009F4FBC0E8F0069751F71501E4E02E0E77
:104EB000311CDD2031F0C95FDE4FB982A882C750B6
:104EC000D140E3E8F1E190E080E010E000E0281755
:104ED000390709F4EFC04191040F111D0196F7CF76
:104EE000CF5EDE4FE881F981C151D140ED5BFE4ECE
:104EF00087AD882309F4CCC024E0829FC00111242F
:104F0000AC014D5B5E4E1A01DD2009F4E1C086ADB7
:104F100054E0859FC0011124DC01AD5BBE4EC95F2A
:104F2000DE4FB983A883C750D140C801880F991FAD
:104F3000800F911F9C012D5B3C4EC75FDE4F398374
:104F40002883C950D140C15FDE4F19830883CF50F9
:104F5000D140C701801B910B9C0150E040E0CB5E2B
:104F6000DE4F288339834A835B83C551D140C15FBB
:104F7000DE4F48815981CF50D1404E155F0508F072
:104F800081CFBA01601B710B90E080E00E94C136B6
:104F90002B013C01CB5EDE4F688179818A819B8148
:104FA000C551D1400E94C1369B01AC01C301B20181
:104FB0000E9467382B013C01C95FDE4FA881B9818F
:104FC000C750D14012968C90F10162816819770B1D
:104FD000072E000C880B990B0E94C336A301920187
:104FE0000E9422370E94D938860EC95FDE4FA88101
:104FF000B981C750D1401196DC90F10161816D19E2
:10500000770B072E000C880B990B0E94C336A30167
:1050100092010E9422370E94D938D60EC95FDE4F16
:10502000A881B981C750D140CC90F10160816C1941
:10503000770B072E000C880B990B0E94C336A30137
:1050400092010E9422370E94D938C60EC75FDE4FF8
:10505000A881B981C950D140CC921196DC921197A8
:1050600012968C921297C15FDE4FE881F981CF5082
:10507000D1403196C15FDE4FF983E883CF50D140F4
:105080001396C75FDE4FB983A883C950D1406FCF55
:105090008BED9AE00E94410F19C01501B4E02B0E70
:1050A000311CDD20A9F0C95FDE4FB982A882C7504C
:1050B000D1403BCFCF5EDE4FE881F981C151D14075
:1050C000ED5BFE4EE7ACE00EF12EF11CD1102DCFC2
:1050D000C55FDE4F28813981CB50D1402330310567
:1050E00008F4D0CEF801EE0FFF1FE00FF11FED5BCB
:1050F000FC4E0E151F0508F0C5CED10112968C91FD
:10510000129711969C9111972C9120839183828301
:105110000F5F1F4F3396EDCF0E94BA05BE01685056
:105120007F4FCE0101960E94110F4EE85EE063EAC8
:105130007EE0CE0101960E94C01681E0809344116A
:10514000BE0160597F4FCE0101960E94740ECE01C0
:1051500001960E942D098F3FA1F4E0916C06EF3F6C
:1051600081F0F0E0EC59F54F9081911103C091E08E
:105170009093431180936C0610923E1110923D1152
:105180000BC880936C0608C887EB9EE00C94C02087
:105190008091C21114E0819FC00111249C01295B00
:1051A0003E4E190114C0CC24C394D12CF12CE12C17
:1051B0008330910509F022CD26CD8330910571F021
:1051C00040F4019728F78DEF9DE00E94410FA0E089
:1051D00020C086309105E0F20697A9F720E0A0E014
:1051E0008091C21114E0819FC0011124AC01495B80
:1051F0005E4E1A01AA2369F054E0259F9001112404
:105200008901095B1E4EC95FDE4F19830883C750B1
:10521000D14080914511909146118330910549F01C
:105220008630910509F0C6CB2091C211222309F4E2
:10523000C1CB4091C21150E0E3E8F1E130E020E061
:10524000B12CA12C2417350708F0CECB6191A60E06
:10525000B11C2F5F3F4FF6CFEF92FF921F93CF937A
:10526000DF93CDB7DEB7CB57D1090FB6F894DEBFC9
:105270000FBECDBF2FEF240F243020F526E030E005
:10528000423031F024E030E0443011F025E030E0ED
:105290003093461120934511142F7C01CE010196C5
:1052A0000E94740EB701CE0180599F4F0E94110FCA
:1052B00042E0410FBE016F5F7F4FCE0180599F4F8B
:1052C0000E944720C558DF4F0FB6F894DEBF0FBECF
:1052D000CDBFDF91CF911F91FF90EF9008952F9256
:1052E0003F924F925F926F927F928F929F92AF9276
:1052F000BF92CF92DF92EF92FF920F931F93CF93C3
:10530000DF93CDB7DEB7C654D1400FB6F894DEBFF9
:105310000FBECDBF7C01142F473038F4423018F552
:10532000413039F08BE29FE09CC04730F1F14930C9
:10533000C9F7CA5BDE4F0FB6F894DEBF0FBECDBF14
:10534000DF91CF911F910F91FF90EF90DF90CF9061
:10535000BF90AF909F908F907F906F905F904F9095
:105360003F902F90089583E090E0443031F081E049
:1053700090E0463011F082E090E0909346118093E7
:105380004511CE0101960E94740EB701CE018059DD
:105390009F4F0E94110F412FBE016F5F7F4FCE01C3
:1053A00080599F4F0E944720C4CF8AE090E090939D
:1053B000461180934511CE0180599F4F0E94740E73
:1053C000B701CE0193950E94110F9E012C5C3E4FB8
:1053D000C15CDE4F39832883CF53D14088E0D901A7
:1053E000E82F1D92EA95E9F728503109CF5BDE4F8F
:1053F00039832883C154D140D901E82F1D92EA9501
:10540000E9F7AE014C5D5E4FDA01E82F1D92EA9597
:10541000E9F7BE01645E7E4FDB01E82F1D92EA953D
:10542000E9F7DE01AC5EBE4FFD01282F11922A95EF
:10543000E9F79E01245F3E4FF90111928A95E9F741
:1054400080913A1190913B118230910509F4C5C0C9
:1054500058F4009709F464C0019709F474C08EE110
:105460009FE00E94410F65CF8330910509F44CC144
:105470000497A9F78091441181115CC2C090481132
:10548000D12CB12CA12C1FEFB3E3CB16D10408F023
:105490003EC27501EE0CFF1CEA0CFB1CF701ED5B34
:1054A000FC4E7F014501C6018A199B099C0150E011
:1054B00040E0CD5BDE4F288339834A835B83C3544E
:1054C000D1408C149D0408F01CC2B4016A197B09F8
:1054D00090E080E00E94C1362B013C01CD5BDE4FA5
:1054E000688179818A819B81C354D1400E94C136F1
:1054F0009B01AC01C301B2010E9467382B013C0142
:1055000080914711813009F408C1823009F4B8C193
:1055100080EC9AE00E94410F412C512C320150C185
:1055200081E080939A0580936205109265058FEF64
:1055300080939D050E94330281E090E090933B119F
:1055400080933A11F6CE80919A05882321F16FEE6F
:105550007EE08AE995E00E94E91143E150E06BEFBB
:105560007EE08EEA95E00E94BB3B43E150E063E0C1
:105570007FE081EC95E00E94BB3BBE017395CE01BC
:1055800001960E94110F6AE975E0CE0101960E9412
:105590002E1F10929A05BE0160597F4FCE010196D1
:1055A0000E94740EBE017395CE0181529F4F0E94DE
:1055B000110F4AE955E0BE016F5F7F4FCE01815266
:1055C0009F4F0E94C61E80919D058F3F09F4B1CE6A
:1055D0008093471182E090E0B1CF809162058823EB
:1055E00009F472C04DE050E06BE07FE088E795E0A1
:1055F0000E94BB3B85E0E4E1FAE0DE01A152BF4F2F
:1056000001900D928A95E1F780E1EFEDF0E0EC0F6B
:10561000FD1F3596DF011D928A95E9F74AE0BE012C
:10562000645C7E4F82E390E00E94873665E170E023
:10563000CE0181529F4F0E947C3604E110E0A80108
:10564000481B590BBE01645C7E4FCE0181529F4FB7
:105650000E94AB3B65E170E0CE0181529F4F0E94FA
:105660007C36A801481B590B67E17FE0CE018152CF
:105670009F4F0E94AB3B45E150E0BE0161527F4F1E
:1056800085E895E00E94BB3B88E491E19093770523
:1056900080937605BE0160597F4FCE0101960E942E
:1056A000740EBE017395CE018C509F4F0E94110F56
:1056B00042E655E0BE016F5F7F4FCE018C509F4F99
:1056C0000E94C71910926205BE0160597F4FCE013A
:1056D00001960E94740EBE017395CE0181529F4FB8
:1056E0000E94110F42E655E0BE016F5F7F4FCE0171
:1056F00081529F4F0E941F1780916505882309F4EE
:1057000018CE83E090E01ACF10923C110E949402D0
:105710000E94BA0584E090E011CF2BEA3AEA4AEA07
:105720005EE3C301B2010E94BC3687FF1BC0CB5CA5
:10573000DE4F1883C553D140C85CDE4F1883C85371
:10574000D14088E0FE01EC5CFE4FA2E3B1E10190A4
:105750000D928A95E1F720E030E040E450E4C30187
:10576000B2012AC02BEA3AEA4AE25FE3C301B2017E
:105770000E94BC3687FF6BC0C25DDE4F1883CE52DD
:10578000D140CF5CDE4F1883C153D14088E0FE0189
:10579000E45DFE4FA2E3B1E101900D928A95E1F73D
:1057A0002BEA3AEA4AEA5EE3C301B2010E94FA3701
:1057B00020E030E040E450E40E9422372B013C011D
:1057C0000091381160913411601B770B072E000C8B
:1057D000880B990B0E94C336A30192010E942237C5
:1057E0000E94D938060F3090371160913311631938
:1057F000770B072E000C880B990B0E94C336A30170
:1058000092010E9422370E94D938360E209036111C
:10581000609132116219770B072E000C880B990BDF
:105820000E94C336A30192010E9422370E94D938F8
:10583000260ED7012C9211963C92119712960C933A
:10584000BFEF8B1A9B0AE3E0EE0EF11C3ACECC5D63
:10585000DE4F1883C452D140C65DDE4F1883CA5252
:10586000D14088E0FE01EC5DFE4FA2E3B1E1019082
:105870000D928A95E1F72BEA3AEA4AE25FE394CF88
:105880002BEA3AEA4AEA5EE3C301B2010E94BC365F
:1058900087FF0FC0C25EDE4F1883CE51D140C05E7D
:1058A000DE4F1883C052D14088E0FE01E45EFE4F17
:1058B0004CCF2BEA3AEA4AE25FE3C301B2010E940D
:1058C000BC3687FF0FC0CB5EDE4F1883C551D14079
:1058D000C65EDE4F1883CA51D14088E0FE01EC5EFF
:1058E000FE4F58CFC45FDE4F1883CC50D140CF5EFF
:1058F000DE4F1883C151D14088E0FE01E45FFE4FC6
:10590000B4CF809148115601C80ED11CBDCD0E9464
:10591000BA05BE017395CE0101960E94110F4EE8A3
:105920005EE063EA7EE0CE0101960E94C01681E04F
:1059300080934411BE0160597F4FCE0101960E94B1
:10594000740ECE0101960E942D098F3F89F4E091DB
:105950006105EF3F69F0F0E0EC59F54F908191114E
:1059600003C091E09093431110923B1110923A11B1
:1059700080936105DECCEF92FF920F931F93CF933C
:10598000DF93CDB7DEB7CB57D1090FB6F894DEBFA2
:105990000FBECDBF8C017B0180918F04882399F1CC
:1059A0006BE37FE08FE894E00E94E91143E150E06F
:1059B00065E47FE083EA94E00E94BB3B43E150E072
:1059C00061E57FE086EB94E00E94BB3B43E150E061
:1059D0006FE57FE089EC94E00E94BB3B43E150E03F
:1059E0006EE67FE08CED94E00E94BB3BB801CE01F7
:1059F00001960E94110F6FE874E0CE0101960E949B
:105A00002E1F10928F04B701CE0101960E94740ED2
:105A1000B801CE0180599F4F0E94110F4FE854E00A
:105A2000BE016F5F7F4FCE0180599F4F0E94C61EFF
:105A3000C558DF4F0FB6F894DEBF0FBECDBFDF9164
:105A4000CF911F910F91FF90EF900895EF92FF92E9
:105A50000F931F93CF93DF93CDB7DEB7CB57D10909
:105A60000FB6F894DEBF0FBECDBF8C017B018091D5
:105A7000BD03882309F45BC06EE77FE08DEB93E004
:105A80000E94E91143E150E06CEF7BE081ED93E08F
:105A90000E94BB3B43E150E066E87FE084EE93E088
:105AA0000E94BB3B43E150E065E47FE087EF93E079
:105AB0000E94BB3B43E150E062E97FE08AE094E072
:105AC0000E94BB3B43E150E06FE97FE08DE194E051
:105AD0000E94BB3B43E150E06EEA7FE080E394E04C
