:100000000C944E020C947F020C947F020C947F029D
:100010000C947F020C947F020C947F020C947F025C
:100020000C947F020C947F020C947F020C947F024C
:100030000C947F020C947F020C947F020C947F023C
:100040000C947F020C947F020C947F020C947F022C
:100050000C947F020C947F020C947F020C94BD2BB5
:100060000C947F020C94312C0C94072C0C947F027E
:100070000C947F020C947F020C947F020C947F02FC
:100080000C947F020C947F020C947F020C947F02EC
:100090000C947F020C947F020C947F020C94672CCA
:1000A0000C947F020C947F020C947F020C947F02CC
:1000B0000C947F020C947F020C947F020C947F02BC
:1000C0000C947F020C947F020C947F020C947F02AC
:1000D0000C947F020C947F020C947F020C947F029C
:1000E0000C947F020C942B030C9410030C94560771
:1000F0000C949F1E0C9434070C9452200C943209DB
:100100000C94AC0E0C94DC050C9422030C943A0570
:100110000C943F050C9400030C948A070C94491C22
:100120000C945B200C941E030C9433070C94AA10BF
:100130000C94CA1F0C94F1020C943B050C94CE0D48
:100140000C941A1D0C945D070C94CA060C94D00DE7
:100150000C94AF0E0C94F5020C9407200C9426031B
:100160000C94EB020C9406030C943C050C94F902DD
:100170000C94A4050C948B2D0C940A030C94360E4D
:100180000C9418030C94910F0C9496050C94140382
:100190000C94FD020C94C21C0C9430030C94B60E0B
:1001A0000C9429060C9473050C942C030C94B20E39
:1001B0000C9443070C9482050C943A090C94FF0F9D
:1001C0000C94900F0C9436090C94740B48483A4DDB
:1001D0004D20414D002D0030002376002A5E00485E
:1001E000483A4D4D20414D00414E494D4154494FF3
:1001F0004E533A002D002376002A5E0048483A4DBF
:100200004D20414D00414E494D4154494F4E533AC6
:10021000002D0030002376002A5E0048483A4D4DFC
:1002200020414D0053544152542050543A002D0067
:100230002376002A5E0048483A4D4D20414D005338
:10024000544152542050543A002A002A2A2A2A2A79
:100250002A2A2A2A2A2A2A2A2A2A2A2A2A2A2A0028
:100260005F5F5F5F5F5F00456E7465722050617312
:1002700073776F72643A002A2A2A2A2A2A2A2A2A9B
:100280002A2A2A2A2A2A2A2A2A2A2A002376002ADD
:100290005E002D0030002D005F005F005F5F5F009B
:1002A000746F207069636B206D6F726520636F6C73
:1002B0006F72732E00507265737320616E79206FB8
:1002C00074686572206B65790050726573732027BE
:1002D000302720696620646F6E652E002020202064
:1002E0002020636F6E74696E756500202050726502
:1002F000737320616E79206B657920746F004D4FA8
:100300004E4441592B2B20536D61727421204C4572
:100310004473002A2A2A2A2A2A2A2A2A2A2A2A2A04
:100320002A2A2A2A2A2A2A0000002100240027003B
:100330002A002D00300033000101000004010701F4
:100340000A0100002200250028002B002E003100A9
:10035000340002010000050108010B01000020002B
:100360002300260029002C002F003200000100008D
:100370000301060109010505050507050808080828
:10038000020202020A0A080804040404010101012D
:100390000101010103030303030303030407070728
:1003A0000C0C0C0C0C0C0C0C0202020206060606CD
:1003B000060606060B0B0B0B0B0B0B0B010210209A
:1003C000200808102040102040800201020108048B
:1003D000020101020408102040808040201008041F
:1003E0000201800402018040201008040201080478
:1003F00002010102040810204080010204081020BC
:10040000408000000A0B02090C0D0E0807030401CE
:1004100000000000000000000000000000000000DC
:1004200000000000000000000000000000001211A9
:1004300010000000000000000000000000000000AC
:10044000000000000000000050726573732023203C
:100450007768656E20646F6E652100523A205F5F99
:100460005F20473A205F5F5F20423A205F5F5F0076
:100470004E756D626572206F66204C4544733A205C
:100480005F5F5F00523A205F5F5F20473A205F5F07
:100490005F20423A205F5F5F00008B2D11241FBE5A
:1004A000CFEFD1E2DEBFCDBF00E00CBF21E1A0E184
:1004B000BDE001C01D92A239B207E1F71DE0A0E046
:1004C000B2E0E6EEF9E600E00BBF02C007900D9245
:1004D000A031B107D9F712E0CEE4D2E000E006C0C7
:1004E00021970109802FFE010E948D32CD34D10762
:1004F00080E00807A9F70E945D2E0C94F1340C945B
:1005000000001092E90E1092EA0E8091EB0E90918D
:10051000EC0E8330910571F130F48130910551F08A
:100520000297E1F0089585309105C1F018F0069723
:1005300009F10895E9EEFEE0148215821682178211
:1005400034968FE0E532F807B9F7E9E2FFE087E497
:100550009FE011928E179F07E1F70895E9EEFEE004
:10056000148215821682178234968FE0E136F807DE
:10057000B9F70895E9EEFEE014821582168217821B
:1005800034968FE0E532F807B9F7E9E2FFE011921F
:100590008FE0E833F807D9F708958150823108F0E9
:1005A0005AC0E82FF0E08827E752FD4F8F4F0C9498
:1005B0008D32F902FD02EB02F102F5022B0300037A
:1005C00006030A031003140318031E0322032B035C
:1005D00026032C033003809180008F778093800066
:1005E0000895809180008F7DF9CF80918000877F72
:1005F000F5CF84B58F7784BD089584B58F7DFBCF0B
:100600008091B0008F778093B00008958091B00002
:100610008F7DF9CF809190008F778093900008951F
:10062000809190008F7DF9CF80919000877FF5CFEA
:100630008091A0008F778093A00008958091A00002
:100640008F7DF9CF8091A000877FF5CF8091200129
:100650008F77809320010895809120018F7DF9CFBD
:1006600080912001877FF5CFCF93DF93282F30E053
:10067000F901EE5FFB4F8491F901E454FC4FD491F2
:10068000F901EA58FC4FC491CC23A1F081110E94DA
:10069000CD02EC2FF0E0EE0FFF1FE45AFC4FA591C6
:1006A000B491EC91ED2381E090E009F480E0DF91DA
:1006B000CF91089580E090E0FACF1F93CF93DF931E
:1006C000282F30E0F901EE5FFB4F8491F901E454EB
:1006D000FC4FD491F901EA58FC4FC491CC23A9F006
:1006E000162F81110E94CD02EC2FF0E0EE0FFF1FBC
:1006F000EE5BFC4FA591B4918FB7F894EC9111117A
:1007000008C0D095DE23DC938FBFDF91CF911F917E
:100710000895DE2BF8CFCF93DF9390E0FC01E454F3
:10072000FC4F24918A589C4FFC0184918823C9F086
:1007300090E0880F991FFC01E85DFC4FA591B491F2
:10074000FC01EE5BFC4FC591D49161110DC09FB7C8
:10075000F8948C91209582238C9388812823288378
:100760009FBFDF91CF910895623051F49FB7F89405
:100770003C91822F809583238C93E8812E2BEFCFA1
:100780008FB7F894EC912E2B2C938FBFEACF3FB705
:10079000F8948091190E90911A0EA0911B0EB091B1
:1007A0001C0E26B5A89B05C02F3F19F00196A11D70
:1007B000B11D3FBFBA2FA92F982F8827BC01CD01AB
:1007C000620F711D811D911D42E0660F771F881F0A
:1007D000991F4A95D1F708958F929F92AF92BF9239
:1007E000CF92DF92EF92FF924B015C010E94C70310
:1007F0006B017C010E94C7036C197D098E099F095A
:10080000683E734081059105A8F321E0821A9108A2
:10081000A108B10888EEC80E83E0D81EE11CF11CC7
:1008200081149104A104B10429F7FF90EF90DF90A7
:10083000CF90BF90AF909F908F9008952FB7F8946E
:100840006091150E7091160E8091170E9091180EF2
:100850002FBF0895AF92BF92CF92DF92EF92FF9297
:100860000F931F93CF93DF93D82E8091FD1090911B
:10087000FE10A091FF10B0910011892B8A2B8B2BB9
:10088000D9F00E94C7030091E50E1091E60E209169
:10089000E70E3091E80E601B710B820B930B0091F9
:1008A000FD101091FE102091FF1030910011601783
:1008B000710782079307C8F20E94C7036093E50E91
:1008C0007093E60E8093E70E9093E80EE091051189
:1008D000F0910611309759F0409101115091021199
:1008E00060910311709104118D2D1995D82EC0912E
:1008F000E30ED091E40E83ECE82E8EE0F82E870113
:10090000209749F18EE0033E180729F18D85882351
:10091000F1F0E881F981A284B3840680F781E02DAB
:10092000CE011995BC01CE01F5011995F80191830D
:1009300080838091FB109091FC108436910508F41F
:100940001C860C80DD81C02D0E5F1F4FD9CFF801B2
:1009500011821082EECFC091E30ED091E40E00E13F
:1009600010E02097A9F08D85882361F04E855F8582
:100970006A817B81E881F9810280F381E02D2D2D50
:10098000CE0119950C80DD81C02D0150110949F768
:10099000C091E30ED091E40E2097C9F0F3EEEF166C
:1009A000FEE0FF06A1F08D85882351F0F7016081FC
:1009B0007181E881F9810484F585E02DCE011995D6
:1009C0000C80DD81C02DF2E0EF0EF11CE5CF8091AF
:1009D000C10E9091C20EEC012196D093C20EC0932D
:1009E000C10E4997E4F10E941E040091BD0E1091C2
:1009F000BE0E2091BF0E3091C00E6B017C01C01A5B
:100A0000D10AE20AF30AA701960121153105410531
:100A1000510521F421E030E040E050E088EE93E021
:100A2000C89FB001C99F700DD89F700D1124072E6B
:100A3000000C880B990B0E946B323093FC102093B2
:100A4000FB101092C20E1092C10E0E941E04609301
:100A5000BD0E7093BE0E8093BF0E9093C00EDF91BB
:100A6000CF911F910F91FF90EF90DF90CF90BF90AB
:100A7000AF9008950895089580E991E00895AF92A8
:100A8000BF92CF92DF92EF92FF920F931F93CF937B
:100A9000DF936C017B018B01040F151FEB015E01DD
:100AA000AE18BF08C017D10759F06991D601ED9172
:100AB000FC910190F081E02DC6011995892B79F701
:100AC000C501DF91CF911F910F91FF90EF90DF90C3
:100AD000CF90BF90AF900895FB0144815581608114
:100AE00071810C943F05FC01538D448D252F30E01E
:100AF000842F90E0821B930B541710F0CF9608952B
:100B000001970895FC01918D828D981761F0A28D57
:100B1000AE0FBF2FB11D5D968C91928D9F5F9F731D
:100B2000928F90E008958FEF9FEF0895FC01918DD3
:100B3000828D981731F0828DE80FF11D858D90E040
:100B400008958FEF9FEF0895FC01918D228D892FDD
:100B500090E0805C9F4F821B91098F7399270895C5
:100B60008DE590E10E94A40521E0892B09F420E0A5
:100B7000822F0895FC01A48DA80FB92FB11DA35A8F
:100B8000BF4F2C91848D90E001968F739927848FAD
:100B9000A689B7892C93A089B1898C9183708064D0
:100BA0008C93938D848D981306C00288F389E02D71
:100BB00080818F7D80830895EF92FF920F931F9322
:100BC000CF93DF93EC0181E0888F9B8D8C8D981300
:100BD0001AC0E889F989808185FF15C09FB7F8940C
:100BE000EE89FF896083E889F98980818370806458
:100BF00080839FBF81E090E0DF91CF911F910F91A3
:100C0000FF90EF900895F62E0B8D10E00F5F1F4FB1
:100C10000F731127E02E8C8D8E110CC00FB607FCC0
:100C2000FACFE889F989808185FFF5CFCE010E944E
:100C3000BA05F1CFEB8DEC0FFD2FF11DE35AFF4FFD
:100C4000F0829FB7F8940B8FEA89FB8980818062DC
:100C5000CFCFCF93DF93EC01888D8823B9F0AA8999
:100C6000BB89E889F9898C9185FD03C0808186FD67
:100C70000DC00FB607FCF7CF8C9185FFF2CF8081B6
:100C800085FFEDCFCE010E94BA05E9CFDF91CF916C
:100C9000089580E090E0892B29F00E94B005811131
:100CA0000E94000080E090E0892B49F080E090E015
:100CB000892B29F00E94000081110E94000080E031
:100CC00090E0892B49F080E090E0892B29F00E9488
:100CD000000081110E94000080E090E0892B49F023
:100CE00080E090E0892B29F00E94000081110C9493
:100CF00000000895AF92BF92CF92DF92EF92FF92E1
:100D00000F931F93CF93DF9300D0CDB7DEB75A0177
:100D100019821A821B82882361F18B01E1E0F0E0E5
:100D2000E82EF12CD8012D918D012223F1F06F01D5
:100D3000B1E0CB1AD108D501AC0DBD1D4C914423B7
:100D4000A1F030E02F5F3F4FD7010E949731A42FD1
:100D5000B0E011969B01AC010E948C31A1E0B0E0A3
:100D6000AC0FBD1FAC0DBD1D8C933196E430F10569
:100D7000C9F669817A818B810F900F900F90DF9176
:100D8000CF911F910F91FF90EF90DF90CF90BF9088
:100D9000AF90089581E090E008952091A00D260F76
:100DA0003327331F21323105ECF42091C40DFC01AF
:100DB00090E080E0243069F082E00895A091A00DD9
:100DC0002191AC014058524FA40FB52FB11D2C9367
:100DD0000196861798F38091A00D680F6093A00D7F
:100DE00080E0089581E008951092C40D81E0809321
:100DF000C60D1092C50D61E084E10E945D0361E0C3
:100E000085E10E945D03E9EBF0E080818E7F8083C5
:100E100080818D7F808388E48093B80085E480930F
:100E2000BC000895CF93DF9391E090937F0D8823CA
:100E3000B9F0C091B800D091BA008091BC008A7B13
:100E40008093BC0060E084E10E945D0360E085E186
:100E50000E945D030E94F406D093BA00C093B800CC
:100E6000DF91CF9108950895E091130E8091120EB5
:100E7000E81730F4F0E0E65AF24F808190E00895F0
:100E80008FEF9FEF08959091130E8091120E2FEF28
:100E90003FEF981748F4E92FF0E0E65AF24F20812F
:100EA00030E09F5F9093130EC90108958091120E58
:100EB0009091130E891B990B0895CF92DF92EF92B8
:100EC000FF920F931F93CF93DF937C01CB018A0195
:100ED0002091590D222389F0EB016B01C40ED51E20
:100EE000CC15DD0569F06991D701ED91FC91019078
:100EF000F081E02DC7011995F3CF642F0E94CD0634
:100F0000C801DF91CF911F910F91FF90EF90DF907B
:100F1000CF900895CF93DF931F92CDB7DEB769834B
:100F20002091590D2223F9F02091100E203258F013
:100F300021E030E0FC013383228390E080E00F90D9
:100F4000DF91CF9108958091110EE82FF0E0E75CDA
:100F5000F24F998190838F5F8093110E8093100ED2
:100F600081E090E0ECCF61E0CE0101960E94CD06D9
:100F7000F7CFCF92DF92EF92FF920F931F93CF9311
:100F8000DF93FC01C48121E02093590DC093380DFB
:100F90001092110E1092100E8385682B87E091E15C
:100FA0000E948A07D091100ED13208F092C00E94A0
:100FB000C7036B017C018091C40D811165C082E083
:100FC0008093C40D81E08093C60D8FEF8093C30D95
:100FD0001092E80DD093E70DA9E3BDE0E7ECFDE04A
:100FE00080E0D81385C01092E90D8091E90DCC0FF7
:100FF000C82BC093E90D8091C50D813009F07CC0EC
:101000001092C50D0E94C7036B017C018091E90D10
:101010008093BB0080917B0D90917C0DA0917D0D04
:10102000B0917E0D892B8A2B8B2B99F00E94C703E0
:1010300000917B0D10917C0D20917D0D30917E0DE6
:101040006C197D098E099F090617170728073907AC
:10105000E0F18091BC0083FDD9CF85EC8093BC008A
:101060000E94C7036B017C018091C40D823009F49A
:1010700045C08091C30D8F3F61F18091C30D8032D7
:1010800041F18091C30D25C080917B0D90917C0D25
:10109000A0917D0DB0917E0D892B8A2B8B2B09F4AD
:1010A0008ACF0E94C70300917B0D10917C0D209187
:1010B0007D0D30917E0D6C197D098E099F090617F3
:1010C00017072807390708F076CF80917A0D0E941C
:1010D00012071092110E1092100E1092590DDF91FE
:1010E000CF911F910F91FF90EF90DF90CF900895D7
:1010F0009D9191938F5F75CF85EEB0CF80917B0DE1
:1011000090917C0DA0917D0DB0917E0D892B8A2B45
:101110008B2B09F4A9CF0E94C70300917B0D10917E
:101120007C0D20917D0D30917E0D6C197D098E090D
:101130009F09061717072807390708F095CFC5CF6D
:10114000CF93DF93DC0126E0629FA00DB11D112437
:1011500090965C934E935F9721E091962C93919794
:10116000FC01E359FF4F0190F081E02DEC01C459DF
:10117000DF4F2881222341F0309719F0DC016623EC
:1011800029F0DF91CF9108953097D9F35C968C9137
:10119000DF91CF911994CF92DF92EF92FF920F934C
:1011A0001F93CF93DF93EC01162F042FFC0186E0F1
:1011B000689FE00DF11D112411A2878D90A181304F
:1011C000910509F180F08230910509F443C003973D
:1011D00009F445C0DF91CF911F910F91FF90EF90DF
:1011E000DF90CF9008954423A9F341E050E0CE0171
:1011F0000E94A0080E941E04C85ADF4F68837983AA
:101200008A839B83E7CF0E941E04FE01E85AFF4FAA
:10121000C080D180E280F380AB01BC014C195D0934
:101220006E097F09729680819181B0E0A0E08417F9
:101230009507A607B70770F442E050E0612FCE0192
:10124000DF91CF911F910F91FF90EF90DF90CF90A2
:101250000C94A00843E050E00111BCCFEFCF50E068
:1012600040E0ECCF862F642F0C948B03862F642FE5
:101270000C945D03862F0C9434032F923F924F926F
:101280005F926F927F928F929F92AF92BF92CF9216
:10129000DF92EF92FF920F931F93CF93DF93CDB71F
:1012A000DEB72C970FB6F894DEBF0FBECDBF9C877C
:1012B0008B8784599F4F9A83898381E0A981BA8162
:1012C0008C930E941E04EB85FC85E45AFF4FFC833F
:1012D000EB830081118122813381AB01BC01401B72
:1012E000510B620B730BEB85FC85E859FF4F808136
:1012F0009181B0E0A0E084179507A607B70708F032
:101300004FC110E0CB84DC84F6E6CF0ED11CEB8419
:10131000FC8422E6E20EF11CD6018C91181758F4D9
:10132000D701ED91FC91E10FF11D62E080810E94F7
:101330008B031F5FF1CF312C4B845C84B7E64B0EDF
:10134000511CEB84FC84E4E6EE0EF11C812C912C04
:10135000540183942B853C852E593F4F3A8729872A
:10136000D2018C91381608F063C0032D10E0D7012C
:10137000ED91FC91E00FF11F61E080810E948B03F1
:10138000D701ED91FC91E00FF11F60E080810E9498
:101390005D03D501C401032C04C0880F991FAA1F47
:1013A000BB1F0A94D2F79E838D83FC01E095F095D4
:1013B000F887EF83212CD6018C91281620F5622C1A
:1013C000712CA985BA85ED91FC91E60DF71D808100
:1013D0000E943403660C771CEB85FC85E60DF71D37
:1013E000892B51F4808591852D813E81822B932B11
:1013F000918780872394DFCF80859185AF81B885E1
:101400008A239B23F5CFD701ED91FC91E00FF11FCB
:1014100061E080810E945D03F70180819181080F66
:10142000191F60E0D8018C910E948B03339498CFF0
:101430000B851C85C801CC9678012FEF3FEFF70193
:10144000478D50A1452B21F4148E368F258F11A284
:10145000F6E0EF0EF11CE816F90689F7A12C8B8453
:101460009C8420E6820E911C96E0392ED6018C9148
:10147000A81608F058C0B12C6A2C712CB4E06B0E81
:10148000711C660C771CEB85FC856E0E7F1ED201ED
:101490008C91B81608F045C0F301408151810B2CA6
:1014A00002C0569547950A94E2F7A89EC001112400
:1014B0008B0D911DEB85FC8560E0258D368D8217A7
:1014C000930709F472C06F5F36966A30B1F740FF38
:1014D00026C0EB85FC8570E060E0248D211119C0E9
:1014E000D401ED91FC91E80FF91F4081369EF00187
:1014F000379EF00D11242B853C85E20FF31F448F9E
:10150000968F858F10A2178E41E0C9010E94CB08EB
:1015100006C06F5F7F4F36966A307105F1F6B3945F
:10152000B6CFA394A3CFD12CD80191968C918111E1
:10153000D82E0A5F1F4FE016F106B1F70E941E0475
:10154000EB81FC816083718382839383DD2041F191
:10155000AB85BC8591968C919197882309F15F9614
:101560008D919C9190970197D9F45C968C912C96D3
:101570000FB6F894DEBF0FBECDBFDF91CF911F91A4
:101580000F91FF90EF90DF90CF90BF90AF909F9022
:101590008F907F906F905F904F903F902F90089525
:1015A000E981FA81108280E0E2CF41708B859C85D1
:1015B000ADCF8F929F92AF92BF92CF92DF92EF9278
:1015C000FF92CF93DF93EFEFE60FEC01C12CD12C0C
:1015D0007601EF3FE9F08990912CB12CA12CF0E03D
:1015E00061E070E080E090E0FE1741F0AAE0B0E03A
:1015F0009B01AC010E948C31FF5FF6CFA5019401E5
:101600000E944732C60ED71EE81EF91EE150E1CFF8
:10161000C701B601DF91CF91FF90EF90DF90CF909F
:10162000BF90AF909F908F9008950E943D098823AE
:1016300011F0815308958FEF0895FC01848180FF9C
:1016400005C0128A84FF0AC0638B089581FF03C01E
:101650002695228BF7CF82FFF5CFFBCF85FF04C005
:101660004695460F438B02C086FDFBCF08950F932E
:101670001F93CF93DF932091210D2F5F322F37706F
:101680003093210D20FF2BC020E831FD2064347001
:1016900009F02062205FFC01EC01239600E011E0DC
:1016A0006785662329F070E0C8010E9457326F5F9A
:1016B0006187822F869F080E80E0811D1124811191
:1016C00010C01682662311F0615061873196EC17C5
:1016D000FD0731F7DF91CF911F910F91089520E021
:1016E000D4CF81508683EECF4F925F927F928F92BC
:1016F0009F92AF92BF92CF92DF92EF92FF920F93A1
:101700001F93CF93DF932C01EB010E94C703F201DB
:1017100026893789621B730B6A307105B0F3F89420
:101720008A819B81181619060CF0CDC1E881F981D8
:101730006EB1862E689484F83EB13F7E3EB9D9845E
:101740008E812D2D281B822F2E834C85042E000C7C
:10175000550BAA81BB817F85F888E9887F5FF39468
:10176000E3949F819884BA84AB841081C12C6C2D42
:101770000C2D2C2D2081112788942111280F08F47D
:101780002FEF8195889470FD120F1795889471FD45
:10179000120F1795889472FD120F1795889473FD98
:1017A000120F1795889474FD120F1795889475FD84
:1017B000120F1795889476FD120F1795889477FD70
:1017C000120F17958894622F7111612F8D0D162FAE
:1017D000002C8EB800C000C017FF3EB921816627DB
:1017E000889400C0002C3EB92111290F00C0002CA4
:1017F0008EB800C000C016FF3EB908F42FEF9195D7
:10180000889400C0002C3EB9F0FC620F00C0002C90
:101810008EB800C000C015FF3EB967958894F1FCF2
:10182000620F00C0002C3EB96795889400C0002C60
:101830008EB800C000C014FF3EB9F2FC620F67957D
:10184000889400C0002C3EB9F3FC620F00C0002C4D
:101850008EB800C000C013FF3EB967958894F4FCB1
:10186000620F00C0002C3EB96795889400C0002C20
:101870008EB800C000C012FF3EB9F5FC620F67953C
:10188000889400C0002C3EB9F6FC620F00C0002C0A
:101890008EB800C000C011FF3EB967958894F7FC70
:1018A000620F00C0002C3EB96795889400C0002CE0
:1018B0008EB800C000C010FF3EB9122FF110162FD5
:1018C0009B0D00C0002C3EB900C000C0002C8EB89B
:1018D00000C000C017FF3EB922816627889400C06F
:1018E000002C3EB92111290D00C0002C8EB800C07B
:1018F00000C016FF3EB908F42FEFE40FF51F00C03B
:10190000002C3EB9E0FC620F00C0002C8EB800C075
:1019100000C015FF3EB967958894E1FC620F00C0D6
:10192000002C3EB96795889400C0002C8EB800C08A
:1019300000C014FF3EB9E2FC620F6795889400C0B6
:10194000002C3EB9E3FC620F00C0002C8EB800C032
:1019500000C013FF3EB967958894E4FC620F00C095
:10196000002C3EB96795889400C0002C8EB800C04A
:1019700000C012FF3EB9E5FC620F6795889400C075
:10198000002C3EB9E6FC620F00C0002C8EB800C0EF
:1019900000C011FF3EB967958894E7FC620F00C054
:1019A000002C3EB96795889400C0002C8EB800C00A
:1019B00000C010FF3EB9122FE110162F919400C005
:1019C000002C3EB99A0C00C000C08EB800C000C008
:1019D00017FF3EB920816627889400C0002C3EB9CD
:1019E0002111280F00C0002C8EB800C000C016FFC7
:1019F0003EB908F42FEF8195889400C0002C3EB9C1
:101A000070FD620F00C0002C8EB800C000C015FF32
:101A10003EB96795889471FD620F00C0002C3EB9F5
:101A20006795889400C0002C8EB800C000C014FFD9
:101A30003EB972FD620F6795889400C0002C3EB9D4
:101A400073FD620F00C0002C8EB800C000C013FFF1
:101A50003EB96795889474FD620F00C0002C3EB9B2
:101A60006795889400C0002C8EB800C000C012FF9B
:101A70003EB975FD620F6795889400C0002C3EB991
:101A800076FD620F00C0002C8EB800C000C011FFB0
:101A90003EB96795889477FD620F00C0002C3EB96F
:101AA0006795889400C0002C8EB800C000C010FF5D
:101AB0003EB9122F7111162F8D0D00C0002C3EB9AA
:101AC000119709F086CEEA81FB812EE130E0DF013B
:101AD0000E94953230E020E0A901AAE9EA9F0E0EAB
:101AE000411DFA9F400D511D11244F0F511DDC0166
:101AF000CB01840F951FA11DB11D893E43E09407C2
:101B0000A105B10508F434C0885E9340A109B1096C
:101B100042E0B695A795979587954A95D1F747E006
:101B2000849F080E211D949F200D311D1124290F23
:101B3000311D6091200D70E0860F971F820F931F5B
:101B40004091150E5091160E6091170E7091180E5F
:101B5000292F3327420F531F611D711D4093150E0E
:101B60005093160E6093170E7093180E8093200DED
:101B700078940E94C703F201778B668BDF91CF9137
:101B80001F910F91FF90EF90DF90CF90BF90AF909B
:101B90009F908F907F905F904F9008956C9A0895DA
:101BA0006F927F928F92CF92DF92EF92FF920F937C
:101BB0001F93CF93DF93CDB7DEB762970FB6F8943C
:101BC000DEBF0FBECDBF8C016B017A01822FA80151
:101BD000475F5F4FB8016A5F7F4F0E947A063B0103
:101BE000882ED8011C962C91C701F7FE04C08827C7
:101BF00099278E199F09DA82C9829C838B839E83E1
:101C00008D83688A798A8A8A213049F5CE010196C6
:101C10000E94370B83E08D871F861E86F7FE02C069
:101C20008DEF8D87D801ED91FC910088F189E02D31
:101C3000BE016F5F7F4FC801199562960FB6F89489
:101C4000DEBF0FBECDBFDF91CF911F910F91FF90EF
:101C5000EF90DF90CF908F907F906F9008951C86CB
:101C60001B861A86198618861F82D4CFCF92DF92E0
:101C7000EF92FF920F931F93CF93DF93CDB7DEB711
:101C800062970FB6F894DEBF0FBECDBF8C016B011B
:101C90007A01822FA801475F5F4FB8016A5F7F4FCB
:101CA0000E947A069B01482FD8011C968C91DA82FB
:101CB000C982FC82EB82FE82ED82288B398B4A8BB3
:101CC000813009F5CE0101960E94370B1D861F86D3
:101CD0001E86D801ED91FC910088F189E02DBE01AE
:101CE0006F5F7F4FC801199562960FB6F894DEBFFB
:101CF0000FBECDBFDF91CF911F910F91FF90EF905D
:101D0000DF90CF9008951C861B861A861986188648
:101D10001F82DCCF0895E8EEF2E091E090838FEF30
:101D200083831482E6E1F2E0908383831482EDEBF7
:101D3000F3E0908383831482E7E3F6E09083838368
:101D4000148280931F0D80931E0DE9E0F7E09083CD
:101D5000838314820C94810290E080E00895FC015A
:101D600064870895FC01848590E00895FC018685D0
:101D700097850895CF93DF93EC0118820E941E048B
:101D80006D837E838F839887DF91CF9108950F9322
:101D90001F93CF9326E0FB013296DC01129601904F
:101DA0000D922A95E1F72BE938E0FC01318320837D
:101DB00024E1FB013896DC01189601900D922A95DA
:101DC000E1F79C01245E3F4FAB01445E5F4F890108
:101DD000045C1F4FC6E0FA01D90101900D92CA952B
:101DE000E1F72A5F3F4F4A5F5F4F2017310791F7B6
:101DF000FB01E85AFF4F0081118122813381FC01F0
:101E0000E85AFF4F0083118322833383FB01E45A96
:101E1000FF4F0081118122813381FC01E45AFF4F81
:101E20000083118322833383FB01E05AFF4F20811B
:101E30003181FC01E05AFF4F31832083FB01EE59D1
:101E4000FF4F20813181FC01EE59FF4F3183208308
:101E5000FB01EC59FF4F20813181FC01EC59FF4F10
:101E6000318320833296DB01AA59BF4F2D913C91DB
:101E700031832083FB01E859FF4F20813181FC0130
:101E8000E859FF4F31832083FB01E659FF4F208142
:101E90003181FC01E659FF4F31832083FB01E45976
:101EA000FF4F2081FC01E459FF4F208363597F4F8E
:101EB000FB012081318183599F4FFC0131832083B5
:101EC000CF911F910F910895FC01DB0112968D9126
:101ED0009C911397938382838FE898E0918380830A
:101EE00014968C911497848315968C9115978583FD
:101EF00016968C911697868317968C9117978783E1
:101F000018968C911897808719968C9119978187CC
:101F10001A968C911A9782871B968C9183870895C5
:101F2000089590E080E00895CF93DF93FC01019045
:101F30000020E9F73197AF01481B590BBC018DE533
:101F400090E10E943F05EC0142E050E064EB78E054
:101F50008DE590E10E943F058C0F9D1FDF91CF9191
:101F60000895CF93DF93C091E30ED091E40E2097B4
:101F700099F08A819B81009759F02E853F85A901B0
:101F8000440F551F420F531F70E060E00E94C4349D
:101F90000C80DD81C02DEBCFDF91CF9108950F93A1
:101FA0001F93CF938C01C62F0E94B9076C2F6460DA
:101FB000C8010E94B9076C2F6B7FC8010E94B90746
:101FC00083EC90E00197F1F7CF911F910F91089565
:101FD0000F931F93CF93DF938C01D62FC42F607F75
:101FE000642B0E94CF0F80E1D89FB00111246C2B8D
:101FF000C801DF91CF911F910F910C94CF0F41E059
:102000000E94E80F81E090E00895EF92FF920F9315
:102010001F93CF93DF938C017B01D0E0C0E0F701E9
:10202000EC0FFD1F6491662331F041E0C8010E946E
:10203000E80F2196F4CFCE01DF91CF911F910F9140
:10204000FF90EF900895CF93DF9300D000D01F92C0
:102050001F92CDB7DEB728E0E1EEF7E0DE01119682
:1020600001900D922A95E1F7FC012085241710F4C8
:102070004FEF420F50E0440F551F21E030E02C0F8E
:102080003D1F420F531FFA012081620F606840E03C
:1020900028960FB6F894DEBF0FBECDBFDF91CF916B
:1020A0000C94E80FCF93DF93EC0140E06CE00E94CA
:1020B00023106CEC71E0CE01DF91CF910C940510F0
:1020C00040E061E00E94E80F8BE39FE10197F1F7A8
:1020D00008950F931F93CF93DF93CDB7DEB72C975F
:1020E0000FB6F894DEBF0FBECDBF8C010E9460100A
:1020F000B801CE0101960E94640FCE0101960E94A4
:10210000521041E060E0C8010E94231069EC72E0C7
:10211000C8010E94051042E060E0C8010E9423103F
:1021200065EB72E0C8010E94051043E060E0C80161
:102130000E94231060EA72E0C8010E9405102C96EC
:102140000FB6F894DEBF0FBECDBFDF91CF911F91C8
:102150000F9108950E94B634FC018081918100970F
:1021600011F00C944C3308950F931F93CF93DF938A
:10217000EC0188819981009759F02A813B812617CB
:10218000370730F081E0DF91CF911F910F910895D3
:102190008B016F5F7F4F0E94D533009759F0998371
:1021A00088831B830A832C813D81232B59F7FC01F3
:1021B0001082E8CF80E0E7CFEF92FF920F931F935A
:1021C000CF93DF93EC01198218821B821A821D8241
:1021D0001C8261157105E1F08B01FB01019000206B
:1021E000E9F731977F01E61AF70AB7010E94B410A8
:1021F00028813981811113C02115310519F0C901D8
:102200000E944C33198218821D821C821B821A8202
:10221000DF91CF911F910F91FF90EF900895FD8274
:10222000EC82B801C901DF91CF911F910F91FF900E
:10223000EF900C94CB341F93CF93DF93CDB7DEB7E1
:1022400068970FB6F894DEBF0FBECDBF162FBC0146
:10225000CE010D960E94640FCE010D960E94601073
:1022600040E060E0CE010D960E94231065E176E02B
:10227000CE0101960E94DC10BE016F5F7F4FCE0140
:102280000D960E946C05CE0101960E94AC10BE0115
:10229000635F7F4FCE0101960E94640FCE010196CD
:1022A0000E94521041E060E0CE010D960E94231082
:1022B00062E276E0CE0101960E94DC10BE016F5F03
:1022C0007F4FCE010D960E946C05CE0101960E94B3
:1022D000AC10112311F142E060E0CE010D960E9496
:1022E000231064E874E0CE010D960E94051043E0CF
:1022F00060E0CE010D960E94231060E774E0CE01ED
:102300000D960E94051068960FB6F894DEBF0FBEBA
:10231000CDBFDF91CF911F91089543E060E0CE01E2
:102320000D960E9423106BE574E0E9CF0F931F9385
:10233000CF93DF93CDB7DEB72C970FB6F894DEBFFF
:102340000FBECDBF8C010E94601040E060E0C8016C
:102350000E94231067EB78E0CE0101960E94DC100A
:10236000BE016F5F7F4FC8010E946C05CE010196D0
:102370000E94AC10B801CE0101960E94640FCE01FC
:1023800001960E94521042E060E0C8010E942310B2
:1023900068E474E0C8010E9405102C960FB6F8940A
:1023A000DEBF0FBECDBFDF91CF911F910F9108957A
:1023B000EF92FF920F931F93CF93DF93EC017B017A
:1023C000FB0101900020E9F731978F01061B170BE5
:1023D000B8010E94B41028813981811113C02115E0
:1023E000310519F0C9010E944C33198218821D82EF
:1023F0001C821B821A82DF91CF911F910F91FF9057
:10240000EF9008951D830C83B701C901DF91CF912F
:102410001F910F91FF90EF900C94CB340F931F936B
:10242000CF93DF9300D000D000D0CDB7DEB78C01C2
:10243000862FF80111821082138212821582148273
:102440004AE0BE016F5F7F4F90E00E946730BE019F
:102450006F5F7F4FC8010E94D81129960FB6F8947C
:10246000DEBF0FBECDBFDF91CF911F910F910895B9
:102470009F92AF92BF92CF92DF92EF92FF920F9313
:102480001F93CF93DF93CDB7DEB7A5970FB6F89420
:10249000DEBF0FBECDBF8C017B01BC01CE014496D7
:1024A0000E94640FCE0144960E94601040E060E0FC
:1024B000CE0144960E942310B701695F7F4FCE0181
:1024C00001960E94DC10BE016F5F7F4FCE014496E3
:1024D0000E946C05CE0101960E94AC10BE016C5E9C
:1024E0007F4FCE0101960E94640FCE0101960E949B
:1024F0005210F701268181E0233008F480E0F701D3
:102500009181892391E0243008F490E0892BF70130
:1025100082838823C1F042E062E1CE0144960E94AA
:1025200023106FE872E0CE0144960E94051043E04C
:1025300062E1CE0144960E9423106CE872E0CE0165
:1025400044960E940510B801CE0144960E94640F83
:1025500001E010E083E1982E5701F4E1AF0EB11CC9
:10256000F70184819801280F311D96819217130677
:1025700008F458C0C02ED82ED00E402F60E0CE01F7
:1025800044960E9423106D2DCE0180960E940E125B
:10259000BE01605E7F4FCE0144960E946C05CE0165
:1025A00080960E94AC10402F61E0CE0144960E94BC
:1025B000231066E972E0CE0144960E940510F701EF
:1025C000828140E1811101C043E150E02D2D215075
:1025D000330B929EB001939E700D11246A0D7B1DEA
:1025E000CE0101960E94E2344C2D62E0CE01449669
:1025F0000E942310BE016F5F7F4FCE0180960E9424
:10260000DC10BE01605E7F4FCE0144960E946C05D7
:10261000CE0180960E94AC100F5F1F4F0430110551
:1026200009F09ECFF701858190E00196348121E089
:102630003817190609F020E081E00430110508F090
:1026400080E0282B99F1F7018181882379F1402FCF
:1026500060E0CE0144960E94231064E972E0CE014E
:1026600044960E940510402F61E0CE0144960E94DE
:10267000231062E972E0CE0144960E940510402FBB
:1026800062E0CE0144960E94231062EC78E0CE0115
:1026900080960E94DC10BE01605E7F4FCE014496A2
:1026A0000E946C05CE0180960E94AC10A5960FB6D4
:1026B000F894DEBF0FBECDBFDF91CF911F910F9178
:1026C000FF90EF90DF90CF90BF90AF909F900895D4
:1026D000DF92EF92FF920F931F93CF93DF93CDB7CB
:1026E000DEB7CF56D1090FB6F894DEBF0FBECDBF0F
:1026F0007C018A01CE0101960E94C70ECE0101968F
:102700000E94150BD82E8FEFD8120AC08091BC03FF
:102710008F3F31F0F8015681851798F48F5F8383DE
:10272000D092BC03C159DF4F0FB6F894DEBF0FBE85
:10273000CDBFDF91CF911F910F91FF90EF90DF9070
:1027400008953181332311F08A3049F3893069F0DB
:102750008B3091F0B701CE0101960E94640FB80151
:10276000CE0101960E943812DBCFF80184818823C4
:1027700089F381508483EECFF8012581948181E033
:10278000291708F480E041E0533008F440E0842346
:10279000832311F49217F0F69F5FF8019483DACF48
:1027A0000F931F93CF93DF93CDB7DEB72C970FB660
:1027B000F894DEBF0FBECDBF8B01BC01CE010196E8
:1027C0000E94640FB801CE0101960E9438122C9627
:1027D0000FB6F894DEBF0FBECDBFDF91CF911F9132
:1027E0000F910895EF92FF920F931F93CF93DF9372
:1027F000CDB7DEB7CB57D1090FB6F894DEBF0FBE09
:10280000CDBF8C017B01809109078823A9F14DE0A0
:1028100050E062ED78E080E197E00E94E23443E12D
:1028200050E069ED78E08DE197E00E94E23443E109
:1028300050E063EE78E080E397E00E94E23443E109
:1028400050E06DEE78E083E497E00E94E23443E1EB
:1028500050E06BEF78E086E597E00E94E234B80143
:10286000CE0101960E94640F69E077E0CE010196E7
:102870000E94D01310920907B701CE0101960E9461
:10288000C70EB801CE0180599F4F0E94640F49E0E6
:1028900057E0BE016F5F7F4FCE0180599F4F0E946E
:1028A0006813C558DF4F0FB6F894DEBF0FBECDBF1B
:1028B000DF91CF911F910F91FF90EF900895EF92CC
:1028C000FF920F931F93CF93DF93CDB7DEB7CB5714
:1028D000D1090FB6F894DEBF0FBECDBF8C017B01CE
:1028E000809137068823A9F14DE050E067E079E058
:1028F0008EE396E00E94E23443E150E061E179E04A
:102900008BE496E00E94E23443E150E06DE179E02F
:102910008EE596E00E94E23443E150E06BE279E01C
:1029200081E796E00E94E23443E150E06AE379E017
:1029300084E896E00E94E234B801CE0101960E943C
:10294000640F67E376E0CE0101960E94D0131092E7
:102950003706B701CE0101960E94C70EB801CE011D
:1029600080599F4F0E94640F47E356E0BE016F5F9E
:102970007F4FCE0180599F4F0E946813C558DF4F8B
:102980000FB6F894DEBF0FBECDBFDF91CF911F9180
:102990000F91FF90EF900895EF92FF920F931F9386
:1029A000CF93DF93CDB7DEB7CB57D1090FB6F894ED
:1029B000DEBF0FBECDBF8C017B018091BD0388239C
:1029C00009F45DC04DE050E06AE479E084EC93E006
:1029D0000E94E23443E150E062E579E081ED93E06A
:1029E0000E94E23443E150E06AE579E084EE93E04E
:1029F0000E94E23443E150E061E179E087EF93E047
:102A00000E94E23443E150E066E679E08AE094E037
:102A10000E94E23443E150E063E779E08DE194E025
:102A20000E94E23443E150E062E879E080E394E020
:102A30000E94E23443E150E062E979E083E494E00B
:102A40000E94E23443E150E06AE979E086E594E0EF
:102A50000E94E23443E150E063EA79E089E694E0E1
:102A60000E94E234B801CE0101960E94640F6DEB22
:102A700073E0CE0101960E94D0131092BD03B701FE
:102A8000CE0101960E94C70EB801CE0180599F4F1A
:102A90000E94640F4DEB53E0BE016F5F7F4FCE018C
:102AA00080599F4F0E946813C558DF4F0FB6F894A6
:102AB000DEBF0FBECDBFDF91CF911F910F91FF9071
:102AC000EF9008950F931F93CF93DF93CDB7DEB7A9
:102AD00062970FB6F894DEBF0FBECDBF8C01CB015D
:102AE000F8011182108213821282158214824AE048
:102AF000BE016F5F7F4F0E945C30BE016F5F7F4FF2
:102B0000C8010E94D81162960FB6F894DEBF0FBEBE
:102B1000CDBFDF91CF911F910F910895CF93DF9398
:102B20001F921F92CDB7DEB7FC0111821082138273
:102B300012821582148269831A82BE016F5F7F4FF1
:102B40000E94D8110F900F90DF91CF9108950F93AD
:102B50001F93CF93DF9300D000D0CDB7DEB78C01A9
:102B60006A30C8F4CE0101960E940E12BE016F5F5A
:102B70007F4FC8010E946C05CE0101960E94AC10E7
:102B800026960FB6F894DEBF0FBECDBFDF91CF9172
:102B90001F910F9108956A50653050F4E62FF0E0D0
:102BA000E85CF74F6081CE0101960E948E15DECF62
:102BB00066E4F9CF4F925F926F927F929F92AF92AD
:102BC000BF92CF92DF92EF92FF920F931F93CF931A
:102BD000DF93CDB7DEB72C970FB6F894DEBF0FBEEC
:102BE000CDBF5C016B01F42E122FDB011A968C9184
:102BF0001A9751969C915197E82FE91BFF0B1E17CE
:102C00001F0699F094F0891B089F800D112494E110
:102C1000981B892F14969C91149791FF04C0869558
:102C200052968C9302C092FDFBCFF6016785611727
:102C3000D8F480898017C0F443899685490F069F90
:102C4000600D11249289890F680FC5010E9423101D
:102C5000EE2009F441C06AE972E0C5010E94051046
:102C6000F60180898F5F808BD60150968C915097AA
:102C7000801708F47FC050961C9250971F969C9026
:102C80001F97E110B8C0602F043008F063E0C60160
:102C90000B96F60126812F3F99F1FF24FA94F60E48
:102CA000FC01412C512C32014FEFF41669F12191B6
:102CB00030E050E040E0A0E061E070E080E090E0D3
:102CC000FA1609F46DC0B4E0660F771F881F991FCC
:102CD000BA95D1F7AF5FF4CFD6015096EC91E330BF
:102CE00020F4EC0DFD2DF11DF386B501CE0101960A
:102CF0000E94640F6F2DCE0101960E94A715B0CFE0
:102D00000E94D90A2B013C01D60119968C9190E0C2
:102D1000B0E0A0E084159505A605B70508F44DC000
:102D2000F601808590E0B0E0A0E0481659066A06FA
:102D30007B0608F442C093949786E189EF5FD60141
:102D40005196EC93519754968D919C91559700977D
:102D500079F11A962C912E1758F1E80FF92FF11DE1
:102D600031974082F6018785811720F01786868586
:102D70008F5F86872C960FB6F894DEBF0FBECDBF4F
:102D8000DF91CF911F910F91FF90EF90DF90CF9047
:102D9000BF90AF909F907F906F905F904F900895FD
:102DA0000E944732460E571E681E791EFA947CCF49
:102DB0008AEA99E00E94940FD5CFF12CE12C602E85
:102DC000712C0F5FF6018785E614F70458F64389E6
:102DD0009685490F6289089F600D11246E0DC5010B
:102DE0000E94231068E972E0C5010E940510FFEF00
:102DF000EF1AFF0AE7CF93941F969C921F97519664
:102E00008C9151978F5F51968C93ACCF2F923F92BC
:102E10004F925F926F927F928F929F92AF92BF92EA
:102E2000CF92DF92EF92FF920F931F93CF93DF9396
:102E3000CDB7DEB7CC5FD1090FB6F894DEBF0FBEB9
:102E4000CDBF5C016A01CE0180599F4F0E94C70E21
:102E5000B501CE0185519F4F0E94640FD601169691
:102E60009C91169719968C919F3F39F48A3038F0CF
:102E700013E0843628F412E003C08031E0F711E05B
:102E8000612F70E06F5F7F4F84E190E00E945732C6
:102E90004B01F601818131E043E0882311F032E0FB
:102EA00042E0D6011A968C91880D992D911D0197BB
:102EB000B4010E945732C650DF4F6883CA5FD040CA
:102EC000461708F487C2C750DF4F8882C95FD040D9
:102ED000882D189D800D112424E1281B461B632F8B
:102EE000C6010E941D0BBE0160597F4FFE01319645
:102EF0005F01CF010E94C70EC5010E94150BC5508E
:102F0000DF4F8883CB5FD0408F3F09F04BC2E09109
:102F1000BA03EF3F09F446C28091220DD6011696FE
:102F20009C911697E91379C0113009F074C0199675
:102F30009C919A3008F46FC081116DC0BE0165513B
:102F40007F4FCE0181529F4F0E94640FCE0181526C
:102F50009F4F0E94601040E060E0CE0181529F4F81
:102F60000E942310B6016A5E7F4FC5010E94DC10EB
:102F7000B501CE0181529F4F0E946C05C5010E9490
:102F8000AC10BE0161527F4FC5010E94640FC501A4
:102F90000E94521041E060E0CE0181529F4F0E949A
:102FA00023106AEB79E0C5010E94DC10B501CE0167
:102FB00081529F4F0E946C05C5010E94AC1042E0F7
:102FC00060E0CE0181529F4F0E9423106EEC79E0A9
:102FD000C5010E94DC10B501CE0181529F4F0E94B5
:102FE0006C05C5010E94AC1043E060E0CE01815247
:102FF0009F4F0E94231063EE79E0C5010E94DC1010
:10300000B501CE0181529F4F0E946C05C5010E94FF
:10301000AC101093220DF12C0BC1882309F45BC175
:10302000F0E0E45DF74F2081F60181858950990B2E
:103030002817190684F78AE0F82EF20E0488F5891D
:10304000E02D3097A9F051968C91AF01D50190E019
:103050009D012A193B092817390770F4FA012191BB
:10306000AF012D939F0121503109F9011082F0CF5A
:1030700088EF99E00E94940FD6011E962D903D9006
:103080004D905C9051975196BC91C450DF4FB883DE
:10309000CC5FD040F60116861786108A118ACE01C1
:1030A00085519F4F0E94601040E060E0CE01855145
:1030B0009F4F0E942310B6016A5E7F4FCE0181525E
:1030C0009F4F0E94DC10BE0161527F4FCE0185519F
:1030D0009F4F0E946C05CE0181529F4F0E94AC1001
:1030E000BE0165517F4FCE0181529F4F0E94640FF8
:1030F000CE0181529F4F0E945210D60111968C91A1
:103100008823E1F041E060E0CE0185519F4F0E94AD
:103110002310B6016D5D7F4FCE0181529F4F0E94FB
:10312000DC10BE0161527F4FCE0185519F4F0E943E
:103130006C05CE0181529F4F0E94AC10C950DF4FE9
:10314000B982A882C75FD040C450DF4FB881CC5F3E
:10315000D0406B2E712CC950DF4F88819981C75F99
:10316000D0408A199B098615970520F5C950DF4F75
:10317000E881F981C75FD0407190C950DF4FF98372
:10318000E883C75FD040BE0165517F4FCE018152B9
:103190009F4F0E94640FE12C012FC750DF4F288101
:1031A000C95FD040472DB601CE0181529F4F0E948A
:1031B000DA15CACFD6011A968C9186151704E1F05C
:1031C000D8F0BE0165517F4FCE0181529F4F0E94C2
:1031D000640FEE24E394012FC750DF4F2881C95FAD
:1031E000D04040E0B601CE0181529F4F0E94DA15D7
:1031F000BFEF6B1A7B0ADECFF60126863786408A40
:10320000518A81890488F589E02D309759F0D501DC
:1032100090E09D012A193B092817390738F42D91B0
:103220002193F7CF84E19AE00E94940F1092220D2F
:1032300081E0F60121899285291708F080E0D60106
:1032400013962C91139731E0232782239091220D1E
:103250009327892309F4A6C01E968C91C650DF4F90
:10326000B881CA5FD0408B1708F09CC0BE01655181
:103270007F4FCE0181529F4F0E94640FE12C012F9E
:10328000282D4F2DB601CE0181529F4F0E94DA1595
:10329000F6018281882309F485C0113009F082C0CB
:1032A0000488F589E02D309731F1D60151968C9143
:1032B000AF01D50190E09D012A193B092817390774
:1032C000F0F4FA012191AF012D939F0121503109B2
:1032D000F9011082F0CF17968C9117978F3F31F03C
:1032E000E81304C081E013968C9395CEF0E0E45D82
:1032F000F74FF0809DCF88EF99E00E94940FD601A0
:103300001E962D903D904D905C90519751966C90EB
:10331000712CF60191898285981748F54501D601EF
:1033200051969C9151971A968C9194012A193B09B8
:103330002615370570F7981760F7F40111914F01C2
:10334000BE0165517F4FCE0181529F4F0E94640F95
:10335000E12C01E0C750DF4F2881C95FD040412FE9
:10336000B601CE0181529F4F0E94DA15D8CFD60107
:1033700026863786408A518A0488F589E02D309761
:1033800069F051968C91D50190E09D012A193B0975
:103390002817390738F42D912193F7CF84E19AE06B
:1033A0000E94940FC550DF4FB881CB5FD040B093DF
:1033B000BA03F60191898285981718F483818823CE
:1033C00049F081E0D60113968C93F6011686178694
:1033D000108A118AC450DF4F0FB6F894DEBF0FBEBB
:1033E000CDBFDF91CF911F910F91FF90EF90DF90B4
:1033F000CF90BF90AF909F908F907F906F905F9095
:103400004F903F902F900895BF92CF92DF92EF920E
:10341000FF920F931F93CF93DF93CDB7DEB7C250C8
:10342000D1400FB6F894DEBF0FBECDBF8C016A014C
:10343000CE0180599F4F0E94C70EB801CE0189501E
:103440009F4F0E94640FCE0189509F4F0E946010D1
:1034500040E060E0CE0189509F4F0E942310B601EA
:103460006A5E7F4FCE0101960E94DC10BE016F5F45
:103470007F4FCE0189509F4F0E946C05CE0101966F
:103480000E94AC10BE0169507F4FCE0101960E9490
:10349000640FCE0101960E945210D60111968C91B4
:1034A0008823D1F041E060E0CE0189509F4F0E9417
:1034B0002310B6016D5D7F4FCE0101960E94DC1096
:1034C000BE016F5F7F4FCE0189509F4F0E946C05F8
:1034D000CE0101960E94AC10BE0160597F4FCE0113
:1034E00001960E94C70EBE0169507F4FCE018551E3
:1034F0009F4F0E94640FF601968181859F3F39F4AA
:103500008A3038F013E0843628F412E003C08031AA
:10351000E0F711E0612F70E06F5F7F4F84E190E092
:103520000E9457329B01D60111968C91E2E042E055
:10353000811102C0E1E043E0D6011A968C91820F1E
:10354000932F911D0197B9010E945732F62E46170D
:1035500078F1B22E129F200D112484E1821B282FB6
:10356000461B6E2FC6010E941D0BF60186858F1526
:10357000C0F4918982859817A0F4BE0165517F4FF0
:10358000CE0181529F4F0E94640FEE24E394012FDD
:103590002B2D40E0B601CE0181529F4F0E94DA15DB
:1035A000E4CFD6011E961D921D921D921C9251973A
:1035B000CE5FDE4F0FB6F894DEBF0FBECDBFDF91FA
:1035C000CF911F910F91FF90EF90DF90CF90BF9020
:1035D00008958F929F92AF92BF92CF92DF92EF9217
:1035E000FF920F931F93CF93DF93CDB7DEB7CF56E4
:1035F000D1090FB6F894DEBF0FBECDBF6C015A01E2
:10360000922EF02ECE0101960E94C70ECE01019699
:103610000E94150B882E8FEF88122BC00091BB03E0
:103620006091230D0F3F29F110E0F501E60FF11D28
:10363000D801A45DB74F8C9182836F0D4E2DC601CA
:103640000E942310F801E05EF74F6081CE010196E1
:103650000E948E15BE016F5F7F4FC6010E946C05F0
:10366000CE0101960E94AC108091230D8F5F809354
:10367000230D8092BB038091230D8330A0F063E083
:10368000C50102960E94D90A092D10E030E020E021
:103690000617170728073907D0F0F501618381E085
:1036A00080831092230DC159DF4F0FB6F894DEBF0F
:1036B0000FBECDBFDF91CF911F910F91FF90EF9083
:1036C000DF90CF90BF90AF909F908F9008954E2D38
:1036D0006F2DC6010E9423106CE972E0C6010E94A2
:1036E0000510DFCFCF92DF92EF920F931F93CF930E
:1036F000DF93CDB7DEB7CB57D1090FB6F894DEBF55
:103700000FBECDBF6C01FA01102F8E2D42E0E42ECA
:10371000811102C093E0E92E9091330D911125C0E3
:10372000CE0101960E94C70EB601CE0180599F4F6F
:103730000E94640F03E02FEF43E35DE0BE016F5F83
:103740007F4FCE0180599F4F0E94E91AC558DF4F25
:103750000FB6F894DEBF0FBECDBFDF91CF911F91A2
:103760000F91EF90DF90CF90089590912E0D9111D1
:103770000FC0CE0101960E94C70EB601CE0180593E
:103780009F4F0E94640F0AE02FEF4EE25DE0D6CF1C
:103790009091290D91110FC0CE0101960E94C70E84
:1037A000B601CE0180599F4F0E94640F01E12FEFB7
:1037B00049E25DE0C3CF9091240D911113C088239D
:1037C00089F0CE0101960E94C70EB601CE01805944
:1037D0009F4F0E94640F83E0E82E00E1212F44E216
:1037E0005DE0ACCF91E090839091340D9183909106
:1037F0002F0D928390912A0D9383882321F080913D
:10380000250DF90180831092330D10922E0D109228
:10381000290D1092240D9ACF2F923F924F925F92D2
:103820006F927F928F929F92AF92BF92CF92DF92D0
:10383000EF92FF920F931F93CF93DF93CDB7DEB735
:10384000C651D1400FB6F894DEBF0FBECDBF8C017C
:103850007B01C42E2091EB0E3091EC0E590144E017
:10386000A41AB108E091BB0EF091BC0EE830F1054E
:1038700010F00C94B3248827EF5BF34E8F4F0C9419
:103880008D32491CC21C1A1D9F1ECA1F07205220C0
:103890005B2080ED97E0A0E0B0E080930C06909371
:1038A0000D06A0930E06B0930F068BE096E00E94E3
:1038B000BA0E11E010933905109301051093C90455
:1038C0001093910410939004109204051092CC046C
:1038D000109294048FEF80933C051092B70E1092D3
:1038E000B80E1092B90E1092BA0E0E94810254E0E6
:1038F000C51641F15C1558F062E0C61671F073E030
:10390000C71689F082E49AE00E94940F21C086E0F5
:103910008C15C0F381E090E017C01093B80E82E3DD
:103920008093B70E0CC082E08093B80E89E180933B
:10393000B70E8091EB0E9091EC0E059781F386E027
:1039400090E002C083E090E09093BC0E8093BB0EA9
:10395000CA5EDE4F0FB6F894DEBF0FBECDBFDF915B
:10396000CF911F910F91FF90EF90DF90CF90BF907C
:10397000AF909F908F907F906F905F904F903F900F
:103980002F900895809139058823B9F14DE050E0DA
:103990006FE47AE080E495E00E94E23483E1E7E5B9
:1039A000FAE093E0A916B10410F0EAE6FAE0DE01CD
:1039B000119601900D928A95E1F743E150E0BE0126
:1039C0006F5F7F4F8DE495E00E94E23443E150E069
:1039D0006DE77AE080E695E00E94E234B801CE011E
:1039E00080599F4F0E94640F69E375E0CE018059B2
:1039F0009F4F0E94D01310923905B701CE01019656
:103A00000E94C70EB801CE0180599F4F0E94640FDB
:103A100049E355E0BE016F5F7F4FCE0180599F4F54
:103A20000E94681380913C058F3F09F491CF82E09A
:103A300090E08ACF809101058823F1F080913C05C8
:103A40008130E1F1823009F4C9C0B701CE0101969D
:103A50000E94C70EB801CE0184519F4F0E94640F8F
:103A600041E055E0BE016F5F7F4FCE0184519F4F13
:103A70000E94041A10920105B701CE0101960E941E
:103A8000C70EB801CE0180599F4F0E94640F41E0DC
:103A900055E0BE016F5F7F4FCE0180599F4F0E945E
:103AA000061780913C05813009F403C1823009F486
:103AB0002BC185E09BE00E94940F12C1223031059A
:103AC00089F048F42130310509F465C080EB9AE0B3
:103AD0000E94940F19C02430310509F45CC02530D0
:103AE0003105A1F74DE050E06CE87AE0CE0181525B
:103AF0009F4F0E94E23445E150E062E97AE0CE0156
:103B000080599F4F0E94E2346DE070E0CE018152F7
:103B10009F4F0E9451304CE050E0481B590BA3E0EE
:103B2000AA16B10408F045C06AED7BE0CE018152CF
:103B30009F4F0E94D23465E170E0CE0180599F4FC3
:103B40000E94513044E150E0481B590B6BED7AE084
:103B5000CE0180599F4F0E94D234109209058EE108
:103B600080930A054DE050E0BE0161527F4F87E12E
:103B700095E00E94E23445E150E0BE0160597F4F7C
:103B800084E295E00E94E23488EB9EE09093160573
:103B9000809315055ACF4DE050E06DE97AE0CE01F3
:103BA00081529F4F0E94E23445E150E064EA7AE09E
:103BB000A6CF62EE7AE0CE0181529F4F0E94D234AE
:103BC00065E170E0CE0180599F4F0E94513044E181
:103BD00050E0481B590B68EE7AE0BACF4DE050E058
:103BE0006FEE7AE087E195E00E94E2344AE0BE01A0
:103BF0006C5F7E4F81E090E00E945C304AE0BE0145
:103C000068507F4F82E390E00E945C3045E150E0D5
:103C100067EF7AE0CE0180599F4F0E94E23465E160
:103C200070E0CE0180599F4F0E94513054E1C52E63
:103C3000D12CA601481B590BBE016C5F7E4FCE01F3
:103C400080599F4F0E94D23465E170E0CE018059C7
:103C50009F4F0E945130A601481B590B6DEF7AE02F
:103C6000CE0180599F4F0E94D23465E170E0CE01B1
:103C700080599F4F0E945130A601481B590BBE012D
:103C800068507F4FCE0180599F4F0E94D23445E14A
:103C900050E0BE0160597F4F84E295E00E94E2341B
:103CA00081E08093090582E380930A0587EB9EE01B
:103CB0006DCF2091B80E30E050E040E0B3E0AB169D
:103CC000B10430F42150330B032E000C440B550B80
:103CD00062E370E080E090E00E946B322093B70EC8
:103CE00080910405882309F433CE8091EB0E9091E6
:103CF000EC0E8230910509F422CED0F4019709F43C
:103D000021CE82E29BE000CE2091B70E30E050E061
:103D100040E062E370E080E090E00E946B32E3E01C
:103D2000AE16B10418F02093B80EDACF2F5FFBCF98
:103D30008430910509F406CE059719F700CE8091DD
:103D4000C904882309F4DFC085E0E9EEF7E0DE016D
:103D5000A059BF4F01900D928A95E1F780E1E0E70D
:103D6000F0E0EC0FFD1F3596DF011D928A95E9F713
:103D70002330310579F040F42130310549F18CE9E7
:103D80009BE00E94940F21C02430310509F12630B8
:103D90003105A9F74DE050E06CE57BE0CE018152A2
:103DA0009F4F0E94E23465E170E0CE0180599F4F41
:103DB0000E94513044E150E0481B590B64E67BE01F
:103DC000CE0180599F4F0E94D2343FE0D32E41C094
:103DD0008091B80E803108F08FE04AE0BE01685053
:103DE0007F4F90E00E945C304DE050E06DE67BE05C
:103DF000CE0181529F4F0E94E23465E170E0CE0116
:103E000080599F4F0E94513044E1C42ED12CA6010D
:103E1000481B590BBE0168507F4FCE0180599F4F00
:103E20000E94D23465E170E0CE0180599F4F0E941C
:103E30005130A601481B590B6EE67BE0CE0180593C
:103E40009F4F0E94D234D090B80EBFE0BD1508F449
:103E5000BCCF6DE070E0CE0181529F4F0E94513087
:103E60004CE050E0481B590BE3E0AE16B10408F0FB
:103E700072C064E77BE0CE0181529F4F0E94D23432
:103E800065E170E0CE0180599F4F0E94513044E1BE
:103E900050E0481B590B6BED7AE0CE0180599F4FE3
:103EA0000E94D2344DE050E0BE0161527F4F8FED51
:103EB00094E00E94E23445E150E0BE0160597F4F3A
:103EC0008CEE94E00E94E234D092D20489EB9EE022
:103ED0009093DE048093DD04B701CE0101960E9429
:103EE000C70EB801CE0184519F4F0E94640F49EC68
:103EF00054E0BE016F5F7F4FCE0184519F4F0E94FF
:103F0000041A1092C904B701CE0101960E94C70E8F
:103F1000B801CE0180599F4F0E94640F49EC54E0D4
:103F2000BE016F5F7F4FCE0180599F4F0E940617E1
:103F30008091CC04882309F40BCD8091EB0E9091F5
:103F4000EC0E8330910509F4FACCD0F40197F9F026
:103F50008EE79BE0D9CC69E77BE0CE0181529F4F91
:103F60000E94D23465E170E0CE0180599F4F0E94DB
:103F7000513044E150E0481B590B68EE7AE08DCF98
:103F80008430910521F0069709F4D9CCE1CF84E083
:103F900090E0DACC80919004882379F0B801CE01CA
:103FA00001960E94640FCE0101960E949611109214
:103FB00090048BE096E00E94BA0E0E941E04AB01B2
:103FC000BC018091100690911106A0911206B0914B
:103FD000130600910C0610910D0620910E063091EB
:103FE0000F06800F911FA21FB31F21E0481759072A
:103FF0006A077B0708F420E020930B06481759074F
:104000006A077B0708F4A4CC85E090E09DCC809102
:104010009104882369F14DE050E067EB78E087EA8E
:1040200094E00E94E2348091B90E80939A0489E270
:104030009FE09093A6048093A5048091B80E80938E
:104040009B04B701CE0101960E94C70EB801CE01B4
:1040500080599F4F0E94640F41E954E0BE016F5F99
:104060007F4FCE0180599F4F0E94041A10929104F5
:10407000B701CE0101960E94C70EB801CE0180594A
:104080009F4F0E94640F41E954E0BE016F5F7F4F74
:10409000CE0180599F4F0E94061780919404811190
:1040A0004ECC56CC0E94B10F8091FA100E942A0487
:1040B00087E090E049CCCE0180599F4F0E94C70E07
:1040C000B801CE0188509F4F0E94640F8091EB0E83
:1040D0009091EC0E7C01F4E0EF1AF10823E0E21677
:1040E000F10408F056C43091BA0E332309F451C4D8
:1040F0002FEF230F41E0069709F45EC4B4E03B9F25
:10410000C0011124FC01E351F14F1F01F4E02F9F86
:1041100090011124A9014351514FC95FDE4F5983CA
:104120004883C750D14041E060C410E0B12CA12CBD
:10413000D101DC90D110DAC080911406882309F4F3
:1041400059C0B3E0CB1609F487C0BC1550F0E2E0CB
:10415000CE16E9F08BE09CE00E94940F8EC011E037
:10416000E7CFF6E0FC15B0F34DE050E023E0E216B7
:10417000F10408F0AFC067ED7BE0CE0181529F4FA4
:104180000E94E23445E150E060EE7BE072C04DE019
:1041900050E06DEA7BE0CE0181529F4F0E94E234F5
:1041A00045E150E064EB7BE0CE0101960E94E234F1
:1041B0004DE050E0BE0161527F4F85E196E00E94E4
:1041C000E23445E150E0BE016F5F7F4F82E296E04E
:1041D0000E94E234BE0168507F4FCE0184519F4F50
:1041E0000E94640F612FCE0184519F4F0E941B11CA
:1041F00010921406BE0160597F4FCE0101960E94B5
:10420000C70EBE0168507F4FCE0181529F4F0E9462
:10421000640F82E390E08A199B098F3F910519F0A2
:1042200010F08FEF90E0E12E082F27EB3EE0A10188
:10423000BE016F5F7F4FCE0181529F4F0E94721B64
:10424000112309F485CBE091BA0EF0E0E75DF04F61
:104250008091B70E80837CCB4DE050E063EC7BE037
:10426000CE0181529F4F0E94E23445E150E069EC5B
:104270007BE0CE0101960E94E2348091BA0E90E07C
:104280004AE0BE016C5F7E4F01960E945C3065E1A2
:1042900070E0CE0101960E94513024E1E22EF12C13
:1042A000A701481B590BBE016C5F7E4FCE010196E2
:1042B0000E94D23465E170E0CE0101960E94513037
:1042C000A701481B590B6CEC79E0CE0101960E94C6
:1042D000D2346ECF61EF7BE0CE0181529F4F0E94BE
:1042E000E23445E150E06AEF7BE0C3CF21E0209368
:1042F00014066091B70E2091BA0E629F302D1124E2
:1043000053E0E516F10480F4222309F43BC3833023
:10431000910531F0032F061B532F8630910579F458
:104320000A2D562F5A0D0BC0562F530F032F8330D3
:10433000910519F08630910511F42111F1CF30E08B
:104340002F5F3F4F7091B90E7217130671F06CF02A
:10435000FC013397329708F4E6C08630910509F4E2
:10436000E2C061E08130910509F060E0E091B80EB3
:10437000E217130649F044F02D2D8230910529F003
:1043800021E08530910509F020E0611103C022236E
:1043900009F4EFC0E02EF12C63E0069F80011124A8
:1043A000852F90E0C35FDE4F99838883CD50D14045
:1043B000F801EF5DF14F442309F4B7C00F5D114FD1
:1043C0006701C35FDE4F48805980CD50D1404E1801
:1043D0005F08052C000C66087708C35FDE4FA881D4
:1043E000B981CD50D140CA16DB0608F0B8C0B6017D
:1043F0006E197F0990E080E00E9491304B015C01D2
:10440000C301B2010E9493309B01AC01C501B4010C
:104410000E94A6314B015C01C95FDE4FE881F98142
:10442000C750D140F381C55FDE4FF883CB50D140F8
:10443000D10113966C916F1B770B072E000C880B24
:10444000990B0E949330A50194010E94CE300E94E6
:104450001832C55FDE4FB881CB50D140B60FC55F73
:10446000DE4FB883CB50D140C95FDE4FE881F98180
:10447000C750D140F281C75FDE4FF883C950D140A9
:10448000D10112966C916F1B770B072E000C880BD5
:10449000990B0E949330A50194010E94CE300E9496
:1044A0001832C75FDE4FB881C950D140B60FC75F21
:1044B000DE4FB883C950D140C95FDE4FE881F98132
:1044C000C750D140F181C15FDE4FF883CF50D1405A
:1044D000D10111966C916F1B770B072E000C880B86
:1044E000990B0E949330A50194010E94CE300E9446
:1044F0001832C15FDE4FB881CF50D1406B0FF80149
:104500006083C75FDE4F2881C950D1402183C55FDA
:10451000DE4F3881CB50D14032834FEFC41AD40ADA
:104520000D5F1F4F5ACF6D2D21CFC35FDE4F6881C6
:104530007981CD50D140E616F70688F4D101139663
:104540008C91139712969C91129711962C9120831F
:1045500091838283BFEFEB1AFB0A3396E6CF8091FB
:10456000FA100E942A048091BA0E8F5F8093BA0ECF
:10457000EFC92091EA0E2111BCC18330910519F0D9
:10458000069709F07E2F09EE1EE030E020E0E72FCD
:10459000F0E0CF5EDE4FF983E883C151D140CF5EBA
:1045A000DE4F48815981C151D1402417350708F0A9
:1045B0008EC18091B70E829FB02C1124B9016F5F1C
:1045C0007F4FC55FDE4F79836883CB50D140869F94
:1045D000C02C112473E0E716F10448F521153105CC
:1045E00031F1AD2CCB2CC55FDE4FB880CB50D14024
:1045F000BA94BA94B89EB02C11248091EB0E90918D
:10460000EC0E83309105E1F0A0F481309105A1F129
:10461000029709F420C18DE39CE01AC10C5F1F4F83
:10462000C55FDE4F28813981CB50D140B8CFA12C56
:10463000E4CF8530910509F40EC1F0F0069759F7E3
:10464000180164E0260E311CAA2031F0C95FDE4F4C
:1046500019830883C750D140E9E2FFE050E040E011
:1046600090E080E02417350709F402C16191860FBC
:10467000911D4F5F5F4FF6CFC55FDE4FE881F98137
:10468000CB50D140E751F14F87AD882309F4DEC00C
:10469000A4E08A9FC00111249C012751314F1901C8
:1046A000AA2009F4F2C086AD34E0839FC001112432
:1046B000AC014751514FC95FDE4F59834883C75002
:1046C000D1408B2D90E0C35FDE4F99838883CD501E
:1046D000D140A3E0BA9EC0011124FC01EF5DF14F6F
:1046E000C75FDE4FF983E883C950D140C35FDE4F17
:1046F00088809980CD50D1402C2D30E0C15FDE4FB5
:1047000039832883CF50D140C90188199909AC0158
:10471000990F660B770BCD5EDE4F488359836A8312
:104720007B83C351D140C15FDE4F68817981CF5017
:10473000D1408616970608F071CFB401C35FDE4FF3
:1047400088819981CD50D140681B790B90E080E041
:104750000E9491302B013C01CD5EDE4F6881798152
:104760008A819B81C351D1400E9493309B01AC014F
:10477000C301B2010E94A6312B013C01C95FDE4F8B
:10478000A881B981C750D1401396CC90F1016381C3
:104790006C19770B072E000C880B990B0E94933035
:1047A000A30192010E94CE300E941832C60EC95F4A
:1047B000DE4FA881B981C750D1401296BC90F1015B
:1047C00062816B19770B072E000C880B990B0E94E6
:1047D0009330A30192010E94CE300E941832B60E8F
:1047E000C95FDE4FA881B981C750D1401196AC9006
:1047F000F10161816A19770B072E000C880B990B68
:104800000E949330A30192010E94CE300E94183280
:10481000A60EC75FDE4FA881B981C950D140AC92C6
:104820001196BC9211971296CC92BFEF8B1A9B0AED
:10483000C75FDE4FE881F981C950D1403396C75F29
:10484000DE4FF983E883C950D1406DCF86E29CE00A
:104850000E94940F18C0180154E0250E311CAA20A4
:10486000A1F0C95FDE4F19830883C750D14029CF1B
:10487000B82EC55FDE4FE881F981CB50D140E751BA
:10488000F14FC7ACC80EA1101CCFF3E0EF16F10436
:1048900008F4C4CE8B2D90E023E0B29EF0011124E9
:1048A000EF5DF14F4C2D50E08417950708F0B6CE20
:1048B000D10113962C91139712963C911297119651
:1048C0006C9160833183228301963396EDCF809182
:1048D000FA100E942A04BE0168507F4FCE01019653
:1048E0000E94640FCE0101960E94691081E08093BE
:1048F000EA0EBE0160597F4FCE0101960E94C70E9D
:10490000CE0101960E94150B8F3F49F5E0918F046F
:10491000EF3F29F1F0E0E45DF74F9081911117C06E
:1049200091E09093E90E40911D0E50911E0E609102
:104930001F0E7091200E4F5F5F4F6F4F7F4F409360
:104940001D0E50931E0E60931F0E7093200E8093C9
:104950008F041092BC0E1092BB0E0C94A81C809376
:104960008F040C94A81C8BE49CE00C94841C809114
:10497000BA0E54E0859FC0011124BC016351714FF0
:104980001B0111C000E051E08330910509F0D2CC49
:10499000D6CC8330910571F040F4019740F785E95A
:1049A0009BE00E94940F40E020C086309105F8F211
:1049B0000697A9F720E040E08091BA0E34E0839F8B
:1049C000C0011124BC016351714F1B01442369F0E4
:1049D00074E0279F90011124C9018351914FC95F51
:1049E000DE4F99838883C750D1408091EB0E909120
:1049F000EC0E8330910549F08630910509F095CB96
:104A00002091BA0E222309F490CB6091BA0E70E087
:104A1000E9E2FFE030E020E0B12CA12C26173707B7
:104A200008F09DCB5191A50EB11C2F5F3F4FF6CFE3
:104A3000EF92FF921F93CF93DF93CDB7DEB7CB57A3
:104A4000D1090FB6F894DEBF0FBECDBF423030F0B3
:104A5000142F7C01473078F0473079F1C558DF4F8B
:104A60000FB6F894DEBF0FBECDBFDF91CF911F917F
:104A7000FF90EF90089583E090E0443031F081E0C2
:104A800090E0463011F082E090E09093EC0E80933D
:104A9000EB0ECE0101960E94C70EB701CE018059E0
:104AA0009F4F0E94640F412FBE016F5F7F4FCE0169
:104AB00080599F4F0E940C1CD1CFCE0101960E94BD
:104AC000C70EB701CE0180599F4F0E94640FC6CF19
:104AD000EF92FF921F93CF93DF93CDB7DEB7CB5703
:104AE000D1090FB6F894DEBF0FBECDBF2FEF240F54
:104AF000243020F526E030E0423031F024E030E090
:104B0000443011F025E030E03093EC0E2093EB0EB2
:104B1000142F7C01CE0101960E94C70EB701CE0171
:104B200080599F4F0E94640F42E0410FBE016F5FAA
:104B30007F4FCE0180599F4F0E940C1CC558DF4FFC
:104B40000FB6F894DEBF0FBECDBFDF91CF911F919E
:104B5000FF90EF900895AF92BF92CF92DF92EF92C5
:104B6000FF920F931F93CF93DF93CDB7DEB7C65F4E
:104B7000D1090FB6F894DEBF0FBECDBF90911D0DC9
:104B8000992309F475C42091EB022F3F41F0692F5E
:104B90002A3031F061E08091EE02821708F060E087
:104BA000809119028F3F41F0592F8A3031F051E046
:104BB00030911C02381708F050E08091C0038F3FFD
:104BC00041F0492F8A3031F041E03091C30338176A
:104BD00008F040E080913A068F3F41F0392F8A304B
:104BE00031F031E070913D06781708F030E07091B7
:104BF0001F0D795081E0763F08F080E0E0911E0DB6
:104C0000E85071E0E73F08F070E0782B80910C07E6
:104C10008F3F39F08A3031F091E0E0910F07E817CB
:104C200008F090E0235081E0243008F080E0872BEA
:104C3000862B852B842B832B09F491110E948B0EDC
:104C40008091EB028F3F09F085C06FE171E1CE01E9
:104C500080599F4F0E94C70E63E171E1CE018551DB
:104C60009F4F0E94640F8091E802882309F447C097
:104C70004DE050E063E87CE08FEE92E00E94E23489
:104C800043E150E06EE87CE08CEF92E00E94E23479
:104C900043E150E061E079E08FE093E00E94E2348C
:104CA00043E150E065E97CE082E293E00E94E23477
:104CB00043E150E06AE97CE085E393E00E94E2345E
:104CC00043E150E060EA7CE088E493E00E94E23453
:104CD00043E150E069EA7CE08BE593E00E94E23436
:104CE000BE0165517F4FCE0101960E94640F68EEB0
:104CF00072E0CE0101960E94D0131092E802BE012C
:104D000060597F4FCE0101960E94C70EBE016551CA
:104D10007F4FCE0181529F4F0E94640F48EE52E0B8
:104D2000BE016F5F7F4FCE0181529F4F0E9468137B
:104D3000CA50DF4F0FB6F894DEBF0FBECDBFDF9174
:104D4000CF911F910F91FF90EF90DF90CF90BF9088
:104D5000AF9008958130E1F0823051F780910C07D7
:104D60008F3F31F76FE171E1CE0101960E94C70ECE
:104D700063E171E1CE0180599F4F0E94640FBE0133
:104D80006F5F7F4FCE0180599F4F0E94F213D0CFAB
:104D9000809119028F3F09F04BC06FE171E1CE01A4
:104DA00080599F4F0E94C70E63E171E1CE0185518A
:104DB0009F4F0E94640F80911602882339F14DE0C5
:104DC00050E060EB7CE08DE192E00E94E23443E150
:104DD00050E068EB7CE08AE292E00E94E23443E13A
:104DE00050E06FEB7CE08DE392E00E94E234BE0184
:104DF00065517F4FCE0101960E94640F66E172E01B
:104E0000CE0101960E94D01310921602BE01605985
:104E10007F4FCE0101960E94C70EBE0165517F4FA4
:104E2000CE0181529F4F0E94640F46E152E078CF3D
:104E3000813009F4A6C0823009F07ACF80911F0D2D
:104E4000893008F4BEC18A3009F472CF82E1EEEFF6
:104E5000F7E0DE01119601900D928A95E1F783E16A
:104E600091E10E94601040E060E083E191E10E94E6
:104E7000231065E072E083E191E10E94051040E0BB
:104E80006CE083E191E10E9423106CEF71E083E11B
:104E900091E10E94051042E062E183E191E10E940C
:104EA000231069EF71E083E191E10E94051043E076
:104EB00062E183E191E10E94231066EF71E083E1FA
:104EC00091E10E940510CE0101967C0111E0412F75
:104ED00060E083E191E10E942310612FCE018059AF
:104EE0009F4F0E940E12BE0160597F4F83E191E1F6
:104EF0000E946C05CE0180599F4F0E94AC10412F3B
:104F000061E083E191E10E94231064EF71E083E1AD
:104F100091E10E940510412F62E083E191E10E943E
:104F20002310F701619171917F01CE0180599F4F4C
:104F30000E94DC10BE0160597F4F83E191E10E9425
:104F40006C05CE0180599F4F0E94AC101F5F14303A
:104F500009F0BDCF10E06AE070E080E090E00E94D0
:104F6000EC038FE191E10E943D098823D1F39FEC8E
:104F7000980F983008F07FC090ED980F90931F0D18
:104F80005DCF1091C0031F3FB1F46FE171E1CE011D
:104F900001960E94C70E63E171E1CE0180599F4FD7
:104FA0000E94640FBE016F5F7F4FCE0180599F4FFB
:104FB0000E94CC14BDCE1830E1F510913A061F3F87
:104FC000B1F46FE171E1CE0101960E94C70E63E179
:104FD00071E1CE0180599F4F0E94640FBE016F5F47
:104FE0007F4FCE0180599F4F0E945F14A1CE1A308F
:104FF00009F49ECE8091E90E882321F08AE0809307
:105000003A0696CE6FE171E1CE0101960E94C70E7D
:1050100063E171E1CE0180599F4F0E94640F412FDF
:10502000BE016F5F7F4FCE0180599F4F0E94682560
:105030007FCE1A3009F47CCE8091E90E882321F0CE
:105040008AE08093C00374CE6FE171E1CE010196D6
:105050000E94C70E63E171E1CE0180599F4F0E940B
:10506000640F412FBE016F5F7F4FCE0180599F4F6C
:105070000E9418255DCE9A3009F480CF993009F04E
:1050800083C01111115083E191E10E94601040E052
:1050900060E083E191E10E94231068EE71E083E11A
:1050A00091E10E94051040E06CE083E191E10E94F3
:1050B00023106FED71E083E191E10E94051042E061
:1050C00062E183E191E10E9423106CED71E083E1E4
:1050D00091E10E94051043E062E183E191E10E94C9
:1050E000231069ED71E083E191E10E940510A12E8A
:1050F000B12C7501EE0CFF1C81E090E08C0F9D1F20
:10510000E80EF91ECC24C394D12C01E0402F60E0BE
:1051100083E191E10E9423100330F1F51630E1F5AF
:1051200067ED71E083E191E10E940510402F61E09D
:1051300083E191E10E94231065ED71E083E191E14B
:105140000E940510402F62E083E191E10E9423104C
:10515000F701619171917F01CE0180599F4F0E94AB
:10516000DC10BE0160597F4F83E191E10E946C0524
:10517000CE0180599F4F0E94AC100F5FFFEFCF1AF6
:10518000DF0A043019F6E7CE9B3009F07CCF1630E9
:1051900008F079CF1F5F77CFB5016C0D7D1DCE0173
:1051A00080599F4F0E946215BE0160597F4F83E175
:1051B00091E10E946C05CE0180599F4F0E94AC1076
:1051C000B5CF813009F4B4CD8D7F883009F4B0CDEE
:1051D00080911E0D883008F442C18A3009F4A8CDB0
:1051E00080E1E0E1F8E0DE01119601900D928A95F0
:1051F000E1F783E191E10E94601040E060E083E12B
:1052000091E10E9423106FE372E083E191E10E943B
:10521000051040E06CE083E191E10E94231066E319
:1052200072E083E191E10E94051042E062E183E1D6
:1052300091E10E94231063E372E083E191E10E9417
:10524000051043E062E183E191E10E94231060E3F5
:1052500072E083E191E10E940510CE0101967C018C
:1052600011E0412F60E083E191E10E942310612F62
:10527000CE0180599F4F0E940E12BE0160597F4F90
:1052800083E191E10E946C05CE0180599F4F0E94FD
:10529000AC10412F61E083E191E10E9423106EE2A6
:1052A00072E083E191E10E940510412F62E083E109
:1052B00091E10E942310F701619171917F01CE016C
:1052C00080599F4F0E94DC10BE0160597F4F83E1DF
:1052D00091E10E946C05CE0180599F4F0E94AC1055
:1052E0001F5F143009F0BDCF10E06AE070E080E08D
:1052F00090E00E94EC038FE191E10E943D09882338
:10530000D1F39FEC980F973028F490ED980F90937D
:105310001E0D5ECF9A30D9F3993009F083C0111178
:10532000115083E191E10E94601040E060E083E170
:1053300091E10E94231064E272E083E191E10E9416
:10534000051040E06CE083E191E10E9423106BE1E5
:1053500072E083E191E10E94051042E062E183E1A5
:1053600091E10E94231068E172E083E191E10E94E3
:10537000051043E062E183E191E10E94231065E1C1
:1053800072E083E191E10E940510A12EB12C75011C
:10539000EE0CFF1C81E090E08C0F9D1FE80EF91EC3
:1053A000CC24C394D12C01E0402F60E083E191E153
:1053B0000E9423100330F1F51530E1F563E172E04E
:1053C00083E191E10E940510402F61E083E191E1CA
:1053D0000E94231061E172E083E191E10E940510D7
:1053E000402F62E083E191E10E942310F701619177
:1053F00071917F01CE0180599F4F0E94DC10BE0148
:1054000060597F4F83E191E10E946C05CE01805984
:105410009F4F0E94AC100F5FFFEFCF1ADF0A0430DE
:1054200019F663CF9B3009F07CCF153008F079CFA7
:105430001F5F77CFB5016C0D7D1DCE0180599F4F49
:105440000E946215BE0160597F4F83E191E10E9485
:105450006C05CE0180599F4F0E94AC10B5CF8730AC
:1054600009F066CC80913A068F3F09F061CCA9CD56
:1054700010911C0D112309F431C18091150288236C
:1054800091F084E190E0A0E0B0E080930D02909371
:105490000E02A0930F02B09310028CE092E00E94E3
:1054A000BA0E109215020E941E04AB01BC0180913D
:1054B000110290911202A0911302B0911402009176
:1054C0000D0210910E0220910F0230911002800FF8
:1054D000911FA21FB31F21E0481759076A077B07D6
:1054E00008F420E020930C02481759076A077B074D
:1054F00008F41ECC80910A02882309F446C08CE28D
:1055000091E0A0E0B0E08093020290930302A093A8
:105510000402B093050281E092E00E94BA0E83E19A
:1055200091E10E94601040E060E083E191E10E941F
:10553000231067E772E083E191E10E94051041E0EA
:1055400062E083E191E10E94231067E672E083E16B
:1055500091E10E94051042E067E083E191E10E9441
:10556000231060E672E083E191E10E94051043E0C0
:1055700060E083E191E10E9423106BE472E083E13B
:1055800091E10E94051010920A0280911B0D863055
:1055900008F461C0FF24FA94F09200021091140DF7
:1055A00080911B0D181708F094C00E941E04AB01D7
:1055B000BC018091060290910702A0910802B0916F
:1055C0000902C0900202D0900302E0900402F09021
:1055D00005028C0D9D1DAE1DBF1D21E0481759070A
:1055E0006A077B0708F420E0209301028091010202
:1055F0008823A9F067E0610F42E083E191E10E9416
:10560000231069E472E083E191E10E94051081E0DA
:1056100092E00E94BA0E81E0810F8093140D809178
:10562000140D863008F484CB11E010930A02109216
:105630001B0D1092140D66E085E19DE00E94D90AD1
:105640006B3E74418840910509F072CB10931D0D9B
:105650000E948B0E6DCB6FE171E1CE0101960E942D
:10566000C70ECE0101960E94150BF82E2FEF821364
:1056700093CF0091000260911B0D0F3F09F48ACF78
:1056800010E0E62FF0E0EB5EF24FD801A45DB74FDB
:105690008C918083695F42E083E191E10E94231055
:1056A000F801E05EF74F6081CE0101960E948E15F1
:1056B000BE016F5F7F4F83E191E10E946C05CE01D7
:1056C00001960E94AC1080911B0D8F5F80931B0D83
:1056D00063CF81E092E00E94BA0E88CF6FE171E162
:1056E000CE0101960E94C70ECE0101960E94150BB5
:1056F00090910B028F3F21F411E09F3F09F410E0DD
:1057000010931C0D80930B0213CB85ED8093BC008E
:1057100080917B0D90917C0DA0917D0DB0917E0DBF
:105720000796A11DB11D23E0B695A795979587957E
:105730002A95D1F72091BC0024FD03C01092C40D1E
:10574000089540917B0D50917C0D60917D0D70917D
:105750007E0D452B462B472B69F30097A105B1051C
:1057600041F02AE22A95F1F700C00197A109B10999
:10577000E1CF80917A0D0C9412071F920F920FB611
:105780000F9211242F933F938F939F93AF93BF93C7
:105790008091150E9091160EA091170EB091180ED3
:1057A0003091140E23E0230F2D3758F50196A11DDB
:1057B000B11D2093140E8093150E9093160EA09396
:1057C000170EB093180E8091190E90911A0EA09199
:1057D0001B0EB0911C0E0196A11DB11D8093190ED8
:1057E00090931A0EA0931B0EB0931C0EBF91AF9115
:1057F0009F918F913F912F910F900FBE0F901F900F
:10580000189526E8230F0296A11DB11DD2CF1F9235
:105810000F920FB60F9211240BB60F922F933F9356
:105820004F935F936F937F938F939F93AF93BF93A8
:10583000EF93FF938DE590E10E94BA05FF91EF9100
:10584000BF91AF919F918F917F916F915F914F9198
:105850003F912F910F900BBE0F900FBE0F901F9096
:1058600018951F920F920FB60F9211240BB60F923C
:105870002F938F939F93EF93FF93E0916D10F0918F
:105880006E108081E0917310F091741082FD1DC044
:105890009081809176108F5F8F732091771082179F
:1058A00041F0E0917610F0E0E35AFF4E958F80933F
:1058B0007610FF91EF919F918F912F910F900BBEDA
:1058C0000F900FBE0F901F9018958081F2CF1F92FE
:1058D0000F920FB60F9211240BB60F922F933F9396
:1058E0004F935F936F937F938F939F93AF93BF93E8
:1058F000EF93FF938091B900887F803609F44DC003
:1059000008F040C0883209F4A9C028F5803109F4B4
:105910009DC0C8F4882309F4FBC0883009F496C000
:10592000FF91EF91BF91AF919F918F917F916F9177
:105930005F914F913F912F910F900BBE0F900FBE33
:105940000F901F901895883109F488C0803241F774
:105950008093C30D14C0803409F49DC040F480339B
:10596000B9F38833E9F68093C30D85ECB0C0803578
:1059700009F485C0883509F496C0883489F60E94F8
:10598000852BCECF883909F48CC038F5883729F0BB
:1059900050F4883611F0803719F683E08093C40DF7
:1059A0001092C20D57C0883809F47BC0803919F0B5
:1059B000803809F0B5CF8091C20D803208F071C0F7
:1059C000E091C20D81E08E0F8093C20D8091BB00EB
:1059D000F0E0EE55F24F80833DC0803B39F0E0F4BB
:1059E000803A09F479C0883A09F09ACF84E080932C
:1059F000C40D1092A10D1092A00DE0910E0EF09129
:105A00000F0E19958091A00D81110FC081E0809338
:105A1000A00D1092800D09C0803C09F4A6CF883CEF
:105A200009F4A3CF883B09F07BCFE091A10D81E081
:105A30008E0F8093A10DF0E0E058F24F80818093AB
:105A4000BB009091A10D8091A00D29C08091E90D1E
:105A50008093BB0085EC8093BC0062CF9091E80DF1
:105A60008091E70D981758F5E091E80D81E08E0FD1
:105A70008093E80DF0E0E953F24F8081E9CFE091A7
:105A8000E80D81E08E0F8093E80D8091BB00F0E07F
:105A9000E953F24F80839091E80D8091E70D9817BC
:105AA000C8F285E8D8CFE091E80D81E08E0F8093B1
:105AB000E80D8091BB00F0E0E953F24F80838091C4
:105AC000C60D81115CCF81E08093C50D84EA80937F
:105AD000BC001092C40D24CF85EC8093BC001092C2
