:020000040000FA
:100000000C9479040C94AA040C94AA040C94AA04E9
:100010000C94AA040C94AA040C94AA040C94AA04A8
:100020000C94AA040C94AA040C94AA040C94AA0498
:100030000C94AA040C94AA040C94AA040C94AA0488
:100040000C94AA040C94AA040C94AA040C94AA0478
:100050000C94AA040C94AA040C94AA040C944A4587
:100060000C94AA040C94BE450C9494450C94AA04D8
:100070000C94AA040C94AA040C94AA040C94AA0448
:100080000C94AA040C94AA040C94AA040C94AA0438
:100090000C94AA040C94AA040C94AA040C94F4459D
:1000A0000C94AA040C94AA040C94AA040C94AA0418
:1000B0000C94AA040C94AA040C94AA040C94AA0408
:1000C0000C94AA040C94AA040C94AA040C94AA04F8
:1000D0000C94AA040C94AA040C94AA040C94AA04E8
:1000E0000C94AA040C9462070C94B9070C945D0755
:1000F0000C942C050C9440050C945D0B0C94EB10A7
:100100000C94FA3B0C94C6110C943A050C943205ED
:100110000C94D9390C94ED080C9480090C940D05BD
:100120000C944D050C94A90D0C94A5070C9417057F
:100130000C9466090C9456090C9448050C94E7102D
:100140000C94123B0C94550B0C9405100C94520516
:100150000C9444050C945F070C9457090C944E05BD
:100160000C9422050C9403100C94AD090C94C51149
:100170000C94590B0C948C390C941B050C94280589
:100180000C9436050C94DF120C9413050C943D3935
:100190000C945E070C946B100C941F050C94E110EA
:1001A0000C9479090C94393C0C94943C0C941847A9
:1001B0000C9496070C944C080C94FF070C948D3CFF
:1001C0000C9434120C94C7070C94E41048483A4D30
:1001D0004D20414D002D0030002376002A5E00485E
:1001E000483A4D4D20414D00414E494D4154494FF3
:1001F0004E533A002D002376002A5E0048483A4DBF
:100200004D20414D00414E494D4154494F4E533AC6
:10021000002D0030002376002A5E0048483A4D4DFC
:1002200020414D0053544152542050543A002D0067
:100230002376002A5E0048483A4D4D20414D005338
:10024000544152542050543A002A002A2A2A2A2A79
:100250002A2A2A2A2A2A2A2A2A2A2A2A2A2A2A0028
:100260005F5F5F5F5F5F00456E7465722050617312
:1002700073776F72643A002A2A2A2A2A2A2A2A2A9B
:100280002A2A2A2A2A2A2A2A2A2A2A002376002ADD
:100290005E002D0030002D005F005F005F5F5F009B
:1002A000746F207069636B206D6F726520636F6C73
:1002B0006F72732E00507265737320616E79206FB8
:1002C00074686572206B65790050726573732027BE
:1002D000302720696620646F6E652E002020202064
:1002E0002020636F6E74696E756500202050726502
:1002F000737320616E79206B657920746F004D4FA8
:100300004E4441592B2B20536D61727421204C4572
:100310004473002A2A2A2A2A2A2A2A2A2A2A2A2A04
:100320002A2A2A2A2A2A2A0000002100240027003B
:100330002A002D00300033000101000004010701F4
:100340000A0100002200250028002B002E003100A9
:10035000340002010000050108010B01000020002B
:100360002300260029002C002F003200000100008D
:100370000301060109010505050507050808080828
:10038000020202020A0A080804040404010101012D
:100390000101010103030303030303030407070728
:1003A0000C0C0C0C0C0C0C0C0202020206060606CD
:1003B000060606060B0B0B0B0B0B0B0B010210209A
:1003C000200808102040102040800201020108048B
:1003D000020101020408102040808040201008041F
:1003E0000201800402018040201008040201080478
:1003F00002010102040810204080010204081020BC
:10040000408000000A0B02090C0D0E0807030401CE
:1004100000000000000000000000000000000000DC
:1004200000000000000000000000000000001211A9
:1004300010000000000000000000000000000000AC
:100440000000000000000000746F207069636B20E2
:100450006D6F726520636F6C6F72732E00507265E2
:10046000737320616E79206F74686572206B657993
:100470000050726573732027302720696620646FEF
:100480006E652E00523A205F5F5F20473A205F5F23
:100490005F20423A205F5F5F002843686F6F73659B
:1004A0002050617420436F6C6F72290048483A4DA8
:1004B0004D20414D005041545445524E3A00484859
:1004C0003A4D4D20414D00504154204F5244455229
:1004D0003A00464F523A20412042204320442045D2
:1004E00020460053454C4543543A203020312032B9
:1004F000203320342035002853656C656374204810
:100500006578204E756D626572290048483A4D4DF8
:1005100020414D00504154204F524445523A005F13
:10052000205F205F205F205F205F205F205F205FD3
:10053000205F005F205F205F205F205F205F205FE3
:10054000205F205F205F005F205F205F205F205FD3
:10055000205F205F205F205F205F00507265737313
:100560002023207768656E20646F6E6521004848FF
:100570003A4D4D20414D00504154204F5244455278
:100580003A005F5F00205041545445524E53212998
:1005900000284D4158200048483A4D4D20414D001B
:1005A0004E4F2E20504154533A005F5F5F00204C65
:1005B000454473212900284D4158200048483A4DB0
:1005C0004D20414D004E4F2E204C4544733A005F64
:1005D0005F0020434845434B505453212900284D88
:1005E0004158200048483A4D4D20414D004E4F2E75
:1005F00020434845434B3A00322D4279204E756DD9
:10060000626572204C45447300312D4279204E754D
:100610006D6265722053656374696F6E730048483C
:100620003A4D4D20414D004D4554484F443A0074D9
:100630006F207069636B206D6F726520636F6C6FE4
:1006400072732E00507265737320616E79206F741F
:10065000686572206B65790050726573732027306E
:100660002720696620646F6E652E00523A205F5F16
:100670005F20473A205F5F5F20423A205F5F5F0064
:10068000285069636B20436865636B707420436F07
:100690006C6F72290048483A4D4D20414D0045513C
:1006A00055414C3A005F5F5F00204C45447321295F
:1006B00000284D4158200048483A4D4D20414D00FA
:1006C0004E4F2E204C4544733A005F5F0020434854
:1006D00045434B505453212900284D415820004890
:1006E000483A4D4D20414D004E4F2E204348454342
:1006F0004B3A00322D4279204E756D626572204C66
:1007000045447300312D4279204E756D626572202B
:10071000436865636B7074730048483A4D4D2041DF
:100720004D004D4554484F443A00746F2070696342
:100730006B206D6F726520636F6C6F72732E00504B
:100740007265737320616E79206F74686572206BB7
:100750006579005072657373202730272069662001
:10076000646F6E652E004E756D626572206F662037
:100770004C4544733A205F5F5F00523A205F5F5FF1
:1007800020473A205F5F5F20423A205F5F5F00288A
:100790005069636B20436865636B707420436F6CB2
:1007A0006F72290048483A4D4D20414D00554E4545
:1007B0005155414C3A00523A205F5F5F20473A2042
:1007C0005F5F5F20423A205F5F5F00285069636B84
:1007D00020436865636B707420436F6C6F722900EF
:1007E00048483A4D4D20414D00554E455155414CDC
:1007F0003A00746F207069636B206D6F72652063BF
:100800006F6C6F72732E00507265737320616E7916
:10081000206F74686572206B657900507265737320
:100820002027302720696620646F6E652E00523ABB
:10083000205F5F5F20473A205F5F5F20423A205F82
:100840005F5F002843686F6F736520326E642043DA
:100850006F6C6F72290048483A4D4D20414D004859
:10086000202620483A00523A205F5F5F20473A2016
:100870005F5F5F20423A205F5F5F002843686F6FD1
:1008800073652031737420436F6C6F722900484880
:100890003A4D4D20414D0048202620483A005072E4
:1008A0006573732023207768656E20646F6E652101
:1008B00000523A205F5F5F20473A205F5F5F20422F
:1008C0003A205F5F5F004E756D626572206F662033
:1008D0004C4544733A205F5F5F00523A205F5F5F90
:1008E00020473A205F5F5F20423A205F5F5F000051
:1008F000184711241FBECFEFD1E2DEBFCDBF00E00D
:100900000CBF21E1A8EDBCE001C01D92AA35B207E1
:10091000E1F71CE0A0E0B2E0EAE8FEE900E00BBF8E
:1009200002C007900D92A83DB107D9F714E0C9E7BE
:10093000D4E000E006C021970109802FFE010E944B
:10094000DF4CC837D10780E00807A9F70E94EA47C3
:100950000C94434F0C9400001092B10E1092B20E02
:100960008091B30E9091B40E82309105C9F083301E
:10097000910511F1019791F5E1EBFEE014821582EA
:100980001682178234968EE0ED3EF807B9F7E1EF54
:10099000FEE08FE09FE011928E179F07E1F7089528
:1009A000E1EBFEE0148215821682178234968FE006
:1009B000E932F807B9F70895E1EBFEE014821582F9
:1009C0001682178234968EE0ED3EF807B9F7E1EF14
:1009D000FEE011928FE0E030F807D9F708958150DA
:1009E000823108F05AC0E82FF0E08827E550FB4F2D
:1009F0008F4F0C94DF4C1B051F050D0513051705C4
:100A00004D05220528052C05320536053A05400519
:100A100044054D0548054E055205809180008F77AD
:100A2000809380000895809180008F7DF9CF809120
:100A30008000877FF5CF84B58F7784BD089584B516
:100A40008F7DFBCF8091B0008F778093B0000895A9
:100A50008091B0008F7DF9CF809190008F77809347
:100A600090000895809190008F7DF9CF8091900043
:100A7000877FF5CF8091A0008F778093A0000895A5
:100A80008091A0008F7DF9CF8091A000877FF5CF66
:100A9000809120018F77809320010895809120011B
:100AA0008F7DF9CF80912001877FF5CFCF93DF93A2
:100AB000282F30E0F901EE5FFB4F8491F901E454F7
:100AC000FC4FD491F901EA58FC4FC491CC23A1F01A
:100AD00081110E94EF04EC2FF0E0EE0FFF1FE45AAB
:100AE000FC4FA591B491EC91ED2381E090E009F4E5
:100AF00080E0DF91CF91089580E090E0FACF1F93DE
:100B0000CF93DF93282F30E0F901EE5FFB4F849104
:100B1000F901E454FC4FD491F901EA58FC4FC49117
:100B2000CC23A9F0162F81110E94EF04EC2FF0E0E6
:100B3000EE0FFF1FEE5BFC4FA591B4918FB7F894B9
:100B4000EC91111108C0D095DE23DC938FBFDF91AB
:100B5000CF911F910895DE2BF8CFCF93DF9390E0D4
:100B6000FC01E454FC4F24918A589C4FFC01849171
:100B70008823C9F090E0880F991FFC01E85DFC4FC5
:100B8000A591B491FC01EE5BFC4FC591D49161112C
:100B90000DC09FB7F8948C91209582238C93888107
:100BA000282328839FBFDF91CF910895623051F4AD
:100BB0009FB7F8943C91822F809583238C93E88192
:100BC0002E2BEFCF8FB7F894EC912E2B2C938FBF59
:100BD000EACF3FB7F8948091CD0D9091CE0DA091C2
:100BE000CF0DB091D00D26B5A89B05C02F3F19F0B1
:100BF0000196A11DB11D3FBFBA2FA92F982F88279D
:100C0000BC01CD01620F711D811D911D42E0660F77
:100C1000771F881F991F4A95D1F708958F929F9249
:100C2000AF92BF92CF92DF92EF92FF924B015C01A5
:100C30000E94E9056B017C010E94E9056C197D09A0
:100C40008E099F09683E734081059105A8F321E054
:100C5000821A9108A108B10888EEC80E83E0D81E58
:100C6000E11CF11C81149104A104B10429F7FF9047
:100C7000EF90DF90CF90BF90AF909F908F900895AE
:100C80002FB7F8946091C90D7091CA0D8091CB0D6A
:100C90009091CC0D2FBF0895AF92BF92CF92DF926B
:100CA000EF92FF920F931F93CF93DF93D090C210D8
:100CB0008091C5109091C610A091C710B091C81036
:100CC000892B8A2B8B2BD9F00E94E9050091AD0E60
:100CD0001091AE0E2091AF0E3091B00E601B710BD3
:100CE000820B930B0091C5101091C6102091C71074
:100CF0003091C8106017710782079307C8F20E94ED
:100D0000E9056093AD0E7093AE0E8093AF0E909395
:100D1000B00EE091CD10F091CE10309759F0409187
:100D2000C9105091CA106091CB107091CC108D2DCC
:100D30001995D82EC091AB0ED091AC0E8BE8E82E51
:100D40008EE0F82E8701209749F18EE00B3A1807C4
:100D500029F18D858823F1F0E881F981A284B3849B
:100D60000680F781E02DCE011995BC01CE01F50179
:100D70001995F801918380838091C3109091C410DC
:100D80008436910508F41C860C80DD81C02D0E5F31
:100D90001F4FD9CFF80111821082EECFC091AB0E58
:100DA000D091AC0E00E110E02097A9F08D8588234A
:100DB00061F04E855F856A817B81E881F9810280DF
:100DC000F381E02D2D2DCE0119950C80DD81C02DF4
:100DD0000150110949F7C091AB0ED091AC0E20978C
:100DE000C9F0FBEAEF16FEE0FF06A1F08D8588232F
:100DF00051F0F70160817181E881F9810484F58502
:100E0000E02DCE0119950C80DD81C02DF2E0EF0EB2
:100E1000F11CE5CF8091890E90918A0EEC0121960C
:100E2000D0938A0EC093890E4997E4F10E94400640
:100E30000091850E1091860E2091870E3091880EBC
:100E40006B017C01C01AD10AE20AF30AA7019601DC
:100E5000211531054105510521F421E030E040E044
:100E600050E088EE93E0C89FB001C99F700DD89FF5
:100E7000700D1124072E000C880B990B0E94BD4C9D
:100E80003093C4102093C31010928A0E1092890ED2
:100E90000E9440066093850E7093860E8093870EA5
:100EA0009093880EDF91CF911F910F91FF90EF905B
:100EB000DF90CF90BF90AF9008950895089580E996
:100EC00091E00895AF92BF92CF92DF92EF92FF929E
:100ED0000F931F93CF93DF936C017B018B01040F62
:100EE000151FEB015E01AE18BF08C017D10759F0FE
:100EF0006991D601ED91FC910190F081E02DC60140
:100F00001995892B79F7C501DF91CF911F910F9129
:100F1000FF90EF90DF90CF90BF90AF900895FB01CE
:100F200044815581608171810C946207FC01538D6D
:100F3000448D252F30E0842F90E0821B930B5417B3
:100F400010F0CF96089501970895FC01918D828D40
:100F5000981761F0A28DAE0FBF2FB11D5D968C91D9
:100F6000928D9F5F9F73928F90E008958FEF9FEF18
:100F70000895FC01918D828D981731F0828DE80FD4
:100F8000F11D858D90E008958FEF9FEF0895FC018E
:100F9000918D228D892F90E0805C9F4F821B91095B
:100FA0008F739927089585E290E10E94C70721E099
:100FB000892B09F420E0822F0895FC01A48DA80F4D
:100FC000B92FB11DA35ABF4F2C91848D90E001968B
:100FD0008F739927848FA689B7892C93A089B189AB
:100FE0008C91837080648C93938D848D981306C04C
:100FF0000288F389E02D80818F7D80830895EF92B0
:10100000FF920F931F93CF93DF93EC0181E0888FC2
:101010009B8D8C8D98131AC0E889F989808185FF92
:1010200015C09FB7F894EE89FF896083E889F98934
:1010300080818370806480839FBF81E090E0DF9136
:10104000CF911F910F91FF90EF900895F62E0B8D89
:1010500010E00F5F1F4F0F731127E02E8C8D8E1144
:101060000CC00FB607FCFACFE889F989808185FFAB
:10107000F5CFCE010E94DD07F1CFEB8DEC0FFD2FF8
:10108000F11DE35AFF4FF0829FB7F8940B8FEA8966
:10109000FB8980818062CFCFCF93DF93EC01888D75
:1010A0008823B9F0AA89BB89E889F9898C9185FDE3
:1010B00003C0808186FD0DC00FB607FCF7CF8C9171
:1010C00085FFF2CF808185FFEDCFCE010E94DD0745
:1010D000E9CFDF91CF91089580E090E0892B29F04E
:1010E0000E94D30781110E94000080E090E0892BCC
:1010F00049F080E090E0892B29F00E9400008111E6
:101100000E94000080E090E0892B49F080E090E0B0
:10111000892B29F00E94000081110E94000080E0CC
:1011200090E0892B49F080E090E0892B29F00E9423
:10113000000081110C9400000895AF92BF92CF92ED
:10114000DF92EF92FF920F931F93CF93DF9300D024
:10115000CDB7DEB75A0119821A821B82882361F14A
:101160008B01E1E0F0E0E82EF12CD8012D918D010A
:101170002223F1F06F01B1E0CB1AD108D501AC0DFB
:10118000BD1D4C914423A1F030E02F5F3F4FD701AC
:101190000E94244BA42FB0E011969B01AC010E9449
:1011A000194BA1E0B0E0AC0FBD1FAC0DBD1D8C9381
:1011B0003196E430F105C9F669817A818B810F900F
:1011C0000F900F90DF91CF911F910F91FF90EF90B3
:1011D000DF90CF90BF90AF90089581E090E00895A8
:1011E0002091540D260F3327331F21323105ECF4A3
:1011F0002091780DFC0190E080E0243069F082E0DD
:101200000895A091540D2191AC014C5C524FA40F54
:10121000B52FB11D2C930196861798F38091540D2C
:10122000680F6093540D80E0089581E00895109256
:10123000780D81E080937A0D1092790D61E084E160
:101240000E947F0561E085E10E947F05E9EBF0E007
:1012500080818E7F808380818D7F808388E48093EE
:10126000B80085E48093BC000895CF93DF9391E0AC
:101270009093330D8823B9F0C091B800D091BA0093
:101280008091BC008A7B8093BC0060E084E10E9476
:101290007F0560E085E10E947F050E941709D093D9
:1012A000BA00C093B800DF91CF9108950895E091FE
:1012B000C70D8091C60DE81730F4F0E0E25FF24F01
:1012C000808190E008958FEF9FEF08959091C70D72
:1012D0008091C60D2FEF3FEF981748F4E92FF0E00B
:1012E000E25FF24F208130E09F5F9093C70DC9010C
:1012F00008958091C60D9091C70D891B990B089593
:10130000CF92DF92EF92FF920F931F93CF93DF93D1
:101310007C01CB018A0120910D0D222389F0EB0184
:101320006B01C40ED51ECC15DD0569F06991D7019E
:10133000ED91FC910190F081E02DC7011995F3CF5B
:10134000642F0E94F008C801DF91CF911F910F9187
:10135000FF90EF90DF90CF900895CF93DF931F928F
:10136000CDB7DEB7698320910D0D2223F9F02091CE
:10137000C40D203258F021E030E0FC013383228399
:1013800090E080E00F90DF91CF9108958091C50D9E
:10139000E82FF0E0E351F34F998190838F5F8093C2
:1013A000C50D8093C40D81E090E0ECCF61E0CE01EB
:1013B00001960E94F008F7CFCF92DF92EF92FF9252
:1013C0000F931F93CF93DF93FC01C48121E02093FF
:1013D0000D0DC093EC0C1092C50D1092C40D8385B9
:1013E000682B8FEC90E10E94AD09D091C40DD132F1
:1013F00008F092C00E94E9056B017C018091780D94
:10140000811165C082E08093780D81E080937A0D30
:101410008FEF8093770D10929C0DD0939B0DADEEC6
:10142000BCE0EBE7FDE080E0D81385C010929D0D95
:1014300080919D0DCC0FC82BC0939D0D8091790D8F
:10144000813009F07CC01092790D0E94E9056B0192
:101450007C0180919D0D8093BB0080912F0D909118
:10146000300DA091310DB091320D892B8A2B8B2B31
:1014700099F00E94E90500912F0D1091300D2091F7
:10148000310D3091320D6C197D098E099F090617B7
:10149000170728073907E0F18091BC0083FDD9CFF9
:1014A00085EC8093BC000E94E9056B017C01809172
:1014B000780D823009F445C08091770D8F3F61F13E
:1014C0008091770D803241F18091770D25C0809118
:1014D0002F0D9091300DA091310DB091320D892BCF
:1014E0008A2B8B2B09F48ACF0E94E90500912F0DDE
:1014F0001091300D2091310D3091320D6C197D0914
:101500008E099F09061717072807390708F076CFB5
:1015100080912E0D0E9435091092C50D1092C40DB8
:1015200010920D0DDF91CF911F910F91FF90EF90D1
:10153000DF90CF9008959D9191938F5F75CF85EE49
:10154000B0CF80912F0D9091300DA091310DB091C1
:10155000320D892B8A2B8B2B09F4A9CF0E94E90528
:1015600000912F0D1091300D2091310D3091320DE1
:101570006C197D098E099F09061717072807390777
:1015800008F095CFC5CFCF93DF93DC0126E0629FB3
:10159000A00DB11D112490965C934E935F9721E0AE
:1015A00091962C939197FC01E359FF4F0190F081A4
:1015B000E02DEC01C459DF4F2881222341F0309700
:1015C00019F0DC01662329F0DF91CF91089530975F
:1015D000D9F35C968C91DF91CF911994CF92DF92E1
:1015E000EF92FF920F931F93CF93DF93EC01162F8F
:1015F000042FFC0186E0689FE00DF11D112411A26B
:10160000878D90A18130910509F180F0823091059C
:1016100009F443C0039709F445C0DF91CF911F91AE
:101620000F91FF90EF90DF90CF9008954423A9F39E
:1016300041E050E0CE010E94C30A0E944006C85A11
:10164000DF4F688379838A839B83E7CF0E944006BC
:10165000FE01E85AFF4FC080D180E280F380AB01E9
:10166000BC014C195D096E097F09729680819181D8
:10167000B0E0A0E084179507A607B70770F442E032
:1016800050E0612FCE01DF91CF911F910F91FF901C
:10169000EF90DF90CF900C94C30A43E050E001112B
:1016A000BCCFEFCF50E040E0ECCF862F642F0C94FE
:1016B000AD05862F642F0C947F05862F0C9456055C
:1016C0002F923F924F925F926F927F928F929F9252
:1016D000AF92BF92CF92DF92EF92FF920F931F9340
:1016E000CF93DF93CDB7DEB72C970FB6F894DEBF5C
:1016F0000FBECDBF9C878B8784599F4F9A83898368
:1017000081E0A981BA818C930E944006EB85FC851B
:10171000E45AFF4FFC83EB830081118122813381E6
:10172000AB01BC01401B510B620B730BEB85FC85BD
:10173000E859FF4F80819181B0E0A0E084179507C0
:10174000A607B70708F04FC110E0CB84DC84F6E6AB
:10175000CF0ED11CEB84FC8422E6E20EF11CD601F4
:101760008C91181758F4D701ED91FC91E10FF11D00
:1017700062E080810E94AD051F5FF1CF312C4B8468
:101780005C84B7E64B0E511CEB84FC84E4E6EE0E61
:10179000F11C812C912C540183942B853C852E596E
:1017A0003F4F3A872987D2018C91381608F063C0E1
:1017B000032D10E0D701ED91FC91E00FF11F61E0E6
:1017C00080810E94AD05D701ED91FC91E00FF11FE2
:1017D00060E080810E947F05D501C401032C04C014
:1017E000880F991FAA1FBB1F0A94D2F79E838D836F
:1017F000FC01E095F095F887EF83212CD6018C91C0
:10180000281620F5622C712CA985BA85ED91FC91E2
:10181000E60DF71D80810E945605660C771CEB854E
:10182000FC85E60DF71D892B51F4808591852D816E
:101830003E81822B932B918780872394DFCF8085F5
:101840009185AF81B8858A239B23F5CFD701ED9190
:10185000FC91E00FF11F61E080810E947F05F7019C
:1018600080819181080F191F60E0D8018C910E943E
:10187000AD05339498CF0B851C85C801CC967801B3
:101880002FEF3FEFF701478D50A1452B21F4148E28
:10189000368F258F11A2F6E0EF0EF11CE816F9063F
:1018A00089F7A12C8B849C8420E6820E911C96E003
:1018B000392ED6018C91A81608F058C0B12C6A2C8C
:1018C000712CB4E06B0E711C660C771CEB85FC85EB
:1018D0006E0E7F1ED2018C91B81608F045C0F30140
:1018E000408151810B2C02C0569547950A94E2F72E
:1018F000A89EC00111248B0D911DEB85FC8560E035
:10190000258D368D8217930709F472C06F5F369666
:101910006A30B1F740FF26C0EB85FC8570E060E0DF
:10192000248D211119C0D401ED91FC91E80FF91F0C
:101930004081369EF001379EF00D11242B853C85A9
:10194000E20FF31F448F968F858F10A2178E41E010
:10195000C9010E94EE0A06C06F5F7F4F36966A305B
:101960007105F1F6B394B6CFA394A3CFD12CD801CF
:1019700091968C918111D82E0A5F1F4FE016F106C7
:10198000B1F70E944006EB81FC8160837183828302
:101990009383DD2041F1AB85BC8591968C91919725
:1019A000882309F15F968D919C9190970197D9F4C6
:1019B0005C968C912C960FB6F894DEBF0FBECDBF0F
:1019C000DF91CF911F910F91FF90EF90DF90CF901B
:1019D000BF90AF909F908F907F906F905F904F904F
:1019E0003F902F900895E981FA81108280E0E2CF44
:1019F00041708B859C85ADCF8F929F92AF92BF92A5
:101A0000CF92DF92EF92FF92CF93DF93EFEFE60F4B
:101A1000EC01C12CD12C7601EF3FE9F08990912C9B
:101A2000B12CA12CF0E061E070E080E090E0FE17C6
:101A300041F0AAE0B0E09B01AC010E94194BFF5FAE
:101A4000F6CFA50194010E94994CC60ED71EE81E40
:101A5000F91EE150E1CFC701B601DF91CF91FF90B0
:101A6000EF90DF90CF90BF90AF909F908F900895B0
:101A70000E94600B882311F0815308958FEF089521
:101A8000CF93DF93EC016AE070E080E090E00E9489
:101A90000E06CE010E94600B8823D9F38153DF919B
:101AA000CF910895FC01848180FF05C0128A84FFD4
:101AB0000AC0638B089581FF03C02695228BF7CF60
:101AC00082FFF5CFFBCF85FF04C04695460F438BC1
:101AD00002C086FDFBCF08950F931F93CF93DF9332
:101AE0002091E90C2F5F322F37703093E90C20FFE3
:101AF0002BC020E831FD2064347009F02062205FA3
:101B0000FC01EC01239600E011E06785662329F0D3
:101B100070E0C8010E94A94C6F5F6187822F869F89
:101B2000080E80E0811D1124811110C016826623E9
:101B300011F0615061873196EC17FD0731F7DF91A5
:101B4000CF911F910F91089520E0D4CF81508683CB
:101B5000EECF4F925F927F928F929F92AF92BF9201
:101B6000CF92DF92EF92FF920F931F93CF93DF9369
:101B70002C01EB010E94E905F20126893789621BDD
:101B8000730B6A307105B0F3F8948A819B81181643
:101B900019060CF0CDC1E881F9816EB1862E6894EA
:101BA00084F83EB13F7E3EB9D9848E812D2D281B0D
:101BB000822F2E834C85042E000C550BAA81BB81ED
:101BC0007F85F888E9887F5FF394E3949F81988408
:101BD000BA84AB841081C12C6C2D0C2D2C2D20814E
:101BE000112788942111280F08F42FEF81958894EC
:101BF00070FD120F1795889471FD120F1795889438
:101C000072FD120F1795889473FD120F1795889423
:101C100074FD120F1795889475FD120F179588940F
:101C200076FD120F1795889477FD120F17958894FB
:101C3000622F7111612F8D0D162F002C8EB800C0F0
:101C400000C017FF3EB921816627889400C0002C90
:101C50003EB92111290F00C0002C8EB800C000C071
:101C600016FF3EB908F42FEF9195889400C0002C20
:101C70003EB9F0FC620F00C0002C8EB800C000C05E
:101C800015FF3EB967958894F1FC620F00C0002CE7
:101C90003EB96795889400C0002C8EB800C000C083
:101CA00014FF3EB9F2FC620F6795889400C0002CC7
:101CB0003EB9F3FC620F00C0002C8EB800C000C01B
:101CC00013FF3EB967958894F4FC620F00C0002CA6
:101CD0003EB96795889400C0002C8EB800C000C043
:101CE00012FF3EB9F5FC620F6795889400C0002C86
:101CF0003EB9F6FC620F00C0002C8EB800C000C0D8
:101D000011FF3EB967958894F7FC620F00C0002C64
:101D10003EB96795889400C0002C8EB800C000C002
:101D200010FF3EB9122FF110162F9B0D00C0002C92
:101D30003EB900C000C0002C8EB800C000C017FF24
:101D40003EB922816627889400C0002C3EB921113B
:101D5000290D00C0002C8EB800C000C016FF3EB98F
:101D600008F42FEFE40FF51F00C0002C3EB9E0FC93
:101D7000620F00C0002C8EB800C000C015FF3EB935
:101D800067958894E1FC620F00C0002C3EB967950E
:101D9000889400C0002C8EB800C000C014FF3EB96B
:101DA000E2FC620F6795889400C0002C3EB9E3FC0A
:101DB000620F00C0002C8EB800C000C013FF3EB9F7
:101DC00067958894E4FC620F00C0002C3EB96795CB
:101DD000889400C0002C8EB800C000C012FF3EB92D
:101DE000E5FC620F6795889400C0002C3EB9E6FCC4
:101DF000620F00C0002C8EB800C000C011FF3EB9B9
:101E000067958894E7FC620F00C0002C3EB9679587
:101E1000889400C0002C8EB800C000C010FF3EB9EE
:101E2000122FE110162F919400C0002C3EB99A0C8D
:101E300000C000C08EB800C000C017FF3EB92081AE
:101E40006627889400C0002C3EB92111280F00C0DD
:101E5000002C8EB800C000C016FF3EB908F42FEF6A
:101E60008195889400C0002C3EB970FD620F00C0BF
:101E7000002C8EB800C000C015FF3EB9679588944D
:101E800071FD620F00C0002C3EB96795889400C0B8
:101E9000002C8EB800C000C014FF3EB972FD620F66
:101EA0006795889400C0002C3EB973FD620F00C096
:101EB000002C8EB800C000C013FF3EB9679588940F
:101EC00074FD620F00C0002C3EB96795889400C075
:101ED000002C8EB800C000C012FF3EB975FD620F25
:101EE0006795889400C0002C3EB976FD620F00C053
:101EF000002C8EB800C000C011FF3EB967958894D1
:101F000077FD620F00C0002C3EB96795889400C031
:101F1000002C8EB800C000C010FF3EB9122F711106
:101F2000162F8D0D00C0002C3EB9119709F086CEFA
:101F3000EA81FB812EE130E0DF010E94E74C30E0D6
:101F400020E0A901AAE9EA9F0E0E411DFA9F400D6B
:101F5000511D11244F0F511DDC01CB01840F951F22
:101F6000A11DB11D893E43E09407A105B10508F408
:101F700034C0885E9340A109B10942E0B695A795A7
:101F8000979587954A95D1F747E0849F080E211DC4
:101F9000949F200D311D1124290F311D6091E80CF3
:101FA00070E0860F971F820F931F4091C90D5091CB
:101FB000CA0D6091CB0D7091CC0D292F3327420FA4
:101FC000531F611D711D4093C90D5093CA0D60933D
:101FD000CB0D7093CC0D8093E80C78940E94E905AA
:101FE000F201778B668BDF91CF911F910F91FF905C
:101FF000EF90DF90CF90BF90AF909F908F907F90A9
:102000005F904F9008956C9A08956F927F928F928F
:10201000CF92DF92EF92FF920F931F93CF93DF93B4
:10202000CDB7DEB762970FB6F894DEBF0FBECDBF57
:102030008C016B017A01822FA801475F5F4FB801C5
:102040006A5F7F4F0E949D083B01882ED8011C9635
:102050002C91C701F7FE04C0882799278E199F0984
:10206000DA82C9829C838B839E838D83688A798A76
:102070008A8A213049F5CE0101960E946C0D83E0D9
:102080008D871F861E86F7FE02C08DEF8D87D801D3
:10209000ED91FC910088F189E02DBE016F5F7F4FCB
:1020A000C801199562960FB6F894DEBF0FBECDBF7A
:1020B000DF91CF911F910F91FF90EF90DF90CF9024
:1020C0008F907F906F9008951C861B861A861986C4
:1020D00018861F82D4CFCF92DF92EF92FF920F9398
:1020E0001F93CF93DF93CDB7DEB762970FB6F89407
:1020F000DEBF0FBECDBF8C016B017A01822FA8011C
:10210000475F5F4FB8016A5F7F4F0E949D089B0148
:10211000482FD8011C968C91DA82C982FC82EB820E
:10212000FE82ED82288B398B4A8B813009F5CE01F6
:1021300001960E946C0D1D861F861E86D801ED91AA
:10214000FC910088F189E02DBE016F5F7F4FC801CF
:10215000199562960FB6F894DEBF0FBECDBFDF9122
:10216000CF911F910F91FF90EF90DF90CF90089546
:102170001C861B861A86198618861F82DCCF089556
:10218000E8EEF2E091E090838FEF83831482E6E142
:10219000F2E0908383831482EDEBF3E090838383FA
:1021A0001482E7E3F6E09083838314828093E70C44
:1021B0008093E60CE9E0F7E09083838314820C942B
:1021C000AC0490E080E00895FC0164870895FC0170
:1021D000848590E00895FC01868597850895CF93C6
:1021E000DF93EC0118820E9440066D837E838F830B
:1021F0009887DF91CF9108950F931F93CF9326E097
:10220000FB013296DC01129601900D922A95E1F7BE
:1022100023EB38E0FC013183208324E1FB01389675
:10222000DC01189601900D922A95E1F79C01245E3D
:102230003F4FAB01445E5F4F8901045C1F4FC6E016
:10224000FA01D90101900D92CA95E1F72A5F3F4F3B
:102250004A5F5F4F2017310791F7FB01E85AFF4FA4
:102260000081118122813381FC01E85AFF4F0083F4
:10227000118322833383FB01E45AFF4F00811181D4
:1022800022813381FC01E45AFF4F008311832283B2
:102290003383FB01E05AFF4F20813181FC01E05A7A
:1022A000FF4F31832083FB01EE59FF4F20813181A5
:1022B000FC01EE59FF4F31832083FB01EC59FF4FA6
:1022C00020813181FC01EC59FF4F3183208332960C
:1022D000DB01AA59BF4F2D913C9131832083FB0133
:1022E000E859FF4F20813181FC01E859FF4F3183CC
:1022F0002083FB01E659FF4F20813181FC01E65923
:10230000FF4F31832083FB01E459FF4F2081FC0103
:10231000E459FF4F208363597F4FFB0120813181B6
:1023200083599F4FFC0131832083CF911F910F91DF
:102330000895FC01DB0112968D919C911397938374
:10234000828387EA98E09183808314968C91149716
:10235000848315968C911597858316968C91169784
:10236000868317968C911797878318968C91189768
:10237000808719968C91199781871A968C911A9754
:1023800082871B968C9183870895089590E080E062
:102390000895CF93DF93C091AB0ED091AC0E2097F0
:1023A00099F08A819B81009759F02E853F85A9017C
:1023B000440F551F420F531F70E060E00E94164FFC
:1023C0000C80DD81C02DEBCFDF91CF910895CF93AD
:1023D000DF93FC0101900020E9F73197AF01481B22
:1023E000590BBC0185E290E10E946207EC0142E0DA
:1023F00050E06CEC78E085E290E10E9462078C0F7F
:102400009D1FDF91CF9108950F931F93CF938C0160
:10241000C62F0E94DC096C2F6460C8010E94DC0991
:102420006C2F6B7FC8010E94DC0983EC90E0019760
:10243000F1F7CF911F910F9108950F931F93CF93B1
:10244000DF938C01D62FC42F607F642B0E9404126F
:1024500080E1D89FB00111246C2BC801DF91CF918E
:102460001F910F910C94041241E00E941D1281E013
:1024700090E00895EF92FF920F931F93CF93DF9315
:102480008C017B01D0E0C0E0F701EC0FFD1F6491EF
:10249000662331F041E0C8010E941D122196F4CF5D
:1024A000CE01DF91CF911F910F91FF90EF90089592
:1024B000CF93DF9300D000D01F921F92CDB7DEB72D
:1024C00028E0E1EEF7E0DE01119601900D922A95E9
:1024D000E1F7FC012085241710F44FEF420F50E084
:1024E000440F551F21E030E02C0F3D1F420F531FBA
:1024F000FA012081620F606840E028960FB6F894D8
:10250000DEBF0FBECDBFDF91CF910C941D12CF93D4
:10251000DF93EC0140E06CE00E9458126CEC71E03B
:10252000CE01DF91CF910C943A1240E061E00E941D
:102530001D128BE39FE10197F1F708950F931F930D
:10254000CF93DF93CDB7DEB72C970FB6F894DEBFED
:102550000FBECDBF8C010E949512B801CE0101962D
:102560000E949911CE0101960E94871241E060E01D
:10257000C8010E94581269EC72E0C8010E943A1228
:1025800042E060E0C8010E94581265EB72E0C801A9
:102590000E943A1243E060E0C8010E94581260EACB
:1025A00072E0C8010E943A122C960FB6F894DEBF72
:1025B0000FBECDBFDF91CF911F910F9108950E9463
:1025C000084FFC0180819181009711F00C949E4D81
:1025D00008950F931F93CF93DF93EC018881998126
:1025E000009759F02A813B812617370730F081E0A8
:1025F000DF91CF911F910F9108958B016F5F7F4FF6
:102600000E94274E009759F0998388831B830A8381
:102610002C813D81232B59F7FC011082E8CF80E00B
:10262000E7CFEF92FF920F931F93CF93DF93EC01CD
:102630007B01FB0101900020E9F731978F01061B18
:10264000170BB8010E94E91228813981811113C04A
:102650002115310519F0C9010E949E4D1982188279
:102660001D821C821B821A82DF91CF911F910F91D4
:10267000FF90EF9008951D830C83B701C901DF918E
:10268000CF911F910F91FF90EF900C941D4F0F93DE
:102690001F93CF93DF9300D000D000D0CDB7DEB72B
:1026A0008C01862FF801118210821382128215820A
:1026B00014824AE0BE016F5F7F4F90E00E94F449B0
:1026C000BE016F5F7F4FC8010E94111329960FB69C
:1026D000F894DEBF0FBECDBFDF91CF911F910F9158
:1026E00008950F931F93CF93DF93CDB7DEB7629713
:1026F0000FB6F894DEBF0FBECDBF8C01CB01F80141
:102700001182108213821282158214824AE0BE0165
:102710006F5F7F4F0E94E949BE016F5F7F4FC80125
:102720000E94111362960FB6F894DEBF0FBECDBFA4
:10273000DF91CF911F910F910895CF93DF931F9257
:102740001F92CDB7DEB7FC01118210821382128274
:102750001582148269831A82BE016F5F7F4F0E94C7
:1027600011130F900F90DF91CF9108950F931F9346
:10277000CF93DF9300D000D0CDB7DEB78C016A30A5
:10278000C8F4CE0101960E944713BE016F5F7F4FD0
:10279000C8010E948F07CE0101960E94E112269681
:1027A0000FB6F894DEBF0FBECDBFDF91CF911F9162
:1027B0000F9108956A50653050F4E62FF0E0E05B29
:1027C000F74F6081CE0101960E949D13DECF66E433
:1027D000F9CF2F923F924F925F926F927F928F929A
:1027E0009F92AF92BF92CF92DF92EF92FF920F93A0
:1027F0001F93CF93DF93CDB7DEB7C052D1400FB652
:10280000F894DEBF0FBECDBF1C01C152DF4F7983EC
:102810006883CF5DD040F42E8E0109531F4F8CE0AA
:10282000E9EEF7E0D80101900D928A95E1F76E018B
:102830002BEBC20ED11C8CE0E5EFF7E0D601019046
:102840000D928A95E1F70E94C9110E944C0631E071
:10285000F31283C4C1010E94951240E060E0C101FF
:102860000E94581267E978E0C1010E943A1240E0E4
:102870006CE0C1010E9458126EE878E0C1010E942C
:102880003A1241E060E0C1010E9458126BE778E023
:10289000C1010E943A1243E060E0C1010E94581257
:1028A00066E678E0C1010E943A12DE01AD52BF4FE8
:1028B0007D0123E0D22EC152DF4F68817981CF5D47
:1028C000D040CE0101960E94FC10CE0101960E94DC
:1028D000400D082F10E0EBEBF0E0EC0FFD1FE00FD8
:1028E000F11F808190E0F701819391937F0143E094
:1028F0006D2DC1010E945812E7ECF0E0EC0FFD1FB6
:10290000E00FF11F6081CE0101960E949D13BE0170
:102910006F5F7F4FC1010E948F07CE0101960E9419
:10292000E112D394F6E0DF12C6CFCD52DF4F88819B
:102930009981C35DD04024E6289F3001299F700C07
:102940001124CB52DF4F28813981C55DD0404AE048
:10295000429FC001439F900D1124680E791EC952F9
:10296000DF4F88819981C75DD040680E791ECE0106
:102970008D529F4F7C019AE0D92EC152DF4F688162
:102980007981CF5DD040CE0101960E94FC10CE012E
:1029900001960E94400D082F10E0EBEBF0E0EC0FE9
:1029A000FD1FE00FF11F808190E0D7018D939D9373
:1029B0007D0143E06D2DC1010E945812E7ECF0E06B
:1029C000EC0FFD1FE00FF11F6081CE0101960E9408
:1029D0009D13BE016F5F7F4FC1010E948F07CE0123
:1029E00001960E94E112D394BDE0DB12C6CFCD5216
:1029F000DF4FC880D980C35DD040CB52DF4FA88065
:102A0000B980C55DD040C952DF4F88809980C75DCD
:102A1000D040FE01ED52FF4F7F0181E1582EC1529F
:102A2000DF4F68817981CF5DD040CE0101960E9451
:102A3000FC10CE0101960E94400D082F10E0EBEB38
:102A4000F0E0EC0FFD1FE00FF11F808190E0D70157
:102A50008D939D937D0143E0652DC1010E94581225
:102A6000E7ECF0E0EC0FFD1FE00FF11F6081CE01FD
:102A700001960E949D13BE016F5F7F4FC1010E94AE
:102A80008F07CE0101960E94E1125394B4E15B12CC
:102A9000C6CFEFEF6E16710411F008F0DBCE44E6FE
:102AA0004C9DC0014D9D900D11245AE05A9D9001FE
:102AB0005B9D300D1124820F931F880E991E6FEFBE
:102AC0008616910411F008F0C5CECD52DF4F8881F3
:102AD0009981C35DD040489F6001499FD00C11246B
:102AE000CB52DF4F28813981C55DD040529FC00154
:102AF000539F900D1124C80ED91EC952DF4F8881F3
:102B00009981C75DD040C80ED91E8FEFC816D10479
:102B100011F008F09FCECF51DF4F6882C15ED040E8
:102B2000C455DF4F6882CC5AD040C552DF4F8882EF
:102B3000CB5DD040C356DF4F8882CD59D040C751BE
:102B4000DF4FC882C95ED040C257DF4FC882CE581F
:102B5000D0406092DA0D8092DB0DC092DC0D0E94B5
:102B60004C06C1010E94951240E060E0C1010E9444
:102B700058126FE578E0C1010E943A1240E06CE023
:102B8000C1010E94581266E578E0C1010E943A1224
:102B900041E060E0C1010E94581263E478E0C101A5
:102BA0000E943A1243E060E0C1010E9458126EE2B6
:102BB00078E0C1010E943A12DE01AD52BF4F7D01A3
:102BC00003E0402EC152DF4F68817981CF5DD04054
:102BD000CE0101960E94FC10CE0101960E94400D8C
:102BE000082F10E0EBEBF0E0EC0FFD1FE00FF11F02
:102BF000808190E0F701819391937F0143E0642D00
:102C0000C1010E945812E7ECF0E0EC0FFD1FE00F4D
:102C1000F11F6081CE0101960E949D13BE016F5F7E
:102C20007F4FC1010E948F07CE0101960E94E112E1
:102C30004394F6E04F12C6CFCD52DF4F8881998181
:102C4000C35DD04044E6489F9001499F300D112458
:102C5000CB52DF4F88819981C55DD0405AE0589FA3
:102C6000B001599F700D1124C901860F971FC952D9
:102C7000DF4FA880B980C75DD040A80EB91ECE0135
:102C80008D529F4F7C011AE0412EC152DF4F688167
:102C90007981CF5DD040CE0101960E94FC10CE011B
:102CA00001960E94400D082F10E0EBEBF0E0EC0FD6
:102CB000FD1FE00FF11F808190E0D7018D939D9360
:102CC0007D0143E0642DC1010E945812E7ECF0E061
:102CD000EC0FFD1FE00FF11F6081CE0101960E94F5
:102CE0009D13BE016F5F7F4FC1010E948F07CE0110
:102CF00001960E94E1124394BDE04B12C6CFCD5223
:102D0000DF4F48805980C35DD040CB52DF4FE88110
:102D1000F981C55DD040CB51DF4FF983E883C55EB3
:102D2000D040C952DF4F28813981C75DD040C3519F
:102D3000DF4F39832883CD5ED040AE014D525F4FC7
:102D40007A0151E1C752DF4F5883C95DD040C1526B
:102D5000DF4F68817981CF5DD040CE0101960E941E
:102D6000FC10CE0101960E94400D082F10E0EBEB05
:102D7000F0E0EC0FFD1FE00FF11F808190E0D70124
:102D80008D939D937D0143E0C752DF4F6881C95DFC
:102D9000D040C1010E945812E7ECF0E0EC0FFD1F9B
:102DA000E00FF11F6081CE0101960E949D13BE01CC
:102DB0006F5F7F4FC1010E948F07CE0101960E9475
:102DC000E112C752DF4FB881C95DD040BF5FC75223
:102DD000DF4FB883C95DD040B43109F0B8CFEFEF11
:102DE000AE16B10411F008F0BCCEF4E6F49D70010B
:102DF000F59DF00C11244AE0CB51DF4F2881398139
:102E0000C55ED040429FB001439F700D1124E60E75
:102E1000F71EC351DF4F88819981CD5ED040E80E07
:102E2000F91E9FEFE916F10411F008F09ACECD5289
:102E3000DF4F88819981C35DD040F89F8001F99F61
:102E4000100D1124CB52DF4F88819981C55DD04090
:102E5000489FB001499F700D1124060F171FC952DA
:102E6000DF4F68817981C75DD040060F171F0F3F84
:102E7000110511F008F075CEC355DF4FA882CD5A69
:102E8000D040C256DF4FE882CE59D040C157DF4F05
:102E90000883CF58D040B50166197709072E000C7A
:102EA000880B990B0E94204A20E030E044E452E471
:102EB0000E94A04BCB51DF4F688379838A839B8329
:102EC000C55ED040B70168197909072E000C880B40
:102ED000990B0E94204A20E030E044E452E40E9432
:102EE000A04BC351DF4F688379838A839B83CD5E78
:102EF000D040B8016C197D09072E000C880B990B86
:102F00000E94204A20E030E044E452E40E94A04BBA
:102F1000CB50DF4F688379838A839B83C55FD04022
:102F20000AED1DE0C752DF4F1882C95DD040CF5176
:102F3000DF4F3881C15ED040232F30E050E040E0C9
:102F4000CF50DF4F288339834A835B83C15FD040F2
:102F5000C552DF4F9881CB5DD040892F90E0B0E023
:102F6000A0E0C552DF4F88839983AA83BB83CB5DE2
:102F7000D040C751DF4F3881C95ED040232F30E0A9
:102F800050E040E0C751DF4F288339834A835B8399
:102F9000C95ED040C752DF4F4881C95DD040642F21
:102FA00070E090E080E00E941E4A6B017C01CF50EF
:102FB000DF4F688179818A819B81C15FD0400E9407
:102FC0001E4A4B015C01CB51DF4F288139814A8178
:102FD0005B81C55ED040C701B6010E945B4A9B0180
:102FE000AC01C501B4010E94344B0E94414CCF5149
:102FF000DF4F688379838A839B83C15ED040C5524B
:10300000DF4F688179818A819B81CB5DD0400E94AE
:103010001E4A4B015C01C351DF4F288139814A812F
:103020005B81CD5ED040C701B6010E945B4A9B0127
:10303000AC01C501B4010E94344B0E94414C4B01CC
:103040005C01C751DF4F688179818A819B81C95EAC
:10305000D0400E941E4A2B013C01CB50DF4F2881FB
:1030600039814A815B81C55FD040C701B6010E94AA
:103070005B4A9B01AC01C301B2010E94344B0E9428
:10308000414C6B017C01CF51DF4F688179818A818E
:103090009B81C15ED0400E94124CD8016C93C50147
:1030A000B4010E94124CF8016183C701B6010E946D
:1030B000124CD80112966C93C752DF4FB881C95D8C
:1030C000D040BF5FC752DF4FB883C95DD0400D5FAE
:1030D0001F4FB23309F05ECF0E944C06C1010E941F
:1030E000951240E060E0C1010E9458126BE178E067
:1030F000C1010E943A1242E060E0C1010E945812F0
:1031000067E078E0C1010E943A1243E060E0C1014B
:103110000E94581262EF77E0C1010E943A12C15238
:10312000DF4F68817981CF5DD040CE0101960E944A
:10313000FC10CE0101960E94400DEBEBF0E0EC0F8D
:10314000FD1FE80FF11D8081882311F40C94042FDA
:103150000E94C9110E944C067DCBF2E0FF1214C6FA
:103160003601FE01E455FF4FCE0183569F4FBE014D
:1031700062577F4F9E0120593F4FAF01415F5F4F24
:10318000C751DF4FE883C95ED0408F2E982EA92EFD
:10319000B62ECB51DF4F7883C55ED0401192DC0153
:1031A0001D92CD01DB011D92BD01D9011D929D0132
:1031B0004E175F0799F70AE0C1010E94951240E09F
:1031C00060E0C1010E94581269EE77E0C1010E94DF
:1031D0003A1240E06CE0C1010E94581260EE77E0C4
:1031E000C1010E943A1241E060E0C1010E94581200
:1031F0006BEC77E0C1010E943A1243E060E0C1014C
:103200000E94581266EB77E0C1010E943A129E01BB
:103210002D523F4F690113E0C152DF4F6881798120
:10322000CF5DD040CE0101960E94FC10CE010196E8
:103230000E94400DE82EF12CF301EE0DFF1D808160
:1032400090E0D6018D939D936D0143E0612FC10104
:103250000E945812E7ECF0E0EC0FFD1FEE0DFF1D91
:103260006081CE0101960E949D13BE016F5F7F4F6A
:10327000C1010E948F07CE0101960E94E1121F5FDB
:10328000163051F6CD52DF4F88819981C35DD04011
:10329000B4E6B89F2001B99F500C1124CB52DF4FE8
:1032A00028813981C55DD040029FC001039F900DE8
:1032B0001124480E591EC952DF4F88819981C75D7C
:1032C000D040480E591EFE01ED52FF4F6F011AE02B
:1032D000C152DF4F68817981CF5DD040CE01019628
:1032E0000E94FC10CE0101960E94400DE82EF12CA8
:1032F000F301EE0DFF1D808190E0D6018D939D932B
:103300006D0143E0612FC1010E945812E7ECF0E02B
:10331000EC0FFD1FEE0DFF1D6081CE0101960E9496
:103320009D13BE016F5F7F4FC1010E948F07CE01C9
:1033300001960E94E1121F5F1D3051F6CD52DF4F02
:10334000C880D980C35DD040CB52DF4FE881F9817E
:10335000C55DD040CF51DF4FF983E883C15ED040D7
:10336000C952DF4F28813981C75DD040C552DF4F38
:1033700039832883CB5DD040AE014D525F4FC75299
:10338000DF4F59834883C95DD04011E1C152DF4FFF
:1033900068817981CF5DD040CE0101960E94FC10FA
:1033A000CE0101960E94400DE82EF12CF301EE0DA6
:1033B000FF1D808190E0C752DF4FA881B981C95DB0
:1033C000D0408D939D93C752DF4FB983A883C95DC9
:1033D000D04043E0612FC1010E945812E7ECF0E0B9
:1033E000EC0FFD1FEE0DFF1D6081CE0101960E94C6
:1033F0009D13BE016F5F7F4FC1010E948F07CE01F9
:1034000001960E94E1121F5F143109F0BFCFBFEF98
:103410004B16510411F008F0CFCE44E64C9D9001BC
:103420004D9D300D1124CF51DF4FA881B981C15E70
:10343000D0400A9FC0010B9F900D1124280F391F07
:10344000C552DF4FE881F981CB5DD0402E0F3F1F81
:103450002F3F310511F008F0AFCECD52DF4F48813C
:103460005981C35DD040F4E6F49FC001F59F900DF3
:103470001124CB52DF4F68817981C55DD040069F12
:10348000A001079F500D1124840F951FC952DF4FD3
:1034900048815981C75DD040840F951F8F3F9105AA
:1034A00011F008F089CEC751DF4FE881C95ED040E6
:1034B000C752DF4FE883C95DD040C652DF4F8882D4
:1034C000CA5DD040C752DF4FA881B981C95DD040E5
:1034D0004D92C752DF4FB983A883C95DD040C55212
:1034E000DF4F9882CB5DD040C452DF4FA882CC5DC5
:1034F000D040C552DF4FE881F981CB5DD0402193A8
:10350000C552DF4FF983E883CB5DD040CF51DF4F09
:10351000B882C15ED040CB51DF4FF881C55ED0404C
:10352000CE51DF4FF883C25ED040CF51DF4FA8812C
:10353000B981C15ED0408D93CF51DF4FB983A8834D
:10354000C15ED04091E0E1969FAFE1974092DA0DE5
:103550002093DB0D8093DC0DE1E0F0E0CB50DF4FFA
:10356000F983E883C55FD040C351DF4F1882CD5E39
:10357000D04044244394512C0E944C06C351DF4F49
:10358000F881CD5ED040F40DC351DF4FF883CD5E9E
:10359000D040CB50DF4F8881C55FD040F233E8F197
:1035A000C1010E94951240E060E0C1010E945812E2
:1035B00063E577E0C1010E943A1242E060E0C10198
:1035C0000E9458126FE377E0C1010E943A1243E073
:1035D00060E0C1010E9458126AE277E0C1010E94D6
:1035E0003A12C152DF4F68817981CF5DD040CE0160
:1035F00001960E94FC10CE0101960E94400D860D9E
:10360000972D911DDC018C91882311F40C94042FCB
:103610000E94C9110E944C06A4CD8F3009F2C351FB
:10362000DF4FF881CD5ED040EF2FF0E0CB5FDE4F73
:10363000F983E883C550D140C1010E94951240E052
:1036400060E0C1010E9458126DEA77E0C1010E945A
:103650003A1240E06CE0C1010E94581264EA77E03F
:10366000C1010E943A1241E060E0C1010E9458127B
:103670006FE877E0C1010E943A1242E060E0C101C8
:103680000E9458126AE777E0C1010E943A1243E0B3
:1036900060E0C1010E94581266E677E0C1010E9415
:1036A0003A12CE018D529F4F7C01A3E0DA2EC15217
:1036B000DF4F68817981CF5DD040CE0101960E94B5
:1036C000FC10CE0101960E94400D082F10E0F3017E
:1036D000E00FF11F808190E0D7018D939D937D01D4
:1036E00042E06D2DC1010E945812E7ECF0E0EC0FB2
:1036F000FD1FE00FF11F6081CE0101960E949D1316
:10370000BE016F5F7F4FC1010E948F07CE010196FE
:103710000E94E112D394B6E0DB12C9CFCD52DF4F45
:1037200028813981C35DD040E4E6E29FC001E39F78
:10373000900D1124CB52DF4F48815981C55DD04097
:10374000FAE0F49F9001F59F300D1124820F931F32
:10375000C952DF4F28813981C75DD040AC01420F8B
:10376000531FCF50DF4F59834883C15FD040CE01F4
:103770008D529F4F7C01FAE0DF2EC152DF4F6881EE
:103780007981CF5DD040CE0101960E94FC10CE0120
:1037900001960E94400D082F10E0F301E00FF11F89
:1037A000808190E0D7018D939D937D0142E06D2D46
:1037B000C1010E945812E7ECF0E0EC0FFD1FE00F92
:1037C000F11F6081CE0101960E949D13BE016F5FC3
:1037D0007F4FC1010E948F07CE0101960E94E11226
:1037E000D394BDE0DB12C9CFCD52DF4F4880598062
:1037F000C35DD040CB52DF4FA880B980C55DD040BB
:10380000C952DF4FE881F981C75DD040C751DF4F12
:10381000F983E883C95ED0409E012D523F4F790164
:10382000E1E1DE2EC152DF4F68817981CF5DD0406A
:10383000CE0101960E94FC10CE0101960E94400D1F
:10384000082F10E0F301E00FF11F808190E0D70115
:103850008D939D937D0142E06D2DC1010E94581210
:10386000E7ECF0E0EC0FFD1FE00FF11F6081CE01EF
:1038700001960E949D13BE016F5F7F4FC1010E94A0
:103880008F07CE0101960E94E112D394B4E1DB12BE
:10389000C9CFCD52DF4F88809980C35DD040CB52D5
:1038A000DF4FC880D980C55DD040C952DF4FE88066
:1038B000F980C75DD040FE01ED52FF4FC750DF4F8A
:1038C000F983E883C95FD040F0E1CB51DF4FF88343
:1038D000C55ED040C152DF4F68817981CF5DD04055
:1038E000CE0101960E94FC10CE0101960E94400D6F
:1038F000082F10E0F301E00FF11F808190E0C75026
:10390000DF4FA881B981C95FD0408D939D93C75087
:10391000DF4FB983A883C95FD04043E0CB51DF4F6D
:103920006881C55ED040C1010E945812E7ECF0E00A
:10393000EC0FFD1FE00FF11F6081CE0101960E9488
:103940009D13BE016F5F7F4FC1010E948F07CE01A3
:1039500001960E94E112CB51DF4FB881C55ED04085
:10396000BF5FCB51DF4FB883C55ED040B33109F0A4
:10397000B1CFCF50DF4FE881F981C15FD040EF3F39
:10398000F10511F008F058CEF4E6F49DC001F59D64
:10399000900D11244AE04A9D90014B9D300D112459
:1039A000820F931FC751DF4FA881B981C95ED040F4
:1039B000A80FB91FC751DF4FB983A883C95ED04094
:1039C000AF3FB10511F008F037CEF89DC001F99D69
:1039D000900D11244C9D90014D9D300D1124820FAE
:1039E000931FFC01EE0DFF1DC750DF4FF983E883E5
:1039F000C95FD040EF3FF10511F008F01DCECD5268
:103A0000DF4F28813981C35DD040F4E6F29FC001C9
:103A1000F39F900D1124CB52DF4F48815981C55D32
:103A2000D0406AE0649F9001659F300D1124820FA1
:103A3000931FC952DF4F48805980C75DD040480E60
:103A4000591ECB5FDE4F88819981C550D140840DCE
:103A5000911DC3970CF0F0CDC752DF4FA881B981FB
:103A6000C95DD040CF50DF4FE881C15FD040ED93BA
:103A7000C752DF4FB983A883C95DD040C552DF4F1D
:103A8000A881B981CB5DD040C751DF4FE881C95EC5
:103A9000D040ED93C552DF4FB983A883CB5DD040B2
:103AA000CF51DF4FA881B981C15ED040C750DF4FF1
:103AB000E881C95FD040ED93CF51DF4FB983A88330
:103AC000C15ED040E0E7F0E0EC0FFD1FCB50DF4FD0
:103AD00028813981C55FD040E20FF31F4082CB516E
:103AE000DF4F1882C55ED040C752DF4F48815981F1
:103AF000C95DD04042505109C35FDE4F59834883AE
:103B0000CD50D140C201B0E0A0E0C15FDE4F88835C
:103B10009983AA83BB83CF50D140C552DF4FA88180
:103B2000B981CB5DD0401297CD5EDE4FB983A883BB
:103B3000C351D140CF51DF4FE881F981C15ED04000
:103B40003297CB5EDE4FF983E883C551D140CB512C
:103B5000DF4F3881C55ED040232F30E0CF5FDE4F8E
:103B600039832883C150D1404216530608F4FEC061
:103B7000C35FDE4FA881B981CD50D1401C91CB519C
:103B8000DF4FB881C55ED0406B2F70E090E080E0E1
:103B90000E941E4AC350DF4F688379838A839B83C8
:103BA000CD5FD040C15FDE4F688179818A819B8182
:103BB000CF50D1400E941E4A6B017C01CF50DF4F95
:103BC00068817981C15FD040611B7109072E000CAB
:103BD000880B990B0E94204AA70196010E94A04BD6
:103BE000C350DF4F288139814A815B81CD5FD0404E
:103BF0000E945B4A4B015C01612F70E090E080E025
:103C00000E941E4A9B01AC01C501B4010E94344BC5
:103C10000E94414CC75FDE4F688379838A839B8310
:103C2000C950D140CD5EDE4FE881F981C351D1400A
:103C30001081C751DF4F68817981C95ED040611B17
:103C40007109072E000C880B990B0E94204AA701CE
:103C500096010E94A04BC350DF4F288139814A81D1
:103C60005B81CD5FD0400E945B4A4B015C01612FBC
:103C700070E090E080E00E941E4A9B01AC01C5010B
:103C8000B4010E94344B0E94414C4B015C01CB5E5D
:103C9000DE4FA881B981C551D1401C91C750DF4F7B
:103CA00068817981C95FD040611B7109072E000CC2
:103CB000880B990B0E94204AA70196010E94A04BF5
:103CC000C350DF4F288139814A815B81CD5FD0406D
:103CD0000E945B4A6B017C01612F70E090E080E004
:103CE0000E941E4A9B01AC01C701B6010E94344BE1
:103CF0000E94414C6B017C01CF5FDE4F088119812E
:103D0000C150D140CB5FDE4FE881F981C550D14031
:103D10000E0F1F1FC801880F991F080F191F095286
:103D2000124FC75FDE4F688179818A819B81C950BC
:103D3000D1400E94124CD8016C93C501B4010E947D
:103D4000124CF8016183C701B6010E94124CD801E0
:103D500012966C93CB51DF4FB881C55ED040BF5FE8
:103D6000CB51DF4FB883C55ED040F1CECB50DF4F93
:103D7000E881F981C55FD0403196CB50DF4FF983A0
:103D8000E883C55FD040F8CBB3E0FB128DC5C1011D
:103D90000E94951240E060E0C1010E94581262E268
:103DA00077E0C1010E943A1240E06CE0C1010E943C
:103DB000581269E177E0C1010E943A1242E060E0E6
:103DC000C1010E94581264E077E0C1010E943A12DA
:103DD00043E060E0C1010E94581263EF76E0C10148
:103DE0000E943A12C152DF4F68817981CF5DD04085
:103DF000CE0101960E94FC10CE0101960E94400D5A
:103E000090E08230910570F7C752DF4F1882C95D8C
:103E1000D040892B09F08FC3C752DF4F8881C95D1D
:103E2000D04081508F3008F499C0C1010E94951292
:103E300040E060E0C1010E94581268EE76E0C101E6
:103E40000E943A1240E06CE0C1010E9458126FEDEE
:103E500076E0C1010E943A1241E060E0C1010E9497
:103E6000581269ED76E0C1010E943A1241E065E026
:103E7000C1010E9458126FE070E0CE0101960E94CD
:103E80007113BE016F5F7F4FC1010E948F07CE018A
:103E900001960E94E11241E068E0C1010E945812BF
:103EA0006DEC76E0C1010E943A1243E069E0C10185
:103EB0000E9458126AEC76E0C1010E943A127E011B
:103EC000E3EDEE0EF11C69E0B62E6701C152DF4F43
:103ED00068817981CF5DD040CE0101960E94FC10AF
:103EE000CE0101960E94400D082F10E0EBEBF0E0B0
:103EF000EC0FFD1FE00FF11F808190E0D7018D9343
:103F00009D937D0143E06B2DC1010E945812E7ECA7
:103F1000F0E0EC0FFD1FE00FF11F6081CE01019674
:103F20000E949D13BE016F5F7F4FC1010E948F07EA
:103F3000CE0101960E94E112BAE0BB120CC0F6015C
:103F4000908182819B9D800D1124C752DF4F888311
:103F5000C95DD04061CF5AE0B52EB8CFC752DF4F10
:103F60002881C95DD0402150330BB901072E000CC8
:103F7000880B990B0E94204A9B01AC0160E070E025
:103F800084E492E40E94A04B0E94414C0E94124C97
:103F90002B01FE01E455FF4FCE0183569F4F6E016A
:103FA0002EE8C20ED11CAE0140595F4FCB50DF4FFF
:103FB00059834883C55FD0407F015FE0E50EF11C67
:103FC000CB50DF4F28813981C55FD0408F01BC01C4
:103FD000A6011192DC011D92CD01D6011D926D0149
:103FE000D9011D929D01EE15FF0599F7F801319752
:103FF000C351DF4FF983E883CD5ED0409B01215050
:104000003109CB51DF4F39832883C55ED040CA01C7
:104010000197C751DF4F99838883C95ED040C5524D
:10402000DF4F1882CB5DD040CF51DF4F1882C15E89
:10403000D040D201BB27CB5FDE4FB983A883C550E8
:10404000D140920150E040E0C75FDE4F28833983C2
:104050004A835B83C950D140C752DF4F3881C95D65
:10406000D040C552DF4F4881CB5DD040341709F4B2
:1040700022C280E091E000E011E0A12CBB24B394C7
:10408000CF51DF4FB881C15ED040AB2FB0E0C750F9
:10409000DF4FB983A883C95FD040CB5FDE4FE88193
:1040A000F981C550D140EA0FFB1FCF50DF4FF98394
:1040B000E883C15FD04014E6C12E9AE0D92ECF50DC
:1040C000DF4F28813981C15FD040233331050CF0A7
:1040D00055C1C1010E94951240E060E0C1010E94FB
:1040E00058126EE976E0C1010E943A1240E06CE09D
:1040F000C1010E94581265E976E0C1010E943A129E
:1041000041E060E0C1010E94581260E876E0C10120
:104110000E943A1243E060E0C1010E9458126BE62F
:1041200076E0C1010E943A123E0133ED630E711C2C
:104130007301A3E0BA2EC152DF4F68817981CF5D50
:10414000D040CE0101960E94FC10CE0101960E9443
:10415000400D082F10E0EBEBF0E0EC0FFD1FE00F3F
:10416000F11F808190E0D7018D939D937D0143E005
:104170006B2DC1010E945812E7ECF0E0EC0FFD1F1F
:10418000E00FF11F6081CE0101960E949D13BE01D8
:104190006F5F7F4FC1010E948F07CE0101960E9481
:1041A000E112B394B6E0BB12C6CFCD52DF4F888187
:1041B0009981C35DD040C89E5001C99EB00C1124A6
:1041C000CB52DF4F28813981C55DD040D29EC001DE
:1041D000D39E900D1124A80EB91EC952DF4F8881BD
:1041E0009981C75DD040A80EB91E7301FAE09F2ED9
:1041F000C152DF4F68817981CF5DD040CE010196F9
:104200000E94FC10CE0101960E94400D082F10E084
:10421000EBEBF0E0EC0FFD1FE00FF11F808190E071
:10422000F701819391937F0143E0692DC1010E94C1
:104230005812E7ECF0E0EC0FFD1FE00FF11F60817A
:10424000CE0101960E949D13BE016F5F7F4FC10199
:104250000E948F07CE0101960E94E1129394FDE027
:104260009F12C6CFCD52DF4F88819981C35DD04068
:10427000C89E8001C99E100D1124CB52DF4F2881AA
:104280003981C55DD040D29EC001D39E900D1124CE
:10429000080F191FC952DF4F88819981C75DD0402F
:1042A000080F191FE1E19E2EC152DF4F688179810D
:1042B000CF5DD040CE0101960E94FC10CE01019648
:1042C0000E94400DE82EF12CEBEBF0E0EC0FFD1F0F
:1042D000EE0DFF1D808190E0D3018D939D933D01F4
:1042E00043E0692DC1010E945812E7ECF0E0EC0FA9
:1042F000FD1FEE0DFF1D6081CE0101960E949D13F2
:10430000BE016F5F7F4FC1010E948F07CE010196F2
:104310000E94E1129394B4E19B12C6CFCD52DF4FBD
:1043200028813981C35DD040C29EC001C39E900DDB
:104330001124CB52DF4F48815981C55DD040D49EB6
:104340009001D59E300D1124820F931FC952DF4F6B
:1043500028813981C75DD040820F931FEFEFAE16E1
:10436000B10411F008F0ABCE0F3F110511F008F0C9
:10437000A6CE8F3F910511F008F0A1CE742CCF503E
:10438000DF4F28813981C15FD04023333105BCF430
:10439000C351DF4FA881B981CD5ED0401196AC9258
:1043A000CB51DF4FE881F981C55ED0400183C75111
:1043B000DF4FA881B981C95ED04011968C93C55258
:1043C000DF4FB881CB5DD040B11167C181E0E1968C
:1043D0008FAFE197C356DF4F9881CD59D040C25778
:1043E000DF4F8881CE58D040C455DF4F2881CC5A4A
:1043F000D0402093DA0D9093DB0D8093DC0D0E946A
:104400004C06C552DF4FB881CB5DD040B11140C2E0
:10441000CF51DF4FE881C15ED040EF5FCF51DF4F1A
:10442000E883C15ED040C552DF4F2881CB5DD040CC
:104430002F5FC552DF4F2883CB5DD040CB50DF4F7D
:1044400048815981C55FD0404F5F5F4FCB50DF4FF0
:1044500059834883C55FD040C351DF4F888199811C
:10446000CD5ED0400196C351DF4F99838883CD5EE6
:10447000D040CB51DF4FA881B981C55ED0401196A5
:10448000CB51DF4FB983A883C55ED040C751DF4F02
:10449000E881F981C95ED0403196C751DF4FF98379
:1044A000E883C95ED040CF51DF4FF881C15ED04074
:1044B000F23308F4D1CDC1010E94951240E060E0D2
:1044C000C1010E94581268E576E0C1010E943A12CB
:1044D00042E060E0C1010E94581264E476E0C1014C
:1044E0000E943A1243E060E0C1010E9458126FE25C
:1044F00076E0C1010E943A12C152DF4F6881798192
:10450000CF5DD040CE0101960E94FC10CE010196F5
:104510000E94400D2BEB30E02C0F3D1F280F311D6A
:10452000D9018C91882311F40C94042F0E94C91195
:104530000E944C062CCC512C412C34E6A32E4AE090
:10454000B42EC2010197C39708F423CDC1010E9484
:10455000951240E060E0C1010E94581260EC76E0E4
:10456000C1010E943A1240E06CE0C1010E94581261
:1045700067EB76E0C1010E943A1241E060E0C101C0
:104580000E94581261EB76E0C1010E943A1241E0AC
:1045900065E0C1010E94581261E370E0CE0101960E
:1045A0000E947113BE016F5F7F4FC1010E948F0790
:1045B000CE0101960E94E11241E068E0C1010E9433
:1045C000581269EA76E0C1010E943A1243E068E0BD
:1045D000C1010E94581265EA76E0C1010E943A12B8
:1045E0006E0133EDC30ED11C28E0922E7601C1522C
:1045F000DF4F68817981CF5DD040CE0101960E9466
:10460000FC10CE0101960E94400D082F10E0EBEB4C
:10461000F0E0EC0FFD1FE00FF11F808190E0D6016C
:104620008D939D936D0143E0692DC1010E94581245
:10463000E7ECF0E0EC0FFD1FE00FF11F6081CE0111
:1046400001960E949D13BE016F5F7F4FC1010E94C2
:104650008F07CE0101960E94E1129394BBE09B125A
:10466000C6CFF70180819181A89EB001A99E700DEF
:10467000112422813381B29EC001B39E900D11247A
:10468000680F791F44805580460E571EFFE0C752C1
:10469000DF4FF883C95DD04054CFCB50DF4FE88166
:1046A000F981C55FD0407082612C262D30E0C35067
:1046B000DF4F39832883CD5FD0404216530608F47C
:1046C0009ECEC351DF4FA881B981CD5ED0401C91F1
:1046D000662D70E090E080E00E941E4ACF50DF4FD0
:1046E000688379838A839B83C15FD040C75FDE4F35
:1046F000688179818A819B81C950D1400E941E4A7C
:104700006B017C01C351DF4FE881F981CD5ED04060
:104710006181611B770B072E000C880B990B0E949F
:10472000204AA70196010E94A04BCF50DF4F28815D
:1047300039814A815B81C15FD0400E945B4A4B0155
:104740005C01612F70E090E080E00E941E4A9B01B6
:10475000AC01C501B4010E94344B0E94414CCF5FB3
:10476000DE4F688379838A839B83C150D140CB51CC
:10477000DF4FA881B981C55ED0401C9111966C9124
:10478000611B770B072E000C880B990B0E94204AA7
:10479000A70196010E94A04BCF50DF4F288139819D
:1047A0004A815B81C15FD0400E945B4A4B015C0142
:1047B000612F70E090E080E00E941E4A9B01AC01F6
:1047C000C501B4010E94344B0E94414C4B015C0175
:1047D000C751DF4FE881F981C95ED0401081618106
:1047E000611B770B072E000C880B990B0E94204A47
:1047F000A70196010E94A04BCF50DF4F288139813D
:104800004A815B81C15FD0400E945B4A6B017C01A1
:10481000612F70E090E080E00E941E4A9B01AC0195
:10482000C701B6010E94344B0E94414C6B017C01D0
:10483000C350DF4F08811981CD5FD040C750DF4F93
:1048400028813981C95FD040020F131FC801880F2A
:10485000991F080F191F0952124FCF5FDE4F688151
:1048600079818A819B81C150D1400E94124CD8012C
:104870006C93C501B4010E94124CF8016183C70119
:10488000B6010E94124CD80112966C9363940DCF1E
:10489000CF51DF4FF881C15ED040F70DCF51DF4FD0
:1048A000F883C15ED040BFCDB4E0FB120C94042F5E
:1048B000C1010E94951240E060E0C1010E945812BF
:1048C00067E276E0C1010E943A1240E06CE0C1016B
:1048D0000E9458126EE176E0C1010E943A1242E055
:1048E00060E0C1010E94581269E076E0C1010E94B7
:1048F0003A1243E060E0C1010E94581268EF75E08F
:10490000C1010E943A12C152DF4F68817981CF5DA7
:10491000D040CE0101960E94FC10CE0101960E946B
:10492000400D90E08230910570F7C752DF4F18823A
:10493000C95DD040892B09F06DC1C752DF4F888116
:10494000C95DD04081508E3108F499C0C1010E94E8
:10495000951240E060E0C1010E9458126DEE75E0D2
:10496000C1010E943A1240E06CE0C1010E9458125D
:1049700064EE75E0C1010E943A1241E060E0C101BD
:104980000E9458126EED75E0C1010E943A1241E09A
:1049900065E0C1010E9458126EE170E0CE010196FF
:1049A0000E947113BE016F5F7F4FC1010E948F078C
:1049B000CE0101960E94E11241E068E0C1010E942F
:1049C000581262ED75E0C1010E943A1243E069E0BD
:1049D000C1010E9458126FEC75E0C1010E943A12A9
:1049E0007E01E3EDEE0EF11C69E0B62E6701C152C7
:1049F000DF4F68817981CF5DD040CE0101960E9462
:104A0000FC10CE0101960E94400D082F10E0EBEB48
:104A1000F0E0EC0FFD1FE00FF11F808190E0D70167
:104A20008D939D937D0143E06B2DC1010E9458122F
:104A3000E7ECF0E0EC0FFD1FE00FF11F6081CE010D
:104A400001960E949D13BE016F5F7F4FC1010E94BE
:104A50008F07CE0101960E94E112BAE0BB120CC092
:104A6000F601808162818B9D600D1124C752DF4F5A
:104A70006883C95DD04061CF5AE0B52EB8CFC75228
:104A8000DF4F2881C95DD0402150330BB901072E7B
:104A9000000C880B990B0E94204A9B01AC0160E03E
:104AA00070E084E492E40E94A04B0E94414C0E947A
:104AB000124CCF51DF4F79836883C15ED040CB5118
:104AC000DF4F1882C55ED040CB51DF4F3881C55EC5
:104AD000D040C752DF4F4881C95DD040431728F00E
:104AE000832F81508F3008F46BC1C1010E94951251
:104AF00040E060E0C1010E94581260EA75E0C10127
:104B00000E943A1240E06CE0C1010E94581267E92D
:104B100075E0C1010E943A1241E060E0C1010E94CB
:104B2000581261E975E0C1010E943A1241E065E066
:104B3000C1010E9458126FE070E0CE0101960E9400
:104B40007113BE016F5F7F4FC1010E948F07CE01BD
:104B500001960E94E11241E068E0C1010E945812F2
:104B600065E875E0C1010E943A1243E069E0C101C5
:104B70000E94581262E875E0C1010E943A128E014B
:104B80000D521F4F99E0B92E7801C152DF4F688155
:104B90007981CF5DD040CE0101960E94FC10CE01FC
:104BA00001960E94400DC82ED12CEBEBF0E0EC0FEB
:104BB000FD1FEC0DFD1D808190E0D8018D939D932C
:104BC0008D0143E06B2DC1010E945812E7ECF0E02B
:104BD000EC0FFD1FEC0DFD1D6081CE0101960E94C2
:104BE0009D13BE016F5F7F4FC1010E948F07CE01F1
:104BF00001960E94E112BAE0BB12DFC0F70190817A
:104C000082819B9D800D1124CB51DF4F8883C55E2F
:104C1000D0405ACFCF51DF4F19821882C15ED040A9
:104C200034E6A32E4AE0B42ECF51DF4F888199811C
:104C3000C15ED0400197C29708F441CFC1010E94E4
:104C4000951240E060E0C1010E94581265EC75E0E9
:104C5000C1010E943A1240E06CE0C1010E9458126A
:104C60006CEB75E0C1010E943A1241E060E0C101C5
:104C70000E94581266EB75E0C1010E943A1241E0B1
:104C800065E0C1010E94581262E370E0CE01019616
:104C90000E947113BE016F5F7F4FC1010E948F0799
:104CA000CE0101960E94E11241E068E0C1010E943C
:104CB00058126EEA75E0C1010E943A1243E068E0C2
:104CC000C1010E9458126AEA75E0C1010E943A12BD
:104CD0006E0133EDC30ED11C28E0922E7601C15235
:104CE000DF4F68817981CF5DD040CE0101960E946F
:104CF000FC10CE0101960E94400D082F10E0EBEB56
:104D0000F0E0EC0FFD1FE00FF11F808190E0D60175
:104D10008D939D936D0143E0692DC1010E9458124E
:104D2000E7ECF0E0EC0FFD1FE00FF11F6081CE011A
:104D300001960E949D13BE016F5F7F4FC1010E94CB
:104D40008F07CE0101960E94E1129394BBE09B1263
:104D5000C6CFF70180819181A89EB001A99E700DF8
:104D6000112422813381B29EC001B39E900D112483
:104D7000680F791F848195819B01280F391FCF51BE
:104D8000DF4F39832883C15ED040B90190E080E0D5
:104D90000E941E4A9B01AC0160E070E084E492E452
:104DA0000E94A04B0E94414C0E94124C6F5FC75260
:104DB000DF4F6883C95DD04037CF8AE0B82EE5CE9B
:104DC000C1010E94951240E060E0C1010E945812AA
:104DD00067E775E0C1010E943A1240E06CE0C10152
:104DE0000E9458126EE675E0C1010E943A1242E03C
:104DF00060E0C1010E9458126BE575E0C1010E949C
:104E00003A1260ED77E080E090E00E940E0641E00B
:104E100060E0C1010E94581267E475E0C1010E9480
:104E20003A1242E060E0C1010E94581263E375E06B
:104E3000C1010E943A1243E060E0C1010E94581291
:104E40006FE175E0C1010E943A1280E790E08C0F9B
:104E50009D1F4E96FE01E059FF4F1192E817F9078A
:104E6000E1F7F12C0CE010E0CB51DF4F3881C55E4B
:104E7000D040232F30E0C552DF4F39832883CB5DEC
:104E8000D040C752DF4F4881C95DD040842E912C5D
:104E9000B12CA12CF11010C0C152DF4F6881798173
:104EA000CF5DD040CE0101960E94FC10CE0101964C
:104EB0000E94400D082F10E00A30110530F0C55255
:104EC000DF4F08811981CB5DD0400930110509F011
:104ED0004AC0C1010E94951240E060E0C1010E94F9
:104EE000581264E175E0C1010E943A1240E06CE0A2
:104EF000C1010E9458126BE075E0C1010E943A1294
:104F000041E060E0C1010E94581267EF74E0C10106
:104F10000E943A1242E061E0C1010E94581263EE21
:104F200074E0C1010E943A1243E064E0C1010E94B2
:104F3000581262ED74E0C1010E943A12C152DF4F73
:104F400068817981CF5DD040CE0101960E94FC102E
:104F5000CE0101960E94400D90E08A30910519F033
:104F60008C01065F1F4FC552DF4F88819981CB5D51
:104F7000D0400817190708F0F9C0CF2CD12CE0E772
:104F8000F0E0EC0FFD1FEC0DFD1D81E0800F808334
:104F9000C501B4010E941E4A2B013C016F2D70E037
:104FA00090E080E00E941E4A9B01AC01C301B20167
:104FB0000E94A04B0E94414C0E94124CF3944F2D32
:104FC00051E09FEFC91AD90A651760F1852F90E06B
:104FD00001968C9D90018D9D300D9C9D300D11246E
:104FE000742FE72FE41B872F90E028173907BCF0B8
:104FF000A0E7B0E0AC0FBD1FAE0FB11DFD01E08119
:10500000A0E7B0E0AC0FBD1F8A0F9B1FDC01EC9343
:10501000CD5EDE4F7883C351D1407F5FE2CF5F5FCB
:105020004F0DD2CFCD5EDE4F8881C351D1408F5F0F
:10503000E0E7F0E0EC0FFD1FE80FF11DDE01A059E5
:10504000BF4FC752DF4F2881C95DD040821720F47F
:105050009D9191938F5FF5CFC1010E94951240E021
:1050600060E0C1010E94581267EC74E0C1010E9427
:105070003A1240E06CE0C1010E9458126EEB74E0FD
:10508000C1010E943A12C752DF4F3881C95DD0403A
:105090003B3010F5AE0140595F4F6A01E12CC75219
:1050A000DF4F5881C95DD0405E1509F45FC06E2D99
:1050B000660F41E0C1010E945812D6017D906D013A
:1050C000B101CE0101960E949911672DCE01019682
:1050D0000E94B613E394E3CFC752DF4FB881C95D96
:1050E000D040FE01E059FF4F6F01E12CB53108F0CF
:1050F0005FC341E06E2DC1010E945812D6017D9020
:105100006D01B101CE0101960E949911672DCE016A
:1051100001960E94B613E394E394B4E1EB12E9CF55
:10512000A0E7CA2ED12CCC0EDD1EEAE0CE0ED11C9B
:10513000BAE0EB2E66E76E0D660F42E0C1010E94F9
:105140005812D6017D906D01B101CE0101960E94E9
:105150009911672DCE0101960E94B613E394C752B0
:10516000DF4FB881C95DD040BE11E4CFFF2081F090
:10517000C152DF4F68817981CF5DD040CE01019669
:105180000E94FC10CE0101960E94400D082F10E0F5
:105190000B30110509F07ECEFE01E455FF4FC751DB
:1051A000DF4FF983E883C95ED0409E0123563F4F0D
:1051B000CB50DF4F39832883C55FD040AE014257C3
:1051C0005F4FC750DF4F59834883C95FD040225E8D
:1051D0003F4FCB50DF4F88819981C55FD0401192FE
:1051E000DC011D92CD01DA011D92AD012E173F07A2
:1051F000B1F7C351DF4F1882CD5ED040C552DF4FAB
:105200001882CB5DD040CF51DF4F28813981C15EFC
:10521000D0403327C55EDE4F39832883CB51D14040
:10522000CF51DF4FA881B981C15ED040CD01B0E040
:10523000A0E0C35EDE4F88839983AA83BB83CD51F0
:10524000D1406AE0862EC552DF4FF881CB5DD04059
:10525000EF2FF0E0C35FDE4FF983E883CD50D140FC
:10526000C55EDE4F68807980CB51D1406E0E7F1EC7
:10527000C1010E94951240E060E0C1010E945812F5
:1052800065EB74E0C1010E943A1240E06CE0C1019C
:105290000E9458126CEA74E0C1010E943A1241E087
:1052A00060E0C1010E94581269E974E0C1010E94E6
:1052B0003A1243E060E0C1010E94581264E874E0D1
:1052C000C1010E943A122E01E3ED4E0E511C7201F3
:1052D00053E0D52EC152DF4F68817981CF5DD04038
:1052E000CE0101960E94FC10CE0101960E94400D55
:1052F000082F10E0EBEBF0E0EC0FFD1FE00FF11FCB
:10530000808190E0D7018D939D937D0143E06D2DC9
:10531000C1010E945812E7ECF0E0EC0FFD1FE00F16
:10532000F11F6081CE0101960E949D13BE016F5F47
:105330007F4FC1010E948F07CE0101960E94E112AA
:10534000D394B6E0DB12C6CFCD52DF4F288139812E
:10535000C35DD040E4E6E29FC001E39F900D1124BD
:10536000CB52DF4F48815981C55DD040849E90016A
:10537000859E300D1124820F931FC952DF4F288163
:105380003981C75DD040AC01420F531FC350DF4F7E
:1053900059834883CD5FD04072014AE0D42EC15278
:1053A000DF4F68817981CF5DD040CE0101960E94A8
:1053B000FC10CE0101960E94400D082F10E0EBEB8F
:1053C000F0E0EC0FFD1FE00FF11F808190E0D701AE
:1053D0008D939D937D0143E06D2DC1010E94581274
:1053E000E7ECF0E0EC0FFD1FE00FF11F6081CE0154
:1053F00001960E949D13BE016F5F7F4FC1010E9405
:105400008F07CE0101960E94E112D394BDE0DB121A
:10541000C6CFCD52DF4F08811981C35DD040CB523A
:10542000DF4FE880F980C55DD040C952DF4FC880AA
:10543000D980C75DD04031E1932EC152DF4F6881E2
:105440007981CF5DD040CE0101960E94FC10CE0143
:1054500001960E94400DA82EB12CEBEBF0E0EC0F72
:10546000FD1FEA0DFB1D808190E0F2018193919375
:105470002F0143E0692DC1010E945812E7ECF0E0D2
:10548000EC0FFD1FEA0DFB1D6081CE0101960E940D
:105490009D13BE016F5F7F4FC1010E948F07CE0138
:1054A00001960E94E1129394F4E19F12C6CFC3507B
:1054B000DF4F28813981CD5FD0402F3F310511F07A
:1054C00008F0D6CE24E6209FC001219F900D112424
:1054D0008E9C90018F9C300D1124820F931FAC0184
:1054E0004C0D5D1DCF5FDE4F59834883C150D140C5
:1054F0004F3F510511F008F0BBCECD52DF4F288150
:105500003981C35DD04054E6529FC001539F900D36
:105510001124CB52DF4F48815981C55DD040849E14
:105520009001859E300D1124820F931FC952DF4FC9
:1055300028813981C75DD040DC01A20FB31FCB5F4A
:10554000DE4FB983A883C550D140AF3FB10511F0FC
:1055500008F08ECEB3E36B1671040CF089CEC75100
:10556000DF4FA881B981C95ED040C350DF4FE881C9
:10557000CD5FD040ED93C751DF4FB983A883C95E9B
:10558000D040CB50DF4FA881B981C55FD040CF5FFD
:10559000DE4FE881C150D140ED93CB50DF4FB9834E
:1055A000A883C55FD040C750DF4FA881B981C95FCC
:1055B000D040CB5FDE4FE881C550D140ED93C7505E
:1055C000DF4FB983A883C95FD040C351DF4FF88153
:1055D000CD5ED040F1114AC1C356DF4F9881CD59FD
:1055E000D040C257DF4F8881CE58D040C455DF4FDE
:1055F0002881CC5AD0402093DA0D9093DB0D809314
:10560000DC0D0E944C06C351DF4FE881CD5ED040D7
:10561000E11157C2C552DF4FF881CB5DD040FF5F2B
:10562000C552DF4FF883CB5DD040C351DF4F488177
:10563000CD5ED0404F5FC351DF4F4883CD5ED04039
:10564000C552DF4F5881CB5DD040523360F4CB510F
:10565000DF4FB881C55ED040C351DF4FE881CD5EDA
:10566000D040BE13EECD0E94C911E1968FADE197F7
:105670008150990BA0E7B0E0AC0FBD1F1197C3514B
:10568000DF4FB983A883CD5ED040CB51DF4F188266
:10569000C55ED040C751DF4F1882C95ED040CF51A0
:1056A000DF4F48815981C15ED0409A0150E040E00F
:1056B000CB5FDE4F288339834A835B83C550D1405B
:1056C000ADE9B0E0AC0FBD1FA80FB91FC75FDE4F3B
:1056D000B983A883C950D140EEE8F0E0EC0FFD1F7C
:1056E000E80FF91FC35FDE4FF983E883CD50D14047
:1056F0002CEA30E02C0F3D1F280F391FC15FDE4F11
:1057000039832883CF50D140C752DF4F3881C95DDC
:10571000D040CB51DF4F4881C55ED040341709F4EB
:1057200033C34111DFC1C75FDE4FA881B981C950C2
:10573000D1409C91C35FDE4FE881F981CD50D140CB
:105740008081C15FDE4FA881B981CF50D1402C91BB
:105750002093DA0D9093DB0D8093DC0DC751DF4F62
:10576000F881C95ED040CF51DF4F2881C15ED04063
:10577000F20FC751DF4FF883C95ED040CB51DF4FE6
:105780003881C55ED0403F5FCB51DF4F3883C55E67
:10579000D040C351DF4F48815981CD5ED0404F5F2B
:1057A0005F4FC351DF4F59834883CD5ED040ACCFAC
:1057B00041E06E2DC1010E945812D6017D906D010D
:1057C000B101CE0101960E949911672DCE0101967B
:1057D0000E94B613E394E394B4E1EB12E9CFF0E74F
:1057E000CF2ED12CCC0EDD1EEAE0CE0ED11CE12C4A
:1057F00042E06E2DC1010E945812D6017D906D01CC
:10580000B101CE0101960E949911672DCE0101963A
:105810000E94B613E394E394B4E1EB12E9CF70E78E
:10582000C72ED12CCC0EDD1EE4E1CE0ED11CE4E15E
:10583000EE2E6CE66E0D660F43E0C1010E94581219
:10584000D6017D906D01B101CE0101960E949911A2
:10585000672DCE0101960E94B613E394C752DF4F25
:10586000B881C95DD040BE11E4CF80CCCF50DF4FAE
:105870001882C15FD040C751DF4F28813981C95E8E
:10588000D04022503109CB5EDE4F39832883C55189
:10589000D140CB50DF4F48815981C55FD040425045
:1058A0005109C95EDE4F59834883C751D140C75063
:1058B000DF4F88819981C95FD0400297C75EDE4F74
:1058C00099838883C951D140CF50DF4FB881C15FE0
:1058D000D040AB2FB0E0C75FDE4FB983A883C9507B
:1058E000D140CF51DF4FE881F981C15ED040EA1746
:1058F000FB0708F486CECB5EDE4FA881B981C55187
:10590000D1401C91CF50DF4FB881C15FD0406B2F89
:1059100070E090E080E00E941E4A2B013C01C35ED3
:10592000DE4F688179818A819B81CD51D1400E946F
:105930001E4A6B017C01C350DF4F68817981CD5FC6
:10594000D040611B7109072E000C880B990B0E9437
:10595000204AA70196010E94A04BA30192010E9438
:105960005B4A4B015C01612F70E090E080E00E9497
:105970001E4A9B01AC01C501B4010E94344B0E9438
:10598000414CC15FDE4F688379838A839B83CF500C
:10599000D140C95EDE4FE881F981C751D140108105
:1059A000CF5FDE4F68817981C150D140611B7109A1
:1059B000072E000C880B990B0E94204AA701960124
:1059C0000E94A04BA30192010E945B4A4B015C0123
:1059D000612F70E090E080E00E941E4A9B01AC01C4
:1059E000C501B4010E94344B0E94414C4B015C0143
:1059F000C75EDE4FA881B981C951D1401C91CB5FF0
:105A0000DE4F68817981C550D140611B7109072E35
:105A1000000C880B990B0E94204AA70196010E9456
:105A2000A04BA30192010E945B4A6B017C01612F94
:105A300070E090E080E00E941E4A9B01AC01C7012B
:105A4000B6010E94344B0E94414C6B017C01C75F40
:105A5000DE4F08811981C950D140C35FDE4FE88114
:105A6000F981CD50D1400E0F1F1FC801880F991F1B
:105A7000080F191F0952124FC15FDE4F68817981EB
:105A80008A819B81CF50D1400E94124CD8016C93E7
:105A9000C501B4010E94124CF8016183C701B6012F
:105AA0000E94124CD80112966C93CF50DF4FB881F0
:105AB000C15FD040BF5FCF50DF4FB883C15FD040E0
:105AC00003CFC552DF4F2881CB5DD040CF51DF4F90
:105AD0003881C15ED040230FC552DF4F2883CB5D94
