:100000000C94FA010C942B020C942B020C942B02EE
:100010000C942B020C942B020C942B020C942B02AC
:100020000C942B020C942B020C942B020C942B029C
:100030000C942B020C942B020C942B020C942B028C
:100040000C942B020C942B020C942B020C942B027C
:100050000C942B020C942B020C942B020C942E3239
:100060000C942B020C94A2320C9478320C942B0238
:100070000C942B020C942B020C942B020C942B024C
:100080000C942B020C942B020C942B020C942B023C
:100090000C942B020C942B020C942B020C94D8324F
:1000A0000C942B020C942B020C942B020C942B021C
:1000B0000C942B020C942B020C942B020C942B020C
:1000C0000C942B020C942B020C942B020C942B02FC
:1000D0000C942B020C942B020C942B020C942B02EC
:1000E0000C942B020C949D0D0C9455040C949202CC
:1000F0000C948C0E0C947D020C94B8030C94C50ADD
:100100000C94B6060C9498020C9485020C94860EFE
:100110000C94B3030C949C020C9437230C94C20FE0
:100120000C9479130C94A71F0C94AA020C94AE02A1
:100130000C941D260C94E3060C9446210C94B203F7
:100140000C9488020C94AF060C94B4020C941D0419
:100150000C9482220C949C060C94430B0C94810208
:100160000C94A0020C94A00D0C948E0F0C94E60A33
:100170000C94B4030C94F5220C9479020C948B0A21
:100180000C94890E0C94511F0C94C7080C94B30264
:100190000C94EB1E0C94F3040C94EC030C94CB081D
:1001A0000C9473020C94B8020C94A20D0C948F0F53
:1001B0000C94CF080C94A6020C94A2040C948D0607
:1001C0000C94C51E0C94AC0A0C940F040C948C0671
:1001D0000C94FB030C948E020C94A7220C94080E32
:1001E0000C94AF3448483A4D4D20414D002A002A26
:1001F0002A2A2A2A2A2A2A2A2A2A2A2A2A2A2A2A5F
:100200002A2A2A005F5F5F5F5F5F002A2A2A2A2A64
:100210002A2A2A2A2A2A2A2A2A2A2A2A2A2A2A0068
:100220002376002A5E002D0030002D005F005F0065
:100230005F5F5F0050726573732027302720696607
:1002400020646F6E652E00202020202020636F6EBA
:1002500074696E7565002020507265737320616E3D
:1002600079206B657920746F004D4F4E4441592BB6
:100270002B20536D61727421204C454473002A2A4F
:100280002A2A2A2A2A2A2A2A2A2A2A2A2A2A2A2ACE
:100290002A2A0000002100240027002A002D003017
:1002A00000330001010000040107010A01000022DF
:1002B00000250028002B002E003100340002010030
:1002C00000050108010B0100002000230026002981
:1002D000002C002F0032000001000003010601097C
:1002E0000105050505070508080808020202020ABB
:1002F0000A080804040404010101010101010103C9
:1003000003030303030303040707070C0C0C0C0C83
:100310000C0C0C0202020206060606060606060B76
:100320000B0B0B0B0B0B0B010210202008081020ED
:100330004010204080020102010804020101020471
:100340000810204080804020100804020180040230
:100350000180402010080402010804020101020487
:100360000810204080010204081020408000000A8C
:100370000B02090C0D0E0807030401000000000029
:10038000000000000000000000000000000000006D
:10039000000000000000000000121110000000002A
:1003A000000000000000000000000000000000004D
:1003B000000000523A205F5F5F20473A205F5F5F96
:1003C00020423A205F5F5F004E756D626572206F5C
:1003D00066204C4544733A205F5F5F00523A205FCD
:1003E0005F5F20473A205F5F5F20423A205F5F5F98
:1003F0000000AF3411241FBECFEFD1E2DEBFCDBF6E
:1004000000E00CBF25E1AAEBB0E101C01D92A13CC8
:10041000B207E1F710E1A0E0B2E0E6E9F9E700E0B9
:100420000BBF02C007900D92AA3BB107D9F711E0AC
:10043000CAEFD1E000E006C021970109802FFE013C
:100440000E94803AC93FD10780E00807A9F70E94BF
:1004500079350C94C93C0C94000020E0DC0160FF6D
:1004600003C001C02D932D936250E0F77040D0F788
:100470000895CF93DF93C0918614D091871420976D
:1004800089F08A819B81009749F02D853E85B901CD
:10049000660F771F620F731F0E942D020C80DD8193
:1004A000C02DEDCFDF91CF9108958150823108F0BA
:1004B0005AC0E82FF0E08827EF59FD4F8F4F0C947A
:1004C000803A81028502730279027D02B3028802BA
:1004D0008E02920298029C02A002A602AA02B30215
:1004E000AE02B402B802809180008F7780938000C2
:1004F0000895809180008F7DF9CF80918000877F63
:10050000F5CF84B58F7784BD089584B58F7DFBCFFB
:100510008091B0008F778093B00008958091B000F3
:100520008F7DF9CF809190008F7780939000089510
:10053000809190008F7DF9CF80919000877FF5CFDB
:100540008091A0008F778093A00008958091A000F3
:100550008F7DF9CF8091A000877FF5CF809120011A
:100560008F77809320010895809120018F7DF9CFAE
:1005700080912001877FF5CFCF93DF93282F30E044
:10058000F901E359FC4F8491F901E95DFC4FD491E5
:10059000F901EF51FD4FC491CC23A1F081110E94CC
:1005A0005502EC2FF0E0EE0FFF1FE953FD4FA59130
:1005B000B491EC91ED2381E090E009F480E0DF91CB
:1005C000CF91089580E090E0FACF1F93CF93DF930F
:1005D000282F30E0F901E359FC4F8491F901E95DDE
:1005E000FC4FD491F901EF51FD4FC491CC23A9F0F8
:1005F000162F81110E945502EC2FF0E0EE0FFF1F25
:10060000E355FD4FA591B4918FB7F894EC9111117A
:1006100008C0D095DE23DC938FBFDF91CF911F916F
:100620000895DE2BF8CFCF93DF9390E0FC01E95DD6
:10063000FC4F24918F519D4FFC0184918823C9F078
:1006400090E0880F991FFC01ED56FD4FA591B491E4
:10065000FC01E355FD4FC591D49161110DC09FB7C9
:10066000F8948C91209582238C9388812823288369
:100670009FBFDF91CF910895623051F49FB7F894F6
:100680003C91822F809583238C93E8812E2BEFCF92
:100690008FB7F894EC912E2B2C938FBFEACF3FB7F6
:1006A000F8948091D6119091D711A091D811B09162
:1006B000D91126B5A89B05C02F3F19F00196A11DA1
:1006C000B11D3FBFBA2FA92F982F8827BC01CD019C
:1006D000620F711D811D911D42E0660F771F881FFB
:1006E000991F4A95D1F708958F929F92AF92BF922A
:1006F000CF92DF92EF92FF924B015C010E944F0379
:100700006B017C010E944F036C197D098E099F09C2
:10071000683E734081059105A8F321E0821A910893
:10072000A108B10888EEC80E83E0D81EE11CF11CB8
:1007300081149104A104B10429F7FF90EF90DF9098
:10074000CF90BF90AF909F908F9008952FB7F8945F
:100750006091D2117091D3118091D4119091D511E3
:100760002FBF089508950895FC01848590E00895B1
:10077000AF92BF92CF92DF92EF92FF920F931F93AF
:10078000CF93DF936C017B018B01040F151FEB01ED
:100790005E01AE18BF08C017D10759F06991D601A4
:1007A000ED91FC910190F081E02DC6011995892B06
:1007B00079F7C501DF91CF911F910F91FF90EF90D5
:1007C000DF90CF90BF90AF900895FB014481558199
:1007D000608171810C94B803FC01538D448D252FE9
:1007E00030E0842F90E0821B930B541710F0CF96CB
:1007F000089501970895FC01918D828D981761F0FD
:10080000A28DAE0FBF2FB11D5D968C91928D9F5F13
:100810009F73928F90E008958FEF9FEF0895FC01F2
:10082000918D828D981731F0828DE80FF11D858DA5
:1008300090E008958FEF9FEF0895FC01918D228D38
:10084000892F90E0805C9F4F821B91098F739927BD
:1008500008958CE894E10E941D0421E0892B09F49D
:1008600020E0822F0895FC01A48DA80FB92FB11D9F
:10087000A35ABF4F2C91848D90E001968F739927D6
:10088000848FA689B7892C93A089B1898C918370B4
:1008900080648C93938D848D981306C00288F389AD
:1008A000E02D80818F7D80830895EF92FF920F93DA
:1008B0001F93CF93DF93EC0181E0888F9B8D8C8D0C
:1008C00098131AC0E889F989808185FF15C09FB700
:1008D000F894EE89FF896083E889F98980818370C3
:1008E000806480839FBF81E090E0DF91CF911F9172
:1008F0000F91FF90EF900895F62E0B8D10E00F5F93
:100900001F4F0F731127E02E8C8D8E110CC00FB668
:1009100007FCFACFE889F989808185FFF5CFCE0100
:100920000E943304F1CFEB8DEC0FFD2FF11DE35A44
:10093000FF4FF0829FB7F8940B8FEA89FB89808183
:100940008062CFCFCF93DF93EC01888D8823B9F0FD
:10095000AA89BB89E889F9898C9185FD03C08081CA
:1009600086FD0DC00FB607FCF7CF8C9185FFF2CF47
:10097000808185FFEDCFCE010E943304E9CFDF9166
:10098000CF91089580E090E0892B29F00E942904FE
:1009900081110E94000080E090E0892B49F080E006
:1009A00090E0892B29F00E94000081110E94000034
:1009B00080E090E0892B49F080E090E0892B29F0DD
:1009C0000E94000081110E94000080E090E0892BCD
:1009D00049F080E090E0892B29F00E94000081110D
:1009E0000C940000089581E090E008954F925F928A
:1009F0006F927F928F929F92AF92BF92CF92DF922F
:100A0000EF92FF920F931F93CF93DF9300D0CDB758
:100A1000DEB76A0119821A821B828823C9F18B0111
:100A2000E1E0F0E0482E512C712C612CD8012D9181
:100A30008D01222349F17F01B1E0EB1AF108D601C3
:100A4000AE0DBF1D8C908820F9F030E050E040E002
:100A50002F5F3F4F4F4F5F4FC301B2010E94073AD4
:100A60009B01AC01912CB12CA12CC501B4016F5F8D
:100A70007F4F8F4F9F4F0E94073AA1E0B0E0AC0F2D
:100A8000BD1FAE0DBF1D8C933196E430F10571F69C
:100A900069817A818B810F900F900F90DF91CF91B8
:100AA0001F910F91FF90EF90DF90CF90BF90AF908C
:100AB0009F908F907F906F905F904F900895CF920E
:100AC000DF92EF92FF920F931F93CF93DF93F090FB
:100AD000291580912C1590912D15A0912E15B0916E
:100AE0002F15892B8A2B8B2BD9F00E944F03009155
:100AF00088141091891420918A1430918B14601BF2
:100B0000710B820B930B00912C1510912D152091D8
:100B10002E1530912F156017710782079307C8F2C1
:100B20000E944F03609388147093891480938A14F1
:100B300090938B14E0913415F0913515309759F05E
:100B400040913015509131156091321570913315E7
:100B50008F2D1995F82EC0918614D0918714209767
:100B600021F1EC8480912A1590912B158436910502
:100B700008F41C86E881F981C280D380AE01475F0A
:100B80005F4FBE016A5F7F4F8F2D0E94F6048B017D
:100B9000282F4D855E856A817B81CE01F6011995EE
:100BA000EC860C80DD81C02DDACF80918414909189
:100BB0008514EC012196D0938514C0938414499731
:100BC000E4F10E94A60300918014109181142091F9
:100BD0008214309183146B017C01C01AD10AE20A9D
:100BE000F30AA7019601211531054105510521F4AC
:100BF00021E030E040E050E088EE93E0C89FB00193
:100C0000C99F700DD89F700D1124072E000C880B02
:100C1000990B0E943F3A30932B1520932A1510927E
:100C20008514109284140E94A6036093801470931C
:100C300081148093821490938314DF91CF911F913C
:100C40000F91FF90EF90DF90CF90089520915D116C
:100C5000260F3327331F21323105ECF42091811107
:100C6000FC0190E080E0243069F082E00895A091DA
:100C70005D112191AC01435C5E4EA40FB52FB11DF7
:100C80002C930196861798F380915D11680F6093FD
:100C90005D1180E0089581E008951092811181E056
:100CA000809383111092821161E084E10E94E50239
:100CB00061E085E10E94E502E9EBF0E080818E7F52
:100CC000808380818D7F808388E48093B80085E471
:100CD0008093BC000895CF93DF9391E090933C11F3
:100CE0008823B9F0C091B800D091BA008091BC00BF
:100CF0008A7B8093BC0060E084E10E94E50260E0B2
:100D000085E10E94E5020E944D06D093BA00C0938F
:100D1000B800DF91CF9108950895E091D0118091AE
:100D2000CF11E81730F4F0E0E95EFE4E808190E0EC
:100D300008958FEF9FEF08959091D0118091CF117A
:100D40002FEF3FEF981748F4E92FF0E0E95EFE4EF1
:100D5000208130E09F5F9093D011C9010895809168
:100D6000CF119091D011891B990B0895CF92DF92EA
:100D7000EF92FF920F931F93CF93DF937C01CB01F0
:100D80008A0120911611222389F0EB016B01C40E18
:100D9000D51ECC15DD0569F06991D701ED91FC9167
:100DA0000190F081E02DC7011995F3CF642F0E94C7
:100DB0002606C801DF91CF911F910F91FF90EF9010
:100DC000DF90CF900895CF93DF931F92CDB7DEB71A
:100DD0006983209116112223F9F02091CD11203240
:100DE00058F021E030E0FC013383228390E080E082
:100DF0000F90DF91CF9108958091CE11E82FF0E010
:100E0000EA50FF4E998190838F5F8093CE1180933B
:100E1000CD1181E090E0ECCF61E0CE0101960E941F
:100E20002606F7CFCF92DF92EF92FF920F931F9398
:100E3000CF93DF93FC01C48121E020931611C0936E
:100E4000F5101092CE111092CD118385682B86E398
:100E500095E10E94E306D091CD11D13208F092C005
:100E60000E944F036B017C0180918111811165C04B
:100E700082E08093811181E0809383118FEF8093D2
:100E800080111092A511D093A411A6EFB0E1E4E86F
:100E9000F1E180E0D81385C01092A6118091A611CF
:100EA000CC0FC82BC093A61180918211813009F01C
:100EB0007CC0109282110E944F036B017C018091D3
:100EC000A6118093BB008091381190913911A091A7
:100ED0003A11B0913B11892B8A2B8B2B99F00E94F0
:100EE0004F03009138111091391120913A1130912E
:100EF0003B116C197D098E099F09061717072807F2
:100F00003907E0F18091BC0083FDD9CF85EC809357
:100F1000BC000E944F036B017C01809181118230E3
:100F200009F445C0809180118F3F61F1809180115B
:100F3000803241F18091801125C0809138119091CB
:100F40003911A0913A11B0913B11892B8A2B8B2B2F
:100F500009F48ACF0E944F03009138111091391182
:100F600020913A1130913B116C197D098E099F092E
:100F7000061717072807390708F076CF8091371131
:100F80000E946B061092CE111092CD111092161184
:100F9000DF91CF911F910F91FF90EF90DF90CF9055
:100FA00008959D9191938F5F75CF85EEB0CF80911D
:100FB000381190913911A0913A11B0913B11892BC0
:100FC0008A2B8B2B09F4A9CF0E944F030091381173
:100FD0001091391120913A1130913B116C197D0912
:100FE0008E099F09061717072807390708F095CFBC
:100FF000C5CFCF93DF93DC0126E0629FA00DB11D2A
:10100000112490965C934E935F9721E091962C93D8
:101010009197FC01E359FF4F0190F081E02DEC0125
:10102000C459DF4F2881222341F0309719F0DC01A9
:10103000662329F0DF91CF9108953097D9F35C961C
:101040008C91DF91CF911994CF92DF92EF92FF9222
:101050000F931F93CF93DF93EC01162F042FFC0106
:1010600086E0689FE00DF11D112411A2878D90A1EB
:101070008130910509F180F08230910509F443C077
:10108000039709F445C0DF91CF911F910F91FF9015
:10109000EF90DF90CF9008954423A9F341E050E012
:1010A000CE010E94F9070E94A603C85ADF4F688349
:1010B00079838A839B83E7CF0E94A603FE01E85AC7
:1010C000FF4FC080D180E280F380AB01BC014C199E
:1010D0005D096E097F09729680819181B0E0A0E080
:1010E00084179507A607B70770F442E050E0612F18
:1010F000CE01DF91CF911F910F91FF90EF90DF9084
:10110000CF900C94F90743E050E00111BCCFEFCF32
:1011100050E040E0ECCF8F929F92AF92BF92CF927F
:10112000DF92EF92FF92CF93DF93EFEFE60FEC01A8
:10113000C12CD12C7601EF3FE9F08990912CB12C94
:10114000A12CF0E061E070E080E090E0FE1741F05B
:10115000AAE0B0E09B01AC010E94DA38FF5FF6CF55
:10116000A50194010E94073AC60ED71EE81EF91E7B
:10117000E150E1CFC701B601DF91CF91FF90EF9031
:10118000DF90CF90BF90AF909F908F900895862F63
:10119000642F0C941303862F642F0C94E502862F82
:1011A0000C94BC022F923F924F925F926F927F926B
:1011B0008F929F92AF92BF92CF92DF92EF92FF9267
:1011C0000F931F93CF93DF93CDB7DEB72C970FB656
:1011D000F894DEBF0FBECDBF9C878B8784599F4F8D
:1011E0009A83898381E0A981BA818C930E94A603A6
:1011F000EB85FC85E45AFF4FFC83EB830081118172
:1012000022813381AB01BC01401B510B620B730B7C
:10121000EB85FC85E859FF4F80819181B0E0A0E02B
:1012200084179507A607B70708F037C110E0CB84ED
:10123000DC84F6E6CF0ED11CEB84FC8422E6E20EC1
:10124000F11CD6018C91181758F4D701ED91FC913F
:10125000E10FF11D62E080810E9413031F5FF1CF57
:10126000312C4B845C84B7E64B0E511CEB84FC8420
:10127000E4E6EE0EF11C812C912C540183942B8515
:101280003C852E593F4F3A872987D2018C913816D9
:1012900008F063C0032D10E0D701ED91FC91E00F41
:1012A000F11F61E080810E941303D701ED91FC9151
:1012B000E00FF11F60E080810E94E502D501C401CA
:1012C000032C04C0880F991FAA1FBB1F0A94D2F7D2
:1012D0009E838D83FC01E095F095F887EF83212CA8
:1012E000D6018C91281620F5622C712CA985BA851F
:1012F000ED91FC91E60DF71D80810E94BC02660C09
:10130000771CEB85FC85E60DF71D892B51F4808554
:1013100091852D813E81822B932B91878087239409
:10132000DFCF80859185AF81B8858A239B23F5CF58
:10133000D701ED91FC91E00FF11F61E080810E94E7
:10134000E502F70180819181080F191F60E0D80143
:101350008C910E941303339498CF0B851C85C80190
:10136000CC9678012FEF3FEFF701478D50A1452B29
:1013700021F4148E368F258F11A2F6E0EF0EF11CAA
:10138000E816F90689F7A12C96E0392E8B849C8407
:1013900020E6820E911CD6018C91A81608F05AC046
:1013A000B12C6A2C712CB4E06B0E711C660C771C8E
:1013B000EB85FC856E0E7F1ED2018C91B81608F06D
:1013C00047C0F301408151810B2C02C056954795CF
:1013D0000A94E2F7A89EC00111248B0D911DEB85A4
:1013E000FC8560E0258D368D8217930709F473C064
:1013F0006F5F36966A30B1F740FF28C0EB85FC85F9
:1014000070E060E0248D21111BC0369EF001379EF4
:10141000F00D11242B853C85E20FF31FD4012D9193
:101420003C91D901A80FB91F2C91248F968F858FDD
:1014300010A2178E41E08B859C850E94240806C06F
:101440006F5F7F4F36966A307105E1F6B394B4CF83
:10145000A394A1CFD12CF80181A18111D82E0A5FCC
:101460001F4FE016F106B9F70E94A603AB81BC81BD
:101470006D937D938D939C931397DD2071F0EB8595
:10148000FC8581A1882349F0878D90A1019729F4DB
:10149000848D811106C08FEF05C0A981BA811C928D
:1014A000FACF81532C960FB6F894DEBF0FBECDBF96
:1014B000DF91CF911F910F91FF90EF90DF90CF9030
:1014C000BF90AF909F908F907F906F905F904F9064
:1014D0003F902F9008954170AECFDC011C92119681
:1014E0001C9211971296ED91FC9113973197EA3067
:1014F000F10508F070C08827EF57F54F8F4F0C9417
:10150000803A8B0AAC0AC50A8B0AAC0AC50A8B0A58
:10151000AC0AC50AE60ACD01CC96FD0112962D91C2
:101520003C9113972730310591F41582148216826D
:1015300017823496E817F90789F7FD01E05CFF4F41
:10154000A25ABF4F1192EA17FB07E1F708951482E0
:10155000158216821782EDCFFD01CD0188589F4F6D
:1015600012962D913C9113972830310549F415823C
:101570001482168217823496E817F90789F70895BE
:101580001482158216821782F6CFCD01CC96FD010A
:1015900012962D913C9113972930310591F41582C3
:1015A0001482168217823496E817F90789F7FD012D
:1015B000E05CFF4FA15BBF4F1192EA17FB07E1F719
:1015C00008951482158216821782EDCF14961C920C
:1015D000149715961C920895FC01848180FF05C024
:1015E000128A84FF0AC0638B089581FF03C0269589
:1015F000228BF7CF82FFF5CFFBCF85FF04C0469546
:10160000460F438B02C086FDFBCF08950F931F93B7
:10161000CF93DF932091D6102F5F322F3770309306
:10162000D61020FF2BC020E831FD2064347009F073
:101630002062205FFC01EC01239600E011E0678549
:10164000662329F070E0C8010E942B3A6F5F618722
:10165000822F869F080E80E0811D1124811110C009
:101660001682662311F0615061873196EC17FD07F1
:1016700031F7DF91CF911F910F91089520E0D4CFE2
:1016800081508683EECF4F925F927F928F929F928E
:10169000AF92BF92CF92DF92EF92FF920F931F9380
:1016A000CF93DF932C01EB010E944F03F2012689B7
:1016B0003789621B730B6A307105B0F3F8948A8125
:1016C0009B81181619060CF0CDC1E881F9816EB125
:1016D000862E689484F83EB13F7E3EB9D9848E81CF
:1016E0002D2D281B822F2E834C85042E000C550B8C
:1016F000AA81BB817F85F888E9887F5FF394E394B2
:101700009F819884BA84AB841081C12C6C2D0C2DE0
:101710002C2D2081112788942111280F08F42FEFF8
:101720008195889470FD120F1795889471FD120FA2
:101730001795889472FD120F1795889473FD120FF8
:101740001795889474FD120F1795889475FD120FE4
:101750001795889476FD120F1795889477FD120FD0
:1017600017958894622F7111612F8D0D162F002C03
:101770008EB800C000C017FF3EB92181662788944B
:1017800000C0002C3EB92111290F00C0002C8EB8DA
:1017900000C000C016FF3EB908F42FEF9195889461
:1017A00000C0002C3EB9F0FC620F00C0002C8EB8C7
:1017B00000C000C015FF3EB967958894F1FC620F28
:1017C00000C0002C3EB96795889400C0002C8EB8EC
:1017D00000C000C014FF3EB9F2FC620F6795889408
:1017E00000C0002C3EB9F3FC620F00C0002C8EB884
:1017F00000C000C013FF3EB967958894F4FC620FE7
:1018000000C0002C3EB96795889400C0002C8EB8AB
:1018100000C000C012FF3EB9F5FC620F67958894C6
:1018200000C0002C3EB9F6FC620F00C0002C8EB840
:1018300000C000C011FF3EB967958894F7FC620FA5
:1018400000C0002C3EB96795889400C0002C8EB86B
:1018500000C000C010FF3EB9122FF110162F9B0DD3
:1018600000C0002C3EB900C000C0002C8EB800C0E3
:1018700000C017FF3EB922816627889400C0002C63
:101880003EB92111290D00C0002C8EB800C000C047
:1018900016FF3EB908F42FEFE40FF51F00C0002C2F
:1018A0003EB9E0FC620F00C0002C8EB800C000C042
:1018B00015FF3EB967958894E1FC620F00C0002CCB
:1018C0003EB96795889400C0002C8EB800C000C057
:1018D00014FF3EB9E2FC620F6795889400C0002CAB
:1018E0003EB9E3FC620F00C0002C8EB800C000C0FF
:1018F00013FF3EB967958894E4FC620F00C0002C8A
:101900003EB96795889400C0002C8EB800C000C016
:1019100012FF3EB9E5FC620F6795889400C0002C69
:101920003EB9E6FC620F00C0002C8EB800C000C0BB
:1019300011FF3EB967958894E7FC620F00C0002C48
:101940003EB96795889400C0002C8EB800C000C0D6
:1019500010FF3EB9122FE110162F919400C0002CF9
:101960003EB99A0C00C000C08EB800C000C017FF7E
:101970003EB920816627889400C0002C3EB9211111
:10198000280F00C0002C8EB800C000C016FF3EB962
:1019900008F42FEF8195889400C0002C3EB970FDAB
:1019A000620F00C0002C8EB800C000C015FF3EB909
:1019B0006795889471FD620F00C0002C3EB9679551
:1019C000889400C0002C8EB800C000C014FF3EB93F
:1019D00072FD620F6795889400C0002C3EB973FDBC
:1019E000620F00C0002C8EB800C000C013FF3EB9CB
:1019F0006795889474FD620F00C0002C3EB967950E
:101A0000889400C0002C8EB800C000C012FF3EB900
:101A100075FD620F6795889400C0002C3EB976FD75
:101A2000620F00C0002C8EB800C000C011FF3EB98C
:101A30006795889477FD620F00C0002C3EB96795CA
:101A4000889400C0002C8EB800C000C010FF3EB9C2
:101A5000122F7111162F8D0D00C0002C3EB9119759
:101A600009F086CEEA81FB812EE130E0DF010E94A1
:101A7000883A30E020E0A901AAE9EA9F0E0E411D54
:101A8000FA9F400D511D11244F0F511DDC01CB0158
:101A9000840F951FA11DB11D893E43E09407A10548
:101AA000B10508F434C0885E9340A109B10942E051
:101AB000B695A795979587954A95D1F747E0849F66
:101AC000080E211D949F200D311D1124290F311D59
:101AD0006091D51070E0860F971F820F931F409181
:101AE000D2115091D3116091D4117091D511292F39
:101AF0003327420F531F611D711D4093D211509324
:101B0000D3116093D4117093D5118093D51078942C
:101B10000E944F03F201778B668BDF91CF911F916B
:101B20000F91FF90EF90DF90CF90BF90AF909F907C
:101B30008F907F905F904F90089580E991E0089595
:101B40006C9A08956F927F928F92CF92DF92EF926C
:101B5000FF920F931F93CF93DF93CDB7DEB76297BA
:101B60000FB6F894DEBF0FBECDBF8C016B017A01BA
:101B7000822FA801475F5F4FB8016A5F7F4F0E94C5
:101B8000F6043B01882ED8011C962C91C701F7FE64
:101B900004C0882799278E199F09DA82C9829C83FD
:101BA0008B839E838D83688A798A8A8A213049F55E
:101BB000CE0101960E94060B83E08D871F861E864C
:101BC000F7FE02C08DEF8D87D801ED91FC91008862
:101BD000F189E02DBE016F5F7F4FC80119956296B4
:101BE0000FB6F894DEBF0FBECDBFDF91CF911F912E
:101BF0000F91FF90EF90DF90CF908F907F906F903C
:101C000008951C861B861A86198618861F82D4CFD3
:101C1000CF92DF92EF92FF920F931F93CF93DF93B8
:101C2000CDB7DEB762970FB6F894DEBF0FBECDBF5B
:101C30008C016B017A01822FA801475F5F4FB801C9
:101C40006A5F7F4F0E94F6049B01482FD8011C96C3
:101C50008C91DA82C982FC82EB82FE82ED82288B33
:101C6000398B4A8B813009F5CE0101960E94060B13
:101C70001D861F861E86D801ED91FC910088F18992
:101C8000E02DBE016F5F7F4FC801199562960FB6B8
:101C9000F894DEBF0FBECDBFDF91CF911F910F91A2
:101CA000FF90EF90DF90CF9008951C861B861A86D8
:101CB000198618861F82DCCF0895E8EEF2E091E0E5
:101CC00090838FEF83831482E6E1F2E09083838335
:101CD0001482EFEBF3E0908383831482E1E9F4E074
:101CE000908383831482ECEBF7E0908383831482E8
:101CF000E0E7F6E09083838314828093D41080938E
:101D0000D3108093D2108093D110089590E080E09A
:101D10000895FC0164870895FC01868597850895E0
:101D2000CF93DF93EC0118820E94A6036D837E831C
:101D30008F839887DF91CF9108950F931F93CF934F
:101D4000DF93EC016623F1F00E94A603AB01BC0116
:101D50008D819E81AF81B88509811A812B813C815B
:101D6000800F911FA21FB31F21E0481759076A0770
:101D70007B0708F420E028838881DF91CF911F91B1
:101D80000F9108950E94900EF7CF0F931F93CF935A
:101D900026E0FB013296DC01129601900D922A9505
:101DA000E1F720E03BE0FC013183208324E1FB01EB
:101DB0003896DC01189601900D922A95E1F79C0166
:101DC000245E3F4FAB01445E5F4F8901045C1F4FAF
:101DD000C6E0FA01D90101900D92CA95E1F72A5F98
:101DE0003F4F4A5F5F4F2017310791F7FB01E85AD9
:101DF000FF4F0081118122813381FC01E85AFF4F9E
:101E00000083118322833383FB01E45AFF4F008157
:101E1000118122813381FC01E45AFF4F0083118339
:101E200022833383FB01E05AFF4F20813181FC0183
:101E3000E05AFF4F31832083FB01EE59FF4F208191
:101E40003181FC01EE59FF4F31832083FB01EC59B6
:101E5000FF4F20813181FC01EC59FF4F31832083FA
:101E60003296DB01AA59BF4F2D913C9131832083DB
:101E7000FB01E859FF4F20813181FC01E859FF4FF8
:101E800031832083FB01E659FF4F20813181FC0122
:101E9000E659FF4F31832083FB01E459FF4F208136
:101EA000FC01E459FF4F208363597F4FFB012081E0
:101EB000318183599F4FFC0131832083CF911F9142
:101EC0000F910895FC01DB0112968D919C9113975F
:101ED0009383828384EF9AE09183808314968C911C
:101EE0001497848315968C911597858316968C91FB
:101EF0001697868317968C911797878318968C91DF
:101F00001897808719968C91199781871A968C91CA
:101F10001A9782871B968C9183870895089590E085
:101F200080E008950F931F93CF938C01C62F0E94DA
:101F300012076C2F6460C8010E9412076C2F6B7F20
:101F4000C8010E94120783EC90E00197F1F7CF914E
:101F50001F910F9108950F931F93CF93DF938C01DF
:101F6000D62FC42F607F642B0E94920F80E1D89FF0
:101F7000B00111246C2BC801DF91CF911F910F91FB
:101F80000C94920F41E00E94AB0F81E090E0089525
:101F9000EF92FF920F931F93CF93DF938C017B01FE
:101FA000D0E0C0E0F701EC0FFD1F6491662331F033
:101FB00041E0C8010E94AB0F2196F4CFCE01DF9122
:101FC000CF911F910F91FF90EF900895CF93DF93E2
:101FD00000D000D01F921F92CDB7DEB728E0EEE30D
:101FE000FAE0DE01119601900D922A95E1F7FC01CD
:101FF0002085241710F44FEF420F50E0440F551F77
:1020000021E030E02C0F3D1F420F531FFA012081C9
:10201000620F606840E028960FB6F894DEBF0FBEEE
:10202000CDBFDF91CF910C94AB0FCF93DF93EC0139
:1020300040E06CE00E94E60F64EE71E0CE01DF91BB
:10204000CF910C94C80F40E061E00E94AB0F8BE38E
:102050009FE10197F1F70895FB0101900020E9F756
:102060003197AF01461B570BDC01ED91FC910280CB
:10207000F381E02D19948F929F92AF92BF92EF92CD
:10208000FF920F931F93CF93DF93CDB7DEB7A19746
:102090000FB6F894DEBF0FBECDBF7C019A01AB0135
:1020A00019A28E010F5D1F4F8AE0882E912CA12C62
:1020B000B12CCA01B901A50194010E943F3A605DAB
:1020C000F80162938F01211531054105510589F70A
:1020D00090E080E0309721F0BF01C7010E942C10F2
:1020E000A1960FB6F894DEBF0FBECDBFDF91CF91A2
:1020F0001F910F91FF90EF90BF90AF909F908F90A6
:102100000895CF93DF93BC018CE894E10E942C10DA
:10211000EC0169E17BE08CE894E10E942C108C0FCB
:102120009D1FDF91CF9108954F925F926F927F92A2
:102130009F92AF92BF92CF92DF92EF92FF920F9356
:102140001F93CF93DF93CDB7DEB7E0970FB6F89428
:10215000DEBF0FBECDBF982EF62E8A01462F50E06F
:1021600088E0BE016F5F7F4F5B01DB01E82F1D92AE
:10217000EA95E9F7FE013996DF01682F1D926A950D
:10218000E9F73896DF01682F1D926A95E9F73896CE
:10219000DF01682F1D926A95E9F73896DF01682FF5
:1021A0001D926A95E9F73896DF011D928A95E9F745
:1021B000CA01BC01641B750B8217930718F4840FC6
:1021C000951FF7CF261B370BB90190E080E00E94E6
:1021D000BB372B013C016F2D70E090E080E00E9446
:1021E000BB379B01AC01C301B2010E9461396B0195
:1021F0007C01B1E09B1661F0E2E09E1609F4AFC0ED
:102200008CE19BE00E948110C12CD12C760140C052
:102210002BEA3AEA4AEA5EE30E94B63787FF12C029
:102220008FEF8A838D8388E0F501ADEEB0E10190F8
:102230000D928A95E1F720E030E040E450E4C701D8
:10224000B60122C02BEA3AEA4AE25FE3C701B601CF
:102250000E94B63787FF72C08FEF8B878E8788E02A
:10226000FE013996ADEEB0E101900D928A95E1F74D
:102270002BEA3AEA4AEA5EE3C701B6010E94F43863
:1022800020E030E040E450E40E941C386B017C0107
:10229000B090F1106091ED106B19770B072E000CC8
:1022A000880B990B0E94BD37A70196010E941C382C
:1022B0000E94D3396B0DD8016C93B090F2106091ED
:1022C000EE106B19770B072E000C880B990B0E94F0
:1022D000BD37A70196010E941C380E94D3396B0DAF
:1022E000F8016183B090F3106091EF106B19770BD8
:1022F000072E000C880B990B0E94BD37A701960191
:102300000E941C380E94D3396B0DD80112966C9331
:10231000E0960FB6F894DEBF0FBECDBFDF91CF9130
:102320001F910F91FF90EF90DF90CF90BF90AF90F3
:102330009F907F906F905F904F9008958FEF898B63
:102340008F8B88E0FE017196ADEEB0E101900D92A9
:102350008A95E1F72BEA3AEA4AE25FE38DCF2BEA6E
:102360003AEA4AEA5EE30E94B63787FF07C08FEF7A
:102370008B8F8D8F88E0FE01799657CF2BEA3AEA52
:102380004AE25FE3C701B6010E94B63787FF07C084
:102390008FEF8AA38FA388E0FE01B19663CF8FEF02
:1023A00089A78EA788E0FE01B996CECF2F923F92E3
:1023B0004F925F926F927F928F929F92AF92BF9255
:1023C000CF92DF92EF92FF920F931F93CF93DF9301
:1023D00000D0CDB7DEB7FC017B016A0122813381D9
:1023E000190144E0241A3108DC01A358BF4F5C9165
:1023F00059832330310519F02630310529F4DF01E6
:10240000A258BF4F8C918983DF01A458BF4F6C90B5
:10241000862C912CC601B4010E94173A762E689D35
:102420005001699DB00C112424014A0C5B1C93E0FF
:102430002916310408F014C177247394760E09F438
:102440000FC1472D50E0CA010197889E5001899E17
:10245000B00C989EB00C1124679C200111242530EB
:10246000310509F4E8C0992493942630310509F424
:102470001EC1AF01470D511DCA01805C9F4FDC0199
:102480008C918823A1F0B4E08B9FB00111249B01B3
:102490002E0F3F1F3B832A83992049F0DA01DF96F4
:1024A0000C91B4E00B9F800111240E0F1F1F398186
:1024B000731608F071C04A815B81452B09F472C024
:1024C000992009F4A7C00115110509F46BC0CA18B9
:1024D000DB08B60190E080E00E94BB373B014C0175
:1024E0004A185B08B20190E080E00E94BB379B0174
:1024F000AC01C401B3010E9461394B015C01D801F8
:10250000DC90EA81FB8160816D19770B072E000C4E
:10251000880B990B0E94BD37A50194010E941C38BD
:102520000E94D3396D0DD7016C93F801D180AA8137
:10253000BB8111966C916D19770B072E000C880BDF
:10254000990B0E94BD37A50194010E941C380E947E
:10255000D3396D0DF7016183D80112961C91EA8180
:10256000FB816281611B770B072E000C880B990B96
:102570000E94BD37A50194010E941C380E94D339E6
:10258000610FD70112966C930DC0912C72CF4A81C6
:102590005B8184179507E1F4D7011D921D921D926E
:1025A0001C9213970F900F900F90DF91CF911F9176
:1025B0000F91FF90EF90DF90CF90BF90AF909F90E2
:1025C0008F907F906F905F904F903F902F900895E5
:1025D0000196A9018617970750F42D91240F352FE6
:1025E000311D2C153D0598F2782E29015A01872DB1
:1025F00090E00196880F991F880F991F9F01280F5F
:10260000391F3B832A83992009F451CF8C01045050
:1026100011094BCFB3E02B16310420F2EA81FB8184
:102620008081D7018C93818111968C93119782813F
:1026300012968C93B7CF9A012F5F3F4F220F331F13
:10264000220F331F2E0F3F1F3B832A838A01000F67
:10265000111F000F111F0E0F1F1F9924939427CFD6
:102660002330310519F1A0F42130310509F48DCF63
:1026700022303105A9F4472D50E04F5F5F4F440FE2
:10268000551F440F551F4E0F5F1F5B834A830CC0BD
:102690002530310581F308F478CF2630310531F04B
:1026A00087E39BE00E948110912C01CF912CDF01E8
:1026B000A258BF4F6C9170E0CB0101979B838A8336
:1026C00090E080E0DE9750E040E084CFFC01228182
:1026D00033812A30310531F49A01AB01658184815F
:1026E0000C9494100C94D6114DE050E007960C9485
:1026F000BA3C0E94953CFC0180819181009711F0C9
:102700000C942B3B0895EF92FF920F931F93CF935E
:10271000DF93EC017B018A0188819981009729F080
:102720002A813B812417350788F4B8016F5F7F4FFA
:102730000E94B43B009791F0998388831B830A839E
:102740002C813D81232B11F4FC0110821D830C830D
:10275000B701888199810E94A33C0CC0888199812E
:10276000009711F00E942B3B198218821D821C8257
:102770001B821A82CE01DF91CF911F910F91FF90A2
:10278000EF900895EF92FF920F931F93CF93DF93F3
:1027900000D000D000D0CDB7DEB78C01862FF80175
:1027A0001182108213821282158214824AE09E01E5
:1027B0002F5F3F4F7901B90190E00E948C37F701FC
:1027C00001900020E9F73197AF014E195F09B70179
:1027D000C8010E94831329960FB6F894DEBF0FBE7E
:1027E000CDBFDF91CF911F910F91FF90EF90089592
:1027F000CF93DF931F921F92CDB7DEB7FC011182FA
:102800001082138212821582148269831A82BE0199
:102810006F5F7F4FFB0101900020E9F73197AF0117
:10282000461B570B0E9483130F900F90DF91CF919F
:1028300008950F931F93CF93DF9300D000D0CDB7AF
:10284000DEB78C016A30C8F4CE0101960E94C21333
:10285000BE016F5F7F4FC8010E94E503CE01019664
:102860000E947B1326960FB6F894DEBF0FBECDBF35
:10287000DF91CF911F910F9108956A50653050F408
:10288000E62FF0E0EF56F54F6081CE0101960E94F1
:10289000F813DECF66E4F9CF4F925F926F927F928A
:1028A0009F92AF92BF92CF92DF92EF92FF920F93DF
:1028B0001F93CF93DF93CDB7DEB72C970FB6F89465
:1028C000DEBF0FBECDBF5C016B01F42E122FDB010A
:1028D0001A968C911A9751969C915197E82FE91B63
:1028E000FF0B1E171F0699F094F0891B089F800D9F
:1028F000112494E1981B892F14969C91149791FFB1
:1029000004C0869552968C9302C092FDFBCFF601CF
:1029100067856117D8F480898017C0F4438996854C
:10292000490F069F600D11249289890F680FC50118
:102930000E94E60FEE2009F441C06EE272E0C5018C
:102940000E94C80FF60180898F5F808BD601509658
:102950008C915097801708F47FC050961C92509726
:102960001F969C901F97E110B8C0602F043008F0AC
:1029700063E0C6010B96F60126812F3F99F1FF24F3
:10298000FA94F60EFC01412C512C32014FEFF41653
:1029900069F1219130E050E040E0A0E061E070E0BA
:1029A00080E090E0FA1609F46DC0B4E0660F771F7E
:1029B000881F991FBA95D1F7AF5FF4CFD601509613
:1029C000EC91E33020F4EC0DFD2DF11DF386B50103
:1029D000CE0101960E94620F6F2DCE0101960E94DA
:1029E0001914B0CF0E948B082B013C01D601199617
:1029F0008C9190E0B0E0A0E084159505A605B705A0
:102A000008F44DC0F601808590E0B0E0A0E04816E3
:102A100059066A067B0608F442C093949786E189BA
:102A2000EF5FD6015196EC93519754968D919C91FE
:102A30005597009779F11A962C912E1758F1E80FB7
:102A4000F92FF11D31974082F6018785811720F01B
:102A5000178686858F5F86872C960FB6F894DEBF23
:102A60000FBECDBFDF91CF911F910F91FF90EF90DF
:102A7000DF90CF90BF90AF909F907F906F905F90CE
:102A80004F9008950E94073A460E571E681E791E01
:102A9000FA947CCF85E49BE00E948110D5CFF12C85
:102AA000E12C602E712C0F5FF6018785E614F70488
:102AB00058F643899685490F6289089F600D112455
:102AC0006E0DC5010E94E60F6CE272E0C5010E9426
:102AD000C80FFFEFEF1AFF0AE7CF93941F969C925F
:102AE0001F9751968C9151978F5F51968C93ACCFD5
:102AF0008F929F92AF92BF92CF92DF92EF92FF920E
:102B00000F931F93CF93DF93CDB7DEB7CF56D10985
:102B10000FB6F894DEBF0FBECDBF6C015A01922EE6
:102B2000F02ECE0101960E94C50ECE0101960E94A4
:102B3000D208882E8FEF88122BC00091BB036091C2
:102B4000D8100F3F29F110E0F501E60FF11DD80173
:102B5000A054B54F8C9182836F0D4E2DC6010E94FB
:102B6000E60FF801EB57F54F6081CE0101960E9408
:102B7000F813BE016F5F7F4FC6010E94E503CE01CF
:102B800001960E947B138091D8108F5F8093D8109C
:102B90008092BB038091D8108330A0F063E0C50120
:102BA00002960E948B08092D10E030E020E0061705
:102BB000170728073907D0F0F501618381E080838A
:102BC0001092D810C159DF4F0FB6F894DEBF0FBE78
:102BD000CDBFDF91CF911F910F91FF90EF90DF90CC
:102BE000CF90BF90AF909F908F9008954E2D6F2DF6
:102BF000C6010E94E60F60E372E0C6010E94C80FA2
:102C0000DFCFCF92DF92EF920F931F93CF93DF939B
:102C1000CDB7DEB7CB57D1090FB6F894DEBF0FBEE4
:102C2000CDBF6C01FA01102F8E2D42E0E42E8111F0
:102C300002C093E0E92E9091E810911125C0CE01D9
:102C400001960E94C50EB601CE0180599F4F0E9489
:102C5000620F03E02FEF48EE50E1BE016F5F7F4F40
:102C6000CE0180599F4F0E947815C558DF4F0FB68F
:102C7000F894DEBF0FBECDBFDF91CF911F910F91B2
:102C8000EF90DF90CF9008959091E31091110FC0D5
:102C9000CE0101960E94C50EB601CE0180599F4F0C
:102CA0000E94620F0AE02FEF43EE50E1D6CF9091E1
:102CB000DE1091110FC0CE0101960E94C50EB60123
:102CC000CE0180599F4F0E94620F01E12FEF4EED20
:102CD00050E1C3CF9091D910911113C0882389F08E
:102CE000CE0101960E94C50EB601CE0180599F4FBC
:102CF0000E94620F83E0E82E00E1212F49ED50E1B0
:102D0000ACCF91E093839091E91090839091E4107F
:102D100091839091DF109283882321F08091DA10C3
:102D2000F90180831092E8101092E3101092DE10E7
:102D30001092D9109ACFFC01118210821382128254
:102D4000158214826115710551F0FB01019000207C
:102D5000E9F73197AF01461B570B0C948313089585
:102D60001F93CF93DF93CDB7DEB768970FB6F89474
:102D7000DEBF0FBECDBF162FBC01CE010D960E9447
:102D8000620FCE010D960E94231040E060E0CE015C
:102D90000D960E94E60F66E17AE0CE0101960E9450
:102DA0009B16BE016F5F7F4FCE010D960E94E5031B
:102DB000CE0101960E947B13BE01635F7F4FCE015F
:102DC00001960E94620FCE0101960E94151041E00B
:102DD00060E0CE010D960E94E60F63E27AE0CE013C
:102DE00001960E949B16BE016F5F7F4FCE010D962C
:102DF0000E94E503CE0101960E947B13112311F17D
:102E000042E060E0CE010D960E94E60F6CED73E0AB
:102E1000CE010D960E94C80F43E060E0CE010D96F2
:102E20000E94E60F68EC73E0CE010D960E94C80F79
:102E300068960FB6F894DEBF0FBECDBFDF91CF917D
:102E40001F91089543E060E0CE010D960E94E60FC9
:102E500063EB73E0E9CF8F929F92AF92BF92CF92D4
:102E6000DF92EF92FF920F931F93CF93DF93CDB733
:102E7000DEB72C970FB6F894DEBF0FBECDBF7C0136
:102E80004B015A0169010E94231040E060E0C70134
:102E90000E94E60FB401CE0101960E949B16BE016E
:102EA0006F5F7F4FC7010E94E503CE0101960E942C
:102EB0007B13B701CE0101960E94620FCE010196ED
:102EC0000E94151041E060E0C7010E94E60FB501C5
:102ED000CE0101960E949B16BE016F5F7F4FC70116
:102EE0000E94E503CE0101960E947B1342E060E060
:102EF000C7010E94E60FB601CE0101960E949B1603
:102F0000BE016F5F7F4FC7010E94E503CE010196AE
:102F10000E947B1343E060E0C7010E94E60FB80106
:102F2000CE0101960E949B16BE016F5F7F4FC701C5
:102F30000E94E503CE0101960E947B132C960FB6EA
:102F4000F894DEBF0FBECDBFDF91CF911F910F91DF
:102F5000FF90EF90DF90CF90BF90AF909F908F90B9
:102F60000895CF92DF92EF92FF920F931F93CF932A
:102F7000DF93CDB7DEB7CF56D1090FB6F894DEBFD9
:102F80000FBECDBF6B017A012091BE03222399F0C1
:102F9000BC01CE0101960E94620F05E51BE02FE502
:102FA0003BE040E75BE06BE17BE0CE0101960E94F5
:102FB0002B171092BE03B601CE0101960E94C50EDA
:102FC000CE0101960E94D2088F3F51F49091BD032B
:102FD0009F3F31F09AE0F701908391E09093BE0318
:102FE0008093BD03C159DF4F0FB6F894DEBF0FBE0B
:102FF000CDBFDF91CF911F910F91FF90EF90DF90A8
:10300000CF900895CF93DF93CDB7DEB7CC57D109DA
:103010000FB6F894DEBF0FBECDBF8FEFED968FAF2A
:10302000ED976EE475E1CE0101960E94C50E62E453
:1030300075E1CE0180599F4F0E94620FAE01445846
:103040005F4FBE016F5F7F4FCE0180599F4F0E943F
:10305000B117ED968FADED97C458DF4F0FB6F894CA
:10306000DEBF0FBECDBFDF91CF910895CF92DF922B
:10307000EF92FF920F931F93CF93DF93CDB7DEB7FD
:103080002C970FB6F894DEBF0FBECDBF8C016B013D
:103090007A010E942310B801CE0101960E94620FAE
:1030A000CE0101960E94151041E060E0C8010E9427
:1030B000E60F64E372E0C8010E94C80F42E060E0DE
:1030C000C8010E94E60FB601CE0101960E949B1630
:1030D000BE016F5F7F4FC8010E94E503CE010196DC
:1030E0000E947B1343E060E0C8010E94E60FB70135
:1030F000CE0101960E949B16BE016F5F7F4FC801F3
:103100000E94E503CE0101960E947B132C960FB618
:10311000F894DEBF0FBECDBFDF91CF911F910F910D
:10312000FF90EF90DF90CF9008952F923F924F92B3
:103130005F926F927F928F929F92AF92BF92CF9247
:10314000DF92EF92FF920F931F93CF93DF93CDB750
:10315000DEB7CC5FD1090FB6F894DEBF0FBECDBF8E
:103160005C016A01CE0180599F4F0E94C50EB501D6
:10317000CE0185519F4F0E94620FD60116969C91F9
:10318000169719968C919F3F49F48A3048F093E046
:10319000F92E843638F482E0F82E04C08031D8F756
:1031A000FF24F3946F2D70E06F5F7F4F84E190E018
:1031B0000E942B3A4B01F601818131E043E08823E4
:1031C00011F032E042E0D6011A968C91880D992DCB
:1031D000911D0197B4010E942B3AC650DF4F6883BE
:1031E000CA5FD040461708F42EC2C750DF4F88820E
:1031F000C95FD040882DF89C800D112424E1281B44
:10320000461B632FC6010E94EC0ABE0160597F4F26
:10321000FE0131965F01CF010E94C50EC5010E94DB
:10322000D208C550DF4F8883CB5FD0408F3F09F075
:10323000F2C1E091BA03EF3F09F4EDC18091D710DC
:10324000D60116969C911697E9131FC0B1E0FB12A8
:103250001AC0F60191859A30B0F0811114C0BE01F8
:1032600065517F4FC5010E94620F05E81BE02AE906
:103270003BE04FEA5BE0B6016A5E7F4FC5010E940A
:103280002B17F092D71010E00BC1882309F45CC112
:10329000F0E0E054F54F108119968C911997895000
:1032A000990B181719067CF7165F5496ED91FC914F
:1032B00055973097A9F051968C91AF01D50190E0C8
:1032C0009D012A193B092817390770F4FA01219149
:1032D000AF012D939F0121503109F9011082F0CFE8
:1032E00083EC9BE00E948110D6011E962D903D90AC
:1032F0004D905C9051975196BC91C450DF4FB8836C
:10330000CC5FD040F60116861786108A118ACE014E
:1033100085519F4F0E94231040E060E0CE0185510F
:103320009F4F0E94E60FB6016A5E7F4FCE01815229
:103330009F4F0E949B16BE0161527F4FCE01855167
:103340009F4F0E94E503CE0181529F4F0E947B1345
:10335000BE0165517F4FCE0181529F4F0E94620F87
:10336000CE0181529F4F0E941510D60111968C916B
:103370008823E1F041E060E0CE0185519F4F0E943B
:10338000E60FB6016D5D7F4FCE0181529F4F0E94C7
:103390009B16BE0161527F4FCE0185519F4F0E9407
:1033A000E503CE0181529F4F0E947B13C950DF4F2E
:1033B000B982A882C75FD040C450DF4FB881CC5FCC
:1033C000D0406B2E712CC950DF4F88819981C75F27
:1033D000D0408A199B098615970520F5C950DF4F03
:1033E000E881F981C75FD0407190C950DF4FF98300
:1033F000E883C75FD040BE0165517F4FCE01815247
:103400009F4F0E94620FE12C0F2DC750DF4F288184
:10341000C95FD040472DB601CE0181529F4F0E9417
:103420004C14CACFD6011A968C9186151704E1F078
:10343000D8F0BE0165517F4FCE0181529F4F0E944F
:10344000620FEE24E3940F2DC750DF4F2881C95F30
:10345000D04040E0B601CE0181529F4F0E944C14F3
:10346000BFEF6B1A7B0ADECFF60126863786408ACD
:10347000518A81890488F589E02D309759F0D5016A
:1034800090E09D012A193B092817390738F42D913E
:103490002193F7CF8FED9BE00E9481101092D710FF
:1034A00081E0F60121899285291708F080E0D60194
:1034B00013962C91139731E0232782239091D710F4
:1034C0009327892309F4A7C01E968C91C650DF4F1D
:1034D000B881CA5FD0408B1708F09DC0BE0165510E
:1034E0007F4FCE0181529F4F0E94620FE12C0F2D22
:1034F000282D412FB601CE0181529F4F0E944C14BE
:10350000F6018281882309F486C0F1E0FF1283C0AE
:10351000D6015496ED91FC915597309729F151962B
:103520008C91AF01D50190E09D012A193B09281724
:103530003907F0F4FA012191AF012D939F01215039
:103540003109F9011082F0CF17968C9117978F3FB0
:1035500031F0E81304C081E013968C9394CEF0E030
:10356000E054F54F10819CCF83EC9BE00E948110CA
:10357000D6011E962D903D904D905C90519751969E
:103580006C90712CF60191898285981748F5450158
:10359000D60151969C9151971A968C9194012A19B3
:1035A0003B092615370570F7981760F7F40111915C
:1035B0004F01BE0165517F4FCE0181529F4F0E9446
:1035C000620FE12C01E0C750DF4F2881C95FD04076
:1035D000412FB601CE0181529F4F0E944C14D8CF8B
:1035E000D60126863786408A518A0488F589E02DDF
:1035F000309769F051968C91D50190E09D012A1980
:103600003B092817390738F42D912193F7CF8FED17
:103610009BE00E948110C550DF4FB881CB5FD04046
:10362000B093BA03F60191898285981718F48381C3
:10363000882349F081E0D60113968C93F601168613
:103640001786108A118AC450DF4F0FB6F894DEBF78
:103650000FBECDBFDF91CF911F910F91FF90EF90E3
:10366000DF90CF90BF90AF909F908F907F906F90A2
:103670005F904F903F902F900895BF92CF92DF922E
:10368000EF92FF920F931F93CF93DF93CDB7DEB7E7
:10369000C250D1400FB6F894DEBF0FBECDBF8C0133
:1036A0006A01CE0180599F4F0E94C50EB801CE011C
:1036B00089509F4F0E94620FCE0189509F4F0E94F8
:1036C000231040E060E0CE0189509F4F0E94E60F3A
:1036D000B6016A5E7F4FCE0101960E949B16BE0125
:1036E0006F5F7F4FCE0189509F4F0E94E503CE014F
:1036F00001960E947B13BE0169507F4FCE01019657
:103700000E94620FCE0101960E941510D6011196FB
:103710008C918823D1F041E060E0CE0189509F4F29
:103720000E94E60FB6016D5D7F4FCE0101960E94AB
:103730009B16BE016F5F7F4FCE0189509F4F0E9445
:10374000E503CE0101960E947B13BE0160597F4FB5
:10375000CE0101960E94C50EBE0169507F4FCE0179
:1037600085519F4F0E94620FF601968181859F3F90
:1037700039F48A3038F013E0843628F412E003C0BC
:103780008031E0F711E0612F70E06F5F7F4F84E1DF
:1037900090E00E942B3A9B01D60111968C91E2E0B9
:1037A00042E0811102C0E1E043E0D6011A968C911B
:1037B000820F932F911D0197B9010E942B3AF62E8B
:1037C000461778F1B22E129F200D112484E1821B3E
:1037D000282F461B6E2FC6010E94EC0AF601868533
:1037E0008F15C0F4918982859817A0F4BE016551A8
:1037F0007F4FCE0181529F4F0E94620FEE24E394CF
:10380000012F2B2D40E0B601CE0181529F4F0E9427
:103810004C14E4CFD6011E961D921D921D921C924F
:103820005197CE5FDE4F0FB6F894DEBF0FBECDBF0F
:10383000DF91CF911F910F91FF90EF90DF90CF908C
:10384000BF900895CF92DF92EF92FF920F931F9354
:10385000CF93DF93CDB7DEB7C359D1090FB6F89434
:10386000DEBF0FBECDBF7C016B0180914207882374
:1038700009F46FC04DE050E06DE07CE088E597E032
:103880000E94BA3C85E0E6E4FAE0DE01A059BF4FB1
:1038900001900D928A95E1F780E1E0E7F0E0EC0F0E
:1038A000FD1F3596DF011D928A95E9F74AE0BE01BA
:1038B0006F567F4F83E090E00E94813765E170E0B2
:1038C000CE0180599F4F0E94763704E110E0A80195
:1038D000481B590BBE016F567F4FCE0180599F4F39
:1038E0000E94AA3C65E170E0CE0180599F4F0E9482
:1038F0007637A801481B590B67E17CE0CE0180595F
:103900009F4F0E94AA3C45E150E0BE0160597F4FA5
:1039100085E697E00E94BA3C85EE93E190935707C5
:1039200080935607B601CE0101960E94C50EB701DD
:10393000CE018B579F4F0E94620F42E457E0BE01B9
:103940006F5F7F4FCE018B579F4F0E943D1B1092A0
:103950004207B601CE0101960E94C50EB701CE0105
:1039600080599F4F0E94620F42E457E0BE016F5F93
:103970007F4FCE0180599F4F0E949518CD56DF4F43
:103980000FB6F894DEBF0FBECDBFDF91CF911F9170
:103990000F91FF90EF90DF90CF9008959F92AF929C
:1039A000BF92CF92DF92EF92FF920F931F93CF932C
:1039B000DF93CDB7DEB7A5970FB6F894DEBF0FBE85
:1039C000CDBF8C017B01BC01CE0144960E94620FE9
:1039D000CE0144960E94231040E060E0CE01449660
:1039E0000E94E60FB701695F7F4FCE0101960E94EA
:1039F0009B16BE016F5F7F4FCE0144960E94E50388
:103A0000CE0101960E947B13BE016C5E7F4FCE01FA
:103A100001960E94620FCE0101960E941510F701D7
:103A2000268181E0233008F480E0F7019181892329
:103A300091E0243008F490E0892BF70182838823F9
:103A4000C1F042E062E1CE0144960E94E60F63E2DB
:103A500072E0CE0144960E94C80F43E062E1CE01BD
:103A600044960E94E60F60E272E0CE0144960E9406
:103A7000C80FB801CE0144960E94620F01E010E029
:103A800083E1982E5701F4E1AF0EB11CF701848158
:103A90009801280F311D96819217130608F458C01B
:103AA000C02ED82ED00E402F60E0CE0144960E944A
:103AB000E60F6D2DCE0180960E94C213BE01605E9E
:103AC0007F4FCE0144960E94E503CE0180960E946E
:103AD0007B13402F61E0CE0144960E94E60F6AE21C
:103AE00072E0CE0144960E94C80FF701828140E146
:103AF000811101C043E150E02D2D2150330B929EE6
:103B0000B001939E700D11246A0D7B1DCE010196AC
:103B10000E94BA3C4C2D62E0CE0144960E94E60F12
:103B2000BE016F5F7F4FCE0180960E949B16BE0143
:103B3000605E7F4FCE0144960E94E503CE018096E1
:103B40000E947B130F5F1F4F0430110509F09ECFB9
:103B5000F701858190E00196348121E0381719063C
:103B600009F020E081E00430110508F080E0282B06
:103B700099F1F7018181882379F1402F60E0CE012E
:103B800044960E94E60F68E272E0CE0144960E94DD
:103B9000C80F402F61E0CE0144960E94E60F66E216
:103BA00072E0CE0144960E94C80F402F62E0CE0121
:103BB00044960E94E60F62E27CE0CE0180960E946D
:103BC0009B16BE01605E7F4FCE0144960E94E503C6
:103BD000CE0180960E947B13A5960FB6F894DEBFA7
:103BE0000FBECDBFDF91CF911F910F91FF90EF904E
:103BF000DF90CF90BF90AF909F900895DF92EF92AB
:103C0000FF920F931F93CF93DF93CDB7DEB7CF56BD
:103C1000D1090FB6F894DEBF0FBECDBF7C018A017B
:103C2000CE0101960E94C50ECE0101960E94D208D7
:103C3000D82E8FEFD8120AC08091BC038F3F31F08D
:103C4000F8015681851798F48F5F8383D092BC0367
:103C5000C159DF4F0FB6F894DEBF0FBECDBFDF9165
:103C6000CF911F910F91FF90EF90DF9008953181D8
:103C7000332311F08A3049F3893069F08B3091F0A9
:103C8000B701CE0101960E94620FB801CE010196E4
:103C90000E94CE1CDBCFF8018481882389F38150F8
:103CA0008483EECFF8012581948181E0291708F4FF
:103CB00080E041E0533008F440E08423832311F492
:103CC0009217F0F69F5FF8019483DACF0F931F935A
:103CD000CF93DF93CDB7DEB72C970FB6F894DEBF46
:103CE0000FBECDBF8B01BC01CE0101960E94620FB9
:103CF000B801CE0101960E94CE1C2C960FB6F89406
:103D0000DEBF0FBECDBFDF91CF911F910F91089500
:103D10002F923F924F925F926F927F928F929F92DB
:103D2000AF92BF92CF92DF92EF92FF920F931F93C9
:103D3000CF93DF93CDB7DEB7CF50D1400FB6F89415
:103D4000DEBF0FBECDBF8C017B016A01922EDA016E
:103D500012962D913C915901B4E0AB1AB108E09153
:103D6000130AF091140AE830F10508F063C78827B8
:103D7000E354F14E8F4F0C94803AC51EEB1E511F39
:103D8000A71F46218222A722F52210927F140E94AB
:103D900039020E945F0581E090E09093140A8093BD
:103DA000130AC15FDE4F0FB6F894DEBF0FBECDBF62
:103DB000DF91CF911F910F91FF90EF90DF90CF9007
:103DC000BF90AF909F908F907F906F905F904F903B
:103DD0003F902F90089580ED97E0A0E0B0E08093B1
:103DE0000B0A90930C0AA0930D0AB0930E0A8AE076
:103DF0009AE00E94900E11E0109338091093000988
:103E00001093C8081093900810938F08109203091C
:103E10001092CB08109293088FEF80933B097601A4
:103E2000ECE7EE0EF11CD7011D921D921D921C9223
:103E30001397C6010E946D0AB4E09B1679F1B9157B
:103E400058F0E2E09E1679F0F3E09F16B1F082E3BD
:103E50009CE00E948110A5CF26E082E090E0291529
:103E600008F09BCFF4CFF601E358FF4F108382E3B5
:103E7000D7018C9387E090E090CFF601E358FF4F95
:103E800082E0808389E1F7018083D60112968D91CB
:103E90009C91059779F782E38083ECCF84E090E0F2
:103EA0007CCF809138098823A9F16FE37CE088E317
:103EB00099E00E94741383E1E7E4FCE0B3E0AB1601
:103EC000B10410F0EAE5FCE0DE01119601900D92DC
:103ED0008A95E1F743E150E0BE016F5F7F4F8CE4CC
:103EE00099E00E94BA3C43E150E06DE67CE08FE54A
:103EF00099E00E94BA3CB801CE0180599F4F0E94C0
:103F0000620F68E379E0CE0180599F4F0E94661EE0
:103F100010923809B701CE0101960E94C50EB80172
:103F2000CE0180599F4F0E94620F48E359E0BE01C5
:103F30006F5F7F4FCE0180599F4F0E94FE1D809181
:103F40003B098F3F09F42DCF83E090E026CF80918D
:103F500000098823F1F080913B098130E1F1823042
:103F600009F4D4C0B701CE0101960E94C50EB80174
:103F7000CE0184519F4F0E94620F40E059E0BE0184
:103F80006F5F7F4FCE0184519F4F0E943D1B109267
:103F90000009B701CE0101960E94C50EB801CE01FD
:103FA00080599F4F0E94620F40E059E0BE016F5F51
:103FB0007F4FCE0180599F4F0E94951880913B09F9
:103FC000813009F40FC1823009F43FC185EF9CE0D4
:103FD0000E94811022C12430310509F474C008F018
:103FE00062C02130310509F46EC02230310509F07C
:103FF00065C04DE050E06CE77CE0CE0181529F4F00
:104000000E94BA3C45E150E062E87CE0CE01805974
:104010009F4F0E94BA3C6DE070E0CE0181529F4FED
:104020000E9476374CE050E0481B590BE3E0AE1697
:10403000B10408F056C068EE7DE0CE0181529F4F7A
:104040000E94AA3C65E170E0CE0180599F4F0E941A
:10405000763744E150E0481B590B6BEC7CE0CE0115
:1040600080599F4F0E94AA3C109208098EE18093CC
:1040700009094DE050E0BE0161527F4F86E199E0B1
:104080000E94BA3C45E150E0BE0160597F4F83E297
:1040900099E00E94BA3CC60183589F4F909315093E
:1040A000809314095FCF2730310569F0283031053E
:1040B00009F49FCF2530310509F49BCF80EA9CE0BD
:1040C0000E948110A8CF4DE050E06DE87CE0CE0169
:1040D00081529F4F0E94BA3C45E150E064E97CE088
:1040E00095CF62ED7CE0CE0181529F4F0E94AA3CA9
:1040F00065E170E0CE0180599F4F0E94763744E120
:1041000050E0481B590B68ED7CE0A9CF4DE050E032
:104110006FED7CE086E199E00E94BA3C4AE0BE0186
:104120006C5F7E4F81E090E00E9481374AE0BE01E3
:1041300068507F4F82E390E00E94813745E150E074
:1041400067EE7CE0CE0180599F4F0E94BA3C65E14A
:1041500070E0CE0180599F4F0E94763724E1822E75
:10416000912CA401481B590BBE016C5F7E4FCE0100
:1041700080599F4F0E94AA3C65E170E0CE018059B2
:104180009F4F0E947637A401481B590B6DEE7CE0CF
:10419000CE0180599F4F0E94AA3C65E170E0CE019C
:1041A00080599F4F0E947637A401481B590BBE01CE
:1041B00068507F4FCE0180599F4F0E94AA3C45E135
:1041C00050E0BE0160597F4F83E299E00E94BA3C03
:1041D00081E08093080982E380930909C60184582D
:1041E0009F4F5CCFF601E358FF4F208130E050E055
:1041F00040E0F3E0AF16B10430F42150330B032E4E
:10420000000C440B550B62E370E080E090E00E94EC
:104210003F3AF601E458FF4F208380910309882339
:1042200009F4BFCDD60112968D919C9184309105F1
:1042300009F434CE00F58130910509F42FCE0297B0
:1042400009F418CE82E19DE004CEF601E458FF4F58
:10425000208130E050E040E062E370E080E090E0F8
:104260000E943F3AF601E358FF4F33E0A316B10432
:1042700098F62F5FD1CF8730910509F40FCE8830A3
:10428000910509F4F7CD0597E9F6F4CD8091C808BA
:10429000882309F4EAC085E0E6E4FAE0DE01A059EB
:1042A000BF4F01900D928A95E1F780E1E0E7F0E0E1
:1042B000EC0FFD1F3596DF011D928A95E9F724303A
:1042C000310599F120F52130310579F1233031059F
:1042D00039F54DE050E06CE47DE0CE0181529F4F16
:1042E0000E94BA3C65E170E0CE0180599F4F0E9468
:1042F000763744E150E0481B590B64E57DE0CE0180
:1043000080599F4F0E94AA3CAFE09A2E53C027309D
:10431000310559F029303105E1F226303105C9F275
:104320008AEA9DE00E948110EFCF3601BDE76B0E57
:10433000711CF3018081803108F08FE04AE0BE01FA
:1043400068507F4F90E00E9481374DE050E06DE56E
:104350007DE0CE0181529F4F0E94BA3C65E170E042
:10436000CE0180599F4F0E947637B4E18B2E912C5D
:10437000A401481B590BBE0168507F4FCE018059E4
:104380009F4F0E94AA3C65E170E0CE0180599F4F8B
:104390000E947637A401481B590B6EE57DE0CE01E3
:1043A00080599F4F0E94AA3CD3019C90BFE0B91551
:1043B00008F4AACF6DE070E0CE0181529F4F0E94B9
:1043C00076374CE050E0481B590BE3E0AE16B104E1
:1043D00008F076C064E67DE0CE0181529F4F0E94D6
:1043E000AA3C65E170E0CE0180599F4F0E9476376C
:1043F00044E150E0481B590B6BEC7CE0CE01805946
:104400009F4F0E94AA3C4DE050E0BE0161527F4F99
:104410008EED98E00E94BA3C45E150E0BE01605943
:104420007F4F8BEE98E00E94BA3C9092D108C60173
:1044300082589F4F9093DD088093DC08B701CE012E
:1044400001960E94C50EB801CE0184519F4F0E9473
:10445000620F48EC58E0BE016F5F7F4FCE01845180
:104460009F4F0E943D1B1092C808B701CE010196D4
:104470000E94C50EB801CE0180599F4F0E94620F65
:1044800048EC58E0BE016F5F7F4FCE0180599F4FCF
:104490000E9495188091CB08882309F482CCD6011C
:1044A00012968D919C918430910549F1F0F4813000
:1044B000910529F1039709F4DDCC8EE69DE0C9CC86
:1044C00069E67DE0CE0181529F4F0E94AA3C65E1E2
:1044D00070E0CE0180599F4F0E94763744E150E052
:1044E000481B590B68ED7CE089CF8730910539F086
:1044F0008930910509F4BECC0697F9F6BBCC85E06E
:1045000090E04BCC80918F088823B1F0B801CE01A8
:1045100001960E94620F0BE11BE025E83DE0A80137
:1045200068E97DE0CE0101960E942B1710928F085A
:104530008AE09AE00E94900E61E08AE09AE00E9490
:104540009D0E882309F42DCC86E090E026CC809146
:104550009008882381F14DE050E068E97DE086EA2B
:1045600098E00E94BA3CF601E258FF4F80818093A8
:104570009908C601805C9F4F9093A5088093A4087A
:104580003197808180939A08B701CE0101960E94ED
:10459000C50EB801CE0180599F4F0E94620F40E9BD
:1045A00058E0BE016F5F7F4FCE0180599F4F0E9440
:1045B0003D1B10929008B701CE0101960E94C50ED6
:1045C000B801CE0180599F4F0E94620F40E958E028
:1045D000BE016F5F7F4FCE0180599F4F0E9495189B
:1045E00080919308811146CCDCCBCE0180599F4F3E
:1045F0000E94C50EB801CE0188509F4F0E94620FE5
:10460000D6011296ED91FC918F01045011095F01C2
:10461000B7E0AB1AB1080330110508F026C3D60184
:10462000A158BF4F9C91992309F41FC38FEF890FA5
:1046300041E03697F1F0692E712C2FEF621A720A61
:10464000660C771C660C771C6C0C7D1C90E0019648
:10465000880F991F880F991FA601480F591FC95F1E
:10466000DE4F59834883C750D14041E021C080E0EC
:1046700040E0F601E158FF4F6080712CEFEF6E1AB9
:104680007E0A660C771C660C771C6C0C7D1C442320
:1046900079F090E00196880F991F880F991F960175
:1046A000280F391FC95FDE4F39832883C750D14097
:1046B0006114710409F4BBC2D60112968D919C91CC
:1046C0008330910561F08930910549F0863091057C
:1046D000F9F4F601E158FF4F20812223C9F0F601D9
:1046E000E158FF4F608170E0FF9730E020E0F12C4F
:1046F000E12C2617370758F55191E50EF11C2F5F75
:104700003F4FF7CF83EA9DE00E94811040E0D0CF79
:10471000812CF12CE12CF30153815111E6C0F3E01F
:10472000AF16B10408F484C08091150A882309F4F7
:1047300059C023E0921609F48DC0291558F032E0D3
:104740009316E9F089E19EE00E94811094C08824CC
:104750008394E1CF46E04915A8F34DE050E00330E3
:10476000110508F0B6C065EE7DE0CE0181529F4F85
:104770000E94BA3C45E150E06EEE7DE078C04DE02D
:1047800050E06BEB7DE0CE0181529F4F0E94BA3C1E
:1047900045E150E062EC7DE0CE0101960E94BA3C1A
:1047A0004DE050E0BE0161527F4F86E19AE00E94E9
:1047B000BA3C45E150E0BE016F5F7F4F83E29AE073
:1047C0000E94BA3CBE0168507F4FCE0184519F4F7A
:1047D0000E94620F682DCE0184519F4F0E94B01637
:1047E0001092150ABE0160597F4FCE0101960E94BA
:1047F000C50EBE0168507F4FCE0181529F4F0E946F
:10480000620F02E310E00E191F090F3F110519F0A6
:1048100010F00FEF10E0E82C960124583F4FA30151
:10482000BE016F5F7F4FCE0181529F4F0E940116E4
:10483000882009F4B6CAF601E158FF4FE081EC0D7B
:10484000FD2DF11DE05CFF4FD601A458BF4F8C91A8
:104850008083A7CA4DE050E061ED7DE0CE0181523A
:104860009F4F0E94BA3C45E150E067ED7DE0CE01EC
:1048700001960E94BA3CF601E158FF4F808190E01A
:104880004AE0BE016C5F7E4F01960E94813765E170
:1048900070E0CE0101960E94763704E110E0A80195
:1048A000481B590BBE016C5F7E4FCE0101960E94E2
:1048B000AA3C65E170E0CE0101960E947637A8011E
:1048C000481B590B69EC7EE0CE0101960E94AA3C80
:1048D00067CF6FEF7DE0CE0181529F4F0E94BA3CBF
:1048E00045E150E068E07EE0C2CF21E02093150A68
:1048F000F601E458FF4F2081622F70E0D601A158E5
:10490000BF4FC75FDE4FB983A883C950D1409C9089
:10491000299D90011124A92DB0E0FD0131960330AD
:104920001105B8F4992009F497C18330910561F01D
:104930001197A69F8001A79F100DB69F100D1124FF
:1049400029018630910599F42701460E571E8701EB
:1049500015C0E69F2001E79F500CF69F500C1124D4
:104960008330910541F08630910529F08901893025
:10497000910521F4980189019110E6CFB3E0AB16BF
:10498000B10408F40ECAD601A258BF4F2C912E17BD
:104990001F0671F06CF09C01235031092230310563
:1049A000C0F186309105A9F121E08130910509F02F
:1049B00020E0D601A358BF4F3C913E171F0639F0A7
:1049C00034F08230910521F051E0059709F050E074
:1049D000211103C0552309F4BDC0F801EE0FFF1FDC
:1049E000E00FF11F411117C0E751FC4E04151505EA
:1049F00008F0A5C0D30112968C91129711969C9144
:104A000011972C912083918382830F5F1F4F3396E0
:104A1000EDCF252FCECF9F0127513C4E19017801B4
:104A2000C201801B910B9C0150E040E0C45FDE4F4F
:104A3000288339834A835B83CC50D140E414F50446
:104A400008F07DC0B701601B710B90E080E00E9410
:104A5000BB374B015C01C45FDE4F688179818A817D
:104A60009B81CC50D1400E94BB379B01AC01C5015A
:104A7000B4010E9461394B015C01C95FDE4FA8811E
:104A8000B981C750D1401296DC90F30162816D1953
:104A9000770B072E000C880B990B0E94BD37A501E0
:104AA00094010E941C380E94D339D60EC95FDE4F94
:104AB000A881B981C750D1401196CC90F301618192
:104AC0006C19770B072E000C880B990B0E94BD37D1
:104AD000A50194010E941C380E94D339C60EC95FFB
:104AE000DE4FA881B981C750D140BC91C55FDE4F70
:104AF000B883CB50D140F30160816B1B770B072E3D
:104B0000000C880B990B0E94BD37A50194010E94EF
:104B10001C380E94D339C55FDE4F8881CB50D1400D
:104B2000860FD1018C931196CC9211971296DC923C
:104B3000BFEFEB1AFB0AE3E02E0E311C7FCF0E9481
:104B40005F05C75FDE4FE881F981C950D1408081A0
:104B50008F5F7ECED60111968C91811144C0C152D7
:104B6000DF4F188219821A821B82CF5DD04009EE76
:104B700013E1F12CE12CA701BE0161527F4FC60168
:104B80000E94D611CF51DF4F8881C15ED040C05204
:104B9000DF4F9881C05ED040C152DF4F2881CF5D8A
:104BA000D040F801208391838283FFEFEF1AFF0A40
:104BB0000D5F1F4F22E3E216F104E9F60E945F0544
:104BC000BE0168507F4FCE0101960E94620F44E300
:104BD0005EE069E47EE0CE0101960E94361881E035
:104BE000D60111968C93BE0160597F4FCE0101967C
:104BF0000E94C50ECE0101960E94D2088F3FA1F4FB
:104C0000E0918E08EF3F81F0F0E0E054F54F9081A5
:104C1000911103C091E0F601908380938E08109269
:104C2000140A1092130ABDC880938E08BAC88DE585
:104C30009EE00FC985E89EE00CC9F601E158FF4FE0
:104C40006080712CFFEF6F1A7F0A660C771C660C70
:104C5000771C6C0C7D1C5ACD83309105D1F4442413
:104C60004394512C10E000E089CE3197E930F105F2
:104C700008F048CD8827E05CF94D8F4F0C94803ABE
:104C80001D261D2637231D261D2637231D261D26DE
:104C9000372344244394512C10E000E086309105E2
:104CA00009F065CEDCCF3F924F925F926F927F9278
:104CB0008F929F92AF92BF92CF92DF92EF92FF922C
:104CC0000F931F93CF93DF93CDB7DEB7CF50D14073
:104CD0000FB6F894DEBF0FBECDBF7C016B0149015A
:104CE0005A01C15FDE4F0883CF50D1400430A0F499
:104CF0000230C0F50130A1F00091E1131091E213F0
:104D000001301105C9F10230110509F469C287EDBE
:104D10009EE00E94811047C0083058F1083061F7CA
:104D2000B601CE0101960E94C50EB701CE01805991
:104D30009F4F0E94620FAE01415F5E4FBE016F5FE9
:104D40007F4FCE0180599F4F0E94B11781E0C15F14
:104D5000DE4F9881CF50D1409A3009F080E08093A7
:104D6000E813CACF81E090E09093E2138093E113BF
:104D7000C3CF82E090E0F8CFB601CE0180599F4FBB
:104D80000E94C50EB701CE0193950E94620F8091DB
:104D9000E3139091E4138130910509F441C0E0F0F0
:104DA000029709F4EAC0C15FDE4F0FB6F894DEBF88
:104DB0000FBECDBFDF91CF911F910F91FF90EF906C
:104DC000DF90CF90BF90AF909F908F907F906F902B
:104DD0005F904F903F9008951092870781E08093F5
:104DE00084071092E6131092DA111092DB111092E0
:104DF000DC111092DD1184E690E0A0E0B0E0809339
:104E00007C0790937D07A0937E07B0937F078BE785
:104E100097E00E94900E1093E4130093E313C3CF26
:104E200080918407882309F477C04DE050E06DEB52
:104E30007EE08AE997E00E94BA3C8FE0EBE5FAE079
:104E4000DE01A152BF4F01900D928A95E1F786E0F5
:104E5000EFEDF0E0EC0FFD1F3F96DF011D928A950C
:104E6000E9F78091E5134AE0BE01645F7E4F90E070
:104E70000E94813765E170E0CE0181529F4F0E9410
:104E8000763704E110E0A801481B590BBE01645FAE
:104E90007E4FCE0181529F4F0E94AA3C65E170E097
:104EA000CE0181529F4F0E947637A801481B590BB3
:104EB00065EC7EE0CE0181529F4F0E94AA3C45E105
:104EC00050E0BE0161527F4F87EA97E00E94BA3CF2
:104ED0008EED93E190939907809398078091E51365
:104EE00080938E07BE0160597F4FCE0101960E94CC
:104EF000C50EBE017395CE018C509F4F0E94620F6C
:104F000044E857E0BE016F5F7F4FCE018C509F4F4A
:104F10000E943D1B10928407BE0160597F4FCE0155
:104F200001960E94C50EBE017395CE0181529F4F1E
:104F30000E94620F44E857E0BE016F5F7F4FCE01D1
:104F400081529F4F0E94951880918707882309F40A
:104F50002ACF82E090E09093E4138093E313BE01A4
:104F60007395CE0101960E94620F4BE15BE0BA019E
:104F7000CE0101960E94361816CF0091E613C501A6
:104F8000B4010E94BB376B017C01E02FF0E0E252DC
:104F9000FC4E608170E090E080E00E94BB3720E032
:104FA00030E048EC52E40E941C389B01AC01C70180
:104FB000B6010E9461392091DA113091DB114091E4
:104FC000DC115091DD110E94F5384B015C01C0905D
:104FD000E513D12CE02EF12CBFEFEB1AFB0A20E0F9
:104FE00030E040E85FE3C501B4010E94023A87FD6A
:104FF00010C020E030E040E85FE3C501B4010E944A
:10500000F4384B015C010F5FEC14FD041CF300E06D
:10501000E1CF8092DA119092DB11A092DC11B09274
:10502000DD110093E6130F5FEC14FD040CF000E0BB
:1050300061E08BE797E00E949D0E882309F48DC004
:10504000A090E613E0E8AE9E500111249501225293
:105050003E4E590130E8039F8001112402521E4E3A
:10506000C152DF4F188219821A821B82CF5DD04055
:1050700019821A821B821C8289EEC82E83E1D82EE7
:10508000F12CE12CA701BE0161527F4FC5010E94A6
:105090006613A701BE016F5F7F4FC8010E946613B0
:1050A000CF51DF4F9880C15ED0404090DA115090D0
:1050B000DB116090DC117090DD116B816919770B49
:1050C000072E000C880B990B0E94BD37A30192019B
:1050D0000E941C380E94D339960EC052DF4F888040
:1050E000C05ED0406A816819770B072E000C880BD0
:1050F000990B0E94BD37A30192010E941C380E94A7
:10510000D339860EC152DF4F3880CF5DD0406981E0
:105110006319770B072E000C880B990B0E94BD3783
:10512000A30192010E941C380E94D339360ED60189
:105130003C9211968C92119712969C92BFEFEB1AAB
:10514000FB0AE3E0CE0ED11CF2E3EF16F10409F006
:1051500099CF8BE797E00E94900E0E94A6036B0107
:105160007C010E945F050E94A6039B01AC012C19E3
:105170003D094E095F0969017A0136E0C316D10481
:10518000E104F10480F06BEC7EE08CE894E10E9495
:105190002C10B701A6018CE894E10E943B1084ED2D
:1051A0009EE00E948110BE0160597F4FCE010196A2
:1051B0000E94C50ECE0101960E94D2088F3F69F46D
:1051C000E0917A07EF3F49F0F0E0E054F54F90812D
:1051D000911103C091E09093E81380937A07E3CD97
:1051E000C15FDE4F1881CF50D140B601CE0180594A
:1051F0009F4F0E94C50EB701CE018C509F4F0E9459
:10520000620F183008F0CFCD89E090E0153011F032
:1052100088E090E09093611380936013BE01605921
:105220007F4FCE0101960E94C50EBE016C507F4F8C
:10523000CE0181529F4F0E94620F22E0210F4EE566
:1052400053E1BE016F5F7F4FCE0181529F4F0E949D
:10525000881EA9CDEF92FF920F931F93CF93DF93F8
:10526000CDB7DEB7CB57D1090FB6F894DEBF0FBE6E
:10527000CDBF8C017B018091BC07882309F453C00A
:105280006BEE7EE08CEB97E00E94741343E150E0FC
:1052900067EF7EE080ED97E00E94BA3C43E150E08A
:1052A0006FEF7EE083EE97E00E94BA3C43E150E06E
:1052B00069E07FE086EF97E00E94BA3C43E150E06E
:1052C00067E17FE089E098E00E94BA3C43E150E06A
:1052D00063E27FE08CE198E00E94BA3C43E150E059
:1052E0006DE27FE08FE298E00E94BA3C43E150E03B
:1052F0006DE37FE082E498E00E94BA3C43E150E035
:105300006BE47FE085E598E00E94BA3CB801CE01ED
:1053100001960E94620F6CEB77E0CE0101960E942D
:10532000661E1092BC07B701CE0101960E94C50E01
:10533000B801CE0180599F4F0E94620F4CEB57E09D
:10534000BE016F5F7F4FCE0180599F4F0E94FE1DAF
:10535000C558DF4F0FB6F894DEBF0FBECDBFDF914B
:10536000CF911F910F91FF90EF900895EF92FF92D0
:105370000F931F93CF93DF93CDB7DEB7CB57D109F0
:105380000FB6F894DEBF0FBECDBF8C017B018091BC
:105390007006882399F162E57FE080E796E00E943D
:1053A000741343E150E069E57FE084E896E00E94F1
:1053B000BA3C43E150E063E67FE087E996E00E9473
:1053C000BA3C43E150E06DE67FE08AEA96E00E9455
:1053D000BA3C43E150E06BE77FE08DEB96E00E9442
:1053E000BA3CB801CE0101960E94620F60E776E0F8
:1053F000CE0101960E94661E10927006B701CE0182
:1054000001960E94C50EB801CE0180599F4F0E949F
:10541000620F40E756E0BE016F5F7F4FCE018059BB
:105420009F4F0E94FE1DC558DF4F0FB6F894DEBF98
:105430000FBECDBFDF91CF911F910F91FF90EF90E5
:105440000895CF92DF92EF92FF920F931F93CF9325
:10545000DF93CDB7DEB7CF50D1400FB6F894DEBFA3
:105460000FBECDBF6C018A01F22EC15FDE4F2883D3
:10547000CF50D14086E0821748F0A2E02A17E8F525
:10548000B1E02B1751F083EC9FE083C0E7E02E17CB
:1054900009F45DC0F9E02F13F6CFCE0101960E940A
:1054A000C50EB601CE0180599F4F0E94620FAE011A
:1054B000415F5E4FBE016F5F7F4FCE0180599F4FAE
:1054C0000E94B11781E0C15FDE4F9881CF50D1407B
:1054D0009A3009F080E0D8018C93C15FDE4F0FB69F
:1054E000F894DEBF0FBECDBFDF91CF911F910F911A
:1054F000FF90EF90DF90CF900895B4E083E090E0CC
:105500002B1709F1F6E082E090E02F131CC081E038
:1055100090E0DA0113969C938E931297CE01019638
:105520000E94C50EB601CE0180599F4F0E94620FA6
:105530002F2DA801BE016F5F7F4FCE0180599F4F75
:105540000E94881ECACFF80193838283E7CF8AE046
:1055500090E0DA0113969C938E931297CE018059B6
:105560009F4F0E94C50EB601CE0193950E94620F17
:1055700080916E0690916F068230910509F4A0C06B
:1055800058F4009709F47FC0019709F489C086EBAD
:105590009FE00E948110A1CF8330910509F4DAC009
:1055A0000497A9F7F801818181114AC0C152DF4FE8
:1055B000188219821A821B82CF5DD04089EEE82EB4
:1055C00083E1F82ED12CC12C9601AE0141525F4FE0
:1055D000D80115966C91159714968C910E94941091
:1055E000CF51DF4F8881C15ED040C052DF4F9881DC
:1055F000C05ED040C152DF4F2881CF5DD040F7015F
:10560000208391838283FFEFCF1ADF0A83E0E80EC5
:10561000F11CA2E3CA16D104B9F60E945F05BE01CF
:105620007395CE0101960E94620F44E35EE069E447
:105630007EE0CE0101960E94361881E0F801818358
:10564000BE0160597F4FCE0101960E94C50ECE016A
:1056500001960E94D2088F3F99F4E0916305EF3FD5
:1056600079F0F0E0E054F54F9081911103C091E0A2
:10567000D8019C9321E030E030936F0620936E06B2
:10568000809363052ACF10927F140E9439020E94F2
:105690005F0581E090E090936F0680936E061DCFCA
:1056A00081E080939C0580936405109267058FEFDD
:1056B00080939F05C8010E946D0A82E090E0EBCFC5
:1056C00080919C05882321F167E87FE08CE995E0D3
:1056D0000E94741343E150E063E97FE080EB95E0C2
:1056E0000E94BA3C43E150E06BE97FE083EC95E037
:1056F0000E94BA3CBE017395CE0101960E94620FD2
:105700006CE975E0CE0101960E94661E10929C0520
:10571000BE0160597F4FCE0101960E94C50EBE01A9
:105720007395CE0181529F4F0E94620F4CE955E064
:10573000BE016F5F7F4FCE0181529F4F0E94FE1DC1
:1057400080919F058F3F09F4C8CEF801848383E0E0
:1057500090E0A1CF80916405882309F473C04DE0E7
:1057600050E063EA7FE08AE795E00E94BA3C85E07A
:10577000E6E4FAE0DE01A152BF4F01900D928A9556
:10578000E1F780E1EFEDF0E0EC0FFD1F3596DF0172
:105790001D928A95E9F74AE0BE01645F7E4F82E37D
:1057A00090E00E94813765E170E0CE0181529F4F09
:1057B0000E94763724E1E22EF12CA701481B590BF9
:1057C000BE01645F7E4FCE0181529F4F0E94AA3C72
:1057D00065E170E0CE0181529F4F0E947637A701AC
:1057E000481B590B6FEA7FE0CE0181529F4F0E9408
:1057F000AA3C45E150E0BE0161527F4F87E895E049
:105800000E94BA3C0B5F1F4F1093790500937805F7
:10581000BE0160597F4FCE0101960E94C50EBE01A8
:105820007395CE018C509F4F0E94620F44E655E065
:10583000BE016F5F7F4FCE018C509F4F0E943D1B7A
:1058400010926405BE0160597F4FCE0101960E94FF
:10585000C50EBE017395CE0181529F4F0E94620F0B
:1058600044E655E0BE016F5F7F4FCE0181529F4FEE
:105870000E94951880916705882309F42ECE84E054
:1058800090E009CFEF92FF920F931F93CF93DF9396
:10589000CDB7DEB7CB57D1090FB6F894DEBF0FBE38
:1058A000CDBF8C017B018091BF03882309F45BC0CD
:1058B00066E170E18FEB93E00E94741343E150E0E6
:1058C00067EF7EE083ED93E00E94BA3C43E150E055
:1058D0006EE170E186EE93E00E94BA3C43E150E055
:1058E0006DED7FE089EF93E00E94BA3C43E150E028
:1058F0006AE270E18CE094E00E94BA3C43E150E03F
:1059000067E370E18FE194E00E94BA3C43E150E02C
:1059100066E470E182E394E00E94BA3C43E150E027
:1059200066E570E185E494E00E94BA3C43E150E012
:105930006EE570E188E594E00E94BA3C43E150E0F6
:105940006BE47FE08BE694E00E94BA3CB801CE01A4
:1059500001960E94620F6FEB73E0CE0101960E94E8
:10596000661E1092BF03B701CE0101960E94C50EBC
:10597000B801CE0180599F4F0E94620F4FEB53E058
:10598000BE016F5F7F4FCE0180599F4F0E94FE1D69
:10599000C558DF4F0FB6F894DEBF0FBECDBFDF9105
:1059A000CF911F910F91FF90EF900895CF92DF92CA
:1059B000EF92FF920F931F93CF93DF93CDB7DEB794
:1059C000C65FD1090FB6F894DEBF0FBECDBF2091E0
:1059D000D010222309F4B8C38091EB028F3F41F02D
:1059E000722F8A3031F071E09091EE02981708F032
:1059F00070E0809119028F3F41F0622F8A3031F0C0
:105A000061E090911C02981708F060E08091C20359
:105A10008F3F41F0522F8A3031F051E09091C50311
:105A2000981708F050E0809194048F3F41F0422F86
:105A30008A3031F041E090919704981708F040E0E7
:105A40008091BF078F3F41F0322F8A3031F031E033
:105A50009091C207981708F030E0809173068F3F4D
:105A600039F08A3031F021E090917606981708F0ED
:105A700020E081E09091D4109A3009F080E091E02C
:105A8000E091D310EA3009F090E0982B81E0E091AA
:105A9000D210EA3009F080E0982B81E0E091D1103B
:105AA000EA3009F080E0892B872B862B852B842B0D
:105AB000832B11F4222351F00E945D0E1092DE110F
:105AC00010925E121092DE1210925E138091EB0221
:105AD0008F3F09F072C06EE475E1CE0180599F4F8F
