:020000040000FA
:100000000C941E020C944F020C944F020C944F025D
:100010000C944F020C944F020C944F020C944F021C
:100020000C944F020C944F020C944F020C944F020C
:100030000C944F020C944F020C944F020C944F02FC
:100040000C944F020C944F020C944F020C944F02EC
:100050000C944F020C944F020C944F020C946A3093
:100060000C944F020C94DE300C94B4300C944F027C
:100070000C944F020C944F020C944F020C944F02BC
:100080000C944F020C944F020C944F020C944F02AC
:100090000C944F020C944F020C944F020C941431A8
:1000A0000C944F020C944F020C944F020C944F028C
:1000B0000C944F020C944F020C944F020C944F027C
:1000C0000C944F020C944F020C944F020C944F026C
:1000D0000C944F020C944F020C944F020C944F025C
:1000E0000C944F020C9444090C947B0E0C948202E5
:1000F0000C942C040C943C230C9406070C94341F91
:100100000C942D040C942D030C947E0E0C941B0562
:100110000C9415070C9407030C9427030C946C059E
:100120000C94A4110C94F2020C9405070C94F91091
:100130000C945C0F0C9431040C949A0D0C941903DC
:100140000C945C070C9438320C9415030C94EC025C
:100150000C9411030C9465040C9448090C943D0B09
:100160000C9488040C94810E0C9401030C942303CA
:100170000C942B040C94F1220C942F070C94FA028B
:100180000C9474040C94AE1F0C9496040C948E0280
:100190000C946E020C94FE020C940B030C941F033F
:1001A0000C94020E0C94A5020C94B4220C94A1029F
:1001B0000C94F6020C9404200C942C030C94310340
:1001C0000C9445230C9440090C949C0D0C94970DB1
:1001D0000C945B0F0C9489210C9428070C94CE048A
:1001E00048483A4D4D20414D002A002A2A2A2A2A01
:1001F0002A2A2A2A2A2A2A2A2A2A2A2A2A2A2A0089
:100200005F5F5F5F5F5F00456E7465722050617372
:1002100073776F72643A002A2A2A2A2A2A2A2A2AFB
:100220002A2A2A2A2A2A2A2A2A2A2A002376002A3D
:100230005E002D0030002D005F005F005F5F5F00FB
:10024000746F207069636B206D6F726520636F6CD3
:100250006F72732E00507265737320616E79206F18
:1002600074686572206B657900507265737320271E
:10027000302720696620646F6E652E0020202020C4
:100280002020636F6E74696E756500202050726562
:10029000737320616E79206B657920746F004D4F08
:1002A0004E4441592B2B20536D61727421204C45D3
:1002B0004473002A2A2A2A2A2A2A2A2A2A2A2A2A65
:1002C0002A2A2A2A2A2A2A0000002100240027009C
:1002D0002A002D0030003300010100000401070155
:1002E0000A0100002200250028002B002E0031000A
:1002F000340002010000050108010B01000020008C
:100300002300260029002C002F00320000010000ED
:100310000301060109010505050507050808080888
:10032000020202020A0A080804040404010101018D
:100330000101010103030303030303030407070788
:100340000C0C0C0C0C0C0C0C02020202060606062D
:10035000060606060B0B0B0B0B0B0B0B01021020FA
:1003600020080810204010204080020102010804EB
:10037000020101020408102040808040201008047F
:1003800002018004020180402010080402010804D8
:10039000020101020408102040800102040810201C
:1003A000408000000A0B02090C0D0E08070304012F
:1003B000000000000000000000000000000000003D
:1003C000000000000000000000000000000012110A
:1003D000100000000000000000000000000000000D
:1003E000000000000000000050726573732023209D
:1003F0007768656E20646F6E652100523A205F5FFA
:100400005F20473A205F5F5F20423A205F5F5F00D6
:100410004E756D626572206F66204C4544733A20BC
:100420005F5F5F00523A205F5F5F20473A205F5F67
:100430005F20423A205F5F5F0000383211241FBE08
:10044000CFEFD1E2DEBFCDBF00E00CBF24E1AAEDCB
:10045000BFE001C01D92A13EB207E1F71FE0A0E09E
:10046000B2E0E0EAF4E700E00BBF02C007900D92B3
:10047000AA3DB107D9F712E0CEE1D2E000E006C014
:1004800021970109802FFE010E940538CD31D10747
:1004900080E00807A9F70E9402330C944E3A0C94AE
:1004A000000010920D1110920E11E0910F11F091B9
:1004B00010113197EA30F10508F047C08827EC5950
:1004C000FD4F8F4F0C9405386E0282028E026E0231
:1004D00082028E02A502A502A502A102EDE0F1E1D1
:1004E0001782148215821682349681E1E934F80766
:1004F000B9F7EDE4F1E18BE691E111928E179F07D8
:10050000E1F70895EDE0F1E1178214821582168279
:10051000349681E1E538F807B9F70895EDE0F1E1A7
:100520001782148215821682349681E1E934F80725
:10053000B9F7EDE4F1E1119281E1EC35F807D9F773
:1005400008951092111110921211089520E0DC010B
:1005500060FF03C001C02D932D936250E0F77040FF
:10056000D0F70895CF93DF93C0910111D09102117C
:10057000209789F08A819B81009749F02D853E85DF
:10058000B901660F771F620F731F0E94A6020C80CD
:10059000DD81C02DEDCFDF91CF9108958150823163
:1005A00008F05AC0E82FF0E08827E652FD4F8F4F41
:1005B0000C940538FA02FE02EC02F202F6022C0359
:1005C000010307030B031103150319031F0323037F
:1005D0002C0327032D033103809180008F778093B4
:1005E00080000895809180008F7DF9CF80918000F8
:1005F000877FF5CF84B58F7784BD089584B58F7DCF
:10060000FBCF8091B0008F778093B00008958091E8
:10061000B0008F7DF9CF809190008F77809390000C
:100620000895809190008F7DF9CF80919000877F11
:10063000F5CF8091A0008F778093A00008958091DE
:10064000A0008F7DF9CF8091A000877FF5CF8091AA
:1006500020018F77809320010895809120018F7D64
:10066000F9CF80912001877FF5CFCF93DF93282F9B
:1006700030E0F901EE55FC4F8491F901E45AFC4F4A
:10068000D491F901EA5EFC4FC491CC23A1F0811111
:100690000E94CE02EC2FF0E0EE0FFF1FE450FD4F62
:1006A000A591B491EC91ED2381E090E009F480E014
:1006B000DF91CF91089580E090E0FACF1F93CF9320
:1006C000DF93282F30E0F901EE55FC4F8491F901BA
:1006D000E45AFC4FD491F901EA5EFC4FC491CC235B
:1006E000A9F0162F81110E94CE02EC2FF0E0EE0F40
:1006F000FF1FEE51FD4FA591B4918FB7F894EC9187
:10070000111108C0D095DE23DC938FBFDF91CF910C
:100710001F910895DE2BF8CFCF93DF9390E0FC017B
:10072000E45AFC4F24918A5E9C4FFC0184918823FB
:10073000C9F090E0880F991FFC01E853FD4FA59187
:10074000B491FC01EE51FD4FC591D49161110DC0E2
:100750009FB7F8948C91209582238C9388812823CD
:1007600028839FBFDF91CF910895623051F49FB7E6
:10077000F8943C91822F809583238C93E8812E2BD3
:10078000EFCF8FB7F894EC912E2B2C938FBFEACF3D
:100790003FB7F8948091EA109091EB10A091EC1083
:1007A000B091ED1026B5A89B05C02F3F19F001961A
:1007B000A11DB11D3FBFBA2FA92F982F8827BC01BB
:1007C000CD01620F711D811D911D42E0660F771FE3
:1007D000881F991F4A95D1F708958F929F92AF92E3
:1007E000BF92CF92DF92EF92FF924B015C010E9489
:1007F000C8036B017C010E94C8036C197D098E0936
:100800009F09683E734081059105A8F321E0821A93
:100810009108A108B10888EEC80E83E0D81EE11C3B
:10082000F11C81149104A104B10429F7FF90EF9009
:10083000DF90CF90BF90AF909F908F9008952FB78B
:10084000F8946091E6107091E7108091E810909113
:10085000E9102FBF089508950895FC01848590E064
:100860000895AF92BF92CF92DF92EF92FF920F93D3
:100870001F93CF93DF936C017B018B01040F151F36
:10088000EB015E01AE18BF08C017D10759F069919E
:10089000D601ED91FC910190F081E02DC6011995F2
:1008A000892B79F7C501DF91CF911F910F91FF90AF
:1008B000EF90DF90CF90BF90AF900895FB014481FF
:1008C0005581608171810C943104FC01538D448DFC
:1008D000252F30E0842F90E0821B930B541710F0EB
:1008E000CF96089501970895FC01918D828D9817F8
:1008F00061F0A28DAE0FBF2FB11D5D968C91928DD0
:100900009F5F9F73928F90E008958FEF9FEF089500
:10091000FC01918D828D981731F0828DE80FF11DC9
:10092000858D90E008958FEF9FEF0895FC01918DE4
:10093000228D892F90E0805C9F4F821B91098F73DD
:10094000992708958CEA93E10E94960421E0892B6F
:1009500009F420E0822F0895FC01A48DA80FB92F7F
:10096000B11DA35ABF4F2C91848D90E001968F73D7
:100970009927848FA689B7892C93A089B1898C91F6
:10098000837080648C93938D848D981306C0028845
:10099000F389E02D80818F7D80830895EF92FF920F
:1009A0000F931F93CF93DF93EC0181E0888F9B8D92
:1009B0008C8D98131AC0E889F989808185FF15C04C
:1009C0009FB7F894EE89FF896083E889F98980816F
:1009D0008370806480839FBF81E090E0DF91CF913E
:1009E0001F910F91FF90EF900895F62E0B8D10E060
:1009F0000F5F1F4F0F731127E02E8C8D8E110CC0CF
:100A00000FB607FCFACFE889F989808185FFF5CF19
:100A1000CE010E94AC04F1CFEB8DEC0FFD2FF11D48
:100A2000E35AFF4FF0829FB7F8940B8FEA89FB8956
:100A300080818062CFCFCF93DF93EC01888D8823B4
:100A4000B9F0AA89BB89E889F9898C9185FD03C031
:100A5000808186FD0DC00FB607FCF7CF8C9185FF16
:100A6000F2CF808185FFEDCFCE010E94AC04E9CFAB
:100A7000DF91CF91089580E090E0892B29F00E94CA
:100A8000A20481110E94000080E090E0892B49F0CF
:100A900080E090E0892B29F00E94000081110E94E3
:100AA000000080E090E0892B49F080E090E0892B05
:100AB00029F00E94000081110E94000080E090E077
:100AC000892B49F080E090E0892B29F00E940000FA
:100AD00081110C940000089581E090E008954F92F8
:100AE0005F926F927F928F929F92AF92BF92CF92BE
:100AF000DF92EF92FF920F931F93CF93DF9300D07B
:100B0000CDB7DEB76A0119821A821B828823C9F128
:100B10008B01E1E0F0E0482E512C712C612CD801C2
:100B20002D918D01222349F17F01B1E0EB1AF108EB
:100B3000D601AE0DBF1D8C908820F9F030E050E05A
:100B400040E02F5F3F4F4F4F5F4FC301B2010E9404
:100B50008C379B01AC01912CB12CA12CC501B401A7
:100B60006F5F7F4F8F4F9F4F0E948C37A1E0B0E0A7
:100B7000AC0FBD1FAE0DBF1D8C933196E430F10557
:100B800071F669817A818B810F900F900F90DF91C0
:100B9000CF911F910F91FF90EF90DF90CF90BF907A
:100BA000AF909F908F907F906F905F904F9008953F
:100BB000CF92DF92EF92FF920F931F93CF93DF9329
:100BC000F090491480914C1490914D14A0914E14C2
:100BD000B0914F14892B8A2B8B2BD9F00E94C8031C
:100BE000009103111091041120910511309106110B
:100BF000601B710B820B930B00914C1410914D14E0
:100C000020914E1430914F1460177107820793079B
:100C1000C8F20E94C803609303117093041180937B
:100C2000051190930611E0915414F09155143097EA
:100C300059F0409150145091511460915214709198
:100C400053148F2D1995F82EC0910111D0910211D6
:100C5000209721F1EC8480914A1490914B148436B2
:100C6000910508F41C86E881F981C280D380AE0129
:100C7000475F5F4FBE016A5F7F4F8F2D0E946F05F8
:100C80008B01282F4D855E856A817B81CE01F6011F
:100C90001995EC860C80DD81C02DDACF8091FF1094
:100CA00090910011EC012196D0930011C093FF1098
:100CB0004997E4F10E941F040091FB101091FC1071
:100CC0002091FD103091FE106B017C01C01AD10AF9
:100CD000E20AF30AA70196012115310541055105E4
:100CE00021F421E030E040E050E088EE93E0C89F3E
:100CF000B001C99F700DD89F700D1124072E000CF4
:100D0000880B990B0E94C43730934B1420934A14DC
:100D1000109200111092FF100E941F046093FB10AC
:100D20007093FC108093FD109093FE10DF91CF9193
:100D30001F910F91FF90EF90DF90CF900895209139
:100D40007110260F3327331F21323105ECF4209127
:100D50009510FC0190E080E0243069F082E0089575
:100D6000A09171102191AC014F5A5F4EA40FB52F85
:100D7000B11D2C930196861798F380917110680F1E
:100D80006093711080E0089581E0089510929510AD
:100D900081E0809397101092961061E084E10E94A8
:100DA0005E0361E085E10E945E03E9EBF0E0808193
:100DB0008E7F808380818D7F808388E48093B800DC
:100DC00085E48093BC000895CF93DF9391E09093E6
:100DD00050108823B9F0C091B800D091BA0080912A
:100DE000BC008A7B8093BC0060E084E10E945E03CB
:100DF00060E085E10E945E030E94C606D093BA00BF
:100E0000C093B800DF91CF9108950895E091E41068
:100E10008091E310E81730F4F0E0E55DFF4E80814B
:100E200090E008958FEF9FEF08959091E4108091E6
:100E3000E3102FEF3FEF981748F4E92FF0E0E55D5E
:100E4000FF4E208130E09F5F9093E410C901089528
:100E50008091E3109091E410891B990B0895CF9233
:100E6000DF92EF92FF920F931F93CF93DF937C015A
:100E7000CB018A0120912A10222389F0EB016B011A
:100E8000C40ED51ECC15DD0569F06991D701ED9131
:100E9000FC910190F081E02DC7011995F3CF642FEB
:100EA0000E949F06C801DF91CF911F910F91FF9083
:100EB000EF90DF90CF900895CF93DF931F92CDB73F
:100EC000DEB7698320912A102223F9F02091E110E6
:100ED000203258F021E030E0FC013383228390E09F
:100EE00080E00F90DF91CF9108958091E210E82F7C
:100EF000F0E0E65FFF4E998190838F5F8093E21070
:100F00008093E11081E090E0ECCF61E0CE010196AA
:100F10000E949F06F7CFCF92DF92EF92FF920F933E
:100F20001F93CF93DF93FC01C48121E020932A100B
:100F3000C09309101092E2101092E1108385682B83
:100F400086E594E10E945C07D091E110D13208F06F
:100F500092C00E94C8036B017C01809195108111A1
:100F600065C082E08093951081E0809397108FEFA9
:100F7000809394101092B910D093B810AAE0B0E109
:100F8000E8E9F0E180E0D81385C01092BA108091B2
:100F9000BA10CC0FC82BC093BA1080919610813034
:100FA00009F07CC0109296100E94C8036B017C016E
:100FB0008091BA108093BB0080914C1090914D109D
:100FC000A0914E10B0914F10892B8A2B8B2B99F04A
:100FD0000E94C80300914C1010914D1020914E10AA
:100FE00030914F106C197D098E099F09061717075C
:100FF00028073907E0F18091BC0083FDD9CF85EC4B
:101000008093BC000E94C8036B017C018091951005
:10101000823009F445C0809194108F3F61F1809136
:101020009410803241F18091941025C080914C1031
:1010300090914D10A0914E10B0914F10892B8A2B9A
:101040008B2B09F48ACF0E94C80300914C10109199
:101050004D1020914E1030914F106C197D098E0962
:101060009F09061717072807390708F076CF8091E0
:101070004B100E94E4061092E2101092E1101092C0
:101080002A10DF91CF911F910F91FF90EF90DF9089
:10109000CF9008959D9191938F5F75CF85EEB0CFDE
:1010A00080914C1090914D10A0914E10B0914F1026
:1010B000892B8A2B8B2B09F4A9CF0E94C80300919E
:1010C0004C1010914D1020914E1030914F106C1912
:1010D0007D098E099F09061717072807390708F0A9
:1010E00095CFC5CFCF93DF93DC0126E0629FA00DA3
:1010F000B11D112490965C934E935F9721E09196D9
:101100002C939197FC01E359FF4F0190F081E02D62
:10111000EC01C459DF4F2881222341F0309719F0A8
:10112000DC01662329F0DF91CF9108953097D9F340
:101130005C968C91DF91CF911994CF92DF92EF92D0
:10114000FF920F931F93CF93DF93EC01162F042F81
:10115000FC0186E0689FE00DF11D112411A2878D2E
:1011600090A18130910509F180F08230910509F458
:1011700043C0039709F445C0DF91CF911F910F91B0
:10118000FF90EF90DF90CF9008954423A9F341E0C2
:1011900050E0CE010E9472080E941F04C85ADF4F1F
:1011A000688379838A839B83E7CF0E941F04FE01B3
:1011B000E85AFF4FC080D180E280F380AB01BC01D0
:1011C0004C195D096E097F09729680819181B0E0AA
:1011D000A0E084179507A607B70770F442E050E037
:1011E000612FCE01DF91CF911F910F91FF90EF9072
:1011F000DF90CF900C94720843E050E00111BCCF17
:10120000EFCF50E040E0ECCF8F929F92AF92BF9231
:10121000CF92DF92EF92FF92CF93DF93EFEFE60F43
:10122000EC01C12CD12C7601EF3FE9F08990912C93
:10123000B12CA12CF0E061E070E080E090E0FE17BE
:1012400041F0AAE0B0E09B01AC010E946436FF5F70
:10125000F6CFA50194010E948C37C60ED71EE81E5A
:10126000F91EE150E1CFC701B601DF91CF91FF90A8
:10127000EF90DF90CF90BF90AF909F908F900895A8
:10128000862F642F0C948C03862F642F0C945E039E
:10129000862F0C9435032F923F924F925F926F925C
:1012A0007F928F929F92AF92BF92CF92DF92EF92F6
:1012B000FF920F931F93CF93DF93CDB7DEB72C9799
:1012C0000FB6F894DEBF0FBECDBF9C878B878459C5
:1012D0009F4F9A83898381E0A981BA818C930E9470
:1012E0001F04EB85FC85E45AFF4FFC83EB830081F0
:1012F000118122813381AB01BC01401B510B620B78
:10130000730BEB85FC85E859FF4F80819181B0E03C
:10131000A0E084179507A607B70708F037C110E0CB
:10132000CB84DC84F6E6CF0ED11CEB84FC8422E671
:10133000E20EF11CD6018C91181758F4D701ED91EB
:10134000FC91E10FF11D62E080810E948C031F5F20
:10135000F1CF312C4B845C84B7E64B0E511CEB84EF
:10136000FC84E4E6EE0EF11C812C912C5401839454
:101370002B853C852E593F4F3A872987D2018C9186
:10138000381608F063C0032D10E0D701ED91FC91F1
:10139000E00FF11F61E080810E948C03D701ED9185
:1013A000FC91E00FF11F60E080810E945E03D50197
:1013B000C401032C04C0880F991FAA1FBB1F0A94E5
:1013C000D2F79E838D83FC01E095F095F887EF833B
:1013D000212CD6018C91281620F5622C712CA98520
:1013E000BA85ED91FC91E60DF71D80810E943503D1
:1013F000660C771CEB85FC85E60DF71D892B51F4F7
:10140000808591852D813E81822B932B91878087CA
:101410002394DFCF80859185AF81B8858A239B2374
:10142000F5CFD701ED91FC91E00FF11F61E08081D4
:101430000E945E03F70180819181080F191F60E00F
:10144000D8018C910E948C03339498CF0B851C8516
:10145000C801CC9678012FEF3FEFF701478D50A1DF
:10146000452B21F4148E368F258F11A2F6E0EF0E56
:10147000F11CE816F90689F7A12C96E0392E8B8429
:101480009C8420E6820E911CD6018C91A81608F04F
:101490005AC0B12C6A2C712CB4E06B0E711C660C16
:1014A000771CEB85FC856E0E7F1ED2018C91B816E1
:1014B00008F047C0F301408151810B2C02C05695C2
:1014C00047950A94E2F7A89EC00111248B0D911D47
:1014D000EB85FC8560E0258D368D8217930709F436
:1014E00073C06F5F36966A30B1F740FF28C0EB8556
:1014F000FC8570E060E0248D21111BC0369EF00158
:10150000379EF00D11242B853C85E20FF31FD4018B
:101510002D913C91D901A80FB91F2C91248F968F42
:10152000858F10A2178E41E08B859C850E949D08B7
:1015300006C06F5F7F4F36966A307105E1F6B3944F
:10154000B4CFA394A1CFD12CF80181A18111D82EC1
:101550000A5F1F4FE016F106B9F70E941F04AB8126
:10156000BC816D937D938D939C931397DD2071F0D7
:10157000EB85FC8581A1882349F0878D90A1019797
:1015800029F4848D811106C08FEF05C0A981BA812D
:101590001C92FACF81532C960FB6F894DEBF0FBE83
:1015A000CDBFDF91CF911F910F91FF90EF90DF9012
:1015B000CF90BF90AF909F908F907F906F905F90F3
:1015C0004F903F902F9008954170AECFFC018481E1
:1015D00080FF05C0128A84FF0AC0638B089581FFD3
:1015E00003C02695228BF7CF82FFF5CFFBCF85FF77
:1015F00004C04695460F438B02C086FDFBCF08957D
:101600000F931F93CF93DF932091F20F2F5F322F11
:1016100037703093F20F20FF2BC020E831FD20649B
:10162000347009F02062205FFC01EC01239600E099
:1016300011E06785662329F070E0C8010E94B03789
:101640006F5F6187822F869F080E80E0811D1124C5
:10165000811110C01682662311F0615061873196A6
:10166000EC17FD0731F7DF91CF911F910F9108958E
:1016700020E0D4CF81508683EECF4F925F927F924D
:101680008F929F92AF92BF92CF92DF92EF92FF9292
:101690000F931F93CF93DF932C01EB010E94C8039C
:1016A000F20126893789621B730B6A307105B0F32A
:1016B000F8948A819B81181619060CF0CDC1E88137
:1016C000F9816EB1862E689484F83EB13F7E3EB9B2
:1016D000D9848E812D2D281B822F2E834C85042E9C
:1016E000000C550BAA81BB817F85F888E9887F5F54
:1016F000F394E3949F819884BA84AB841081C12CC5
:101700006C2D0C2D2C2D2081112788942111280F50
:1017100008F42FEF8195889470FD120F1795889427
:1017200071FD120F1795889472FD120F179588940A
:1017300073FD120F1795889474FD120F17958894F6
:1017400075FD120F1795889476FD120F17958894E2
:1017500077FD120F17958894622F7111612F8D0DEF
:10176000162F002C8EB800C000C017FF3EB9218193
:101770006627889400C0002C3EB92111290F00C0B3
:10178000002C8EB800C000C016FF3EB908F42FEF41
:101790009195889400C0002C3EB9F0FC620F00C007
:1017A000002C8EB800C000C015FF3EB96795889424
:1017B000F1FC620F00C0002C3EB96795889400C010
:1017C000002C8EB800C000C014FF3EB9F2FC620FBE
:1017D0006795889400C0002C3EB9F3FC620F00C0EE
:1017E000002C8EB800C000C013FF3EB967958894E6
:1017F000F4FC620F00C0002C3EB96795889400C0CD
:10180000002C8EB800C000C012FF3EB9F5FC620F7C
:101810006795889400C0002C3EB9F6FC620F00C0AA
:10182000002C8EB800C000C011FF3EB967958894A7
:10183000F7FC620F00C0002C3EB96795889400C089
:10184000002C8EB800C000C010FF3EB9122FF1105E
:10185000162F9B0D00C0002C3EB900C000C0002C0C
:101860008EB800C000C017FF3EB922816627889459
:1018700000C0002C3EB92111290D00C0002C8EB8EB
:1018800000C000C016FF3EB908F42FEFE40FF51FAB
:1018900000C0002C3EB9E0FC620F00C0002C8EB8E6
:1018A00000C000C015FF3EB967958894E1FC620F47
:1018B00000C0002C3EB96795889400C0002C8EB8FB
:1018C00000C000C014FF3EB9E2FC620F6795889427
:1018D00000C0002C3EB9E3FC620F00C0002C8EB8A3
:1018E00000C000C013FF3EB967958894E4FC620F06
:1018F00000C0002C3EB96795889400C0002C8EB8BB
:1019000000C000C012FF3EB9E5FC620F67958894E5
:1019100000C0002C3EB9E6FC620F00C0002C8EB85F
:1019200000C000C011FF3EB967958894E7FC620FC4
:1019300000C0002C3EB96795889400C0002C8EB87A
:1019400000C000C010FF3EB9122FE110162F919475
:1019500000C0002C3EB99A0C00C000C08EB800C078
:1019600000C017FF3EB920816627889400C0002C74
:101970003EB92111280F00C0002C8EB800C000C055
:1019800016FF3EB908F42FEF8195889400C0002C13
:101990003EB970FD620F00C0002C8EB800C000C0C0
:1019A00015FF3EB96795889471FD620F00C0002C49
:1019B0003EB96795889400C0002C8EB800C000C066
:1019C00014FF3EB972FD620F6795889400C0002C29
:1019D0003EB973FD620F00C0002C8EB800C000C07D
:1019E00013FF3EB96795889474FD620F00C0002C08
:1019F0003EB96795889400C0002C8EB800C000C026
:101A000012FF3EB975FD620F6795889400C0002CE7
:101A10003EB976FD620F00C0002C8EB800C000C039
:101A200011FF3EB96795889477FD620F00C0002CC6
:101A30003EB96795889400C0002C8EB800C000C0E5
:101A400010FF3EB9122F7111162F8D0D00C0002C02
:101A50003EB9119709F086CEEA81FB812EE130E094
:101A6000DF010E940D3830E020E0A901AAE9EA9FD9
:101A70000E0E411DFA9F400D511D11244F0F511D97
:101A8000DC01CB01840F951FA11DB11D893E43E0F0
:101A90009407A105B10508F434C0885E9340A109FC
:101AA000B10942E0B695A795979587954A95D1F7E4
:101AB00047E0849F080E211D949F200D311D1124A5
:101AC000290F311D6091F10F70E0860F971F820F73
:101AD000931F4091E6105091E7106091E8107091CB
:101AE000E910292F3327420F531F611D711D4093A9
:101AF000E6105093E7106093E8107093E91080931C
:101B0000F10F78940E94C803F201778B668BDF9106
:101B1000CF911F910F91FF90EF90DF90CF90BF90EA
:101B2000AF909F908F907F905F904F90089580E945
:101B300091E008956C9A08956F927F928F92CF9260
:101B4000DF92EF92FF920F931F93CF93DF93CDB766
:101B5000DEB762970FB6F894DEBF0FBECDBF8C0123
:101B60006B017A01822FA801475F5F4FB8016A5F5E
:101B70007F4F0E946F053B01882ED8011C962C9147
:101B8000C701F7FE04C0882799278E199F09DA82BA
:101B9000C9829C838B839E838D83688A798A8A8A93
:101BA000213049F5CE0101960E94000B83E08D871C
:101BB0001F861E86F7FE02C08DEF8D87D801ED913E
:101BC000FC910088F189E02DBE016F5F7F4FC80155
:101BD000199562960FB6F894DEBF0FBECDBFDF91A8
:101BE000CF911F910F91FF90EF90DF90CF908F904A
:101BF0007F906F9008951C861B861A86198618861A
:101C00001F82D4CFCF92DF92EF92FF920F931F9358
:101C1000CF93DF93CDB7DEB762970FB6F894DEBFF0
:101C20000FBECDBF8C016B017A01822FA801475FE7
:101C30005F4FB8016A5F7F4F0E946F059B01482F7D
:101C4000D8011C968C91DA82C982FC82EB82FE82DA
:101C5000ED82288B398B4A8B813009F5CE010196B4
:101C60000E94000B1D861F861E86D801ED91FC91F7
:101C70000088F189E02DBE016F5F7F4FC801199583
:101C800062960FB6F894DEBF0FBECDBFDF91CF9145
:101C90001F910F91FF90EF90DF90CF9008951C86D9
:101CA0001B861A86198618861F82DCCF0895E8EEF7
:101CB000F2E091E090838FEF83831482E6E1F2E01B
:101CC000908383831482EDEBF3E09083838314820B
:101CD000EFE8F4E0908383831482E6EEF8E09083EB
:101CE000838314828093F00FE4E1F8E09083838390
:101CF00014820C94510290E080E00895FC01648706
:101D00000895FC01868597850895CF93DF93EC01B4
:101D100018820E941F046D837E838F839887DF91D2
:101D2000CF9108950F931F93CF9326E0FB01329636
:101D3000DC01129601900D922A95E1F723EA3AE030
:101D4000FC013183208324E1FB013896DC011896E5
:101D500001900D922A95E1F79C01245E3F4FAB0163
:101D6000445E5F4F8901045C1F4FC6E0FA01D90150
:101D700001900D92CA95E1F72A5F3F4F4A5F5F4F8E
:101D80002017310791F7FB01E85AFF4F00811181BD
:101D900022813381FC01E85AFF4F008311832283A3
:101DA0003383FB01E45AFF4F00811181228133818B
:101DB000FC01E45AFF4F0083118322833383FB012C
:101DC000E05AFF4F20813181FC01E05AFF4F3183FF
:101DD0002083FB01EE59FF4F20813181FC01EE5938
:101DE000FF4F31832083FB01EC59FF4F208131816C
:101DF000FC01EC59FF4F318320833296DB01AA5955
:101E0000BF4F2D913C9131832083FB01E859FF4F57
:101E100020813181FC01E859FF4F31832083FB0190
:101E2000E659FF4F20813181FC01E659FF4F318394
:101E30002083FB01E459FF4F2081FC01E459FF4F4F
:101E4000208363597F4FFB012081318183599F4F4C
:101E5000FC0131832083CF911F910F910895FC01E4
:101E6000DB0112968D919C9113979383828387E96E
:101E70009AE09183808314968C91149784831596AD
:101E80008C911597858316968C9116978683179655
:101E90008C911797878318968C911897808719963D
:101EA0008C91199781871A968C911A9782871B9625
:101EB0008C9183870895089590E080E00895CF93F2
:101EC000DF93FC0101900020E9F73197AF01481B37
:101ED000590BBC018CEA93E10E943104EC0142E011
:101EE00050E06CEB7AE08CEA93E10E9431048C0FB5
:101EF0009D1FDF91CF9108954F925F926F927F92D5
:101F00008F929F92AF92BF92CF92DF92EF92FF9209
:101F10000F931F93CF93DF93FC017B015A01228122
:101F20003381490184E0881A9108DF01A458BF4F2A
:101F30007C90C72DD0E0CA01BE010E949C376C9FE7
:101F400060016D9FD00C11248E010C0D1D1DDF0151
:101F5000A158BF4F93E08916910408F0E4C06F5F69
:101F60006C93662309F4E0C0862F90E0AC014150E9
:101F70005109C49F6001C59FD00CD49FD00C11247F
:101F8000769E800111242530310509F4EDC081E0F1
:101F900026303105B1F577247394EF01C258DF4F35
:101FA000688170E030E020E0EE9750E040E02617D6
:101FB000370758F48991840F952F911D8A159B0539
:101FC00008F4ADC02C938C016A018C9190E00196CD
:101FD000880F991F880F991FEF01C80FD91F049709
:101FE0007110CEC0209709F487C0F3E08F169104DA
:101FF00008F482C08981F70180838A8182837CC052
:1020000080E0AC91AE0FBF2FB11DED01C05CDF4F82
:10201000C881CC2309F46CC094E0C99FE00111246D
:10202000CE0FDF1F8823F1F2DF968C9084E0889E2C
:10203000400111248E0E9F1E209709F45DC081146B
:10204000910409F459C0AC18BD08B50190E080E0D6
:102050000E9445352B013C010C191D09B80190E087
:1020600080E00E9445359B01AC01C301B2010E9492
:10207000EB362B013C01F40110816881611B770B69
:10208000072E000C880B990B0E944735A301920183
:102090000E94A6350E945D37610FF7016083F4014D
:1020A00011816981611B770B072E000C880B990B3E
:1020B0000E944735A30192010E94A6350E945D3718
:1020C000610FF7016183F40112816A81611B770B53
:1020D000072E000C880B990B0E944735A301920133
:1020E0000E94A6350E945D37610FF701628304C02C
:1020F0008FEB9AE00E945F0FDF91CF911F910F91BC
:10210000FF90EF90DF90CF90BF90AF909F908F9017
:102110007F906F905F904F900895712C3ECF2F5F0E
:102120003F4FAC0144CF6C9323303105B1F388F4B9
:102130002130310509F464CF2230310591F4CC917E
:10214000D0E02196CC0FDD1FCC0FDD1FCE0FDF1F9F
:1021500049CF2530310599F308F452CF26303105A7
:10216000E1F286ED9AE0C6CFEC012196CC0FDD1F9F
:10217000CC0FDD1FCE0FDF1F880F991F880F991F0F
:102180004F01880E991E58CF4DE050E007960C94F1
:102190003F3A0F931F93CF938C01C62F0E948B075A
:1021A0006C2F6460C8010E948B076C2F6B7FC80185
:1021B0000E948B0783EC90E00197F1F7CF911F917C
:1021C0000F9108950F931F93CF93DF938C01D62F18
:1021D000C42F607F642B0E94C91080E1D89FB0019A
:1021E00011246C2BC801DF91CF911F910F910C949A
:1021F000C91041E00E94E21081E090E00895EF9262
:10220000FF920F931F93CF93DF938C017B01D0E05C
:10221000C0E0F701EC0FFD1F6491662331F041E04F
:10222000C8010E94E2102196F4CFCE01DF91CF9138
:102230001F910F91FF90EF900895CF93DF9300D0FF
:1022400000D01F921F92CDB7DEB728E0E6EFF9E08D
:10225000DE01119601900D922A95E1F7FC0120858F
:10226000241710F44FEF420F50E0440F551F21E0A8
:1022700030E02C0F3D1F420F531FFA012081620FE7
:10228000606840E028960FB6F894DEBF0FBECDBF61
:10229000DF91CF910C94E210CF93DF93EC0140E0FB
:1022A0006CE00E941D1160EE71E0CE01DF91CF91D4
:1022B0000C94FF1040E061E00E94E2108BE39FE18C
:1022C0000197F1F708950F931F93CF93DF93CDB745
:1022D000DEB72C970FB6F894DEBF0FBECDBF8C01D2
:1022E0000E945A11B801CE0101960E942F0FCE0113
:1022F00001960E944C1141E060E0C8010E941D114E
:1023000069E672E0C8010E94FF1042E060E0C80187
:102310000E941D1165E572E0C8010E94FF1043E0B4
:1023200060E0C8010E941D1160E472E0C8010E94D3
:10233000FF102C960FB6F894DEBF0FBECDBFDF9115
:10234000CF911F910F9108950E941A3AFC0180814C
:102350009181009711F00C94B0380895EF92FF929C
:102360000F931F93CF93DF93EC017B018A01888148
:102370009981009729F02A813B812417350788F439
:10238000B8016F5F7F4F0E943939009791F09983B0
:1023900088831B830A832C813D81232B11F4FC014C
:1023A00010821D830C83B701888199810E94283A8D
:1023B0000CC088819981009711F00E94B038198271
:1023C00018821D821C821B821A82CE01DF91CF915E
:1023D0001F910F91FF90EF900895EF92FF920F934E
:1023E0001F93CF93DF9300D000D000D0CDB7DEB7DE
:1023F0008C01862FF80111821082138212821582BD
:1024000014824AE09E012F5F3F4F7901B90190E0AD
:102410000E941635F70101900020E9F73197AF01CE
:102420004E195F09B701C8010E94AE1129960FB677
:10243000F894DEBF0FBECDBFDF91CF911F910F91FA
:10244000FF90EF900895CF93DF931F921F92CDB727
:10245000DEB7FC011182108213821282158214826F
:1024600069831A82BE016F5F7F4FFB0101900020DC
:10247000E9F73197AF01461B570B0E94AE110F9041
:102480000F90DF91CF9108950F931F93CF93DF9318
:1024900000D000D0CDB7DEB78C016A30C8F4CE01D1
:1024A00001960E94ED11BE016F5F7F4FC8010E942F
:1024B0005E04CE0101960E94A61126960FB6F894EE
:1024C000DEBF0FBECDBFDF91CF911F910F91089559
:1024D0006A50653050F4E62FF0E0E05CF54F608123
:1024E000CE0101960E942312DECF66E4F9CF4F920F
:1024F0005F926F927F929F92AF92BF92CF92DF9244
:10250000EF92FF920F931F93CF93DF93CDB7DEB778
:102510002C970FB6F894DEBF0FBECDBF5C016B01E8
:10252000F42E122FDB011A968C911A9751969C91DA
:102530005197E82FE91BFF0B1E171F0699F094F027
:10254000891B089F800D112494E1981B892F1496F4
:102550009C91149791FF04C0869552968C9302C06B
:1025600092FDFBCFF60167856117D8F4808980174B
:10257000C0F443899685490F069F600D1124928906
:10258000890F680FC5010E941D11EE2009F441C09A
:102590006AE372E0C5010E94FF10F60180898F5F37
:1025A000808BD60150968C915097801708F47FC08D
:1025B00050961C9250971F969C901F97E110B8C0A0
:1025C000602F043008F063E0C6010B96F601268107
:1025D0002F3F99F1FF24FA94F60EFC01412C512C67
:1025E00032014FEFF41669F1219130E050E040E004
:1025F000A0E061E070E080E090E0FA1609F46DC0C0
:10260000B4E0660F771F881F991FBA95D1F7AF5FA7
:10261000F4CFD6015096EC91E33020F4EC0DFD2D73
:10262000F11DF386B501CE0101960E942F0F6F2D8B
:10263000CE0101960E944412B0CF0E9404092B01E2
:102640003C01D60119968C9190E0B0E0A0E0841591
:102650009505A605B70508F44DC0F601808590E004
:10266000B0E0A0E0481659066A067B0608F442C0AE
:1026700093949786E189EF5FD6015196EC93519739
:1026800054968D919C915597009779F11A962C91BB
:102690002E1758F1E80FF92FF11D31974082F601FE
:1026A0008785811720F0178686858F5F86872C9611
:1026B0000FB6F894DEBF0FBECDBFDF91CF911F9153
:1026C0000F91FF90EF90DF90CF90BF90AF909F90D1
:1026D0007F906F905F904F9008950E948C37460EC8
:1026E000571E681E791EFA947CCF84EE9AE00E94F1
:1026F0005F0FD5CFF12CE12C602E712C0F5FF6010E
:102700008785E614F70458F643899685490F628950
:10271000089F600D11246E0DC5010E941D1168E314
:1027200072E0C5010E94FF10FFEFEF1AFF0AE7CF2A
:1027300093941F969C921F9751968C9151978F5FFF
:1027400051968C93ACCF8F929F92AF92BF92CF92C3
:10275000DF92EF92FF920F931F93CF93DF93CDB74A
:10276000DEB7CF56D1090FB6F894DEBF0FBECDBF8E
:102770006C015A01922EF02ECE0101960E94920E0B
:10278000CE0101960E944B09882E8FEF88122BC034
:102790000091BB036091F40F0F3F29F110E0F501A8
:1027A000E60FF11DD801AC5CB54F8C9182836F0DA3
:1027B0004E2DC6010E941D11F801E85DF54F6081A4
:1027C000CE0101960E942312BE016F5F7F4FC601AA
:1027D0000E945E04CE0101960E94A6118091F40F22
:1027E0008F5F8093F40F8092BB038091F40F83304E
:1027F000A0F063E0C50102960E940409092D10E0D3
:1028000030E020E00617170728073907D0F0F50158
:10281000618381E080831092F40FC159DF4F0FB6BE
:10282000F894DEBF0FBECDBFDF91CF911F910F9106
:10283000FF90EF90DF90CF90BF90AF909F908F90E0
:1028400008954E2D6F2DC6010E941D116CE372E09C
:10285000C6010E94FF10DFCFCF92DF92EF920F935D
:102860001F93CF93DF93CDB7DEB7CB57D1090FB608
:10287000F894DEBF0FBECDBF6C01FA01102F8E2D74
:1028800042E0E42E811102C093E0E92E9091041001
:10289000911125C0CE0101960E94920EB601CE0183
:1028A00080599F4F0E942F0F03E02FEF44E050E12B
:1028B000BE016F5F7F4FCE0180599F4F0E94A313CF
:1028C000C558DF4F0FB6F894DEBF0FBECDBFDF9106
:1028D000CF911F910F91EF90DF90CF90089590913D
:1028E000FF0F91110FC0CE0101960E94920EB6010A
:1028F000CE0180599F4F0E942F0F0AE02FEF4FEF1C
:102900005FE0D6CF9091FA0F91110FC0CE010196E2
:102910000E94920EB601CE0180599F4F0E942F0F48
:1029200001E12FEF4AEF5FE0C3CF9091F50F9111D6
:1029300013C0882389F0CE0101960E94920EB60141
:10294000CE0180599F4F0E942F0F83E0E82E00E1B7
:10295000212F45EF5FE0ACCF91E09383909105107C
:1029600090839091001091839091FB0F9283882324
:1029700021F08091F60FF9018083109204101092DB
:10298000FF0F1092FA0F1092F50F9ACFFC011182EF
:10299000108213821282158214826115710551F022
:1029A000FB0101900020E9F73197AF01461B570B5F
:1029B0000C94AE1108951F93CF93DF93CDB7DEB77C
:1029C00068970FB6F894DEBF0FBECDBF162FBC01BF
:1029D000CE010D960E942F0FCE010D960E945A1126
:1029E00040E060E0CE010D960E941D1162EF77E09D
:1029F000CE0101960E94C614BE016F5F7F4FCE01CB
:102A00000D960E945E04CE0101960E94A611BE01A1
:102A1000635F7F4FCE0101960E942F0FCE0101967A
:102A20000E944C1141E060E0CE010D960E941D1104
:102A30006FEF77E0CE0101960E94C614BE016F5F72
:102A40007F4FCE010D960E945E04CE0101960E943A
:102A5000A611112311F142E060E0CE010D960E9413
:102A60001D1164E274E0CE010D960E94FF1043E058
:102A700060E0CE010D960E941D1160E174E0CE0170
:102A80000D960E94FF1068960FB6F894DEBF0FBE39
:102A9000CDBFDF91CF911F91089543E060E0CE015B
:102AA0000D960E941D116BEF73E0E9CF0F931F93FA
:102AB000CF93DF93CDB7DEB72C970FB6F894DEBF78
:102AC0000FBECDBF8C010E945A1140E060E0C801EA
:102AD0000E941D1164EF7AE0CE0101960E94C61497
:102AE000BE016F5F7F4FC8010E945E04CE01019658
:102AF0000E94A611B801CE0101960E942F0FCE01AF
:102B000001960E944C1142E060E0C8010E941D1134
:102B100068EE73E0C8010E94FF102C960FB6F8947F
:102B2000DEBF0FBECDBFDF91CF911F910F910895F2
:102B30002F923F924F925F926F927F928F929F92CD
:102B4000AF92BF92CF92DF92EF92FF920F931F93BB
:102B5000CF93DF93CDB7DEB7CC5FD1090FB6F89432
:102B6000DEBF0FBECDBF5C016A01CE0180599F4F11
:102B70000E94920EB501CE0185519F4F0E942F0FEA
:102B8000D60116969C91169719968C919F3F39F411
:102B90008A3038F013E0843628F412E003C0803124
:102BA000E0F711E0612F70E06F5F7F4F84E190E00C
:102BB0000E94B0374B01F601818131E043E0882368
:102BC00011F032E042E0D6011A968C91880D992DD1
:102BD000911D0197B4010E94B037C650DF4F688342
:102BE000CA5FD040461708F487C2C750DF4F8882BB
:102BF000C95FD040882D189D800D112424E1281B29
:102C0000461B632FC6010E94E60ABE0160597F4F32
:102C1000FE0131965F01CF010E94920EC5010E9414
:102C20004B09C550DF4F8883CB5FD0408F3F09F001
:102C30004BC2E091BA03EF3F09F446C28091F30F13
:102C4000D60116969C911697E91379C0113009F0B8
:102C500074C019969C919A3008F46FC081116DC0B0
:102C6000BE0165517F4FCE0181529F4F0E942F0FB1
:102C7000CE0181529F4F0E945A1140E060E0CE0188
:102C800081529F4F0E941D11B6016A5E7F4FC501A0
:102C90000E94C614B501CE0181529F4F0E945E046E
:102CA000C5010E94A611BE0161527F4FC5010E945D
:102CB0002F0FC5010E944C1141E060E0CE0181520E
:102CC0009F4F0E941D116FEF7AE0C5010E94C6144C
:102CD000B501CE0181529F4F0E945E04C5010E9442
:102CE000A61142E060E0CE0181529F4F0E941D116B
:102CF00063E17BE0C5010E94C614B501CE0181529B
:102D00009F4F0E945E04C5010E94A61143E060E04F
:102D1000CE0181529F4F0E941D1168E27BE0C501E8
:102D20000E94C614B501CE0181529F4F0E945E04DD
:102D3000C5010E94A6111093F30FF12C0BC188233B
:102D400009F45BC1F0E0EC5CF54F2081F601818570
:102D50008950990B2817190684F78AE0F82EF20E8D
:102D60000488F589E02D3097A9F051968C91AF0138
:102D7000D50190E09D012A193B092817390770F405
:102D8000FA012191AF012D939F0121503109F901E1
:102D90001082F0CF8DE39BE00E945F0FD6011E965C
:102DA0002D903D904D905C9051975196BC91C450A0
:102DB000DF4FB883CC5FD040F60116861786108AA5
:102DC000118ACE0185519F4F0E945A1140E060E068
:102DD000CE0185519F4F0E941D11B6016A5E7F4F43
:102DE000CE0181529F4F0E94C614BE0161527F4F97
:102DF000CE0185519F4F0E945E04CE0181529F4FAC
:102E00000E94A611BE0165517F4FCE0181529F4F96
:102E10000E942F0FCE0181529F4F0E944C11D6016C
:102E200011968C918823E1F041E060E0CE0185515C
:102E30009F4F0E941D11B6016D5D7F4FCE018152E3
:102E40009F4F0E94C614BE0161527F4FCE01855133
:102E50009F4F0E945E04CE0181529F4F0E94A61197
:102E6000C950DF4FB982A882C75FD040C450DF4F3E
:102E7000B881CC5FD0406B2E712CC950DF4F888158
:102E80009981C75FD0408A199B098615970520F55F
:102E9000C950DF4FE881F981C75FD0407190C950B8
:102EA000DF4FF983E883C75FD040BE0165517F4F94
:102EB000CE0181529F4F0E942F0FE12C012FC7504E
:102EC000DF4F2881C95FD040472DB601CE01815226
:102ED0009F4F0E947712CACFD6011A968C91861501
:102EE0001704E1F0D8F0BE0165517F4FCE01815249
:102EF0009F4F0E942F0FEE24E394012FC750DF4F06
:102F00002881C95FD04040E0B601CE0181529F4F79
:102F10000E947712BFEF6B1A7B0ADECFF60126867E
:102F20003786408A518A81890488F589E02D309757
:102F300059F0D50190E09D012A193B09281739075E
:102F400038F42D912193F7CF89E59BE00E945F0F24
:102F50001092F30F81E0F60121899285291708F07C
:102F600080E0D60113962C91139731E0232782231A
:102F70009091F30F9327892309F4A6C01E968C9194
:102F8000C650DF4FB881CA5FD0408B1708F09CC095
:102F9000BE0165517F4FCE0181529F4F0E942F0F7E
:102FA000E12C012F282D4F2DB601CE0181529F4FCC
:102FB0000E947712F6018281882309F485C01130BE
:102FC00009F082C00488F589E02D309731F1D601EF
:102FD00051968C91AF01D50190E09D012A193B09D2
:102FE00028173907F0F4FA012191AF012D939F01C1
:102FF00021503109F9011082F0CF17968C91179763
:103000008F3F31F0E81304C081E013968C9395CE86
:10301000F0E0EC5CF54FF0809DCF8DE39BE00E94EB
:103020005F0FD6011E962D903D904D905C9051976C
:1030300051966C90712CF60191898285981748F50C
:103040004501D60151969C9151971A968C91940105
:103050002A193B092615370570F7981760F7F40110
:1030600011914F01BE0165517F4FCE0181529F4F9B
:103070000E942F0FE12C01E0C750DF4F2881C95F6C
:10308000D040412FB601CE0181529F4F0E9477124E
:10309000D8CFD60126863786408A518A0488F5899A
:1030A000E02D309769F051968C91D50190E09D010B
:1030B0002A193B092817390738F42D912193F7CFA6
:1030C00089E59BE00E945F0FC550DF4FB881CB5F61
:1030D000D040B093BA03F60191898285981718F40D
:1030E0008381882349F081E0D60113968C93F60101
:1030F00016861786108A118AC450DF4F0FB6F894CF
:10310000DEBF0FBECDBFDF91CF911F910F91FF901A
:10311000EF90DF90CF90BF90AF909F908F907F9077
:103120006F905F904F903F902F900895BF92CF92F5
:10313000DF92EF92FF920F931F93CF93DF93CDB760
:10314000DEB7C250D1400FB6F894DEBF0FBECDBF80
:103150008C016A01CE0180599F4F0E94920EB801E6
:10316000CE0189509F4F0E942F0FCE0189509F4F53
:103170000E945A1140E060E0CE0189509F4F0E94AA
:103180001D11B6016A5E7F4FCE0101960E94C614E2
:10319000BE016F5F7F4FCE0189509F4F0E945E043A
:1031A000CE0101960E94A611BE0169507F4FCE014B
:1031B00001960E942F0FCE0101960E944C11D6015C
:1031C00011968C918823D1F041E060E0CE018950C6
:1031D0009F4F0E941D11B6016D5D7F4FCE0101967C
:1031E0000E94C614BE016F5F7F4FCE0189509F4F72
:1031F0000E945E04CE0101960E94A611BE01605994
:103200007F4FCE0101960E94920EBE0169507F4F02
:10321000CE0185519F4F0E942F0FF6019681818527
:103220009F3F39F48A3038F013E0843628F412E0F6
:1032300003C08031E0F711E0612F70E06F5F7F4FD6
:1032400084E190E00E94B0379B01D60111968C91E9
:10325000E2E042E0811102C0E1E043E0D6011A96CB
:103260008C91820F932F911D0197B9010E94B03765
:10327000F62E461778F1B22E129F200D112484E10C
:10328000821B282F461B6E2FC6010E94E60AF601FC
:1032900086858F15C0F4918982859817A0F4BE01A8
:1032A00065517F4FCE0181529F4F0E942F0FEE2418
:1032B000E394012F2B2D40E0B601CE0181529F4FA8
:1032C0000E947712E4CFD6011E961D921D921D9288
:1032D0001C925197CE5FDE4F0FB6F894DEBF0FBE43
:1032E000CDBFDF91CF911F910F91FF90EF90DF90B5
:1032F000CF90BF900895AF92BF92CF92DF92EF929E
:10330000FF920F931F93CF93DF93CDB7DEB7C359CF
:10331000D1090FB6F894DEBF0FBECDBF6C015B01C3
:103320008A01DA018C91882309F46EC04DE050E0E7
:1033300067E87BE0C80146960E943F3A85E0EEEFE1
:10334000F9E0DE01A059BF4F01900D928A95E1F797
:1033500080E1E0E7F0E0EC0FFD1F3596DF011D9204
:103360008A95E9F74AE0BE016F567F4F83E090E00F
:103370000E940B3565E170E0CE0180599F4F0E949D
:10338000003524E1E22EF12CA701481B590BBE01A8
:103390006F567F4FCE0180599F4F0E942F3A65E1B3
:1033A00070E0CE0180599F4F0E940035A701481B55
:1033B000590B61E97BE0CE0180599F4F0E942F3A63
:1033C00045E150E0BE0160597F4FC80183960E94DD
:1033D0003F3A88EA93E1F801958B848BB501CE01E1
:1033E00001960E94920EB601CE018B579F4F0E940C
:1033F0002F0FA801BE016F5F7F4FCE018B579F4FEC
:103400000E949618D8011C92B501CE0101960E9427
:10341000920EB601CE0180599F4F0E942F0FA80136
:10342000BE016F5F7F4FCE0180599F4F0E9498155C
:10343000CD56DF4F0FB6F894DEBF0FBECDBFDF9184
:10344000CF911F910F91FF90EF90DF90CF90BF90A1
:10345000AF9008953F924F925F926F927F928F92BA
:103460009F92AF92BF92CF92DF92EF92FF920F9313
:103470001F93CF93DF93CDB7DEB7CE50D1400FB6B9
:10348000F894DEBF0FBECDBF7C016B0149015A012C
:10349000043048F40230D8F4013049F08CE99BE064
:1034A0000E945F0F04C00830C8F00930B9F70091DE
:1034B000A6131091A7130130110599F002301105E0
:1034C00009F4D8C18BEB9BE00E945F0F20C081E024
:1034D00090E09093A7138093A613E9CF82E090E049
:1034E000F8CFB601CE0180599F4F0E94920EB701CE
:1034F000CE0193950E942F0F80910B1190910C118A
:103500008130910589F1E0F0029709F4CDC0C25FE6
:10351000DE4F0FB6F894DEBF0FBECDBFDF91CF9167
:103520001F910F91FF90EF90DF90CF90BF90AF90E1
:103530009F908F907F906F905F904F903F900895F5
:103540001092BB0981E08093B8091092A9131092E0
:103550000711109208111092091110920A1110937C
:103560000C1100930B11D3CF8091B809882309F473
:1035700077C04DE050E06DEA7BE08EEC99E00E9470
:103580003F3A8FE0E3E1FAE0DE01A152BF4F019044
:103590000D928A95E1F786E0EFEDF0E0EC0FFD1F6C
:1035A0003F96DF011D928A95E9F78091A8134AE0C2
:1035B000BE01645F7E4F90E00E940B3565E170E0D4
:1035C000CE0181529F4F0E94003504E110E0A80116
:1035D000481B590BBE01645F7E4FCE0181529F4F45
:1035E0000E942F3A65E170E0CE0181529F4F0E9408
:1035F0000035A801481B590B65EB7BE0CE018152D9
:103600009F4F0E942F3A45E150E0BE0161527F4F2B
:103610008BED99E00E943F3A83EA93E19093CD09C4
:103620008093CC098091A8138093C209BE01605990
:103630007F4FCE0101960E94920EBE017395CE017E
:103640008C509F4F0E942F0F48EB59E0BE016F5FD7
:103650007F4FCE018C509F4F0E9496181092B80950
:10366000BE0160597F4FCE0101960E94920EBE01AD
:103670007395CE0181529F4F0E942F0F48EB59E066
:10368000BE016F5F7F4FCE0181529F4F0E94981500
:103690008091BB09882309F43ACF82E090E09093AF
:1036A0000C1180930B1133CF1091A913E12EF12C43
:1036B000C501B4010E9445354B015C01F701ED5590
:1036C000FC4E608170E090E080E00E94453520E093
:1036D00030E048EC52E40E94A6359B01AC01C501E4
:1036E000B4010E94EB3620910711309108114091EE
:1036F000091150910A110E947F366093071170934F
:1037000008118093091190930A110091A813C02EFB
:10371000D12C20E030E040E85FE30E944035811189
:1037200012C01092071110920811109209111092F4
:103730000A11BFEFEB1AFB0AEC14FD040CF097C062
:103740001F5F1093A9138091A91390E09C012F5F34
:103750003F4F0F5F2C153D050CF000E09695982F1C
:10376000882797958795FC01E35FFE4E7F01F0E87F
:103770000F9F80011124035F1E4EC152DF4F18823C
:1037800019821A821B82CF5DD04019821A821B8255
:103790001C823DE0A32E33E1B32ED12CC12CA60117
:1037A000BE0161527F4FC7010E947C0FA601BE017E
:1037B0006F5F7F4FC8010E947C0FCF51DF4F988011
:1037C000C15ED040409007115090081160900911DF
:1037D00070900A116B816919770B072E000C880B0A
:1037E000990B0E944735A30192010E94A6350E94C1
:1037F0005D37960EC052DF4F8880C05ED0406A8130
:103800006819770B072E000C880B990B0E9447351F
:10381000A30192010E94A6350E945D37860EC15217
:10382000DF4F3880CF5DD04069816319770B072E59
:10383000000C880B990B0E944735A30192010E944E
:10384000A6350E945D37360ED5013C9211968C92BA
:10385000119712969C92BFEFCB1ADB0AE3E0AE0EF3
:10386000B11CF2E3CF16D10409F099CF50CE1092DB
:10387000A91369CFB601CE0101960E94920EB7013D
:10388000CE0180599F4F0E942F0F41CE9F92AF9241
:10389000BF92CF92DF92EF92FF920F931F93CF933D
:1038A000DF93CDB7DEB7A5970FB6F894DEBF0FBE96
:1038B000CDBF8C017B01BC01CE0144960E942F0F2D
:1038C000CE0144960E945A1140E060E0CE01449639
:1038D0000E941D11B701695F7F4FCE0101960E94C2
:1038E000C614BE016F5F7F4FCE0144960E945E04F6
:1038F000CE0101960E94A611BE016C5E7F4FCE01E3
:1039000001960E942F0FCE0101960E944C11F701E3
:10391000268181E0233008F480E0F701918189233A
:1039200091E0243008F490E0892BF701828388230A
:10393000C1F042E062E1CE0144960E941D116FE2A7
:1039400072E0CE0144960E94FF1043E062E1CE0196
:1039500044960E941D116CE272E0CE0144960E94D2
:10396000FF10B801CE0144960E942F0F01E010E035
:1039700083E1982E5701F4E1AF0EB11CF701848169
:103980009801280F311D96819217130608F458C02C
:10399000C02ED82ED00E402F60E0CE0144960E945B
:1039A0001D116D2DCE0180960E94ED11BE01605E4D
:1039B0007F4FCE0144960E945E04CE0180960E9405
:1039C000A611402F61E0CE0144960E941D1166E3CE
:1039D00072E0CE0144960E94FF10F701828140E11F
:1039E000811101C043E150E02D2D2150330B929EF7
:1039F000B001939E700D11246A0D7B1DCE010196BE
:103A00000E943F3A4C2D62E0CE0144960E941D1167
:103A1000BE016F5F7F4FCE0180960E94C614BE012B
:103A2000605E7F4FCE0144960E945E04CE01809678
:103A30000E94A6110F5F1F4F0430110509F09ECFA1
:103A4000F701858190E00196348121E0381719064D
:103A500009F020E081E00430110508F080E0282B17
:103A600099F1F7018181882379F1402F60E0CE013F
:103A700044960E941D1164E372E0CE0144960E94B8
:103A8000FF10402F61E0CE0144960E941D1162E3B9
:103A900072E0CE0144960E94FF10402F62E0CE01FA
:103AA00044960E941D116FEC7BE0CE0180960E942F
:103AB000C614BE01605E7F4FCE0144960E945E0434
:103AC000CE0180960E94A611A5960FB6F894DEBF8F
:103AD0000FBECDBFDF91CF911F910F91FF90EF905F
:103AE000DF90CF90BF90AF909F900895DF92EF92BC
:103AF000FF920F931F93CF93DF93CDB7DEB7CF56CF
:103B0000D1090FB6F894DEBF0FBECDBF7C018A018C
:103B1000CE0101960E94920ECE0101960E944B09A1
:103B2000D82E8FEFD8120AC08091BC038F3F31F09E
:103B3000F8015681851798F48F5F8383D092BC0378
:103B4000C159DF4F0FB6F894DEBF0FBECDBFDF9176
:103B5000CF911F910F91FF90EF90DF9008953181E9
:103B6000332311F08A3049F3893069F08B3091F0BA
:103B7000B701CE0101960E942F0FB801CE01019628
:103B80000E94461CDBCFF8018481882389F3815091
:103B90008483EECFF8012581948181E0291708F410
:103BA00080E041E0533008F440E08423832311F4A3
:103BB0009217F0F69F5FF8019483DACF0F931F936B
:103BC000CF93DF93CDB7DEB72C970FB6F894DEBF57
:103BD0000FBECDBF8B01BC01CE0101960E942F0FFD
:103BE000B801CE0101960E94461C2C960FB6F8949F
:103BF000DEBF0FBECDBFDF91CF911F910F91089512
:103C0000EF92FF920F931F93CF93DF93CDB7DEB761
:103C1000CB57D1090FB6F894DEBF0FBECDBF8C01D4
:103C20007B018091E608882309F453C06FED7BE0A7
:103C300086EE98E00E94C41043E150E06BEE7BE01A
:103C40008AEF98E00E943F3A43E150E063EF7BE067
:103C50008DE099E00E943F3A43E150E06DEF7BE058
:103C600080E299E00E943F3A43E150E06BE07CE063
:103C700083E399E00E943F3A43E150E067E17CE052
:103C800086E499E00E943F3A43E150E061E27CE043
:103C900089E599E00E943F3A43E150E061E37CE02E
:103CA0008CE699E00E943F3A43E150E06FE37CE00C
:103CB00082E999E00E943F3AB801CE0101960E9444
:103CC0002F0F66EE78E0CE0101960E94DE1D109265
:103CD000E608B701CE0101960E94920EB801CE010E
:103CE00080599F4F0E942F0F46EE58E0BE016F5F34
:103CF0007F4FCE0180599F4F0E94761DC558DF4FE0
:103D00000FB6F894DEBF0FBECDBFDF91CF911F91EC
:103D10000F91FF90EF900895EF92FF920F931F93F2
:103D2000CF93DF93CDB7DEB7CB57D1090FB6F89459
:103D3000DEBF0FBECDBF8C017B01809114088823AC
:103D400099F166E47CE084E198E00E94C41043E1CC
:103D500050E06DE47CE088E298E00E943F3A43E165
:103D600050E067E57CE08BE398E00E943F3A43E156
:103D700050E061E67CE08EE498E00E943F3A43E147
:103D800050E06FE67CE081E698E00E943F3AB8019F
:103D9000CE0101960E942F0F64E178E0CE010196DA
:103DA0000E94DE1D10921408B701CE0101960E94F8
:103DB000920EB801CE0180599F4F0E942F0F44E10F
:103DC00058E0BE016F5F7F4FCE0180599F4F0E9428
:103DD000761DC558DF4F0FB6F894DEBF0FBECDBFBE
:103DE000DF91CF911F910F91FF90EF9008952F9247
:103DF0003F924F925F926F927F928F929F92AF927B
:103E0000BF92CF92DF92EF92FF920F931F93CF93C7
:103E1000DF93CDB7DEB7C851D1400FB6F894DEBFFF
:103E20000FBECDBF8C016B01F42E20910F1130918C
:103E30001011590144E0A41AB108E091F910F09171
:103E4000FA10E830F10510F00C9469278827E45D3A
:103E5000F04E8F4F0C940538341FAE1F042089217B
:103E6000B422F1223C23452380ED97E0A0E0B0E0AE
:103E70008093E9079093EA07A093EB07B093EC07D0
:103E800088EE97E00E94850E11E0109316071093BC
:103E9000DE061093A60610936E0610936D06109220
:103EA000E1061092A906109271068FEF8093190710
:103EB0001092891110928A1110928B1110928C110C
:103EC0000E94510254E0F51609F445C05F1558F000
:103ED00082E0F81659F193E0F91671F18BE79CE056
:103EE0000E945F0F09C0A6E081E090E0AF15B0F33B
:103EF0009093FA108093F910C85EDE4F0FB6F894D5
:103F0000DEBF0FBECDBFDF91CF911F910F91FF900C
:103F1000EF90DF90CF90BF90AF909F908F907F9069
:103F20006F905F904F903F902F90089510938A115B
:103F300082E3809389110CC082E080938A1189E129
:103F40008093891180910F1190911011059781F341
:103F500086E090E0CDCF83E090E0CACF8091160755
:103F60008823A9F168E87CE086E197E00E94C4100C
:103F700083E1E0E9FCE0B3E0AB16B10410F0E3EA62
:103F8000FCE0DE01119601900D928A95E1F743E184
:103F900050E0BE016F5F7F4F8AE297E00E943F3A98
:103FA00043E150E066EB7CE08DE397E00E943F3A0E
:103FB000B801CE0180599F4F0E942F0F66E177E034
:103FC000CE0180599F4F0E94DE1D10921607B60148
:103FD000CE0101960E94920EB801CE0180599F4FEA
:103FE0000E942F0F46E157E0BE016F5F7F4FCE0169
:103FF00080599F4F0E94761D809119078F3F09F4C9
:104000007BCF82E090E074CF8091DE068823F1F0D0
:10401000809119078130E1F1823009F4C9C0B601FD
:10402000CE0101960E94920EB801CE0184519F4F9D
:104030000E942F0F4EED56E0BE016F5F7F4FCE0105
:1040400084519F4F0E9496181092DE06B601CE0151
:1040500001960E94920EB801CE0180599F4F0E9496
:104060002F0F4EED56E0BE016F5F7F4FCE0180599E
:104070009F4F0E94981580911907813009F403C160
:10408000823009F42BC18EE39DE00E945F0F12C1C4
:104090002230310589F048F42130310509F465C03A
:1040A00089EE9CE00E945F0F19C02430310509F4AD
:1040B0005CC025303105A1F74DE050E065EC7CE0B7
:1040C000CE0181529F4F0E943F3A45E150E06BEC98
:1040D0007CE0CE0180599F4F0E943F3A6DE070E036
:1040E000CE0181529F4F0E9400354CE050E0481BAA
:1040F000590BE3E0AE16B10408F045C063E17EE081
:10410000CE0181529F4F0E942F3A65E170E0CE01AF
:1041100080599F4F0E94003544E150E0481B590BE5
:1041200064E17DE0CE0180599F4F0E942F3A1092AA
:10413000E6068EE18093E7064DE050E0BE01615255
:104140007F4F84EF96E00E943F3A45E150E0BE0188
:1041500060597F4F81E097E00E943F3A8AE891E101
:104160009093F3068093F2065ACF4DE050E066ED4F
:104170007CE0CE0181529F4F0E943F3A45E150E0E2
:104180006DED7CE0A6CF6BE17DE0CE0181529F4FCB
:104190000E942F3A65E170E0CE0180599F4F0E9446
:1041A000003544E150E0481B590B61E27DE0BACF95
:1041B0004DE050E068E27DE084EF96E00E943F3AF7
:1041C0004AE0BE016C5F7E4F81E090E00E940B35BB
:1041D0004AE0BE0168507F4F82E390E00E940B35B9
:1041E00045E150E060E37DE0CE0180599F4F0E94A1
:1041F0003F3A65E170E0CE0180599F4F0E94003543
:10420000A4E1EA2EF12CA701481B590BBE016C5FFB
:104210007E4FCE0180599F4F0E942F3A65E170E09A
:10422000CE0180599F4F0E940035A701481B590BB2
:1042300066E37DE0CE0180599F4F0E942F3A65E1F1
:1042400070E0CE0180599F4F0E940035A701481BA6
:10425000590BBE0168507F4FCE0180599F4F0E947D
:104260002F3A45E150E0BE0160597F4F81E097E071
:104270000E943F3A81E08093E60682E38093E7065E
:1042800089E891E16DCF20918A1130E050E040E063
:10429000F3E0AF16B10430F42150330B032E000CC1
:1042A000440B550B62E370E080E090E00E94C4375D
:1042B000209389118091E106882309F41DCE809115
:1042C0000F11909110118230910509F441CED0F474
:1042D000019709F440CE8BE59DE002CE2091891133
:1042E00030E050E040E062E370E080E090E00E9467
:1042F000C43703E0A016B10418F020938A11DACF76
:104300002F5FFBCF8430910509F425CE059719F76F
:104310001FCE8091A606882309F4DFC085E0EEEF6A
:10432000F9E0DE01A059BF4F01900D928A95E1F7A7
:1043300080E1E0E7F0E0EC0FFD1F3596DF011D9214
:104340008A95E9F72330310579F040F421303105C1
:1043500049F185ED9DE00E945F0F21C024303105B9
:1043600009F126303105A9F74DE050E065E97DE01F
:10437000CE0181529F4F0E943F3A65E170E0CE012D
:1043800080599F4F0E94003544E150E0481B590B73
:104390006DE97DE0CE0180599F4F0E942F3AEFE0FA
:1043A000FE2E41C080918A11803108F08FE04AE0F2
:1043B000BE0168507F4F90E00E940B354DE050E009
:1043C00066EA7DE0CE0181529F4F0E943F3A65E14F
:1043D00070E0CE0180599F4F0E940035F4E1EF2E2E
:1043E000F12CA701481B590BBE0168507F4FCE012D
:1043F00080599F4F0E942F3A65E170E0CE018059AD
:104400009F4F0E940035A701481B590B67EA7DE0CA
:10441000CE0180599F4F0E942F3AF0908A11BFE041
:10442000BF1508F4BCCF6DE070E0CE0181529F4F04
:104430000E9400354CE050E0481B590BE3E0AE16FB
:10444000B10408F072C06DEA7DE0CE0181529F4F49
:104450000E942F3A65E170E0CE0180599F4F0E9483
:10446000003544E150E0481B590B64E17DE0CE018A
:1044700080599F4F0E942F3A4DE050E0BE0161529B
:104480007F4F8CEB96E00E943F3A45E150E0BE0141
:1044900060597F4F89EC96E00E943F3AF092AF0658
:1044A0008BE891E19093BB068093BA06B601CE01EA
:1044B00001960E94920EB801CE0184519F4F0E9436
:1044C0002F0F46EA56E0BE016F5F7F4FCE01845149
:1044D0009F4F0E9496181092A606B601CE01019633
:1044E0000E94920EB801CE0180599F4F0E942F0F5B
:1044F00046EA56E0BE016F5F7F4FCE0180599F4F65
:104500000E9498158091A906882309F4F5CC809122
:104510000F11909110118330910509F419CDD0F449
:104520000197F9F087EB9DE0DBCC62EB7DE0CE01FB
:1045300081529F4F0E942F3A65E170E0CE01805971
:104540009F4F0E94003544E150E0481B590B61E247
:104550007DE08DCF8430910521F0069709F4F8CCE9
:10456000E1CF84E090E0C4CC80916D06882379F09F
:10457000B801CE0101960E942F0FCE0101960E9434
:10458000561510926D0688EE97E00E94850E0E94E7
:104590001F04AB01BC018091ED079091EE07A09143
:1045A000EF07B091F0070091E9071091EA07209119
:1045B000EB073091EC07800F911FA21FB31F21E082
:1045C000481759076A077B0708F420E02093E8079B
:1045D000481759076A077B0708F48ECC85E090E0FE
:1045E00087CC80916E06882369F14DE050E064EF3E
:1045F0007AE084E896E00E943F3A80918B118093A4
:1046000077068DE491E190938306809382068091F2
:104610008A1180937806B601CE0101960E94920E0F
:10462000B801CE0180599F4F0E942F0F4EE656E0F1
:10463000BE016F5F7F4FCE0180599F4F0E94961839
:1046400010926E06B601CE0101960E94920EB8013C
:10465000CE0180599F4F0E942F0F4EE656E0BE01BB
:104660006F5F7F4FCE0180599F4F0E9498158091B8
:10467000710681116DCC40CC1092F8100E94B202EC
:104680000E94D80587E090E033CCCE0180599F4F3F
:104690000E94920EB801CE0188509F4F0E942F0FAA
:1046A00080910F11909110118C0104501109C55F78
:1046B000DE4F19830883CB50D1400330110508F039
:1046C00020C430918C11332309F41BC42FEF230F26
:1046D000A1E0069709F428C4B4E03B9FC00111246F
:1046E000FC01EF5EFE4E1F01F4E02F9F90011124AC
:1046F00089010F5E1E4EC95FDE4F19830883C750C4
:10470000D140A1E02AC410E0B12CA12CF10193808A
:104710009110E1C08091F107882309F45EC0F3E0B5
:10472000FF1609F48CC0FF1550F002E0F01611F1ED
:1047300084E49EE00E945F0F93C011E0E7CF26E083
:104740002F15B0F3C55FDE4F48815981CB50D14062
:104750004330510508F0B1C04DE050E060E17EE02B
:10476000CE0181529F4F0E943F3A45E150E069E1FE
:104770007EE072C04DE050E066EE7DE0CE018152F9
:104780009F4F0E943F3A45E150E06DEE7DE0CE0143
:1047900001960E943F3A4DE050E0BE0161527F4FCA
:1047A00082EF97E00E943F3A45E150E0BE016F5F23
:1047B0007F4F8FEF97E00E943F3ABE0168507F4FD6
:1047C000CE0184519F4F0E942F0F612FCE01845143
:1047D0009F4F0E94DB141092F107BE0160597F4F7A
:1047E000CE0101960E94920EBE0168507F4FCE010D
:1047F00081529F4F0E942F0F82E390E08A199B09FC
:104800008F3F910519F010F08FEF90E0E12E082F07
:1048100029E831E1A101BE016F5F7F4FCE018152D6
:104820009F4F0E942C14112309F466CBE0918C1148
:10483000F0E0E35BFE4E8091891180835DCB4DE01B
:1048400050E06CEF7DE0CE0181529F4F0E943F3AD5
:1048500045E150E062E07EE0CE0101960E943F3AE1
:1048600080918C1190E04AE0BE016C5F7E4F019612
:104870000E940B3565E170E0CE0101960E94003583
:1048800074E1E72EF12CA701481B590BBE016C5FA8
:104890007E4FCE0101960E942F3A65E170E0CE0175
:1048A00001960E940035A701481B590B69EB7BE07C
:1048B000CE0101960E942F3A6ECF4DE050E06AE2A1
:1048C0007EE0CE0181529F4F0E943F3A45E150E089
:1048D00063E37EE0C1CF21E02093F107E0908911EE
:1048E0002E2D30E060918C11E69E70011124E62F90
:1048F000F0E0AF014F5F5F4FC55FDE4F0881198168
:10490000CB50D14003301105C0F4662309F4EFC247
:104910008330910569F03197E29FB001E39F700DFC
:10492000F29F700D112467017B0186309105A1F47F
:104930006501C20ED31E75010FC0429F6001439FE7
:10494000D00C529FD00C11248330910519F0863081
:10495000910511F46111ECCF60918B11641715066C
:1049600081F07CF09C01235031092230310508F49C
:10497000B9C08630910509F4B5C021E081309105B8
:1049800009F020E070918A117417150649F044F07F
:10499000392D8230910529F031E08530910509F0FB
:1049A00030E0211103C0332309F4B9C08701000F9F
:1049B000111F0E0D1F1DF801E35FFC4EAA2309F421
:1049C00093C0035F1C4E5701C6018E199F099C01BD
:1049D00050E040E0C55FDE4F288339834A835B8324
:1049E000CB50D140AC14BD0408F091C0B5016E1994
:1049F0007F0990E080E00E9445352B013C01C55FB6
:104A0000DE4F688179818A819B81CB50D1400E94A1
:104A100045359B01AC01C301B2010E94EB362B016D
:104A20003C01C95FDE4FA881B981C750D1401296C1
:104A30009C90F10162816919770B072E000C880B9D
:104A4000990B0E944735A30192010E94A6350E944E
:104A50005D37690DC75FDE4F6883C950D140C95FBC
:104A6000DE4FA881B981C750D14011968C90F101D9
:104A700061816819770B072E000C880B990B0E9437
:104A80004735A30192010E94A6350E945D37860E2C
:104A9000C95FDE4FA881B981C750D1409C90F10118
:104AA00060816919770B072E000C880B990B0E9407
:104AB0004735A30192010E94A6350E945D37960EEC
:104AC000D8019C9211968C921197C75FDE4FE881B6
:104AD000C950D1401296EC93FFEFAF1ABF0A0D5F99
:104AE0001F4F80CF292D4ECFEC14FD0480F4D1014F
:104AF00012968C91129711969C9111972C9120836C
:104B000091838283BFEFEB1AFB0A3396EDCF0E94AD
:104B1000D80580918C118F5F80938C11EDC9209105
:104B20000E112111B2C18330910519F0069709F0D9
:104B3000672F5DE0A52E51E1B52E30E020E0062F75
:104B400010E0CD5EDE4F19830883C351D140CD5EA6
:104B5000DE4F08811981C351D1402017310708F079
:104B600084C18091891190E0289F8001299F100DB8
:104B7000389F100D1124A9014F5F5F4FCF5EDE4FAC
:104B800059834883C151D1407C01E00EF11EC55FBD
:104B9000DE4FA881B981CB50D140139730F5211554
:104BA000310519F1880F991FF701E81BF90BD92C72
:104BB00078018F0180910F11909110118330910530
:104BC000E9F0A8F481309105A1F1029709F40EC132
:104BD00086ED9AE008C114E0A10EB11CCF5EDE4F55
:104BE00028813981C151D140B2CFD12CE3CF85305A
:104BF000910509F4FBC0E8F0069751F71501E4E0D0
:104C00002E0E311CDD2031F0C95FDE4FB982A88243
:104C1000C750D140EDE4F1E190E080E010E000E029
:104C20002817390709F4EFC04191040F111D0196AF
:104C3000F7CFCF5EDE4FE881F981C151D140E35F0C
:104C4000FE4E87AD882309F4CCC024E0829FC001CA
:104C50001124AC01435F5E4E1A01DD2009F4E1C06E
:104C600086AD54E0859FC0011124DC01A35FBE4ED8
:104C7000C95FDE4FB983A883C750D140C801880FF0
:104C8000991F800F911F9C01235F3C4EC75FDE4F31
:104C900039832883C950D140C15FDE4F198308830F
:104CA000CF50D140C701801B910B9C0150E040E0E8
:104CB000CB5EDE4F288339834A835B83C551D14065
:104CC000C15FDE4F48815981CF50D1404E155F05FD
:104CD00008F081CFBA01601B710B90E080E00E9468
:104CE00045352B013C01CB5EDE4F688179818A819D
:104CF0009B81C551D1400E9445359B01AC01C30148
:104D0000B2010E94EB362B013C01C95FDE4FA88146
:104D1000B981C750D14012968C90F1016281681917
:104D2000770B072E000C880B990B0E944735A301C7
:104D300092010E94A6350E945D37860EC95FDE4F44
:104D4000A881B981C750D1401196DC90F1016181F1
:104D50006D19770B072E000C880B990B0E944735B5
:104D6000A30192010E94A6350E945D37D60EC95F4D
:104D7000DE4FA881B981C750D140CC90F10160814C
:104D80006C19770B072E000C880B990B0E94473586
:104D9000A30192010E94A6350E945D37C60EC75F2F
:104DA000DE4FA881B981C950D140CC921196DC92D6
:104DB000119712968C921297C15FDE4FE881F981AC
:104DC000CF50D1403196C15FDE4FF983E883CF5099
:104DD000D1401396C75FDE4FB983A883C950D14035
:104DE0006FCF8FEB9AE00E945F0F19C01501B4E0FE
:104DF0002B0E311CDD20A9F0C95FDE4FB982A882DD
:104E0000C750D1403BCFCF5EDE4FE881F981C15121
:104E1000D140E35FFE4EE7ACE00EF12EF11CD11065
:104E20002DCFC55FDE4F28813981CB50D140233053
:104E3000310508F4D0CEF801EE0FFF1FE00FF11F8F
:104E4000E35FFC4E0E151F0508F0C5CED10112968A
:104E50008C91129711969C9111972C91208391839C
:104E600082830F5F1F4F3396EDCF0E94D805BE019E
:104E700068507F4FCE0101960E942F0FCE01019600
:104E80000E94631181E080930E11BE0160597F4F33
:104E9000CE0101960E94920ECE0101960E944B090E
:104EA0008F3FA1F4E0916C06EF3F81F0F0E0EC5C05
:104EB000F54F9081911103C091E090930D11809373
:104EC0006C061092FA101092F91016C880936C06B6
:104ED00013C88FE59EE004C880918C1114E0819F77
:104EE000C00111249C012F5E3E4E190114C0CC2438
:104EF000C394D12CF12CE12C8330910509F027CDFE
:104F00002BCD8330910571F040F4019728F78EEC9A
:104F10009DE00E945F0FA0E020C086309105E0F286
:104F20000697A9F720E0A0E080918C1114E0819F02
:104F3000C0011124AC014F5E5E4E1A01AA2369F034
:104F400054E0259F9001112489010F5E1E4EC95F18
:104F5000DE4F19830883C750D14080910F11909183
:104F600010118330910549F08630910509F0CBCBC3
:104F700020918C11222309F4C6CB40918C1150E072
:104F8000EDE4F1E130E020E0B12CA12C241735074D
:104F900008F0D3CB6191A60EB11C2F5F3F4FF6CF27
:104FA000EF92FF921F93CF93DF93CDB7DEB7CB572E
:104FB000D1090FB6F894DEBF0FBECDBF2FEF240F7F
:104FC000243020F526E030E0423031F024E030E0BB
:104FD000443011F025E030E03093101120930F1190
:104FE000142F7C01CE0101960E94920EB701CE01D2
:104FF00080599F4F0E942F0F42E0410FBE016F5F0B
:105000007F4FCE0180599F4F0E94F71EC558DF4F3A
:105010000FB6F894DEBF0FBECDBFDF91CF911F91C9
:10502000FF90EF9008952F923F924F925F926F9270
:105030007F928F929F92AF92BF92CF92DF92EF9228
:10504000FF920F931F93CF93DF93CDB7DEB7C65474
:10505000D1400FB6F894DEBF0FBECDBF7C01142F38
:10506000473038F4423018F5413039F08EEE9EE08A
:105070009CC04730F1F14930C9F7CA5BDE4F0FB62B
:10508000F894DEBF0FBECDBFDF91CF911F910F917E
:10509000FF90EF90DF90CF90BF90AF909F908F9058
:1050A0007F906F905F904F903F902F90089583E096
:1050B00090E0443031F081E090E0463011F082E041
:1050C00090E09093101180930F11CE0101960E94F1
:1050D000920EB701CE0180599F4F0E942F0F412F92
:1050E000BE016F5F7F4FCE0180599F4F0E94F71E18
:1050F000C4CF8AE090E09093101180930F11CE01FD
:1051000080599F4F0E94920EB701CE0193950E9445
:105110002F0F9E012C5C3E4FC15CDE4F39832883EC
:10512000CF53D14088E0D901E82F1D92EA95E9F7E5
:1051300028503109CF5BDE4F39832883C154D140D9
:10514000D901E82F1D92EA95E9F7AE014C5D5E4F5B
:10515000DA01E82F1D92EA95E9F7BE01645E7E4F01
:10516000DB01E82F1D92EA95E9F7DE01AC5EBE4F48
:10517000FD01282F11922A95E9F79E01245F3E4FE9
:10518000F90111928A95E9F78091F6109091F71044
:105190008230910509F4C5C058F4009709F464C041
:1051A000019709F474C081EE9EE00E945F0F65CF05
:1051B0008330910509F44CC10497A9F780910E1131
:1051C000811158C2C0901211D12CB12CA12C1FEF0B
:1051D000B3E3CB16D10408F03EC27501EE0CFF1C00
:1051E000EA0CFB1CF701E35FFC4E7F014501C601A1
:1051F0008A199B099C0150E040E0CD5BDE4F28837B
:1052000039834A835B83C354D1408C149D0408F0D6
:105210001CC2B4016A197B0990E080E00E94453508
:105220002B013C01CD5BDE4F688179818A819B81B6
:10523000C354D1400E9445359B01AC01C301B2016A
:105240000E94EB362B013C0180911111813009F451
:1052500008C1823009F4B8C186EC9EE00E945F0F5D
:10526000412C512C320150C181E080939A058093EA
:105270006205109265058FEF80939D050E94510293
:1052800081E090E09093F7108093F610F6CE809135
:105290009A05882321F167E97EE08AE995E00E947A
:1052A000C41043E150E063EA7EE08EEA95E00E949C
:1052B0003F3A43E150E06BEA7EE081EC95E00E94EA
:1052C0003F3ABE017395CE0101960E942F0F6AE905
:1052D00075E0CE0101960E94DE1D10929A05BE0176
:1052E00060597F4FCE0101960E94920EBE017395C8
:1052F000CE0181529F4F0E942F0F4AE955E0BE0117
:105300006F5F7F4FCE0181529F4F0E94761D80912B
:105310009D058F3F09F4B1CE8093111182E090E09A
:10532000B1CF80916205882309F472C04DE050E04E
:1053300063EB7EE088E795E00E943F3A85E0EEEF80
:10534000F9E0DE01A152BF4F01900D928A95E1F77D
:1053500080E1EFEDF0E0EC0FFD1F3596DF011D92CF
:105360008A95E9F74AE0BE01645C7E4F82E390E0F3
:105370000E940B3565E170E0CE0181529F4F0E9483
:10538000003504E110E0A801481B590BBE01645C24
:105390007E4FCE0181529F4F0E942F3A65E170E00F
:1053A000CE0181529F4F0E940035A801481B590B26
:1053B0006FEB7EE0CE0181529F4F0E942F3A45E174
:1053C00050E0BE0161527F4F85E895E00E943F3A70
:1053D00082E191E19093770580937605BE01605953
:1053E0007F4FCE0101960E94920EBE017395CE01B1
:1053F0008C509F4F0E942F0F42E655E0BE016F5F19
:105400007F4FCE018C509F4F0E94961810926205DC
:10541000BE0160597F4FCE0101960E94920EBE01DF
:105420007395CE0181529F4F0E942F0F42E655E0A7
:10543000BE016F5F7F4FCE0181529F4F0E94981532
:1054400080916505882309F418CE83E090E01ACF97
:105450001092F8100E94B2020E94D80584E090E0F9
:1054600011CF2BEA3AEA4AEA5EE3C301B2010E9495
:10547000403587FF1BC0CB5CDE4F1883C553D1403E
:10548000C85CDE4F1883C853D14088E0FE01EC5C55
:10549000FE4FAEEEB0E101900D928A95E1F720E06B
:1054A00030E040E450E4C301B2012AC02BEA3AEAFA
:1054B0004AE25FE3C301B2010E94403587FF6BC03F
:1054C000C25DDE4F1883CE52D140CF5CDE4F1883D1
:1054D000C153D14088E0FE01E45DFE4FAEEEB0E185
:1054E00001900D928A95E1F72BEA3AEA4AEA5EE3E7
:1054F000C301B2010E947E3620E030E040E450E477
:105500000E94A6352B013C010091F4106091F0102F
:10551000601B770B072E000C880B990B0E944735F8
:10552000A30192010E94A6350E945D37060F3090BC
:10553000F3106091EF106319770B072E000C880BA6
:10554000990B0E944735A30192010E94A6350E9443
:105550005D37360E2090F2106091EE106219770BD5
:10556000072E000C880B990B0E944735A30192016E
:105570000E94A6350E945D37260ED7012C92119607
:105580003C92119712960C93BFEF8B1A9B0AE3E0A3
:10559000EE0EF11C3ACECC5DDE4F1883C452D140E2
:1055A000C65DDE4F1883CA52D14088E0FE01EC5D33
:1055B000FE4FAEEEB0E101900D928A95E1F72BEA35
:1055C0003AEA4AE25FE394CF2BEA3AEA4AEA5EE338
:1055D000C301B2010E94403587FF0FC0C25EDE4F9B
:1055E0001883CE51D140C05EDE4F1883C052D140E7
:1055F00088E0FE01E45EFE4F4CCF2BEA3AEA4AE235
:105600005FE3C301B2010E94403587FF0FC0CB5E4C
:10561000DE4F1883C551D140C65EDE4F1883CA5194
:10562000D14088E0FE01EC5EFE4F58CFC45FDE4FF4
:105630001883CC50D140CF5EDE4F1883C151D1408A
:1056400088E0FE01E45FFE4FB4CF80911211560155
:10565000C80ED11CBDCD0E94D805BE017395CE01E8
:1056600001960E942F0FCE0101960E94631181E0E6
:1056700080930E11BE0160597F4FCE0101960E94AA
:10568000920ECE0101960E944B098F3F89F4E09162
:105690006105EF3F69F0F0E0EC5CF54F908191110E
:1056A00003C091E090930D111092F7101092F61034
:1056B00080936105E2CCEF92FF920F931F93CF93FB
:1056C000DF93CDB7DEB7CB57D1090FB6F894DEBF65
:1056D0000FBECDBF8C017B0180918F04882399F18F
:1056E0006EEF7EE08FE894E00E94C41043E150E04A
:1056F00068E07FE083EA94E00E943F3A43E150E0B3
:1057000064E17FE086EB94E00E943F3A43E150E0A1
:1057100062E27FE089EC94E00E943F3A43E150E08E
:1057200061E37FE08CED94E00E943F3AB801CE0146
:1057300001960E942F0F6FE874E0CE0101960E943F
:10574000DE1D10928F04B701CE0101960E94920EC9
:10575000B801CE0180599F4F0E942F0F4FE854E0AF
:10576000BE016F5F7F4FCE0180599F4F0E94761D13
:10577000C558DF4F0FB6F894DEBF0FBECDBFDF9127
:10578000CF911F910F91FF90EF900895EF92FF92AC
:105790000F931F93CF93DF93CDB7DEB7CB57D109CC
:1057A0000FB6F894DEBF0FBECDBF8C017B01809198
:1057B000BD03882309F45BC061E47FE08DEB93E0D7
:1057C0000E94C41043E150E06BEE7BE081ED93E07A
:1057D0000E943F3A43E150E069E47FE084EE93E0C9
:1057E0000E943F3A43E150E068E07FE087EF93E0BA
:1057F0000E943F3A43E150E065E57FE08AE094E0B3
:105800000E943F3A43E150E062E67FE08DE194E0A0
:105810000E943F3A43E150E061E77FE080E394E09B
:105820000E943F3A43E150E061E87FE083E494E086
:105830000E943F3A43E150E069E87FE086E594E06A
:105840000E943F3A43E150E06FE37CE089E694E058
:105850000E943F3AB801CE0101960E942F0F6DEBD6
:1058600073E0CE0101960E94DE1D1092BD03B701C8
:10587000CE0101960E94920EB801CE0180599F4F31
:105880000E942F0F4DEB53E0BE016F5F7F4FCE01A3
:1058900080599F4F0E94761DC558DF4F0FB6F89470
:1058A000DEBF0FBECDBFDF91CF911F910F91FF9053
:1058B000EF900895CF92DF92EF92FF920F931F9394
:1058C000CF93DF93CDB7DEB7C65FD1090FB6F8949B
:1058D000DEBF0FBECDBF9091EF0F992309F475C2C3
:1058E0002091EB022F3F41F0792F2A3031F071E007
:1058F0008091EE02821708F070E0809119028F3FCC
:1059000041F0692F8A3031F061E030911C02381784
:1059100008F060E08091C0038F3F41F0592F8A303A
:1059200031F051E03091C303381708F050E0809116
:1059300092048F3F41F0492F8A3031F041E030919D
:105940009504381708F040E08091E9088F3F41F056
:10595000392F8A3031F031E0E091EC08E81708F097
:1059600030E0E091F00FE850F1E0E73F08F0F0E0C0
:10597000E0911708EF3F39F0EA3031F091E0809183
:105980001A088E1708F090E0235081E0243008F0C8
:1059900080E08F2B872B862B852B842B832B09F480
:1059A00091110E94570E8091EB028F3F09F0C0C009
:1059B0006EE674E1CE0180599F4F0E94920E62E61E
:1059C00074E1CE0185519F4F0E942F0F8091E80214
:1059D000882309F445C062E97FE088EE92E00E94E6
:1059E000C41043E150E06DE97FE08CEF92E00E944B
:1059F0003F3A43E150E065E77CE08FE093E00E94AE
:105A00003F3A43E150E064EA7FE082E293E00E94A3
:105A10003F3A43E150E069EA7FE085E393E00E948A
:105A20003F3A43E150E06FEA7FE088E493E00E9470
:105A30003F3A43E150E068EB7FE08BE593E00E9462
:105A40003F3ABE0165517F4FCE0101960E942F0F54
:105A500068EE72E0CE0101960E94DE1D1092E8020F
:105A6000BE0160597F4FCE0101960E94920EBE0189
:105A700065517F4FCE0181529F4F0E942F0F48EEFC
:105A800052E0BE016F5F7F4FCE0181529F4F0E9457
:105A9000761D0E941F040091EB0F1091EC0F2091D6
:105AA000ED0F3091EE0F6B017C01C01AD10AE20AB2
:105AB000F30AC092E70FD092E80FE092E90FF0925C
:105AC000EA0F0E941F046093EB0F7093EC0F80931A
:105AD000ED0F9093EE0F8091F8108823C9F000919C
